{
	"contracts/wallet.sol": {
		"Wallet": {
			"abi": [
				{
					"inputs": [
						{
							"internalType": "address",
							"name": "_controller",
							"type": "address"
						},
						{
							"internalType": "string",
							"name": "_ownerId",
							"type": "string"
						}
					],
					"stateMutability": "nonpayable",
					"type": "constructor"
				},
				{
					"inputs": [
						{
							"internalType": "uint256",
							"name": "amountWanted",
							"type": "uint256"
						},
						{
							"internalType": "uint256",
							"name": "currentAmount",
							"type": "uint256"
						}
					],
					"name": "NotEnoughFunds",
					"type": "error"
				},
				{
					"inputs": [
						{
							"internalType": "address",
							"name": "walletControllerAddress",
							"type": "address"
						},
						{
							"internalType": "address",
							"name": "receivedAddress",
							"type": "address"
						}
					],
					"name": "UnAuthorizedWalletController",
					"type": "error"
				},
				{
					"inputs": [],
					"name": "checkBalance",
					"outputs": [
						{
							"internalType": "uint256",
							"name": "",
							"type": "uint256"
						}
					],
					"stateMutability": "view",
					"type": "function"
				},
				{
					"inputs": [],
					"name": "deposit",
					"outputs": [],
					"stateMutability": "payable",
					"type": "function"
				},
				{
					"inputs": [
						{
							"internalType": "uint256",
							"name": "amount",
							"type": "uint256"
						},
						{
							"internalType": "uint64",
							"name": "destinationChainSelector",
							"type": "uint64"
						},
						{
							"internalType": "string",
							"name": "destinationOwnerId",
							"type": "string"
						}
					],
					"name": "swapTransfer",
					"outputs": [],
					"stateMutability": "nonpayable",
					"type": "function"
				},
				{
					"inputs": [
						{
							"internalType": "address",
							"name": "withdrawAddress",
							"type": "address"
						},
						{
							"internalType": "uint64",
							"name": "chainSelector",
							"type": "uint64"
						}
					],
					"name": "withdraw",
					"outputs": [],
					"stateMutability": "nonpayable",
					"type": "function"
				}
			],
			"devdoc": {
				"custom:dev-run-script": "./scripts/deploy_with_ethers.ts",
				"details": "Manages all wallets on a chain",
				"kind": "dev",
				"methods": {},
				"title": "Wallet Controller",
				"version": 1
			},
			"evm": {
				"assembly": "    /* \"contracts/wallet.sol\":203:1238  contract Wallet{... */\n  mstore(0x40, 0x80)\n    /* \"contracts/wallet.sol\":474:612  constructor(address _controller, string memory _ownerId){... */\n  callvalue\n  dup1\n  iszero\n  tag_1\n  jumpi\n  0x00\n  dup1\n  revert\ntag_1:\n  pop\n  mload(0x40)\n  sub(codesize, bytecodeSize)\n  dup1\n  bytecodeSize\n  dup4\n  codecopy\n  dup2\n  dup2\n  add\n  0x40\n  mstore\n  dup2\n  add\n  swap1\n  tag_2\n  swap2\n  swap1\n  tag_3\n  jump\t// in\ntag_2:\n    /* \"contracts/wallet.sol\":566:577  _controller */\n  dup2\n    /* \"contracts/wallet.sol\":540:563  walletControllerAddress */\n  0x01\n  0x00\n    /* \"contracts/wallet.sol\":540:577  walletControllerAddress = _controller */\n  0x0100\n  exp\n  dup2\n  sload\n  dup2\n  0xffffffffffffffffffffffffffffffffffffffff\n  mul\n  not\n  and\n  swap1\n  dup4\n  0xffffffffffffffffffffffffffffffffffffffff\n  and\n  mul\n  or\n  swap1\n  sstore\n  pop\n    /* \"contracts/wallet.sol\":597:605  _ownerId */\n  dup1\n    /* \"contracts/wallet.sol\":587:594  ownerId */\n  0x00\n    /* \"contracts/wallet.sol\":587:605  ownerId = _ownerId */\n  swap1\n  dup2\n  tag_6\n  swap2\n  swap1\n  tag_7\n  jump\t// in\ntag_6:\n  pop\n    /* \"contracts/wallet.sol\":474:612  constructor(address _controller, string memory _ownerId){... */\n  pop\n  pop\n    /* \"contracts/wallet.sol\":203:1238  contract Wallet{... */\n  jump(tag_8)\n    /* \"#utility.yul\":7:82   */\ntag_9:\n    /* \"#utility.yul\":40:46   */\n  0x00\n    /* \"#utility.yul\":73:75   */\n  0x40\n    /* \"#utility.yul\":67:76   */\n  mload\n    /* \"#utility.yul\":57:76   */\n  swap1\n  pop\n    /* \"#utility.yul\":7:82   */\n  swap1\n  jump\t// out\n    /* \"#utility.yul\":88:205   */\ntag_10:\n    /* \"#utility.yul\":197:198   */\n  0x00\n    /* \"#utility.yul\":194:195   */\n  dup1\n    /* \"#utility.yul\":187:199   */\n  revert\n    /* \"#utility.yul\":211:328   */\ntag_11:\n    /* \"#utility.yul\":320:321   */\n  0x00\n    /* \"#utility.yul\":317:318   */\n  dup1\n    /* \"#utility.yul\":310:322   */\n  revert\n    /* \"#utility.yul\":334:460   */\ntag_12:\n    /* \"#utility.yul\":371:378   */\n  0x00\n    /* \"#utility.yul\":411:453   */\n  0xffffffffffffffffffffffffffffffffffffffff\n    /* \"#utility.yul\":404:409   */\n  dup3\n    /* \"#utility.yul\":400:454   */\n  and\n    /* \"#utility.yul\":389:454   */\n  swap1\n  pop\n    /* \"#utility.yul\":334:460   */\n  swap2\n  swap1\n  pop\n  jump\t// out\n    /* \"#utility.yul\":466:562   */\ntag_13:\n    /* \"#utility.yul\":503:510   */\n  0x00\n    /* \"#utility.yul\":532:556   */\n  tag_51\n    /* \"#utility.yul\":550:555   */\n  dup3\n    /* \"#utility.yul\":532:556   */\n  tag_12\n  jump\t// in\ntag_51:\n    /* \"#utility.yul\":521:556   */\n  swap1\n  pop\n    /* \"#utility.yul\":466:562   */\n  swap2\n  swap1\n  pop\n  jump\t// out\n    /* \"#utility.yul\":568:690   */\ntag_14:\n    /* \"#utility.yul\":641:665   */\n  tag_53\n    /* \"#utility.yul\":659:664   */\n  dup2\n    /* \"#utility.yul\":641:665   */\n  tag_13\n  jump\t// in\ntag_53:\n    /* \"#utility.yul\":634:639   */\n  dup2\n    /* \"#utility.yul\":631:666   */\n  eq\n    /* \"#utility.yul\":621:684   */\n  tag_54\n  jumpi\n    /* \"#utility.yul\":680:681   */\n  0x00\n    /* \"#utility.yul\":677:678   */\n  dup1\n    /* \"#utility.yul\":670:682   */\n  revert\n    /* \"#utility.yul\":621:684   */\ntag_54:\n    /* \"#utility.yul\":568:690   */\n  pop\n  jump\t// out\n    /* \"#utility.yul\":696:839   */\ntag_15:\n    /* \"#utility.yul\":753:758   */\n  0x00\n    /* \"#utility.yul\":784:790   */\n  dup2\n    /* \"#utility.yul\":778:791   */\n  mload\n    /* \"#utility.yul\":769:791   */\n  swap1\n  pop\n    /* \"#utility.yul\":800:833   */\n  tag_56\n    /* \"#utility.yul\":827:832   */\n  dup2\n    /* \"#utility.yul\":800:833   */\n  tag_14\n  jump\t// in\ntag_56:\n    /* \"#utility.yul\":696:839   */\n  swap3\n  swap2\n  pop\n  pop\n  jump\t// out\n    /* \"#utility.yul\":845:962   */\ntag_16:\n    /* \"#utility.yul\":954:955   */\n  0x00\n    /* \"#utility.yul\":951:952   */\n  dup1\n    /* \"#utility.yul\":944:956   */\n  revert\n    /* \"#utility.yul\":968:1085   */\ntag_17:\n    /* \"#utility.yul\":1077:1078   */\n  0x00\n    /* \"#utility.yul\":1074:1075   */\n  dup1\n    /* \"#utility.yul\":1067:1079   */\n  revert\n    /* \"#utility.yul\":1091:1193   */\ntag_18:\n    /* \"#utility.yul\":1132:1138   */\n  0x00\n    /* \"#utility.yul\":1183:1185   */\n  0x1f\n    /* \"#utility.yul\":1179:1186   */\n  not\n    /* \"#utility.yul\":1174:1176   */\n  0x1f\n    /* \"#utility.yul\":1167:1172   */\n  dup4\n    /* \"#utility.yul\":1163:1177   */\n  add\n    /* \"#utility.yul\":1159:1187   */\n  and\n    /* \"#utility.yul\":1149:1187   */\n  swap1\n  pop\n    /* \"#utility.yul\":1091:1193   */\n  swap2\n  swap1\n  pop\n  jump\t// out\n    /* \"#utility.yul\":1199:1379   */\ntag_19:\n    /* \"#utility.yul\":1247:1324   */\n  0x4e487b7100000000000000000000000000000000000000000000000000000000\n    /* \"#utility.yul\":1244:1245   */\n  0x00\n    /* \"#utility.yul\":1237:1325   */\n  mstore\n    /* \"#utility.yul\":1344:1348   */\n  0x41\n    /* \"#utility.yul\":1341:1342   */\n  0x04\n    /* \"#utility.yul\":1334:1349   */\n  mstore\n    /* \"#utility.yul\":1368:1372   */\n  0x24\n    /* \"#utility.yul\":1365:1366   */\n  0x00\n    /* \"#utility.yul\":1358:1373   */\n  revert\n    /* \"#utility.yul\":1385:1666   */\ntag_20:\n    /* \"#utility.yul\":1468:1495   */\n  tag_62\n    /* \"#utility.yul\":1490:1494   */\n  dup3\n    /* \"#utility.yul\":1468:1495   */\n  tag_18\n  jump\t// in\ntag_62:\n    /* \"#utility.yul\":1460:1466   */\n  dup2\n    /* \"#utility.yul\":1456:1496   */\n  add\n    /* \"#utility.yul\":1598:1604   */\n  dup2\n    /* \"#utility.yul\":1586:1596   */\n  dup2\n    /* \"#utility.yul\":1583:1605   */\n  lt\n    /* \"#utility.yul\":1562:1580   */\n  0xffffffffffffffff\n    /* \"#utility.yul\":1550:1560   */\n  dup3\n    /* \"#utility.yul\":1547:1581   */\n  gt\n    /* \"#utility.yul\":1544:1606   */\n  or\n    /* \"#utility.yul\":1541:1629   */\n  iszero\n  tag_63\n  jumpi\n    /* \"#utility.yul\":1609:1627   */\n  tag_64\n  tag_19\n  jump\t// in\ntag_64:\n    /* \"#utility.yul\":1541:1629   */\ntag_63:\n    /* \"#utility.yul\":1649:1659   */\n  dup1\n    /* \"#utility.yul\":1645:1647   */\n  0x40\n    /* \"#utility.yul\":1638:1660   */\n  mstore\n    /* \"#utility.yul\":1428:1666   */\n  pop\n    /* \"#utility.yul\":1385:1666   */\n  pop\n  pop\n  jump\t// out\n    /* \"#utility.yul\":1672:1801   */\ntag_21:\n    /* \"#utility.yul\":1706:1712   */\n  0x00\n    /* \"#utility.yul\":1733:1753   */\n  tag_66\n  tag_9\n  jump\t// in\ntag_66:\n    /* \"#utility.yul\":1723:1753   */\n  swap1\n  pop\n    /* \"#utility.yul\":1762:1795   */\n  tag_67\n    /* \"#utility.yul\":1790:1794   */\n  dup3\n    /* \"#utility.yul\":1782:1788   */\n  dup3\n    /* \"#utility.yul\":1762:1795   */\n  tag_20\n  jump\t// in\ntag_67:\n    /* \"#utility.yul\":1672:1801   */\n  swap2\n  swap1\n  pop\n  jump\t// out\n    /* \"#utility.yul\":1807:2115   */\ntag_22:\n    /* \"#utility.yul\":1869:1873   */\n  0x00\n    /* \"#utility.yul\":1959:1977   */\n  0xffffffffffffffff\n    /* \"#utility.yul\":1951:1957   */\n  dup3\n    /* \"#utility.yul\":1948:1978   */\n  gt\n    /* \"#utility.yul\":1945:2001   */\n  iszero\n  tag_69\n  jumpi\n    /* \"#utility.yul\":1981:1999   */\n  tag_70\n  tag_19\n  jump\t// in\ntag_70:\n    /* \"#utility.yul\":1945:2001   */\ntag_69:\n    /* \"#utility.yul\":2019:2048   */\n  tag_71\n    /* \"#utility.yul\":2041:2047   */\n  dup3\n    /* \"#utility.yul\":2019:2048   */\n  tag_18\n  jump\t// in\ntag_71:\n    /* \"#utility.yul\":2011:2048   */\n  swap1\n  pop\n    /* \"#utility.yul\":2103:2107   */\n  0x20\n    /* \"#utility.yul\":2097:2101   */\n  dup2\n    /* \"#utility.yul\":2093:2108   */\n  add\n    /* \"#utility.yul\":2085:2108   */\n  swap1\n  pop\n    /* \"#utility.yul\":1807:2115   */\n  swap2\n  swap1\n  pop\n  jump\t// out\n    /* \"#utility.yul\":2121:2367   */\ntag_23:\n    /* \"#utility.yul\":2202:2203   */\n  0x00\n    /* \"#utility.yul\":2212:2325   */\ntag_73:\n    /* \"#utility.yul\":2226:2232   */\n  dup4\n    /* \"#utility.yul\":2223:2224   */\n  dup2\n    /* \"#utility.yul\":2220:2233   */\n  lt\n    /* \"#utility.yul\":2212:2325   */\n  iszero\n  tag_75\n  jumpi\n    /* \"#utility.yul\":2311:2312   */\n  dup1\n    /* \"#utility.yul\":2306:2309   */\n  dup3\n    /* \"#utility.yul\":2302:2313   */\n  add\n    /* \"#utility.yul\":2296:2314   */\n  mload\n    /* \"#utility.yul\":2292:2293   */\n  dup2\n    /* \"#utility.yul\":2287:2290   */\n  dup5\n    /* \"#utility.yul\":2283:2294   */\n  add\n    /* \"#utility.yul\":2276:2315   */\n  mstore\n    /* \"#utility.yul\":2248:2250   */\n  0x20\n    /* \"#utility.yul\":2245:2246   */\n  dup2\n    /* \"#utility.yul\":2241:2251   */\n  add\n    /* \"#utility.yul\":2236:2251   */\n  swap1\n  pop\n    /* \"#utility.yul\":2212:2325   */\n  jump(tag_73)\ntag_75:\n    /* \"#utility.yul\":2359:2360   */\n  0x00\n    /* \"#utility.yul\":2350:2356   */\n  dup5\n    /* \"#utility.yul\":2345:2348   */\n  dup5\n    /* \"#utility.yul\":2341:2357   */\n  add\n    /* \"#utility.yul\":2334:2361   */\n  mstore\n    /* \"#utility.yul\":2183:2367   */\n  pop\n    /* \"#utility.yul\":2121:2367   */\n  pop\n  pop\n  pop\n  jump\t// out\n    /* \"#utility.yul\":2373:2807   */\ntag_24:\n    /* \"#utility.yul\":2462:2467   */\n  0x00\n    /* \"#utility.yul\":2487:2553   */\n  tag_77\n    /* \"#utility.yul\":2503:2552   */\n  tag_78\n    /* \"#utility.yul\":2545:2551   */\n  dup5\n    /* \"#utility.yul\":2503:2552   */\n  tag_22\n  jump\t// in\ntag_78:\n    /* \"#utility.yul\":2487:2553   */\n  tag_21\n  jump\t// in\ntag_77:\n    /* \"#utility.yul\":2478:2553   */\n  swap1\n  pop\n    /* \"#utility.yul\":2576:2582   */\n  dup3\n    /* \"#utility.yul\":2569:2574   */\n  dup2\n    /* \"#utility.yul\":2562:2583   */\n  mstore\n    /* \"#utility.yul\":2614:2618   */\n  0x20\n    /* \"#utility.yul\":2607:2612   */\n  dup2\n    /* \"#utility.yul\":2603:2619   */\n  add\n    /* \"#utility.yul\":2652:2655   */\n  dup5\n    /* \"#utility.yul\":2643:2649   */\n  dup5\n    /* \"#utility.yul\":2638:2641   */\n  dup5\n    /* \"#utility.yul\":2634:2650   */\n  add\n    /* \"#utility.yul\":2631:2656   */\n  gt\n    /* \"#utility.yul\":2628:2740   */\n  iszero\n  tag_79\n  jumpi\n    /* \"#utility.yul\":2659:2738   */\n  tag_80\n  tag_17\n  jump\t// in\ntag_80:\n    /* \"#utility.yul\":2628:2740   */\ntag_79:\n    /* \"#utility.yul\":2749:2801   */\n  tag_81\n    /* \"#utility.yul\":2794:2800   */\n  dup5\n    /* \"#utility.yul\":2789:2792   */\n  dup3\n    /* \"#utility.yul\":2784:2787   */\n  dup6\n    /* \"#utility.yul\":2749:2801   */\n  tag_23\n  jump\t// in\ntag_81:\n    /* \"#utility.yul\":2468:2807   */\n  pop\n    /* \"#utility.yul\":2373:2807   */\n  swap4\n  swap3\n  pop\n  pop\n  pop\n  jump\t// out\n    /* \"#utility.yul\":2827:3182   */\ntag_25:\n    /* \"#utility.yul\":2894:2899   */\n  0x00\n    /* \"#utility.yul\":2943:2946   */\n  dup3\n    /* \"#utility.yul\":2936:2940   */\n  0x1f\n    /* \"#utility.yul\":2928:2934   */\n  dup4\n    /* \"#utility.yul\":2924:2941   */\n  add\n    /* \"#utility.yul\":2920:2947   */\n  slt\n    /* \"#utility.yul\":2910:3032   */\n  tag_83\n  jumpi\n    /* \"#utility.yul\":2951:3030   */\n  tag_84\n  tag_16\n  jump\t// in\ntag_84:\n    /* \"#utility.yul\":2910:3032   */\ntag_83:\n    /* \"#utility.yul\":3061:3067   */\n  dup2\n    /* \"#utility.yul\":3055:3068   */\n  mload\n    /* \"#utility.yul\":3086:3176   */\n  tag_85\n    /* \"#utility.yul\":3172:3175   */\n  dup5\n    /* \"#utility.yul\":3164:3170   */\n  dup3\n    /* \"#utility.yul\":3157:3161   */\n  0x20\n    /* \"#utility.yul\":3149:3155   */\n  dup7\n    /* \"#utility.yul\":3145:3162   */\n  add\n    /* \"#utility.yul\":3086:3176   */\n  tag_24\n  jump\t// in\ntag_85:\n    /* \"#utility.yul\":3077:3176   */\n  swap2\n  pop\n    /* \"#utility.yul\":2900:3182   */\n  pop\n    /* \"#utility.yul\":2827:3182   */\n  swap3\n  swap2\n  pop\n  pop\n  jump\t// out\n    /* \"#utility.yul\":3188:3868   */\ntag_3:\n    /* \"#utility.yul\":3277:3283   */\n  0x00\n    /* \"#utility.yul\":3285:3291   */\n  dup1\n    /* \"#utility.yul\":3334:3336   */\n  0x40\n    /* \"#utility.yul\":3322:3331   */\n  dup4\n    /* \"#utility.yul\":3313:3320   */\n  dup6\n    /* \"#utility.yul\":3309:3332   */\n  sub\n    /* \"#utility.yul\":3305:3337   */\n  slt\n    /* \"#utility.yul\":3302:3421   */\n  iszero\n  tag_87\n  jumpi\n    /* \"#utility.yul\":3340:3419   */\n  tag_88\n  tag_10\n  jump\t// in\ntag_88:\n    /* \"#utility.yul\":3302:3421   */\ntag_87:\n    /* \"#utility.yul\":3460:3461   */\n  0x00\n    /* \"#utility.yul\":3485:3549   */\n  tag_89\n    /* \"#utility.yul\":3541:3548   */\n  dup6\n    /* \"#utility.yul\":3532:3538   */\n  dup3\n    /* \"#utility.yul\":3521:3530   */\n  dup7\n    /* \"#utility.yul\":3517:3539   */\n  add\n    /* \"#utility.yul\":3485:3549   */\n  tag_15\n  jump\t// in\ntag_89:\n    /* \"#utility.yul\":3475:3549   */\n  swap3\n  pop\n    /* \"#utility.yul\":3431:3559   */\n  pop\n    /* \"#utility.yul\":3619:3621   */\n  0x20\n    /* \"#utility.yul\":3608:3617   */\n  dup4\n    /* \"#utility.yul\":3604:3622   */\n  add\n    /* \"#utility.yul\":3598:3623   */\n  mload\n    /* \"#utility.yul\":3650:3668   */\n  0xffffffffffffffff\n    /* \"#utility.yul\":3642:3648   */\n  dup2\n    /* \"#utility.yul\":3639:3669   */\n  gt\n    /* \"#utility.yul\":3636:3753   */\n  iszero\n  tag_90\n  jumpi\n    /* \"#utility.yul\":3672:3751   */\n  tag_91\n  tag_11\n  jump\t// in\ntag_91:\n    /* \"#utility.yul\":3636:3753   */\ntag_90:\n    /* \"#utility.yul\":3777:3851   */\n  tag_92\n    /* \"#utility.yul\":3843:3850   */\n  dup6\n    /* \"#utility.yul\":3834:3840   */\n  dup3\n    /* \"#utility.yul\":3823:3832   */\n  dup7\n    /* \"#utility.yul\":3819:3841   */\n  add\n    /* \"#utility.yul\":3777:3851   */\n  tag_25\n  jump\t// in\ntag_92:\n    /* \"#utility.yul\":3767:3851   */\n  swap2\n  pop\n    /* \"#utility.yul\":3569:3861   */\n  pop\n    /* \"#utility.yul\":3188:3868   */\n  swap3\n  pop\n  swap3\n  swap1\n  pop\n  jump\t// out\n    /* \"#utility.yul\":3874:3973   */\ntag_26:\n    /* \"#utility.yul\":3926:3932   */\n  0x00\n    /* \"#utility.yul\":3960:3965   */\n  dup2\n    /* \"#utility.yul\":3954:3966   */\n  mload\n    /* \"#utility.yul\":3944:3966   */\n  swap1\n  pop\n    /* \"#utility.yul\":3874:3973   */\n  swap2\n  swap1\n  pop\n  jump\t// out\n    /* \"#utility.yul\":3979:4159   */\ntag_27:\n    /* \"#utility.yul\":4027:4104   */\n  0x4e487b7100000000000000000000000000000000000000000000000000000000\n    /* \"#utility.yul\":4024:4025   */\n  0x00\n    /* \"#utility.yul\":4017:4105   */\n  mstore\n    /* \"#utility.yul\":4124:4128   */\n  0x22\n    /* \"#utility.yul\":4121:4122   */\n  0x04\n    /* \"#utility.yul\":4114:4129   */\n  mstore\n    /* \"#utility.yul\":4148:4152   */\n  0x24\n    /* \"#utility.yul\":4145:4146   */\n  0x00\n    /* \"#utility.yul\":4138:4153   */\n  revert\n    /* \"#utility.yul\":4165:4485   */\ntag_28:\n    /* \"#utility.yul\":4209:4215   */\n  0x00\n    /* \"#utility.yul\":4246:4247   */\n  0x02\n    /* \"#utility.yul\":4240:4244   */\n  dup3\n    /* \"#utility.yul\":4236:4248   */\n  div\n    /* \"#utility.yul\":4226:4248   */\n  swap1\n  pop\n    /* \"#utility.yul\":4293:4294   */\n  0x01\n    /* \"#utility.yul\":4287:4291   */\n  dup3\n    /* \"#utility.yul\":4283:4295   */\n  and\n    /* \"#utility.yul\":4314:4332   */\n  dup1\n    /* \"#utility.yul\":4304:4385   */\n  tag_96\n  jumpi\n    /* \"#utility.yul\":4370:4374   */\n  0x7f\n    /* \"#utility.yul\":4362:4368   */\n  dup3\n    /* \"#utility.yul\":4358:4375   */\n  and\n    /* \"#utility.yul\":4348:4375   */\n  swap2\n  pop\n    /* \"#utility.yul\":4304:4385   */\ntag_96:\n    /* \"#utility.yul\":4432:4434   */\n  0x20\n    /* \"#utility.yul\":4424:4430   */\n  dup3\n    /* \"#utility.yul\":4421:4435   */\n  lt\n    /* \"#utility.yul\":4401:4419   */\n  dup2\n    /* \"#utility.yul\":4398:4436   */\n  sub\n    /* \"#utility.yul\":4395:4479   */\n  tag_97\n  jumpi\n    /* \"#utility.yul\":4451:4469   */\n  tag_98\n  tag_27\n  jump\t// in\ntag_98:\n    /* \"#utility.yul\":4395:4479   */\ntag_97:\n    /* \"#utility.yul\":4216:4485   */\n  pop\n    /* \"#utility.yul\":4165:4485   */\n  swap2\n  swap1\n  pop\n  jump\t// out\n    /* \"#utility.yul\":4491:4632   */\ntag_29:\n    /* \"#utility.yul\":4540:4544   */\n  0x00\n    /* \"#utility.yul\":4563:4566   */\n  dup2\n    /* \"#utility.yul\":4555:4566   */\n  swap1\n  pop\n    /* \"#utility.yul\":4586:4589   */\n  dup2\n    /* \"#utility.yul\":4583:4584   */\n  0x00\n    /* \"#utility.yul\":4576:4590   */\n  mstore\n    /* \"#utility.yul\":4620:4624   */\n  0x20\n    /* \"#utility.yul\":4617:4618   */\n  0x00\n    /* \"#utility.yul\":4607:4625   */\n  keccak256\n    /* \"#utility.yul\":4599:4625   */\n  swap1\n  pop\n    /* \"#utility.yul\":4491:4632   */\n  swap2\n  swap1\n  pop\n  jump\t// out\n    /* \"#utility.yul\":4638:4731   */\ntag_30:\n    /* \"#utility.yul\":4675:4681   */\n  0x00\n    /* \"#utility.yul\":4722:4724   */\n  0x20\n    /* \"#utility.yul\":4717:4719   */\n  0x1f\n    /* \"#utility.yul\":4710:4715   */\n  dup4\n    /* \"#utility.yul\":4706:4720   */\n  add\n    /* \"#utility.yul\":4702:4725   */\n  div\n    /* \"#utility.yul\":4692:4725   */\n  swap1\n  pop\n    /* \"#utility.yul\":4638:4731   */\n  swap2\n  swap1\n  pop\n  jump\t// out\n    /* \"#utility.yul\":4737:4844   */\ntag_31:\n    /* \"#utility.yul\":4781:4789   */\n  0x00\n    /* \"#utility.yul\":4831:4836   */\n  dup3\n    /* \"#utility.yul\":4825:4829   */\n  dup3\n    /* \"#utility.yul\":4821:4837   */\n  shl\n    /* \"#utility.yul\":4800:4837   */\n  swap1\n  pop\n    /* \"#utility.yul\":4737:4844   */\n  swap3\n  swap2\n  pop\n  pop\n  jump\t// out\n    /* \"#utility.yul\":4850:5243   */\ntag_32:\n    /* \"#utility.yul\":4919:4925   */\n  0x00\n    /* \"#utility.yul\":4969:4970   */\n  0x08\n    /* \"#utility.yul\":4957:4967   */\n  dup4\n    /* \"#utility.yul\":4953:4971   */\n  mul\n    /* \"#utility.yul\":4992:5089   */\n  tag_103\n    /* \"#utility.yul\":5022:5088   */\n  0xffffffffffffffffffffffffffffffffffffffffffffffffffffffffffffffff\n    /* \"#utility.yul\":5011:5020   */\n  dup3\n    /* \"#utility.yul\":4992:5089   */\n  tag_31\n  jump\t// in\ntag_103:\n    /* \"#utility.yul\":5110:5149   */\n  tag_104\n    /* \"#utility.yul\":5140:5148   */\n  dup7\n    /* \"#utility.yul\":5129:5138   */\n  dup4\n    /* \"#utility.yul\":5110:5149   */\n  tag_31\n  jump\t// in\ntag_104:\n    /* \"#utility.yul\":5098:5149   */\n  swap6\n  pop\n    /* \"#utility.yul\":5182:5186   */\n  dup1\n    /* \"#utility.yul\":5178:5187   */\n  not\n    /* \"#utility.yul\":5171:5176   */\n  dup5\n    /* \"#utility.yul\":5167:5188   */\n  and\n    /* \"#utility.yul\":5158:5188   */\n  swap4\n  pop\n    /* \"#utility.yul\":5231:5235   */\n  dup1\n    /* \"#utility.yul\":5221:5229   */\n  dup7\n    /* \"#utility.yul\":5217:5236   */\n  and\n    /* \"#utility.yul\":5210:5215   */\n  dup5\n    /* \"#utility.yul\":5207:5237   */\n  or\n    /* \"#utility.yul\":5197:5237   */\n  swap3\n  pop\n    /* \"#utility.yul\":4926:5243   */\n  pop\n  pop\n    /* \"#utility.yul\":4850:5243   */\n  swap4\n  swap3\n  pop\n  pop\n  pop\n  jump\t// out\n    /* \"#utility.yul\":5249:5326   */\ntag_33:\n    /* \"#utility.yul\":5286:5293   */\n  0x00\n    /* \"#utility.yul\":5315:5320   */\n  dup2\n    /* \"#utility.yul\":5304:5320   */\n  swap1\n  pop\n    /* \"#utility.yul\":5249:5326   */\n  swap2\n  swap1\n  pop\n  jump\t// out\n    /* \"#utility.yul\":5332:5392   */\ntag_34:\n    /* \"#utility.yul\":5360:5363   */\n  0x00\n    /* \"#utility.yul\":5381:5386   */\n  dup2\n    /* \"#utility.yul\":5374:5386   */\n  swap1\n  pop\n    /* \"#utility.yul\":5332:5392   */\n  swap2\n  swap1\n  pop\n  jump\t// out\n    /* \"#utility.yul\":5398:5540   */\ntag_35:\n    /* \"#utility.yul\":5448:5457   */\n  0x00\n    /* \"#utility.yul\":5481:5534   */\n  tag_108\n    /* \"#utility.yul\":5499:5533   */\n  tag_109\n    /* \"#utility.yul\":5508:5532   */\n  tag_110\n    /* \"#utility.yul\":5526:5531   */\n  dup5\n    /* \"#utility.yul\":5508:5532   */\n  tag_33\n  jump\t// in\ntag_110:\n    /* \"#utility.yul\":5499:5533   */\n  tag_34\n  jump\t// in\ntag_109:\n    /* \"#utility.yul\":5481:5534   */\n  tag_33\n  jump\t// in\ntag_108:\n    /* \"#utility.yul\":5468:5534   */\n  swap1\n  pop\n    /* \"#utility.yul\":5398:5540   */\n  swap2\n  swap1\n  pop\n  jump\t// out\n    /* \"#utility.yul\":5546:5621   */\ntag_36:\n    /* \"#utility.yul\":5589:5592   */\n  0x00\n    /* \"#utility.yul\":5610:5615   */\n  dup2\n    /* \"#utility.yul\":5603:5615   */\n  swap1\n  pop\n    /* \"#utility.yul\":5546:5621   */\n  swap2\n  swap1\n  pop\n  jump\t// out\n    /* \"#utility.yul\":5627:5896   */\ntag_37:\n    /* \"#utility.yul\":5737:5776   */\n  tag_113\n    /* \"#utility.yul\":5768:5775   */\n  dup4\n    /* \"#utility.yul\":5737:5776   */\n  tag_35\n  jump\t// in\ntag_113:\n    /* \"#utility.yul\":5798:5889   */\n  tag_114\n    /* \"#utility.yul\":5847:5888   */\n  tag_115\n    /* \"#utility.yul\":5871:5887   */\n  dup3\n    /* \"#utility.yul\":5847:5888   */\n  tag_36\n  jump\t// in\ntag_115:\n    /* \"#utility.yul\":5839:5845   */\n  dup5\n    /* \"#utility.yul\":5832:5836   */\n  dup5\n    /* \"#utility.yul\":5826:5837   */\n  sload\n    /* \"#utility.yul\":5798:5889   */\n  tag_32\n  jump\t// in\ntag_114:\n    /* \"#utility.yul\":5792:5796   */\n  dup3\n    /* \"#utility.yul\":5785:5890   */\n  sstore\n    /* \"#utility.yul\":5703:5896   */\n  pop\n    /* \"#utility.yul\":5627:5896   */\n  pop\n  pop\n  pop\n  jump\t// out\n    /* \"#utility.yul\":5902:5975   */\ntag_38:\n    /* \"#utility.yul\":5947:5950   */\n  0x00\n    /* \"#utility.yul\":5902:5975   */\n  swap1\n  jump\t// out\n    /* \"#utility.yul\":5981:6170   */\ntag_39:\n    /* \"#utility.yul\":6058:6090   */\n  tag_118\n  tag_38\n  jump\t// in\ntag_118:\n    /* \"#utility.yul\":6099:6164   */\n  tag_119\n    /* \"#utility.yul\":6157:6163   */\n  dup2\n    /* \"#utility.yul\":6149:6155   */\n  dup5\n    /* \"#utility.yul\":6143:6147   */\n  dup5\n    /* \"#utility.yul\":6099:6164   */\n  tag_37\n  jump\t// in\ntag_119:\n    /* \"#utility.yul\":6034:6170   */\n  pop\n    /* \"#utility.yul\":5981:6170   */\n  pop\n  pop\n  jump\t// out\n    /* \"#utility.yul\":6176:6362   */\ntag_40:\n    /* \"#utility.yul\":6236:6356   */\ntag_121:\n    /* \"#utility.yul\":6253:6256   */\n  dup2\n    /* \"#utility.yul\":6246:6251   */\n  dup2\n    /* \"#utility.yul\":6243:6257   */\n  lt\n    /* \"#utility.yul\":6236:6356   */\n  iszero\n  tag_123\n  jumpi\n    /* \"#utility.yul\":6307:6346   */\n  tag_124\n    /* \"#utility.yul\":6344:6345   */\n  0x00\n    /* \"#utility.yul\":6337:6342   */\n  dup3\n    /* \"#utility.yul\":6307:6346   */\n  tag_39\n  jump\t// in\ntag_124:\n    /* \"#utility.yul\":6280:6281   */\n  0x01\n    /* \"#utility.yul\":6273:6278   */\n  dup2\n    /* \"#utility.yul\":6269:6282   */\n  add\n    /* \"#utility.yul\":6260:6282   */\n  swap1\n  pop\n    /* \"#utility.yul\":6236:6356   */\n  jump(tag_121)\ntag_123:\n    /* \"#utility.yul\":6176:6362   */\n  pop\n  pop\n  jump\t// out\n    /* \"#utility.yul\":6368:6911   */\ntag_41:\n    /* \"#utility.yul\":6469:6471   */\n  0x1f\n    /* \"#utility.yul\":6464:6467   */\n  dup3\n    /* \"#utility.yul\":6461:6472   */\n  gt\n    /* \"#utility.yul\":6458:6904   */\n  iszero\n  tag_126\n  jumpi\n    /* \"#utility.yul\":6503:6541   */\n  tag_127\n    /* \"#utility.yul\":6535:6540   */\n  dup2\n    /* \"#utility.yul\":6503:6541   */\n  tag_29\n  jump\t// in\ntag_127:\n    /* \"#utility.yul\":6587:6616   */\n  tag_128\n    /* \"#utility.yul\":6605:6615   */\n  dup5\n    /* \"#utility.yul\":6587:6616   */\n  tag_30\n  jump\t// in\ntag_128:\n    /* \"#utility.yul\":6577:6585   */\n  dup2\n    /* \"#utility.yul\":6573:6617   */\n  add\n    /* \"#utility.yul\":6770:6772   */\n  0x20\n    /* \"#utility.yul\":6758:6768   */\n  dup6\n    /* \"#utility.yul\":6755:6773   */\n  lt\n    /* \"#utility.yul\":6752:6801   */\n  iszero\n  tag_129\n  jumpi\n    /* \"#utility.yul\":6791:6799   */\n  dup2\n    /* \"#utility.yul\":6776:6799   */\n  swap1\n  pop\n    /* \"#utility.yul\":6752:6801   */\ntag_129:\n    /* \"#utility.yul\":6814:6894   */\n  tag_130\n    /* \"#utility.yul\":6870:6892   */\n  tag_131\n    /* \"#utility.yul\":6888:6891   */\n  dup6\n    /* \"#utility.yul\":6870:6892   */\n  tag_30\n  jump\t// in\ntag_131:\n    /* \"#utility.yul\":6860:6868   */\n  dup4\n    /* \"#utility.yul\":6856:6893   */\n  add\n    /* \"#utility.yul\":6843:6854   */\n  dup3\n    /* \"#utility.yul\":6814:6894   */\n  tag_40\n  jump\t// in\ntag_130:\n    /* \"#utility.yul\":6473:6904   */\n  pop\n  pop\n    /* \"#utility.yul\":6458:6904   */\ntag_126:\n    /* \"#utility.yul\":6368:6911   */\n  pop\n  pop\n  pop\n  jump\t// out\n    /* \"#utility.yul\":6917:7034   */\ntag_42:\n    /* \"#utility.yul\":6971:6979   */\n  0x00\n    /* \"#utility.yul\":7021:7026   */\n  dup3\n    /* \"#utility.yul\":7015:7019   */\n  dup3\n    /* \"#utility.yul\":7011:7027   */\n  shr\n    /* \"#utility.yul\":6990:7027   */\n  swap1\n  pop\n    /* \"#utility.yul\":6917:7034   */\n  swap3\n  swap2\n  pop\n  pop\n  jump\t// out\n    /* \"#utility.yul\":7040:7209   */\ntag_43:\n    /* \"#utility.yul\":7084:7090   */\n  0x00\n    /* \"#utility.yul\":7117:7168   */\n  tag_134\n    /* \"#utility.yul\":7165:7166   */\n  0x00\n    /* \"#utility.yul\":7161:7167   */\n  not\n    /* \"#utility.yul\":7153:7158   */\n  dup5\n    /* \"#utility.yul\":7150:7151   */\n  0x08\n    /* \"#utility.yul\":7146:7159   */\n  mul\n    /* \"#utility.yul\":7117:7168   */\n  tag_42\n  jump\t// in\ntag_134:\n    /* \"#utility.yul\":7113:7169   */\n  not\n    /* \"#utility.yul\":7198:7202   */\n  dup1\n    /* \"#utility.yul\":7192:7196   */\n  dup4\n    /* \"#utility.yul\":7188:7203   */\n  and\n    /* \"#utility.yul\":7178:7203   */\n  swap2\n  pop\n    /* \"#utility.yul\":7091:7209   */\n  pop\n    /* \"#utility.yul\":7040:7209   */\n  swap3\n  swap2\n  pop\n  pop\n  jump\t// out\n    /* \"#utility.yul\":7214:7509   */\ntag_44:\n    /* \"#utility.yul\":7290:7294   */\n  0x00\n    /* \"#utility.yul\":7436:7465   */\n  tag_136\n    /* \"#utility.yul\":7461:7464   */\n  dup4\n    /* \"#utility.yul\":7455:7459   */\n  dup4\n    /* \"#utility.yul\":7436:7465   */\n  tag_43\n  jump\t// in\ntag_136:\n    /* \"#utility.yul\":7428:7465   */\n  swap2\n  pop\n    /* \"#utility.yul\":7498:7501   */\n  dup3\n    /* \"#utility.yul\":7495:7496   */\n  0x02\n    /* \"#utility.yul\":7491:7502   */\n  mul\n    /* \"#utility.yul\":7485:7489   */\n  dup3\n    /* \"#utility.yul\":7482:7503   */\n  or\n    /* \"#utility.yul\":7474:7503   */\n  swap1\n  pop\n    /* \"#utility.yul\":7214:7509   */\n  swap3\n  swap2\n  pop\n  pop\n  jump\t// out\n    /* \"#utility.yul\":7514:8909   */\ntag_7:\n    /* \"#utility.yul\":7631:7668   */\n  tag_138\n    /* \"#utility.yul\":7664:7667   */\n  dup3\n    /* \"#utility.yul\":7631:7668   */\n  tag_26\n  jump\t// in\ntag_138:\n    /* \"#utility.yul\":7733:7751   */\n  0xffffffffffffffff\n    /* \"#utility.yul\":7725:7731   */\n  dup2\n    /* \"#utility.yul\":7722:7752   */\n  gt\n    /* \"#utility.yul\":7719:7775   */\n  iszero\n  tag_139\n  jumpi\n    /* \"#utility.yul\":7755:7773   */\n  tag_140\n  tag_19\n  jump\t// in\ntag_140:\n    /* \"#utility.yul\":7719:7775   */\ntag_139:\n    /* \"#utility.yul\":7799:7837   */\n  tag_141\n    /* \"#utility.yul\":7831:7835   */\n  dup3\n    /* \"#utility.yul\":7825:7836   */\n  sload\n    /* \"#utility.yul\":7799:7837   */\n  tag_28\n  jump\t// in\ntag_141:\n    /* \"#utility.yul\":7884:7951   */\n  tag_142\n    /* \"#utility.yul\":7944:7950   */\n  dup3\n    /* \"#utility.yul\":7936:7942   */\n  dup3\n    /* \"#utility.yul\":7930:7934   */\n  dup6\n    /* \"#utility.yul\":7884:7951   */\n  tag_41\n  jump\t// in\ntag_142:\n    /* \"#utility.yul\":7978:7979   */\n  0x00\n    /* \"#utility.yul\":8002:8006   */\n  0x20\n    /* \"#utility.yul\":7989:8006   */\n  swap1\n  pop\n    /* \"#utility.yul\":8034:8036   */\n  0x1f\n    /* \"#utility.yul\":8026:8032   */\n  dup4\n    /* \"#utility.yul\":8023:8037   */\n  gt\n    /* \"#utility.yul\":8051:8052   */\n  0x01\n    /* \"#utility.yul\":8046:8664   */\n  dup2\n  eq\n  tag_144\n  jumpi\n    /* \"#utility.yul\":8708:8709   */\n  0x00\n    /* \"#utility.yul\":8725:8731   */\n  dup5\n    /* \"#utility.yul\":8722:8799   */\n  iszero\n  tag_145\n  jumpi\n    /* \"#utility.yul\":8774:8783   */\n  dup3\n    /* \"#utility.yul\":8769:8772   */\n  dup8\n    /* \"#utility.yul\":8765:8784   */\n  add\n    /* \"#utility.yul\":8759:8785   */\n  mload\n    /* \"#utility.yul\":8750:8785   */\n  swap1\n  pop\n    /* \"#utility.yul\":8722:8799   */\ntag_145:\n    /* \"#utility.yul\":8825:8892   */\n  tag_146\n    /* \"#utility.yul\":8885:8891   */\n  dup6\n    /* \"#utility.yul\":8878:8883   */\n  dup3\n    /* \"#utility.yul\":8825:8892   */\n  tag_44\n  jump\t// in\ntag_146:\n    /* \"#utility.yul\":8819:8823   */\n  dup7\n    /* \"#utility.yul\":8812:8893   */\n  sstore\n    /* \"#utility.yul\":8681:8903   */\n  pop\n    /* \"#utility.yul\":8016:8903   */\n  jump(tag_143)\n    /* \"#utility.yul\":8046:8664   */\ntag_144:\n    /* \"#utility.yul\":8098:8102   */\n  0x1f\n    /* \"#utility.yul\":8094:8103   */\n  not\n    /* \"#utility.yul\":8086:8092   */\n  dup5\n    /* \"#utility.yul\":8082:8104   */\n  and\n    /* \"#utility.yul\":8132:8169   */\n  tag_147\n    /* \"#utility.yul\":8164:8168   */\n  dup7\n    /* \"#utility.yul\":8132:8169   */\n  tag_29\n  jump\t// in\ntag_147:\n    /* \"#utility.yul\":8191:8192   */\n  0x00\n    /* \"#utility.yul\":8205:8413   */\ntag_148:\n    /* \"#utility.yul\":8219:8226   */\n  dup3\n    /* \"#utility.yul\":8216:8217   */\n  dup2\n    /* \"#utility.yul\":8213:8227   */\n  lt\n    /* \"#utility.yul\":8205:8413   */\n  iszero\n  tag_150\n  jumpi\n    /* \"#utility.yul\":8298:8307   */\n  dup5\n    /* \"#utility.yul\":8293:8296   */\n  dup10\n    /* \"#utility.yul\":8289:8308   */\n  add\n    /* \"#utility.yul\":8283:8309   */\n  mload\n    /* \"#utility.yul\":8275:8281   */\n  dup3\n    /* \"#utility.yul\":8268:8310   */\n  sstore\n    /* \"#utility.yul\":8349:8350   */\n  0x01\n    /* \"#utility.yul\":8341:8347   */\n  dup3\n    /* \"#utility.yul\":8337:8351   */\n  add\n    /* \"#utility.yul\":8327:8351   */\n  swap2\n  pop\n    /* \"#utility.yul\":8396:8398   */\n  0x20\n    /* \"#utility.yul\":8385:8394   */\n  dup6\n    /* \"#utility.yul\":8381:8399   */\n  add\n    /* \"#utility.yul\":8368:8399   */\n  swap5\n  pop\n    /* \"#utility.yul\":8242:8246   */\n  0x20\n    /* \"#utility.yul\":8239:8240   */\n  dup2\n    /* \"#utility.yul\":8235:8247   */\n  add\n    /* \"#utility.yul\":8230:8247   */\n  swap1\n  pop\n    /* \"#utility.yul\":8205:8413   */\n  jump(tag_148)\ntag_150:\n    /* \"#utility.yul\":8441:8447   */\n  dup7\n    /* \"#utility.yul\":8432:8439   */\n  dup4\n    /* \"#utility.yul\":8429:8448   */\n  lt\n    /* \"#utility.yul\":8426:8605   */\n  iszero\n  tag_151\n  jumpi\n    /* \"#utility.yul\":8499:8508   */\n  dup5\n    /* \"#utility.yul\":8494:8497   */\n  dup10\n    /* \"#utility.yul\":8490:8509   */\n  add\n    /* \"#utility.yul\":8484:8510   */\n  mload\n    /* \"#utility.yul\":8542:8590   */\n  tag_152\n    /* \"#utility.yul\":8584:8588   */\n  0x1f\n    /* \"#utility.yul\":8576:8582   */\n  dup10\n    /* \"#utility.yul\":8572:8589   */\n  and\n    /* \"#utility.yul\":8561:8570   */\n  dup3\n    /* \"#utility.yul\":8542:8590   */\n  tag_43\n  jump\t// in\ntag_152:\n    /* \"#utility.yul\":8534:8540   */\n  dup4\n    /* \"#utility.yul\":8527:8591   */\n  sstore\n    /* \"#utility.yul\":8449:8605   */\n  pop\n    /* \"#utility.yul\":8426:8605   */\ntag_151:\n    /* \"#utility.yul\":8651:8652   */\n  0x01\n    /* \"#utility.yul\":8647:8648   */\n  0x02\n    /* \"#utility.yul\":8639:8645   */\n  dup9\n    /* \"#utility.yul\":8635:8649   */\n  mul\n    /* \"#utility.yul\":8631:8653   */\n  add\n    /* \"#utility.yul\":8625:8629   */\n  dup9\n    /* \"#utility.yul\":8618:8654   */\n  sstore\n    /* \"#utility.yul\":8053:8664   */\n  pop\n  pop\n  pop\n    /* \"#utility.yul\":8016:8903   */\ntag_143:\n  pop\n    /* \"#utility.yul\":7606:8909   */\n  pop\n  pop\n  pop\n    /* \"#utility.yul\":7514:8909   */\n  pop\n  pop\n  jump\t// out\n    /* \"contracts/wallet.sol\":203:1238  contract Wallet{... */\ntag_8:\n  dataSize(sub_0)\n  dup1\n  dataOffset(sub_0)\n  0x00\n  codecopy\n  0x00\n  return\nstop\n\nsub_0: assembly {\n        /* \"contracts/wallet.sol\":203:1238  contract Wallet{... */\n      mstore(0x40, 0x80)\n      jumpi(tag_1, lt(calldatasize, 0x04))\n      shr(0xe0, calldataload(0x00))\n      dup1\n      0xc71daccb\n      eq\n      tag_2\n      jumpi\n      dup1\n      0xd0e30db0\n      eq\n      tag_3\n      jumpi\n      dup1\n      0xd6dad060\n      eq\n      tag_4\n      jumpi\n      dup1\n      0xfe18926b\n      eq\n      tag_5\n      jumpi\n    tag_1:\n      0x00\n      dup1\n      revert\n        /* \"contracts/wallet.sol\":820:919  function checkBalance() public view returns (uint256) {... */\n    tag_2:\n      callvalue\n      dup1\n      iszero\n      tag_6\n      jumpi\n      0x00\n      dup1\n      revert\n    tag_6:\n      pop\n      tag_7\n      tag_8\n      jump\t// in\n    tag_7:\n      mload(0x40)\n      tag_9\n      swap2\n      swap1\n      tag_10\n      jump\t// in\n    tag_9:\n      mload(0x40)\n      dup1\n      swap2\n      sub\n      swap1\n      return\n        /* \"contracts/wallet.sol\":1074:1147  function deposit() external payable {... */\n    tag_3:\n      tag_11\n      tag_12\n      jump\t// in\n    tag_11:\n      stop\n        /* \"contracts/wallet.sol\":1153:1235  function withdraw(address withdrawAddress, uint64 chainSelector) external {... */\n    tag_4:\n      callvalue\n      dup1\n      iszero\n      tag_13\n      jumpi\n      0x00\n      dup1\n      revert\n    tag_13:\n      pop\n      tag_14\n      0x04\n      dup1\n      calldatasize\n      sub\n      dup2\n      add\n      swap1\n      tag_15\n      swap2\n      swap1\n      tag_16\n      jump\t// in\n    tag_15:\n      tag_17\n      jump\t// in\n    tag_14:\n      stop\n        /* \"contracts/wallet.sol\":925:1068  function swapTransfer(uint256 amount, uint64 destinationChainSelector, string calldata destinationOwnerId) public fromWalletController {... */\n    tag_5:\n      callvalue\n      dup1\n      iszero\n      tag_18\n      jumpi\n      0x00\n      dup1\n      revert\n    tag_18:\n      pop\n      tag_19\n      0x04\n      dup1\n      calldatasize\n      sub\n      dup2\n      add\n      swap1\n      tag_20\n      swap2\n      swap1\n      tag_21\n      jump\t// in\n    tag_20:\n      tag_22\n      jump\t// in\n    tag_19:\n      stop\n        /* \"contracts/wallet.sol\":820:919  function checkBalance() public view returns (uint256) {... */\n    tag_8:\n        /* \"contracts/wallet.sol\":865:872  uint256 */\n      0x00\n        /* \"contracts/wallet.sol\":891:912  address(this).balance */\n      selfbalance\n        /* \"contracts/wallet.sol\":884:912  return address(this).balance */\n      swap1\n      pop\n        /* \"contracts/wallet.sol\":820:919  function checkBalance() public view returns (uint256) {... */\n      swap1\n      jump\t// out\n        /* \"contracts/wallet.sol\":1074:1147  function deposit() external payable {... */\n    tag_12:\n        /* \"contracts/wallet.sol\":1131:1140  msg.value */\n      callvalue\n        /* \"contracts/wallet.sol\":1120:1127  balance */\n      0x02\n      0x00\n        /* \"contracts/wallet.sol\":1120:1140  balance += msg.value */\n      dup3\n      dup3\n      sload\n      tag_25\n      swap2\n      swap1\n      tag_26\n      jump\t// in\n    tag_25:\n      swap3\n      pop\n      pop\n      dup2\n      swap1\n      sstore\n      pop\n        /* \"contracts/wallet.sol\":1074:1147  function deposit() external payable {... */\n      jump\t// out\n        /* \"contracts/wallet.sol\":1153:1235  function withdraw(address withdrawAddress, uint64 chainSelector) external {... */\n    tag_17:\n      pop\n      pop\n      jump\t// out\n        /* \"contracts/wallet.sol\":925:1068  function swapTransfer(uint256 amount, uint64 destinationChainSelector, string calldata destinationOwnerId) public fromWalletController {... */\n    tag_22:\n        /* \"contracts/wallet.sol\":676:699  walletControllerAddress */\n      0x01\n      0x00\n      swap1\n      sload\n      swap1\n      0x0100\n      exp\n      swap1\n      div\n      0xffffffffffffffffffffffffffffffffffffffff\n      and\n        /* \"contracts/wallet.sol\":662:699  msg.sender != walletControllerAddress */\n      0xffffffffffffffffffffffffffffffffffffffff\n      and\n        /* \"contracts/wallet.sol\":662:672  msg.sender */\n      caller\n        /* \"contracts/wallet.sol\":662:699  msg.sender != walletControllerAddress */\n      0xffffffffffffffffffffffffffffffffffffffff\n      and\n      eq\n        /* \"contracts/wallet.sol\":659:797  if(msg.sender != walletControllerAddress){... */\n      tag_29\n      jumpi\n        /* \"contracts/wallet.sol\":750:773  walletControllerAddress */\n      0x01\n      0x00\n      swap1\n      sload\n      swap1\n      0x0100\n      exp\n      swap1\n      div\n      0xffffffffffffffffffffffffffffffffffffffff\n      and\n        /* \"contracts/wallet.sol\":775:785  msg.sender */\n      caller\n        /* \"contracts/wallet.sol\":721:786  UnAuthorizedWalletController(walletControllerAddress, msg.sender) */\n      mload(0x40)\n      0x5b838a4500000000000000000000000000000000000000000000000000000000\n      dup2\n      mstore\n      0x04\n      add\n      tag_30\n      swap3\n      swap2\n      swap1\n      tag_31\n      jump\t// in\n    tag_30:\n      mload(0x40)\n      dup1\n      swap2\n      sub\n      swap1\n      revert\n        /* \"contracts/wallet.sol\":659:797  if(msg.sender != walletControllerAddress){... */\n    tag_29:\n        /* \"contracts/wallet.sol\":925:1068  function swapTransfer(uint256 amount, uint64 destinationChainSelector, string calldata destinationOwnerId) public fromWalletController {... */\n      pop\n      pop\n      pop\n      pop\n      jump\t// out\n        /* \"#utility.yul\":7:84   */\n    tag_33:\n        /* \"#utility.yul\":44:51   */\n      0x00\n        /* \"#utility.yul\":73:78   */\n      dup2\n        /* \"#utility.yul\":62:78   */\n      swap1\n      pop\n        /* \"#utility.yul\":7:84   */\n      swap2\n      swap1\n      pop\n      jump\t// out\n        /* \"#utility.yul\":90:208   */\n    tag_34:\n        /* \"#utility.yul\":177:201   */\n      tag_56\n        /* \"#utility.yul\":195:200   */\n      dup2\n        /* \"#utility.yul\":177:201   */\n      tag_33\n      jump\t// in\n    tag_56:\n        /* \"#utility.yul\":172:175   */\n      dup3\n        /* \"#utility.yul\":165:202   */\n      mstore\n        /* \"#utility.yul\":90:208   */\n      pop\n      pop\n      jump\t// out\n        /* \"#utility.yul\":214:436   */\n    tag_10:\n        /* \"#utility.yul\":307:311   */\n      0x00\n        /* \"#utility.yul\":345:347   */\n      0x20\n        /* \"#utility.yul\":334:343   */\n      dup3\n        /* \"#utility.yul\":330:348   */\n      add\n        /* \"#utility.yul\":322:348   */\n      swap1\n      pop\n        /* \"#utility.yul\":358:429   */\n      tag_58\n        /* \"#utility.yul\":426:427   */\n      0x00\n        /* \"#utility.yul\":415:424   */\n      dup4\n        /* \"#utility.yul\":411:428   */\n      add\n        /* \"#utility.yul\":402:408   */\n      dup5\n        /* \"#utility.yul\":358:429   */\n      tag_34\n      jump\t// in\n    tag_58:\n        /* \"#utility.yul\":214:436   */\n      swap3\n      swap2\n      pop\n      pop\n      jump\t// out\n        /* \"#utility.yul\":523:640   */\n    tag_36:\n        /* \"#utility.yul\":632:633   */\n      0x00\n        /* \"#utility.yul\":629:630   */\n      dup1\n        /* \"#utility.yul\":622:634   */\n      revert\n        /* \"#utility.yul\":646:763   */\n    tag_37:\n        /* \"#utility.yul\":755:756   */\n      0x00\n        /* \"#utility.yul\":752:753   */\n      dup1\n        /* \"#utility.yul\":745:757   */\n      revert\n        /* \"#utility.yul\":769:895   */\n    tag_38:\n        /* \"#utility.yul\":806:813   */\n      0x00\n        /* \"#utility.yul\":846:888   */\n      0xffffffffffffffffffffffffffffffffffffffff\n        /* \"#utility.yul\":839:844   */\n      dup3\n        /* \"#utility.yul\":835:889   */\n      and\n        /* \"#utility.yul\":824:889   */\n      swap1\n      pop\n        /* \"#utility.yul\":769:895   */\n      swap2\n      swap1\n      pop\n      jump\t// out\n        /* \"#utility.yul\":901:997   */\n    tag_39:\n        /* \"#utility.yul\":938:945   */\n      0x00\n        /* \"#utility.yul\":967:991   */\n      tag_64\n        /* \"#utility.yul\":985:990   */\n      dup3\n        /* \"#utility.yul\":967:991   */\n      tag_38\n      jump\t// in\n    tag_64:\n        /* \"#utility.yul\":956:991   */\n      swap1\n      pop\n        /* \"#utility.yul\":901:997   */\n      swap2\n      swap1\n      pop\n      jump\t// out\n        /* \"#utility.yul\":1003:1125   */\n    tag_40:\n        /* \"#utility.yul\":1076:1100   */\n      tag_66\n        /* \"#utility.yul\":1094:1099   */\n      dup2\n        /* \"#utility.yul\":1076:1100   */\n      tag_39\n      jump\t// in\n    tag_66:\n        /* \"#utility.yul\":1069:1074   */\n      dup2\n        /* \"#utility.yul\":1066:1101   */\n      eq\n        /* \"#utility.yul\":1056:1119   */\n      tag_67\n      jumpi\n        /* \"#utility.yul\":1115:1116   */\n      0x00\n        /* \"#utility.yul\":1112:1113   */\n      dup1\n        /* \"#utility.yul\":1105:1117   */\n      revert\n        /* \"#utility.yul\":1056:1119   */\n    tag_67:\n        /* \"#utility.yul\":1003:1125   */\n      pop\n      jump\t// out\n        /* \"#utility.yul\":1131:1270   */\n    tag_41:\n        /* \"#utility.yul\":1177:1182   */\n      0x00\n        /* \"#utility.yul\":1215:1221   */\n      dup2\n        /* \"#utility.yul\":1202:1222   */\n      calldataload\n        /* \"#utility.yul\":1193:1222   */\n      swap1\n      pop\n        /* \"#utility.yul\":1231:1264   */\n      tag_69\n        /* \"#utility.yul\":1258:1263   */\n      dup2\n        /* \"#utility.yul\":1231:1264   */\n      tag_40\n      jump\t// in\n    tag_69:\n        /* \"#utility.yul\":1131:1270   */\n      swap3\n      swap2\n      pop\n      pop\n      jump\t// out\n        /* \"#utility.yul\":1276:1377   */\n    tag_42:\n        /* \"#utility.yul\":1312:1319   */\n      0x00\n        /* \"#utility.yul\":1352:1370   */\n      0xffffffffffffffff\n        /* \"#utility.yul\":1345:1350   */\n      dup3\n        /* \"#utility.yul\":1341:1371   */\n      and\n        /* \"#utility.yul\":1330:1371   */\n      swap1\n      pop\n        /* \"#utility.yul\":1276:1377   */\n      swap2\n      swap1\n      pop\n      jump\t// out\n        /* \"#utility.yul\":1383:1503   */\n    tag_43:\n        /* \"#utility.yul\":1455:1478   */\n      tag_72\n        /* \"#utility.yul\":1472:1477   */\n      dup2\n        /* \"#utility.yul\":1455:1478   */\n      tag_42\n      jump\t// in\n    tag_72:\n        /* \"#utility.yul\":1448:1453   */\n      dup2\n        /* \"#utility.yul\":1445:1479   */\n      eq\n        /* \"#utility.yul\":1435:1497   */\n      tag_73\n      jumpi\n        /* \"#utility.yul\":1493:1494   */\n      0x00\n        /* \"#utility.yul\":1490:1491   */\n      dup1\n        /* \"#utility.yul\":1483:1495   */\n      revert\n        /* \"#utility.yul\":1435:1497   */\n    tag_73:\n        /* \"#utility.yul\":1383:1503   */\n      pop\n      jump\t// out\n        /* \"#utility.yul\":1509:1646   */\n    tag_44:\n        /* \"#utility.yul\":1554:1559   */\n      0x00\n        /* \"#utility.yul\":1592:1598   */\n      dup2\n        /* \"#utility.yul\":1579:1599   */\n      calldataload\n        /* \"#utility.yul\":1570:1599   */\n      swap1\n      pop\n        /* \"#utility.yul\":1608:1640   */\n      tag_75\n        /* \"#utility.yul\":1634:1639   */\n      dup2\n        /* \"#utility.yul\":1608:1640   */\n      tag_43\n      jump\t// in\n    tag_75:\n        /* \"#utility.yul\":1509:1646   */\n      swap3\n      swap2\n      pop\n      pop\n      jump\t// out\n        /* \"#utility.yul\":1652:2124   */\n    tag_16:\n        /* \"#utility.yul\":1719:1725   */\n      0x00\n        /* \"#utility.yul\":1727:1733   */\n      dup1\n        /* \"#utility.yul\":1776:1778   */\n      0x40\n        /* \"#utility.yul\":1764:1773   */\n      dup4\n        /* \"#utility.yul\":1755:1762   */\n      dup6\n        /* \"#utility.yul\":1751:1774   */\n      sub\n        /* \"#utility.yul\":1747:1779   */\n      slt\n        /* \"#utility.yul\":1744:1863   */\n      iszero\n      tag_77\n      jumpi\n        /* \"#utility.yul\":1782:1861   */\n      tag_78\n      tag_36\n      jump\t// in\n    tag_78:\n        /* \"#utility.yul\":1744:1863   */\n    tag_77:\n        /* \"#utility.yul\":1902:1903   */\n      0x00\n        /* \"#utility.yul\":1927:1980   */\n      tag_79\n        /* \"#utility.yul\":1972:1979   */\n      dup6\n        /* \"#utility.yul\":1963:1969   */\n      dup3\n        /* \"#utility.yul\":1952:1961   */\n      dup7\n        /* \"#utility.yul\":1948:1970   */\n      add\n        /* \"#utility.yul\":1927:1980   */\n      tag_41\n      jump\t// in\n    tag_79:\n        /* \"#utility.yul\":1917:1980   */\n      swap3\n      pop\n        /* \"#utility.yul\":1873:1990   */\n      pop\n        /* \"#utility.yul\":2029:2031   */\n      0x20\n        /* \"#utility.yul\":2055:2107   */\n      tag_80\n        /* \"#utility.yul\":2099:2106   */\n      dup6\n        /* \"#utility.yul\":2090:2096   */\n      dup3\n        /* \"#utility.yul\":2079:2088   */\n      dup7\n        /* \"#utility.yul\":2075:2097   */\n      add\n        /* \"#utility.yul\":2055:2107   */\n      tag_44\n      jump\t// in\n    tag_80:\n        /* \"#utility.yul\":2045:2107   */\n      swap2\n      pop\n        /* \"#utility.yul\":2000:2117   */\n      pop\n        /* \"#utility.yul\":1652:2124   */\n      swap3\n      pop\n      swap3\n      swap1\n      pop\n      jump\t// out\n        /* \"#utility.yul\":2130:2252   */\n    tag_45:\n        /* \"#utility.yul\":2203:2227   */\n      tag_82\n        /* \"#utility.yul\":2221:2226   */\n      dup2\n        /* \"#utility.yul\":2203:2227   */\n      tag_33\n      jump\t// in\n    tag_82:\n        /* \"#utility.yul\":2196:2201   */\n      dup2\n        /* \"#utility.yul\":2193:2228   */\n      eq\n        /* \"#utility.yul\":2183:2246   */\n      tag_83\n      jumpi\n        /* \"#utility.yul\":2242:2243   */\n      0x00\n        /* \"#utility.yul\":2239:2240   */\n      dup1\n        /* \"#utility.yul\":2232:2244   */\n      revert\n        /* \"#utility.yul\":2183:2246   */\n    tag_83:\n        /* \"#utility.yul\":2130:2252   */\n      pop\n      jump\t// out\n        /* \"#utility.yul\":2258:2397   */\n    tag_46:\n        /* \"#utility.yul\":2304:2309   */\n      0x00\n        /* \"#utility.yul\":2342:2348   */\n      dup2\n        /* \"#utility.yul\":2329:2349   */\n      calldataload\n        /* \"#utility.yul\":2320:2349   */\n      swap1\n      pop\n        /* \"#utility.yul\":2358:2391   */\n      tag_85\n        /* \"#utility.yul\":2385:2390   */\n      dup2\n        /* \"#utility.yul\":2358:2391   */\n      tag_45\n      jump\t// in\n    tag_85:\n        /* \"#utility.yul\":2258:2397   */\n      swap3\n      swap2\n      pop\n      pop\n      jump\t// out\n        /* \"#utility.yul\":2403:2520   */\n    tag_47:\n        /* \"#utility.yul\":2512:2513   */\n      0x00\n        /* \"#utility.yul\":2509:2510   */\n      dup1\n        /* \"#utility.yul\":2502:2514   */\n      revert\n        /* \"#utility.yul\":2526:2643   */\n    tag_48:\n        /* \"#utility.yul\":2635:2636   */\n      0x00\n        /* \"#utility.yul\":2632:2633   */\n      dup1\n        /* \"#utility.yul\":2625:2637   */\n      revert\n        /* \"#utility.yul\":2649:2766   */\n    tag_49:\n        /* \"#utility.yul\":2758:2759   */\n      0x00\n        /* \"#utility.yul\":2755:2756   */\n      dup1\n        /* \"#utility.yul\":2748:2760   */\n      revert\n        /* \"#utility.yul\":2786:3339   */\n    tag_50:\n        /* \"#utility.yul\":2844:2852   */\n      0x00\n        /* \"#utility.yul\":2854:2860   */\n      dup1\n        /* \"#utility.yul\":2904:2907   */\n      dup4\n        /* \"#utility.yul\":2897:2901   */\n      0x1f\n        /* \"#utility.yul\":2889:2895   */\n      dup5\n        /* \"#utility.yul\":2885:2902   */\n      add\n        /* \"#utility.yul\":2881:2908   */\n      slt\n        /* \"#utility.yul\":2871:2993   */\n      tag_90\n      jumpi\n        /* \"#utility.yul\":2912:2991   */\n      tag_91\n      tag_47\n      jump\t// in\n    tag_91:\n        /* \"#utility.yul\":2871:2993   */\n    tag_90:\n        /* \"#utility.yul\":3025:3031   */\n      dup3\n        /* \"#utility.yul\":3012:3032   */\n      calldataload\n        /* \"#utility.yul\":3002:3032   */\n      swap1\n      pop\n        /* \"#utility.yul\":3055:3073   */\n      0xffffffffffffffff\n        /* \"#utility.yul\":3047:3053   */\n      dup2\n        /* \"#utility.yul\":3044:3074   */\n      gt\n        /* \"#utility.yul\":3041:3158   */\n      iszero\n      tag_92\n      jumpi\n        /* \"#utility.yul\":3077:3156   */\n      tag_93\n      tag_48\n      jump\t// in\n    tag_93:\n        /* \"#utility.yul\":3041:3158   */\n    tag_92:\n        /* \"#utility.yul\":3191:3195   */\n      0x20\n        /* \"#utility.yul\":3183:3189   */\n      dup4\n        /* \"#utility.yul\":3179:3196   */\n      add\n        /* \"#utility.yul\":3167:3196   */\n      swap2\n      pop\n        /* \"#utility.yul\":3245:3248   */\n      dup4\n        /* \"#utility.yul\":3237:3241   */\n      0x01\n        /* \"#utility.yul\":3229:3235   */\n      dup3\n        /* \"#utility.yul\":3225:3242   */\n      mul\n        /* \"#utility.yul\":3215:3223   */\n      dup4\n        /* \"#utility.yul\":3211:3243   */\n      add\n        /* \"#utility.yul\":3208:3249   */\n      gt\n        /* \"#utility.yul\":3205:3333   */\n      iszero\n      tag_94\n      jumpi\n        /* \"#utility.yul\":3252:3331   */\n      tag_95\n      tag_49\n      jump\t// in\n    tag_95:\n        /* \"#utility.yul\":3205:3333   */\n    tag_94:\n        /* \"#utility.yul\":2786:3339   */\n      swap3\n      pop\n      swap3\n      swap1\n      pop\n      jump\t// out\n        /* \"#utility.yul\":3345:4162   */\n    tag_21:\n        /* \"#utility.yul\":3433:3439   */\n      0x00\n        /* \"#utility.yul\":3441:3447   */\n      dup1\n        /* \"#utility.yul\":3449:3455   */\n      0x00\n        /* \"#utility.yul\":3457:3463   */\n      dup1\n        /* \"#utility.yul\":3506:3508   */\n      0x60\n        /* \"#utility.yul\":3494:3503   */\n      dup6\n        /* \"#utility.yul\":3485:3492   */\n      dup8\n        /* \"#utility.yul\":3481:3504   */\n      sub\n        /* \"#utility.yul\":3477:3509   */\n      slt\n        /* \"#utility.yul\":3474:3593   */\n      iszero\n      tag_97\n      jumpi\n        /* \"#utility.yul\":3512:3591   */\n      tag_98\n      tag_36\n      jump\t// in\n    tag_98:\n        /* \"#utility.yul\":3474:3593   */\n    tag_97:\n        /* \"#utility.yul\":3632:3633   */\n      0x00\n        /* \"#utility.yul\":3657:3710   */\n      tag_99\n        /* \"#utility.yul\":3702:3709   */\n      dup8\n        /* \"#utility.yul\":3693:3699   */\n      dup3\n        /* \"#utility.yul\":3682:3691   */\n      dup9\n        /* \"#utility.yul\":3678:3700   */\n      add\n        /* \"#utility.yul\":3657:3710   */\n      tag_46\n      jump\t// in\n    tag_99:\n        /* \"#utility.yul\":3647:3710   */\n      swap5\n      pop\n        /* \"#utility.yul\":3603:3720   */\n      pop\n        /* \"#utility.yul\":3759:3761   */\n      0x20\n        /* \"#utility.yul\":3785:3837   */\n      tag_100\n        /* \"#utility.yul\":3829:3836   */\n      dup8\n        /* \"#utility.yul\":3820:3826   */\n      dup3\n        /* \"#utility.yul\":3809:3818   */\n      dup9\n        /* \"#utility.yul\":3805:3827   */\n      add\n        /* \"#utility.yul\":3785:3837   */\n      tag_44\n      jump\t// in\n    tag_100:\n        /* \"#utility.yul\":3775:3837   */\n      swap4\n      pop\n        /* \"#utility.yul\":3730:3847   */\n      pop\n        /* \"#utility.yul\":3914:3916   */\n      0x40\n        /* \"#utility.yul\":3903:3912   */\n      dup6\n        /* \"#utility.yul\":3899:3917   */\n      add\n        /* \"#utility.yul\":3886:3918   */\n      calldataload\n        /* \"#utility.yul\":3945:3963   */\n      0xffffffffffffffff\n        /* \"#utility.yul\":3937:3943   */\n      dup2\n        /* \"#utility.yul\":3934:3964   */\n      gt\n        /* \"#utility.yul\":3931:4048   */\n      iszero\n      tag_101\n      jumpi\n        /* \"#utility.yul\":3967:4046   */\n      tag_102\n      tag_37\n      jump\t// in\n    tag_102:\n        /* \"#utility.yul\":3931:4048   */\n    tag_101:\n        /* \"#utility.yul\":4080:4145   */\n      tag_103\n        /* \"#utility.yul\":4137:4144   */\n      dup8\n        /* \"#utility.yul\":4128:4134   */\n      dup3\n        /* \"#utility.yul\":4117:4126   */\n      dup9\n        /* \"#utility.yul\":4113:4135   */\n      add\n        /* \"#utility.yul\":4080:4145   */\n      tag_50\n      jump\t// in\n    tag_103:\n        /* \"#utility.yul\":4062:4145   */\n      swap3\n      pop\n      swap3\n      pop\n        /* \"#utility.yul\":3857:4155   */\n      pop\n        /* \"#utility.yul\":3345:4162   */\n      swap3\n      swap6\n      swap2\n      swap5\n      pop\n      swap3\n      pop\n      jump\t// out\n        /* \"#utility.yul\":4168:4348   */\n    tag_51:\n        /* \"#utility.yul\":4216:4293   */\n      0x4e487b7100000000000000000000000000000000000000000000000000000000\n        /* \"#utility.yul\":4213:4214   */\n      0x00\n        /* \"#utility.yul\":4206:4294   */\n      mstore\n        /* \"#utility.yul\":4313:4317   */\n      0x11\n        /* \"#utility.yul\":4310:4311   */\n      0x04\n        /* \"#utility.yul\":4303:4318   */\n      mstore\n        /* \"#utility.yul\":4337:4341   */\n      0x24\n        /* \"#utility.yul\":4334:4335   */\n      0x00\n        /* \"#utility.yul\":4327:4342   */\n      revert\n        /* \"#utility.yul\":4354:4545   */\n    tag_26:\n        /* \"#utility.yul\":4394:4397   */\n      0x00\n        /* \"#utility.yul\":4413:4433   */\n      tag_106\n        /* \"#utility.yul\":4431:4432   */\n      dup3\n        /* \"#utility.yul\":4413:4433   */\n      tag_33\n      jump\t// in\n    tag_106:\n        /* \"#utility.yul\":4408:4433   */\n      swap2\n      pop\n        /* \"#utility.yul\":4447:4467   */\n      tag_107\n        /* \"#utility.yul\":4465:4466   */\n      dup4\n        /* \"#utility.yul\":4447:4467   */\n      tag_33\n      jump\t// in\n    tag_107:\n        /* \"#utility.yul\":4442:4467   */\n      swap3\n      pop\n        /* \"#utility.yul\":4490:4491   */\n      dup3\n        /* \"#utility.yul\":4487:4488   */\n      dup3\n        /* \"#utility.yul\":4483:4492   */\n      add\n        /* \"#utility.yul\":4476:4492   */\n      swap1\n      pop\n        /* \"#utility.yul\":4511:4514   */\n      dup1\n        /* \"#utility.yul\":4508:4509   */\n      dup3\n        /* \"#utility.yul\":4505:4515   */\n      gt\n        /* \"#utility.yul\":4502:4538   */\n      iszero\n      tag_108\n      jumpi\n        /* \"#utility.yul\":4518:4536   */\n      tag_109\n      tag_51\n      jump\t// in\n    tag_109:\n        /* \"#utility.yul\":4502:4538   */\n    tag_108:\n        /* \"#utility.yul\":4354:4545   */\n      swap3\n      swap2\n      pop\n      pop\n      jump\t// out\n        /* \"#utility.yul\":4551:4669   */\n    tag_52:\n        /* \"#utility.yul\":4638:4662   */\n      tag_111\n        /* \"#utility.yul\":4656:4661   */\n      dup2\n        /* \"#utility.yul\":4638:4662   */\n      tag_39\n      jump\t// in\n    tag_111:\n        /* \"#utility.yul\":4633:4636   */\n      dup3\n        /* \"#utility.yul\":4626:4663   */\n      mstore\n        /* \"#utility.yul\":4551:4669   */\n      pop\n      pop\n      jump\t// out\n        /* \"#utility.yul\":4675:5007   */\n    tag_31:\n        /* \"#utility.yul\":4796:4800   */\n      0x00\n        /* \"#utility.yul\":4834:4836   */\n      0x40\n        /* \"#utility.yul\":4823:4832   */\n      dup3\n        /* \"#utility.yul\":4819:4837   */\n      add\n        /* \"#utility.yul\":4811:4837   */\n      swap1\n      pop\n        /* \"#utility.yul\":4847:4918   */\n      tag_113\n        /* \"#utility.yul\":4915:4916   */\n      0x00\n        /* \"#utility.yul\":4904:4913   */\n      dup4\n        /* \"#utility.yul\":4900:4917   */\n      add\n        /* \"#utility.yul\":4891:4897   */\n      dup6\n        /* \"#utility.yul\":4847:4918   */\n      tag_52\n      jump\t// in\n    tag_113:\n        /* \"#utility.yul\":4928:5000   */\n      tag_114\n        /* \"#utility.yul\":4996:4998   */\n      0x20\n        /* \"#utility.yul\":4985:4994   */\n      dup4\n        /* \"#utility.yul\":4981:4999   */\n      add\n        /* \"#utility.yul\":4972:4978   */\n      dup5\n        /* \"#utility.yul\":4928:5000   */\n      tag_52\n      jump\t// in\n    tag_114:\n        /* \"#utility.yul\":4675:5007   */\n      swap4\n      swap3\n      pop\n      pop\n      pop\n      jump\t// out\n\n    auxdata: 0xa2646970667358221220b296b84cd5be7027c7b10a818aaac4f125ff70da026ca9f171640fbc86cadc1e64736f6c63430008180033\n}\n",
				"bytecode": {
					"linkReferences": {},
					"object": "608060405234801562000010575f80fd5b5060405162000a7d38038062000a7d833981810160405281019062000036919062000275565b8160015f6101000a81548173ffffffffffffffffffffffffffffffffffffffff021916908373ffffffffffffffffffffffffffffffffffffffff160217905550805f908162000086919062000510565b505050620005f4565b5f604051905090565b5f80fd5b5f80fd5b5f73ffffffffffffffffffffffffffffffffffffffff82169050919050565b5f620000cb82620000a0565b9050919050565b620000dd81620000bf565b8114620000e8575f80fd5b50565b5f81519050620000fb81620000d2565b92915050565b5f80fd5b5f80fd5b5f601f19601f8301169050919050565b7f4e487b71000000000000000000000000000000000000000000000000000000005f52604160045260245ffd5b620001518262000109565b810181811067ffffffffffffffff8211171562000173576200017262000119565b5b80604052505050565b5f620001876200008f565b905062000195828262000146565b919050565b5f67ffffffffffffffff821115620001b757620001b662000119565b5b620001c28262000109565b9050602081019050919050565b5f5b83811015620001ee578082015181840152602081019050620001d1565b5f8484015250505050565b5f6200020f62000209846200019a565b6200017c565b9050828152602081018484840111156200022e576200022d62000105565b5b6200023b848285620001cf565b509392505050565b5f82601f8301126200025a576200025962000101565b5b81516200026c848260208601620001f9565b91505092915050565b5f80604083850312156200028e576200028d62000098565b5b5f6200029d85828601620000eb565b925050602083015167ffffffffffffffff811115620002c157620002c06200009c565b5b620002cf8582860162000243565b9150509250929050565b5f81519050919050565b7f4e487b71000000000000000000000000000000000000000000000000000000005f52602260045260245ffd5b5f60028204905060018216806200032857607f821691505b6020821081036200033e576200033d620002e3565b5b50919050565b5f819050815f5260205f209050919050565b5f6020601f8301049050919050565b5f82821b905092915050565b5f60088302620003a27fffffffffffffffffffffffffffffffffffffffffffffffffffffffffffffffff8262000365565b620003ae868362000365565b95508019841693508086168417925050509392505050565b5f819050919050565b5f819050919050565b5f620003f8620003f2620003ec84620003c6565b620003cf565b620003c6565b9050919050565b5f819050919050565b6200041383620003d8565b6200042b6200042282620003ff565b84845462000371565b825550505050565b5f90565b6200044162000433565b6200044e81848462000408565b505050565b5b818110156200047557620004695f8262000437565b60018101905062000454565b5050565b601f821115620004c4576200048e8162000344565b620004998462000356565b81016020851015620004a9578190505b620004c1620004b88562000356565b83018262000453565b50505b505050565b5f82821c905092915050565b5f620004e65f1984600802620004c9565b1980831691505092915050565b5f620005008383620004d5565b9150826002028217905092915050565b6200051b82620002d9565b67ffffffffffffffff81111562000537576200053662000119565b5b62000543825462000310565b6200055082828562000479565b5f60209050601f83116001811462000586575f841562000571578287015190505b6200057d8582620004f3565b865550620005ec565b601f198416620005968662000344565b5f5b82811015620005bf5784890151825560018201915060208501945060208101905062000598565b86831015620005df5784890151620005db601f891682620004d5565b8355505b6001600288020188555050505b505050505050565b61047b80620006025f395ff3fe60806040526004361061003e575f3560e01c8063c71daccb14610042578063d0e30db01461006c578063d6dad06014610076578063fe18926b1461009e575b5f80fd5b34801561004d575f80fd5b506100566100c6565b60405161006391906101bd565b60405180910390f35b6100746100cd565b005b348015610081575f80fd5b5061009c60048036038101906100979190610275565b6100e7565b005b3480156100a9575f80fd5b506100c460048036038101906100bf919061033e565b6100eb565b005b5f47905090565b3460025f8282546100de91906103dc565b92505081905550565b5050565b60015f9054906101000a900473ffffffffffffffffffffffffffffffffffffffff1673ffffffffffffffffffffffffffffffffffffffff163373ffffffffffffffffffffffffffffffffffffffff161461019f5760015f9054906101000a900473ffffffffffffffffffffffffffffffffffffffff16336040517f5b838a4500000000000000000000000000000000000000000000000000000000815260040161019692919061041e565b60405180910390fd5b50505050565b5f819050919050565b6101b7816101a5565b82525050565b5f6020820190506101d05f8301846101ae565b92915050565b5f80fd5b5f80fd5b5f73ffffffffffffffffffffffffffffffffffffffff82169050919050565b5f610207826101de565b9050919050565b610217816101fd565b8114610221575f80fd5b50565b5f813590506102328161020e565b92915050565b5f67ffffffffffffffff82169050919050565b61025481610238565b811461025e575f80fd5b50565b5f8135905061026f8161024b565b92915050565b5f806040838503121561028b5761028a6101d6565b5b5f61029885828601610224565b92505060206102a985828601610261565b9150509250929050565b6102bc816101a5565b81146102c6575f80fd5b50565b5f813590506102d7816102b3565b92915050565b5f80fd5b5f80fd5b5f80fd5b5f8083601f8401126102fe576102fd6102dd565b5b8235905067ffffffffffffffff81111561031b5761031a6102e1565b5b602083019150836001820283011115610337576103366102e5565b5b9250929050565b5f805f8060608587031215610356576103556101d6565b5b5f610363878288016102c9565b945050602061037487828801610261565b935050604085013567ffffffffffffffff811115610395576103946101da565b5b6103a1878288016102e9565b925092505092959194509250565b7f4e487b71000000000000000000000000000000000000000000000000000000005f52601160045260245ffd5b5f6103e6826101a5565b91506103f1836101a5565b9250828201905080821115610409576104086103af565b5b92915050565b610418816101fd565b82525050565b5f6040820190506104315f83018561040f565b61043e602083018461040f565b939250505056fea2646970667358221220b296b84cd5be7027c7b10a818aaac4f125ff70da026ca9f171640fbc86cadc1e64736f6c63430008180033",
					"opcodes": "PUSH1 0x80 PUSH1 0x40 MSTORE CALLVALUE DUP1 ISZERO PUSH3 0x10 JUMPI PUSH0 DUP1 REVERT JUMPDEST POP PUSH1 0x40 MLOAD PUSH3 0xA7D CODESIZE SUB DUP1 PUSH3 0xA7D DUP4 CODECOPY DUP2 DUP2 ADD PUSH1 0x40 MSTORE DUP2 ADD SWAP1 PUSH3 0x36 SWAP2 SWAP1 PUSH3 0x275 JUMP JUMPDEST DUP2 PUSH1 0x1 PUSH0 PUSH2 0x100 EXP DUP2 SLOAD DUP2 PUSH20 0xFFFFFFFFFFFFFFFFFFFFFFFFFFFFFFFFFFFFFFFF MUL NOT AND SWAP1 DUP4 PUSH20 0xFFFFFFFFFFFFFFFFFFFFFFFFFFFFFFFFFFFFFFFF AND MUL OR SWAP1 SSTORE POP DUP1 PUSH0 SWAP1 DUP2 PUSH3 0x86 SWAP2 SWAP1 PUSH3 0x510 JUMP JUMPDEST POP POP POP PUSH3 0x5F4 JUMP JUMPDEST PUSH0 PUSH1 0x40 MLOAD SWAP1 POP SWAP1 JUMP JUMPDEST PUSH0 DUP1 REVERT JUMPDEST PUSH0 DUP1 REVERT JUMPDEST PUSH0 PUSH20 0xFFFFFFFFFFFFFFFFFFFFFFFFFFFFFFFFFFFFFFFF DUP3 AND SWAP1 POP SWAP2 SWAP1 POP JUMP JUMPDEST PUSH0 PUSH3 0xCB DUP3 PUSH3 0xA0 JUMP JUMPDEST SWAP1 POP SWAP2 SWAP1 POP JUMP JUMPDEST PUSH3 0xDD DUP2 PUSH3 0xBF JUMP JUMPDEST DUP2 EQ PUSH3 0xE8 JUMPI PUSH0 DUP1 REVERT JUMPDEST POP JUMP JUMPDEST PUSH0 DUP2 MLOAD SWAP1 POP PUSH3 0xFB DUP2 PUSH3 0xD2 JUMP JUMPDEST SWAP3 SWAP2 POP POP JUMP JUMPDEST PUSH0 DUP1 REVERT JUMPDEST PUSH0 DUP1 REVERT JUMPDEST PUSH0 PUSH1 0x1F NOT PUSH1 0x1F DUP4 ADD AND SWAP1 POP SWAP2 SWAP1 POP JUMP JUMPDEST PUSH32 0x4E487B7100000000000000000000000000000000000000000000000000000000 PUSH0 MSTORE PUSH1 0x41 PUSH1 0x4 MSTORE PUSH1 0x24 PUSH0 REVERT JUMPDEST PUSH3 0x151 DUP3 PUSH3 0x109 JUMP JUMPDEST DUP2 ADD DUP2 DUP2 LT PUSH8 0xFFFFFFFFFFFFFFFF DUP3 GT OR ISZERO PUSH3 0x173 JUMPI PUSH3 0x172 PUSH3 0x119 JUMP JUMPDEST JUMPDEST DUP1 PUSH1 0x40 MSTORE POP POP POP JUMP JUMPDEST PUSH0 PUSH3 0x187 PUSH3 0x8F JUMP JUMPDEST SWAP1 POP PUSH3 0x195 DUP3 DUP3 PUSH3 0x146 JUMP JUMPDEST SWAP2 SWAP1 POP JUMP JUMPDEST PUSH0 PUSH8 0xFFFFFFFFFFFFFFFF DUP3 GT ISZERO PUSH3 0x1B7 JUMPI PUSH3 0x1B6 PUSH3 0x119 JUMP JUMPDEST JUMPDEST PUSH3 0x1C2 DUP3 PUSH3 0x109 JUMP JUMPDEST SWAP1 POP PUSH1 0x20 DUP2 ADD SWAP1 POP SWAP2 SWAP1 POP JUMP JUMPDEST PUSH0 JUMPDEST DUP4 DUP2 LT ISZERO PUSH3 0x1EE JUMPI DUP1 DUP3 ADD MLOAD DUP2 DUP5 ADD MSTORE PUSH1 0x20 DUP2 ADD SWAP1 POP PUSH3 0x1D1 JUMP JUMPDEST PUSH0 DUP5 DUP5 ADD MSTORE POP POP POP POP JUMP JUMPDEST PUSH0 PUSH3 0x20F PUSH3 0x209 DUP5 PUSH3 0x19A JUMP JUMPDEST PUSH3 0x17C JUMP JUMPDEST SWAP1 POP DUP3 DUP2 MSTORE PUSH1 0x20 DUP2 ADD DUP5 DUP5 DUP5 ADD GT ISZERO PUSH3 0x22E JUMPI PUSH3 0x22D PUSH3 0x105 JUMP JUMPDEST JUMPDEST PUSH3 0x23B DUP5 DUP3 DUP6 PUSH3 0x1CF JUMP JUMPDEST POP SWAP4 SWAP3 POP POP POP JUMP JUMPDEST PUSH0 DUP3 PUSH1 0x1F DUP4 ADD SLT PUSH3 0x25A JUMPI PUSH3 0x259 PUSH3 0x101 JUMP JUMPDEST JUMPDEST DUP2 MLOAD PUSH3 0x26C DUP5 DUP3 PUSH1 0x20 DUP7 ADD PUSH3 0x1F9 JUMP JUMPDEST SWAP2 POP POP SWAP3 SWAP2 POP POP JUMP JUMPDEST PUSH0 DUP1 PUSH1 0x40 DUP4 DUP6 SUB SLT ISZERO PUSH3 0x28E JUMPI PUSH3 0x28D PUSH3 0x98 JUMP JUMPDEST JUMPDEST PUSH0 PUSH3 0x29D DUP6 DUP3 DUP7 ADD PUSH3 0xEB JUMP JUMPDEST SWAP3 POP POP PUSH1 0x20 DUP4 ADD MLOAD PUSH8 0xFFFFFFFFFFFFFFFF DUP2 GT ISZERO PUSH3 0x2C1 JUMPI PUSH3 0x2C0 PUSH3 0x9C JUMP JUMPDEST JUMPDEST PUSH3 0x2CF DUP6 DUP3 DUP7 ADD PUSH3 0x243 JUMP JUMPDEST SWAP2 POP POP SWAP3 POP SWAP3 SWAP1 POP JUMP JUMPDEST PUSH0 DUP2 MLOAD SWAP1 POP SWAP2 SWAP1 POP JUMP JUMPDEST PUSH32 0x4E487B7100000000000000000000000000000000000000000000000000000000 PUSH0 MSTORE PUSH1 0x22 PUSH1 0x4 MSTORE PUSH1 0x24 PUSH0 REVERT JUMPDEST PUSH0 PUSH1 0x2 DUP3 DIV SWAP1 POP PUSH1 0x1 DUP3 AND DUP1 PUSH3 0x328 JUMPI PUSH1 0x7F DUP3 AND SWAP2 POP JUMPDEST PUSH1 0x20 DUP3 LT DUP2 SUB PUSH3 0x33E JUMPI PUSH3 0x33D PUSH3 0x2E3 JUMP JUMPDEST JUMPDEST POP SWAP2 SWAP1 POP JUMP JUMPDEST PUSH0 DUP2 SWAP1 POP DUP2 PUSH0 MSTORE PUSH1 0x20 PUSH0 KECCAK256 SWAP1 POP SWAP2 SWAP1 POP JUMP JUMPDEST PUSH0 PUSH1 0x20 PUSH1 0x1F DUP4 ADD DIV SWAP1 POP SWAP2 SWAP1 POP JUMP JUMPDEST PUSH0 DUP3 DUP3 SHL SWAP1 POP SWAP3 SWAP2 POP POP JUMP JUMPDEST PUSH0 PUSH1 0x8 DUP4 MUL PUSH3 0x3A2 PUSH32 0xFFFFFFFFFFFFFFFFFFFFFFFFFFFFFFFFFFFFFFFFFFFFFFFFFFFFFFFFFFFFFFFF DUP3 PUSH3 0x365 JUMP JUMPDEST PUSH3 0x3AE DUP7 DUP4 PUSH3 0x365 JUMP JUMPDEST SWAP6 POP DUP1 NOT DUP5 AND SWAP4 POP DUP1 DUP7 AND DUP5 OR SWAP3 POP POP POP SWAP4 SWAP3 POP POP POP JUMP JUMPDEST PUSH0 DUP2 SWAP1 POP SWAP2 SWAP1 POP JUMP JUMPDEST PUSH0 DUP2 SWAP1 POP SWAP2 SWAP1 POP JUMP JUMPDEST PUSH0 PUSH3 0x3F8 PUSH3 0x3F2 PUSH3 0x3EC DUP5 PUSH3 0x3C6 JUMP JUMPDEST PUSH3 0x3CF JUMP JUMPDEST PUSH3 0x3C6 JUMP JUMPDEST SWAP1 POP SWAP2 SWAP1 POP JUMP JUMPDEST PUSH0 DUP2 SWAP1 POP SWAP2 SWAP1 POP JUMP JUMPDEST PUSH3 0x413 DUP4 PUSH3 0x3D8 JUMP JUMPDEST PUSH3 0x42B PUSH3 0x422 DUP3 PUSH3 0x3FF JUMP JUMPDEST DUP5 DUP5 SLOAD PUSH3 0x371 JUMP JUMPDEST DUP3 SSTORE POP POP POP POP JUMP JUMPDEST PUSH0 SWAP1 JUMP JUMPDEST PUSH3 0x441 PUSH3 0x433 JUMP JUMPDEST PUSH3 0x44E DUP2 DUP5 DUP5 PUSH3 0x408 JUMP JUMPDEST POP POP POP JUMP JUMPDEST JUMPDEST DUP2 DUP2 LT ISZERO PUSH3 0x475 JUMPI PUSH3 0x469 PUSH0 DUP3 PUSH3 0x437 JUMP JUMPDEST PUSH1 0x1 DUP2 ADD SWAP1 POP PUSH3 0x454 JUMP JUMPDEST POP POP JUMP JUMPDEST PUSH1 0x1F DUP3 GT ISZERO PUSH3 0x4C4 JUMPI PUSH3 0x48E DUP2 PUSH3 0x344 JUMP JUMPDEST PUSH3 0x499 DUP5 PUSH3 0x356 JUMP JUMPDEST DUP2 ADD PUSH1 0x20 DUP6 LT ISZERO PUSH3 0x4A9 JUMPI DUP2 SWAP1 POP JUMPDEST PUSH3 0x4C1 PUSH3 0x4B8 DUP6 PUSH3 0x356 JUMP JUMPDEST DUP4 ADD DUP3 PUSH3 0x453 JUMP JUMPDEST POP POP JUMPDEST POP POP POP JUMP JUMPDEST PUSH0 DUP3 DUP3 SHR SWAP1 POP SWAP3 SWAP2 POP POP JUMP JUMPDEST PUSH0 PUSH3 0x4E6 PUSH0 NOT DUP5 PUSH1 0x8 MUL PUSH3 0x4C9 JUMP JUMPDEST NOT DUP1 DUP4 AND SWAP2 POP POP SWAP3 SWAP2 POP POP JUMP JUMPDEST PUSH0 PUSH3 0x500 DUP4 DUP4 PUSH3 0x4D5 JUMP JUMPDEST SWAP2 POP DUP3 PUSH1 0x2 MUL DUP3 OR SWAP1 POP SWAP3 SWAP2 POP POP JUMP JUMPDEST PUSH3 0x51B DUP3 PUSH3 0x2D9 JUMP JUMPDEST PUSH8 0xFFFFFFFFFFFFFFFF DUP2 GT ISZERO PUSH3 0x537 JUMPI PUSH3 0x536 PUSH3 0x119 JUMP JUMPDEST JUMPDEST PUSH3 0x543 DUP3 SLOAD PUSH3 0x310 JUMP JUMPDEST PUSH3 0x550 DUP3 DUP3 DUP6 PUSH3 0x479 JUMP JUMPDEST PUSH0 PUSH1 0x20 SWAP1 POP PUSH1 0x1F DUP4 GT PUSH1 0x1 DUP2 EQ PUSH3 0x586 JUMPI PUSH0 DUP5 ISZERO PUSH3 0x571 JUMPI DUP3 DUP8 ADD MLOAD SWAP1 POP JUMPDEST PUSH3 0x57D DUP6 DUP3 PUSH3 0x4F3 JUMP JUMPDEST DUP7 SSTORE POP PUSH3 0x5EC JUMP JUMPDEST PUSH1 0x1F NOT DUP5 AND PUSH3 0x596 DUP7 PUSH3 0x344 JUMP JUMPDEST PUSH0 JUMPDEST DUP3 DUP2 LT ISZERO PUSH3 0x5BF JUMPI DUP5 DUP10 ADD MLOAD DUP3 SSTORE PUSH1 0x1 DUP3 ADD SWAP2 POP PUSH1 0x20 DUP6 ADD SWAP5 POP PUSH1 0x20 DUP2 ADD SWAP1 POP PUSH3 0x598 JUMP JUMPDEST DUP7 DUP4 LT ISZERO PUSH3 0x5DF JUMPI DUP5 DUP10 ADD MLOAD PUSH3 0x5DB PUSH1 0x1F DUP10 AND DUP3 PUSH3 0x4D5 JUMP JUMPDEST DUP4 SSTORE POP JUMPDEST PUSH1 0x1 PUSH1 0x2 DUP9 MUL ADD DUP9 SSTORE POP POP POP JUMPDEST POP POP POP POP POP POP JUMP JUMPDEST PUSH2 0x47B DUP1 PUSH3 0x602 PUSH0 CODECOPY PUSH0 RETURN INVALID PUSH1 0x80 PUSH1 0x40 MSTORE PUSH1 0x4 CALLDATASIZE LT PUSH2 0x3E JUMPI PUSH0 CALLDATALOAD PUSH1 0xE0 SHR DUP1 PUSH4 0xC71DACCB EQ PUSH2 0x42 JUMPI DUP1 PUSH4 0xD0E30DB0 EQ PUSH2 0x6C JUMPI DUP1 PUSH4 0xD6DAD060 EQ PUSH2 0x76 JUMPI DUP1 PUSH4 0xFE18926B EQ PUSH2 0x9E JUMPI JUMPDEST PUSH0 DUP1 REVERT JUMPDEST CALLVALUE DUP1 ISZERO PUSH2 0x4D JUMPI PUSH0 DUP1 REVERT JUMPDEST POP PUSH2 0x56 PUSH2 0xC6 JUMP JUMPDEST PUSH1 0x40 MLOAD PUSH2 0x63 SWAP2 SWAP1 PUSH2 0x1BD JUMP JUMPDEST PUSH1 0x40 MLOAD DUP1 SWAP2 SUB SWAP1 RETURN JUMPDEST PUSH2 0x74 PUSH2 0xCD JUMP JUMPDEST STOP JUMPDEST CALLVALUE DUP1 ISZERO PUSH2 0x81 JUMPI PUSH0 DUP1 REVERT JUMPDEST POP PUSH2 0x9C PUSH1 0x4 DUP1 CALLDATASIZE SUB DUP2 ADD SWAP1 PUSH2 0x97 SWAP2 SWAP1 PUSH2 0x275 JUMP JUMPDEST PUSH2 0xE7 JUMP JUMPDEST STOP JUMPDEST CALLVALUE DUP1 ISZERO PUSH2 0xA9 JUMPI PUSH0 DUP1 REVERT JUMPDEST POP PUSH2 0xC4 PUSH1 0x4 DUP1 CALLDATASIZE SUB DUP2 ADD SWAP1 PUSH2 0xBF SWAP2 SWAP1 PUSH2 0x33E JUMP JUMPDEST PUSH2 0xEB JUMP JUMPDEST STOP JUMPDEST PUSH0 SELFBALANCE SWAP1 POP SWAP1 JUMP JUMPDEST CALLVALUE PUSH1 0x2 PUSH0 DUP3 DUP3 SLOAD PUSH2 0xDE SWAP2 SWAP1 PUSH2 0x3DC JUMP JUMPDEST SWAP3 POP POP DUP2 SWAP1 SSTORE POP JUMP JUMPDEST POP POP JUMP JUMPDEST PUSH1 0x1 PUSH0 SWAP1 SLOAD SWAP1 PUSH2 0x100 EXP SWAP1 DIV PUSH20 0xFFFFFFFFFFFFFFFFFFFFFFFFFFFFFFFFFFFFFFFF AND PUSH20 0xFFFFFFFFFFFFFFFFFFFFFFFFFFFFFFFFFFFFFFFF AND CALLER PUSH20 0xFFFFFFFFFFFFFFFFFFFFFFFFFFFFFFFFFFFFFFFF AND EQ PUSH2 0x19F JUMPI PUSH1 0x1 PUSH0 SWAP1 SLOAD SWAP1 PUSH2 0x100 EXP SWAP1 DIV PUSH20 0xFFFFFFFFFFFFFFFFFFFFFFFFFFFFFFFFFFFFFFFF AND CALLER PUSH1 0x40 MLOAD PUSH32 0x5B838A4500000000000000000000000000000000000000000000000000000000 DUP2 MSTORE PUSH1 0x4 ADD PUSH2 0x196 SWAP3 SWAP2 SWAP1 PUSH2 0x41E JUMP JUMPDEST PUSH1 0x40 MLOAD DUP1 SWAP2 SUB SWAP1 REVERT JUMPDEST POP POP POP POP JUMP JUMPDEST PUSH0 DUP2 SWAP1 POP SWAP2 SWAP1 POP JUMP JUMPDEST PUSH2 0x1B7 DUP2 PUSH2 0x1A5 JUMP JUMPDEST DUP3 MSTORE POP POP JUMP JUMPDEST PUSH0 PUSH1 0x20 DUP3 ADD SWAP1 POP PUSH2 0x1D0 PUSH0 DUP4 ADD DUP5 PUSH2 0x1AE JUMP JUMPDEST SWAP3 SWAP2 POP POP JUMP JUMPDEST PUSH0 DUP1 REVERT JUMPDEST PUSH0 DUP1 REVERT JUMPDEST PUSH0 PUSH20 0xFFFFFFFFFFFFFFFFFFFFFFFFFFFFFFFFFFFFFFFF DUP3 AND SWAP1 POP SWAP2 SWAP1 POP JUMP JUMPDEST PUSH0 PUSH2 0x207 DUP3 PUSH2 0x1DE JUMP JUMPDEST SWAP1 POP SWAP2 SWAP1 POP JUMP JUMPDEST PUSH2 0x217 DUP2 PUSH2 0x1FD JUMP JUMPDEST DUP2 EQ PUSH2 0x221 JUMPI PUSH0 DUP1 REVERT JUMPDEST POP JUMP JUMPDEST PUSH0 DUP2 CALLDATALOAD SWAP1 POP PUSH2 0x232 DUP2 PUSH2 0x20E JUMP JUMPDEST SWAP3 SWAP2 POP POP JUMP JUMPDEST PUSH0 PUSH8 0xFFFFFFFFFFFFFFFF DUP3 AND SWAP1 POP SWAP2 SWAP1 POP JUMP JUMPDEST PUSH2 0x254 DUP2 PUSH2 0x238 JUMP JUMPDEST DUP2 EQ PUSH2 0x25E JUMPI PUSH0 DUP1 REVERT JUMPDEST POP JUMP JUMPDEST PUSH0 DUP2 CALLDATALOAD SWAP1 POP PUSH2 0x26F DUP2 PUSH2 0x24B JUMP JUMPDEST SWAP3 SWAP2 POP POP JUMP JUMPDEST PUSH0 DUP1 PUSH1 0x40 DUP4 DUP6 SUB SLT ISZERO PUSH2 0x28B JUMPI PUSH2 0x28A PUSH2 0x1D6 JUMP JUMPDEST JUMPDEST PUSH0 PUSH2 0x298 DUP6 DUP3 DUP7 ADD PUSH2 0x224 JUMP JUMPDEST SWAP3 POP POP PUSH1 0x20 PUSH2 0x2A9 DUP6 DUP3 DUP7 ADD PUSH2 0x261 JUMP JUMPDEST SWAP2 POP POP SWAP3 POP SWAP3 SWAP1 POP JUMP JUMPDEST PUSH2 0x2BC DUP2 PUSH2 0x1A5 JUMP JUMPDEST DUP2 EQ PUSH2 0x2C6 JUMPI PUSH0 DUP1 REVERT JUMPDEST POP JUMP JUMPDEST PUSH0 DUP2 CALLDATALOAD SWAP1 POP PUSH2 0x2D7 DUP2 PUSH2 0x2B3 JUMP JUMPDEST SWAP3 SWAP2 POP POP JUMP JUMPDEST PUSH0 DUP1 REVERT JUMPDEST PUSH0 DUP1 REVERT JUMPDEST PUSH0 DUP1 REVERT JUMPDEST PUSH0 DUP1 DUP4 PUSH1 0x1F DUP5 ADD SLT PUSH2 0x2FE JUMPI PUSH2 0x2FD PUSH2 0x2DD JUMP JUMPDEST JUMPDEST DUP3 CALLDATALOAD SWAP1 POP PUSH8 0xFFFFFFFFFFFFFFFF DUP2 GT ISZERO PUSH2 0x31B JUMPI PUSH2 0x31A PUSH2 0x2E1 JUMP JUMPDEST JUMPDEST PUSH1 0x20 DUP4 ADD SWAP2 POP DUP4 PUSH1 0x1 DUP3 MUL DUP4 ADD GT ISZERO PUSH2 0x337 JUMPI PUSH2 0x336 PUSH2 0x2E5 JUMP JUMPDEST JUMPDEST SWAP3 POP SWAP3 SWAP1 POP JUMP JUMPDEST PUSH0 DUP1 PUSH0 DUP1 PUSH1 0x60 DUP6 DUP8 SUB SLT ISZERO PUSH2 0x356 JUMPI PUSH2 0x355 PUSH2 0x1D6 JUMP JUMPDEST JUMPDEST PUSH0 PUSH2 0x363 DUP8 DUP3 DUP9 ADD PUSH2 0x2C9 JUMP JUMPDEST SWAP5 POP POP PUSH1 0x20 PUSH2 0x374 DUP8 DUP3 DUP9 ADD PUSH2 0x261 JUMP JUMPDEST SWAP4 POP POP PUSH1 0x40 DUP6 ADD CALLDATALOAD PUSH8 0xFFFFFFFFFFFFFFFF DUP2 GT ISZERO PUSH2 0x395 JUMPI PUSH2 0x394 PUSH2 0x1DA JUMP JUMPDEST JUMPDEST PUSH2 0x3A1 DUP8 DUP3 DUP9 ADD PUSH2 0x2E9 JUMP JUMPDEST SWAP3 POP SWAP3 POP POP SWAP3 SWAP6 SWAP2 SWAP5 POP SWAP3 POP JUMP JUMPDEST PUSH32 0x4E487B7100000000000000000000000000000000000000000000000000000000 PUSH0 MSTORE PUSH1 0x11 PUSH1 0x4 MSTORE PUSH1 0x24 PUSH0 REVERT JUMPDEST PUSH0 PUSH2 0x3E6 DUP3 PUSH2 0x1A5 JUMP JUMPDEST SWAP2 POP PUSH2 0x3F1 DUP4 PUSH2 0x1A5 JUMP JUMPDEST SWAP3 POP DUP3 DUP3 ADD SWAP1 POP DUP1 DUP3 GT ISZERO PUSH2 0x409 JUMPI PUSH2 0x408 PUSH2 0x3AF JUMP JUMPDEST JUMPDEST SWAP3 SWAP2 POP POP JUMP JUMPDEST PUSH2 0x418 DUP2 PUSH2 0x1FD JUMP JUMPDEST DUP3 MSTORE POP POP JUMP JUMPDEST PUSH0 PUSH1 0x40 DUP3 ADD SWAP1 POP PUSH2 0x431 PUSH0 DUP4 ADD DUP6 PUSH2 0x40F JUMP JUMPDEST PUSH2 0x43E PUSH1 0x20 DUP4 ADD DUP5 PUSH2 0x40F JUMP JUMPDEST SWAP4 SWAP3 POP POP POP JUMP INVALID LOG2 PUSH5 0x6970667358 0x22 SLT KECCAK256 0xB2 SWAP7 0xB8 0x4C 0xD5 0xBE PUSH17 0x27C7B10A818AAAC4F125FF70DA026CA9F1 PUSH18 0x640FBC86CADC1E64736F6C63430008180033 "
				},
				"gasEstimates": {
					"creation": {
						"codeDepositCost": "229400",
						"executionCost": "infinite",
						"totalCost": "infinite"
					},
					"external": {
						"checkBalance()": "312",
						"deposit()": "infinite",
						"swapTransfer(uint256,uint64,string)": "infinite",
						"withdraw(address,uint64)": "648"
					}
				},
				"methodIdentifiers": {
					"checkBalance()": "c71daccb",
					"deposit()": "d0e30db0",
					"swapTransfer(uint256,uint64,string)": "fe18926b",
					"withdraw(address,uint64)": "d6dad060"
				}
			},
			"storageLayout": {
				"storage": [
					{
						"astId": 16,
						"contract": "contracts/wallet.sol:Wallet",
						"label": "ownerId",
						"offset": 0,
						"slot": "0",
						"type": "t_string_storage"
					},
					{
						"astId": 18,
						"contract": "contracts/wallet.sol:Wallet",
						"label": "walletControllerAddress",
						"offset": 0,
						"slot": "1",
						"type": "t_address"
					},
					{
						"astId": 20,
						"contract": "contracts/wallet.sol:Wallet",
						"label": "balance",
						"offset": 0,
						"slot": "2",
						"type": "t_uint256"
					}
				],
				"types": {
					"t_address": {
						"encoding": "inplace",
						"label": "address",
						"numberOfBytes": "20"
					},
					"t_string_storage": {
						"encoding": "bytes",
						"label": "string",
						"numberOfBytes": "32"
					},
					"t_uint256": {
						"encoding": "inplace",
						"label": "uint256",
						"numberOfBytes": "32"
					}
				}
			},
			"userdoc": {
				"kind": "user",
				"methods": {},
				"version": 1
			}
		}
	}
}