{
	"contracts/EntryPoint.sol": {
		"EntryPoint": {
			"abi": [
				{
					"inputs": [
						{
							"internalType": "address",
							"name": "_router",
							"type": "address"
						}
					],
					"stateMutability": "nonpayable",
					"type": "constructor"
				},
				{
					"inputs": [
						{
							"internalType": "uint256",
							"name": "currentBalance",
							"type": "uint256"
						},
						{
							"internalType": "uint256",
							"name": "calculatedFees",
							"type": "uint256"
						}
					],
					"name": "NotEnoughBalance",
					"type": "error"
				},
				{
					"anonymous": false,
					"inputs": [
						{
							"indexed": true,
							"internalType": "uint256",
							"name": "batchId",
							"type": "uint256"
						},
						{
							"indexed": false,
							"internalType": "uint256",
							"name": "ordersProcessed",
							"type": "uint256"
						}
					],
					"name": "BatchExecuted",
					"type": "event"
				},
				{
					"anonymous": false,
					"inputs": [
						{
							"indexed": false,
							"internalType": "string",
							"name": "walletId",
							"type": "string"
						}
					],
					"name": "ProfitWalletIdSet",
					"type": "event"
				},
				{
					"anonymous": false,
					"inputs": [
						{
							"indexed": true,
							"internalType": "string",
							"name": "token",
							"type": "string"
						},
						{
							"components": [
								{
									"internalType": "uint64",
									"name": "chainSelector",
									"type": "uint64"
								},
								{
									"internalType": "address",
									"name": "walletController",
									"type": "address"
								},
								{
									"internalType": "uint256",
									"name": "denom",
									"type": "uint256"
								}
							],
							"indexed": false,
							"internalType": "struct EntryPoint.ChainRoute",
							"name": "route",
							"type": "tuple"
						}
					],
					"name": "TokenRouteSet",
					"type": "event"
				},
				{
					"inputs": [],
					"name": "batchCounter",
					"outputs": [
						{
							"internalType": "uint256",
							"name": "",
							"type": "uint256"
						}
					],
					"stateMutability": "view",
					"type": "function"
				},
				{
					"inputs": [
						{
							"components": [
								{
									"internalType": "string",
									"name": "baseToken",
									"type": "string"
								},
								{
									"internalType": "string",
									"name": "quoteToken",
									"type": "string"
								},
								{
									"internalType": "string",
									"name": "makerOwnerId",
									"type": "string"
								},
								{
									"internalType": "string",
									"name": "takerOwnerId",
									"type": "string"
								},
								{
									"internalType": "uint256",
									"name": "baseAmount",
									"type": "uint256"
								},
								{
									"internalType": "uint256",
									"name": "priceAsk",
									"type": "uint256"
								},
								{
									"internalType": "uint256",
									"name": "priceBid",
									"type": "uint256"
								}
							],
							"internalType": "struct EntryPoint.MatchedOrder[]",
							"name": "orders",
							"type": "tuple[]"
						}
					],
					"name": "executeBatch",
					"outputs": [],
					"stateMutability": "payable",
					"type": "function"
				},
				{
					"inputs": [],
					"name": "owner",
					"outputs": [
						{
							"internalType": "address",
							"name": "",
							"type": "address"
						}
					],
					"stateMutability": "view",
					"type": "function"
				},
				{
					"inputs": [],
					"name": "profitWalletId",
					"outputs": [
						{
							"internalType": "string",
							"name": "",
							"type": "string"
						}
					],
					"stateMutability": "view",
					"type": "function"
				},
				{
					"inputs": [],
					"name": "routerAddress",
					"outputs": [
						{
							"internalType": "address",
							"name": "",
							"type": "address"
						}
					],
					"stateMutability": "view",
					"type": "function"
				},
				{
					"inputs": [
						{
							"internalType": "string",
							"name": "id",
							"type": "string"
						}
					],
					"name": "setProfitWalletId",
					"outputs": [],
					"stateMutability": "nonpayable",
					"type": "function"
				},
				{
					"inputs": [
						{
							"internalType": "string",
							"name": "t",
							"type": "string"
						},
						{
							"internalType": "uint64",
							"name": "sel",
							"type": "uint64"
						},
						{
							"internalType": "address",
							"name": "ctl",
							"type": "address"
						},
						{
							"internalType": "uint256",
							"name": "denom",
							"type": "uint256"
						}
					],
					"name": "setRoute",
					"outputs": [],
					"stateMutability": "nonpayable",
					"type": "function"
				},
				{
					"inputs": [
						{
							"internalType": "string",
							"name": "",
							"type": "string"
						}
					],
					"name": "tokenRoutes",
					"outputs": [
						{
							"internalType": "uint64",
							"name": "chainSelector",
							"type": "uint64"
						},
						{
							"internalType": "address",
							"name": "walletController",
							"type": "address"
						},
						{
							"internalType": "uint256",
							"name": "denom",
							"type": "uint256"
						}
					],
					"stateMutability": "view",
					"type": "function"
				},
				{
					"stateMutability": "payable",
					"type": "receive"
				}
			],
			"devdoc": {
				"kind": "dev",
				"methods": {},
				"version": 1
			},
			"evm": {
				"assembly": "    /* \"contracts/EntryPoint.sol\":352:4842  contract EntryPoint {... */\n  mstore(0x40, 0x80)\n    /* \"contracts/EntryPoint.sol\":1302:1399  constructor(address _router) {... */\n  callvalue\n  dup1\n  iszero\n  tag_1\n  jumpi\n  0x00\n  dup1\n  revert\ntag_1:\n  pop\n  mload(0x40)\n  sub(codesize, bytecodeSize)\n  dup1\n  bytecodeSize\n  dup4\n  codecopy\n  dup2\n  dup2\n  add\n  0x40\n  mstore\n  dup2\n  add\n  swap1\n  tag_2\n  swap2\n  swap1\n  tag_3\n  jump\t// in\ntag_2:\n    /* \"contracts/EntryPoint.sol\":1349:1359  msg.sender */\n  caller\n    /* \"contracts/EntryPoint.sol\":1341:1346  owner */\n  0x02\n  0x00\n    /* \"contracts/EntryPoint.sol\":1341:1359  owner = msg.sender */\n  0x0100\n  exp\n  dup2\n  sload\n  dup2\n  0xffffffffffffffffffffffffffffffffffffffff\n  mul\n  not\n  and\n  swap1\n  dup4\n  0xffffffffffffffffffffffffffffffffffffffff\n  and\n  mul\n  or\n  swap1\n  sstore\n  pop\n    /* \"contracts/EntryPoint.sol\":1385:1392  _router */\n  dup1\n    /* \"contracts/EntryPoint.sol\":1369:1382  routerAddress */\n  0x04\n  0x00\n    /* \"contracts/EntryPoint.sol\":1369:1392  routerAddress = _router */\n  0x0100\n  exp\n  dup2\n  sload\n  dup2\n  0xffffffffffffffffffffffffffffffffffffffff\n  mul\n  not\n  and\n  swap1\n  dup4\n  0xffffffffffffffffffffffffffffffffffffffff\n  and\n  mul\n  or\n  swap1\n  sstore\n  pop\n    /* \"contracts/EntryPoint.sol\":1302:1399  constructor(address _router) {... */\n  pop\n    /* \"contracts/EntryPoint.sol\":352:4842  contract EntryPoint {... */\n  jump(tag_6)\n    /* \"#utility.yul\":88:205   */\ntag_8:\n    /* \"#utility.yul\":197:198   */\n  0x00\n    /* \"#utility.yul\":194:195   */\n  dup1\n    /* \"#utility.yul\":187:199   */\n  revert\n    /* \"#utility.yul\":334:460   */\ntag_10:\n    /* \"#utility.yul\":371:378   */\n  0x00\n    /* \"#utility.yul\":411:453   */\n  0xffffffffffffffffffffffffffffffffffffffff\n    /* \"#utility.yul\":404:409   */\n  dup3\n    /* \"#utility.yul\":400:454   */\n  and\n    /* \"#utility.yul\":389:454   */\n  swap1\n  pop\n    /* \"#utility.yul\":334:460   */\n  swap2\n  swap1\n  pop\n  jump\t// out\n    /* \"#utility.yul\":466:562   */\ntag_11:\n    /* \"#utility.yul\":503:510   */\n  0x00\n    /* \"#utility.yul\":532:556   */\n  tag_20\n    /* \"#utility.yul\":550:555   */\n  dup3\n    /* \"#utility.yul\":532:556   */\n  tag_10\n  jump\t// in\ntag_20:\n    /* \"#utility.yul\":521:556   */\n  swap1\n  pop\n    /* \"#utility.yul\":466:562   */\n  swap2\n  swap1\n  pop\n  jump\t// out\n    /* \"#utility.yul\":568:690   */\ntag_12:\n    /* \"#utility.yul\":641:665   */\n  tag_22\n    /* \"#utility.yul\":659:664   */\n  dup2\n    /* \"#utility.yul\":641:665   */\n  tag_11\n  jump\t// in\ntag_22:\n    /* \"#utility.yul\":634:639   */\n  dup2\n    /* \"#utility.yul\":631:666   */\n  eq\n    /* \"#utility.yul\":621:684   */\n  tag_23\n  jumpi\n    /* \"#utility.yul\":680:681   */\n  0x00\n    /* \"#utility.yul\":677:678   */\n  dup1\n    /* \"#utility.yul\":670:682   */\n  revert\n    /* \"#utility.yul\":621:684   */\ntag_23:\n    /* \"#utility.yul\":568:690   */\n  pop\n  jump\t// out\n    /* \"#utility.yul\":696:839   */\ntag_13:\n    /* \"#utility.yul\":753:758   */\n  0x00\n    /* \"#utility.yul\":784:790   */\n  dup2\n    /* \"#utility.yul\":778:791   */\n  mload\n    /* \"#utility.yul\":769:791   */\n  swap1\n  pop\n    /* \"#utility.yul\":800:833   */\n  tag_25\n    /* \"#utility.yul\":827:832   */\n  dup2\n    /* \"#utility.yul\":800:833   */\n  tag_12\n  jump\t// in\ntag_25:\n    /* \"#utility.yul\":696:839   */\n  swap3\n  swap2\n  pop\n  pop\n  jump\t// out\n    /* \"#utility.yul\":845:1196   */\ntag_3:\n    /* \"#utility.yul\":915:921   */\n  0x00\n    /* \"#utility.yul\":964:966   */\n  0x20\n    /* \"#utility.yul\":952:961   */\n  dup3\n    /* \"#utility.yul\":943:950   */\n  dup5\n    /* \"#utility.yul\":939:962   */\n  sub\n    /* \"#utility.yul\":935:967   */\n  slt\n    /* \"#utility.yul\":932:1051   */\n  iszero\n  tag_27\n  jumpi\n    /* \"#utility.yul\":970:1049   */\n  tag_28\n  tag_8\n  jump\t// in\ntag_28:\n    /* \"#utility.yul\":932:1051   */\ntag_27:\n    /* \"#utility.yul\":1090:1091   */\n  0x00\n    /* \"#utility.yul\":1115:1179   */\n  tag_29\n    /* \"#utility.yul\":1171:1178   */\n  dup5\n    /* \"#utility.yul\":1162:1168   */\n  dup3\n    /* \"#utility.yul\":1151:1160   */\n  dup6\n    /* \"#utility.yul\":1147:1169   */\n  add\n    /* \"#utility.yul\":1115:1179   */\n  tag_13\n  jump\t// in\ntag_29:\n    /* \"#utility.yul\":1105:1179   */\n  swap2\n  pop\n    /* \"#utility.yul\":1061:1189   */\n  pop\n    /* \"#utility.yul\":845:1196   */\n  swap3\n  swap2\n  pop\n  pop\n  jump\t// out\n    /* \"contracts/EntryPoint.sol\":352:4842  contract EntryPoint {... */\ntag_6:\n  dataSize(sub_0)\n  dup1\n  dataOffset(sub_0)\n  0x00\n  codecopy\n  0x00\n  return\nstop\n\nsub_0: assembly {\n        /* \"contracts/EntryPoint.sol\":352:4842  contract EntryPoint {... */\n      mstore(0x40, 0x80)\n      jumpi(tag_1, lt(calldatasize, 0x04))\n      shr(0xe0, calldataload(0x00))\n      dup1\n      0x821aa5d2\n      gt\n      tag_11\n      jumpi\n      dup1\n      0x821aa5d2\n      eq\n      tag_7\n      jumpi\n      dup1\n      0x8da5cb5b\n      eq\n      tag_8\n      jumpi\n      dup1\n      0xa5a30b02\n      eq\n      tag_9\n      jumpi\n      dup1\n      0xd56d4f1a\n      eq\n      tag_10\n      jumpi\n      jump(tag_2)\n    tag_11:\n      dup1\n      0x2e34b343\n      eq\n      tag_3\n      jumpi\n      dup1\n      0x3268cc56\n      eq\n      tag_4\n      jumpi\n      dup1\n      0x5314ab19\n      eq\n      tag_5\n      jumpi\n      dup1\n      0x68233eef\n      eq\n      tag_6\n      jumpi\n      jump(tag_2)\n    tag_1:\n      jumpi(tag_2, calldatasize)\n      stop\n    tag_2:\n      0x00\n      dup1\n      revert\n        /* \"contracts/EntryPoint.sol\":1405:1609  function setRoute(string calldata t, uint64 sel, address ctl, uint256 denom) external onlyOwner {... */\n    tag_3:\n      callvalue\n      dup1\n      iszero\n      tag_14\n      jumpi\n      0x00\n      dup1\n      revert\n    tag_14:\n      pop\n      tag_15\n      0x04\n      dup1\n      calldatasize\n      sub\n      dup2\n      add\n      swap1\n      tag_16\n      swap2\n      swap1\n      tag_17\n      jump\t// in\n    tag_16:\n      tag_18\n      jump\t// in\n    tag_15:\n      stop\n        /* \"contracts/EntryPoint.sol\":1004:1032  address public routerAddress */\n    tag_4:\n      callvalue\n      dup1\n      iszero\n      tag_19\n      jumpi\n      0x00\n      dup1\n      revert\n    tag_19:\n      pop\n      tag_20\n      tag_21\n      jump\t// in\n    tag_20:\n      mload(0x40)\n      tag_22\n      swap2\n      swap1\n      tag_23\n      jump\t// in\n    tag_22:\n      mload(0x40)\n      dup1\n      swap2\n      sub\n      swap1\n      return\n        /* \"contracts/EntryPoint.sol\":1614:1752  function setProfitWalletId(string calldata id) external onlyOwner {... */\n    tag_5:\n      callvalue\n      dup1\n      iszero\n      tag_24\n      jumpi\n      0x00\n      dup1\n      revert\n    tag_24:\n      pop\n      tag_25\n      0x04\n      dup1\n      calldatasize\n      sub\n      dup2\n      add\n      swap1\n      tag_26\n      swap2\n      swap1\n      tag_27\n      jump\t// in\n    tag_26:\n      tag_28\n      jump\t// in\n    tag_25:\n      stop\n        /* \"contracts/EntryPoint.sol\":971:998  uint256 public batchCounter */\n    tag_6:\n      callvalue\n      dup1\n      iszero\n      tag_29\n      jumpi\n      0x00\n      dup1\n      revert\n    tag_29:\n      pop\n      tag_30\n      tag_31\n      jump\t// in\n    tag_30:\n      mload(0x40)\n      tag_32\n      swap2\n      swap1\n      tag_33\n      jump\t// in\n    tag_32:\n      mload(0x40)\n      dup1\n      swap2\n      sub\n      swap1\n      return\n        /* \"contracts/EntryPoint.sol\":1758:2774  function executeBatch(MatchedOrder[] calldata orders) external payable {... */\n    tag_7:\n      tag_34\n      0x04\n      dup1\n      calldatasize\n      sub\n      dup2\n      add\n      swap1\n      tag_35\n      swap2\n      swap1\n      tag_36\n      jump\t// in\n    tag_35:\n      tag_37\n      jump\t// in\n    tag_34:\n      stop\n        /* \"contracts/EntryPoint.sol\":945:965  address public owner */\n    tag_8:\n      callvalue\n      dup1\n      iszero\n      tag_38\n      jumpi\n      0x00\n      dup1\n      revert\n    tag_38:\n      pop\n      tag_39\n      tag_40\n      jump\t// in\n    tag_39:\n      mload(0x40)\n      tag_41\n      swap2\n      swap1\n      tag_23\n      jump\t// in\n    tag_41:\n      mload(0x40)\n      dup1\n      swap2\n      sub\n      swap1\n      return\n        /* \"contracts/EntryPoint.sol\":911:939  string public profitWalletId */\n    tag_9:\n      callvalue\n      dup1\n      iszero\n      tag_42\n      jumpi\n      0x00\n      dup1\n      revert\n    tag_42:\n      pop\n      tag_43\n      tag_44\n      jump\t// in\n    tag_43:\n      mload(0x40)\n      tag_45\n      swap2\n      swap1\n      tag_46\n      jump\t// in\n    tag_45:\n      mload(0x40)\n      dup1\n      swap2\n      sub\n      swap1\n      return\n        /* \"contracts/EntryPoint.sol\":857:905  mapping(string => ChainRoute) public tokenRoutes */\n    tag_10:\n      callvalue\n      dup1\n      iszero\n      tag_47\n      jumpi\n      0x00\n      dup1\n      revert\n    tag_47:\n      pop\n      tag_48\n      0x04\n      dup1\n      calldatasize\n      sub\n      dup2\n      add\n      swap1\n      tag_49\n      swap2\n      swap1\n      tag_50\n      jump\t// in\n    tag_49:\n      tag_51\n      jump\t// in\n    tag_48:\n      mload(0x40)\n      tag_52\n      swap4\n      swap3\n      swap2\n      swap1\n      tag_53\n      jump\t// in\n    tag_52:\n      mload(0x40)\n      dup1\n      swap2\n      sub\n      swap1\n      return\n        /* \"contracts/EntryPoint.sol\":1405:1609  function setRoute(string calldata t, uint64 sel, address ctl, uint256 denom) external onlyOwner {... */\n    tag_18:\n        /* \"contracts/EntryPoint.sol\":1271:1276  owner */\n      0x02\n      0x00\n      swap1\n      sload\n      swap1\n      0x0100\n      exp\n      swap1\n      div\n      0xffffffffffffffffffffffffffffffffffffffff\n      and\n        /* \"contracts/EntryPoint.sol\":1257:1276  msg.sender == owner */\n      0xffffffffffffffffffffffffffffffffffffffff\n      and\n        /* \"contracts/EntryPoint.sol\":1257:1267  msg.sender */\n      caller\n        /* \"contracts/EntryPoint.sol\":1257:1276  msg.sender == owner */\n      0xffffffffffffffffffffffffffffffffffffffff\n      and\n      eq\n        /* \"contracts/EntryPoint.sol\":1249:1290  require(msg.sender == owner, \"Not owner\") */\n      tag_55\n      jumpi\n      mload(0x40)\n      0x08c379a000000000000000000000000000000000000000000000000000000000\n      dup2\n      mstore\n      0x04\n      add\n      tag_56\n      swap1\n      tag_57\n      jump\t// in\n    tag_56:\n      mload(0x40)\n      dup1\n      swap2\n      sub\n      swap1\n      revert\n    tag_55:\n        /* \"contracts/EntryPoint.sol\":1528:1555  ChainRoute(sel, ctl, denom) */\n      mload(0x40)\n      dup1\n      0x60\n      add\n      0x40\n      mstore\n      dup1\n        /* \"contracts/EntryPoint.sol\":1539:1542  sel */\n      dup5\n        /* \"contracts/EntryPoint.sol\":1528:1555  ChainRoute(sel, ctl, denom) */\n      0xffffffffffffffff\n      and\n      dup2\n      mstore\n      0x20\n      add\n        /* \"contracts/EntryPoint.sol\":1544:1547  ctl */\n      dup4\n        /* \"contracts/EntryPoint.sol\":1528:1555  ChainRoute(sel, ctl, denom) */\n      0xffffffffffffffffffffffffffffffffffffffff\n      and\n      dup2\n      mstore\n      0x20\n      add\n        /* \"contracts/EntryPoint.sol\":1549:1554  denom */\n      dup3\n        /* \"contracts/EntryPoint.sol\":1528:1555  ChainRoute(sel, ctl, denom) */\n      dup2\n      mstore\n      pop\n        /* \"contracts/EntryPoint.sol\":1511:1522  tokenRoutes */\n      0x00\n        /* \"contracts/EntryPoint.sol\":1523:1524  t */\n      dup7\n      dup7\n        /* \"contracts/EntryPoint.sol\":1511:1525  tokenRoutes[t] */\n      mload(0x40)\n      tag_59\n      swap3\n      swap2\n      swap1\n      tag_60\n      jump\t// in\n    tag_59:\n      swap1\n      dup2\n      mstore\n      0x20\n      add\n      mload(0x40)\n      dup1\n      swap2\n      sub\n      swap1\n      keccak256\n        /* \"contracts/EntryPoint.sol\":1511:1555  tokenRoutes[t] = ChainRoute(sel, ctl, denom) */\n      0x00\n      dup3\n      add\n      mload\n      dup2\n      0x00\n      add\n      exp(0x0100, 0x00)\n      dup2\n      sload\n      dup2\n      0xffffffffffffffff\n      mul\n      not\n      and\n      swap1\n      dup4\n      0xffffffffffffffff\n      and\n      mul\n      or\n      swap1\n      sstore\n      pop\n      0x20\n      dup3\n      add\n      mload\n      dup2\n      0x00\n      add\n      exp(0x0100, 0x08)\n      dup2\n      sload\n      dup2\n      0xffffffffffffffffffffffffffffffffffffffff\n      mul\n      not\n      and\n      swap1\n      dup4\n      0xffffffffffffffffffffffffffffffffffffffff\n      and\n      mul\n      or\n      swap1\n      sstore\n      pop\n      0x40\n      dup3\n      add\n      mload\n      dup2\n      0x01\n      add\n      sstore\n      swap1\n      pop\n      pop\n        /* \"contracts/EntryPoint.sol\":1584:1585  t */\n      dup5\n      dup5\n        /* \"contracts/EntryPoint.sol\":1570:1602  TokenRouteSet(t, tokenRoutes[t]) */\n      mload(0x40)\n      tag_61\n      swap3\n      swap2\n      swap1\n      tag_60\n      jump\t// in\n    tag_61:\n      mload(0x40)\n      dup1\n      swap2\n      sub\n      swap1\n      keccak256\n      0xb6ceac5d9fe2c1255321f4b6432ca917a4e76dad3f9db0fbefe81ef9a34fe652\n        /* \"contracts/EntryPoint.sol\":1587:1598  tokenRoutes */\n      0x00\n        /* \"contracts/EntryPoint.sol\":1599:1600  t */\n      dup8\n      dup8\n        /* \"contracts/EntryPoint.sol\":1587:1601  tokenRoutes[t] */\n      mload(0x40)\n      tag_62\n      swap3\n      swap2\n      swap1\n      tag_60\n      jump\t// in\n    tag_62:\n      swap1\n      dup2\n      mstore\n      0x20\n      add\n      mload(0x40)\n      dup1\n      swap2\n      sub\n      swap1\n      keccak256\n        /* \"contracts/EntryPoint.sol\":1570:1602  TokenRouteSet(t, tokenRoutes[t]) */\n      mload(0x40)\n      tag_63\n      swap2\n      swap1\n      tag_64\n      jump\t// in\n    tag_63:\n      mload(0x40)\n      dup1\n      swap2\n      sub\n      swap1\n      log2\n        /* \"contracts/EntryPoint.sol\":1405:1609  function setRoute(string calldata t, uint64 sel, address ctl, uint256 denom) external onlyOwner {... */\n      pop\n      pop\n      pop\n      pop\n      pop\n      jump\t// out\n        /* \"contracts/EntryPoint.sol\":1004:1032  address public routerAddress */\n    tag_21:\n      0x04\n      0x00\n      swap1\n      sload\n      swap1\n      0x0100\n      exp\n      swap1\n      div\n      0xffffffffffffffffffffffffffffffffffffffff\n      and\n      dup2\n      jump\t// out\n        /* \"contracts/EntryPoint.sol\":1614:1752  function setProfitWalletId(string calldata id) external onlyOwner {... */\n    tag_28:\n        /* \"contracts/EntryPoint.sol\":1271:1276  owner */\n      0x02\n      0x00\n      swap1\n      sload\n      swap1\n      0x0100\n      exp\n      swap1\n      div\n      0xffffffffffffffffffffffffffffffffffffffff\n      and\n        /* \"contracts/EntryPoint.sol\":1257:1276  msg.sender == owner */\n      0xffffffffffffffffffffffffffffffffffffffff\n      and\n        /* \"contracts/EntryPoint.sol\":1257:1267  msg.sender */\n      caller\n        /* \"contracts/EntryPoint.sol\":1257:1276  msg.sender == owner */\n      0xffffffffffffffffffffffffffffffffffffffff\n      and\n      eq\n        /* \"contracts/EntryPoint.sol\":1249:1290  require(msg.sender == owner, \"Not owner\") */\n      tag_66\n      jumpi\n      mload(0x40)\n      0x08c379a000000000000000000000000000000000000000000000000000000000\n      dup2\n      mstore\n      0x04\n      add\n      tag_67\n      swap1\n      tag_57\n      jump\t// in\n    tag_67:\n      mload(0x40)\n      dup1\n      swap2\n      sub\n      swap1\n      revert\n    tag_66:\n        /* \"contracts/EntryPoint.sol\":1707:1709  id */\n      dup2\n      dup2\n        /* \"contracts/EntryPoint.sol\":1690:1704  profitWalletId */\n      0x01\n        /* \"contracts/EntryPoint.sol\":1690:1709  profitWalletId = id */\n      swap2\n      dup3\n      tag_69\n      swap3\n      swap2\n      swap1\n      tag_70\n      jump\t// in\n    tag_69:\n      pop\n        /* \"contracts/EntryPoint.sol\":1724:1745  ProfitWalletIdSet(id) */\n      0x788f7a94dca4560c48744e99525fffb5be8e8cf86e3d94c70b3193c31f63be74\n        /* \"contracts/EntryPoint.sol\":1742:1744  id */\n      dup3\n      dup3\n        /* \"contracts/EntryPoint.sol\":1724:1745  ProfitWalletIdSet(id) */\n      mload(0x40)\n      tag_71\n      swap3\n      swap2\n      swap1\n      tag_72\n      jump\t// in\n    tag_71:\n      mload(0x40)\n      dup1\n      swap2\n      sub\n      swap1\n      log1\n        /* \"contracts/EntryPoint.sol\":1614:1752  function setProfitWalletId(string calldata id) external onlyOwner {... */\n      pop\n      pop\n      jump\t// out\n        /* \"contracts/EntryPoint.sol\":971:998  uint256 public batchCounter */\n    tag_31:\n      sload(0x03)\n      dup2\n      jump\t// out\n        /* \"contracts/EntryPoint.sol\":1758:2774  function executeBatch(MatchedOrder[] calldata orders) external payable {... */\n    tag_37:\n        /* \"contracts/EntryPoint.sol\":1839:1850  uint256 bId */\n      0x00\n        /* \"contracts/EntryPoint.sol\":1855:1867  batchCounter */\n      0x03\n      0x00\n        /* \"contracts/EntryPoint.sol\":1853:1867  ++batchCounter */\n      dup2\n      sload\n      tag_74\n      swap1\n      tag_75\n      jump\t// in\n    tag_74:\n      swap2\n      swap1\n      pop\n      dup2\n      swap1\n      sstore\n        /* \"contracts/EntryPoint.sol\":1839:1867  uint256 bId = ++batchCounter */\n      swap1\n      pop\n        /* \"contracts/EntryPoint.sol\":1883:1889  uint i */\n      0x00\n        /* \"contracts/EntryPoint.sol\":1878:2719  for (uint i = 0; i < orders.length; i++) {... */\n    tag_76:\n        /* \"contracts/EntryPoint.sol\":1899:1905  orders */\n      dup4\n      dup4\n        /* \"contracts/EntryPoint.sol\":1899:1912  orders.length */\n      swap1\n      pop\n        /* \"contracts/EntryPoint.sol\":1895:1896  i */\n      dup2\n        /* \"contracts/EntryPoint.sol\":1895:1912  i < orders.length */\n      lt\n        /* \"contracts/EntryPoint.sol\":1878:2719  for (uint i = 0; i < orders.length; i++) {... */\n      iszero\n      tag_77\n      jumpi\n        /* \"contracts/EntryPoint.sol\":1933:1956  MatchedOrder calldata o */\n      calldatasize\n        /* \"contracts/EntryPoint.sol\":1959:1965  orders */\n      dup5\n      dup5\n        /* \"contracts/EntryPoint.sol\":1966:1967  i */\n      dup4\n        /* \"contracts/EntryPoint.sol\":1959:1968  orders[i] */\n      dup2\n      dup2\n      lt\n      tag_79\n      jumpi\n      tag_80\n      tag_81\n      jump\t// in\n    tag_80:\n    tag_79:\n      swap1\n      pop\n      0x20\n      mul\n      dup2\n      add\n      swap1\n      tag_82\n      swap2\n      swap1\n      tag_83\n      jump\t// in\n    tag_82:\n        /* \"contracts/EntryPoint.sol\":1933:1968  MatchedOrder calldata o = orders[i] */\n      swap1\n      pop\n        /* \"contracts/EntryPoint.sol\":1983:2003  ChainRoute memory br */\n      0x00\n        /* \"contracts/EntryPoint.sol\":2006:2017  tokenRoutes */\n      dup1\n        /* \"contracts/EntryPoint.sol\":2018:2019  o */\n      dup3\n        /* \"contracts/EntryPoint.sol\":2018:2029  o.baseToken */\n      dup1\n      0x00\n      add\n      swap1\n      tag_84\n      swap2\n      swap1\n      tag_85\n      jump\t// in\n    tag_84:\n        /* \"contracts/EntryPoint.sol\":2006:2030  tokenRoutes[o.baseToken] */\n      mload(0x40)\n      tag_86\n      swap3\n      swap2\n      swap1\n      tag_60\n      jump\t// in\n    tag_86:\n      swap1\n      dup2\n      mstore\n      0x20\n      add\n      mload(0x40)\n      dup1\n      swap2\n      sub\n      swap1\n      keccak256\n        /* \"contracts/EntryPoint.sol\":1983:2030  ChainRoute memory br = tokenRoutes[o.baseToken] */\n      mload(0x40)\n      dup1\n      0x60\n      add\n      0x40\n      mstore\n      swap1\n      dup2\n      0x00\n      dup3\n      add\n      0x00\n      swap1\n      sload\n      swap1\n      0x0100\n      exp\n      swap1\n      div\n      0xffffffffffffffff\n      and\n      0xffffffffffffffff\n      and\n      0xffffffffffffffff\n      and\n      dup2\n      mstore\n      0x20\n      add\n      0x00\n      dup3\n      add\n      0x08\n      swap1\n      sload\n      swap1\n      0x0100\n      exp\n      swap1\n      div\n      0xffffffffffffffffffffffffffffffffffffffff\n      and\n      0xffffffffffffffffffffffffffffffffffffffff\n      and\n      0xffffffffffffffffffffffffffffffffffffffff\n      and\n      dup2\n      mstore\n      0x20\n      add\n      0x01\n      dup3\n      add\n      sload\n      dup2\n      mstore\n      pop\n      pop\n      swap1\n      pop\n        /* \"contracts/EntryPoint.sol\":2044:2064  ChainRoute memory qr */\n      0x00\n        /* \"contracts/EntryPoint.sol\":2067:2078  tokenRoutes */\n      dup1\n        /* \"contracts/EntryPoint.sol\":2079:2080  o */\n      dup4\n        /* \"contracts/EntryPoint.sol\":2079:2091  o.quoteToken */\n      dup1\n      0x20\n      add\n      swap1\n      tag_87\n      swap2\n      swap1\n      tag_85\n      jump\t// in\n    tag_87:\n        /* \"contracts/EntryPoint.sol\":2067:2092  tokenRoutes[o.quoteToken] */\n      mload(0x40)\n      tag_88\n      swap3\n      swap2\n      swap1\n      tag_60\n      jump\t// in\n    tag_88:\n      swap1\n      dup2\n      mstore\n      0x20\n      add\n      mload(0x40)\n      dup1\n      swap2\n      sub\n      swap1\n      keccak256\n        /* \"contracts/EntryPoint.sol\":2044:2092  ChainRoute memory qr = tokenRoutes[o.quoteToken] */\n      mload(0x40)\n      dup1\n      0x60\n      add\n      0x40\n      mstore\n      swap1\n      dup2\n      0x00\n      dup3\n      add\n      0x00\n      swap1\n      sload\n      swap1\n      0x0100\n      exp\n      swap1\n      div\n      0xffffffffffffffff\n      and\n      0xffffffffffffffff\n      and\n      0xffffffffffffffff\n      and\n      dup2\n      mstore\n      0x20\n      add\n      0x00\n      dup3\n      add\n      0x08\n      swap1\n      sload\n      swap1\n      0x0100\n      exp\n      swap1\n      div\n      0xffffffffffffffffffffffffffffffffffffffff\n      and\n      0xffffffffffffffffffffffffffffffffffffffff\n      and\n      0xffffffffffffffffffffffffffffffffffffffff\n      and\n      dup2\n      mstore\n      0x20\n      add\n      0x01\n      dup3\n      add\n      sload\n      dup2\n      mstore\n      pop\n      pop\n      swap1\n      pop\n        /* \"contracts/EntryPoint.sol\":2145:2146  0 */\n      0x00\n        /* \"contracts/EntryPoint.sol\":2114:2147  br.walletController != address(0) */\n      0xffffffffffffffffffffffffffffffffffffffff\n      and\n        /* \"contracts/EntryPoint.sol\":2114:2116  br */\n      dup3\n        /* \"contracts/EntryPoint.sol\":2114:2133  br.walletController */\n      0x20\n      add\n      mload\n        /* \"contracts/EntryPoint.sol\":2114:2147  br.walletController != address(0) */\n      0xffffffffffffffffffffffffffffffffffffffff\n      and\n      eq\n      iszero\n        /* \"contracts/EntryPoint.sol\":2114:2184  br.walletController != address(0) && qr.walletController != address(0) */\n      dup1\n      iszero\n      tag_89\n      jumpi\n      pop\n        /* \"contracts/EntryPoint.sol\":2182:2183  0 */\n      0x00\n        /* \"contracts/EntryPoint.sol\":2151:2184  qr.walletController != address(0) */\n      0xffffffffffffffffffffffffffffffffffffffff\n      and\n        /* \"contracts/EntryPoint.sol\":2151:2153  qr */\n      dup2\n        /* \"contracts/EntryPoint.sol\":2151:2170  qr.walletController */\n      0x20\n      add\n      mload\n        /* \"contracts/EntryPoint.sol\":2151:2184  qr.walletController != address(0) */\n      0xffffffffffffffffffffffffffffffffffffffff\n      and\n      eq\n      iszero\n        /* \"contracts/EntryPoint.sol\":2114:2184  br.walletController != address(0) && qr.walletController != address(0) */\n    tag_89:\n        /* \"contracts/EntryPoint.sol\":2106:2202  require(br.walletController != address(0) && qr.walletController != address(0), \"Missing route\") */\n      tag_90\n      jumpi\n      mload(0x40)\n      0x08c379a000000000000000000000000000000000000000000000000000000000\n      dup2\n      mstore\n      0x04\n      add\n      tag_91\n      swap1\n      tag_92\n      jump\t// in\n    tag_91:\n      mload(0x40)\n      dup1\n      swap2\n      sub\n      swap1\n      revert\n    tag_90:\n        /* \"contracts/EntryPoint.sol\":2263:2325  ccipWithdraw(br, o.makerOwnerId, o.takerOwnerId, o.baseAmount) */\n      tag_93\n        /* \"contracts/EntryPoint.sol\":2276:2278  br */\n      dup3\n        /* \"contracts/EntryPoint.sol\":2280:2281  o */\n      dup5\n        /* \"contracts/EntryPoint.sol\":2280:2294  o.makerOwnerId */\n      dup1\n      0x40\n      add\n      swap1\n      tag_94\n      swap2\n      swap1\n      tag_85\n      jump\t// in\n    tag_94:\n        /* \"contracts/EntryPoint.sol\":2296:2297  o */\n      dup7\n        /* \"contracts/EntryPoint.sol\":2296:2310  o.takerOwnerId */\n      dup1\n      0x60\n      add\n      swap1\n      tag_95\n      swap2\n      swap1\n      tag_85\n      jump\t// in\n    tag_95:\n        /* \"contracts/EntryPoint.sol\":2312:2313  o */\n      dup9\n        /* \"contracts/EntryPoint.sol\":2312:2324  o.baseAmount */\n      0x80\n      add\n      calldataload\n        /* \"contracts/EntryPoint.sol\":2263:2275  ccipWithdraw */\n      tag_96\n        /* \"contracts/EntryPoint.sol\":2263:2325  ccipWithdraw(br, o.makerOwnerId, o.takerOwnerId, o.baseAmount) */\n      jump\t// in\n    tag_93:\n        /* \"contracts/EntryPoint.sol\":2339:2351  uint256 qAmt */\n      0x00\n        /* \"contracts/EntryPoint.sol\":2395:2397  br */\n      dup3\n        /* \"contracts/EntryPoint.sol\":2395:2403  br.denom */\n      0x40\n      add\n      mload\n        /* \"contracts/EntryPoint.sol\":2384:2386  qr */\n      dup3\n        /* \"contracts/EntryPoint.sol\":2384:2392  qr.denom */\n      0x40\n      add\n      mload\n        /* \"contracts/EntryPoint.sol\":2370:2371  o */\n      dup6\n        /* \"contracts/EntryPoint.sol\":2370:2380  o.priceAsk */\n      0xa0\n      add\n      calldataload\n        /* \"contracts/EntryPoint.sol\":2355:2356  o */\n      dup7\n        /* \"contracts/EntryPoint.sol\":2355:2367  o.baseAmount */\n      0x80\n      add\n      calldataload\n        /* \"contracts/EntryPoint.sol\":2355:2380  o.baseAmount * o.priceAsk */\n      tag_97\n      swap2\n      swap1\n      tag_98\n      jump\t// in\n    tag_97:\n        /* \"contracts/EntryPoint.sol\":2354:2392  (o.baseAmount * o.priceAsk) * qr.denom */\n      tag_99\n      swap2\n      swap1\n      tag_98\n      jump\t// in\n    tag_99:\n        /* \"contracts/EntryPoint.sol\":2354:2403  (o.baseAmount * o.priceAsk) * qr.denom / br.denom */\n      tag_100\n      swap2\n      swap1\n      tag_101\n      jump\t// in\n    tag_100:\n        /* \"contracts/EntryPoint.sol\":2339:2403  uint256 qAmt = (o.baseAmount * o.priceAsk) * qr.denom / br.denom */\n      swap1\n      pop\n        /* \"contracts/EntryPoint.sol\":2417:2471  ccipWithdraw(qr, o.takerOwnerId, o.makerOwnerId, qAmt) */\n      tag_102\n        /* \"contracts/EntryPoint.sol\":2430:2432  qr */\n      dup3\n        /* \"contracts/EntryPoint.sol\":2434:2435  o */\n      dup6\n        /* \"contracts/EntryPoint.sol\":2434:2448  o.takerOwnerId */\n      dup1\n      0x60\n      add\n      swap1\n      tag_103\n      swap2\n      swap1\n      tag_85\n      jump\t// in\n    tag_103:\n        /* \"contracts/EntryPoint.sol\":2450:2451  o */\n      dup8\n        /* \"contracts/EntryPoint.sol\":2450:2464  o.makerOwnerId */\n      dup1\n      0x40\n      add\n      swap1\n      tag_104\n      swap2\n      swap1\n      tag_85\n      jump\t// in\n    tag_104:\n        /* \"contracts/EntryPoint.sol\":2466:2470  qAmt */\n      dup7\n        /* \"contracts/EntryPoint.sol\":2417:2429  ccipWithdraw */\n      tag_96\n        /* \"contracts/EntryPoint.sol\":2417:2471  ccipWithdraw(qr, o.takerOwnerId, o.makerOwnerId, qAmt) */\n      jump\t// in\n    tag_102:\n        /* \"contracts/EntryPoint.sol\":2503:2504  o */\n      dup4\n        /* \"contracts/EntryPoint.sol\":2503:2513  o.priceAsk */\n      0xa0\n      add\n      calldataload\n        /* \"contracts/EntryPoint.sol\":2490:2491  o */\n      dup5\n        /* \"contracts/EntryPoint.sol\":2490:2500  o.priceBid */\n      0xc0\n      add\n      calldataload\n        /* \"contracts/EntryPoint.sol\":2490:2513  o.priceBid > o.priceAsk */\n      gt\n        /* \"contracts/EntryPoint.sol\":2486:2709  if (o.priceBid > o.priceAsk) {... */\n      iszero\n      tag_105\n      jumpi\n        /* \"contracts/EntryPoint.sol\":2533:2547  uint256 spread */\n      0x00\n        /* \"contracts/EntryPoint.sol\":2606:2608  br */\n      dup4\n        /* \"contracts/EntryPoint.sol\":2606:2614  br.denom */\n      0x40\n      add\n      mload\n        /* \"contracts/EntryPoint.sol\":2595:2597  qr */\n      dup4\n        /* \"contracts/EntryPoint.sol\":2595:2603  qr.denom */\n      0x40\n      add\n      mload\n        /* \"contracts/EntryPoint.sol\":2580:2581  o */\n      dup7\n        /* \"contracts/EntryPoint.sol\":2580:2590  o.priceAsk */\n      0xa0\n      add\n      calldataload\n        /* \"contracts/EntryPoint.sol\":2567:2568  o */\n      dup8\n        /* \"contracts/EntryPoint.sol\":2567:2577  o.priceBid */\n      0xc0\n      add\n      calldataload\n        /* \"contracts/EntryPoint.sol\":2567:2590  o.priceBid - o.priceAsk */\n      tag_106\n      swap2\n      swap1\n      tag_107\n      jump\t// in\n    tag_106:\n        /* \"contracts/EntryPoint.sol\":2551:2552  o */\n      dup8\n        /* \"contracts/EntryPoint.sol\":2551:2563  o.baseAmount */\n      0x80\n      add\n      calldataload\n        /* \"contracts/EntryPoint.sol\":2551:2591  o.baseAmount * (o.priceBid - o.priceAsk) */\n      tag_108\n      swap2\n      swap1\n      tag_98\n      jump\t// in\n    tag_108:\n        /* \"contracts/EntryPoint.sol\":2550:2603  (o.baseAmount * (o.priceBid - o.priceAsk)) * qr.denom */\n      tag_109\n      swap2\n      swap1\n      tag_98\n      jump\t// in\n    tag_109:\n        /* \"contracts/EntryPoint.sol\":2550:2614  (o.baseAmount * (o.priceBid - o.priceAsk)) * qr.denom / br.denom */\n      tag_110\n      swap2\n      swap1\n      tag_101\n      jump\t// in\n    tag_110:\n        /* \"contracts/EntryPoint.sol\":2533:2614  uint256 spread = (o.baseAmount * (o.priceBid - o.priceAsk)) * qr.denom / br.denom */\n      swap1\n      pop\n        /* \"contracts/EntryPoint.sol\":2632:2694  ccipProfitWithdraw(qr, o.takerOwnerId, profitWalletId, spread) */\n      tag_111\n        /* \"contracts/EntryPoint.sol\":2651:2653  qr */\n      dup4\n        /* \"contracts/EntryPoint.sol\":2655:2656  o */\n      dup7\n        /* \"contracts/EntryPoint.sol\":2655:2669  o.takerOwnerId */\n      dup1\n      0x60\n      add\n      swap1\n      tag_112\n      swap2\n      swap1\n      tag_85\n      jump\t// in\n    tag_112:\n        /* \"contracts/EntryPoint.sol\":2671:2685  profitWalletId */\n      0x01\n        /* \"contracts/EntryPoint.sol\":2632:2694  ccipProfitWithdraw(qr, o.takerOwnerId, profitWalletId, spread) */\n      dup1\n      sload\n      tag_113\n      swap1\n      tag_114\n      jump\t// in\n    tag_113:\n      dup1\n      0x1f\n      add\n      0x20\n      dup1\n      swap2\n      div\n      mul\n      0x20\n      add\n      mload(0x40)\n      swap1\n      dup2\n      add\n      0x40\n      mstore\n      dup1\n      swap3\n      swap2\n      swap1\n      dup2\n      dup2\n      mstore\n      0x20\n      add\n      dup3\n      dup1\n      sload\n      tag_115\n      swap1\n      tag_114\n      jump\t// in\n    tag_115:\n      dup1\n      iszero\n      tag_116\n      jumpi\n      dup1\n      0x1f\n      lt\n      tag_117\n      jumpi\n      0x0100\n      dup1\n      dup4\n      sload\n      div\n      mul\n      dup4\n      mstore\n      swap2\n      0x20\n      add\n      swap2\n      jump(tag_116)\n    tag_117:\n      dup3\n      add\n      swap2\n      swap1\n      0x00\n      mstore\n      keccak256(0x00, 0x20)\n      swap1\n    tag_118:\n      dup2\n      sload\n      dup2\n      mstore\n      swap1\n      0x01\n      add\n      swap1\n      0x20\n      add\n      dup1\n      dup4\n      gt\n      tag_118\n      jumpi\n      dup3\n      swap1\n      sub\n      0x1f\n      and\n      dup3\n      add\n      swap2\n    tag_116:\n      pop\n      pop\n      pop\n      pop\n      pop\n        /* \"contracts/EntryPoint.sol\":2687:2693  spread */\n      dup6\n        /* \"contracts/EntryPoint.sol\":2632:2650  ccipProfitWithdraw */\n      tag_119\n        /* \"contracts/EntryPoint.sol\":2632:2694  ccipProfitWithdraw(qr, o.takerOwnerId, profitWalletId, spread) */\n      jump\t// in\n    tag_111:\n        /* \"contracts/EntryPoint.sol\":2515:2709  {... */\n      pop\n        /* \"contracts/EntryPoint.sol\":2486:2709  if (o.priceBid > o.priceAsk) {... */\n    tag_105:\n        /* \"contracts/EntryPoint.sol\":1919:2719  {... */\n      pop\n      pop\n      pop\n      pop\n        /* \"contracts/EntryPoint.sol\":1914:1917  i++ */\n      dup1\n      dup1\n      0x01\n      add\n      swap2\n      pop\n      pop\n        /* \"contracts/EntryPoint.sol\":1878:2719  for (uint i = 0; i < orders.length; i++) {... */\n      jump(tag_76)\n    tag_77:\n      pop\n        /* \"contracts/EntryPoint.sol\":2748:2751  bId */\n      dup1\n        /* \"contracts/EntryPoint.sol\":2734:2767  BatchExecuted(bId, orders.length) */\n      0xc409c9a7918eb001ef067382e0bac7f1eeeb6f5ff95aa585be7e4255fca64882\n        /* \"contracts/EntryPoint.sol\":2753:2759  orders */\n      dup5\n      dup5\n        /* \"contracts/EntryPoint.sol\":2753:2766  orders.length */\n      swap1\n      pop\n        /* \"contracts/EntryPoint.sol\":2734:2767  BatchExecuted(bId, orders.length) */\n      mload(0x40)\n      tag_120\n      swap2\n      swap1\n      tag_33\n      jump\t// in\n    tag_120:\n      mload(0x40)\n      dup1\n      swap2\n      sub\n      swap1\n      log2\n        /* \"contracts/EntryPoint.sol\":1829:2774  {... */\n      pop\n        /* \"contracts/EntryPoint.sol\":1758:2774  function executeBatch(MatchedOrder[] calldata orders) external payable {... */\n      pop\n      pop\n      jump\t// out\n        /* \"contracts/EntryPoint.sol\":945:965  address public owner */\n    tag_40:\n      0x02\n      0x00\n      swap1\n      sload\n      swap1\n      0x0100\n      exp\n      swap1\n      div\n      0xffffffffffffffffffffffffffffffffffffffff\n      and\n      dup2\n      jump\t// out\n        /* \"contracts/EntryPoint.sol\":911:939  string public profitWalletId */\n    tag_44:\n      0x01\n      dup1\n      sload\n      tag_121\n      swap1\n      tag_114\n      jump\t// in\n    tag_121:\n      dup1\n      0x1f\n      add\n      0x20\n      dup1\n      swap2\n      div\n      mul\n      0x20\n      add\n      mload(0x40)\n      swap1\n      dup2\n      add\n      0x40\n      mstore\n      dup1\n      swap3\n      swap2\n      swap1\n      dup2\n      dup2\n      mstore\n      0x20\n      add\n      dup3\n      dup1\n      sload\n      tag_122\n      swap1\n      tag_114\n      jump\t// in\n    tag_122:\n      dup1\n      iszero\n      tag_123\n      jumpi\n      dup1\n      0x1f\n      lt\n      tag_124\n      jumpi\n      0x0100\n      dup1\n      dup4\n      sload\n      div\n      mul\n      dup4\n      mstore\n      swap2\n      0x20\n      add\n      swap2\n      jump(tag_123)\n    tag_124:\n      dup3\n      add\n      swap2\n      swap1\n      0x00\n      mstore\n      keccak256(0x00, 0x20)\n      swap1\n    tag_125:\n      dup2\n      sload\n      dup2\n      mstore\n      swap1\n      0x01\n      add\n      swap1\n      0x20\n      add\n      dup1\n      dup4\n      gt\n      tag_125\n      jumpi\n      dup3\n      swap1\n      sub\n      0x1f\n      and\n      dup3\n      add\n      swap2\n    tag_123:\n      pop\n      pop\n      pop\n      pop\n      pop\n      dup2\n      jump\t// out\n        /* \"contracts/EntryPoint.sol\":857:905  mapping(string => ChainRoute) public tokenRoutes */\n    tag_51:\n      0x00\n      dup2\n      dup1\n      mload\n      0x20\n      dup2\n      add\n      dup3\n      add\n      dup1\n      mload\n      dup5\n      dup3\n      mstore\n      0x20\n      dup4\n      add\n      0x20\n      dup6\n      add\n      keccak256\n      dup2\n      dup4\n      mstore\n      dup1\n      swap6\n      pop\n      pop\n      pop\n      pop\n      pop\n      pop\n      0x00\n      swap2\n      pop\n      swap1\n      pop\n      dup1\n      0x00\n      add\n      0x00\n      swap1\n      sload\n      swap1\n      0x0100\n      exp\n      swap1\n      div\n      0xffffffffffffffff\n      and\n      swap1\n      dup1\n      0x00\n      add\n      0x08\n      swap1\n      sload\n      swap1\n      0x0100\n      exp\n      swap1\n      div\n      0xffffffffffffffffffffffffffffffffffffffff\n      and\n      swap1\n      dup1\n      0x01\n      add\n      sload\n      swap1\n      pop\n      dup4\n      jump\t// out\n        /* \"contracts/EntryPoint.sol\":3475:4187  function ccipWithdraw(ChainRoute memory tokenRoute, string calldata sourceOwnerId, string calldata destinationOwnerId, uint256 amount) internal {... */\n    tag_96:\n        /* \"contracts/EntryPoint.sol\":3629:3654  TradeDetails memory trade */\n      0x00\n        /* \"contracts/EntryPoint.sol\":3657:3712  TradeDetails(sourceOwnerId, destinationOwnerId, amount) */\n      mload(0x40)\n      dup1\n      0x60\n      add\n      0x40\n      mstore\n      dup1\n        /* \"contracts/EntryPoint.sol\":3670:3683  sourceOwnerId */\n      dup8\n      dup8\n        /* \"contracts/EntryPoint.sol\":3657:3712  TradeDetails(sourceOwnerId, destinationOwnerId, amount) */\n      dup1\n      dup1\n      0x1f\n      add\n      0x20\n      dup1\n      swap2\n      div\n      mul\n      0x20\n      add\n      mload(0x40)\n      swap1\n      dup2\n      add\n      0x40\n      mstore\n      dup1\n      swap4\n      swap3\n      swap2\n      swap1\n      dup2\n      dup2\n      mstore\n      0x20\n      add\n      dup4\n      dup4\n      dup1\n      dup3\n      dup5\n      calldatacopy\n      0x00\n      dup2\n      dup5\n      add\n      mstore\n      not(0x1f)\n      0x1f\n      dup3\n      add\n      and\n      swap1\n      pop\n      dup1\n      dup4\n      add\n      swap3\n      pop\n      pop\n      pop\n      pop\n      pop\n      pop\n      pop\n      dup2\n      mstore\n      0x20\n      add\n        /* \"contracts/EntryPoint.sol\":3685:3703  destinationOwnerId */\n      dup6\n      dup6\n        /* \"contracts/EntryPoint.sol\":3657:3712  TradeDetails(sourceOwnerId, destinationOwnerId, amount) */\n      dup1\n      dup1\n      0x1f\n      add\n      0x20\n      dup1\n      swap2\n      div\n      mul\n      0x20\n      add\n      mload(0x40)\n      swap1\n      dup2\n      add\n      0x40\n      mstore\n      dup1\n      swap4\n      swap3\n      swap2\n      swap1\n      dup2\n      dup2\n      mstore\n      0x20\n      add\n      dup4\n      dup4\n      dup1\n      dup3\n      dup5\n      calldatacopy\n      0x00\n      dup2\n      dup5\n      add\n      mstore\n      not(0x1f)\n      0x1f\n      dup3\n      add\n      and\n      swap1\n      pop\n      dup1\n      dup4\n      add\n      swap3\n      pop\n      pop\n      pop\n      pop\n      pop\n      pop\n      pop\n      dup2\n      mstore\n      0x20\n      add\n        /* \"contracts/EntryPoint.sol\":3705:3711  amount */\n      dup4\n        /* \"contracts/EntryPoint.sol\":3657:3712  TradeDetails(sourceOwnerId, destinationOwnerId, amount) */\n      dup2\n      mstore\n      pop\n        /* \"contracts/EntryPoint.sol\":3629:3712  TradeDetails memory trade = TradeDetails(sourceOwnerId, destinationOwnerId, amount) */\n      swap1\n      pop\n        /* \"contracts/EntryPoint.sol\":3722:3758  Client.EVM2AnyMessage memory ccipmsg */\n      0x00\n        /* \"contracts/EntryPoint.sol\":3761:3826  _buildCCIPMessage(tokenRoute.walletController, trade, address(0)) */\n      tag_127\n        /* \"contracts/EntryPoint.sol\":3779:3789  tokenRoute */\n      dup9\n        /* \"contracts/EntryPoint.sol\":3779:3806  tokenRoute.walletController */\n      0x20\n      add\n      mload\n        /* \"contracts/EntryPoint.sol\":3808:3813  trade */\n      dup4\n        /* \"contracts/EntryPoint.sol\":3823:3824  0 */\n      0x00\n        /* \"contracts/EntryPoint.sol\":3761:3778  _buildCCIPMessage */\n      tag_128\n        /* \"contracts/EntryPoint.sol\":3761:3826  _buildCCIPMessage(tokenRoute.walletController, trade, address(0)) */\n      jump\t// in\n    tag_127:\n        /* \"contracts/EntryPoint.sol\":3722:3826  Client.EVM2AnyMessage memory ccipmsg = _buildCCIPMessage(tokenRoute.walletController, trade, address(0)) */\n      swap1\n      pop\n        /* \"contracts/EntryPoint.sol\":3837:3857  IRouterClient router */\n      0x00\n        /* \"contracts/EntryPoint.sol\":3874:3887  routerAddress */\n      0x04\n      0x00\n      swap1\n      sload\n      swap1\n      0x0100\n      exp\n      swap1\n      div\n      0xffffffffffffffffffffffffffffffffffffffff\n      and\n        /* \"contracts/EntryPoint.sol\":3837:3888  IRouterClient router = IRouterClient(routerAddress) */\n      swap1\n      pop\n        /* \"contracts/EntryPoint.sol\":3899:3911  uint256 fees */\n      0x00\n        /* \"contracts/EntryPoint.sol\":3914:3920  router */\n      dup2\n        /* \"contracts/EntryPoint.sol\":3914:3927  router.getFee */\n      0xffffffffffffffffffffffffffffffffffffffff\n      and\n      0x20487ded\n        /* \"contracts/EntryPoint.sol\":3928:3938  tokenRoute */\n      dup12\n        /* \"contracts/EntryPoint.sol\":3928:3952  tokenRoute.chainSelector */\n      0x00\n      add\n      mload\n        /* \"contracts/EntryPoint.sol\":3954:3961  ccipmsg */\n      dup6\n        /* \"contracts/EntryPoint.sol\":3914:3962  router.getFee(tokenRoute.chainSelector, ccipmsg) */\n      mload(0x40)\n      dup4\n      0xffffffff\n      and\n      0xe0\n      shl\n      dup2\n      mstore\n      0x04\n      add\n      tag_129\n      swap3\n      swap2\n      swap1\n      tag_130\n      jump\t// in\n    tag_129:\n      0x20\n      mload(0x40)\n      dup1\n      dup4\n      sub\n      dup2\n      dup7\n      gas\n      staticcall\n      iszero\n      dup1\n      iszero\n      tag_132\n      jumpi\n      returndatasize\n      0x00\n      dup1\n      returndatacopy\n      revert(0x00, returndatasize)\n    tag_132:\n      pop\n      pop\n      pop\n      pop\n      mload(0x40)\n      returndatasize\n      not(0x1f)\n      0x1f\n      dup3\n      add\n      and\n      dup3\n      add\n      dup1\n      0x40\n      mstore\n      pop\n      dup2\n      add\n      swap1\n      tag_133\n      swap2\n      swap1\n      tag_134\n      jump\t// in\n    tag_133:\n        /* \"contracts/EntryPoint.sol\":3899:3962  uint256 fees = router.getFee(tokenRoute.chainSelector, ccipmsg) */\n      swap1\n      pop\n        /* \"contracts/EntryPoint.sol\":3985:4006  address(this).balance */\n      selfbalance\n        /* \"contracts/EntryPoint.sol\":3978:3982  fees */\n      dup2\n        /* \"contracts/EntryPoint.sol\":3978:4006  fees > address(this).balance */\n      gt\n        /* \"contracts/EntryPoint.sol\":3974:4072  if (fees > address(this).balance)... */\n      iszero\n      tag_135\n      jumpi\n        /* \"contracts/EntryPoint.sol\":4044:4065  address(this).balance */\n      selfbalance\n        /* \"contracts/EntryPoint.sol\":4067:4071  fees */\n      dup2\n        /* \"contracts/EntryPoint.sol\":4027:4072  NotEnoughBalance(address(this).balance, fees) */\n      mload(0x40)\n      0x8f0f420600000000000000000000000000000000000000000000000000000000\n      dup2\n      mstore\n      0x04\n      add\n      tag_136\n      swap3\n      swap2\n      swap1\n      tag_137\n      jump\t// in\n    tag_136:\n      mload(0x40)\n      dup1\n      swap2\n      sub\n      swap1\n      revert\n        /* \"contracts/EntryPoint.sol\":3974:4072  if (fees > address(this).balance)... */\n    tag_135:\n        /* \"contracts/EntryPoint.sol\":4083:4089  router */\n      dup2\n        /* \"contracts/EntryPoint.sol\":4083:4098  router.ccipSend */\n      0xffffffffffffffffffffffffffffffffffffffff\n      and\n      0x96f4e9f9\n        /* \"contracts/EntryPoint.sol\":4106:4110  fees */\n      dup3\n        /* \"contracts/EntryPoint.sol\":4125:4135  tokenRoute */\n      dup13\n        /* \"contracts/EntryPoint.sol\":4125:4149  tokenRoute.chainSelector */\n      0x00\n      add\n      mload\n        /* \"contracts/EntryPoint.sol\":4163:4170  ccipmsg */\n      dup7\n        /* \"contracts/EntryPoint.sol\":4083:4180  router.ccipSend{value: fees}(... */\n      mload(0x40)\n      dup5\n      0xffffffff\n      and\n      0xe0\n      shl\n      dup2\n      mstore\n      0x04\n      add\n      tag_138\n      swap3\n      swap2\n      swap1\n      tag_130\n      jump\t// in\n    tag_138:\n      0x20\n      mload(0x40)\n      dup1\n      dup4\n      sub\n      dup2\n      dup6\n      dup9\n      gas\n      call\n      iszero\n      dup1\n      iszero\n      tag_140\n      jumpi\n      returndatasize\n      0x00\n      dup1\n      returndatacopy\n      revert(0x00, returndatasize)\n    tag_140:\n      pop\n      pop\n      pop\n      pop\n      pop\n      mload(0x40)\n      returndatasize\n      not(0x1f)\n      0x1f\n      dup3\n      add\n      and\n      dup3\n      add\n      dup1\n      0x40\n      mstore\n      pop\n      dup2\n      add\n      swap1\n      tag_141\n      swap2\n      swap1\n      tag_142\n      jump\t// in\n    tag_141:\n      pop\n        /* \"contracts/EntryPoint.sol\":3619:4187  {... */\n      pop\n      pop\n      pop\n      pop\n        /* \"contracts/EntryPoint.sol\":3475:4187  function ccipWithdraw(ChainRoute memory tokenRoute, string calldata sourceOwnerId, string calldata destinationOwnerId, uint256 amount) internal {... */\n      pop\n      pop\n      pop\n      pop\n      pop\n      pop\n      jump\t// out\n        /* \"contracts/EntryPoint.sol\":4193:4799  function ccipProfitWithdraw(ChainRoute memory tokenRoute, string calldata sourceOwnerId, string memory destinationOwnerId, uint256 amount) internal {... */\n    tag_119:\n        /* \"contracts/EntryPoint.sol\":4351:4376  TradeDetails memory trade */\n      0x00\n        /* \"contracts/EntryPoint.sol\":4379:4434  TradeDetails(sourceOwnerId, destinationOwnerId, amount) */\n      mload(0x40)\n      dup1\n      0x60\n      add\n      0x40\n      mstore\n      dup1\n        /* \"contracts/EntryPoint.sol\":4392:4405  sourceOwnerId */\n      dup7\n      dup7\n        /* \"contracts/EntryPoint.sol\":4379:4434  TradeDetails(sourceOwnerId, destinationOwnerId, amount) */\n      dup1\n      dup1\n      0x1f\n      add\n      0x20\n      dup1\n      swap2\n      div\n      mul\n      0x20\n      add\n      mload(0x40)\n      swap1\n      dup2\n      add\n      0x40\n      mstore\n      dup1\n      swap4\n      swap3\n      swap2\n      swap1\n      dup2\n      dup2\n      mstore\n      0x20\n      add\n      dup4\n      dup4\n      dup1\n      dup3\n      dup5\n      calldatacopy\n      0x00\n      dup2\n      dup5\n      add\n      mstore\n      not(0x1f)\n      0x1f\n      dup3\n      add\n      and\n      swap1\n      pop\n      dup1\n      dup4\n      add\n      swap3\n      pop\n      pop\n      pop\n      pop\n      pop\n      pop\n      pop\n      dup2\n      mstore\n      0x20\n      add\n        /* \"contracts/EntryPoint.sol\":4407:4425  destinationOwnerId */\n      dup5\n        /* \"contracts/EntryPoint.sol\":4379:4434  TradeDetails(sourceOwnerId, destinationOwnerId, amount) */\n      dup2\n      mstore\n      0x20\n      add\n        /* \"contracts/EntryPoint.sol\":4427:4433  amount */\n      dup4\n        /* \"contracts/EntryPoint.sol\":4379:4434  TradeDetails(sourceOwnerId, destinationOwnerId, amount) */\n      dup2\n      mstore\n      pop\n        /* \"contracts/EntryPoint.sol\":4351:4434  TradeDetails memory trade = TradeDetails(sourceOwnerId, destinationOwnerId, amount) */\n      swap1\n      pop\n        /* \"contracts/EntryPoint.sol\":4444:4480  Client.EVM2AnyMessage memory ccipmsg */\n      0x00\n        /* \"contracts/EntryPoint.sol\":4483:4548  _buildCCIPMessage(tokenRoute.walletController, trade, address(0)) */\n      tag_144\n        /* \"contracts/EntryPoint.sol\":4501:4511  tokenRoute */\n      dup8\n        /* \"contracts/EntryPoint.sol\":4501:4528  tokenRoute.walletController */\n      0x20\n      add\n      mload\n        /* \"contracts/EntryPoint.sol\":4530:4535  trade */\n      dup4\n        /* \"contracts/EntryPoint.sol\":4545:4546  0 */\n      0x00\n        /* \"contracts/EntryPoint.sol\":4483:4500  _buildCCIPMessage */\n      tag_128\n        /* \"contracts/EntryPoint.sol\":4483:4548  _buildCCIPMessage(tokenRoute.walletController, trade, address(0)) */\n      jump\t// in\n    tag_144:\n        /* \"contracts/EntryPoint.sol\":4444:4548  Client.EVM2AnyMessage memory ccipmsg = _buildCCIPMessage(tokenRoute.walletController, trade, address(0)) */\n      swap1\n      pop\n        /* \"contracts/EntryPoint.sol\":4559:4579  IRouterClient router */\n      0x00\n        /* \"contracts/EntryPoint.sol\":4596:4609  routerAddress */\n      0x04\n      0x00\n      swap1\n      sload\n      swap1\n      0x0100\n      exp\n      swap1\n      div\n      0xffffffffffffffffffffffffffffffffffffffff\n      and\n        /* \"contracts/EntryPoint.sol\":4559:4610  IRouterClient router = IRouterClient(routerAddress) */\n      swap1\n      pop\n        /* \"contracts/EntryPoint.sol\":4621:4633  uint256 fees */\n      0x00\n        /* \"contracts/EntryPoint.sol\":4636:4642  router */\n      dup2\n        /* \"contracts/EntryPoint.sol\":4636:4649  router.getFee */\n      0xffffffffffffffffffffffffffffffffffffffff\n      and\n      0x20487ded\n        /* \"contracts/EntryPoint.sol\":4650:4660  tokenRoute */\n      dup11\n        /* \"contracts/EntryPoint.sol\":4650:4674  tokenRoute.chainSelector */\n      0x00\n      add\n      mload\n        /* \"contracts/EntryPoint.sol\":4676:4683  ccipmsg */\n      dup6\n        /* \"contracts/EntryPoint.sol\":4636:4684  router.getFee(tokenRoute.chainSelector, ccipmsg) */\n      mload(0x40)\n      dup4\n      0xffffffff\n      and\n      0xe0\n      shl\n      dup2\n      mstore\n      0x04\n      add\n      tag_145\n      swap3\n      swap2\n      swap1\n      tag_130\n      jump\t// in\n    tag_145:\n      0x20\n      mload(0x40)\n      dup1\n      dup4\n      sub\n      dup2\n      dup7\n      gas\n      staticcall\n      iszero\n      dup1\n      iszero\n      tag_147\n      jumpi\n      returndatasize\n      0x00\n      dup1\n      returndatacopy\n      revert(0x00, returndatasize)\n    tag_147:\n      pop\n      pop\n      pop\n      pop\n      mload(0x40)\n      returndatasize\n      not(0x1f)\n      0x1f\n      dup3\n      add\n      and\n      dup3\n      add\n      dup1\n      0x40\n      mstore\n      pop\n      dup2\n      add\n      swap1\n      tag_148\n      swap2\n      swap1\n      tag_134\n      jump\t// in\n    tag_148:\n        /* \"contracts/EntryPoint.sol\":4621:4684  uint256 fees = router.getFee(tokenRoute.chainSelector, ccipmsg) */\n      swap1\n      pop\n        /* \"contracts/EntryPoint.sol\":4695:4701  router */\n      dup2\n        /* \"contracts/EntryPoint.sol\":4695:4710  router.ccipSend */\n      0xffffffffffffffffffffffffffffffffffffffff\n      and\n      0x96f4e9f9\n        /* \"contracts/EntryPoint.sol\":4718:4722  fees */\n      dup3\n        /* \"contracts/EntryPoint.sol\":4737:4747  tokenRoute */\n      dup12\n        /* \"contracts/EntryPoint.sol\":4737:4761  tokenRoute.chainSelector */\n      0x00\n      add\n      mload\n        /* \"contracts/EntryPoint.sol\":4775:4782  ccipmsg */\n      dup7\n        /* \"contracts/EntryPoint.sol\":4695:4792  router.ccipSend{value: fees}(... */\n      mload(0x40)\n      dup5\n      0xffffffff\n      and\n      0xe0\n      shl\n      dup2\n      mstore\n      0x04\n      add\n      tag_149\n      swap3\n      swap2\n      swap1\n      tag_130\n      jump\t// in\n    tag_149:\n      0x20\n      mload(0x40)\n      dup1\n      dup4\n      sub\n      dup2\n      dup6\n      dup9\n      gas\n      call\n      iszero\n      dup1\n      iszero\n      tag_151\n      jumpi\n      returndatasize\n      0x00\n      dup1\n      returndatacopy\n      revert(0x00, returndatasize)\n    tag_151:\n      pop\n      pop\n      pop\n      pop\n      pop\n      mload(0x40)\n      returndatasize\n      not(0x1f)\n      0x1f\n      dup3\n      add\n      and\n      dup3\n      add\n      dup1\n      0x40\n      mstore\n      pop\n      dup2\n      add\n      swap1\n      tag_152\n      swap2\n      swap1\n      tag_142\n      jump\t// in\n    tag_152:\n      pop\n        /* \"contracts/EntryPoint.sol\":4341:4799  {... */\n      pop\n      pop\n      pop\n      pop\n        /* \"contracts/EntryPoint.sol\":4193:4799  function ccipProfitWithdraw(ChainRoute memory tokenRoute, string calldata sourceOwnerId, string memory destinationOwnerId, uint256 amount) internal {... */\n      pop\n      pop\n      pop\n      pop\n      pop\n      jump\t// out\n        /* \"contracts/EntryPoint.sol\":2780:3469  function _buildCCIPMessage(... */\n    tag_128:\n        /* \"contracts/EntryPoint.sol\":2932:2960  Client.EVM2AnyMessage memory */\n      tag_153\n      tag_154\n      jump\t// in\n    tag_153:\n        /* \"contracts/EntryPoint.sol\":2991:3462  Client.EVM2AnyMessage({... */\n      mload(0x40)\n      dup1\n      0xa0\n      add\n      0x40\n      mstore\n      dup1\n        /* \"contracts/EntryPoint.sol\":3052:3061  _receiver */\n      dup6\n        /* \"contracts/EntryPoint.sol\":3041:3062  abi.encode(_receiver) */\n      add(0x20, mload(0x40))\n      tag_156\n      swap2\n      swap1\n      tag_23\n      jump\t// in\n    tag_156:\n      mload(0x40)\n      0x20\n      dup2\n      dup4\n      sub\n      sub\n      dup2\n      mstore\n      swap1\n      0x40\n      mstore\n        /* \"contracts/EntryPoint.sol\":2991:3462  Client.EVM2AnyMessage({... */\n      dup2\n      mstore\n      0x20\n      add\n        /* \"contracts/EntryPoint.sol\":3097:3103  _trade */\n      dup5\n        /* \"contracts/EntryPoint.sol\":3086:3104  abi.encode(_trade) */\n      add(0x20, mload(0x40))\n      tag_157\n      swap2\n      swap1\n      tag_158\n      jump\t// in\n    tag_157:\n      mload(0x40)\n      0x20\n      dup2\n      dup4\n      sub\n      sub\n      dup2\n      mstore\n      swap1\n      0x40\n      mstore\n        /* \"contracts/EntryPoint.sol\":2991:3462  Client.EVM2AnyMessage({... */\n      dup2\n      mstore\n      0x20\n      add\n        /* \"contracts/EntryPoint.sol\":3164:3165  0 */\n      0x00\n        /* \"contracts/EntryPoint.sol\":3136:3166  new Client.EVMTokenAmount[](0) */\n      0xffffffffffffffff\n      dup2\n      gt\n      iszero\n      tag_159\n      jumpi\n      tag_160\n      tag_161\n      jump\t// in\n    tag_160:\n    tag_159:\n      mload(0x40)\n      swap1\n      dup1\n      dup3\n      mstore\n      dup1\n      0x20\n      mul\n      0x20\n      add\n      dup3\n      add\n      0x40\n      mstore\n      dup1\n      iszero\n      tag_162\n      jumpi\n      dup2\n      0x20\n      add\n    tag_163:\n      tag_164\n      tag_165\n      jump\t// in\n    tag_164:\n      dup2\n      mstore\n      0x20\n      add\n      swap1\n      0x01\n      swap1\n      sub\n      swap1\n      dup2\n      tag_163\n      jumpi\n      swap1\n      pop\n    tag_162:\n      pop\n        /* \"contracts/EntryPoint.sol\":2991:3462  Client.EVM2AnyMessage({... */\n      dup2\n      mstore\n      0x20\n      add\n        /* \"contracts/EntryPoint.sol\":3431:3447  _feeTokenAddress */\n      dup4\n        /* \"contracts/EntryPoint.sol\":2991:3462  Client.EVM2AnyMessage({... */\n      0xffffffffffffffffffffffffffffffffffffffff\n      and\n      dup2\n      mstore\n      0x20\n      add\n        /* \"contracts/EntryPoint.sol\":3195:3403  Client._argsToBytes(... */\n      tag_166\n        /* \"contracts/EntryPoint.sol\":3236:3385  Client.GenericExtraArgsV2({... */\n      mload(0x40)\n      dup1\n      0x40\n      add\n      0x40\n      mstore\n      dup1\n        /* \"contracts/EntryPoint.sol\":3298:3305  1000000 */\n      0x0f4240\n        /* \"contracts/EntryPoint.sol\":3236:3385  Client.GenericExtraArgsV2({... */\n      dup2\n      mstore\n      0x20\n      add\n        /* \"contracts/EntryPoint.sol\":3357:3362  false */\n      0x00\n        /* \"contracts/EntryPoint.sol\":3236:3385  Client.GenericExtraArgsV2({... */\n      iszero\n      iszero\n      dup2\n      mstore\n      pop\n        /* \"contracts/EntryPoint.sol\":3195:3214  Client._argsToBytes */\n      tag_167\n        /* \"contracts/EntryPoint.sol\":3195:3403  Client._argsToBytes(... */\n      jump\t// in\n    tag_166:\n        /* \"contracts/EntryPoint.sol\":2991:3462  Client.EVM2AnyMessage({... */\n      dup2\n      mstore\n      pop\n        /* \"contracts/EntryPoint.sol\":2972:3462  return... */\n      swap1\n      pop\n        /* \"contracts/EntryPoint.sol\":2780:3469  function _buildCCIPMessage(... */\n      swap4\n      swap3\n      pop\n      pop\n      pop\n      jump\t// out\n        /* \"@chainlink/contracts-ccip@1.6.0/contracts/libraries/Client.sol\":4328:4514  function _argsToBytes(... */\n    tag_167:\n        /* \"@chainlink/contracts-ccip@1.6.0/contracts/libraries/Client.sol\":4418:4434  bytes memory bts */\n      0x60\n        /* \"@chainlink/contracts-ccip@1.6.0/contracts/libraries/Client.sol\":1861:1871  0x181dcf10 */\n      0x181dcf10\n        /* \"@chainlink/contracts-ccip@1.6.0/contracts/libraries/Client.sol\":4472:4497  GENERIC_EXTRA_ARGS_V2_TAG */\n      0xe0\n      shl\n        /* \"@chainlink/contracts-ccip@1.6.0/contracts/libraries/Client.sol\":4499:4508  extraArgs */\n      dup3\n        /* \"@chainlink/contracts-ccip@1.6.0/contracts/libraries/Client.sol\":4449:4509  abi.encodeWithSelector(GENERIC_EXTRA_ARGS_V2_TAG, extraArgs) */\n      add(0x24, mload(0x40))\n      tag_169\n      swap2\n      swap1\n      tag_170\n      jump\t// in\n    tag_169:\n      mload(0x40)\n      0x20\n      dup2\n      dup4\n      sub\n      sub\n      dup2\n      mstore\n      swap1\n      0x40\n      mstore\n      swap1\n      not(0xffffffffffffffffffffffffffffffffffffffffffffffffffffffff)\n      and\n      0x20\n      dup3\n      add\n      dup1\n      mload\n      0xffffffffffffffffffffffffffffffffffffffffffffffffffffffff\n      dup4\n      dup2\n      dup4\n      and\n      or\n      dup4\n      mstore\n      pop\n      pop\n      pop\n      pop\n        /* \"@chainlink/contracts-ccip@1.6.0/contracts/libraries/Client.sol\":4442:4509  return abi.encodeWithSelector(GENERIC_EXTRA_ARGS_V2_TAG, extraArgs) */\n      swap1\n      pop\n        /* \"@chainlink/contracts-ccip@1.6.0/contracts/libraries/Client.sol\":4328:4514  function _argsToBytes(... */\n      swap2\n      swap1\n      pop\n      jump\t// out\n    tag_154:\n      mload(0x40)\n      dup1\n      0xa0\n      add\n      0x40\n      mstore\n      dup1\n      0x60\n      dup2\n      mstore\n      0x20\n      add\n      0x60\n      dup2\n      mstore\n      0x20\n      add\n      0x60\n      dup2\n      mstore\n      0x20\n      add\n      and(0xffffffffffffffffffffffffffffffffffffffff, 0x00)\n      dup2\n      mstore\n      0x20\n      add\n      0x60\n      dup2\n      mstore\n      pop\n      swap1\n      jump\t// out\n    tag_165:\n      mload(0x40)\n      dup1\n      0x40\n      add\n      0x40\n      mstore\n      dup1\n      and(0xffffffffffffffffffffffffffffffffffffffff, 0x00)\n      dup2\n      mstore\n      0x20\n      add\n      0x00\n      dup2\n      mstore\n      pop\n      swap1\n      jump\t// out\n        /* \"#utility.yul\":7:82   */\n    tag_171:\n        /* \"#utility.yul\":40:46   */\n      0x00\n        /* \"#utility.yul\":73:75   */\n      0x40\n        /* \"#utility.yul\":67:76   */\n      mload\n        /* \"#utility.yul\":57:76   */\n      swap1\n      pop\n        /* \"#utility.yul\":7:82   */\n      swap1\n      jump\t// out\n        /* \"#utility.yul\":88:205   */\n    tag_172:\n        /* \"#utility.yul\":197:198   */\n      0x00\n        /* \"#utility.yul\":194:195   */\n      dup1\n        /* \"#utility.yul\":187:199   */\n      revert\n        /* \"#utility.yul\":211:328   */\n    tag_173:\n        /* \"#utility.yul\":320:321   */\n      0x00\n        /* \"#utility.yul\":317:318   */\n      dup1\n        /* \"#utility.yul\":310:322   */\n      revert\n        /* \"#utility.yul\":334:451   */\n    tag_174:\n        /* \"#utility.yul\":443:444   */\n      0x00\n        /* \"#utility.yul\":440:441   */\n      dup1\n        /* \"#utility.yul\":433:445   */\n      revert\n        /* \"#utility.yul\":457:574   */\n    tag_175:\n        /* \"#utility.yul\":566:567   */\n      0x00\n        /* \"#utility.yul\":563:564   */\n      dup1\n        /* \"#utility.yul\":556:568   */\n      revert\n        /* \"#utility.yul\":580:697   */\n    tag_176:\n        /* \"#utility.yul\":689:690   */\n      0x00\n        /* \"#utility.yul\":686:687   */\n      dup1\n        /* \"#utility.yul\":679:691   */\n      revert\n        /* \"#utility.yul\":717:1270   */\n    tag_177:\n        /* \"#utility.yul\":775:783   */\n      0x00\n        /* \"#utility.yul\":785:791   */\n      dup1\n        /* \"#utility.yul\":835:838   */\n      dup4\n        /* \"#utility.yul\":828:832   */\n      0x1f\n        /* \"#utility.yul\":820:826   */\n      dup5\n        /* \"#utility.yul\":816:833   */\n      add\n        /* \"#utility.yul\":812:839   */\n      slt\n        /* \"#utility.yul\":802:924   */\n      tag_274\n      jumpi\n        /* \"#utility.yul\":843:922   */\n      tag_275\n      tag_174\n      jump\t// in\n    tag_275:\n        /* \"#utility.yul\":802:924   */\n    tag_274:\n        /* \"#utility.yul\":956:962   */\n      dup3\n        /* \"#utility.yul\":943:963   */\n      calldataload\n        /* \"#utility.yul\":933:963   */\n      swap1\n      pop\n        /* \"#utility.yul\":986:1004   */\n      0xffffffffffffffff\n        /* \"#utility.yul\":978:984   */\n      dup2\n        /* \"#utility.yul\":975:1005   */\n      gt\n        /* \"#utility.yul\":972:1089   */\n      iszero\n      tag_276\n      jumpi\n        /* \"#utility.yul\":1008:1087   */\n      tag_277\n      tag_175\n      jump\t// in\n    tag_277:\n        /* \"#utility.yul\":972:1089   */\n    tag_276:\n        /* \"#utility.yul\":1122:1126   */\n      0x20\n        /* \"#utility.yul\":1114:1120   */\n      dup4\n        /* \"#utility.yul\":1110:1127   */\n      add\n        /* \"#utility.yul\":1098:1127   */\n      swap2\n      pop\n        /* \"#utility.yul\":1176:1179   */\n      dup4\n        /* \"#utility.yul\":1168:1172   */\n      0x01\n        /* \"#utility.yul\":1160:1166   */\n      dup3\n        /* \"#utility.yul\":1156:1173   */\n      mul\n        /* \"#utility.yul\":1146:1154   */\n      dup4\n        /* \"#utility.yul\":1142:1174   */\n      add\n        /* \"#utility.yul\":1139:1180   */\n      gt\n        /* \"#utility.yul\":1136:1264   */\n      iszero\n      tag_278\n      jumpi\n        /* \"#utility.yul\":1183:1262   */\n      tag_279\n      tag_176\n      jump\t// in\n    tag_279:\n        /* \"#utility.yul\":1136:1264   */\n    tag_278:\n        /* \"#utility.yul\":717:1270   */\n      swap3\n      pop\n      swap3\n      swap1\n      pop\n      jump\t// out\n        /* \"#utility.yul\":1276:1377   */\n    tag_178:\n        /* \"#utility.yul\":1312:1319   */\n      0x00\n        /* \"#utility.yul\":1352:1370   */\n      0xffffffffffffffff\n        /* \"#utility.yul\":1345:1350   */\n      dup3\n        /* \"#utility.yul\":1341:1371   */\n      and\n        /* \"#utility.yul\":1330:1371   */\n      swap1\n      pop\n        /* \"#utility.yul\":1276:1377   */\n      swap2\n      swap1\n      pop\n      jump\t// out\n        /* \"#utility.yul\":1383:1503   */\n    tag_179:\n        /* \"#utility.yul\":1455:1478   */\n      tag_282\n        /* \"#utility.yul\":1472:1477   */\n      dup2\n        /* \"#utility.yul\":1455:1478   */\n      tag_178\n      jump\t// in\n    tag_282:\n        /* \"#utility.yul\":1448:1453   */\n      dup2\n        /* \"#utility.yul\":1445:1479   */\n      eq\n        /* \"#utility.yul\":1435:1497   */\n      tag_283\n      jumpi\n        /* \"#utility.yul\":1493:1494   */\n      0x00\n        /* \"#utility.yul\":1490:1491   */\n      dup1\n        /* \"#utility.yul\":1483:1495   */\n      revert\n        /* \"#utility.yul\":1435:1497   */\n    tag_283:\n        /* \"#utility.yul\":1383:1503   */\n      pop\n      jump\t// out\n        /* \"#utility.yul\":1509:1646   */\n    tag_180:\n        /* \"#utility.yul\":1554:1559   */\n      0x00\n        /* \"#utility.yul\":1592:1598   */\n      dup2\n        /* \"#utility.yul\":1579:1599   */\n      calldataload\n        /* \"#utility.yul\":1570:1599   */\n      swap1\n      pop\n        /* \"#utility.yul\":1608:1640   */\n      tag_285\n        /* \"#utility.yul\":1634:1639   */\n      dup2\n        /* \"#utility.yul\":1608:1640   */\n      tag_179\n      jump\t// in\n    tag_285:\n        /* \"#utility.yul\":1509:1646   */\n      swap3\n      swap2\n      pop\n      pop\n      jump\t// out\n        /* \"#utility.yul\":1652:1778   */\n    tag_181:\n        /* \"#utility.yul\":1689:1696   */\n      0x00\n        /* \"#utility.yul\":1729:1771   */\n      0xffffffffffffffffffffffffffffffffffffffff\n        /* \"#utility.yul\":1722:1727   */\n      dup3\n        /* \"#utility.yul\":1718:1772   */\n      and\n        /* \"#utility.yul\":1707:1772   */\n      swap1\n      pop\n        /* \"#utility.yul\":1652:1778   */\n      swap2\n      swap1\n      pop\n      jump\t// out\n        /* \"#utility.yul\":1784:1880   */\n    tag_182:\n        /* \"#utility.yul\":1821:1828   */\n      0x00\n        /* \"#utility.yul\":1850:1874   */\n      tag_288\n        /* \"#utility.yul\":1868:1873   */\n      dup3\n        /* \"#utility.yul\":1850:1874   */\n      tag_181\n      jump\t// in\n    tag_288:\n        /* \"#utility.yul\":1839:1874   */\n      swap1\n      pop\n        /* \"#utility.yul\":1784:1880   */\n      swap2\n      swap1\n      pop\n      jump\t// out\n        /* \"#utility.yul\":1886:2008   */\n    tag_183:\n        /* \"#utility.yul\":1959:1983   */\n      tag_290\n        /* \"#utility.yul\":1977:1982   */\n      dup2\n        /* \"#utility.yul\":1959:1983   */\n      tag_182\n      jump\t// in\n    tag_290:\n        /* \"#utility.yul\":1952:1957   */\n      dup2\n        /* \"#utility.yul\":1949:1984   */\n      eq\n        /* \"#utility.yul\":1939:2002   */\n      tag_291\n      jumpi\n        /* \"#utility.yul\":1998:1999   */\n      0x00\n        /* \"#utility.yul\":1995:1996   */\n      dup1\n        /* \"#utility.yul\":1988:2000   */\n      revert\n        /* \"#utility.yul\":1939:2002   */\n    tag_291:\n        /* \"#utility.yul\":1886:2008   */\n      pop\n      jump\t// out\n        /* \"#utility.yul\":2014:2153   */\n    tag_184:\n        /* \"#utility.yul\":2060:2065   */\n      0x00\n        /* \"#utility.yul\":2098:2104   */\n      dup2\n        /* \"#utility.yul\":2085:2105   */\n      calldataload\n        /* \"#utility.yul\":2076:2105   */\n      swap1\n      pop\n        /* \"#utility.yul\":2114:2147   */\n      tag_293\n        /* \"#utility.yul\":2141:2146   */\n      dup2\n        /* \"#utility.yul\":2114:2147   */\n      tag_183\n      jump\t// in\n    tag_293:\n        /* \"#utility.yul\":2014:2153   */\n      swap3\n      swap2\n      pop\n      pop\n      jump\t// out\n        /* \"#utility.yul\":2159:2236   */\n    tag_185:\n        /* \"#utility.yul\":2196:2203   */\n      0x00\n        /* \"#utility.yul\":2225:2230   */\n      dup2\n        /* \"#utility.yul\":2214:2230   */\n      swap1\n      pop\n        /* \"#utility.yul\":2159:2236   */\n      swap2\n      swap1\n      pop\n      jump\t// out\n        /* \"#utility.yul\":2242:2364   */\n    tag_186:\n        /* \"#utility.yul\":2315:2339   */\n      tag_296\n        /* \"#utility.yul\":2333:2338   */\n      dup2\n        /* \"#utility.yul\":2315:2339   */\n      tag_185\n      jump\t// in\n    tag_296:\n        /* \"#utility.yul\":2308:2313   */\n      dup2\n        /* \"#utility.yul\":2305:2340   */\n      eq\n        /* \"#utility.yul\":2295:2358   */\n      tag_297\n      jumpi\n        /* \"#utility.yul\":2354:2355   */\n      0x00\n        /* \"#utility.yul\":2351:2352   */\n      dup1\n        /* \"#utility.yul\":2344:2356   */\n      revert\n        /* \"#utility.yul\":2295:2358   */\n    tag_297:\n        /* \"#utility.yul\":2242:2364   */\n      pop\n      jump\t// out\n        /* \"#utility.yul\":2370:2509   */\n    tag_187:\n        /* \"#utility.yul\":2416:2421   */\n      0x00\n        /* \"#utility.yul\":2454:2460   */\n      dup2\n        /* \"#utility.yul\":2441:2461   */\n      calldataload\n        /* \"#utility.yul\":2432:2461   */\n      swap1\n      pop\n        /* \"#utility.yul\":2470:2503   */\n      tag_299\n        /* \"#utility.yul\":2497:2502   */\n      dup2\n        /* \"#utility.yul\":2470:2503   */\n      tag_186\n      jump\t// in\n    tag_299:\n        /* \"#utility.yul\":2370:2509   */\n      swap3\n      swap2\n      pop\n      pop\n      jump\t// out\n        /* \"#utility.yul\":2515:3478   */\n    tag_17:\n        /* \"#utility.yul\":2612:2618   */\n      0x00\n        /* \"#utility.yul\":2620:2626   */\n      dup1\n        /* \"#utility.yul\":2628:2634   */\n      0x00\n        /* \"#utility.yul\":2636:2642   */\n      dup1\n        /* \"#utility.yul\":2644:2650   */\n      0x00\n        /* \"#utility.yul\":2693:2696   */\n      0x80\n        /* \"#utility.yul\":2681:2690   */\n      dup7\n        /* \"#utility.yul\":2672:2679   */\n      dup9\n        /* \"#utility.yul\":2668:2691   */\n      sub\n        /* \"#utility.yul\":2664:2697   */\n      slt\n        /* \"#utility.yul\":2661:2781   */\n      iszero\n      tag_301\n      jumpi\n        /* \"#utility.yul\":2700:2779   */\n      tag_302\n      tag_172\n      jump\t// in\n    tag_302:\n        /* \"#utility.yul\":2661:2781   */\n    tag_301:\n        /* \"#utility.yul\":2848:2849   */\n      0x00\n        /* \"#utility.yul\":2837:2846   */\n      dup7\n        /* \"#utility.yul\":2833:2850   */\n      add\n        /* \"#utility.yul\":2820:2851   */\n      calldataload\n        /* \"#utility.yul\":2878:2896   */\n      0xffffffffffffffff\n        /* \"#utility.yul\":2870:2876   */\n      dup2\n        /* \"#utility.yul\":2867:2897   */\n      gt\n        /* \"#utility.yul\":2864:2981   */\n      iszero\n      tag_303\n      jumpi\n        /* \"#utility.yul\":2900:2979   */\n      tag_304\n      tag_173\n      jump\t// in\n    tag_304:\n        /* \"#utility.yul\":2864:2981   */\n    tag_303:\n        /* \"#utility.yul\":3013:3078   */\n      tag_305\n        /* \"#utility.yul\":3070:3077   */\n      dup9\n        /* \"#utility.yul\":3061:3067   */\n      dup3\n        /* \"#utility.yul\":3050:3059   */\n      dup10\n        /* \"#utility.yul\":3046:3068   */\n      add\n        /* \"#utility.yul\":3013:3078   */\n      tag_177\n      jump\t// in\n    tag_305:\n        /* \"#utility.yul\":2995:3078   */\n      swap6\n      pop\n      swap6\n      pop\n        /* \"#utility.yul\":2791:3088   */\n      pop\n        /* \"#utility.yul\":3127:3129   */\n      0x20\n        /* \"#utility.yul\":3153:3205   */\n      tag_306\n        /* \"#utility.yul\":3197:3204   */\n      dup9\n        /* \"#utility.yul\":3188:3194   */\n      dup3\n        /* \"#utility.yul\":3177:3186   */\n      dup10\n        /* \"#utility.yul\":3173:3195   */\n      add\n        /* \"#utility.yul\":3153:3205   */\n      tag_180\n      jump\t// in\n    tag_306:\n        /* \"#utility.yul\":3143:3205   */\n      swap4\n      pop\n        /* \"#utility.yul\":3098:3215   */\n      pop\n        /* \"#utility.yul\":3254:3256   */\n      0x40\n        /* \"#utility.yul\":3280:3333   */\n      tag_307\n        /* \"#utility.yul\":3325:3332   */\n      dup9\n        /* \"#utility.yul\":3316:3322   */\n      dup3\n        /* \"#utility.yul\":3305:3314   */\n      dup10\n        /* \"#utility.yul\":3301:3323   */\n      add\n        /* \"#utility.yul\":3280:3333   */\n      tag_184\n      jump\t// in\n    tag_307:\n        /* \"#utility.yul\":3270:3333   */\n      swap3\n      pop\n        /* \"#utility.yul\":3225:3343   */\n      pop\n        /* \"#utility.yul\":3382:3384   */\n      0x60\n        /* \"#utility.yul\":3408:3461   */\n      tag_308\n        /* \"#utility.yul\":3453:3460   */\n      dup9\n        /* \"#utility.yul\":3444:3450   */\n      dup3\n        /* \"#utility.yul\":3433:3442   */\n      dup10\n        /* \"#utility.yul\":3429:3451   */\n      add\n        /* \"#utility.yul\":3408:3461   */\n      tag_187\n      jump\t// in\n    tag_308:\n        /* \"#utility.yul\":3398:3461   */\n      swap2\n      pop\n        /* \"#utility.yul\":3353:3471   */\n      pop\n        /* \"#utility.yul\":2515:3478   */\n      swap3\n      swap6\n      pop\n      swap3\n      swap6\n      swap1\n      swap4\n      pop\n      jump\t// out\n        /* \"#utility.yul\":3484:3602   */\n    tag_188:\n        /* \"#utility.yul\":3571:3595   */\n      tag_310\n        /* \"#utility.yul\":3589:3594   */\n      dup2\n        /* \"#utility.yul\":3571:3595   */\n      tag_182\n      jump\t// in\n    tag_310:\n        /* \"#utility.yul\":3566:3569   */\n      dup3\n        /* \"#utility.yul\":3559:3596   */\n      mstore\n        /* \"#utility.yul\":3484:3602   */\n      pop\n      pop\n      jump\t// out\n        /* \"#utility.yul\":3608:3830   */\n    tag_23:\n        /* \"#utility.yul\":3701:3705   */\n      0x00\n        /* \"#utility.yul\":3739:3741   */\n      0x20\n        /* \"#utility.yul\":3728:3737   */\n      dup3\n        /* \"#utility.yul\":3724:3742   */\n      add\n        /* \"#utility.yul\":3716:3742   */\n      swap1\n      pop\n        /* \"#utility.yul\":3752:3823   */\n      tag_312\n        /* \"#utility.yul\":3820:3821   */\n      0x00\n        /* \"#utility.yul\":3809:3818   */\n      dup4\n        /* \"#utility.yul\":3805:3822   */\n      add\n        /* \"#utility.yul\":3796:3802   */\n      dup5\n        /* \"#utility.yul\":3752:3823   */\n      tag_188\n      jump\t// in\n    tag_312:\n        /* \"#utility.yul\":3608:3830   */\n      swap3\n      swap2\n      pop\n      pop\n      jump\t// out\n        /* \"#utility.yul\":3836:4365   */\n    tag_27:\n        /* \"#utility.yul\":3907:3913   */\n      0x00\n        /* \"#utility.yul\":3915:3921   */\n      dup1\n        /* \"#utility.yul\":3964:3966   */\n      0x20\n        /* \"#utility.yul\":3952:3961   */\n      dup4\n        /* \"#utility.yul\":3943:3950   */\n      dup6\n        /* \"#utility.yul\":3939:3962   */\n      sub\n        /* \"#utility.yul\":3935:3967   */\n      slt\n        /* \"#utility.yul\":3932:4051   */\n      iszero\n      tag_314\n      jumpi\n        /* \"#utility.yul\":3970:4049   */\n      tag_315\n      tag_172\n      jump\t// in\n    tag_315:\n        /* \"#utility.yul\":3932:4051   */\n    tag_314:\n        /* \"#utility.yul\":4118:4119   */\n      0x00\n        /* \"#utility.yul\":4107:4116   */\n      dup4\n        /* \"#utility.yul\":4103:4120   */\n      add\n        /* \"#utility.yul\":4090:4121   */\n      calldataload\n        /* \"#utility.yul\":4148:4166   */\n      0xffffffffffffffff\n        /* \"#utility.yul\":4140:4146   */\n      dup2\n        /* \"#utility.yul\":4137:4167   */\n      gt\n        /* \"#utility.yul\":4134:4251   */\n      iszero\n      tag_316\n      jumpi\n        /* \"#utility.yul\":4170:4249   */\n      tag_317\n      tag_173\n      jump\t// in\n    tag_317:\n        /* \"#utility.yul\":4134:4251   */\n    tag_316:\n        /* \"#utility.yul\":4283:4348   */\n      tag_318\n        /* \"#utility.yul\":4340:4347   */\n      dup6\n        /* \"#utility.yul\":4331:4337   */\n      dup3\n        /* \"#utility.yul\":4320:4329   */\n      dup7\n        /* \"#utility.yul\":4316:4338   */\n      add\n        /* \"#utility.yul\":4283:4348   */\n      tag_177\n      jump\t// in\n    tag_318:\n        /* \"#utility.yul\":4265:4348   */\n      swap3\n      pop\n      swap3\n      pop\n        /* \"#utility.yul\":4061:4358   */\n      pop\n        /* \"#utility.yul\":3836:4365   */\n      swap3\n      pop\n      swap3\n      swap1\n      pop\n      jump\t// out\n        /* \"#utility.yul\":4371:4489   */\n    tag_189:\n        /* \"#utility.yul\":4458:4482   */\n      tag_320\n        /* \"#utility.yul\":4476:4481   */\n      dup2\n        /* \"#utility.yul\":4458:4482   */\n      tag_185\n      jump\t// in\n    tag_320:\n        /* \"#utility.yul\":4453:4456   */\n      dup3\n        /* \"#utility.yul\":4446:4483   */\n      mstore\n        /* \"#utility.yul\":4371:4489   */\n      pop\n      pop\n      jump\t// out\n        /* \"#utility.yul\":4495:4717   */\n    tag_33:\n        /* \"#utility.yul\":4588:4592   */\n      0x00\n        /* \"#utility.yul\":4626:4628   */\n      0x20\n        /* \"#utility.yul\":4615:4624   */\n      dup3\n        /* \"#utility.yul\":4611:4629   */\n      add\n        /* \"#utility.yul\":4603:4629   */\n      swap1\n      pop\n        /* \"#utility.yul\":4639:4710   */\n      tag_322\n        /* \"#utility.yul\":4707:4708   */\n      0x00\n        /* \"#utility.yul\":4696:4705   */\n      dup4\n        /* \"#utility.yul\":4692:4709   */\n      add\n        /* \"#utility.yul\":4683:4689   */\n      dup5\n        /* \"#utility.yul\":4639:4710   */\n      tag_189\n      jump\t// in\n    tag_322:\n        /* \"#utility.yul\":4495:4717   */\n      swap3\n      swap2\n      pop\n      pop\n      jump\t// out\n        /* \"#utility.yul\":4763:5362   */\n    tag_190:\n        /* \"#utility.yul\":4867:4875   */\n      0x00\n        /* \"#utility.yul\":4877:4883   */\n      dup1\n        /* \"#utility.yul\":4927:4930   */\n      dup4\n        /* \"#utility.yul\":4920:4924   */\n      0x1f\n        /* \"#utility.yul\":4912:4918   */\n      dup5\n        /* \"#utility.yul\":4908:4925   */\n      add\n        /* \"#utility.yul\":4904:4931   */\n      slt\n        /* \"#utility.yul\":4894:5016   */\n      tag_324\n      jumpi\n        /* \"#utility.yul\":4935:5014   */\n      tag_325\n      tag_174\n      jump\t// in\n    tag_325:\n        /* \"#utility.yul\":4894:5016   */\n    tag_324:\n        /* \"#utility.yul\":5048:5054   */\n      dup3\n        /* \"#utility.yul\":5035:5055   */\n      calldataload\n        /* \"#utility.yul\":5025:5055   */\n      swap1\n      pop\n        /* \"#utility.yul\":5078:5096   */\n      0xffffffffffffffff\n        /* \"#utility.yul\":5070:5076   */\n      dup2\n        /* \"#utility.yul\":5067:5097   */\n      gt\n        /* \"#utility.yul\":5064:5181   */\n      iszero\n      tag_326\n      jumpi\n        /* \"#utility.yul\":5100:5179   */\n      tag_327\n      tag_175\n      jump\t// in\n    tag_327:\n        /* \"#utility.yul\":5064:5181   */\n    tag_326:\n        /* \"#utility.yul\":5214:5218   */\n      0x20\n        /* \"#utility.yul\":5206:5212   */\n      dup4\n        /* \"#utility.yul\":5202:5219   */\n      add\n        /* \"#utility.yul\":5190:5219   */\n      swap2\n      pop\n        /* \"#utility.yul\":5268:5271   */\n      dup4\n        /* \"#utility.yul\":5260:5264   */\n      0x20\n        /* \"#utility.yul\":5252:5258   */\n      dup3\n        /* \"#utility.yul\":5248:5265   */\n      mul\n        /* \"#utility.yul\":5238:5246   */\n      dup4\n        /* \"#utility.yul\":5234:5266   */\n      add\n        /* \"#utility.yul\":5231:5272   */\n      gt\n        /* \"#utility.yul\":5228:5356   */\n      iszero\n      tag_328\n      jumpi\n        /* \"#utility.yul\":5275:5354   */\n      tag_329\n      tag_176\n      jump\t// in\n    tag_329:\n        /* \"#utility.yul\":5228:5356   */\n    tag_328:\n        /* \"#utility.yul\":4763:5362   */\n      swap3\n      pop\n      swap3\n      swap1\n      pop\n      jump\t// out\n        /* \"#utility.yul\":5368:5989   */\n    tag_36:\n        /* \"#utility.yul\":5485:5491   */\n      0x00\n        /* \"#utility.yul\":5493:5499   */\n      dup1\n        /* \"#utility.yul\":5542:5544   */\n      0x20\n        /* \"#utility.yul\":5530:5539   */\n      dup4\n        /* \"#utility.yul\":5521:5528   */\n      dup6\n        /* \"#utility.yul\":5517:5540   */\n      sub\n        /* \"#utility.yul\":5513:5545   */\n      slt\n        /* \"#utility.yul\":5510:5629   */\n      iszero\n      tag_331\n      jumpi\n        /* \"#utility.yul\":5548:5627   */\n      tag_332\n      tag_172\n      jump\t// in\n    tag_332:\n        /* \"#utility.yul\":5510:5629   */\n    tag_331:\n        /* \"#utility.yul\":5696:5697   */\n      0x00\n        /* \"#utility.yul\":5685:5694   */\n      dup4\n        /* \"#utility.yul\":5681:5698   */\n      add\n        /* \"#utility.yul\":5668:5699   */\n      calldataload\n        /* \"#utility.yul\":5726:5744   */\n      0xffffffffffffffff\n        /* \"#utility.yul\":5718:5724   */\n      dup2\n        /* \"#utility.yul\":5715:5745   */\n      gt\n        /* \"#utility.yul\":5712:5829   */\n      iszero\n      tag_333\n      jumpi\n        /* \"#utility.yul\":5748:5827   */\n      tag_334\n      tag_173\n      jump\t// in\n    tag_334:\n        /* \"#utility.yul\":5712:5829   */\n    tag_333:\n        /* \"#utility.yul\":5861:5972   */\n      tag_335\n        /* \"#utility.yul\":5964:5971   */\n      dup6\n        /* \"#utility.yul\":5955:5961   */\n      dup3\n        /* \"#utility.yul\":5944:5953   */\n      dup7\n        /* \"#utility.yul\":5940:5962   */\n      add\n        /* \"#utility.yul\":5861:5972   */\n      tag_190\n      jump\t// in\n    tag_335:\n        /* \"#utility.yul\":5843:5972   */\n      swap3\n      pop\n      swap3\n      pop\n        /* \"#utility.yul\":5639:5982   */\n      pop\n        /* \"#utility.yul\":5368:5989   */\n      swap3\n      pop\n      swap3\n      swap1\n      pop\n      jump\t// out\n        /* \"#utility.yul\":5995:6094   */\n    tag_191:\n        /* \"#utility.yul\":6047:6053   */\n      0x00\n        /* \"#utility.yul\":6081:6086   */\n      dup2\n        /* \"#utility.yul\":6075:6087   */\n      mload\n        /* \"#utility.yul\":6065:6087   */\n      swap1\n      pop\n        /* \"#utility.yul\":5995:6094   */\n      swap2\n      swap1\n      pop\n      jump\t// out\n        /* \"#utility.yul\":6100:6269   */\n    tag_192:\n        /* \"#utility.yul\":6184:6195   */\n      0x00\n        /* \"#utility.yul\":6218:6224   */\n      dup3\n        /* \"#utility.yul\":6213:6216   */\n      dup3\n        /* \"#utility.yul\":6206:6225   */\n      mstore\n        /* \"#utility.yul\":6258:6262   */\n      0x20\n        /* \"#utility.yul\":6253:6256   */\n      dup3\n        /* \"#utility.yul\":6249:6263   */\n      add\n        /* \"#utility.yul\":6234:6263   */\n      swap1\n      pop\n        /* \"#utility.yul\":6100:6269   */\n      swap3\n      swap2\n      pop\n      pop\n      jump\t// out\n        /* \"#utility.yul\":6275:6521   */\n    tag_193:\n        /* \"#utility.yul\":6356:6357   */\n      0x00\n        /* \"#utility.yul\":6366:6479   */\n    tag_339:\n        /* \"#utility.yul\":6380:6386   */\n      dup4\n        /* \"#utility.yul\":6377:6378   */\n      dup2\n        /* \"#utility.yul\":6374:6387   */\n      lt\n        /* \"#utility.yul\":6366:6479   */\n      iszero\n      tag_341\n      jumpi\n        /* \"#utility.yul\":6465:6466   */\n      dup1\n        /* \"#utility.yul\":6460:6463   */\n      dup3\n        /* \"#utility.yul\":6456:6467   */\n      add\n        /* \"#utility.yul\":6450:6468   */\n      mload\n        /* \"#utility.yul\":6446:6447   */\n      dup2\n        /* \"#utility.yul\":6441:6444   */\n      dup5\n        /* \"#utility.yul\":6437:6448   */\n      add\n        /* \"#utility.yul\":6430:6469   */\n      mstore\n        /* \"#utility.yul\":6402:6404   */\n      0x20\n        /* \"#utility.yul\":6399:6400   */\n      dup2\n        /* \"#utility.yul\":6395:6405   */\n      add\n        /* \"#utility.yul\":6390:6405   */\n      swap1\n      pop\n        /* \"#utility.yul\":6366:6479   */\n      jump(tag_339)\n    tag_341:\n        /* \"#utility.yul\":6513:6514   */\n      0x00\n        /* \"#utility.yul\":6504:6510   */\n      dup5\n        /* \"#utility.yul\":6499:6502   */\n      dup5\n        /* \"#utility.yul\":6495:6511   */\n      add\n        /* \"#utility.yul\":6488:6515   */\n      mstore\n        /* \"#utility.yul\":6337:6521   */\n      pop\n        /* \"#utility.yul\":6275:6521   */\n      pop\n      pop\n      pop\n      jump\t// out\n        /* \"#utility.yul\":6527:6629   */\n    tag_194:\n        /* \"#utility.yul\":6568:6574   */\n      0x00\n        /* \"#utility.yul\":6619:6621   */\n      0x1f\n        /* \"#utility.yul\":6615:6622   */\n      not\n        /* \"#utility.yul\":6610:6612   */\n      0x1f\n        /* \"#utility.yul\":6603:6608   */\n      dup4\n        /* \"#utility.yul\":6599:6613   */\n      add\n        /* \"#utility.yul\":6595:6623   */\n      and\n        /* \"#utility.yul\":6585:6623   */\n      swap1\n      pop\n        /* \"#utility.yul\":6527:6629   */\n      swap2\n      swap1\n      pop\n      jump\t// out\n        /* \"#utility.yul\":6635:7012   */\n    tag_195:\n        /* \"#utility.yul\":6723:6726   */\n      0x00\n        /* \"#utility.yul\":6751:6790   */\n      tag_344\n        /* \"#utility.yul\":6784:6789   */\n      dup3\n        /* \"#utility.yul\":6751:6790   */\n      tag_191\n      jump\t// in\n    tag_344:\n        /* \"#utility.yul\":6806:6877   */\n      tag_345\n        /* \"#utility.yul\":6870:6876   */\n      dup2\n        /* \"#utility.yul\":6865:6868   */\n      dup6\n        /* \"#utility.yul\":6806:6877   */\n      tag_192\n      jump\t// in\n    tag_345:\n        /* \"#utility.yul\":6799:6877   */\n      swap4\n      pop\n        /* \"#utility.yul\":6886:6951   */\n      tag_346\n        /* \"#utility.yul\":6944:6950   */\n      dup2\n        /* \"#utility.yul\":6939:6942   */\n      dup6\n        /* \"#utility.yul\":6932:6936   */\n      0x20\n        /* \"#utility.yul\":6925:6930   */\n      dup7\n        /* \"#utility.yul\":6921:6937   */\n      add\n        /* \"#utility.yul\":6886:6951   */\n      tag_193\n      jump\t// in\n    tag_346:\n        /* \"#utility.yul\":6976:7005   */\n      tag_347\n        /* \"#utility.yul\":6998:7004   */\n      dup2\n        /* \"#utility.yul\":6976:7005   */\n      tag_194\n      jump\t// in\n    tag_347:\n        /* \"#utility.yul\":6971:6974   */\n      dup5\n        /* \"#utility.yul\":6967:7006   */\n      add\n        /* \"#utility.yul\":6960:7006   */\n      swap2\n      pop\n        /* \"#utility.yul\":6727:7012   */\n      pop\n        /* \"#utility.yul\":6635:7012   */\n      swap3\n      swap2\n      pop\n      pop\n      jump\t// out\n        /* \"#utility.yul\":7018:7331   */\n    tag_46:\n        /* \"#utility.yul\":7131:7135   */\n      0x00\n        /* \"#utility.yul\":7169:7171   */\n      0x20\n        /* \"#utility.yul\":7158:7167   */\n      dup3\n        /* \"#utility.yul\":7154:7172   */\n      add\n        /* \"#utility.yul\":7146:7172   */\n      swap1\n      pop\n        /* \"#utility.yul\":7218:7227   */\n      dup2\n        /* \"#utility.yul\":7212:7216   */\n      dup2\n        /* \"#utility.yul\":7208:7228   */\n      sub\n        /* \"#utility.yul\":7204:7205   */\n      0x00\n        /* \"#utility.yul\":7193:7202   */\n      dup4\n        /* \"#utility.yul\":7189:7206   */\n      add\n        /* \"#utility.yul\":7182:7229   */\n      mstore\n        /* \"#utility.yul\":7246:7324   */\n      tag_349\n        /* \"#utility.yul\":7319:7323   */\n      dup2\n        /* \"#utility.yul\":7310:7316   */\n      dup5\n        /* \"#utility.yul\":7246:7324   */\n      tag_195\n      jump\t// in\n    tag_349:\n        /* \"#utility.yul\":7238:7324   */\n      swap1\n      pop\n        /* \"#utility.yul\":7018:7331   */\n      swap3\n      swap2\n      pop\n      pop\n      jump\t// out\n        /* \"#utility.yul\":7337:7454   */\n    tag_196:\n        /* \"#utility.yul\":7446:7447   */\n      0x00\n        /* \"#utility.yul\":7443:7444   */\n      dup1\n        /* \"#utility.yul\":7436:7448   */\n      revert\n        /* \"#utility.yul\":7460:7640   */\n    tag_161:\n        /* \"#utility.yul\":7508:7585   */\n      0x4e487b7100000000000000000000000000000000000000000000000000000000\n        /* \"#utility.yul\":7505:7506   */\n      0x00\n        /* \"#utility.yul\":7498:7586   */\n      mstore\n        /* \"#utility.yul\":7605:7609   */\n      0x41\n        /* \"#utility.yul\":7602:7603   */\n      0x04\n        /* \"#utility.yul\":7595:7610   */\n      mstore\n        /* \"#utility.yul\":7629:7633   */\n      0x24\n        /* \"#utility.yul\":7626:7627   */\n      0x00\n        /* \"#utility.yul\":7619:7634   */\n      revert\n        /* \"#utility.yul\":7646:7927   */\n    tag_197:\n        /* \"#utility.yul\":7729:7756   */\n      tag_353\n        /* \"#utility.yul\":7751:7755   */\n      dup3\n        /* \"#utility.yul\":7729:7756   */\n      tag_194\n      jump\t// in\n    tag_353:\n        /* \"#utility.yul\":7721:7727   */\n      dup2\n        /* \"#utility.yul\":7717:7757   */\n      add\n        /* \"#utility.yul\":7859:7865   */\n      dup2\n        /* \"#utility.yul\":7847:7857   */\n      dup2\n        /* \"#utility.yul\":7844:7866   */\n      lt\n        /* \"#utility.yul\":7823:7841   */\n      0xffffffffffffffff\n        /* \"#utility.yul\":7811:7821   */\n      dup3\n        /* \"#utility.yul\":7808:7842   */\n      gt\n        /* \"#utility.yul\":7805:7867   */\n      or\n        /* \"#utility.yul\":7802:7890   */\n      iszero\n      tag_354\n      jumpi\n        /* \"#utility.yul\":7870:7888   */\n      tag_355\n      tag_161\n      jump\t// in\n    tag_355:\n        /* \"#utility.yul\":7802:7890   */\n    tag_354:\n        /* \"#utility.yul\":7910:7920   */\n      dup1\n        /* \"#utility.yul\":7906:7908   */\n      0x40\n        /* \"#utility.yul\":7899:7921   */\n      mstore\n        /* \"#utility.yul\":7689:7927   */\n      pop\n        /* \"#utility.yul\":7646:7927   */\n      pop\n      pop\n      jump\t// out\n        /* \"#utility.yul\":7933:8062   */\n    tag_198:\n        /* \"#utility.yul\":7967:7973   */\n      0x00\n        /* \"#utility.yul\":7994:8014   */\n      tag_357\n      tag_171\n      jump\t// in\n    tag_357:\n        /* \"#utility.yul\":7984:8014   */\n      swap1\n      pop\n        /* \"#utility.yul\":8023:8056   */\n      tag_358\n        /* \"#utility.yul\":8051:8055   */\n      dup3\n        /* \"#utility.yul\":8043:8049   */\n      dup3\n        /* \"#utility.yul\":8023:8056   */\n      tag_197\n      jump\t// in\n    tag_358:\n        /* \"#utility.yul\":7933:8062   */\n      swap2\n      swap1\n      pop\n      jump\t// out\n        /* \"#utility.yul\":8068:8376   */\n    tag_199:\n        /* \"#utility.yul\":8130:8134   */\n      0x00\n        /* \"#utility.yul\":8220:8238   */\n      0xffffffffffffffff\n        /* \"#utility.yul\":8212:8218   */\n      dup3\n        /* \"#utility.yul\":8209:8239   */\n      gt\n        /* \"#utility.yul\":8206:8262   */\n      iszero\n      tag_360\n      jumpi\n        /* \"#utility.yul\":8242:8260   */\n      tag_361\n      tag_161\n      jump\t// in\n    tag_361:\n        /* \"#utility.yul\":8206:8262   */\n    tag_360:\n        /* \"#utility.yul\":8280:8309   */\n      tag_362\n        /* \"#utility.yul\":8302:8308   */\n      dup3\n        /* \"#utility.yul\":8280:8309   */\n      tag_194\n      jump\t// in\n    tag_362:\n        /* \"#utility.yul\":8272:8309   */\n      swap1\n      pop\n        /* \"#utility.yul\":8364:8368   */\n      0x20\n        /* \"#utility.yul\":8358:8362   */\n      dup2\n        /* \"#utility.yul\":8354:8369   */\n      add\n        /* \"#utility.yul\":8346:8369   */\n      swap1\n      pop\n        /* \"#utility.yul\":8068:8376   */\n      swap2\n      swap1\n      pop\n      jump\t// out\n        /* \"#utility.yul\":8382:8528   */\n    tag_200:\n        /* \"#utility.yul\":8479:8485   */\n      dup3\n        /* \"#utility.yul\":8474:8477   */\n      dup2\n        /* \"#utility.yul\":8469:8472   */\n      dup4\n        /* \"#utility.yul\":8456:8486   */\n      calldatacopy\n        /* \"#utility.yul\":8520:8521   */\n      0x00\n        /* \"#utility.yul\":8511:8517   */\n      dup4\n        /* \"#utility.yul\":8506:8509   */\n      dup4\n        /* \"#utility.yul\":8502:8518   */\n      add\n        /* \"#utility.yul\":8495:8522   */\n      mstore\n        /* \"#utility.yul\":8382:8528   */\n      pop\n      pop\n      pop\n      jump\t// out\n        /* \"#utility.yul\":8534:8959   */\n    tag_201:\n        /* \"#utility.yul\":8612:8617   */\n      0x00\n        /* \"#utility.yul\":8637:8703   */\n      tag_365\n        /* \"#utility.yul\":8653:8702   */\n      tag_366\n        /* \"#utility.yul\":8695:8701   */\n      dup5\n        /* \"#utility.yul\":8653:8702   */\n      tag_199\n      jump\t// in\n    tag_366:\n        /* \"#utility.yul\":8637:8703   */\n      tag_198\n      jump\t// in\n    tag_365:\n        /* \"#utility.yul\":8628:8703   */\n      swap1\n      pop\n        /* \"#utility.yul\":8726:8732   */\n      dup3\n        /* \"#utility.yul\":8719:8724   */\n      dup2\n        /* \"#utility.yul\":8712:8733   */\n      mstore\n        /* \"#utility.yul\":8764:8768   */\n      0x20\n        /* \"#utility.yul\":8757:8762   */\n      dup2\n        /* \"#utility.yul\":8753:8769   */\n      add\n        /* \"#utility.yul\":8802:8805   */\n      dup5\n        /* \"#utility.yul\":8793:8799   */\n      dup5\n        /* \"#utility.yul\":8788:8791   */\n      dup5\n        /* \"#utility.yul\":8784:8800   */\n      add\n        /* \"#utility.yul\":8781:8806   */\n      gt\n        /* \"#utility.yul\":8778:8890   */\n      iszero\n      tag_367\n      jumpi\n        /* \"#utility.yul\":8809:8888   */\n      tag_368\n      tag_196\n      jump\t// in\n    tag_368:\n        /* \"#utility.yul\":8778:8890   */\n    tag_367:\n        /* \"#utility.yul\":8899:8953   */\n      tag_369\n        /* \"#utility.yul\":8946:8952   */\n      dup5\n        /* \"#utility.yul\":8941:8944   */\n      dup3\n        /* \"#utility.yul\":8936:8939   */\n      dup6\n        /* \"#utility.yul\":8899:8953   */\n      tag_200\n      jump\t// in\n    tag_369:\n        /* \"#utility.yul\":8618:8959   */\n      pop\n        /* \"#utility.yul\":8534:8959   */\n      swap4\n      swap3\n      pop\n      pop\n      pop\n      jump\t// out\n        /* \"#utility.yul\":8979:9319   */\n    tag_202:\n        /* \"#utility.yul\":9035:9040   */\n      0x00\n        /* \"#utility.yul\":9084:9087   */\n      dup3\n        /* \"#utility.yul\":9077:9081   */\n      0x1f\n        /* \"#utility.yul\":9069:9075   */\n      dup4\n        /* \"#utility.yul\":9065:9082   */\n      add\n        /* \"#utility.yul\":9061:9088   */\n      slt\n        /* \"#utility.yul\":9051:9173   */\n      tag_371\n      jumpi\n        /* \"#utility.yul\":9092:9171   */\n      tag_372\n      tag_174\n      jump\t// in\n    tag_372:\n        /* \"#utility.yul\":9051:9173   */\n    tag_371:\n        /* \"#utility.yul\":9209:9215   */\n      dup2\n        /* \"#utility.yul\":9196:9216   */\n      calldataload\n        /* \"#utility.yul\":9234:9313   */\n      tag_373\n        /* \"#utility.yul\":9309:9312   */\n      dup5\n        /* \"#utility.yul\":9301:9307   */\n      dup3\n        /* \"#utility.yul\":9294:9298   */\n      0x20\n        /* \"#utility.yul\":9286:9292   */\n      dup7\n        /* \"#utility.yul\":9282:9299   */\n      add\n        /* \"#utility.yul\":9234:9313   */\n      tag_201\n      jump\t// in\n    tag_373:\n        /* \"#utility.yul\":9225:9313   */\n      swap2\n      pop\n        /* \"#utility.yul\":9041:9319   */\n      pop\n        /* \"#utility.yul\":8979:9319   */\n      swap3\n      swap2\n      pop\n      pop\n      jump\t// out\n        /* \"#utility.yul\":9325:9834   */\n    tag_50:\n        /* \"#utility.yul\":9394:9400   */\n      0x00\n        /* \"#utility.yul\":9443:9445   */\n      0x20\n        /* \"#utility.yul\":9431:9440   */\n      dup3\n        /* \"#utility.yul\":9422:9429   */\n      dup5\n        /* \"#utility.yul\":9418:9441   */\n      sub\n        /* \"#utility.yul\":9414:9446   */\n      slt\n        /* \"#utility.yul\":9411:9530   */\n      iszero\n      tag_375\n      jumpi\n        /* \"#utility.yul\":9449:9528   */\n      tag_376\n      tag_172\n      jump\t// in\n    tag_376:\n        /* \"#utility.yul\":9411:9530   */\n    tag_375:\n        /* \"#utility.yul\":9597:9598   */\n      0x00\n        /* \"#utility.yul\":9586:9595   */\n      dup3\n        /* \"#utility.yul\":9582:9599   */\n      add\n        /* \"#utility.yul\":9569:9600   */\n      calldataload\n        /* \"#utility.yul\":9627:9645   */\n      0xffffffffffffffff\n        /* \"#utility.yul\":9619:9625   */\n      dup2\n        /* \"#utility.yul\":9616:9646   */\n      gt\n        /* \"#utility.yul\":9613:9730   */\n      iszero\n      tag_377\n      jumpi\n        /* \"#utility.yul\":9649:9728   */\n      tag_378\n      tag_173\n      jump\t// in\n    tag_378:\n        /* \"#utility.yul\":9613:9730   */\n    tag_377:\n        /* \"#utility.yul\":9754:9817   */\n      tag_379\n        /* \"#utility.yul\":9809:9816   */\n      dup5\n        /* \"#utility.yul\":9800:9806   */\n      dup3\n        /* \"#utility.yul\":9789:9798   */\n      dup6\n        /* \"#utility.yul\":9785:9807   */\n      add\n        /* \"#utility.yul\":9754:9817   */\n      tag_202\n      jump\t// in\n    tag_379:\n        /* \"#utility.yul\":9744:9817   */\n      swap2\n      pop\n        /* \"#utility.yul\":9540:9827   */\n      pop\n        /* \"#utility.yul\":9325:9834   */\n      swap3\n      swap2\n      pop\n      pop\n      jump\t// out\n        /* \"#utility.yul\":9840:9955   */\n    tag_203:\n        /* \"#utility.yul\":9925:9948   */\n      tag_381\n        /* \"#utility.yul\":9942:9947   */\n      dup2\n        /* \"#utility.yul\":9925:9948   */\n      tag_178\n      jump\t// in\n    tag_381:\n        /* \"#utility.yul\":9920:9923   */\n      dup3\n        /* \"#utility.yul\":9913:9949   */\n      mstore\n        /* \"#utility.yul\":9840:9955   */\n      pop\n      pop\n      jump\t// out\n        /* \"#utility.yul\":9961:10399   */\n    tag_53:\n        /* \"#utility.yul\":10108:10112   */\n      0x00\n        /* \"#utility.yul\":10146:10148   */\n      0x60\n        /* \"#utility.yul\":10135:10144   */\n      dup3\n        /* \"#utility.yul\":10131:10149   */\n      add\n        /* \"#utility.yul\":10123:10149   */\n      swap1\n      pop\n        /* \"#utility.yul\":10159:10228   */\n      tag_383\n        /* \"#utility.yul\":10225:10226   */\n      0x00\n        /* \"#utility.yul\":10214:10223   */\n      dup4\n        /* \"#utility.yul\":10210:10227   */\n      add\n        /* \"#utility.yul\":10201:10207   */\n      dup7\n        /* \"#utility.yul\":10159:10228   */\n      tag_203\n      jump\t// in\n    tag_383:\n        /* \"#utility.yul\":10238:10310   */\n      tag_384\n        /* \"#utility.yul\":10306:10308   */\n      0x20\n        /* \"#utility.yul\":10295:10304   */\n      dup4\n        /* \"#utility.yul\":10291:10309   */\n      add\n        /* \"#utility.yul\":10282:10288   */\n      dup6\n        /* \"#utility.yul\":10238:10310   */\n      tag_188\n      jump\t// in\n    tag_384:\n        /* \"#utility.yul\":10320:10392   */\n      tag_385\n        /* \"#utility.yul\":10388:10390   */\n      0x40\n        /* \"#utility.yul\":10377:10386   */\n      dup4\n        /* \"#utility.yul\":10373:10391   */\n      add\n        /* \"#utility.yul\":10364:10370   */\n      dup5\n        /* \"#utility.yul\":10320:10392   */\n      tag_189\n      jump\t// in\n    tag_385:\n        /* \"#utility.yul\":9961:10399   */\n      swap5\n      swap4\n      pop\n      pop\n      pop\n      pop\n      jump\t// out\n        /* \"#utility.yul\":10405:10564   */\n    tag_204:\n        /* \"#utility.yul\":10545:10556   */\n      0x4e6f74206f776e65720000000000000000000000000000000000000000000000\n        /* \"#utility.yul\":10541:10542   */\n      0x00\n        /* \"#utility.yul\":10533:10539   */\n      dup3\n        /* \"#utility.yul\":10529:10543   */\n      add\n        /* \"#utility.yul\":10522:10557   */\n      mstore\n        /* \"#utility.yul\":10405:10564   */\n      pop\n      jump\t// out\n        /* \"#utility.yul\":10570:10935   */\n    tag_205:\n        /* \"#utility.yul\":10712:10715   */\n      0x00\n        /* \"#utility.yul\":10733:10799   */\n      tag_388\n        /* \"#utility.yul\":10797:10798   */\n      0x09\n        /* \"#utility.yul\":10792:10795   */\n      dup4\n        /* \"#utility.yul\":10733:10799   */\n      tag_192\n      jump\t// in\n    tag_388:\n        /* \"#utility.yul\":10726:10799   */\n      swap2\n      pop\n        /* \"#utility.yul\":10808:10901   */\n      tag_389\n        /* \"#utility.yul\":10897:10900   */\n      dup3\n        /* \"#utility.yul\":10808:10901   */\n      tag_204\n      jump\t// in\n    tag_389:\n        /* \"#utility.yul\":10926:10928   */\n      0x20\n        /* \"#utility.yul\":10921:10924   */\n      dup3\n        /* \"#utility.yul\":10917:10929   */\n      add\n        /* \"#utility.yul\":10910:10929   */\n      swap1\n      pop\n        /* \"#utility.yul\":10570:10935   */\n      swap2\n      swap1\n      pop\n      jump\t// out\n        /* \"#utility.yul\":10941:11360   */\n    tag_57:\n        /* \"#utility.yul\":11107:11111   */\n      0x00\n        /* \"#utility.yul\":11145:11147   */\n      0x20\n        /* \"#utility.yul\":11134:11143   */\n      dup3\n        /* \"#utility.yul\":11130:11148   */\n      add\n        /* \"#utility.yul\":11122:11148   */\n      swap1\n      pop\n        /* \"#utility.yul\":11194:11203   */\n      dup2\n        /* \"#utility.yul\":11188:11192   */\n      dup2\n        /* \"#utility.yul\":11184:11204   */\n      sub\n        /* \"#utility.yul\":11180:11181   */\n      0x00\n        /* \"#utility.yul\":11169:11178   */\n      dup4\n        /* \"#utility.yul\":11165:11182   */\n      add\n        /* \"#utility.yul\":11158:11205   */\n      mstore\n        /* \"#utility.yul\":11222:11353   */\n      tag_391\n        /* \"#utility.yul\":11348:11352   */\n      dup2\n        /* \"#utility.yul\":11222:11353   */\n      tag_205\n      jump\t// in\n    tag_391:\n        /* \"#utility.yul\":11214:11353   */\n      swap1\n      pop\n        /* \"#utility.yul\":10941:11360   */\n      swap2\n      swap1\n      pop\n      jump\t// out\n        /* \"#utility.yul\":11366:11514   */\n    tag_206:\n        /* \"#utility.yul\":11468:11479   */\n      0x00\n        /* \"#utility.yul\":11505:11508   */\n      dup2\n        /* \"#utility.yul\":11490:11508   */\n      swap1\n      pop\n        /* \"#utility.yul\":11366:11514   */\n      swap3\n      swap2\n      pop\n      pop\n      jump\t// out\n        /* \"#utility.yul\":11544:11874   */\n    tag_207:\n        /* \"#utility.yul\":11660:11663   */\n      0x00\n        /* \"#utility.yul\":11681:11770   */\n      tag_394\n        /* \"#utility.yul\":11763:11769   */\n      dup4\n        /* \"#utility.yul\":11758:11761   */\n      dup6\n        /* \"#utility.yul\":11681:11770   */\n      tag_206\n      jump\t// in\n    tag_394:\n        /* \"#utility.yul\":11674:11770   */\n      swap4\n      pop\n        /* \"#utility.yul\":11780:11836   */\n      tag_395\n        /* \"#utility.yul\":11829:11835   */\n      dup4\n        /* \"#utility.yul\":11824:11827   */\n      dup6\n        /* \"#utility.yul\":11817:11822   */\n      dup5\n        /* \"#utility.yul\":11780:11836   */\n      tag_200\n      jump\t// in\n    tag_395:\n        /* \"#utility.yul\":11861:11867   */\n      dup3\n        /* \"#utility.yul\":11856:11859   */\n      dup5\n        /* \"#utility.yul\":11852:11868   */\n      add\n        /* \"#utility.yul\":11845:11868   */\n      swap1\n      pop\n        /* \"#utility.yul\":11544:11874   */\n      swap4\n      swap3\n      pop\n      pop\n      pop\n      jump\t// out\n        /* \"#utility.yul\":11880:12175   */\n    tag_60:\n        /* \"#utility.yul\":12022:12025   */\n      0x00\n        /* \"#utility.yul\":12044:12149   */\n      tag_397\n        /* \"#utility.yul\":12145:12148   */\n      dup3\n        /* \"#utility.yul\":12136:12142   */\n      dup5\n        /* \"#utility.yul\":12128:12134   */\n      dup7\n        /* \"#utility.yul\":12044:12149   */\n      tag_207\n      jump\t// in\n    tag_397:\n        /* \"#utility.yul\":12037:12149   */\n      swap2\n      pop\n        /* \"#utility.yul\":12166:12169   */\n      dup2\n        /* \"#utility.yul\":12159:12169   */\n      swap1\n      pop\n        /* \"#utility.yul\":11880:12175   */\n      swap4\n      swap3\n      pop\n      pop\n      pop\n      jump\t// out\n        /* \"#utility.yul\":12181:12283   */\n    tag_208:\n        /* \"#utility.yul\":12223:12231   */\n      0x00\n        /* \"#utility.yul\":12270:12275   */\n      dup2\n        /* \"#utility.yul\":12267:12268   */\n      0x00\n        /* \"#utility.yul\":12263:12276   */\n      shr\n        /* \"#utility.yul\":12242:12276   */\n      swap1\n      pop\n        /* \"#utility.yul\":12181:12283   */\n      swap2\n      swap1\n      pop\n      jump\t// out\n        /* \"#utility.yul\":12289:12403   */\n    tag_209:\n        /* \"#utility.yul\":12338:12345   */\n      0x00\n        /* \"#utility.yul\":12378:12396   */\n      0xffffffffffffffff\n        /* \"#utility.yul\":12371:12376   */\n      dup3\n        /* \"#utility.yul\":12367:12397   */\n      and\n        /* \"#utility.yul\":12356:12397   */\n      swap1\n      pop\n        /* \"#utility.yul\":12289:12403   */\n      swap2\n      swap1\n      pop\n      jump\t// out\n        /* \"#utility.yul\":12409:12573   */\n    tag_210:\n        /* \"#utility.yul\":12477:12482   */\n      0x00\n        /* \"#utility.yul\":12502:12567   */\n      tag_401\n        /* \"#utility.yul\":12532:12566   */\n      tag_402\n        /* \"#utility.yul\":12555:12565   */\n      dup4\n        /* \"#utility.yul\":12532:12566   */\n      tag_208\n      jump\t// in\n    tag_402:\n        /* \"#utility.yul\":12502:12567   */\n      tag_209\n      jump\t// in\n    tag_401:\n        /* \"#utility.yul\":12493:12567   */\n      swap1\n      pop\n        /* \"#utility.yul\":12409:12573   */\n      swap2\n      swap1\n      pop\n      jump\t// out\n        /* \"#utility.yul\":12579:12684   */\n    tag_211:\n        /* \"#utility.yul\":12654:12677   */\n      tag_404\n        /* \"#utility.yul\":12671:12676   */\n      dup2\n        /* \"#utility.yul\":12654:12677   */\n      tag_178\n      jump\t// in\n    tag_404:\n        /* \"#utility.yul\":12649:12652   */\n      dup3\n        /* \"#utility.yul\":12642:12678   */\n      mstore\n        /* \"#utility.yul\":12579:12684   */\n      pop\n      pop\n      jump\t// out\n        /* \"#utility.yul\":12690:12794   */\n    tag_212:\n        /* \"#utility.yul\":12733:12741   */\n      0x00\n        /* \"#utility.yul\":12781:12786   */\n      dup2\n        /* \"#utility.yul\":12777:12779   */\n      0x40\n        /* \"#utility.yul\":12773:12787   */\n      shr\n        /* \"#utility.yul\":12752:12787   */\n      swap1\n      pop\n        /* \"#utility.yul\":12690:12794   */\n      swap2\n      swap1\n      pop\n      jump\t// out\n        /* \"#utility.yul\":12800:12939   */\n    tag_213:\n        /* \"#utility.yul\":12850:12857   */\n      0x00\n        /* \"#utility.yul\":12890:12932   */\n      0xffffffffffffffffffffffffffffffffffffffff\n        /* \"#utility.yul\":12883:12888   */\n      dup3\n        /* \"#utility.yul\":12879:12933   */\n      and\n        /* \"#utility.yul\":12868:12933   */\n      swap1\n      pop\n        /* \"#utility.yul\":12800:12939   */\n      swap2\n      swap1\n      pop\n      jump\t// out\n        /* \"#utility.yul\":12945:13112   */\n    tag_214:\n        /* \"#utility.yul\":13014:13019   */\n      0x00\n        /* \"#utility.yul\":13039:13106   */\n      tag_408\n        /* \"#utility.yul\":13070:13105   */\n      tag_409\n        /* \"#utility.yul\":13094:13104   */\n      dup4\n        /* \"#utility.yul\":13070:13105   */\n      tag_212\n      jump\t// in\n    tag_409:\n        /* \"#utility.yul\":13039:13106   */\n      tag_213\n      jump\t// in\n    tag_408:\n        /* \"#utility.yul\":13030:13106   */\n      swap1\n      pop\n        /* \"#utility.yul\":12945:13112   */\n      swap2\n      swap1\n      pop\n      jump\t// out\n        /* \"#utility.yul\":13118:13226   */\n    tag_215:\n        /* \"#utility.yul\":13195:13219   */\n      tag_411\n        /* \"#utility.yul\":13213:13218   */\n      dup2\n        /* \"#utility.yul\":13195:13219   */\n      tag_182\n      jump\t// in\n    tag_411:\n        /* \"#utility.yul\":13190:13193   */\n      dup3\n        /* \"#utility.yul\":13183:13220   */\n      mstore\n        /* \"#utility.yul\":13118:13226   */\n      pop\n      pop\n      jump\t// out\n        /* \"#utility.yul\":13232:13322   */\n    tag_216:\n        /* \"#utility.yul\":13282:13289   */\n      0x00\n        /* \"#utility.yul\":13311:13316   */\n      dup2\n        /* \"#utility.yul\":13300:13316   */\n      swap1\n      pop\n        /* \"#utility.yul\":13232:13322   */\n      swap2\n      swap1\n      pop\n      jump\t// out\n        /* \"#utility.yul\":13328:13494   */\n    tag_217:\n        /* \"#utility.yul\":13397:13402   */\n      0x00\n        /* \"#utility.yul\":13422:13488   */\n      tag_414\n        /* \"#utility.yul\":13453:13487   */\n      tag_415\n        /* \"#utility.yul\":13476:13486   */\n      dup4\n        /* \"#utility.yul\":13453:13487   */\n      tag_208\n      jump\t// in\n    tag_415:\n        /* \"#utility.yul\":13422:13488   */\n      tag_216\n      jump\t// in\n    tag_414:\n        /* \"#utility.yul\":13413:13488   */\n      swap1\n      pop\n        /* \"#utility.yul\":13328:13494   */\n      swap2\n      swap1\n      pop\n      jump\t// out\n        /* \"#utility.yul\":13500:13608   */\n    tag_218:\n        /* \"#utility.yul\":13577:13601   */\n      tag_417\n        /* \"#utility.yul\":13595:13600   */\n      dup2\n        /* \"#utility.yul\":13577:13601   */\n      tag_185\n      jump\t// in\n    tag_417:\n        /* \"#utility.yul\":13572:13575   */\n      dup3\n        /* \"#utility.yul\":13565:13602   */\n      mstore\n        /* \"#utility.yul\":13500:13608   */\n      pop\n      pop\n      jump\t// out\n        /* \"#utility.yul\":13682:14602   */\n    tag_219:\n        /* \"#utility.yul\":13830:13834   */\n      0x60\n        /* \"#utility.yul\":13825:13828   */\n      dup3\n        /* \"#utility.yul\":13821:13835   */\n      add\n        /* \"#utility.yul\":13861:13862   */\n      0x00\n        /* \"#utility.yul\":13945:13949   */\n      dup1\n        /* \"#utility.yul\":13938:13943   */\n      dup4\n        /* \"#utility.yul\":13934:13950   */\n      add\n        /* \"#utility.yul\":13928:13951   */\n      sload\n        /* \"#utility.yul\":13915:13951   */\n      swap1\n      pop\n        /* \"#utility.yul\":13984:14038   */\n      tag_419\n        /* \"#utility.yul\":14028:14037   */\n      dup2\n        /* \"#utility.yul\":13984:14038   */\n      tag_210\n      jump\t// in\n    tag_419:\n        /* \"#utility.yul\":14051:14112   */\n      tag_420\n        /* \"#utility.yul\":14106:14110   */\n      0x00\n        /* \"#utility.yul\":14101:14104   */\n      dup7\n        /* \"#utility.yul\":14097:14111   */\n      add\n        /* \"#utility.yul\":14083:14095   */\n      dup3\n        /* \"#utility.yul\":14051:14112   */\n      tag_211\n      jump\t// in\n    tag_420:\n        /* \"#utility.yul\":13872:14122   */\n      pop\n        /* \"#utility.yul\":14199:14254   */\n      tag_421\n        /* \"#utility.yul\":14244:14253   */\n      dup2\n        /* \"#utility.yul\":14199:14254   */\n      tag_214\n      jump\t// in\n    tag_421:\n        /* \"#utility.yul\":14267:14330   */\n      tag_422\n        /* \"#utility.yul\":14324:14328   */\n      0x20\n        /* \"#utility.yul\":14319:14322   */\n      dup7\n        /* \"#utility.yul\":14315:14329   */\n      add\n        /* \"#utility.yul\":14301:14313   */\n      dup3\n        /* \"#utility.yul\":14267:14330   */\n      tag_215\n      jump\t// in\n    tag_422:\n        /* \"#utility.yul\":14132:14340   */\n      pop\n        /* \"#utility.yul\":14415:14419   */\n      0x01\n        /* \"#utility.yul\":14408:14413   */\n      dup4\n        /* \"#utility.yul\":14404:14420   */\n      add\n        /* \"#utility.yul\":14398:14421   */\n      sload\n        /* \"#utility.yul\":14385:14421   */\n      swap1\n      pop\n        /* \"#utility.yul\":14454:14509   */\n      tag_423\n        /* \"#utility.yul\":14499:14508   */\n      dup2\n        /* \"#utility.yul\":14454:14509   */\n      tag_217\n      jump\t// in\n    tag_423:\n        /* \"#utility.yul\":14522:14585   */\n      tag_424\n        /* \"#utility.yul\":14579:14583   */\n      0x40\n        /* \"#utility.yul\":14574:14577   */\n      dup7\n        /* \"#utility.yul\":14570:14584   */\n      add\n        /* \"#utility.yul\":14556:14568   */\n      dup3\n        /* \"#utility.yul\":14522:14585   */\n      tag_218\n      jump\t// in\n    tag_424:\n        /* \"#utility.yul\":14350:14595   */\n      pop\n        /* \"#utility.yul\":13799:14602   */\n      pop\n      pop\n        /* \"#utility.yul\":13682:14602   */\n      pop\n      pop\n      jump\t// out\n        /* \"#utility.yul\":14608:14932   */\n    tag_64:\n        /* \"#utility.yul\":14752:14756   */\n      0x00\n        /* \"#utility.yul\":14790:14792   */\n      0x60\n        /* \"#utility.yul\":14779:14788   */\n      dup3\n        /* \"#utility.yul\":14775:14793   */\n      add\n        /* \"#utility.yul\":14767:14793   */\n      swap1\n      pop\n        /* \"#utility.yul\":14803:14925   */\n      tag_426\n        /* \"#utility.yul\":14922:14923   */\n      0x00\n        /* \"#utility.yul\":14911:14920   */\n      dup4\n        /* \"#utility.yul\":14907:14924   */\n      add\n        /* \"#utility.yul\":14898:14904   */\n      dup5\n        /* \"#utility.yul\":14803:14925   */\n      tag_219\n      jump\t// in\n    tag_426:\n        /* \"#utility.yul\":14608:14932   */\n      swap3\n      swap2\n      pop\n      pop\n      jump\t// out\n        /* \"#utility.yul\":14938:15035   */\n    tag_220:\n        /* \"#utility.yul\":14997:15003   */\n      0x00\n        /* \"#utility.yul\":15025:15028   */\n      dup3\n        /* \"#utility.yul\":15015:15028   */\n      swap1\n      pop\n        /* \"#utility.yul\":14938:15035   */\n      swap3\n      swap2\n      pop\n      pop\n      jump\t// out\n        /* \"#utility.yul\":15041:15221   */\n    tag_221:\n        /* \"#utility.yul\":15089:15166   */\n      0x4e487b7100000000000000000000000000000000000000000000000000000000\n        /* \"#utility.yul\":15086:15087   */\n      0x00\n        /* \"#utility.yul\":15079:15167   */\n      mstore\n        /* \"#utility.yul\":15186:15190   */\n      0x22\n        /* \"#utility.yul\":15183:15184   */\n      0x04\n        /* \"#utility.yul\":15176:15191   */\n      mstore\n        /* \"#utility.yul\":15210:15214   */\n      0x24\n        /* \"#utility.yul\":15207:15208   */\n      0x00\n        /* \"#utility.yul\":15200:15215   */\n      revert\n        /* \"#utility.yul\":15227:15547   */\n    tag_114:\n        /* \"#utility.yul\":15271:15277   */\n      0x00\n        /* \"#utility.yul\":15308:15309   */\n      0x02\n        /* \"#utility.yul\":15302:15306   */\n      dup3\n        /* \"#utility.yul\":15298:15310   */\n      div\n        /* \"#utility.yul\":15288:15310   */\n      swap1\n      pop\n        /* \"#utility.yul\":15355:15356   */\n      0x01\n        /* \"#utility.yul\":15349:15353   */\n      dup3\n        /* \"#utility.yul\":15345:15357   */\n      and\n        /* \"#utility.yul\":15376:15394   */\n      dup1\n        /* \"#utility.yul\":15366:15447   */\n      tag_430\n      jumpi\n        /* \"#utility.yul\":15432:15436   */\n      0x7f\n        /* \"#utility.yul\":15424:15430   */\n      dup3\n        /* \"#utility.yul\":15420:15437   */\n      and\n        /* \"#utility.yul\":15410:15437   */\n      swap2\n      pop\n        /* \"#utility.yul\":15366:15447   */\n    tag_430:\n        /* \"#utility.yul\":15494:15496   */\n      0x20\n        /* \"#utility.yul\":15486:15492   */\n      dup3\n        /* \"#utility.yul\":15483:15497   */\n      lt\n        /* \"#utility.yul\":15463:15481   */\n      dup2\n        /* \"#utility.yul\":15460:15498   */\n      sub\n        /* \"#utility.yul\":15457:15541   */\n      tag_431\n      jumpi\n        /* \"#utility.yul\":15513:15531   */\n      tag_432\n      tag_221\n      jump\t// in\n    tag_432:\n        /* \"#utility.yul\":15457:15541   */\n    tag_431:\n        /* \"#utility.yul\":15278:15547   */\n      pop\n        /* \"#utility.yul\":15227:15547   */\n      swap2\n      swap1\n      pop\n      jump\t// out\n        /* \"#utility.yul\":15553:15694   */\n    tag_222:\n        /* \"#utility.yul\":15602:15606   */\n      0x00\n        /* \"#utility.yul\":15625:15628   */\n      dup2\n        /* \"#utility.yul\":15617:15628   */\n      swap1\n      pop\n        /* \"#utility.yul\":15648:15651   */\n      dup2\n        /* \"#utility.yul\":15645:15646   */\n      0x00\n        /* \"#utility.yul\":15638:15652   */\n      mstore\n        /* \"#utility.yul\":15682:15686   */\n      0x20\n        /* \"#utility.yul\":15679:15680   */\n      0x00\n        /* \"#utility.yul\":15669:15687   */\n      keccak256\n        /* \"#utility.yul\":15661:15687   */\n      swap1\n      pop\n        /* \"#utility.yul\":15553:15694   */\n      swap2\n      swap1\n      pop\n      jump\t// out\n        /* \"#utility.yul\":15700:15793   */\n    tag_223:\n        /* \"#utility.yul\":15737:15743   */\n      0x00\n        /* \"#utility.yul\":15784:15786   */\n      0x20\n        /* \"#utility.yul\":15779:15781   */\n      0x1f\n        /* \"#utility.yul\":15772:15777   */\n      dup4\n        /* \"#utility.yul\":15768:15782   */\n      add\n        /* \"#utility.yul\":15764:15787   */\n      div\n        /* \"#utility.yul\":15754:15787   */\n      swap1\n      pop\n        /* \"#utility.yul\":15700:15793   */\n      swap2\n      swap1\n      pop\n      jump\t// out\n        /* \"#utility.yul\":15799:15906   */\n    tag_224:\n        /* \"#utility.yul\":15843:15851   */\n      0x00\n        /* \"#utility.yul\":15893:15898   */\n      dup3\n        /* \"#utility.yul\":15887:15891   */\n      dup3\n        /* \"#utility.yul\":15883:15899   */\n      shl\n        /* \"#utility.yul\":15862:15899   */\n      swap1\n      pop\n        /* \"#utility.yul\":15799:15906   */\n      swap3\n      swap2\n      pop\n      pop\n      jump\t// out\n        /* \"#utility.yul\":15912:16305   */\n    tag_225:\n        /* \"#utility.yul\":15981:15987   */\n      0x00\n        /* \"#utility.yul\":16031:16032   */\n      0x08\n        /* \"#utility.yul\":16019:16029   */\n      dup4\n        /* \"#utility.yul\":16015:16033   */\n      mul\n        /* \"#utility.yul\":16054:16151   */\n      tag_437\n        /* \"#utility.yul\":16084:16150   */\n      0xffffffffffffffffffffffffffffffffffffffffffffffffffffffffffffffff\n        /* \"#utility.yul\":16073:16082   */\n      dup3\n        /* \"#utility.yul\":16054:16151   */\n      tag_224\n      jump\t// in\n    tag_437:\n        /* \"#utility.yul\":16172:16211   */\n      tag_438\n        /* \"#utility.yul\":16202:16210   */\n      dup7\n        /* \"#utility.yul\":16191:16200   */\n      dup4\n        /* \"#utility.yul\":16172:16211   */\n      tag_224\n      jump\t// in\n    tag_438:\n        /* \"#utility.yul\":16160:16211   */\n      swap6\n      pop\n        /* \"#utility.yul\":16244:16248   */\n      dup1\n        /* \"#utility.yul\":16240:16249   */\n      not\n        /* \"#utility.yul\":16233:16238   */\n      dup5\n        /* \"#utility.yul\":16229:16250   */\n      and\n        /* \"#utility.yul\":16220:16250   */\n      swap4\n      pop\n        /* \"#utility.yul\":16293:16297   */\n      dup1\n        /* \"#utility.yul\":16283:16291   */\n      dup7\n        /* \"#utility.yul\":16279:16298   */\n      and\n        /* \"#utility.yul\":16272:16277   */\n      dup5\n        /* \"#utility.yul\":16269:16299   */\n      or\n        /* \"#utility.yul\":16259:16299   */\n      swap3\n      pop\n        /* \"#utility.yul\":15988:16305   */\n      pop\n      pop\n        /* \"#utility.yul\":15912:16305   */\n      swap4\n      swap3\n      pop\n      pop\n      pop\n      jump\t// out\n        /* \"#utility.yul\":16311:16371   */\n    tag_226:\n        /* \"#utility.yul\":16339:16342   */\n      0x00\n        /* \"#utility.yul\":16360:16365   */\n      dup2\n        /* \"#utility.yul\":16353:16365   */\n      swap1\n      pop\n        /* \"#utility.yul\":16311:16371   */\n      swap2\n      swap1\n      pop\n      jump\t// out\n        /* \"#utility.yul\":16377:16519   */\n    tag_227:\n        /* \"#utility.yul\":16427:16436   */\n      0x00\n        /* \"#utility.yul\":16460:16513   */\n      tag_441\n        /* \"#utility.yul\":16478:16512   */\n      tag_442\n        /* \"#utility.yul\":16487:16511   */\n      tag_443\n        /* \"#utility.yul\":16505:16510   */\n      dup5\n        /* \"#utility.yul\":16487:16511   */\n      tag_185\n      jump\t// in\n    tag_443:\n        /* \"#utility.yul\":16478:16512   */\n      tag_226\n      jump\t// in\n    tag_442:\n        /* \"#utility.yul\":16460:16513   */\n      tag_185\n      jump\t// in\n    tag_441:\n        /* \"#utility.yul\":16447:16513   */\n      swap1\n      pop\n        /* \"#utility.yul\":16377:16519   */\n      swap2\n      swap1\n      pop\n      jump\t// out\n        /* \"#utility.yul\":16525:16600   */\n    tag_228:\n        /* \"#utility.yul\":16568:16571   */\n      0x00\n        /* \"#utility.yul\":16589:16594   */\n      dup2\n        /* \"#utility.yul\":16582:16594   */\n      swap1\n      pop\n        /* \"#utility.yul\":16525:16600   */\n      swap2\n      swap1\n      pop\n      jump\t// out\n        /* \"#utility.yul\":16606:16875   */\n    tag_229:\n        /* \"#utility.yul\":16716:16755   */\n      tag_446\n        /* \"#utility.yul\":16747:16754   */\n      dup4\n        /* \"#utility.yul\":16716:16755   */\n      tag_227\n      jump\t// in\n    tag_446:\n        /* \"#utility.yul\":16777:16868   */\n      tag_447\n        /* \"#utility.yul\":16826:16867   */\n      tag_448\n        /* \"#utility.yul\":16850:16866   */\n      dup3\n        /* \"#utility.yul\":16826:16867   */\n      tag_228\n      jump\t// in\n    tag_448:\n        /* \"#utility.yul\":16818:16824   */\n      dup5\n        /* \"#utility.yul\":16811:16815   */\n      dup5\n        /* \"#utility.yul\":16805:16816   */\n      sload\n        /* \"#utility.yul\":16777:16868   */\n      tag_225\n      jump\t// in\n    tag_447:\n        /* \"#utility.yul\":16771:16775   */\n      dup3\n        /* \"#utility.yul\":16764:16869   */\n      sstore\n        /* \"#utility.yul\":16682:16875   */\n      pop\n        /* \"#utility.yul\":16606:16875   */\n      pop\n      pop\n      pop\n      jump\t// out\n        /* \"#utility.yul\":16881:16954   */\n    tag_230:\n        /* \"#utility.yul\":16926:16929   */\n      0x00\n        /* \"#utility.yul\":16881:16954   */\n      swap1\n      jump\t// out\n        /* \"#utility.yul\":16960:17149   */\n    tag_231:\n        /* \"#utility.yul\":17037:17069   */\n      tag_451\n      tag_230\n      jump\t// in\n    tag_451:\n        /* \"#utility.yul\":17078:17143   */\n      tag_452\n        /* \"#utility.yul\":17136:17142   */\n      dup2\n        /* \"#utility.yul\":17128:17134   */\n      dup5\n        /* \"#utility.yul\":17122:17126   */\n      dup5\n        /* \"#utility.yul\":17078:17143   */\n      tag_229\n      jump\t// in\n    tag_452:\n        /* \"#utility.yul\":17013:17149   */\n      pop\n        /* \"#utility.yul\":16960:17149   */\n      pop\n      pop\n      jump\t// out\n        /* \"#utility.yul\":17155:17341   */\n    tag_232:\n        /* \"#utility.yul\":17215:17335   */\n    tag_454:\n        /* \"#utility.yul\":17232:17235   */\n      dup2\n        /* \"#utility.yul\":17225:17230   */\n      dup2\n        /* \"#utility.yul\":17222:17236   */\n      lt\n        /* \"#utility.yul\":17215:17335   */\n      iszero\n      tag_456\n      jumpi\n        /* \"#utility.yul\":17286:17325   */\n      tag_457\n        /* \"#utility.yul\":17323:17324   */\n      0x00\n        /* \"#utility.yul\":17316:17321   */\n      dup3\n        /* \"#utility.yul\":17286:17325   */\n      tag_231\n      jump\t// in\n    tag_457:\n        /* \"#utility.yul\":17259:17260   */\n      0x01\n        /* \"#utility.yul\":17252:17257   */\n      dup2\n        /* \"#utility.yul\":17248:17261   */\n      add\n        /* \"#utility.yul\":17239:17261   */\n      swap1\n      pop\n        /* \"#utility.yul\":17215:17335   */\n      jump(tag_454)\n    tag_456:\n        /* \"#utility.yul\":17155:17341   */\n      pop\n      pop\n      jump\t// out\n        /* \"#utility.yul\":17347:17890   */\n    tag_233:\n        /* \"#utility.yul\":17448:17450   */\n      0x1f\n        /* \"#utility.yul\":17443:17446   */\n      dup3\n        /* \"#utility.yul\":17440:17451   */\n      gt\n        /* \"#utility.yul\":17437:17883   */\n      iszero\n      tag_459\n      jumpi\n        /* \"#utility.yul\":17482:17520   */\n      tag_460\n        /* \"#utility.yul\":17514:17519   */\n      dup2\n        /* \"#utility.yul\":17482:17520   */\n      tag_222\n      jump\t// in\n    tag_460:\n        /* \"#utility.yul\":17566:17595   */\n      tag_461\n        /* \"#utility.yul\":17584:17594   */\n      dup5\n        /* \"#utility.yul\":17566:17595   */\n      tag_223\n      jump\t// in\n    tag_461:\n        /* \"#utility.yul\":17556:17564   */\n      dup2\n        /* \"#utility.yul\":17552:17596   */\n      add\n        /* \"#utility.yul\":17749:17751   */\n      0x20\n        /* \"#utility.yul\":17737:17747   */\n      dup6\n        /* \"#utility.yul\":17734:17752   */\n      lt\n        /* \"#utility.yul\":17731:17780   */\n      iszero\n      tag_462\n      jumpi\n        /* \"#utility.yul\":17770:17778   */\n      dup2\n        /* \"#utility.yul\":17755:17778   */\n      swap1\n      pop\n        /* \"#utility.yul\":17731:17780   */\n    tag_462:\n        /* \"#utility.yul\":17793:17873   */\n      tag_463\n        /* \"#utility.yul\":17849:17871   */\n      tag_464\n        /* \"#utility.yul\":17867:17870   */\n      dup6\n        /* \"#utility.yul\":17849:17871   */\n      tag_223\n      jump\t// in\n    tag_464:\n        /* \"#utility.yul\":17839:17847   */\n      dup4\n        /* \"#utility.yul\":17835:17872   */\n      add\n        /* \"#utility.yul\":17822:17833   */\n      dup3\n        /* \"#utility.yul\":17793:17873   */\n      tag_232\n      jump\t// in\n    tag_463:\n        /* \"#utility.yul\":17452:17883   */\n      pop\n      pop\n        /* \"#utility.yul\":17437:17883   */\n    tag_459:\n        /* \"#utility.yul\":17347:17890   */\n      pop\n      pop\n      pop\n      jump\t// out\n        /* \"#utility.yul\":17896:18013   */\n    tag_234:\n        /* \"#utility.yul\":17950:17958   */\n      0x00\n        /* \"#utility.yul\":18000:18005   */\n      dup3\n        /* \"#utility.yul\":17994:17998   */\n      dup3\n        /* \"#utility.yul\":17990:18006   */\n      shr\n        /* \"#utility.yul\":17969:18006   */\n      swap1\n      pop\n        /* \"#utility.yul\":17896:18013   */\n      swap3\n      swap2\n      pop\n      pop\n      jump\t// out\n        /* \"#utility.yul\":18019:18188   */\n    tag_235:\n        /* \"#utility.yul\":18063:18069   */\n      0x00\n        /* \"#utility.yul\":18096:18147   */\n      tag_467\n        /* \"#utility.yul\":18144:18145   */\n      0x00\n        /* \"#utility.yul\":18140:18146   */\n      not\n        /* \"#utility.yul\":18132:18137   */\n      dup5\n        /* \"#utility.yul\":18129:18130   */\n      0x08\n        /* \"#utility.yul\":18125:18138   */\n      mul\n        /* \"#utility.yul\":18096:18147   */\n      tag_234\n      jump\t// in\n    tag_467:\n        /* \"#utility.yul\":18092:18148   */\n      not\n        /* \"#utility.yul\":18177:18181   */\n      dup1\n        /* \"#utility.yul\":18171:18175   */\n      dup4\n        /* \"#utility.yul\":18167:18182   */\n      and\n        /* \"#utility.yul\":18157:18182   */\n      swap2\n      pop\n        /* \"#utility.yul\":18070:18188   */\n      pop\n        /* \"#utility.yul\":18019:18188   */\n      swap3\n      swap2\n      pop\n      pop\n      jump\t// out\n        /* \"#utility.yul\":18193:18488   */\n    tag_236:\n        /* \"#utility.yul\":18269:18273   */\n      0x00\n        /* \"#utility.yul\":18415:18444   */\n      tag_469\n        /* \"#utility.yul\":18440:18443   */\n      dup4\n        /* \"#utility.yul\":18434:18438   */\n      dup4\n        /* \"#utility.yul\":18415:18444   */\n      tag_235\n      jump\t// in\n    tag_469:\n        /* \"#utility.yul\":18407:18444   */\n      swap2\n      pop\n        /* \"#utility.yul\":18477:18480   */\n      dup3\n        /* \"#utility.yul\":18474:18475   */\n      0x02\n        /* \"#utility.yul\":18470:18481   */\n      mul\n        /* \"#utility.yul\":18464:18468   */\n      dup3\n        /* \"#utility.yul\":18461:18482   */\n      or\n        /* \"#utility.yul\":18453:18482   */\n      swap1\n      pop\n        /* \"#utility.yul\":18193:18488   */\n      swap3\n      swap2\n      pop\n      pop\n      jump\t// out\n        /* \"#utility.yul\":18493:19896   */\n    tag_70:\n        /* \"#utility.yul\":18617:18661   */\n      tag_471\n        /* \"#utility.yul\":18657:18660   */\n      dup4\n        /* \"#utility.yul\":18652:18655   */\n      dup4\n        /* \"#utility.yul\":18617:18661   */\n      tag_220\n      jump\t// in\n    tag_471:\n        /* \"#utility.yul\":18726:18744   */\n      0xffffffffffffffff\n        /* \"#utility.yul\":18718:18724   */\n      dup2\n        /* \"#utility.yul\":18715:18745   */\n      gt\n        /* \"#utility.yul\":18712:18768   */\n      iszero\n      tag_472\n      jumpi\n        /* \"#utility.yul\":18748:18766   */\n      tag_473\n      tag_161\n      jump\t// in\n    tag_473:\n        /* \"#utility.yul\":18712:18768   */\n    tag_472:\n        /* \"#utility.yul\":18792:18830   */\n      tag_474\n        /* \"#utility.yul\":18824:18828   */\n      dup3\n        /* \"#utility.yul\":18818:18829   */\n      sload\n        /* \"#utility.yul\":18792:18830   */\n      tag_114\n      jump\t// in\n    tag_474:\n        /* \"#utility.yul\":18877:18944   */\n      tag_475\n        /* \"#utility.yul\":18937:18943   */\n      dup3\n        /* \"#utility.yul\":18929:18935   */\n      dup3\n        /* \"#utility.yul\":18923:18927   */\n      dup6\n        /* \"#utility.yul\":18877:18944   */\n      tag_233\n      jump\t// in\n    tag_475:\n        /* \"#utility.yul\":18971:18972   */\n      0x00\n        /* \"#utility.yul\":19000:19002   */\n      0x1f\n        /* \"#utility.yul\":18992:18998   */\n      dup4\n        /* \"#utility.yul\":18989:19003   */\n      gt\n        /* \"#utility.yul\":19017:19018   */\n      0x01\n        /* \"#utility.yul\":19012:19644   */\n      dup2\n      eq\n      tag_477\n      jumpi\n        /* \"#utility.yul\":19688:19689   */\n      0x00\n        /* \"#utility.yul\":19705:19711   */\n      dup5\n        /* \"#utility.yul\":19702:19786   */\n      iszero\n      tag_478\n      jumpi\n        /* \"#utility.yul\":19761:19770   */\n      dup3\n        /* \"#utility.yul\":19756:19759   */\n      dup8\n        /* \"#utility.yul\":19752:19771   */\n      add\n        /* \"#utility.yul\":19739:19772   */\n      calldataload\n        /* \"#utility.yul\":19730:19772   */\n      swap1\n      pop\n        /* \"#utility.yul\":19702:19786   */\n    tag_478:\n        /* \"#utility.yul\":19812:19879   */\n      tag_479\n        /* \"#utility.yul\":19872:19878   */\n      dup6\n        /* \"#utility.yul\":19865:19870   */\n      dup3\n        /* \"#utility.yul\":19812:19879   */\n      tag_236\n      jump\t// in\n    tag_479:\n        /* \"#utility.yul\":19806:19810   */\n      dup7\n        /* \"#utility.yul\":19799:19880   */\n      sstore\n        /* \"#utility.yul\":19661:19890   */\n      pop\n        /* \"#utility.yul\":18982:19890   */\n      jump(tag_476)\n        /* \"#utility.yul\":19012:19644   */\n    tag_477:\n        /* \"#utility.yul\":19064:19068   */\n      0x1f\n        /* \"#utility.yul\":19060:19069   */\n      not\n        /* \"#utility.yul\":19052:19058   */\n      dup5\n        /* \"#utility.yul\":19048:19070   */\n      and\n        /* \"#utility.yul\":19098:19135   */\n      tag_480\n        /* \"#utility.yul\":19130:19134   */\n      dup7\n        /* \"#utility.yul\":19098:19135   */\n      tag_222\n      jump\t// in\n    tag_480:\n        /* \"#utility.yul\":19157:19158   */\n      0x00\n        /* \"#utility.yul\":19171:19386   */\n    tag_481:\n        /* \"#utility.yul\":19185:19192   */\n      dup3\n        /* \"#utility.yul\":19182:19183   */\n      dup2\n        /* \"#utility.yul\":19179:19193   */\n      lt\n        /* \"#utility.yul\":19171:19386   */\n      iszero\n      tag_483\n      jumpi\n        /* \"#utility.yul\":19271:19280   */\n      dup5\n        /* \"#utility.yul\":19266:19269   */\n      dup10\n        /* \"#utility.yul\":19262:19281   */\n      add\n        /* \"#utility.yul\":19249:19282   */\n      calldataload\n        /* \"#utility.yul\":19241:19247   */\n      dup3\n        /* \"#utility.yul\":19234:19283   */\n      sstore\n        /* \"#utility.yul\":19322:19323   */\n      0x01\n        /* \"#utility.yul\":19314:19320   */\n      dup3\n        /* \"#utility.yul\":19310:19324   */\n      add\n        /* \"#utility.yul\":19300:19324   */\n      swap2\n      pop\n        /* \"#utility.yul\":19369:19371   */\n      0x20\n        /* \"#utility.yul\":19358:19367   */\n      dup6\n        /* \"#utility.yul\":19354:19372   */\n      add\n        /* \"#utility.yul\":19341:19372   */\n      swap5\n      pop\n        /* \"#utility.yul\":19208:19212   */\n      0x20\n        /* \"#utility.yul\":19205:19206   */\n      dup2\n        /* \"#utility.yul\":19201:19213   */\n      add\n        /* \"#utility.yul\":19196:19213   */\n      swap1\n      pop\n        /* \"#utility.yul\":19171:19386   */\n      jump(tag_481)\n    tag_483:\n        /* \"#utility.yul\":19414:19420   */\n      dup7\n        /* \"#utility.yul\":19405:19412   */\n      dup4\n        /* \"#utility.yul\":19402:19421   */\n      lt\n        /* \"#utility.yul\":19399:19585   */\n      iszero\n      tag_484\n      jumpi\n        /* \"#utility.yul\":19479:19488   */\n      dup5\n        /* \"#utility.yul\":19474:19477   */\n      dup10\n        /* \"#utility.yul\":19470:19489   */\n      add\n        /* \"#utility.yul\":19457:19490   */\n      calldataload\n        /* \"#utility.yul\":19522:19570   */\n      tag_485\n        /* \"#utility.yul\":19564:19568   */\n      0x1f\n        /* \"#utility.yul\":19556:19562   */\n      dup10\n        /* \"#utility.yul\":19552:19569   */\n      and\n        /* \"#utility.yul\":19541:19550   */\n      dup3\n        /* \"#utility.yul\":19522:19570   */\n      tag_235\n      jump\t// in\n    tag_485:\n        /* \"#utility.yul\":19514:19520   */\n      dup4\n        /* \"#utility.yul\":19507:19571   */\n      sstore\n        /* \"#utility.yul\":19422:19585   */\n      pop\n        /* \"#utility.yul\":19399:19585   */\n    tag_484:\n        /* \"#utility.yul\":19631:19632   */\n      0x01\n        /* \"#utility.yul\":19627:19628   */\n      0x02\n        /* \"#utility.yul\":19619:19625   */\n      dup9\n        /* \"#utility.yul\":19615:19629   */\n      mul\n        /* \"#utility.yul\":19611:19633   */\n      add\n        /* \"#utility.yul\":19605:19609   */\n      dup9\n        /* \"#utility.yul\":19598:19634   */\n      sstore\n        /* \"#utility.yul\":19019:19644   */\n      pop\n      pop\n      pop\n        /* \"#utility.yul\":18982:19890   */\n    tag_476:\n      pop\n        /* \"#utility.yul\":18592:19896   */\n      pop\n      pop\n      pop\n        /* \"#utility.yul\":18493:19896   */\n      pop\n      pop\n      pop\n      jump\t// out\n        /* \"#utility.yul\":19926:20243   */\n    tag_237:\n        /* \"#utility.yul\":20024:20027   */\n      0x00\n        /* \"#utility.yul\":20045:20116   */\n      tag_487\n        /* \"#utility.yul\":20109:20115   */\n      dup4\n        /* \"#utility.yul\":20104:20107   */\n      dup6\n        /* \"#utility.yul\":20045:20116   */\n      tag_192\n      jump\t// in\n    tag_487:\n        /* \"#utility.yul\":20038:20116   */\n      swap4\n      pop\n        /* \"#utility.yul\":20126:20182   */\n      tag_488\n        /* \"#utility.yul\":20175:20181   */\n      dup4\n        /* \"#utility.yul\":20170:20173   */\n      dup6\n        /* \"#utility.yul\":20163:20168   */\n      dup5\n        /* \"#utility.yul\":20126:20182   */\n      tag_200\n      jump\t// in\n    tag_488:\n        /* \"#utility.yul\":20207:20236   */\n      tag_489\n        /* \"#utility.yul\":20229:20235   */\n      dup4\n        /* \"#utility.yul\":20207:20236   */\n      tag_194\n      jump\t// in\n    tag_489:\n        /* \"#utility.yul\":20202:20205   */\n      dup5\n        /* \"#utility.yul\":20198:20237   */\n      add\n        /* \"#utility.yul\":20191:20237   */\n      swap1\n      pop\n        /* \"#utility.yul\":19926:20243   */\n      swap4\n      swap3\n      pop\n      pop\n      pop\n      jump\t// out\n        /* \"#utility.yul\":20249:20582   */\n    tag_72:\n        /* \"#utility.yul\":20372:20376   */\n      0x00\n        /* \"#utility.yul\":20410:20412   */\n      0x20\n        /* \"#utility.yul\":20399:20408   */\n      dup3\n        /* \"#utility.yul\":20395:20413   */\n      add\n        /* \"#utility.yul\":20387:20413   */\n      swap1\n      pop\n        /* \"#utility.yul\":20459:20468   */\n      dup2\n        /* \"#utility.yul\":20453:20457   */\n      dup2\n        /* \"#utility.yul\":20449:20469   */\n      sub\n        /* \"#utility.yul\":20445:20446   */\n      0x00\n        /* \"#utility.yul\":20434:20443   */\n      dup4\n        /* \"#utility.yul\":20430:20447   */\n      add\n        /* \"#utility.yul\":20423:20470   */\n      mstore\n        /* \"#utility.yul\":20487:20575   */\n      tag_491\n        /* \"#utility.yul\":20570:20574   */\n      dup2\n        /* \"#utility.yul\":20561:20567   */\n      dup5\n        /* \"#utility.yul\":20553:20559   */\n      dup7\n        /* \"#utility.yul\":20487:20575   */\n      tag_237\n      jump\t// in\n    tag_491:\n        /* \"#utility.yul\":20479:20575   */\n      swap1\n      pop\n        /* \"#utility.yul\":20249:20582   */\n      swap4\n      swap3\n      pop\n      pop\n      pop\n      jump\t// out\n        /* \"#utility.yul\":20588:20768   */\n    tag_238:\n        /* \"#utility.yul\":20636:20713   */\n      0x4e487b7100000000000000000000000000000000000000000000000000000000\n        /* \"#utility.yul\":20633:20634   */\n      0x00\n        /* \"#utility.yul\":20626:20714   */\n      mstore\n        /* \"#utility.yul\":20733:20737   */\n      0x11\n        /* \"#utility.yul\":20730:20731   */\n      0x04\n        /* \"#utility.yul\":20723:20738   */\n      mstore\n        /* \"#utility.yul\":20757:20761   */\n      0x24\n        /* \"#utility.yul\":20754:20755   */\n      0x00\n        /* \"#utility.yul\":20747:20762   */\n      revert\n        /* \"#utility.yul\":20774:21007   */\n    tag_75:\n        /* \"#utility.yul\":20813:20816   */\n      0x00\n        /* \"#utility.yul\":20836:20860   */\n      tag_494\n        /* \"#utility.yul\":20854:20859   */\n      dup3\n        /* \"#utility.yul\":20836:20860   */\n      tag_185\n      jump\t// in\n    tag_494:\n        /* \"#utility.yul\":20827:20860   */\n      swap2\n      pop\n        /* \"#utility.yul\":20882:20948   */\n      0xffffffffffffffffffffffffffffffffffffffffffffffffffffffffffffffff\n        /* \"#utility.yul\":20875:20880   */\n      dup3\n        /* \"#utility.yul\":20872:20949   */\n      sub\n        /* \"#utility.yul\":20869:20972   */\n      tag_495\n      jumpi\n        /* \"#utility.yul\":20952:20970   */\n      tag_496\n      tag_238\n      jump\t// in\n    tag_496:\n        /* \"#utility.yul\":20869:20972   */\n    tag_495:\n        /* \"#utility.yul\":20999:21000   */\n      0x01\n        /* \"#utility.yul\":20992:20997   */\n      dup3\n        /* \"#utility.yul\":20988:21001   */\n      add\n        /* \"#utility.yul\":20981:21001   */\n      swap1\n      pop\n        /* \"#utility.yul\":20774:21007   */\n      swap2\n      swap1\n      pop\n      jump\t// out\n        /* \"#utility.yul\":21013:21193   */\n    tag_81:\n        /* \"#utility.yul\":21061:21138   */\n      0x4e487b7100000000000000000000000000000000000000000000000000000000\n        /* \"#utility.yul\":21058:21059   */\n      0x00\n        /* \"#utility.yul\":21051:21139   */\n      mstore\n        /* \"#utility.yul\":21158:21162   */\n      0x32\n        /* \"#utility.yul\":21155:21156   */\n      0x04\n        /* \"#utility.yul\":21148:21163   */\n      mstore\n        /* \"#utility.yul\":21182:21186   */\n      0x24\n        /* \"#utility.yul\":21179:21180   */\n      0x00\n        /* \"#utility.yul\":21172:21187   */\n      revert\n        /* \"#utility.yul\":21199:21316   */\n    tag_239:\n        /* \"#utility.yul\":21308:21309   */\n      0x00\n        /* \"#utility.yul\":21305:21306   */\n      dup1\n        /* \"#utility.yul\":21298:21310   */\n      revert\n        /* \"#utility.yul\":21322:21439   */\n    tag_240:\n        /* \"#utility.yul\":21431:21432   */\n      0x00\n        /* \"#utility.yul\":21428:21429   */\n      dup1\n        /* \"#utility.yul\":21421:21433   */\n      revert\n        /* \"#utility.yul\":21445:21562   */\n    tag_241:\n        /* \"#utility.yul\":21554:21555   */\n      0x00\n        /* \"#utility.yul\":21551:21552   */\n      dup1\n        /* \"#utility.yul\":21544:21556   */\n      revert\n        /* \"#utility.yul\":21568:21965   */\n    tag_83:\n        /* \"#utility.yul\":21665:21669   */\n      0x00\n        /* \"#utility.yul\":21719:21730   */\n      dup3\n        /* \"#utility.yul\":21706:21731   */\n      calldataload\n        /* \"#utility.yul\":21819:21820   */\n      0x01\n        /* \"#utility.yul\":21813:21817   */\n      0xe0\n        /* \"#utility.yul\":21809:21821   */\n      sub\n        /* \"#utility.yul\":21798:21806   */\n      dup4\n        /* \"#utility.yul\":21782:21796   */\n      calldatasize\n        /* \"#utility.yul\":21778:21807   */\n      sub\n        /* \"#utility.yul\":21774:21822   */\n      sub\n        /* \"#utility.yul\":21754:21772   */\n      dup2\n        /* \"#utility.yul\":21750:21823   */\n      slt\n        /* \"#utility.yul\":21740:21908   */\n      tag_502\n      jumpi\n        /* \"#utility.yul\":21827:21906   */\n      tag_503\n      tag_239\n      jump\t// in\n    tag_503:\n        /* \"#utility.yul\":21740:21908   */\n    tag_502:\n        /* \"#utility.yul\":21939:21957   */\n      dup1\n        /* \"#utility.yul\":21929:21937   */\n      dup4\n        /* \"#utility.yul\":21925:21958   */\n      add\n        /* \"#utility.yul\":21917:21958   */\n      swap2\n      pop\n        /* \"#utility.yul\":21670:21965   */\n      pop\n        /* \"#utility.yul\":21568:21965   */\n      swap3\n      swap2\n      pop\n      pop\n      jump\t// out\n        /* \"#utility.yul\":21971:22696   */\n    tag_85:\n        /* \"#utility.yul\":22049:22053   */\n      0x00\n        /* \"#utility.yul\":22055:22061   */\n      dup1\n        /* \"#utility.yul\":22111:22122   */\n      dup4\n        /* \"#utility.yul\":22098:22123   */\n      calldataload\n        /* \"#utility.yul\":22211:22212   */\n      0x01\n        /* \"#utility.yul\":22205:22209   */\n      0x20\n        /* \"#utility.yul\":22201:22213   */\n      sub\n        /* \"#utility.yul\":22190:22198   */\n      dup5\n        /* \"#utility.yul\":22174:22188   */\n      calldatasize\n        /* \"#utility.yul\":22170:22199   */\n      sub\n        /* \"#utility.yul\":22166:22214   */\n      sub\n        /* \"#utility.yul\":22146:22164   */\n      dup2\n        /* \"#utility.yul\":22142:22215   */\n      slt\n        /* \"#utility.yul\":22132:22300   */\n      tag_505\n      jumpi\n        /* \"#utility.yul\":22219:22298   */\n      tag_506\n      tag_239\n      jump\t// in\n    tag_506:\n        /* \"#utility.yul\":22132:22300   */\n    tag_505:\n        /* \"#utility.yul\":22331:22349   */\n      dup1\n        /* \"#utility.yul\":22321:22329   */\n      dup5\n        /* \"#utility.yul\":22317:22350   */\n      add\n        /* \"#utility.yul\":22309:22350   */\n      swap3\n      pop\n        /* \"#utility.yul\":22383:22387   */\n      dup3\n        /* \"#utility.yul\":22370:22388   */\n      calldataload\n        /* \"#utility.yul\":22360:22388   */\n      swap2\n      pop\n        /* \"#utility.yul\":22411:22429   */\n      0xffffffffffffffff\n        /* \"#utility.yul\":22403:22409   */\n      dup3\n        /* \"#utility.yul\":22400:22430   */\n      gt\n        /* \"#utility.yul\":22397:22514   */\n      iszero\n      tag_507\n      jumpi\n        /* \"#utility.yul\":22433:22512   */\n      tag_508\n      tag_240\n      jump\t// in\n    tag_508:\n        /* \"#utility.yul\":22397:22514   */\n    tag_507:\n        /* \"#utility.yul\":22541:22543   */\n      0x20\n        /* \"#utility.yul\":22535:22539   */\n      dup4\n        /* \"#utility.yul\":22531:22544   */\n      add\n        /* \"#utility.yul\":22523:22544   */\n      swap3\n      pop\n        /* \"#utility.yul\":22598:22602   */\n      0x01\n        /* \"#utility.yul\":22590:22596   */\n      dup3\n        /* \"#utility.yul\":22586:22603   */\n      mul\n        /* \"#utility.yul\":22570:22584   */\n      calldatasize\n        /* \"#utility.yul\":22566:22604   */\n      sub\n        /* \"#utility.yul\":22560:22564   */\n      dup4\n        /* \"#utility.yul\":22556:22605   */\n      sgt\n        /* \"#utility.yul\":22553:22689   */\n      iszero\n      tag_509\n      jumpi\n        /* \"#utility.yul\":22608:22687   */\n      tag_510\n      tag_241\n      jump\t// in\n    tag_510:\n        /* \"#utility.yul\":22553:22689   */\n    tag_509:\n        /* \"#utility.yul\":22062:22696   */\n      pop\n        /* \"#utility.yul\":21971:22696   */\n      swap3\n      pop\n      swap3\n      swap1\n      pop\n      jump\t// out\n        /* \"#utility.yul\":22702:22865   */\n    tag_242:\n        /* \"#utility.yul\":22842:22857   */\n      0x4d697373696e6720726f75746500000000000000000000000000000000000000\n        /* \"#utility.yul\":22838:22839   */\n      0x00\n        /* \"#utility.yul\":22830:22836   */\n      dup3\n        /* \"#utility.yul\":22826:22840   */\n      add\n        /* \"#utility.yul\":22819:22858   */\n      mstore\n        /* \"#utility.yul\":22702:22865   */\n      pop\n      jump\t// out\n        /* \"#utility.yul\":22871:23237   */\n    tag_243:\n        /* \"#utility.yul\":23013:23016   */\n      0x00\n        /* \"#utility.yul\":23034:23101   */\n      tag_513\n        /* \"#utility.yul\":23098:23100   */\n      0x0d\n        /* \"#utility.yul\":23093:23096   */\n      dup4\n        /* \"#utility.yul\":23034:23101   */\n      tag_192\n      jump\t// in\n    tag_513:\n        /* \"#utility.yul\":23027:23101   */\n      swap2\n      pop\n        /* \"#utility.yul\":23110:23203   */\n      tag_514\n        /* \"#utility.yul\":23199:23202   */\n      dup3\n        /* \"#utility.yul\":23110:23203   */\n      tag_242\n      jump\t// in\n    tag_514:\n        /* \"#utility.yul\":23228:23230   */\n      0x20\n        /* \"#utility.yul\":23223:23226   */\n      dup3\n        /* \"#utility.yul\":23219:23231   */\n      add\n        /* \"#utility.yul\":23212:23231   */\n      swap1\n      pop\n        /* \"#utility.yul\":22871:23237   */\n      swap2\n      swap1\n      pop\n      jump\t// out\n        /* \"#utility.yul\":23243:23662   */\n    tag_92:\n        /* \"#utility.yul\":23409:23413   */\n      0x00\n        /* \"#utility.yul\":23447:23449   */\n      0x20\n        /* \"#utility.yul\":23436:23445   */\n      dup3\n        /* \"#utility.yul\":23432:23450   */\n      add\n        /* \"#utility.yul\":23424:23450   */\n      swap1\n      pop\n        /* \"#utility.yul\":23496:23505   */\n      dup2\n        /* \"#utility.yul\":23490:23494   */\n      dup2\n        /* \"#utility.yul\":23486:23506   */\n      sub\n        /* \"#utility.yul\":23482:23483   */\n      0x00\n        /* \"#utility.yul\":23471:23480   */\n      dup4\n        /* \"#utility.yul\":23467:23484   */\n      add\n        /* \"#utility.yul\":23460:23507   */\n      mstore\n        /* \"#utility.yul\":23524:23655   */\n      tag_516\n        /* \"#utility.yul\":23650:23654   */\n      dup2\n        /* \"#utility.yul\":23524:23655   */\n      tag_243\n      jump\t// in\n    tag_516:\n        /* \"#utility.yul\":23516:23655   */\n      swap1\n      pop\n        /* \"#utility.yul\":23243:23662   */\n      swap2\n      swap1\n      pop\n      jump\t// out\n        /* \"#utility.yul\":23668:24078   */\n    tag_98:\n        /* \"#utility.yul\":23708:23715   */\n      0x00\n        /* \"#utility.yul\":23731:23751   */\n      tag_518\n        /* \"#utility.yul\":23749:23750   */\n      dup3\n        /* \"#utility.yul\":23731:23751   */\n      tag_185\n      jump\t// in\n    tag_518:\n        /* \"#utility.yul\":23726:23751   */\n      swap2\n      pop\n        /* \"#utility.yul\":23765:23785   */\n      tag_519\n        /* \"#utility.yul\":23783:23784   */\n      dup4\n        /* \"#utility.yul\":23765:23785   */\n      tag_185\n      jump\t// in\n    tag_519:\n        /* \"#utility.yul\":23760:23785   */\n      swap3\n      pop\n        /* \"#utility.yul\":23820:23821   */\n      dup3\n        /* \"#utility.yul\":23817:23818   */\n      dup3\n        /* \"#utility.yul\":23813:23822   */\n      mul\n        /* \"#utility.yul\":23842:23872   */\n      tag_520\n        /* \"#utility.yul\":23860:23871   */\n      dup2\n        /* \"#utility.yul\":23842:23872   */\n      tag_185\n      jump\t// in\n    tag_520:\n        /* \"#utility.yul\":23831:23872   */\n      swap2\n      pop\n        /* \"#utility.yul\":24021:24022   */\n      dup3\n        /* \"#utility.yul\":24012:24019   */\n      dup3\n        /* \"#utility.yul\":24008:24023   */\n      div\n        /* \"#utility.yul\":24005:24006   */\n      dup5\n        /* \"#utility.yul\":24002:24024   */\n      eq\n        /* \"#utility.yul\":23982:23983   */\n      dup4\n        /* \"#utility.yul\":23975:23984   */\n      iszero\n        /* \"#utility.yul\":23955:24038   */\n      or\n        /* \"#utility.yul\":23932:24071   */\n      tag_521\n      jumpi\n        /* \"#utility.yul\":24051:24069   */\n      tag_522\n      tag_238\n      jump\t// in\n    tag_522:\n        /* \"#utility.yul\":23932:24071   */\n    tag_521:\n        /* \"#utility.yul\":23716:24078   */\n      pop\n        /* \"#utility.yul\":23668:24078   */\n      swap3\n      swap2\n      pop\n      pop\n      jump\t// out\n        /* \"#utility.yul\":24084:24264   */\n    tag_244:\n        /* \"#utility.yul\":24132:24209   */\n      0x4e487b7100000000000000000000000000000000000000000000000000000000\n        /* \"#utility.yul\":24129:24130   */\n      0x00\n        /* \"#utility.yul\":24122:24210   */\n      mstore\n        /* \"#utility.yul\":24229:24233   */\n      0x12\n        /* \"#utility.yul\":24226:24227   */\n      0x04\n        /* \"#utility.yul\":24219:24234   */\n      mstore\n        /* \"#utility.yul\":24253:24257   */\n      0x24\n        /* \"#utility.yul\":24250:24251   */\n      0x00\n        /* \"#utility.yul\":24243:24258   */\n      revert\n        /* \"#utility.yul\":24270:24455   */\n    tag_101:\n        /* \"#utility.yul\":24310:24311   */\n      0x00\n        /* \"#utility.yul\":24327:24347   */\n      tag_525\n        /* \"#utility.yul\":24345:24346   */\n      dup3\n        /* \"#utility.yul\":24327:24347   */\n      tag_185\n      jump\t// in\n    tag_525:\n        /* \"#utility.yul\":24322:24347   */\n      swap2\n      pop\n        /* \"#utility.yul\":24361:24381   */\n      tag_526\n        /* \"#utility.yul\":24379:24380   */\n      dup4\n        /* \"#utility.yul\":24361:24381   */\n      tag_185\n      jump\t// in\n    tag_526:\n        /* \"#utility.yul\":24356:24381   */\n      swap3\n      pop\n        /* \"#utility.yul\":24400:24401   */\n      dup3\n        /* \"#utility.yul\":24390:24425   */\n      tag_527\n      jumpi\n        /* \"#utility.yul\":24405:24423   */\n      tag_528\n      tag_244\n      jump\t// in\n    tag_528:\n        /* \"#utility.yul\":24390:24425   */\n    tag_527:\n        /* \"#utility.yul\":24447:24448   */\n      dup3\n        /* \"#utility.yul\":24444:24445   */\n      dup3\n        /* \"#utility.yul\":24440:24449   */\n      div\n        /* \"#utility.yul\":24435:24449   */\n      swap1\n      pop\n        /* \"#utility.yul\":24270:24455   */\n      swap3\n      swap2\n      pop\n      pop\n      jump\t// out\n        /* \"#utility.yul\":24461:24655   */\n    tag_107:\n        /* \"#utility.yul\":24501:24505   */\n      0x00\n        /* \"#utility.yul\":24521:24541   */\n      tag_530\n        /* \"#utility.yul\":24539:24540   */\n      dup3\n        /* \"#utility.yul\":24521:24541   */\n      tag_185\n      jump\t// in\n    tag_530:\n        /* \"#utility.yul\":24516:24541   */\n      swap2\n      pop\n        /* \"#utility.yul\":24555:24575   */\n      tag_531\n        /* \"#utility.yul\":24573:24574   */\n      dup4\n        /* \"#utility.yul\":24555:24575   */\n      tag_185\n      jump\t// in\n    tag_531:\n        /* \"#utility.yul\":24550:24575   */\n      swap3\n      pop\n        /* \"#utility.yul\":24599:24600   */\n      dup3\n        /* \"#utility.yul\":24596:24597   */\n      dup3\n        /* \"#utility.yul\":24592:24601   */\n      sub\n        /* \"#utility.yul\":24584:24601   */\n      swap1\n      pop\n        /* \"#utility.yul\":24623:24624   */\n      dup2\n        /* \"#utility.yul\":24617:24621   */\n      dup2\n        /* \"#utility.yul\":24614:24625   */\n      gt\n        /* \"#utility.yul\":24611:24648   */\n      iszero\n      tag_532\n      jumpi\n        /* \"#utility.yul\":24628:24646   */\n      tag_533\n      tag_238\n      jump\t// in\n    tag_533:\n        /* \"#utility.yul\":24611:24648   */\n    tag_532:\n        /* \"#utility.yul\":24461:24655   */\n      swap3\n      swap2\n      pop\n      pop\n      jump\t// out\n        /* \"#utility.yul\":24661:24759   */\n    tag_245:\n        /* \"#utility.yul\":24712:24718   */\n      0x00\n        /* \"#utility.yul\":24746:24751   */\n      dup2\n        /* \"#utility.yul\":24740:24752   */\n      mload\n        /* \"#utility.yul\":24730:24752   */\n      swap1\n      pop\n        /* \"#utility.yul\":24661:24759   */\n      swap2\n      swap1\n      pop\n      jump\t// out\n        /* \"#utility.yul\":24765:24923   */\n    tag_246:\n        /* \"#utility.yul\":24838:24849   */\n      0x00\n        /* \"#utility.yul\":24872:24878   */\n      dup3\n        /* \"#utility.yul\":24867:24870   */\n      dup3\n        /* \"#utility.yul\":24860:24879   */\n      mstore\n        /* \"#utility.yul\":24912:24916   */\n      0x20\n        /* \"#utility.yul\":24907:24910   */\n      dup3\n        /* \"#utility.yul\":24903:24917   */\n      add\n        /* \"#utility.yul\":24888:24917   */\n      swap1\n      pop\n        /* \"#utility.yul\":24765:24923   */\n      swap3\n      swap2\n      pop\n      pop\n      jump\t// out\n        /* \"#utility.yul\":24929:25282   */\n    tag_247:\n        /* \"#utility.yul\":25005:25008   */\n      0x00\n        /* \"#utility.yul\":25033:25071   */\n      tag_537\n        /* \"#utility.yul\":25065:25070   */\n      dup3\n        /* \"#utility.yul\":25033:25071   */\n      tag_245\n      jump\t// in\n    tag_537:\n        /* \"#utility.yul\":25087:25147   */\n      tag_538\n        /* \"#utility.yul\":25140:25146   */\n      dup2\n        /* \"#utility.yul\":25135:25138   */\n      dup6\n        /* \"#utility.yul\":25087:25147   */\n      tag_246\n      jump\t// in\n    tag_538:\n        /* \"#utility.yul\":25080:25147   */\n      swap4\n      pop\n        /* \"#utility.yul\":25156:25221   */\n      tag_539\n        /* \"#utility.yul\":25214:25220   */\n      dup2\n        /* \"#utility.yul\":25209:25212   */\n      dup6\n        /* \"#utility.yul\":25202:25206   */\n      0x20\n        /* \"#utility.yul\":25195:25200   */\n      dup7\n        /* \"#utility.yul\":25191:25207   */\n      add\n        /* \"#utility.yul\":25156:25221   */\n      tag_193\n      jump\t// in\n    tag_539:\n        /* \"#utility.yul\":25246:25275   */\n      tag_540\n        /* \"#utility.yul\":25268:25274   */\n      dup2\n        /* \"#utility.yul\":25246:25275   */\n      tag_194\n      jump\t// in\n    tag_540:\n        /* \"#utility.yul\":25241:25244   */\n      dup5\n        /* \"#utility.yul\":25237:25276   */\n      add\n        /* \"#utility.yul\":25230:25276   */\n      swap2\n      pop\n        /* \"#utility.yul\":25009:25282   */\n      pop\n        /* \"#utility.yul\":24929:25282   */\n      swap3\n      swap2\n      pop\n      pop\n      jump\t// out\n        /* \"#utility.yul\":25288:25432   */\n    tag_248:\n        /* \"#utility.yul\":25385:25391   */\n      0x00\n        /* \"#utility.yul\":25419:25424   */\n      dup2\n        /* \"#utility.yul\":25413:25425   */\n      mload\n        /* \"#utility.yul\":25403:25425   */\n      swap1\n      pop\n        /* \"#utility.yul\":25288:25432   */\n      swap2\n      swap1\n      pop\n      jump\t// out\n        /* \"#utility.yul\":25438:25642   */\n    tag_249:\n        /* \"#utility.yul\":25557:25568   */\n      0x00\n        /* \"#utility.yul\":25591:25597   */\n      dup3\n        /* \"#utility.yul\":25586:25589   */\n      dup3\n        /* \"#utility.yul\":25579:25598   */\n      mstore\n        /* \"#utility.yul\":25631:25635   */\n      0x20\n        /* \"#utility.yul\":25626:25629   */\n      dup3\n        /* \"#utility.yul\":25622:25636   */\n      add\n        /* \"#utility.yul\":25607:25636   */\n      swap1\n      pop\n        /* \"#utility.yul\":25438:25642   */\n      swap3\n      swap2\n      pop\n      pop\n      jump\t// out\n        /* \"#utility.yul\":25648:25810   */\n    tag_250:\n        /* \"#utility.yul\":25745:25749   */\n      0x00\n        /* \"#utility.yul\":25768:25771   */\n      dup2\n        /* \"#utility.yul\":25760:25771   */\n      swap1\n      pop\n        /* \"#utility.yul\":25798:25802   */\n      0x20\n        /* \"#utility.yul\":25793:25796   */\n      dup3\n        /* \"#utility.yul\":25789:25803   */\n      add\n        /* \"#utility.yul\":25781:25803   */\n      swap1\n      pop\n        /* \"#utility.yul\":25648:25810   */\n      swap2\n      swap1\n      pop\n      jump\t// out\n        /* \"#utility.yul\":25884:26394   */\n    tag_251:\n        /* \"#utility.yul\":26031:26035   */\n      0x40\n        /* \"#utility.yul\":26026:26029   */\n      dup3\n        /* \"#utility.yul\":26022:26036   */\n      add\n        /* \"#utility.yul\":26119:26123   */\n      0x00\n        /* \"#utility.yul\":26112:26117   */\n      dup3\n        /* \"#utility.yul\":26108:26124   */\n      add\n        /* \"#utility.yul\":26102:26125   */\n      mload\n        /* \"#utility.yul\":26138:26201   */\n      tag_545\n        /* \"#utility.yul\":26195:26199   */\n      0x00\n        /* \"#utility.yul\":26190:26193   */\n      dup6\n        /* \"#utility.yul\":26186:26200   */\n      add\n        /* \"#utility.yul\":26172:26184   */\n      dup3\n        /* \"#utility.yul\":26138:26201   */\n      tag_215\n      jump\t// in\n    tag_545:\n        /* \"#utility.yul\":26046:26211   */\n      pop\n        /* \"#utility.yul\":26295:26299   */\n      0x20\n        /* \"#utility.yul\":26288:26293   */\n      dup3\n        /* \"#utility.yul\":26284:26300   */\n      add\n        /* \"#utility.yul\":26278:26301   */\n      mload\n        /* \"#utility.yul\":26314:26377   */\n      tag_546\n        /* \"#utility.yul\":26371:26375   */\n      0x20\n        /* \"#utility.yul\":26366:26369   */\n      dup6\n        /* \"#utility.yul\":26362:26376   */\n      add\n        /* \"#utility.yul\":26348:26360   */\n      dup3\n        /* \"#utility.yul\":26314:26377   */\n      tag_218\n      jump\t// in\n    tag_546:\n        /* \"#utility.yul\":26221:26387   */\n      pop\n        /* \"#utility.yul\":26000:26394   */\n      pop\n        /* \"#utility.yul\":25884:26394   */\n      pop\n      pop\n      jump\t// out\n        /* \"#utility.yul\":26400:26699   */\n    tag_252:\n        /* \"#utility.yul\":26529:26539   */\n      0x00\n        /* \"#utility.yul\":26550:26656   */\n      tag_548\n        /* \"#utility.yul\":26652:26655   */\n      dup4\n        /* \"#utility.yul\":26644:26650   */\n      dup4\n        /* \"#utility.yul\":26550:26656   */\n      tag_251\n      jump\t// in\n    tag_548:\n        /* \"#utility.yul\":26688:26692   */\n      0x40\n        /* \"#utility.yul\":26683:26686   */\n      dup4\n        /* \"#utility.yul\":26679:26693   */\n      add\n        /* \"#utility.yul\":26665:26693   */\n      swap1\n      pop\n        /* \"#utility.yul\":26400:26699   */\n      swap3\n      swap2\n      pop\n      pop\n      jump\t// out\n        /* \"#utility.yul\":26705:26848   */\n    tag_253:\n        /* \"#utility.yul\":26805:26809   */\n      0x00\n        /* \"#utility.yul\":26837:26841   */\n      0x20\n        /* \"#utility.yul\":26832:26835   */\n      dup3\n        /* \"#utility.yul\":26828:26842   */\n      add\n        /* \"#utility.yul\":26820:26842   */\n      swap1\n      pop\n        /* \"#utility.yul\":26705:26848   */\n      swap2\n      swap1\n      pop\n      jump\t// out\n        /* \"#utility.yul\":26926:27878   */\n    tag_254:\n        /* \"#utility.yul\":27095:27098   */\n      0x00\n        /* \"#utility.yul\":27124:27208   */\n      tag_551\n        /* \"#utility.yul\":27202:27207   */\n      dup3\n        /* \"#utility.yul\":27124:27208   */\n      tag_248\n      jump\t// in\n    tag_551:\n        /* \"#utility.yul\":27224:27330   */\n      tag_552\n        /* \"#utility.yul\":27323:27329   */\n      dup2\n        /* \"#utility.yul\":27318:27321   */\n      dup6\n        /* \"#utility.yul\":27224:27330   */\n      tag_249\n      jump\t// in\n    tag_552:\n        /* \"#utility.yul\":27217:27330   */\n      swap4\n      pop\n        /* \"#utility.yul\":27354:27440   */\n      tag_553\n        /* \"#utility.yul\":27434:27439   */\n      dup4\n        /* \"#utility.yul\":27354:27440   */\n      tag_250\n      jump\t// in\n    tag_553:\n        /* \"#utility.yul\":27463:27470   */\n      dup1\n        /* \"#utility.yul\":27494:27495   */\n      0x00\n        /* \"#utility.yul\":27479:27853   */\n    tag_554:\n        /* \"#utility.yul\":27504:27510   */\n      dup4\n        /* \"#utility.yul\":27501:27502   */\n      dup2\n        /* \"#utility.yul\":27498:27511   */\n      lt\n        /* \"#utility.yul\":27479:27853   */\n      iszero\n      tag_556\n      jumpi\n        /* \"#utility.yul\":27580:27586   */\n      dup2\n        /* \"#utility.yul\":27574:27587   */\n      mload\n        /* \"#utility.yul\":27607:27730   */\n      tag_557\n        /* \"#utility.yul\":27726:27729   */\n      dup9\n        /* \"#utility.yul\":27711:27724   */\n      dup3\n        /* \"#utility.yul\":27607:27730   */\n      tag_252\n      jump\t// in\n    tag_557:\n        /* \"#utility.yul\":27600:27730   */\n      swap8\n      pop\n        /* \"#utility.yul\":27753:27843   */\n      tag_558\n        /* \"#utility.yul\":27836:27842   */\n      dup4\n        /* \"#utility.yul\":27753:27843   */\n      tag_253\n      jump\t// in\n    tag_558:\n        /* \"#utility.yul\":27743:27843   */\n      swap3\n      pop\n        /* \"#utility.yul\":27539:27853   */\n      pop\n        /* \"#utility.yul\":27526:27527   */\n      0x01\n        /* \"#utility.yul\":27523:27524   */\n      dup2\n        /* \"#utility.yul\":27519:27528   */\n      add\n        /* \"#utility.yul\":27514:27528   */\n      swap1\n      pop\n        /* \"#utility.yul\":27479:27853   */\n      jump(tag_554)\n    tag_556:\n        /* \"#utility.yul\":27483:27497   */\n      pop\n        /* \"#utility.yul\":27869:27872   */\n      dup6\n        /* \"#utility.yul\":27862:27872   */\n      swap4\n      pop\n        /* \"#utility.yul\":27100:27878   */\n      pop\n      pop\n      pop\n        /* \"#utility.yul\":26926:27878   */\n      swap3\n      swap2\n      pop\n      pop\n      jump\t// out\n        /* \"#utility.yul\":27952:29408   */\n    tag_255:\n        /* \"#utility.yul\":28081:28084   */\n      0x00\n        /* \"#utility.yul\":28117:28121   */\n      0xa0\n        /* \"#utility.yul\":28112:28115   */\n      dup4\n        /* \"#utility.yul\":28108:28122   */\n      add\n        /* \"#utility.yul\":28208:28212   */\n      0x00\n        /* \"#utility.yul\":28201:28206   */\n      dup4\n        /* \"#utility.yul\":28197:28213   */\n      add\n        /* \"#utility.yul\":28191:28214   */\n      mload\n        /* \"#utility.yul\":28261:28264   */\n      dup5\n        /* \"#utility.yul\":28255:28259   */\n      dup3\n        /* \"#utility.yul\":28251:28265   */\n      sub\n        /* \"#utility.yul\":28244:28248   */\n      0x00\n        /* \"#utility.yul\":28239:28242   */\n      dup7\n        /* \"#utility.yul\":28235:28249   */\n      add\n        /* \"#utility.yul\":28228:28266   */\n      mstore\n        /* \"#utility.yul\":28287:28358   */\n      tag_560\n        /* \"#utility.yul\":28353:28357   */\n      dup3\n        /* \"#utility.yul\":28339:28351   */\n      dup3\n        /* \"#utility.yul\":28287:28358   */\n      tag_247\n      jump\t// in\n    tag_560:\n        /* \"#utility.yul\":28279:28358   */\n      swap2\n      pop\n        /* \"#utility.yul\":28132:28369   */\n      pop\n        /* \"#utility.yul\":28451:28455   */\n      0x20\n        /* \"#utility.yul\":28444:28449   */\n      dup4\n        /* \"#utility.yul\":28440:28456   */\n      add\n        /* \"#utility.yul\":28434:28457   */\n      mload\n        /* \"#utility.yul\":28504:28507   */\n      dup5\n        /* \"#utility.yul\":28498:28502   */\n      dup3\n        /* \"#utility.yul\":28494:28508   */\n      sub\n        /* \"#utility.yul\":28487:28491   */\n      0x20\n        /* \"#utility.yul\":28482:28485   */\n      dup7\n        /* \"#utility.yul\":28478:28492   */\n      add\n        /* \"#utility.yul\":28471:28509   */\n      mstore\n        /* \"#utility.yul\":28530:28601   */\n      tag_561\n        /* \"#utility.yul\":28596:28600   */\n      dup3\n        /* \"#utility.yul\":28582:28594   */\n      dup3\n        /* \"#utility.yul\":28530:28601   */\n      tag_247\n      jump\t// in\n    tag_561:\n        /* \"#utility.yul\":28522:28601   */\n      swap2\n      pop\n        /* \"#utility.yul\":28379:28612   */\n      pop\n        /* \"#utility.yul\":28702:28706   */\n      0x40\n        /* \"#utility.yul\":28695:28700   */\n      dup4\n        /* \"#utility.yul\":28691:28707   */\n      add\n        /* \"#utility.yul\":28685:28708   */\n      mload\n        /* \"#utility.yul\":28755:28758   */\n      dup5\n        /* \"#utility.yul\":28749:28753   */\n      dup3\n        /* \"#utility.yul\":28745:28759   */\n      sub\n        /* \"#utility.yul\":28738:28742   */\n      0x40\n        /* \"#utility.yul\":28733:28736   */\n      dup7\n        /* \"#utility.yul\":28729:28743   */\n      add\n        /* \"#utility.yul\":28722:28760   */\n      mstore\n        /* \"#utility.yul\":28781:28944   */\n      tag_562\n        /* \"#utility.yul\":28939:28943   */\n      dup3\n        /* \"#utility.yul\":28925:28937   */\n      dup3\n        /* \"#utility.yul\":28781:28944   */\n      tag_254\n      jump\t// in\n    tag_562:\n        /* \"#utility.yul\":28773:28944   */\n      swap2\n      pop\n        /* \"#utility.yul\":28622:28955   */\n      pop\n        /* \"#utility.yul\":29041:29045   */\n      0x60\n        /* \"#utility.yul\":29034:29039   */\n      dup4\n        /* \"#utility.yul\":29030:29046   */\n      add\n        /* \"#utility.yul\":29024:29047   */\n      mload\n        /* \"#utility.yul\":29060:29123   */\n      tag_563\n        /* \"#utility.yul\":29117:29121   */\n      0x60\n        /* \"#utility.yul\":29112:29115   */\n      dup7\n        /* \"#utility.yul\":29108:29122   */\n      add\n        /* \"#utility.yul\":29094:29106   */\n      dup3\n        /* \"#utility.yul\":29060:29123   */\n      tag_215\n      jump\t// in\n    tag_563:\n        /* \"#utility.yul\":28965:29133   */\n      pop\n        /* \"#utility.yul\":29220:29224   */\n      0x80\n        /* \"#utility.yul\":29213:29218   */\n      dup4\n        /* \"#utility.yul\":29209:29225   */\n      add\n        /* \"#utility.yul\":29203:29226   */\n      mload\n        /* \"#utility.yul\":29273:29276   */\n      dup5\n        /* \"#utility.yul\":29267:29271   */\n      dup3\n        /* \"#utility.yul\":29263:29277   */\n      sub\n        /* \"#utility.yul\":29256:29260   */\n      0x80\n        /* \"#utility.yul\":29251:29254   */\n      dup7\n        /* \"#utility.yul\":29247:29261   */\n      add\n        /* \"#utility.yul\":29240:29278   */\n      mstore\n        /* \"#utility.yul\":29299:29370   */\n      tag_564\n        /* \"#utility.yul\":29365:29369   */\n      dup3\n        /* \"#utility.yul\":29351:29363   */\n      dup3\n        /* \"#utility.yul\":29299:29370   */\n      tag_247\n      jump\t// in\n    tag_564:\n        /* \"#utility.yul\":29291:29370   */\n      swap2\n      pop\n        /* \"#utility.yul\":29143:29381   */\n      pop\n        /* \"#utility.yul\":29398:29402   */\n      dup1\n        /* \"#utility.yul\":29391:29402   */\n      swap2\n      pop\n        /* \"#utility.yul\":28086:29408   */\n      pop\n        /* \"#utility.yul\":27952:29408   */\n      swap3\n      swap2\n      pop\n      pop\n      jump\t// out\n        /* \"#utility.yul\":29414:29913   */\n    tag_130:\n        /* \"#utility.yul\":29593:29597   */\n      0x00\n        /* \"#utility.yul\":29631:29633   */\n      0x40\n        /* \"#utility.yul\":29620:29629   */\n      dup3\n        /* \"#utility.yul\":29616:29634   */\n      add\n        /* \"#utility.yul\":29608:29634   */\n      swap1\n      pop\n        /* \"#utility.yul\":29644:29713   */\n      tag_566\n        /* \"#utility.yul\":29710:29711   */\n      0x00\n        /* \"#utility.yul\":29699:29708   */\n      dup4\n        /* \"#utility.yul\":29695:29712   */\n      add\n        /* \"#utility.yul\":29686:29692   */\n      dup6\n        /* \"#utility.yul\":29644:29713   */\n      tag_203\n      jump\t// in\n    tag_566:\n        /* \"#utility.yul\":29760:29769   */\n      dup2\n        /* \"#utility.yul\":29754:29758   */\n      dup2\n        /* \"#utility.yul\":29750:29770   */\n      sub\n        /* \"#utility.yul\":29745:29747   */\n      0x20\n        /* \"#utility.yul\":29734:29743   */\n      dup4\n        /* \"#utility.yul\":29730:29748   */\n      add\n        /* \"#utility.yul\":29723:29771   */\n      mstore\n        /* \"#utility.yul\":29788:29906   */\n      tag_567\n        /* \"#utility.yul\":29901:29905   */\n      dup2\n        /* \"#utility.yul\":29892:29898   */\n      dup5\n        /* \"#utility.yul\":29788:29906   */\n      tag_255\n      jump\t// in\n    tag_567:\n        /* \"#utility.yul\":29780:29906   */\n      swap1\n      pop\n        /* \"#utility.yul\":29414:29913   */\n      swap4\n      swap3\n      pop\n      pop\n      pop\n      jump\t// out\n        /* \"#utility.yul\":29919:30062   */\n    tag_256:\n        /* \"#utility.yul\":29976:29981   */\n      0x00\n        /* \"#utility.yul\":30007:30013   */\n      dup2\n        /* \"#utility.yul\":30001:30014   */\n      mload\n        /* \"#utility.yul\":29992:30014   */\n      swap1\n      pop\n        /* \"#utility.yul\":30023:30056   */\n      tag_569\n        /* \"#utility.yul\":30050:30055   */\n      dup2\n        /* \"#utility.yul\":30023:30056   */\n      tag_186\n      jump\t// in\n    tag_569:\n        /* \"#utility.yul\":29919:30062   */\n      swap3\n      swap2\n      pop\n      pop\n      jump\t// out\n        /* \"#utility.yul\":30068:30419   */\n    tag_134:\n        /* \"#utility.yul\":30138:30144   */\n      0x00\n        /* \"#utility.yul\":30187:30189   */\n      0x20\n        /* \"#utility.yul\":30175:30184   */\n      dup3\n        /* \"#utility.yul\":30166:30173   */\n      dup5\n        /* \"#utility.yul\":30162:30185   */\n      sub\n        /* \"#utility.yul\":30158:30190   */\n      slt\n        /* \"#utility.yul\":30155:30274   */\n      iszero\n      tag_571\n      jumpi\n        /* \"#utility.yul\":30193:30272   */\n      tag_572\n      tag_172\n      jump\t// in\n    tag_572:\n        /* \"#utility.yul\":30155:30274   */\n    tag_571:\n        /* \"#utility.yul\":30313:30314   */\n      0x00\n        /* \"#utility.yul\":30338:30402   */\n      tag_573\n        /* \"#utility.yul\":30394:30401   */\n      dup5\n        /* \"#utility.yul\":30385:30391   */\n      dup3\n        /* \"#utility.yul\":30374:30383   */\n      dup6\n        /* \"#utility.yul\":30370:30392   */\n      add\n        /* \"#utility.yul\":30338:30402   */\n      tag_256\n      jump\t// in\n    tag_573:\n        /* \"#utility.yul\":30328:30402   */\n      swap2\n      pop\n        /* \"#utility.yul\":30284:30412   */\n      pop\n        /* \"#utility.yul\":30068:30419   */\n      swap3\n      swap2\n      pop\n      pop\n      jump\t// out\n        /* \"#utility.yul\":30425:30757   */\n    tag_137:\n        /* \"#utility.yul\":30546:30550   */\n      0x00\n        /* \"#utility.yul\":30584:30586   */\n      0x40\n        /* \"#utility.yul\":30573:30582   */\n      dup3\n        /* \"#utility.yul\":30569:30587   */\n      add\n        /* \"#utility.yul\":30561:30587   */\n      swap1\n      pop\n        /* \"#utility.yul\":30597:30668   */\n      tag_575\n        /* \"#utility.yul\":30665:30666   */\n      0x00\n        /* \"#utility.yul\":30654:30663   */\n      dup4\n        /* \"#utility.yul\":30650:30667   */\n      add\n        /* \"#utility.yul\":30641:30647   */\n      dup6\n        /* \"#utility.yul\":30597:30668   */\n      tag_189\n      jump\t// in\n    tag_575:\n        /* \"#utility.yul\":30678:30750   */\n      tag_576\n        /* \"#utility.yul\":30746:30748   */\n      0x20\n        /* \"#utility.yul\":30735:30744   */\n      dup4\n        /* \"#utility.yul\":30731:30749   */\n      add\n        /* \"#utility.yul\":30722:30728   */\n      dup5\n        /* \"#utility.yul\":30678:30750   */\n      tag_189\n      jump\t// in\n    tag_576:\n        /* \"#utility.yul\":30425:30757   */\n      swap4\n      swap3\n      pop\n      pop\n      pop\n      jump\t// out\n        /* \"#utility.yul\":30763:30840   */\n    tag_257:\n        /* \"#utility.yul\":30800:30807   */\n      0x00\n        /* \"#utility.yul\":30829:30834   */\n      dup2\n        /* \"#utility.yul\":30818:30834   */\n      swap1\n      pop\n        /* \"#utility.yul\":30763:30840   */\n      swap2\n      swap1\n      pop\n      jump\t// out\n        /* \"#utility.yul\":30846:30968   */\n    tag_258:\n        /* \"#utility.yul\":30919:30943   */\n      tag_579\n        /* \"#utility.yul\":30937:30942   */\n      dup2\n        /* \"#utility.yul\":30919:30943   */\n      tag_257\n      jump\t// in\n    tag_579:\n        /* \"#utility.yul\":30912:30917   */\n      dup2\n        /* \"#utility.yul\":30909:30944   */\n      eq\n        /* \"#utility.yul\":30899:30962   */\n      tag_580\n      jumpi\n        /* \"#utility.yul\":30958:30959   */\n      0x00\n        /* \"#utility.yul\":30955:30956   */\n      dup1\n        /* \"#utility.yul\":30948:30960   */\n      revert\n        /* \"#utility.yul\":30899:30962   */\n    tag_580:\n        /* \"#utility.yul\":30846:30968   */\n      pop\n      jump\t// out\n        /* \"#utility.yul\":30974:31117   */\n    tag_259:\n        /* \"#utility.yul\":31031:31036   */\n      0x00\n        /* \"#utility.yul\":31062:31068   */\n      dup2\n        /* \"#utility.yul\":31056:31069   */\n      mload\n        /* \"#utility.yul\":31047:31069   */\n      swap1\n      pop\n        /* \"#utility.yul\":31078:31111   */\n      tag_582\n        /* \"#utility.yul\":31105:31110   */\n      dup2\n        /* \"#utility.yul\":31078:31111   */\n      tag_258\n      jump\t// in\n    tag_582:\n        /* \"#utility.yul\":30974:31117   */\n      swap3\n      swap2\n      pop\n      pop\n      jump\t// out\n        /* \"#utility.yul\":31123:31474   */\n    tag_142:\n        /* \"#utility.yul\":31193:31199   */\n      0x00\n        /* \"#utility.yul\":31242:31244   */\n      0x20\n        /* \"#utility.yul\":31230:31239   */\n      dup3\n        /* \"#utility.yul\":31221:31228   */\n      dup5\n        /* \"#utility.yul\":31217:31240   */\n      sub\n        /* \"#utility.yul\":31213:31245   */\n      slt\n        /* \"#utility.yul\":31210:31329   */\n      iszero\n      tag_584\n      jumpi\n        /* \"#utility.yul\":31248:31327   */\n      tag_585\n      tag_172\n      jump\t// in\n    tag_585:\n        /* \"#utility.yul\":31210:31329   */\n    tag_584:\n        /* \"#utility.yul\":31368:31369   */\n      0x00\n        /* \"#utility.yul\":31393:31457   */\n      tag_586\n        /* \"#utility.yul\":31449:31456   */\n      dup5\n        /* \"#utility.yul\":31440:31446   */\n      dup3\n        /* \"#utility.yul\":31429:31438   */\n      dup6\n        /* \"#utility.yul\":31425:31447   */\n      add\n        /* \"#utility.yul\":31393:31457   */\n      tag_259\n      jump\t// in\n    tag_586:\n        /* \"#utility.yul\":31383:31457   */\n      swap2\n      pop\n        /* \"#utility.yul\":31339:31467   */\n      pop\n        /* \"#utility.yul\":31123:31474   */\n      swap3\n      swap2\n      pop\n      pop\n      jump\t// out\n        /* \"#utility.yul\":31480:31639   */\n    tag_260:\n        /* \"#utility.yul\":31554:31565   */\n      0x00\n        /* \"#utility.yul\":31588:31594   */\n      dup3\n        /* \"#utility.yul\":31583:31586   */\n      dup3\n        /* \"#utility.yul\":31576:31595   */\n      mstore\n        /* \"#utility.yul\":31628:31632   */\n      0x20\n        /* \"#utility.yul\":31623:31626   */\n      dup3\n        /* \"#utility.yul\":31619:31633   */\n      add\n        /* \"#utility.yul\":31604:31633   */\n      swap1\n      pop\n        /* \"#utility.yul\":31480:31639   */\n      swap3\n      swap2\n      pop\n      pop\n      jump\t// out\n        /* \"#utility.yul\":31645:32002   */\n    tag_261:\n        /* \"#utility.yul\":31723:31726   */\n      0x00\n        /* \"#utility.yul\":31751:31790   */\n      tag_589\n        /* \"#utility.yul\":31784:31789   */\n      dup3\n        /* \"#utility.yul\":31751:31790   */\n      tag_191\n      jump\t// in\n    tag_589:\n        /* \"#utility.yul\":31806:31867   */\n      tag_590\n        /* \"#utility.yul\":31860:31866   */\n      dup2\n        /* \"#utility.yul\":31855:31858   */\n      dup6\n        /* \"#utility.yul\":31806:31867   */\n      tag_260\n      jump\t// in\n    tag_590:\n        /* \"#utility.yul\":31799:31867   */\n      swap4\n      pop\n        /* \"#utility.yul\":31876:31941   */\n      tag_591\n        /* \"#utility.yul\":31934:31940   */\n      dup2\n        /* \"#utility.yul\":31929:31932   */\n      dup6\n        /* \"#utility.yul\":31922:31926   */\n      0x20\n        /* \"#utility.yul\":31915:31920   */\n      dup7\n        /* \"#utility.yul\":31911:31927   */\n      add\n        /* \"#utility.yul\":31876:31941   */\n      tag_193\n      jump\t// in\n    tag_591:\n        /* \"#utility.yul\":31966:31995   */\n      tag_592\n        /* \"#utility.yul\":31988:31994   */\n      dup2\n        /* \"#utility.yul\":31966:31995   */\n      tag_194\n      jump\t// in\n    tag_592:\n        /* \"#utility.yul\":31961:31964   */\n      dup5\n        /* \"#utility.yul\":31957:31996   */\n      add\n        /* \"#utility.yul\":31950:31996   */\n      swap2\n      pop\n        /* \"#utility.yul\":31727:32002   */\n      pop\n        /* \"#utility.yul\":31645:32002   */\n      swap3\n      swap2\n      pop\n      pop\n      jump\t// out\n        /* \"#utility.yul\":32080:32964   */\n    tag_262:\n        /* \"#utility.yul\":32207:32210   */\n      0x00\n        /* \"#utility.yul\":32243:32247   */\n      0x60\n        /* \"#utility.yul\":32238:32241   */\n      dup4\n        /* \"#utility.yul\":32234:32248   */\n      add\n        /* \"#utility.yul\":32339:32343   */\n      0x00\n        /* \"#utility.yul\":32332:32337   */\n      dup4\n        /* \"#utility.yul\":32328:32344   */\n      add\n        /* \"#utility.yul\":32322:32345   */\n      mload\n        /* \"#utility.yul\":32392:32395   */\n      dup5\n        /* \"#utility.yul\":32386:32390   */\n      dup3\n        /* \"#utility.yul\":32382:32396   */\n      sub\n        /* \"#utility.yul\":32375:32379   */\n      0x00\n        /* \"#utility.yul\":32370:32373   */\n      dup7\n        /* \"#utility.yul\":32366:32380   */\n      add\n        /* \"#utility.yul\":32359:32397   */\n      mstore\n        /* \"#utility.yul\":32418:32491   */\n      tag_594\n        /* \"#utility.yul\":32486:32490   */\n      dup3\n        /* \"#utility.yul\":32472:32484   */\n      dup3\n        /* \"#utility.yul\":32418:32491   */\n      tag_261\n      jump\t// in\n    tag_594:\n        /* \"#utility.yul\":32410:32491   */\n      swap2\n      pop\n        /* \"#utility.yul\":32258:32502   */\n      pop\n        /* \"#utility.yul\":32598:32602   */\n      0x20\n        /* \"#utility.yul\":32591:32596   */\n      dup4\n        /* \"#utility.yul\":32587:32603   */\n      add\n        /* \"#utility.yul\":32581:32604   */\n      mload\n        /* \"#utility.yul\":32651:32654   */\n      dup5\n        /* \"#utility.yul\":32645:32649   */\n      dup3\n        /* \"#utility.yul\":32641:32655   */\n      sub\n        /* \"#utility.yul\":32634:32638   */\n      0x20\n        /* \"#utility.yul\":32629:32632   */\n      dup7\n        /* \"#utility.yul\":32625:32639   */\n      add\n        /* \"#utility.yul\":32618:32656   */\n      mstore\n        /* \"#utility.yul\":32677:32750   */\n      tag_595\n        /* \"#utility.yul\":32745:32749   */\n      dup3\n        /* \"#utility.yul\":32731:32743   */\n      dup3\n        /* \"#utility.yul\":32677:32750   */\n      tag_261\n      jump\t// in\n    tag_595:\n        /* \"#utility.yul\":32669:32750   */\n      swap2\n      pop\n        /* \"#utility.yul\":32512:32761   */\n      pop\n        /* \"#utility.yul\":32845:32849   */\n      0x40\n        /* \"#utility.yul\":32838:32843   */\n      dup4\n        /* \"#utility.yul\":32834:32850   */\n      add\n        /* \"#utility.yul\":32828:32851   */\n      mload\n        /* \"#utility.yul\":32864:32927   */\n      tag_596\n        /* \"#utility.yul\":32921:32925   */\n      0x40\n        /* \"#utility.yul\":32916:32919   */\n      dup7\n        /* \"#utility.yul\":32912:32926   */\n      add\n        /* \"#utility.yul\":32898:32910   */\n      dup3\n        /* \"#utility.yul\":32864:32927   */\n      tag_218\n      jump\t// in\n    tag_596:\n        /* \"#utility.yul\":32771:32937   */\n      pop\n        /* \"#utility.yul\":32954:32958   */\n      dup1\n        /* \"#utility.yul\":32947:32958   */\n      swap2\n      pop\n        /* \"#utility.yul\":32212:32964   */\n      pop\n        /* \"#utility.yul\":32080:32964   */\n      swap3\n      swap2\n      pop\n      pop\n      jump\t// out\n        /* \"#utility.yul\":32970:33359   */\n    tag_158:\n        /* \"#utility.yul\":33121:33125   */\n      0x00\n        /* \"#utility.yul\":33159:33161   */\n      0x20\n        /* \"#utility.yul\":33148:33157   */\n      dup3\n        /* \"#utility.yul\":33144:33162   */\n      add\n        /* \"#utility.yul\":33136:33162   */\n      swap1\n      pop\n        /* \"#utility.yul\":33208:33217   */\n      dup2\n        /* \"#utility.yul\":33202:33206   */\n      dup2\n        /* \"#utility.yul\":33198:33218   */\n      sub\n        /* \"#utility.yul\":33194:33195   */\n      0x00\n        /* \"#utility.yul\":33183:33192   */\n      dup4\n        /* \"#utility.yul\":33179:33196   */\n      add\n        /* \"#utility.yul\":33172:33219   */\n      mstore\n        /* \"#utility.yul\":33236:33352   */\n      tag_598\n        /* \"#utility.yul\":33347:33351   */\n      dup2\n        /* \"#utility.yul\":33338:33344   */\n      dup5\n        /* \"#utility.yul\":33236:33352   */\n      tag_262\n      jump\t// in\n    tag_598:\n        /* \"#utility.yul\":33228:33352   */\n      swap1\n      pop\n        /* \"#utility.yul\":32970:33359   */\n      swap3\n      swap2\n      pop\n      pop\n      jump\t// out\n        /* \"#utility.yul\":33365:33455   */\n    tag_263:\n        /* \"#utility.yul\":33399:33406   */\n      0x00\n        /* \"#utility.yul\":33442:33447   */\n      dup2\n        /* \"#utility.yul\":33435:33448   */\n      iszero\n        /* \"#utility.yul\":33428:33449   */\n      iszero\n        /* \"#utility.yul\":33417:33449   */\n      swap1\n      pop\n        /* \"#utility.yul\":33365:33455   */\n      swap2\n      swap1\n      pop\n      jump\t// out\n        /* \"#utility.yul\":33461:33560   */\n    tag_264:\n        /* \"#utility.yul\":33532:33553   */\n      tag_601\n        /* \"#utility.yul\":33547:33552   */\n      dup2\n        /* \"#utility.yul\":33532:33553   */\n      tag_263\n      jump\t// in\n    tag_601:\n        /* \"#utility.yul\":33527:33530   */\n      dup3\n        /* \"#utility.yul\":33520:33554   */\n      mstore\n        /* \"#utility.yul\":33461:33560   */\n      pop\n      pop\n      jump\t// out\n        /* \"#utility.yul\":33642:34187   */\n    tag_265:\n        /* \"#utility.yul\":33809:33813   */\n      0x40\n        /* \"#utility.yul\":33804:33807   */\n      dup3\n        /* \"#utility.yul\":33800:33814   */\n      add\n        /* \"#utility.yul\":33900:33904   */\n      0x00\n        /* \"#utility.yul\":33893:33898   */\n      dup3\n        /* \"#utility.yul\":33889:33905   */\n      add\n        /* \"#utility.yul\":33883:33906   */\n      mload\n        /* \"#utility.yul\":33919:33982   */\n      tag_603\n        /* \"#utility.yul\":33976:33980   */\n      0x00\n        /* \"#utility.yul\":33971:33974   */\n      dup6\n        /* \"#utility.yul\":33967:33981   */\n      add\n        /* \"#utility.yul\":33953:33965   */\n      dup3\n        /* \"#utility.yul\":33919:33982   */\n      tag_218\n      jump\t// in\n    tag_603:\n        /* \"#utility.yul\":33824:33992   */\n      pop\n        /* \"#utility.yul\":34094:34098   */\n      0x20\n        /* \"#utility.yul\":34087:34092   */\n      dup3\n        /* \"#utility.yul\":34083:34099   */\n      add\n        /* \"#utility.yul\":34077:34100   */\n      mload\n        /* \"#utility.yul\":34113:34170   */\n      tag_604\n        /* \"#utility.yul\":34164:34168   */\n      0x20\n        /* \"#utility.yul\":34159:34162   */\n      dup6\n        /* \"#utility.yul\":34155:34169   */\n      add\n        /* \"#utility.yul\":34141:34153   */\n      dup3\n        /* \"#utility.yul\":34113:34170   */\n      tag_264\n      jump\t// in\n    tag_604:\n        /* \"#utility.yul\":34002:34180   */\n      pop\n        /* \"#utility.yul\":33778:34187   */\n      pop\n        /* \"#utility.yul\":33642:34187   */\n      pop\n      pop\n      jump\t// out\n        /* \"#utility.yul\":34193:34555   */\n    tag_170:\n        /* \"#utility.yul\":34356:34360   */\n      0x00\n        /* \"#utility.yul\":34394:34396   */\n      0x40\n        /* \"#utility.yul\":34383:34392   */\n      dup3\n        /* \"#utility.yul\":34379:34397   */\n      add\n        /* \"#utility.yul\":34371:34397   */\n      swap1\n      pop\n        /* \"#utility.yul\":34407:34548   */\n      tag_606\n        /* \"#utility.yul\":34545:34546   */\n      0x00\n        /* \"#utility.yul\":34534:34543   */\n      dup4\n        /* \"#utility.yul\":34530:34547   */\n      add\n        /* \"#utility.yul\":34521:34527   */\n      dup5\n        /* \"#utility.yul\":34407:34548   */\n      tag_265\n      jump\t// in\n    tag_606:\n        /* \"#utility.yul\":34193:34555   */\n      swap3\n      swap2\n      pop\n      pop\n      jump\t// out\n\n    auxdata: 0xa2646970667358221220867889e867ca3730081cfb6063cc0361fdad67386df5d4ab675ec81837de998a64736f6c63430008180033\n}\n",
				"bytecode": {
					"linkReferences": {},
					"object": "608060405234801562000010575f80fd5b506040516200223038038062002230833981810160405281019062000036919062000122565b3360025f6101000a81548173ffffffffffffffffffffffffffffffffffffffff021916908373ffffffffffffffffffffffffffffffffffffffff1602179055508060045f6101000a81548173ffffffffffffffffffffffffffffffffffffffff021916908373ffffffffffffffffffffffffffffffffffffffff1602179055505062000152565b5f80fd5b5f73ffffffffffffffffffffffffffffffffffffffff82169050919050565b5f620000ec82620000c1565b9050919050565b620000fe81620000e0565b811462000109575f80fd5b50565b5f815190506200011c81620000f3565b92915050565b5f602082840312156200013a5762000139620000bd565b5b5f62000149848285016200010c565b91505092915050565b6120d080620001605f395ff3fe60806040526004361061007e575f3560e01c8063821aa5d21161004d578063821aa5d21461012d5780638da5cb5b14610149578063a5a30b0214610173578063d56d4f1a1461019d57610085565b80632e34b343146100895780633268cc56146100b15780635314ab19146100db57806368233eef1461010357610085565b3661008557005b5f80fd5b348015610094575f80fd5b506100af60048036038101906100aa9190611146565b6101db565b005b3480156100bc575f80fd5b506100c56103b7565b6040516100d291906111d9565b60405180910390f35b3480156100e6575f80fd5b5061010160048036038101906100fc91906111f2565b6103dc565b005b34801561010e575f80fd5b506101176104ba565b604051610124919061124c565b60405180910390f35b610147600480360381019061014291906112ba565b6104c0565b005b348015610154575f80fd5b5061015d610926565b60405161016a91906111d9565b60405180910390f35b34801561017e575f80fd5b5061018761094b565b604051610194919061138f565b60405180910390f35b3480156101a8575f80fd5b506101c360048036038101906101be91906114d7565b6109d7565b6040516101d29392919061152d565b60405180910390f35b60025f9054906101000a900473ffffffffffffffffffffffffffffffffffffffff1673ffffffffffffffffffffffffffffffffffffffff163373ffffffffffffffffffffffffffffffffffffffff161461026a576040517f08c379a0000000000000000000000000000000000000000000000000000000008152600401610261906115ac565b60405180910390fd5b60405180606001604052808467ffffffffffffffff1681526020018373ffffffffffffffffffffffffffffffffffffffff168152602001828152505f86866040516102b69291906115f8565b90815260200160405180910390205f820151815f015f6101000a81548167ffffffffffffffff021916908367ffffffffffffffff1602179055506020820151815f0160086101000a81548173ffffffffffffffffffffffffffffffffffffffff021916908373ffffffffffffffffffffffffffffffffffffffff1602179055506040820151816001015590505084846040516103539291906115f8565b60405180910390207fb6ceac5d9fe2c1255321f4b6432ca917a4e76dad3f9db0fbefe81ef9a34fe6525f878760405161038d9291906115f8565b90815260200160405180910390206040516103a89190611736565b60405180910390a25050505050565b60045f9054906101000a900473ffffffffffffffffffffffffffffffffffffffff1681565b60025f9054906101000a900473ffffffffffffffffffffffffffffffffffffffff1673ffffffffffffffffffffffffffffffffffffffff163373ffffffffffffffffffffffffffffffffffffffff161461046b576040517f08c379a0000000000000000000000000000000000000000000000000000000008152600401610462906115ac565b60405180910390fd5b81816001918261047c929190611953565b507f788f7a94dca4560c48744e99525fffb5be8e8cf86e3d94c70b3193c31f63be7482826040516104ae929190611a4c565b60405180910390a15050565b60035481565b5f60035f81546104cf90611a9b565b91905081905590505f5b838390508110156108e557368484838181106104f8576104f7611ae2565b5b905060200281019061050a9190611b1b565b90505f8082805f019061051d9190611b42565b60405161052b9291906115f8565b90815260200160405180910390206040518060600160405290815f82015f9054906101000a900467ffffffffffffffff1667ffffffffffffffff1667ffffffffffffffff1681526020015f820160089054906101000a900473ffffffffffffffffffffffffffffffffffffffff1673ffffffffffffffffffffffffffffffffffffffff1673ffffffffffffffffffffffffffffffffffffffff16815260200160018201548152505090505f808380602001906105e79190611b42565b6040516105f59291906115f8565b90815260200160405180910390206040518060600160405290815f82015f9054906101000a900467ffffffffffffffff1667ffffffffffffffff1667ffffffffffffffff1681526020015f820160089054906101000a900473ffffffffffffffffffffffffffffffffffffffff1673ffffffffffffffffffffffffffffffffffffffff1673ffffffffffffffffffffffffffffffffffffffff16815260200160018201548152505090505f73ffffffffffffffffffffffffffffffffffffffff16826020015173ffffffffffffffffffffffffffffffffffffffff161415801561070f57505f73ffffffffffffffffffffffffffffffffffffffff16816020015173ffffffffffffffffffffffffffffffffffffffff1614155b61074e576040517f08c379a000000000000000000000000000000000000000000000000000000000815260040161074590611bee565b60405180910390fd5b61077c828480604001906107629190611b42565b8680606001906107729190611b42565b8860800135610a46565b5f826040015182604001518560a00135866080013561079b9190611c0c565b6107a59190611c0c565b6107af9190611c7a565b90506107db828580606001906107c59190611b42565b8780604001906107d59190611b42565b86610a46565b8360a001358460c0013511156108d4575f836040015183604001518660a001358760c0013561080a9190611caa565b87608001356108199190611c0c565b6108239190611c0c565b61082d9190611c7a565b90506108d2838680606001906108439190611b42565b6001805461085090611786565b80601f016020809104026020016040519081016040528092919081815260200182805461087c90611786565b80156108c75780601f1061089e576101008083540402835291602001916108c7565b820191905f5260205f20905b8154815290600101906020018083116108aa57829003601f168201915b505050505085610c75565b505b5050505080806001019150506104d9565b50807fc409c9a7918eb001ef067382e0bac7f1eeeb6f5ff95aa585be7e4255fca6488284849050604051610919919061124c565b60405180910390a2505050565b60025f9054906101000a900473ffffffffffffffffffffffffffffffffffffffff1681565b6001805461095890611786565b80601f016020809104026020016040519081016040528092919081815260200182805461098490611786565b80156109cf5780601f106109a6576101008083540402835291602001916109cf565b820191905f5260205f20905b8154815290600101906020018083116109b257829003601f168201915b505050505081565b5f818051602081018201805184825260208301602085012081835280955050505050505f91509050805f015f9054906101000a900467ffffffffffffffff1690805f0160089054906101000a900473ffffffffffffffffffffffffffffffffffffffff16908060010154905083565b5f604051806060016040528087878080601f0160208091040260200160405190810160405280939291908181526020018383808284375f81840152601f19601f82011690508083019250505050505050815260200185858080601f0160208091040260200160405190810160405280939291908181526020018383808284375f81840152601f19601f8201169050808301925050505050505081526020018381525090505f610afa8860200151835f610e19565b90505f60045f9054906101000a900473ffffffffffffffffffffffffffffffffffffffff1690505f8173ffffffffffffffffffffffffffffffffffffffff166320487ded8b5f0151856040518363ffffffff1660e01b8152600401610b60929190611e8c565b602060405180830381865afa158015610b7b573d5f803e3d5ffd5b505050506040513d601f19601f82011682018060405250810190610b9f9190611ece565b905047811115610be85747816040517f8f0f4206000000000000000000000000000000000000000000000000000000008152600401610bdf929190611ef9565b60405180910390fd5b8173ffffffffffffffffffffffffffffffffffffffff166396f4e9f9828c5f0151866040518463ffffffff1660e01b8152600401610c27929190611e8c565b60206040518083038185885af1158015610c43573d5f803e3d5ffd5b50505050506040513d601f19601f82011682018060405250810190610c689190611f53565b5050505050505050505050565b5f604051806060016040528086868080601f0160208091040260200160405190810160405280939291908181526020018383808284375f81840152601f19601f8201169050808301925050505050505081526020018481526020018381525090505f610ce68760200151835f610e19565b90505f60045f9054906101000a900473ffffffffffffffffffffffffffffffffffffffff1690505f8173ffffffffffffffffffffffffffffffffffffffff166320487ded8a5f0151856040518363ffffffff1660e01b8152600401610d4c929190611e8c565b602060405180830381865afa158015610d67573d5f803e3d5ffd5b505050506040513d601f19601f82011682018060405250810190610d8b9190611ece565b90508173ffffffffffffffffffffffffffffffffffffffff166396f4e9f9828b5f0151866040518463ffffffff1660e01b8152600401610dcc929190611e8c565b60206040518083038185885af1158015610de8573d5f803e3d5ffd5b50505050506040513d601f19601f82011682018060405250810190610e0d9190611f53565b50505050505050505050565b610e21610f98565b6040518060a0016040528085604051602001610e3d91906111d9565b604051602081830303815290604052815260200184604051602001610e62919061201a565b60405160208183030381529060405281526020015f67ffffffffffffffff811115610e9057610e8f6113b3565b5b604051908082528060200260200182016040528015610ec957816020015b610eb6610fdc565b815260200190600190039081610eae5790505b5081526020018373ffffffffffffffffffffffffffffffffffffffff168152602001610f0d6040518060400160405280620f424081526020015f1515815250610f19565b81525090509392505050565b606063181dcf1060e01b82604051602401610f349190612081565b604051602081830303815290604052907bffffffffffffffffffffffffffffffffffffffffffffffffffffffff19166020820180517bffffffffffffffffffffffffffffffffffffffffffffffffffffffff83818316178352505050509050919050565b6040518060a001604052806060815260200160608152602001606081526020015f73ffffffffffffffffffffffffffffffffffffffff168152602001606081525090565b60405180604001604052805f73ffffffffffffffffffffffffffffffffffffffff1681526020015f81525090565b5f604051905090565b5f80fd5b5f80fd5b5f80fd5b5f80fd5b5f80fd5b5f8083601f84011261103c5761103b61101b565b5b8235905067ffffffffffffffff8111156110595761105861101f565b5b60208301915083600182028301111561107557611074611023565b5b9250929050565b5f67ffffffffffffffff82169050919050565b6110988161107c565b81146110a2575f80fd5b50565b5f813590506110b38161108f565b92915050565b5f73ffffffffffffffffffffffffffffffffffffffff82169050919050565b5f6110e2826110b9565b9050919050565b6110f2816110d8565b81146110fc575f80fd5b50565b5f8135905061110d816110e9565b92915050565b5f819050919050565b61112581611113565b811461112f575f80fd5b50565b5f813590506111408161111c565b92915050565b5f805f805f6080868803121561115f5761115e611013565b5b5f86013567ffffffffffffffff81111561117c5761117b611017565b5b61118888828901611027565b9550955050602061119b888289016110a5565b93505060406111ac888289016110ff565b92505060606111bd88828901611132565b9150509295509295909350565b6111d3816110d8565b82525050565b5f6020820190506111ec5f8301846111ca565b92915050565b5f806020838503121561120857611207611013565b5b5f83013567ffffffffffffffff81111561122557611224611017565b5b61123185828601611027565b92509250509250929050565b61124681611113565b82525050565b5f60208201905061125f5f83018461123d565b92915050565b5f8083601f84011261127a5761127961101b565b5b8235905067ffffffffffffffff8111156112975761129661101f565b5b6020830191508360208202830111156112b3576112b2611023565b5b9250929050565b5f80602083850312156112d0576112cf611013565b5b5f83013567ffffffffffffffff8111156112ed576112ec611017565b5b6112f985828601611265565b92509250509250929050565b5f81519050919050565b5f82825260208201905092915050565b5f5b8381101561133c578082015181840152602081019050611321565b5f8484015250505050565b5f601f19601f8301169050919050565b5f61136182611305565b61136b818561130f565b935061137b81856020860161131f565b61138481611347565b840191505092915050565b5f6020820190508181035f8301526113a78184611357565b905092915050565b5f80fd5b7f4e487b71000000000000000000000000000000000000000000000000000000005f52604160045260245ffd5b6113e982611347565b810181811067ffffffffffffffff82111715611408576114076113b3565b5b80604052505050565b5f61141a61100a565b905061142682826113e0565b919050565b5f67ffffffffffffffff821115611445576114446113b3565b5b61144e82611347565b9050602081019050919050565b828183375f83830152505050565b5f61147b6114768461142b565b611411565b905082815260208101848484011115611497576114966113af565b5b6114a284828561145b565b509392505050565b5f82601f8301126114be576114bd61101b565b5b81356114ce848260208601611469565b91505092915050565b5f602082840312156114ec576114eb611013565b5b5f82013567ffffffffffffffff81111561150957611508611017565b5b611515848285016114aa565b91505092915050565b6115278161107c565b82525050565b5f6060820190506115405f83018661151e565b61154d60208301856111ca565b61155a604083018461123d565b949350505050565b7f4e6f74206f776e657200000000000000000000000000000000000000000000005f82015250565b5f61159660098361130f565b91506115a182611562565b602082019050919050565b5f6020820190508181035f8301526115c38161158a565b9050919050565b5f81905092915050565b5f6115df83856115ca565b93506115ec83858461145b565b82840190509392505050565b5f6116048284866115d4565b91508190509392505050565b5f815f1c9050919050565b5f67ffffffffffffffff82169050919050565b5f61164061163b83611610565b61161b565b9050919050565b6116508161107c565b82525050565b5f8160401c9050919050565b5f73ffffffffffffffffffffffffffffffffffffffff82169050919050565b5f61169361168e83611656565b611662565b9050919050565b6116a3816110d8565b82525050565b5f819050919050565b5f6116c46116bf83611610565b6116a9565b9050919050565b6116d481611113565b82525050565b606082015f8083015490506116ee8161162e565b6116fa5f860182611647565b5061170481611681565b611711602086018261169a565b5060018301549050611722816116b2565b61172f60408601826116cb565b5050505050565b5f6060820190506117495f8301846116da565b92915050565b5f82905092915050565b7f4e487b71000000000000000000000000000000000000000000000000000000005f52602260045260245ffd5b5f600282049050600182168061179d57607f821691505b6020821081036117b0576117af611759565b5b50919050565b5f819050815f5260205f209050919050565b5f6020601f8301049050919050565b5f82821b905092915050565b5f600883026118127fffffffffffffffffffffffffffffffffffffffffffffffffffffffffffffffff826117d7565b61181c86836117d7565b95508019841693508086168417925050509392505050565b5f819050919050565b5f61185761185261184d84611113565b611834565b611113565b9050919050565b5f819050919050565b6118708361183d565b61188461187c8261185e565b8484546117e3565b825550505050565b5f90565b61189861188c565b6118a3818484611867565b505050565b5b818110156118c6576118bb5f82611890565b6001810190506118a9565b5050565b601f82111561190b576118dc816117b6565b6118e5846117c8565b810160208510156118f4578190505b611908611900856117c8565b8301826118a8565b50505b505050565b5f82821c905092915050565b5f61192b5f1984600802611910565b1980831691505092915050565b5f611943838361191c565b9150826002028217905092915050565b61195d838361174f565b67ffffffffffffffff811115611976576119756113b3565b5b6119808254611786565b61198b8282856118ca565b5f601f8311600181146119b8575f84156119a6578287013590505b6119b08582611938565b865550611a17565b601f1984166119c6866117b6565b5f5b828110156119ed578489013582556001820191506020850194506020810190506119c8565b86831015611a0a5784890135611a06601f89168261191c565b8355505b6001600288020188555050505b50505050505050565b5f611a2b838561130f565b9350611a3883858461145b565b611a4183611347565b840190509392505050565b5f6020820190508181035f830152611a65818486611a20565b90509392505050565b7f4e487b71000000000000000000000000000000000000000000000000000000005f52601160045260245ffd5b5f611aa582611113565b91507fffffffffffffffffffffffffffffffffffffffffffffffffffffffffffffffff8203611ad757611ad6611a6e565b5b600182019050919050565b7f4e487b71000000000000000000000000000000000000000000000000000000005f52603260045260245ffd5b5f80fd5b5f80fd5b5f80fd5b5f8235600160e003833603038112611b3657611b35611b0f565b5b80830191505092915050565b5f8083356001602003843603038112611b5e57611b5d611b0f565b5b80840192508235915067ffffffffffffffff821115611b8057611b7f611b13565b5b602083019250600182023603831315611b9c57611b9b611b17565b5b509250929050565b7f4d697373696e6720726f757465000000000000000000000000000000000000005f82015250565b5f611bd8600d8361130f565b9150611be382611ba4565b602082019050919050565b5f6020820190508181035f830152611c0581611bcc565b9050919050565b5f611c1682611113565b9150611c2183611113565b9250828202611c2f81611113565b91508282048414831517611c4657611c45611a6e565b5b5092915050565b7f4e487b71000000000000000000000000000000000000000000000000000000005f52601260045260245ffd5b5f611c8482611113565b9150611c8f83611113565b925082611c9f57611c9e611c4d565b5b828204905092915050565b5f611cb482611113565b9150611cbf83611113565b9250828203905081811115611cd757611cd6611a6e565b5b92915050565b5f81519050919050565b5f82825260208201905092915050565b5f611d0182611cdd565b611d0b8185611ce7565b9350611d1b81856020860161131f565b611d2481611347565b840191505092915050565b5f81519050919050565b5f82825260208201905092915050565b5f819050602082019050919050565b604082015f820151611d6c5f85018261169a565b506020820151611d7f60208501826116cb565b50505050565b5f611d908383611d58565b60408301905092915050565b5f602082019050919050565b5f611db282611d2f565b611dbc8185611d39565b9350611dc783611d49565b805f5b83811015611df7578151611dde8882611d85565b9750611de983611d9c565b925050600181019050611dca565b5085935050505092915050565b5f60a083015f8301518482035f860152611e1e8282611cf7565b91505060208301518482036020860152611e388282611cf7565b91505060408301518482036040860152611e528282611da8565b9150506060830151611e67606086018261169a565b5060808301518482036080860152611e7f8282611cf7565b9150508091505092915050565b5f604082019050611e9f5f83018561151e565b8181036020830152611eb18184611e04565b90509392505050565b5f81519050611ec88161111c565b92915050565b5f60208284031215611ee357611ee2611013565b5b5f611ef084828501611eba565b91505092915050565b5f604082019050611f0c5f83018561123d565b611f19602083018461123d565b9392505050565b5f819050919050565b611f3281611f20565b8114611f3c575f80fd5b50565b5f81519050611f4d81611f29565b92915050565b5f60208284031215611f6857611f67611013565b5b5f611f7584828501611f3f565b91505092915050565b5f82825260208201905092915050565b5f611f9882611305565b611fa28185611f7e565b9350611fb281856020860161131f565b611fbb81611347565b840191505092915050565b5f606083015f8301518482035f860152611fe08282611f8e565b91505060208301518482036020860152611ffa8282611f8e565b915050604083015161200f60408601826116cb565b508091505092915050565b5f6020820190508181035f8301526120328184611fc6565b905092915050565b5f8115159050919050565b61204e8161203a565b82525050565b604082015f8201516120685f8501826116cb565b50602082015161207b6020850182612045565b50505050565b5f6040820190506120945f830184612054565b9291505056fea2646970667358221220867889e867ca3730081cfb6063cc0361fdad67386df5d4ab675ec81837de998a64736f6c63430008180033",
					"opcodes": "PUSH1 0x80 PUSH1 0x40 MSTORE CALLVALUE DUP1 ISZERO PUSH3 0x10 JUMPI PUSH0 DUP1 REVERT JUMPDEST POP PUSH1 0x40 MLOAD PUSH3 0x2230 CODESIZE SUB DUP1 PUSH3 0x2230 DUP4 CODECOPY DUP2 DUP2 ADD PUSH1 0x40 MSTORE DUP2 ADD SWAP1 PUSH3 0x36 SWAP2 SWAP1 PUSH3 0x122 JUMP JUMPDEST CALLER PUSH1 0x2 PUSH0 PUSH2 0x100 EXP DUP2 SLOAD DUP2 PUSH20 0xFFFFFFFFFFFFFFFFFFFFFFFFFFFFFFFFFFFFFFFF MUL NOT AND SWAP1 DUP4 PUSH20 0xFFFFFFFFFFFFFFFFFFFFFFFFFFFFFFFFFFFFFFFF AND MUL OR SWAP1 SSTORE POP DUP1 PUSH1 0x4 PUSH0 PUSH2 0x100 EXP DUP2 SLOAD DUP2 PUSH20 0xFFFFFFFFFFFFFFFFFFFFFFFFFFFFFFFFFFFFFFFF MUL NOT AND SWAP1 DUP4 PUSH20 0xFFFFFFFFFFFFFFFFFFFFFFFFFFFFFFFFFFFFFFFF AND MUL OR SWAP1 SSTORE POP POP PUSH3 0x152 JUMP JUMPDEST PUSH0 DUP1 REVERT JUMPDEST PUSH0 PUSH20 0xFFFFFFFFFFFFFFFFFFFFFFFFFFFFFFFFFFFFFFFF DUP3 AND SWAP1 POP SWAP2 SWAP1 POP JUMP JUMPDEST PUSH0 PUSH3 0xEC DUP3 PUSH3 0xC1 JUMP JUMPDEST SWAP1 POP SWAP2 SWAP1 POP JUMP JUMPDEST PUSH3 0xFE DUP2 PUSH3 0xE0 JUMP JUMPDEST DUP2 EQ PUSH3 0x109 JUMPI PUSH0 DUP1 REVERT JUMPDEST POP JUMP JUMPDEST PUSH0 DUP2 MLOAD SWAP1 POP PUSH3 0x11C DUP2 PUSH3 0xF3 JUMP JUMPDEST SWAP3 SWAP2 POP POP JUMP JUMPDEST PUSH0 PUSH1 0x20 DUP3 DUP5 SUB SLT ISZERO PUSH3 0x13A JUMPI PUSH3 0x139 PUSH3 0xBD JUMP JUMPDEST JUMPDEST PUSH0 PUSH3 0x149 DUP5 DUP3 DUP6 ADD PUSH3 0x10C JUMP JUMPDEST SWAP2 POP POP SWAP3 SWAP2 POP POP JUMP JUMPDEST PUSH2 0x20D0 DUP1 PUSH3 0x160 PUSH0 CODECOPY PUSH0 RETURN INVALID PUSH1 0x80 PUSH1 0x40 MSTORE PUSH1 0x4 CALLDATASIZE LT PUSH2 0x7E JUMPI PUSH0 CALLDATALOAD PUSH1 0xE0 SHR DUP1 PUSH4 0x821AA5D2 GT PUSH2 0x4D JUMPI DUP1 PUSH4 0x821AA5D2 EQ PUSH2 0x12D JUMPI DUP1 PUSH4 0x8DA5CB5B EQ PUSH2 0x149 JUMPI DUP1 PUSH4 0xA5A30B02 EQ PUSH2 0x173 JUMPI DUP1 PUSH4 0xD56D4F1A EQ PUSH2 0x19D JUMPI PUSH2 0x85 JUMP JUMPDEST DUP1 PUSH4 0x2E34B343 EQ PUSH2 0x89 JUMPI DUP1 PUSH4 0x3268CC56 EQ PUSH2 0xB1 JUMPI DUP1 PUSH4 0x5314AB19 EQ PUSH2 0xDB JUMPI DUP1 PUSH4 0x68233EEF EQ PUSH2 0x103 JUMPI PUSH2 0x85 JUMP JUMPDEST CALLDATASIZE PUSH2 0x85 JUMPI STOP JUMPDEST PUSH0 DUP1 REVERT JUMPDEST CALLVALUE DUP1 ISZERO PUSH2 0x94 JUMPI PUSH0 DUP1 REVERT JUMPDEST POP PUSH2 0xAF PUSH1 0x4 DUP1 CALLDATASIZE SUB DUP2 ADD SWAP1 PUSH2 0xAA SWAP2 SWAP1 PUSH2 0x1146 JUMP JUMPDEST PUSH2 0x1DB JUMP JUMPDEST STOP JUMPDEST CALLVALUE DUP1 ISZERO PUSH2 0xBC JUMPI PUSH0 DUP1 REVERT JUMPDEST POP PUSH2 0xC5 PUSH2 0x3B7 JUMP JUMPDEST PUSH1 0x40 MLOAD PUSH2 0xD2 SWAP2 SWAP1 PUSH2 0x11D9 JUMP JUMPDEST PUSH1 0x40 MLOAD DUP1 SWAP2 SUB SWAP1 RETURN JUMPDEST CALLVALUE DUP1 ISZERO PUSH2 0xE6 JUMPI PUSH0 DUP1 REVERT JUMPDEST POP PUSH2 0x101 PUSH1 0x4 DUP1 CALLDATASIZE SUB DUP2 ADD SWAP1 PUSH2 0xFC SWAP2 SWAP1 PUSH2 0x11F2 JUMP JUMPDEST PUSH2 0x3DC JUMP JUMPDEST STOP JUMPDEST CALLVALUE DUP1 ISZERO PUSH2 0x10E JUMPI PUSH0 DUP1 REVERT JUMPDEST POP PUSH2 0x117 PUSH2 0x4BA JUMP JUMPDEST PUSH1 0x40 MLOAD PUSH2 0x124 SWAP2 SWAP1 PUSH2 0x124C JUMP JUMPDEST PUSH1 0x40 MLOAD DUP1 SWAP2 SUB SWAP1 RETURN JUMPDEST PUSH2 0x147 PUSH1 0x4 DUP1 CALLDATASIZE SUB DUP2 ADD SWAP1 PUSH2 0x142 SWAP2 SWAP1 PUSH2 0x12BA JUMP JUMPDEST PUSH2 0x4C0 JUMP JUMPDEST STOP JUMPDEST CALLVALUE DUP1 ISZERO PUSH2 0x154 JUMPI PUSH0 DUP1 REVERT JUMPDEST POP PUSH2 0x15D PUSH2 0x926 JUMP JUMPDEST PUSH1 0x40 MLOAD PUSH2 0x16A SWAP2 SWAP1 PUSH2 0x11D9 JUMP JUMPDEST PUSH1 0x40 MLOAD DUP1 SWAP2 SUB SWAP1 RETURN JUMPDEST CALLVALUE DUP1 ISZERO PUSH2 0x17E JUMPI PUSH0 DUP1 REVERT JUMPDEST POP PUSH2 0x187 PUSH2 0x94B JUMP JUMPDEST PUSH1 0x40 MLOAD PUSH2 0x194 SWAP2 SWAP1 PUSH2 0x138F JUMP JUMPDEST PUSH1 0x40 MLOAD DUP1 SWAP2 SUB SWAP1 RETURN JUMPDEST CALLVALUE DUP1 ISZERO PUSH2 0x1A8 JUMPI PUSH0 DUP1 REVERT JUMPDEST POP PUSH2 0x1C3 PUSH1 0x4 DUP1 CALLDATASIZE SUB DUP2 ADD SWAP1 PUSH2 0x1BE SWAP2 SWAP1 PUSH2 0x14D7 JUMP JUMPDEST PUSH2 0x9D7 JUMP JUMPDEST PUSH1 0x40 MLOAD PUSH2 0x1D2 SWAP4 SWAP3 SWAP2 SWAP1 PUSH2 0x152D JUMP JUMPDEST PUSH1 0x40 MLOAD DUP1 SWAP2 SUB SWAP1 RETURN JUMPDEST PUSH1 0x2 PUSH0 SWAP1 SLOAD SWAP1 PUSH2 0x100 EXP SWAP1 DIV PUSH20 0xFFFFFFFFFFFFFFFFFFFFFFFFFFFFFFFFFFFFFFFF AND PUSH20 0xFFFFFFFFFFFFFFFFFFFFFFFFFFFFFFFFFFFFFFFF AND CALLER PUSH20 0xFFFFFFFFFFFFFFFFFFFFFFFFFFFFFFFFFFFFFFFF AND EQ PUSH2 0x26A JUMPI PUSH1 0x40 MLOAD PUSH32 0x8C379A000000000000000000000000000000000000000000000000000000000 DUP2 MSTORE PUSH1 0x4 ADD PUSH2 0x261 SWAP1 PUSH2 0x15AC JUMP JUMPDEST PUSH1 0x40 MLOAD DUP1 SWAP2 SUB SWAP1 REVERT JUMPDEST PUSH1 0x40 MLOAD DUP1 PUSH1 0x60 ADD PUSH1 0x40 MSTORE DUP1 DUP5 PUSH8 0xFFFFFFFFFFFFFFFF AND DUP2 MSTORE PUSH1 0x20 ADD DUP4 PUSH20 0xFFFFFFFFFFFFFFFFFFFFFFFFFFFFFFFFFFFFFFFF AND DUP2 MSTORE PUSH1 0x20 ADD DUP3 DUP2 MSTORE POP PUSH0 DUP7 DUP7 PUSH1 0x40 MLOAD PUSH2 0x2B6 SWAP3 SWAP2 SWAP1 PUSH2 0x15F8 JUMP JUMPDEST SWAP1 DUP2 MSTORE PUSH1 0x20 ADD PUSH1 0x40 MLOAD DUP1 SWAP2 SUB SWAP1 KECCAK256 PUSH0 DUP3 ADD MLOAD DUP2 PUSH0 ADD PUSH0 PUSH2 0x100 EXP DUP2 SLOAD DUP2 PUSH8 0xFFFFFFFFFFFFFFFF MUL NOT AND SWAP1 DUP4 PUSH8 0xFFFFFFFFFFFFFFFF AND MUL OR SWAP1 SSTORE POP PUSH1 0x20 DUP3 ADD MLOAD DUP2 PUSH0 ADD PUSH1 0x8 PUSH2 0x100 EXP DUP2 SLOAD DUP2 PUSH20 0xFFFFFFFFFFFFFFFFFFFFFFFFFFFFFFFFFFFFFFFF MUL NOT AND SWAP1 DUP4 PUSH20 0xFFFFFFFFFFFFFFFFFFFFFFFFFFFFFFFFFFFFFFFF AND MUL OR SWAP1 SSTORE POP PUSH1 0x40 DUP3 ADD MLOAD DUP2 PUSH1 0x1 ADD SSTORE SWAP1 POP POP DUP5 DUP5 PUSH1 0x40 MLOAD PUSH2 0x353 SWAP3 SWAP2 SWAP1 PUSH2 0x15F8 JUMP JUMPDEST PUSH1 0x40 MLOAD DUP1 SWAP2 SUB SWAP1 KECCAK256 PUSH32 0xB6CEAC5D9FE2C1255321F4B6432CA917A4E76DAD3F9DB0FBEFE81EF9A34FE652 PUSH0 DUP8 DUP8 PUSH1 0x40 MLOAD PUSH2 0x38D SWAP3 SWAP2 SWAP1 PUSH2 0x15F8 JUMP JUMPDEST SWAP1 DUP2 MSTORE PUSH1 0x20 ADD PUSH1 0x40 MLOAD DUP1 SWAP2 SUB SWAP1 KECCAK256 PUSH1 0x40 MLOAD PUSH2 0x3A8 SWAP2 SWAP1 PUSH2 0x1736 JUMP JUMPDEST PUSH1 0x40 MLOAD DUP1 SWAP2 SUB SWAP1 LOG2 POP POP POP POP POP JUMP JUMPDEST PUSH1 0x4 PUSH0 SWAP1 SLOAD SWAP1 PUSH2 0x100 EXP SWAP1 DIV PUSH20 0xFFFFFFFFFFFFFFFFFFFFFFFFFFFFFFFFFFFFFFFF AND DUP2 JUMP JUMPDEST PUSH1 0x2 PUSH0 SWAP1 SLOAD SWAP1 PUSH2 0x100 EXP SWAP1 DIV PUSH20 0xFFFFFFFFFFFFFFFFFFFFFFFFFFFFFFFFFFFFFFFF AND PUSH20 0xFFFFFFFFFFFFFFFFFFFFFFFFFFFFFFFFFFFFFFFF AND CALLER PUSH20 0xFFFFFFFFFFFFFFFFFFFFFFFFFFFFFFFFFFFFFFFF AND EQ PUSH2 0x46B JUMPI PUSH1 0x40 MLOAD PUSH32 0x8C379A000000000000000000000000000000000000000000000000000000000 DUP2 MSTORE PUSH1 0x4 ADD PUSH2 0x462 SWAP1 PUSH2 0x15AC JUMP JUMPDEST PUSH1 0x40 MLOAD DUP1 SWAP2 SUB SWAP1 REVERT JUMPDEST DUP2 DUP2 PUSH1 0x1 SWAP2 DUP3 PUSH2 0x47C SWAP3 SWAP2 SWAP1 PUSH2 0x1953 JUMP JUMPDEST POP PUSH32 0x788F7A94DCA4560C48744E99525FFFB5BE8E8CF86E3D94C70B3193C31F63BE74 DUP3 DUP3 PUSH1 0x40 MLOAD PUSH2 0x4AE SWAP3 SWAP2 SWAP1 PUSH2 0x1A4C JUMP JUMPDEST PUSH1 0x40 MLOAD DUP1 SWAP2 SUB SWAP1 LOG1 POP POP JUMP JUMPDEST PUSH1 0x3 SLOAD DUP2 JUMP JUMPDEST PUSH0 PUSH1 0x3 PUSH0 DUP2 SLOAD PUSH2 0x4CF SWAP1 PUSH2 0x1A9B JUMP JUMPDEST SWAP2 SWAP1 POP DUP2 SWAP1 SSTORE SWAP1 POP PUSH0 JUMPDEST DUP4 DUP4 SWAP1 POP DUP2 LT ISZERO PUSH2 0x8E5 JUMPI CALLDATASIZE DUP5 DUP5 DUP4 DUP2 DUP2 LT PUSH2 0x4F8 JUMPI PUSH2 0x4F7 PUSH2 0x1AE2 JUMP JUMPDEST JUMPDEST SWAP1 POP PUSH1 0x20 MUL DUP2 ADD SWAP1 PUSH2 0x50A SWAP2 SWAP1 PUSH2 0x1B1B JUMP JUMPDEST SWAP1 POP PUSH0 DUP1 DUP3 DUP1 PUSH0 ADD SWAP1 PUSH2 0x51D SWAP2 SWAP1 PUSH2 0x1B42 JUMP JUMPDEST PUSH1 0x40 MLOAD PUSH2 0x52B SWAP3 SWAP2 SWAP1 PUSH2 0x15F8 JUMP JUMPDEST SWAP1 DUP2 MSTORE PUSH1 0x20 ADD PUSH1 0x40 MLOAD DUP1 SWAP2 SUB SWAP1 KECCAK256 PUSH1 0x40 MLOAD DUP1 PUSH1 0x60 ADD PUSH1 0x40 MSTORE SWAP1 DUP2 PUSH0 DUP3 ADD PUSH0 SWAP1 SLOAD SWAP1 PUSH2 0x100 EXP SWAP1 DIV PUSH8 0xFFFFFFFFFFFFFFFF AND PUSH8 0xFFFFFFFFFFFFFFFF AND PUSH8 0xFFFFFFFFFFFFFFFF AND DUP2 MSTORE PUSH1 0x20 ADD PUSH0 DUP3 ADD PUSH1 0x8 SWAP1 SLOAD SWAP1 PUSH2 0x100 EXP SWAP1 DIV PUSH20 0xFFFFFFFFFFFFFFFFFFFFFFFFFFFFFFFFFFFFFFFF AND PUSH20 0xFFFFFFFFFFFFFFFFFFFFFFFFFFFFFFFFFFFFFFFF AND PUSH20 0xFFFFFFFFFFFFFFFFFFFFFFFFFFFFFFFFFFFFFFFF AND DUP2 MSTORE PUSH1 0x20 ADD PUSH1 0x1 DUP3 ADD SLOAD DUP2 MSTORE POP POP SWAP1 POP PUSH0 DUP1 DUP4 DUP1 PUSH1 0x20 ADD SWAP1 PUSH2 0x5E7 SWAP2 SWAP1 PUSH2 0x1B42 JUMP JUMPDEST PUSH1 0x40 MLOAD PUSH2 0x5F5 SWAP3 SWAP2 SWAP1 PUSH2 0x15F8 JUMP JUMPDEST SWAP1 DUP2 MSTORE PUSH1 0x20 ADD PUSH1 0x40 MLOAD DUP1 SWAP2 SUB SWAP1 KECCAK256 PUSH1 0x40 MLOAD DUP1 PUSH1 0x60 ADD PUSH1 0x40 MSTORE SWAP1 DUP2 PUSH0 DUP3 ADD PUSH0 SWAP1 SLOAD SWAP1 PUSH2 0x100 EXP SWAP1 DIV PUSH8 0xFFFFFFFFFFFFFFFF AND PUSH8 0xFFFFFFFFFFFFFFFF AND PUSH8 0xFFFFFFFFFFFFFFFF AND DUP2 MSTORE PUSH1 0x20 ADD PUSH0 DUP3 ADD PUSH1 0x8 SWAP1 SLOAD SWAP1 PUSH2 0x100 EXP SWAP1 DIV PUSH20 0xFFFFFFFFFFFFFFFFFFFFFFFFFFFFFFFFFFFFFFFF AND PUSH20 0xFFFFFFFFFFFFFFFFFFFFFFFFFFFFFFFFFFFFFFFF AND PUSH20 0xFFFFFFFFFFFFFFFFFFFFFFFFFFFFFFFFFFFFFFFF AND DUP2 MSTORE PUSH1 0x20 ADD PUSH1 0x1 DUP3 ADD SLOAD DUP2 MSTORE POP POP SWAP1 POP PUSH0 PUSH20 0xFFFFFFFFFFFFFFFFFFFFFFFFFFFFFFFFFFFFFFFF AND DUP3 PUSH1 0x20 ADD MLOAD PUSH20 0xFFFFFFFFFFFFFFFFFFFFFFFFFFFFFFFFFFFFFFFF AND EQ ISZERO DUP1 ISZERO PUSH2 0x70F JUMPI POP PUSH0 PUSH20 0xFFFFFFFFFFFFFFFFFFFFFFFFFFFFFFFFFFFFFFFF AND DUP2 PUSH1 0x20 ADD MLOAD PUSH20 0xFFFFFFFFFFFFFFFFFFFFFFFFFFFFFFFFFFFFFFFF AND EQ ISZERO JUMPDEST PUSH2 0x74E JUMPI PUSH1 0x40 MLOAD PUSH32 0x8C379A000000000000000000000000000000000000000000000000000000000 DUP2 MSTORE PUSH1 0x4 ADD PUSH2 0x745 SWAP1 PUSH2 0x1BEE JUMP JUMPDEST PUSH1 0x40 MLOAD DUP1 SWAP2 SUB SWAP1 REVERT JUMPDEST PUSH2 0x77C DUP3 DUP5 DUP1 PUSH1 0x40 ADD SWAP1 PUSH2 0x762 SWAP2 SWAP1 PUSH2 0x1B42 JUMP JUMPDEST DUP7 DUP1 PUSH1 0x60 ADD SWAP1 PUSH2 0x772 SWAP2 SWAP1 PUSH2 0x1B42 JUMP JUMPDEST DUP9 PUSH1 0x80 ADD CALLDATALOAD PUSH2 0xA46 JUMP JUMPDEST PUSH0 DUP3 PUSH1 0x40 ADD MLOAD DUP3 PUSH1 0x40 ADD MLOAD DUP6 PUSH1 0xA0 ADD CALLDATALOAD DUP7 PUSH1 0x80 ADD CALLDATALOAD PUSH2 0x79B SWAP2 SWAP1 PUSH2 0x1C0C JUMP JUMPDEST PUSH2 0x7A5 SWAP2 SWAP1 PUSH2 0x1C0C JUMP JUMPDEST PUSH2 0x7AF SWAP2 SWAP1 PUSH2 0x1C7A JUMP JUMPDEST SWAP1 POP PUSH2 0x7DB DUP3 DUP6 DUP1 PUSH1 0x60 ADD SWAP1 PUSH2 0x7C5 SWAP2 SWAP1 PUSH2 0x1B42 JUMP JUMPDEST DUP8 DUP1 PUSH1 0x40 ADD SWAP1 PUSH2 0x7D5 SWAP2 SWAP1 PUSH2 0x1B42 JUMP JUMPDEST DUP7 PUSH2 0xA46 JUMP JUMPDEST DUP4 PUSH1 0xA0 ADD CALLDATALOAD DUP5 PUSH1 0xC0 ADD CALLDATALOAD GT ISZERO PUSH2 0x8D4 JUMPI PUSH0 DUP4 PUSH1 0x40 ADD MLOAD DUP4 PUSH1 0x40 ADD MLOAD DUP7 PUSH1 0xA0 ADD CALLDATALOAD DUP8 PUSH1 0xC0 ADD CALLDATALOAD PUSH2 0x80A SWAP2 SWAP1 PUSH2 0x1CAA JUMP JUMPDEST DUP8 PUSH1 0x80 ADD CALLDATALOAD PUSH2 0x819 SWAP2 SWAP1 PUSH2 0x1C0C JUMP JUMPDEST PUSH2 0x823 SWAP2 SWAP1 PUSH2 0x1C0C JUMP JUMPDEST PUSH2 0x82D SWAP2 SWAP1 PUSH2 0x1C7A JUMP JUMPDEST SWAP1 POP PUSH2 0x8D2 DUP4 DUP7 DUP1 PUSH1 0x60 ADD SWAP1 PUSH2 0x843 SWAP2 SWAP1 PUSH2 0x1B42 JUMP JUMPDEST PUSH1 0x1 DUP1 SLOAD PUSH2 0x850 SWAP1 PUSH2 0x1786 JUMP JUMPDEST DUP1 PUSH1 0x1F ADD PUSH1 0x20 DUP1 SWAP2 DIV MUL PUSH1 0x20 ADD PUSH1 0x40 MLOAD SWAP1 DUP2 ADD PUSH1 0x40 MSTORE DUP1 SWAP3 SWAP2 SWAP1 DUP2 DUP2 MSTORE PUSH1 0x20 ADD DUP3 DUP1 SLOAD PUSH2 0x87C SWAP1 PUSH2 0x1786 JUMP JUMPDEST DUP1 ISZERO PUSH2 0x8C7 JUMPI DUP1 PUSH1 0x1F LT PUSH2 0x89E JUMPI PUSH2 0x100 DUP1 DUP4 SLOAD DIV MUL DUP4 MSTORE SWAP2 PUSH1 0x20 ADD SWAP2 PUSH2 0x8C7 JUMP JUMPDEST DUP3 ADD SWAP2 SWAP1 PUSH0 MSTORE PUSH1 0x20 PUSH0 KECCAK256 SWAP1 JUMPDEST DUP2 SLOAD DUP2 MSTORE SWAP1 PUSH1 0x1 ADD SWAP1 PUSH1 0x20 ADD DUP1 DUP4 GT PUSH2 0x8AA JUMPI DUP3 SWAP1 SUB PUSH1 0x1F AND DUP3 ADD SWAP2 JUMPDEST POP POP POP POP POP DUP6 PUSH2 0xC75 JUMP JUMPDEST POP JUMPDEST POP POP POP POP DUP1 DUP1 PUSH1 0x1 ADD SWAP2 POP POP PUSH2 0x4D9 JUMP JUMPDEST POP DUP1 PUSH32 0xC409C9A7918EB001EF067382E0BAC7F1EEEB6F5FF95AA585BE7E4255FCA64882 DUP5 DUP5 SWAP1 POP PUSH1 0x40 MLOAD PUSH2 0x919 SWAP2 SWAP1 PUSH2 0x124C JUMP JUMPDEST PUSH1 0x40 MLOAD DUP1 SWAP2 SUB SWAP1 LOG2 POP POP POP JUMP JUMPDEST PUSH1 0x2 PUSH0 SWAP1 SLOAD SWAP1 PUSH2 0x100 EXP SWAP1 DIV PUSH20 0xFFFFFFFFFFFFFFFFFFFFFFFFFFFFFFFFFFFFFFFF AND DUP2 JUMP JUMPDEST PUSH1 0x1 DUP1 SLOAD PUSH2 0x958 SWAP1 PUSH2 0x1786 JUMP JUMPDEST DUP1 PUSH1 0x1F ADD PUSH1 0x20 DUP1 SWAP2 DIV MUL PUSH1 0x20 ADD PUSH1 0x40 MLOAD SWAP1 DUP2 ADD PUSH1 0x40 MSTORE DUP1 SWAP3 SWAP2 SWAP1 DUP2 DUP2 MSTORE PUSH1 0x20 ADD DUP3 DUP1 SLOAD PUSH2 0x984 SWAP1 PUSH2 0x1786 JUMP JUMPDEST DUP1 ISZERO PUSH2 0x9CF JUMPI DUP1 PUSH1 0x1F LT PUSH2 0x9A6 JUMPI PUSH2 0x100 DUP1 DUP4 SLOAD DIV MUL DUP4 MSTORE SWAP2 PUSH1 0x20 ADD SWAP2 PUSH2 0x9CF JUMP JUMPDEST DUP3 ADD SWAP2 SWAP1 PUSH0 MSTORE PUSH1 0x20 PUSH0 KECCAK256 SWAP1 JUMPDEST DUP2 SLOAD DUP2 MSTORE SWAP1 PUSH1 0x1 ADD SWAP1 PUSH1 0x20 ADD DUP1 DUP4 GT PUSH2 0x9B2 JUMPI DUP3 SWAP1 SUB PUSH1 0x1F AND DUP3 ADD SWAP2 JUMPDEST POP POP POP POP POP DUP2 JUMP JUMPDEST PUSH0 DUP2 DUP1 MLOAD PUSH1 0x20 DUP2 ADD DUP3 ADD DUP1 MLOAD DUP5 DUP3 MSTORE PUSH1 0x20 DUP4 ADD PUSH1 0x20 DUP6 ADD KECCAK256 DUP2 DUP4 MSTORE DUP1 SWAP6 POP POP POP POP POP POP PUSH0 SWAP2 POP SWAP1 POP DUP1 PUSH0 ADD PUSH0 SWAP1 SLOAD SWAP1 PUSH2 0x100 EXP SWAP1 DIV PUSH8 0xFFFFFFFFFFFFFFFF AND SWAP1 DUP1 PUSH0 ADD PUSH1 0x8 SWAP1 SLOAD SWAP1 PUSH2 0x100 EXP SWAP1 DIV PUSH20 0xFFFFFFFFFFFFFFFFFFFFFFFFFFFFFFFFFFFFFFFF AND SWAP1 DUP1 PUSH1 0x1 ADD SLOAD SWAP1 POP DUP4 JUMP JUMPDEST PUSH0 PUSH1 0x40 MLOAD DUP1 PUSH1 0x60 ADD PUSH1 0x40 MSTORE DUP1 DUP8 DUP8 DUP1 DUP1 PUSH1 0x1F ADD PUSH1 0x20 DUP1 SWAP2 DIV MUL PUSH1 0x20 ADD PUSH1 0x40 MLOAD SWAP1 DUP2 ADD PUSH1 0x40 MSTORE DUP1 SWAP4 SWAP3 SWAP2 SWAP1 DUP2 DUP2 MSTORE PUSH1 0x20 ADD DUP4 DUP4 DUP1 DUP3 DUP5 CALLDATACOPY PUSH0 DUP2 DUP5 ADD MSTORE PUSH1 0x1F NOT PUSH1 0x1F DUP3 ADD AND SWAP1 POP DUP1 DUP4 ADD SWAP3 POP POP POP POP POP POP POP DUP2 MSTORE PUSH1 0x20 ADD DUP6 DUP6 DUP1 DUP1 PUSH1 0x1F ADD PUSH1 0x20 DUP1 SWAP2 DIV MUL PUSH1 0x20 ADD PUSH1 0x40 MLOAD SWAP1 DUP2 ADD PUSH1 0x40 MSTORE DUP1 SWAP4 SWAP3 SWAP2 SWAP1 DUP2 DUP2 MSTORE PUSH1 0x20 ADD DUP4 DUP4 DUP1 DUP3 DUP5 CALLDATACOPY PUSH0 DUP2 DUP5 ADD MSTORE PUSH1 0x1F NOT PUSH1 0x1F DUP3 ADD AND SWAP1 POP DUP1 DUP4 ADD SWAP3 POP POP POP POP POP POP POP DUP2 MSTORE PUSH1 0x20 ADD DUP4 DUP2 MSTORE POP SWAP1 POP PUSH0 PUSH2 0xAFA DUP9 PUSH1 0x20 ADD MLOAD DUP4 PUSH0 PUSH2 0xE19 JUMP JUMPDEST SWAP1 POP PUSH0 PUSH1 0x4 PUSH0 SWAP1 SLOAD SWAP1 PUSH2 0x100 EXP SWAP1 DIV PUSH20 0xFFFFFFFFFFFFFFFFFFFFFFFFFFFFFFFFFFFFFFFF AND SWAP1 POP PUSH0 DUP2 PUSH20 0xFFFFFFFFFFFFFFFFFFFFFFFFFFFFFFFFFFFFFFFF AND PUSH4 0x20487DED DUP12 PUSH0 ADD MLOAD DUP6 PUSH1 0x40 MLOAD DUP4 PUSH4 0xFFFFFFFF AND PUSH1 0xE0 SHL DUP2 MSTORE PUSH1 0x4 ADD PUSH2 0xB60 SWAP3 SWAP2 SWAP1 PUSH2 0x1E8C JUMP JUMPDEST PUSH1 0x20 PUSH1 0x40 MLOAD DUP1 DUP4 SUB DUP2 DUP7 GAS STATICCALL ISZERO DUP1 ISZERO PUSH2 0xB7B JUMPI RETURNDATASIZE PUSH0 DUP1 RETURNDATACOPY RETURNDATASIZE PUSH0 REVERT JUMPDEST POP POP POP POP PUSH1 0x40 MLOAD RETURNDATASIZE PUSH1 0x1F NOT PUSH1 0x1F DUP3 ADD AND DUP3 ADD DUP1 PUSH1 0x40 MSTORE POP DUP2 ADD SWAP1 PUSH2 0xB9F SWAP2 SWAP1 PUSH2 0x1ECE JUMP JUMPDEST SWAP1 POP SELFBALANCE DUP2 GT ISZERO PUSH2 0xBE8 JUMPI SELFBALANCE DUP2 PUSH1 0x40 MLOAD PUSH32 0x8F0F420600000000000000000000000000000000000000000000000000000000 DUP2 MSTORE PUSH1 0x4 ADD PUSH2 0xBDF SWAP3 SWAP2 SWAP1 PUSH2 0x1EF9 JUMP JUMPDEST PUSH1 0x40 MLOAD DUP1 SWAP2 SUB SWAP1 REVERT JUMPDEST DUP2 PUSH20 0xFFFFFFFFFFFFFFFFFFFFFFFFFFFFFFFFFFFFFFFF AND PUSH4 0x96F4E9F9 DUP3 DUP13 PUSH0 ADD MLOAD DUP7 PUSH1 0x40 MLOAD DUP5 PUSH4 0xFFFFFFFF AND PUSH1 0xE0 SHL DUP2 MSTORE PUSH1 0x4 ADD PUSH2 0xC27 SWAP3 SWAP2 SWAP1 PUSH2 0x1E8C JUMP JUMPDEST PUSH1 0x20 PUSH1 0x40 MLOAD DUP1 DUP4 SUB DUP2 DUP6 DUP9 GAS CALL ISZERO DUP1 ISZERO PUSH2 0xC43 JUMPI RETURNDATASIZE PUSH0 DUP1 RETURNDATACOPY RETURNDATASIZE PUSH0 REVERT JUMPDEST POP POP POP POP POP PUSH1 0x40 MLOAD RETURNDATASIZE PUSH1 0x1F NOT PUSH1 0x1F DUP3 ADD AND DUP3 ADD DUP1 PUSH1 0x40 MSTORE POP DUP2 ADD SWAP1 PUSH2 0xC68 SWAP2 SWAP1 PUSH2 0x1F53 JUMP JUMPDEST POP POP POP POP POP POP POP POP POP POP POP JUMP JUMPDEST PUSH0 PUSH1 0x40 MLOAD DUP1 PUSH1 0x60 ADD PUSH1 0x40 MSTORE DUP1 DUP7 DUP7 DUP1 DUP1 PUSH1 0x1F ADD PUSH1 0x20 DUP1 SWAP2 DIV MUL PUSH1 0x20 ADD PUSH1 0x40 MLOAD SWAP1 DUP2 ADD PUSH1 0x40 MSTORE DUP1 SWAP4 SWAP3 SWAP2 SWAP1 DUP2 DUP2 MSTORE PUSH1 0x20 ADD DUP4 DUP4 DUP1 DUP3 DUP5 CALLDATACOPY PUSH0 DUP2 DUP5 ADD MSTORE PUSH1 0x1F NOT PUSH1 0x1F DUP3 ADD AND SWAP1 POP DUP1 DUP4 ADD SWAP3 POP POP POP POP POP POP POP DUP2 MSTORE PUSH1 0x20 ADD DUP5 DUP2 MSTORE PUSH1 0x20 ADD DUP4 DUP2 MSTORE POP SWAP1 POP PUSH0 PUSH2 0xCE6 DUP8 PUSH1 0x20 ADD MLOAD DUP4 PUSH0 PUSH2 0xE19 JUMP JUMPDEST SWAP1 POP PUSH0 PUSH1 0x4 PUSH0 SWAP1 SLOAD SWAP1 PUSH2 0x100 EXP SWAP1 DIV PUSH20 0xFFFFFFFFFFFFFFFFFFFFFFFFFFFFFFFFFFFFFFFF AND SWAP1 POP PUSH0 DUP2 PUSH20 0xFFFFFFFFFFFFFFFFFFFFFFFFFFFFFFFFFFFFFFFF AND PUSH4 0x20487DED DUP11 PUSH0 ADD MLOAD DUP6 PUSH1 0x40 MLOAD DUP4 PUSH4 0xFFFFFFFF AND PUSH1 0xE0 SHL DUP2 MSTORE PUSH1 0x4 ADD PUSH2 0xD4C SWAP3 SWAP2 SWAP1 PUSH2 0x1E8C JUMP JUMPDEST PUSH1 0x20 PUSH1 0x40 MLOAD DUP1 DUP4 SUB DUP2 DUP7 GAS STATICCALL ISZERO DUP1 ISZERO PUSH2 0xD67 JUMPI RETURNDATASIZE PUSH0 DUP1 RETURNDATACOPY RETURNDATASIZE PUSH0 REVERT JUMPDEST POP POP POP POP PUSH1 0x40 MLOAD RETURNDATASIZE PUSH1 0x1F NOT PUSH1 0x1F DUP3 ADD AND DUP3 ADD DUP1 PUSH1 0x40 MSTORE POP DUP2 ADD SWAP1 PUSH2 0xD8B SWAP2 SWAP1 PUSH2 0x1ECE JUMP JUMPDEST SWAP1 POP DUP2 PUSH20 0xFFFFFFFFFFFFFFFFFFFFFFFFFFFFFFFFFFFFFFFF AND PUSH4 0x96F4E9F9 DUP3 DUP12 PUSH0 ADD MLOAD DUP7 PUSH1 0x40 MLOAD DUP5 PUSH4 0xFFFFFFFF AND PUSH1 0xE0 SHL DUP2 MSTORE PUSH1 0x4 ADD PUSH2 0xDCC SWAP3 SWAP2 SWAP1 PUSH2 0x1E8C JUMP JUMPDEST PUSH1 0x20 PUSH1 0x40 MLOAD DUP1 DUP4 SUB DUP2 DUP6 DUP9 GAS CALL ISZERO DUP1 ISZERO PUSH2 0xDE8 JUMPI RETURNDATASIZE PUSH0 DUP1 RETURNDATACOPY RETURNDATASIZE PUSH0 REVERT JUMPDEST POP POP POP POP POP PUSH1 0x40 MLOAD RETURNDATASIZE PUSH1 0x1F NOT PUSH1 0x1F DUP3 ADD AND DUP3 ADD DUP1 PUSH1 0x40 MSTORE POP DUP2 ADD SWAP1 PUSH2 0xE0D SWAP2 SWAP1 PUSH2 0x1F53 JUMP JUMPDEST POP POP POP POP POP POP POP POP POP POP JUMP JUMPDEST PUSH2 0xE21 PUSH2 0xF98 JUMP JUMPDEST PUSH1 0x40 MLOAD DUP1 PUSH1 0xA0 ADD PUSH1 0x40 MSTORE DUP1 DUP6 PUSH1 0x40 MLOAD PUSH1 0x20 ADD PUSH2 0xE3D SWAP2 SWAP1 PUSH2 0x11D9 JUMP JUMPDEST PUSH1 0x40 MLOAD PUSH1 0x20 DUP2 DUP4 SUB SUB DUP2 MSTORE SWAP1 PUSH1 0x40 MSTORE DUP2 MSTORE PUSH1 0x20 ADD DUP5 PUSH1 0x40 MLOAD PUSH1 0x20 ADD PUSH2 0xE62 SWAP2 SWAP1 PUSH2 0x201A JUMP JUMPDEST PUSH1 0x40 MLOAD PUSH1 0x20 DUP2 DUP4 SUB SUB DUP2 MSTORE SWAP1 PUSH1 0x40 MSTORE DUP2 MSTORE PUSH1 0x20 ADD PUSH0 PUSH8 0xFFFFFFFFFFFFFFFF DUP2 GT ISZERO PUSH2 0xE90 JUMPI PUSH2 0xE8F PUSH2 0x13B3 JUMP JUMPDEST JUMPDEST PUSH1 0x40 MLOAD SWAP1 DUP1 DUP3 MSTORE DUP1 PUSH1 0x20 MUL PUSH1 0x20 ADD DUP3 ADD PUSH1 0x40 MSTORE DUP1 ISZERO PUSH2 0xEC9 JUMPI DUP2 PUSH1 0x20 ADD JUMPDEST PUSH2 0xEB6 PUSH2 0xFDC JUMP JUMPDEST DUP2 MSTORE PUSH1 0x20 ADD SWAP1 PUSH1 0x1 SWAP1 SUB SWAP1 DUP2 PUSH2 0xEAE JUMPI SWAP1 POP JUMPDEST POP DUP2 MSTORE PUSH1 0x20 ADD DUP4 PUSH20 0xFFFFFFFFFFFFFFFFFFFFFFFFFFFFFFFFFFFFFFFF AND DUP2 MSTORE PUSH1 0x20 ADD PUSH2 0xF0D PUSH1 0x40 MLOAD DUP1 PUSH1 0x40 ADD PUSH1 0x40 MSTORE DUP1 PUSH3 0xF4240 DUP2 MSTORE PUSH1 0x20 ADD PUSH0 ISZERO ISZERO DUP2 MSTORE POP PUSH2 0xF19 JUMP JUMPDEST DUP2 MSTORE POP SWAP1 POP SWAP4 SWAP3 POP POP POP JUMP JUMPDEST PUSH1 0x60 PUSH4 0x181DCF10 PUSH1 0xE0 SHL DUP3 PUSH1 0x40 MLOAD PUSH1 0x24 ADD PUSH2 0xF34 SWAP2 SWAP1 PUSH2 0x2081 JUMP JUMPDEST PUSH1 0x40 MLOAD PUSH1 0x20 DUP2 DUP4 SUB SUB DUP2 MSTORE SWAP1 PUSH1 0x40 MSTORE SWAP1 PUSH28 0xFFFFFFFFFFFFFFFFFFFFFFFFFFFFFFFFFFFFFFFFFFFFFFFFFFFFFFFF NOT AND PUSH1 0x20 DUP3 ADD DUP1 MLOAD PUSH28 0xFFFFFFFFFFFFFFFFFFFFFFFFFFFFFFFFFFFFFFFFFFFFFFFFFFFFFFFF DUP4 DUP2 DUP4 AND OR DUP4 MSTORE POP POP POP POP SWAP1 POP SWAP2 SWAP1 POP JUMP JUMPDEST PUSH1 0x40 MLOAD DUP1 PUSH1 0xA0 ADD PUSH1 0x40 MSTORE DUP1 PUSH1 0x60 DUP2 MSTORE PUSH1 0x20 ADD PUSH1 0x60 DUP2 MSTORE PUSH1 0x20 ADD PUSH1 0x60 DUP2 MSTORE PUSH1 0x20 ADD PUSH0 PUSH20 0xFFFFFFFFFFFFFFFFFFFFFFFFFFFFFFFFFFFFFFFF AND DUP2 MSTORE PUSH1 0x20 ADD PUSH1 0x60 DUP2 MSTORE POP SWAP1 JUMP JUMPDEST PUSH1 0x40 MLOAD DUP1 PUSH1 0x40 ADD PUSH1 0x40 MSTORE DUP1 PUSH0 PUSH20 0xFFFFFFFFFFFFFFFFFFFFFFFFFFFFFFFFFFFFFFFF AND DUP2 MSTORE PUSH1 0x20 ADD PUSH0 DUP2 MSTORE POP SWAP1 JUMP JUMPDEST PUSH0 PUSH1 0x40 MLOAD SWAP1 POP SWAP1 JUMP JUMPDEST PUSH0 DUP1 REVERT JUMPDEST PUSH0 DUP1 REVERT JUMPDEST PUSH0 DUP1 REVERT JUMPDEST PUSH0 DUP1 REVERT JUMPDEST PUSH0 DUP1 REVERT JUMPDEST PUSH0 DUP1 DUP4 PUSH1 0x1F DUP5 ADD SLT PUSH2 0x103C JUMPI PUSH2 0x103B PUSH2 0x101B JUMP JUMPDEST JUMPDEST DUP3 CALLDATALOAD SWAP1 POP PUSH8 0xFFFFFFFFFFFFFFFF DUP2 GT ISZERO PUSH2 0x1059 JUMPI PUSH2 0x1058 PUSH2 0x101F JUMP JUMPDEST JUMPDEST PUSH1 0x20 DUP4 ADD SWAP2 POP DUP4 PUSH1 0x1 DUP3 MUL DUP4 ADD GT ISZERO PUSH2 0x1075 JUMPI PUSH2 0x1074 PUSH2 0x1023 JUMP JUMPDEST JUMPDEST SWAP3 POP SWAP3 SWAP1 POP JUMP JUMPDEST PUSH0 PUSH8 0xFFFFFFFFFFFFFFFF DUP3 AND SWAP1 POP SWAP2 SWAP1 POP JUMP JUMPDEST PUSH2 0x1098 DUP2 PUSH2 0x107C JUMP JUMPDEST DUP2 EQ PUSH2 0x10A2 JUMPI PUSH0 DUP1 REVERT JUMPDEST POP JUMP JUMPDEST PUSH0 DUP2 CALLDATALOAD SWAP1 POP PUSH2 0x10B3 DUP2 PUSH2 0x108F JUMP JUMPDEST SWAP3 SWAP2 POP POP JUMP JUMPDEST PUSH0 PUSH20 0xFFFFFFFFFFFFFFFFFFFFFFFFFFFFFFFFFFFFFFFF DUP3 AND SWAP1 POP SWAP2 SWAP1 POP JUMP JUMPDEST PUSH0 PUSH2 0x10E2 DUP3 PUSH2 0x10B9 JUMP JUMPDEST SWAP1 POP SWAP2 SWAP1 POP JUMP JUMPDEST PUSH2 0x10F2 DUP2 PUSH2 0x10D8 JUMP JUMPDEST DUP2 EQ PUSH2 0x10FC JUMPI PUSH0 DUP1 REVERT JUMPDEST POP JUMP JUMPDEST PUSH0 DUP2 CALLDATALOAD SWAP1 POP PUSH2 0x110D DUP2 PUSH2 0x10E9 JUMP JUMPDEST SWAP3 SWAP2 POP POP JUMP JUMPDEST PUSH0 DUP2 SWAP1 POP SWAP2 SWAP1 POP JUMP JUMPDEST PUSH2 0x1125 DUP2 PUSH2 0x1113 JUMP JUMPDEST DUP2 EQ PUSH2 0x112F JUMPI PUSH0 DUP1 REVERT JUMPDEST POP JUMP JUMPDEST PUSH0 DUP2 CALLDATALOAD SWAP1 POP PUSH2 0x1140 DUP2 PUSH2 0x111C JUMP JUMPDEST SWAP3 SWAP2 POP POP JUMP JUMPDEST PUSH0 DUP1 PUSH0 DUP1 PUSH0 PUSH1 0x80 DUP7 DUP9 SUB SLT ISZERO PUSH2 0x115F JUMPI PUSH2 0x115E PUSH2 0x1013 JUMP JUMPDEST JUMPDEST PUSH0 DUP7 ADD CALLDATALOAD PUSH8 0xFFFFFFFFFFFFFFFF DUP2 GT ISZERO PUSH2 0x117C JUMPI PUSH2 0x117B PUSH2 0x1017 JUMP JUMPDEST JUMPDEST PUSH2 0x1188 DUP9 DUP3 DUP10 ADD PUSH2 0x1027 JUMP JUMPDEST SWAP6 POP SWAP6 POP POP PUSH1 0x20 PUSH2 0x119B DUP9 DUP3 DUP10 ADD PUSH2 0x10A5 JUMP JUMPDEST SWAP4 POP POP PUSH1 0x40 PUSH2 0x11AC DUP9 DUP3 DUP10 ADD PUSH2 0x10FF JUMP JUMPDEST SWAP3 POP POP PUSH1 0x60 PUSH2 0x11BD DUP9 DUP3 DUP10 ADD PUSH2 0x1132 JUMP JUMPDEST SWAP2 POP POP SWAP3 SWAP6 POP SWAP3 SWAP6 SWAP1 SWAP4 POP JUMP JUMPDEST PUSH2 0x11D3 DUP2 PUSH2 0x10D8 JUMP JUMPDEST DUP3 MSTORE POP POP JUMP JUMPDEST PUSH0 PUSH1 0x20 DUP3 ADD SWAP1 POP PUSH2 0x11EC PUSH0 DUP4 ADD DUP5 PUSH2 0x11CA JUMP JUMPDEST SWAP3 SWAP2 POP POP JUMP JUMPDEST PUSH0 DUP1 PUSH1 0x20 DUP4 DUP6 SUB SLT ISZERO PUSH2 0x1208 JUMPI PUSH2 0x1207 PUSH2 0x1013 JUMP JUMPDEST JUMPDEST PUSH0 DUP4 ADD CALLDATALOAD PUSH8 0xFFFFFFFFFFFFFFFF DUP2 GT ISZERO PUSH2 0x1225 JUMPI PUSH2 0x1224 PUSH2 0x1017 JUMP JUMPDEST JUMPDEST PUSH2 0x1231 DUP6 DUP3 DUP7 ADD PUSH2 0x1027 JUMP JUMPDEST SWAP3 POP SWAP3 POP POP SWAP3 POP SWAP3 SWAP1 POP JUMP JUMPDEST PUSH2 0x1246 DUP2 PUSH2 0x1113 JUMP JUMPDEST DUP3 MSTORE POP POP JUMP JUMPDEST PUSH0 PUSH1 0x20 DUP3 ADD SWAP1 POP PUSH2 0x125F PUSH0 DUP4 ADD DUP5 PUSH2 0x123D JUMP JUMPDEST SWAP3 SWAP2 POP POP JUMP JUMPDEST PUSH0 DUP1 DUP4 PUSH1 0x1F DUP5 ADD SLT PUSH2 0x127A JUMPI PUSH2 0x1279 PUSH2 0x101B JUMP JUMPDEST JUMPDEST DUP3 CALLDATALOAD SWAP1 POP PUSH8 0xFFFFFFFFFFFFFFFF DUP2 GT ISZERO PUSH2 0x1297 JUMPI PUSH2 0x1296 PUSH2 0x101F JUMP JUMPDEST JUMPDEST PUSH1 0x20 DUP4 ADD SWAP2 POP DUP4 PUSH1 0x20 DUP3 MUL DUP4 ADD GT ISZERO PUSH2 0x12B3 JUMPI PUSH2 0x12B2 PUSH2 0x1023 JUMP JUMPDEST JUMPDEST SWAP3 POP SWAP3 SWAP1 POP JUMP JUMPDEST PUSH0 DUP1 PUSH1 0x20 DUP4 DUP6 SUB SLT ISZERO PUSH2 0x12D0 JUMPI PUSH2 0x12CF PUSH2 0x1013 JUMP JUMPDEST JUMPDEST PUSH0 DUP4 ADD CALLDATALOAD PUSH8 0xFFFFFFFFFFFFFFFF DUP2 GT ISZERO PUSH2 0x12ED JUMPI PUSH2 0x12EC PUSH2 0x1017 JUMP JUMPDEST JUMPDEST PUSH2 0x12F9 DUP6 DUP3 DUP7 ADD PUSH2 0x1265 JUMP JUMPDEST SWAP3 POP SWAP3 POP POP SWAP3 POP SWAP3 SWAP1 POP JUMP JUMPDEST PUSH0 DUP2 MLOAD SWAP1 POP SWAP2 SWAP1 POP JUMP JUMPDEST PUSH0 DUP3 DUP3 MSTORE PUSH1 0x20 DUP3 ADD SWAP1 POP SWAP3 SWAP2 POP POP JUMP JUMPDEST PUSH0 JUMPDEST DUP4 DUP2 LT ISZERO PUSH2 0x133C JUMPI DUP1 DUP3 ADD MLOAD DUP2 DUP5 ADD MSTORE PUSH1 0x20 DUP2 ADD SWAP1 POP PUSH2 0x1321 JUMP JUMPDEST PUSH0 DUP5 DUP5 ADD MSTORE POP POP POP POP JUMP JUMPDEST PUSH0 PUSH1 0x1F NOT PUSH1 0x1F DUP4 ADD AND SWAP1 POP SWAP2 SWAP1 POP JUMP JUMPDEST PUSH0 PUSH2 0x1361 DUP3 PUSH2 0x1305 JUMP JUMPDEST PUSH2 0x136B DUP2 DUP6 PUSH2 0x130F JUMP JUMPDEST SWAP4 POP PUSH2 0x137B DUP2 DUP6 PUSH1 0x20 DUP7 ADD PUSH2 0x131F JUMP JUMPDEST PUSH2 0x1384 DUP2 PUSH2 0x1347 JUMP JUMPDEST DUP5 ADD SWAP2 POP POP SWAP3 SWAP2 POP POP JUMP JUMPDEST PUSH0 PUSH1 0x20 DUP3 ADD SWAP1 POP DUP2 DUP2 SUB PUSH0 DUP4 ADD MSTORE PUSH2 0x13A7 DUP2 DUP5 PUSH2 0x1357 JUMP JUMPDEST SWAP1 POP SWAP3 SWAP2 POP POP JUMP JUMPDEST PUSH0 DUP1 REVERT JUMPDEST PUSH32 0x4E487B7100000000000000000000000000000000000000000000000000000000 PUSH0 MSTORE PUSH1 0x41 PUSH1 0x4 MSTORE PUSH1 0x24 PUSH0 REVERT JUMPDEST PUSH2 0x13E9 DUP3 PUSH2 0x1347 JUMP JUMPDEST DUP2 ADD DUP2 DUP2 LT PUSH8 0xFFFFFFFFFFFFFFFF DUP3 GT OR ISZERO PUSH2 0x1408 JUMPI PUSH2 0x1407 PUSH2 0x13B3 JUMP JUMPDEST JUMPDEST DUP1 PUSH1 0x40 MSTORE POP POP POP JUMP JUMPDEST PUSH0 PUSH2 0x141A PUSH2 0x100A JUMP JUMPDEST SWAP1 POP PUSH2 0x1426 DUP3 DUP3 PUSH2 0x13E0 JUMP JUMPDEST SWAP2 SWAP1 POP JUMP JUMPDEST PUSH0 PUSH8 0xFFFFFFFFFFFFFFFF DUP3 GT ISZERO PUSH2 0x1445 JUMPI PUSH2 0x1444 PUSH2 0x13B3 JUMP JUMPDEST JUMPDEST PUSH2 0x144E DUP3 PUSH2 0x1347 JUMP JUMPDEST SWAP1 POP PUSH1 0x20 DUP2 ADD SWAP1 POP SWAP2 SWAP1 POP JUMP JUMPDEST DUP3 DUP2 DUP4 CALLDATACOPY PUSH0 DUP4 DUP4 ADD MSTORE POP POP POP JUMP JUMPDEST PUSH0 PUSH2 0x147B PUSH2 0x1476 DUP5 PUSH2 0x142B JUMP JUMPDEST PUSH2 0x1411 JUMP JUMPDEST SWAP1 POP DUP3 DUP2 MSTORE PUSH1 0x20 DUP2 ADD DUP5 DUP5 DUP5 ADD GT ISZERO PUSH2 0x1497 JUMPI PUSH2 0x1496 PUSH2 0x13AF JUMP JUMPDEST JUMPDEST PUSH2 0x14A2 DUP5 DUP3 DUP6 PUSH2 0x145B JUMP JUMPDEST POP SWAP4 SWAP3 POP POP POP JUMP JUMPDEST PUSH0 DUP3 PUSH1 0x1F DUP4 ADD SLT PUSH2 0x14BE JUMPI PUSH2 0x14BD PUSH2 0x101B JUMP JUMPDEST JUMPDEST DUP2 CALLDATALOAD PUSH2 0x14CE DUP5 DUP3 PUSH1 0x20 DUP7 ADD PUSH2 0x1469 JUMP JUMPDEST SWAP2 POP POP SWAP3 SWAP2 POP POP JUMP JUMPDEST PUSH0 PUSH1 0x20 DUP3 DUP5 SUB SLT ISZERO PUSH2 0x14EC JUMPI PUSH2 0x14EB PUSH2 0x1013 JUMP JUMPDEST JUMPDEST PUSH0 DUP3 ADD CALLDATALOAD PUSH8 0xFFFFFFFFFFFFFFFF DUP2 GT ISZERO PUSH2 0x1509 JUMPI PUSH2 0x1508 PUSH2 0x1017 JUMP JUMPDEST JUMPDEST PUSH2 0x1515 DUP5 DUP3 DUP6 ADD PUSH2 0x14AA JUMP JUMPDEST SWAP2 POP POP SWAP3 SWAP2 POP POP JUMP JUMPDEST PUSH2 0x1527 DUP2 PUSH2 0x107C JUMP JUMPDEST DUP3 MSTORE POP POP JUMP JUMPDEST PUSH0 PUSH1 0x60 DUP3 ADD SWAP1 POP PUSH2 0x1540 PUSH0 DUP4 ADD DUP7 PUSH2 0x151E JUMP JUMPDEST PUSH2 0x154D PUSH1 0x20 DUP4 ADD DUP6 PUSH2 0x11CA JUMP JUMPDEST PUSH2 0x155A PUSH1 0x40 DUP4 ADD DUP5 PUSH2 0x123D JUMP JUMPDEST SWAP5 SWAP4 POP POP POP POP JUMP JUMPDEST PUSH32 0x4E6F74206F776E65720000000000000000000000000000000000000000000000 PUSH0 DUP3 ADD MSTORE POP JUMP JUMPDEST PUSH0 PUSH2 0x1596 PUSH1 0x9 DUP4 PUSH2 0x130F JUMP JUMPDEST SWAP2 POP PUSH2 0x15A1 DUP3 PUSH2 0x1562 JUMP JUMPDEST PUSH1 0x20 DUP3 ADD SWAP1 POP SWAP2 SWAP1 POP JUMP JUMPDEST PUSH0 PUSH1 0x20 DUP3 ADD SWAP1 POP DUP2 DUP2 SUB PUSH0 DUP4 ADD MSTORE PUSH2 0x15C3 DUP2 PUSH2 0x158A JUMP JUMPDEST SWAP1 POP SWAP2 SWAP1 POP JUMP JUMPDEST PUSH0 DUP2 SWAP1 POP SWAP3 SWAP2 POP POP JUMP JUMPDEST PUSH0 PUSH2 0x15DF DUP4 DUP6 PUSH2 0x15CA JUMP JUMPDEST SWAP4 POP PUSH2 0x15EC DUP4 DUP6 DUP5 PUSH2 0x145B JUMP JUMPDEST DUP3 DUP5 ADD SWAP1 POP SWAP4 SWAP3 POP POP POP JUMP JUMPDEST PUSH0 PUSH2 0x1604 DUP3 DUP5 DUP7 PUSH2 0x15D4 JUMP JUMPDEST SWAP2 POP DUP2 SWAP1 POP SWAP4 SWAP3 POP POP POP JUMP JUMPDEST PUSH0 DUP2 PUSH0 SHR SWAP1 POP SWAP2 SWAP1 POP JUMP JUMPDEST PUSH0 PUSH8 0xFFFFFFFFFFFFFFFF DUP3 AND SWAP1 POP SWAP2 SWAP1 POP JUMP JUMPDEST PUSH0 PUSH2 0x1640 PUSH2 0x163B DUP4 PUSH2 0x1610 JUMP JUMPDEST PUSH2 0x161B JUMP JUMPDEST SWAP1 POP SWAP2 SWAP1 POP JUMP JUMPDEST PUSH2 0x1650 DUP2 PUSH2 0x107C JUMP JUMPDEST DUP3 MSTORE POP POP JUMP JUMPDEST PUSH0 DUP2 PUSH1 0x40 SHR SWAP1 POP SWAP2 SWAP1 POP JUMP JUMPDEST PUSH0 PUSH20 0xFFFFFFFFFFFFFFFFFFFFFFFFFFFFFFFFFFFFFFFF DUP3 AND SWAP1 POP SWAP2 SWAP1 POP JUMP JUMPDEST PUSH0 PUSH2 0x1693 PUSH2 0x168E DUP4 PUSH2 0x1656 JUMP JUMPDEST PUSH2 0x1662 JUMP JUMPDEST SWAP1 POP SWAP2 SWAP1 POP JUMP JUMPDEST PUSH2 0x16A3 DUP2 PUSH2 0x10D8 JUMP JUMPDEST DUP3 MSTORE POP POP JUMP JUMPDEST PUSH0 DUP2 SWAP1 POP SWAP2 SWAP1 POP JUMP JUMPDEST PUSH0 PUSH2 0x16C4 PUSH2 0x16BF DUP4 PUSH2 0x1610 JUMP JUMPDEST PUSH2 0x16A9 JUMP JUMPDEST SWAP1 POP SWAP2 SWAP1 POP JUMP JUMPDEST PUSH2 0x16D4 DUP2 PUSH2 0x1113 JUMP JUMPDEST DUP3 MSTORE POP POP JUMP JUMPDEST PUSH1 0x60 DUP3 ADD PUSH0 DUP1 DUP4 ADD SLOAD SWAP1 POP PUSH2 0x16EE DUP2 PUSH2 0x162E JUMP JUMPDEST PUSH2 0x16FA PUSH0 DUP7 ADD DUP3 PUSH2 0x1647 JUMP JUMPDEST POP PUSH2 0x1704 DUP2 PUSH2 0x1681 JUMP JUMPDEST PUSH2 0x1711 PUSH1 0x20 DUP7 ADD DUP3 PUSH2 0x169A JUMP JUMPDEST POP PUSH1 0x1 DUP4 ADD SLOAD SWAP1 POP PUSH2 0x1722 DUP2 PUSH2 0x16B2 JUMP JUMPDEST PUSH2 0x172F PUSH1 0x40 DUP7 ADD DUP3 PUSH2 0x16CB JUMP JUMPDEST POP POP POP POP POP JUMP JUMPDEST PUSH0 PUSH1 0x60 DUP3 ADD SWAP1 POP PUSH2 0x1749 PUSH0 DUP4 ADD DUP5 PUSH2 0x16DA JUMP JUMPDEST SWAP3 SWAP2 POP POP JUMP JUMPDEST PUSH0 DUP3 SWAP1 POP SWAP3 SWAP2 POP POP JUMP JUMPDEST PUSH32 0x4E487B7100000000000000000000000000000000000000000000000000000000 PUSH0 MSTORE PUSH1 0x22 PUSH1 0x4 MSTORE PUSH1 0x24 PUSH0 REVERT JUMPDEST PUSH0 PUSH1 0x2 DUP3 DIV SWAP1 POP PUSH1 0x1 DUP3 AND DUP1 PUSH2 0x179D JUMPI PUSH1 0x7F DUP3 AND SWAP2 POP JUMPDEST PUSH1 0x20 DUP3 LT DUP2 SUB PUSH2 0x17B0 JUMPI PUSH2 0x17AF PUSH2 0x1759 JUMP JUMPDEST JUMPDEST POP SWAP2 SWAP1 POP JUMP JUMPDEST PUSH0 DUP2 SWAP1 POP DUP2 PUSH0 MSTORE PUSH1 0x20 PUSH0 KECCAK256 SWAP1 POP SWAP2 SWAP1 POP JUMP JUMPDEST PUSH0 PUSH1 0x20 PUSH1 0x1F DUP4 ADD DIV SWAP1 POP SWAP2 SWAP1 POP JUMP JUMPDEST PUSH0 DUP3 DUP3 SHL SWAP1 POP SWAP3 SWAP2 POP POP JUMP JUMPDEST PUSH0 PUSH1 0x8 DUP4 MUL PUSH2 0x1812 PUSH32 0xFFFFFFFFFFFFFFFFFFFFFFFFFFFFFFFFFFFFFFFFFFFFFFFFFFFFFFFFFFFFFFFF DUP3 PUSH2 0x17D7 JUMP JUMPDEST PUSH2 0x181C DUP7 DUP4 PUSH2 0x17D7 JUMP JUMPDEST SWAP6 POP DUP1 NOT DUP5 AND SWAP4 POP DUP1 DUP7 AND DUP5 OR SWAP3 POP POP POP SWAP4 SWAP3 POP POP POP JUMP JUMPDEST PUSH0 DUP2 SWAP1 POP SWAP2 SWAP1 POP JUMP JUMPDEST PUSH0 PUSH2 0x1857 PUSH2 0x1852 PUSH2 0x184D DUP5 PUSH2 0x1113 JUMP JUMPDEST PUSH2 0x1834 JUMP JUMPDEST PUSH2 0x1113 JUMP JUMPDEST SWAP1 POP SWAP2 SWAP1 POP JUMP JUMPDEST PUSH0 DUP2 SWAP1 POP SWAP2 SWAP1 POP JUMP JUMPDEST PUSH2 0x1870 DUP4 PUSH2 0x183D JUMP JUMPDEST PUSH2 0x1884 PUSH2 0x187C DUP3 PUSH2 0x185E JUMP JUMPDEST DUP5 DUP5 SLOAD PUSH2 0x17E3 JUMP JUMPDEST DUP3 SSTORE POP POP POP POP JUMP JUMPDEST PUSH0 SWAP1 JUMP JUMPDEST PUSH2 0x1898 PUSH2 0x188C JUMP JUMPDEST PUSH2 0x18A3 DUP2 DUP5 DUP5 PUSH2 0x1867 JUMP JUMPDEST POP POP POP JUMP JUMPDEST JUMPDEST DUP2 DUP2 LT ISZERO PUSH2 0x18C6 JUMPI PUSH2 0x18BB PUSH0 DUP3 PUSH2 0x1890 JUMP JUMPDEST PUSH1 0x1 DUP2 ADD SWAP1 POP PUSH2 0x18A9 JUMP JUMPDEST POP POP JUMP JUMPDEST PUSH1 0x1F DUP3 GT ISZERO PUSH2 0x190B JUMPI PUSH2 0x18DC DUP2 PUSH2 0x17B6 JUMP JUMPDEST PUSH2 0x18E5 DUP5 PUSH2 0x17C8 JUMP JUMPDEST DUP2 ADD PUSH1 0x20 DUP6 LT ISZERO PUSH2 0x18F4 JUMPI DUP2 SWAP1 POP JUMPDEST PUSH2 0x1908 PUSH2 0x1900 DUP6 PUSH2 0x17C8 JUMP JUMPDEST DUP4 ADD DUP3 PUSH2 0x18A8 JUMP JUMPDEST POP POP JUMPDEST POP POP POP JUMP JUMPDEST PUSH0 DUP3 DUP3 SHR SWAP1 POP SWAP3 SWAP2 POP POP JUMP JUMPDEST PUSH0 PUSH2 0x192B PUSH0 NOT DUP5 PUSH1 0x8 MUL PUSH2 0x1910 JUMP JUMPDEST NOT DUP1 DUP4 AND SWAP2 POP POP SWAP3 SWAP2 POP POP JUMP JUMPDEST PUSH0 PUSH2 0x1943 DUP4 DUP4 PUSH2 0x191C JUMP JUMPDEST SWAP2 POP DUP3 PUSH1 0x2 MUL DUP3 OR SWAP1 POP SWAP3 SWAP2 POP POP JUMP JUMPDEST PUSH2 0x195D DUP4 DUP4 PUSH2 0x174F JUMP JUMPDEST PUSH8 0xFFFFFFFFFFFFFFFF DUP2 GT ISZERO PUSH2 0x1976 JUMPI PUSH2 0x1975 PUSH2 0x13B3 JUMP JUMPDEST JUMPDEST PUSH2 0x1980 DUP3 SLOAD PUSH2 0x1786 JUMP JUMPDEST PUSH2 0x198B DUP3 DUP3 DUP6 PUSH2 0x18CA JUMP JUMPDEST PUSH0 PUSH1 0x1F DUP4 GT PUSH1 0x1 DUP2 EQ PUSH2 0x19B8 JUMPI PUSH0 DUP5 ISZERO PUSH2 0x19A6 JUMPI DUP3 DUP8 ADD CALLDATALOAD SWAP1 POP JUMPDEST PUSH2 0x19B0 DUP6 DUP3 PUSH2 0x1938 JUMP JUMPDEST DUP7 SSTORE POP PUSH2 0x1A17 JUMP JUMPDEST PUSH1 0x1F NOT DUP5 AND PUSH2 0x19C6 DUP7 PUSH2 0x17B6 JUMP JUMPDEST PUSH0 JUMPDEST DUP3 DUP2 LT ISZERO PUSH2 0x19ED JUMPI DUP5 DUP10 ADD CALLDATALOAD DUP3 SSTORE PUSH1 0x1 DUP3 ADD SWAP2 POP PUSH1 0x20 DUP6 ADD SWAP5 POP PUSH1 0x20 DUP2 ADD SWAP1 POP PUSH2 0x19C8 JUMP JUMPDEST DUP7 DUP4 LT ISZERO PUSH2 0x1A0A JUMPI DUP5 DUP10 ADD CALLDATALOAD PUSH2 0x1A06 PUSH1 0x1F DUP10 AND DUP3 PUSH2 0x191C JUMP JUMPDEST DUP4 SSTORE POP JUMPDEST PUSH1 0x1 PUSH1 0x2 DUP9 MUL ADD DUP9 SSTORE POP POP POP JUMPDEST POP POP POP POP POP POP POP JUMP JUMPDEST PUSH0 PUSH2 0x1A2B DUP4 DUP6 PUSH2 0x130F JUMP JUMPDEST SWAP4 POP PUSH2 0x1A38 DUP4 DUP6 DUP5 PUSH2 0x145B JUMP JUMPDEST PUSH2 0x1A41 DUP4 PUSH2 0x1347 JUMP JUMPDEST DUP5 ADD SWAP1 POP SWAP4 SWAP3 POP POP POP JUMP JUMPDEST PUSH0 PUSH1 0x20 DUP3 ADD SWAP1 POP DUP2 DUP2 SUB PUSH0 DUP4 ADD MSTORE PUSH2 0x1A65 DUP2 DUP5 DUP7 PUSH2 0x1A20 JUMP JUMPDEST SWAP1 POP SWAP4 SWAP3 POP POP POP JUMP JUMPDEST PUSH32 0x4E487B7100000000000000000000000000000000000000000000000000000000 PUSH0 MSTORE PUSH1 0x11 PUSH1 0x4 MSTORE PUSH1 0x24 PUSH0 REVERT JUMPDEST PUSH0 PUSH2 0x1AA5 DUP3 PUSH2 0x1113 JUMP JUMPDEST SWAP2 POP PUSH32 0xFFFFFFFFFFFFFFFFFFFFFFFFFFFFFFFFFFFFFFFFFFFFFFFFFFFFFFFFFFFFFFFF DUP3 SUB PUSH2 0x1AD7 JUMPI PUSH2 0x1AD6 PUSH2 0x1A6E JUMP JUMPDEST JUMPDEST PUSH1 0x1 DUP3 ADD SWAP1 POP SWAP2 SWAP1 POP JUMP JUMPDEST PUSH32 0x4E487B7100000000000000000000000000000000000000000000000000000000 PUSH0 MSTORE PUSH1 0x32 PUSH1 0x4 MSTORE PUSH1 0x24 PUSH0 REVERT JUMPDEST PUSH0 DUP1 REVERT JUMPDEST PUSH0 DUP1 REVERT JUMPDEST PUSH0 DUP1 REVERT JUMPDEST PUSH0 DUP3 CALLDATALOAD PUSH1 0x1 PUSH1 0xE0 SUB DUP4 CALLDATASIZE SUB SUB DUP2 SLT PUSH2 0x1B36 JUMPI PUSH2 0x1B35 PUSH2 0x1B0F JUMP JUMPDEST JUMPDEST DUP1 DUP4 ADD SWAP2 POP POP SWAP3 SWAP2 POP POP JUMP JUMPDEST PUSH0 DUP1 DUP4 CALLDATALOAD PUSH1 0x1 PUSH1 0x20 SUB DUP5 CALLDATASIZE SUB SUB DUP2 SLT PUSH2 0x1B5E JUMPI PUSH2 0x1B5D PUSH2 0x1B0F JUMP JUMPDEST JUMPDEST DUP1 DUP5 ADD SWAP3 POP DUP3 CALLDATALOAD SWAP2 POP PUSH8 0xFFFFFFFFFFFFFFFF DUP3 GT ISZERO PUSH2 0x1B80 JUMPI PUSH2 0x1B7F PUSH2 0x1B13 JUMP JUMPDEST JUMPDEST PUSH1 0x20 DUP4 ADD SWAP3 POP PUSH1 0x1 DUP3 MUL CALLDATASIZE SUB DUP4 SGT ISZERO PUSH2 0x1B9C JUMPI PUSH2 0x1B9B PUSH2 0x1B17 JUMP JUMPDEST JUMPDEST POP SWAP3 POP SWAP3 SWAP1 POP JUMP JUMPDEST PUSH32 0x4D697373696E6720726F75746500000000000000000000000000000000000000 PUSH0 DUP3 ADD MSTORE POP JUMP JUMPDEST PUSH0 PUSH2 0x1BD8 PUSH1 0xD DUP4 PUSH2 0x130F JUMP JUMPDEST SWAP2 POP PUSH2 0x1BE3 DUP3 PUSH2 0x1BA4 JUMP JUMPDEST PUSH1 0x20 DUP3 ADD SWAP1 POP SWAP2 SWAP1 POP JUMP JUMPDEST PUSH0 PUSH1 0x20 DUP3 ADD SWAP1 POP DUP2 DUP2 SUB PUSH0 DUP4 ADD MSTORE PUSH2 0x1C05 DUP2 PUSH2 0x1BCC JUMP JUMPDEST SWAP1 POP SWAP2 SWAP1 POP JUMP JUMPDEST PUSH0 PUSH2 0x1C16 DUP3 PUSH2 0x1113 JUMP JUMPDEST SWAP2 POP PUSH2 0x1C21 DUP4 PUSH2 0x1113 JUMP JUMPDEST SWAP3 POP DUP3 DUP3 MUL PUSH2 0x1C2F DUP2 PUSH2 0x1113 JUMP JUMPDEST SWAP2 POP DUP3 DUP3 DIV DUP5 EQ DUP4 ISZERO OR PUSH2 0x1C46 JUMPI PUSH2 0x1C45 PUSH2 0x1A6E JUMP JUMPDEST JUMPDEST POP SWAP3 SWAP2 POP POP JUMP JUMPDEST PUSH32 0x4E487B7100000000000000000000000000000000000000000000000000000000 PUSH0 MSTORE PUSH1 0x12 PUSH1 0x4 MSTORE PUSH1 0x24 PUSH0 REVERT JUMPDEST PUSH0 PUSH2 0x1C84 DUP3 PUSH2 0x1113 JUMP JUMPDEST SWAP2 POP PUSH2 0x1C8F DUP4 PUSH2 0x1113 JUMP JUMPDEST SWAP3 POP DUP3 PUSH2 0x1C9F JUMPI PUSH2 0x1C9E PUSH2 0x1C4D JUMP JUMPDEST JUMPDEST DUP3 DUP3 DIV SWAP1 POP SWAP3 SWAP2 POP POP JUMP JUMPDEST PUSH0 PUSH2 0x1CB4 DUP3 PUSH2 0x1113 JUMP JUMPDEST SWAP2 POP PUSH2 0x1CBF DUP4 PUSH2 0x1113 JUMP JUMPDEST SWAP3 POP DUP3 DUP3 SUB SWAP1 POP DUP2 DUP2 GT ISZERO PUSH2 0x1CD7 JUMPI PUSH2 0x1CD6 PUSH2 0x1A6E JUMP JUMPDEST JUMPDEST SWAP3 SWAP2 POP POP JUMP JUMPDEST PUSH0 DUP2 MLOAD SWAP1 POP SWAP2 SWAP1 POP JUMP JUMPDEST PUSH0 DUP3 DUP3 MSTORE PUSH1 0x20 DUP3 ADD SWAP1 POP SWAP3 SWAP2 POP POP JUMP JUMPDEST PUSH0 PUSH2 0x1D01 DUP3 PUSH2 0x1CDD JUMP JUMPDEST PUSH2 0x1D0B DUP2 DUP6 PUSH2 0x1CE7 JUMP JUMPDEST SWAP4 POP PUSH2 0x1D1B DUP2 DUP6 PUSH1 0x20 DUP7 ADD PUSH2 0x131F JUMP JUMPDEST PUSH2 0x1D24 DUP2 PUSH2 0x1347 JUMP JUMPDEST DUP5 ADD SWAP2 POP POP SWAP3 SWAP2 POP POP JUMP JUMPDEST PUSH0 DUP2 MLOAD SWAP1 POP SWAP2 SWAP1 POP JUMP JUMPDEST PUSH0 DUP3 DUP3 MSTORE PUSH1 0x20 DUP3 ADD SWAP1 POP SWAP3 SWAP2 POP POP JUMP JUMPDEST PUSH0 DUP2 SWAP1 POP PUSH1 0x20 DUP3 ADD SWAP1 POP SWAP2 SWAP1 POP JUMP JUMPDEST PUSH1 0x40 DUP3 ADD PUSH0 DUP3 ADD MLOAD PUSH2 0x1D6C PUSH0 DUP6 ADD DUP3 PUSH2 0x169A JUMP JUMPDEST POP PUSH1 0x20 DUP3 ADD MLOAD PUSH2 0x1D7F PUSH1 0x20 DUP6 ADD DUP3 PUSH2 0x16CB JUMP JUMPDEST POP POP POP POP JUMP JUMPDEST PUSH0 PUSH2 0x1D90 DUP4 DUP4 PUSH2 0x1D58 JUMP JUMPDEST PUSH1 0x40 DUP4 ADD SWAP1 POP SWAP3 SWAP2 POP POP JUMP JUMPDEST PUSH0 PUSH1 0x20 DUP3 ADD SWAP1 POP SWAP2 SWAP1 POP JUMP JUMPDEST PUSH0 PUSH2 0x1DB2 DUP3 PUSH2 0x1D2F JUMP JUMPDEST PUSH2 0x1DBC DUP2 DUP6 PUSH2 0x1D39 JUMP JUMPDEST SWAP4 POP PUSH2 0x1DC7 DUP4 PUSH2 0x1D49 JUMP JUMPDEST DUP1 PUSH0 JUMPDEST DUP4 DUP2 LT ISZERO PUSH2 0x1DF7 JUMPI DUP2 MLOAD PUSH2 0x1DDE DUP9 DUP3 PUSH2 0x1D85 JUMP JUMPDEST SWAP8 POP PUSH2 0x1DE9 DUP4 PUSH2 0x1D9C JUMP JUMPDEST SWAP3 POP POP PUSH1 0x1 DUP2 ADD SWAP1 POP PUSH2 0x1DCA JUMP JUMPDEST POP DUP6 SWAP4 POP POP POP POP SWAP3 SWAP2 POP POP JUMP JUMPDEST PUSH0 PUSH1 0xA0 DUP4 ADD PUSH0 DUP4 ADD MLOAD DUP5 DUP3 SUB PUSH0 DUP7 ADD MSTORE PUSH2 0x1E1E DUP3 DUP3 PUSH2 0x1CF7 JUMP JUMPDEST SWAP2 POP POP PUSH1 0x20 DUP4 ADD MLOAD DUP5 DUP3 SUB PUSH1 0x20 DUP7 ADD MSTORE PUSH2 0x1E38 DUP3 DUP3 PUSH2 0x1CF7 JUMP JUMPDEST SWAP2 POP POP PUSH1 0x40 DUP4 ADD MLOAD DUP5 DUP3 SUB PUSH1 0x40 DUP7 ADD MSTORE PUSH2 0x1E52 DUP3 DUP3 PUSH2 0x1DA8 JUMP JUMPDEST SWAP2 POP POP PUSH1 0x60 DUP4 ADD MLOAD PUSH2 0x1E67 PUSH1 0x60 DUP7 ADD DUP3 PUSH2 0x169A JUMP JUMPDEST POP PUSH1 0x80 DUP4 ADD MLOAD DUP5 DUP3 SUB PUSH1 0x80 DUP7 ADD MSTORE PUSH2 0x1E7F DUP3 DUP3 PUSH2 0x1CF7 JUMP JUMPDEST SWAP2 POP POP DUP1 SWAP2 POP POP SWAP3 SWAP2 POP POP JUMP JUMPDEST PUSH0 PUSH1 0x40 DUP3 ADD SWAP1 POP PUSH2 0x1E9F PUSH0 DUP4 ADD DUP6 PUSH2 0x151E JUMP JUMPDEST DUP2 DUP2 SUB PUSH1 0x20 DUP4 ADD MSTORE PUSH2 0x1EB1 DUP2 DUP5 PUSH2 0x1E04 JUMP JUMPDEST SWAP1 POP SWAP4 SWAP3 POP POP POP JUMP JUMPDEST PUSH0 DUP2 MLOAD SWAP1 POP PUSH2 0x1EC8 DUP2 PUSH2 0x111C JUMP JUMPDEST SWAP3 SWAP2 POP POP JUMP JUMPDEST PUSH0 PUSH1 0x20 DUP3 DUP5 SUB SLT ISZERO PUSH2 0x1EE3 JUMPI PUSH2 0x1EE2 PUSH2 0x1013 JUMP JUMPDEST JUMPDEST PUSH0 PUSH2 0x1EF0 DUP5 DUP3 DUP6 ADD PUSH2 0x1EBA JUMP JUMPDEST SWAP2 POP POP SWAP3 SWAP2 POP POP JUMP JUMPDEST PUSH0 PUSH1 0x40 DUP3 ADD SWAP1 POP PUSH2 0x1F0C PUSH0 DUP4 ADD DUP6 PUSH2 0x123D JUMP JUMPDEST PUSH2 0x1F19 PUSH1 0x20 DUP4 ADD DUP5 PUSH2 0x123D JUMP JUMPDEST SWAP4 SWAP3 POP POP POP JUMP JUMPDEST PUSH0 DUP2 SWAP1 POP SWAP2 SWAP1 POP JUMP JUMPDEST PUSH2 0x1F32 DUP2 PUSH2 0x1F20 JUMP JUMPDEST DUP2 EQ PUSH2 0x1F3C JUMPI PUSH0 DUP1 REVERT JUMPDEST POP JUMP JUMPDEST PUSH0 DUP2 MLOAD SWAP1 POP PUSH2 0x1F4D DUP2 PUSH2 0x1F29 JUMP JUMPDEST SWAP3 SWAP2 POP POP JUMP JUMPDEST PUSH0 PUSH1 0x20 DUP3 DUP5 SUB SLT ISZERO PUSH2 0x1F68 JUMPI PUSH2 0x1F67 PUSH2 0x1013 JUMP JUMPDEST JUMPDEST PUSH0 PUSH2 0x1F75 DUP5 DUP3 DUP6 ADD PUSH2 0x1F3F JUMP JUMPDEST SWAP2 POP POP SWAP3 SWAP2 POP POP JUMP JUMPDEST PUSH0 DUP3 DUP3 MSTORE PUSH1 0x20 DUP3 ADD SWAP1 POP SWAP3 SWAP2 POP POP JUMP JUMPDEST PUSH0 PUSH2 0x1F98 DUP3 PUSH2 0x1305 JUMP JUMPDEST PUSH2 0x1FA2 DUP2 DUP6 PUSH2 0x1F7E JUMP JUMPDEST SWAP4 POP PUSH2 0x1FB2 DUP2 DUP6 PUSH1 0x20 DUP7 ADD PUSH2 0x131F JUMP JUMPDEST PUSH2 0x1FBB DUP2 PUSH2 0x1347 JUMP JUMPDEST DUP5 ADD SWAP2 POP POP SWAP3 SWAP2 POP POP JUMP JUMPDEST PUSH0 PUSH1 0x60 DUP4 ADD PUSH0 DUP4 ADD MLOAD DUP5 DUP3 SUB PUSH0 DUP7 ADD MSTORE PUSH2 0x1FE0 DUP3 DUP3 PUSH2 0x1F8E JUMP JUMPDEST SWAP2 POP POP PUSH1 0x20 DUP4 ADD MLOAD DUP5 DUP3 SUB PUSH1 0x20 DUP7 ADD MSTORE PUSH2 0x1FFA DUP3 DUP3 PUSH2 0x1F8E JUMP JUMPDEST SWAP2 POP POP PUSH1 0x40 DUP4 ADD MLOAD PUSH2 0x200F PUSH1 0x40 DUP7 ADD DUP3 PUSH2 0x16CB JUMP JUMPDEST POP DUP1 SWAP2 POP POP SWAP3 SWAP2 POP POP JUMP JUMPDEST PUSH0 PUSH1 0x20 DUP3 ADD SWAP1 POP DUP2 DUP2 SUB PUSH0 DUP4 ADD MSTORE PUSH2 0x2032 DUP2 DUP5 PUSH2 0x1FC6 JUMP JUMPDEST SWAP1 POP SWAP3 SWAP2 POP POP JUMP JUMPDEST PUSH0 DUP2 ISZERO ISZERO SWAP1 POP SWAP2 SWAP1 POP JUMP JUMPDEST PUSH2 0x204E DUP2 PUSH2 0x203A JUMP JUMPDEST DUP3 MSTORE POP POP JUMP JUMPDEST PUSH1 0x40 DUP3 ADD PUSH0 DUP3 ADD MLOAD PUSH2 0x2068 PUSH0 DUP6 ADD DUP3 PUSH2 0x16CB JUMP JUMPDEST POP PUSH1 0x20 DUP3 ADD MLOAD PUSH2 0x207B PUSH1 0x20 DUP6 ADD DUP3 PUSH2 0x2045 JUMP JUMPDEST POP POP POP POP JUMP JUMPDEST PUSH0 PUSH1 0x40 DUP3 ADD SWAP1 POP PUSH2 0x2094 PUSH0 DUP4 ADD DUP5 PUSH2 0x2054 JUMP JUMPDEST SWAP3 SWAP2 POP POP JUMP INVALID LOG2 PUSH5 0x6970667358 0x22 SLT KECCAK256 DUP7 PUSH25 0x89E867CA3730081CFB6063CC0361FDAD67386DF5D4AB675EC8 XOR CALLDATACOPY 0xDE SWAP10 DUP11 PUSH5 0x736F6C6343 STOP ADDMOD XOR STOP CALLER "
				},
				"gasEstimates": {
					"creation": {
						"codeDepositCost": "1680000",
						"executionCost": "infinite",
						"totalCost": "infinite"
					},
					"external": {
						"batchCounter()": "2492",
						"executeBatch((string,string,string,string,uint256,uint256,uint256)[])": "infinite",
						"owner()": "2530",
						"profitWalletId()": "infinite",
						"routerAddress()": "2531",
						"setProfitWalletId(string)": "infinite",
						"setRoute(string,uint64,address,uint256)": "infinite",
						"tokenRoutes(string)": "infinite"
					},
					"internal": {
						"_buildCCIPMessage(address,struct EntryPoint.TradeDetails memory,address)": "infinite",
						"ccipProfitWithdraw(struct EntryPoint.ChainRoute memory,string calldata,string memory,uint256)": "infinite",
						"ccipWithdraw(struct EntryPoint.ChainRoute memory,string calldata,string calldata,uint256)": "infinite"
					}
				},
				"methodIdentifiers": {
					"batchCounter()": "68233eef",
					"executeBatch((string,string,string,string,uint256,uint256,uint256)[])": "821aa5d2",
					"owner()": "8da5cb5b",
					"profitWalletId()": "a5a30b02",
					"routerAddress()": "3268cc56",
					"setProfitWalletId(string)": "5314ab19",
					"setRoute(string,uint64,address,uint256)": "2e34b343",
					"tokenRoutes(string)": "d56d4f1a"
				}
			},
			"storageLayout": {
				"storage": [
					{
						"astId": 455,
						"contract": "contracts/EntryPoint.sol:EntryPoint",
						"label": "tokenRoutes",
						"offset": 0,
						"slot": "0",
						"type": "t_mapping(t_string_memory_ptr,t_struct(ChainRoute)428_storage)"
					},
					{
						"astId": 457,
						"contract": "contracts/EntryPoint.sol:EntryPoint",
						"label": "profitWalletId",
						"offset": 0,
						"slot": "1",
						"type": "t_string_storage"
					},
					{
						"astId": 459,
						"contract": "contracts/EntryPoint.sol:EntryPoint",
						"label": "owner",
						"offset": 0,
						"slot": "2",
						"type": "t_address"
					},
					{
						"astId": 461,
						"contract": "contracts/EntryPoint.sol:EntryPoint",
						"label": "batchCounter",
						"offset": 0,
						"slot": "3",
						"type": "t_uint256"
					},
					{
						"astId": 463,
						"contract": "contracts/EntryPoint.sol:EntryPoint",
						"label": "routerAddress",
						"offset": 0,
						"slot": "4",
						"type": "t_address"
					}
				],
				"types": {
					"t_address": {
						"encoding": "inplace",
						"label": "address",
						"numberOfBytes": "20"
					},
					"t_mapping(t_string_memory_ptr,t_struct(ChainRoute)428_storage)": {
						"encoding": "mapping",
						"key": "t_string_memory_ptr",
						"label": "mapping(string => struct EntryPoint.ChainRoute)",
						"numberOfBytes": "32",
						"value": "t_struct(ChainRoute)428_storage"
					},
					"t_string_memory_ptr": {
						"encoding": "bytes",
						"label": "string",
						"numberOfBytes": "32"
					},
					"t_string_storage": {
						"encoding": "bytes",
						"label": "string",
						"numberOfBytes": "32"
					},
					"t_struct(ChainRoute)428_storage": {
						"encoding": "inplace",
						"label": "struct EntryPoint.ChainRoute",
						"members": [
							{
								"astId": 423,
								"contract": "contracts/EntryPoint.sol:EntryPoint",
								"label": "chainSelector",
								"offset": 0,
								"slot": "0",
								"type": "t_uint64"
							},
							{
								"astId": 425,
								"contract": "contracts/EntryPoint.sol:EntryPoint",
								"label": "walletController",
								"offset": 8,
								"slot": "0",
								"type": "t_address"
							},
							{
								"astId": 427,
								"contract": "contracts/EntryPoint.sol:EntryPoint",
								"label": "denom",
								"offset": 0,
								"slot": "1",
								"type": "t_uint256"
							}
						],
						"numberOfBytes": "64"
					},
					"t_uint256": {
						"encoding": "inplace",
						"label": "uint256",
						"numberOfBytes": "32"
					},
					"t_uint64": {
						"encoding": "inplace",
						"label": "uint64",
						"numberOfBytes": "8"
					}
				}
			},
			"userdoc": {
				"kind": "user",
				"methods": {},
				"version": 1
			}
		}
	}
}