{
	"contracts/WalletController.sol": {
		"WalletController": {
			"abi": [
				{
					"inputs": [
						{
							"internalType": "address",
							"name": "_router",
							"type": "address"
						}
					],
					"stateMutability": "nonpayable",
					"type": "constructor"
				},
				{
					"inputs": [
						{
							"internalType": "address",
							"name": "router",
							"type": "address"
						}
					],
					"name": "InvalidRouter",
					"type": "error"
				},
				{
					"anonymous": false,
					"inputs": [
						{
							"indexed": false,
							"internalType": "string",
							"name": "ownerId",
							"type": "string"
						},
						{
							"indexed": false,
							"internalType": "address",
							"name": "wallet",
							"type": "address"
						}
					],
					"name": "WalletCreated",
					"type": "event"
				},
				{
					"inputs": [
						{
							"components": [
								{
									"internalType": "bytes32",
									"name": "messageId",
									"type": "bytes32"
								},
								{
									"internalType": "uint64",
									"name": "sourceChainSelector",
									"type": "uint64"
								},
								{
									"internalType": "bytes",
									"name": "sender",
									"type": "bytes"
								},
								{
									"internalType": "bytes",
									"name": "data",
									"type": "bytes"
								},
								{
									"components": [
										{
											"internalType": "address",
											"name": "token",
											"type": "address"
										},
										{
											"internalType": "uint256",
											"name": "amount",
											"type": "uint256"
										}
									],
									"internalType": "struct Client.EVMTokenAmount[]",
									"name": "destTokenAmounts",
									"type": "tuple[]"
								}
							],
							"internalType": "struct Client.Any2EVMMessage",
							"name": "message",
							"type": "tuple"
						}
					],
					"name": "ccipReceive",
					"outputs": [],
					"stateMutability": "nonpayable",
					"type": "function"
				},
				{
					"inputs": [
						{
							"internalType": "string",
							"name": "ownerId",
							"type": "string"
						}
					],
					"name": "depositTo",
					"outputs": [],
					"stateMutability": "payable",
					"type": "function"
				},
				{
					"inputs": [
						{
							"internalType": "string",
							"name": "ownerId",
							"type": "string"
						}
					],
					"name": "getBalance",
					"outputs": [
						{
							"internalType": "uint256",
							"name": "contractBalance",
							"type": "uint256"
						}
					],
					"stateMutability": "view",
					"type": "function"
				},
				{
					"inputs": [],
					"name": "getRouter",
					"outputs": [
						{
							"internalType": "address",
							"name": "",
							"type": "address"
						}
					],
					"stateMutability": "view",
					"type": "function"
				},
				{
					"inputs": [
						{
							"internalType": "string",
							"name": "ownerId",
							"type": "string"
						}
					],
					"name": "getWalletAddress",
					"outputs": [
						{
							"internalType": "address",
							"name": "wallet",
							"type": "address"
						}
					],
					"stateMutability": "view",
					"type": "function"
				},
				{
					"inputs": [
						{
							"internalType": "bytes4",
							"name": "interfaceId",
							"type": "bytes4"
						}
					],
					"name": "supportsInterface",
					"outputs": [
						{
							"internalType": "bool",
							"name": "",
							"type": "bool"
						}
					],
					"stateMutability": "view",
					"type": "function"
				},
				{
					"inputs": [],
					"name": "userInteractionAddress",
					"outputs": [
						{
							"internalType": "address",
							"name": "",
							"type": "address"
						}
					],
					"stateMutability": "view",
					"type": "function"
				},
				{
					"inputs": [
						{
							"internalType": "string",
							"name": "",
							"type": "string"
						}
					],
					"name": "walletOwnership",
					"outputs": [
						{
							"internalType": "address",
							"name": "",
							"type": "address"
						}
					],
					"stateMutability": "view",
					"type": "function"
				},
				{
					"inputs": [
						{
							"internalType": "string",
							"name": "ownerId",
							"type": "string"
						},
						{
							"internalType": "address",
							"name": "to",
							"type": "address"
						},
						{
							"internalType": "uint256",
							"name": "amount",
							"type": "uint256"
						}
					],
					"name": "withdrawTo",
					"outputs": [],
					"stateMutability": "nonpayable",
					"type": "function"
				}
			],
			"devdoc": {
				"kind": "dev",
				"methods": {
					"ccipReceive((bytes32,uint64,bytes,bytes,(address,uint256)[]))": {
						"details": "Note ensure you check the msg.sender is the OffRampRouter.",
						"params": {
							"message": "CCIP Message."
						}
					},
					"getRouter()": {
						"returns": {
							"_0": "CCIP router address"
						}
					},
					"supportsInterface(bytes4)": {
						"details": "Should indicate whether the contract implements IAny2EVMMessageReceiver. e.g. return interfaceId == type(IAny2EVMMessageReceiver).interfaceId || interfaceId == type(IERC165).interfaceId This allows CCIP to check if ccipReceive is available before calling it. - If this returns false or reverts, only tokens are transferred to the receiver. - If this returns true, tokens are transferred and ccipReceive is called atomically. Additionally, if the receiver address does not have code associated with it at the time of execution (EXTCODESIZE returns 0), only tokens will be transferred.",
						"params": {
							"interfaceId": "The interfaceId to check."
						},
						"returns": {
							"_0": "true if the interfaceId is supported."
						}
					}
				},
				"version": 1
			},
			"evm": {
				"assembly": "    /* \"contracts/WalletController.sol\":282:2485  contract WalletController is CCIPReceiver {... */\n  mstore(0x40, 0xa0)\n    /* \"contracts/WalletController.sol\":610:689  constructor(... */\n  callvalue\n  dup1\n  iszero\n  tag_1\n  jumpi\n  0x00\n  dup1\n  revert\ntag_1:\n  pop\n  mload(0x40)\n  sub(codesize, bytecodeSize)\n  dup1\n  bytecodeSize\n  dup4\n  codecopy\n  dup2\n  dup2\n  add\n  0x40\n  mstore\n  dup2\n  add\n  swap1\n  tag_2\n  swap2\n  swap1\n  tag_3\n  jump\t// in\ntag_2:\n    /* \"contracts/WalletController.sol\":674:681  _router */\n  dup1\n    /* \"@chainlink/contracts-ccip@1.6.0/contracts/applications/CCIPReceiver.sol\":594:595  0 */\n  0x00\n    /* \"@chainlink/contracts-ccip@1.6.0/contracts/applications/CCIPReceiver.sol\":576:596  router == address(0) */\n  0xffffffffffffffffffffffffffffffffffffffff\n  and\n    /* \"@chainlink/contracts-ccip@1.6.0/contracts/applications/CCIPReceiver.sol\":576:582  router */\n  dup2\n    /* \"@chainlink/contracts-ccip@1.6.0/contracts/applications/CCIPReceiver.sol\":576:596  router == address(0) */\n  0xffffffffffffffffffffffffffffffffffffffff\n  and\n  sub\n    /* \"@chainlink/contracts-ccip@1.6.0/contracts/applications/CCIPReceiver.sol\":572:630  if (router == address(0)) revert InvalidRouter(address(0)) */\n  tag_7\n  jumpi\n    /* \"@chainlink/contracts-ccip@1.6.0/contracts/applications/CCIPReceiver.sol\":627:628  0 */\n  0x00\n    /* \"@chainlink/contracts-ccip@1.6.0/contracts/applications/CCIPReceiver.sol\":605:630  InvalidRouter(address(0)) */\n  mload(0x40)\n  0xd7f7333400000000000000000000000000000000000000000000000000000000\n  dup2\n  mstore\n  0x04\n  add\n  tag_8\n  swap2\n  swap1\n  tag_9\n  jump\t// in\ntag_8:\n  mload(0x40)\n  dup1\n  swap2\n  sub\n  swap1\n  revert\n    /* \"@chainlink/contracts-ccip@1.6.0/contracts/applications/CCIPReceiver.sol\":572:630  if (router == address(0)) revert InvalidRouter(address(0)) */\ntag_7:\n    /* \"@chainlink/contracts-ccip@1.6.0/contracts/applications/CCIPReceiver.sol\":651:657  router */\n  dup1\n    /* \"@chainlink/contracts-ccip@1.6.0/contracts/applications/CCIPReceiver.sol\":636:657  i_ccipRouter = router */\n  0xffffffffffffffffffffffffffffffffffffffff\n  and\n  0x80\n  dup2\n  0xffffffffffffffffffffffffffffffffffffffff\n  and\n  dup2\n  mstore\n  pop\n  pop\n    /* \"@chainlink/contracts-ccip@1.6.0/contracts/applications/CCIPReceiver.sol\":530:662  constructor(... */\n  pop\n    /* \"contracts/WalletController.sol\":610:689  constructor(... */\n  pop\n    /* \"contracts/WalletController.sol\":282:2485  contract WalletController is CCIPReceiver {... */\n  jump(tag_11)\n    /* \"#utility.yul\":88:205   */\ntag_13:\n    /* \"#utility.yul\":197:198   */\n  0x00\n    /* \"#utility.yul\":194:195   */\n  dup1\n    /* \"#utility.yul\":187:199   */\n  revert\n    /* \"#utility.yul\":334:460   */\ntag_15:\n    /* \"#utility.yul\":371:378   */\n  0x00\n    /* \"#utility.yul\":411:453   */\n  0xffffffffffffffffffffffffffffffffffffffff\n    /* \"#utility.yul\":404:409   */\n  dup3\n    /* \"#utility.yul\":400:454   */\n  and\n    /* \"#utility.yul\":389:454   */\n  swap1\n  pop\n    /* \"#utility.yul\":334:460   */\n  swap2\n  swap1\n  pop\n  jump\t// out\n    /* \"#utility.yul\":466:562   */\ntag_16:\n    /* \"#utility.yul\":503:510   */\n  0x00\n    /* \"#utility.yul\":532:556   */\n  tag_26\n    /* \"#utility.yul\":550:555   */\n  dup3\n    /* \"#utility.yul\":532:556   */\n  tag_15\n  jump\t// in\ntag_26:\n    /* \"#utility.yul\":521:556   */\n  swap1\n  pop\n    /* \"#utility.yul\":466:562   */\n  swap2\n  swap1\n  pop\n  jump\t// out\n    /* \"#utility.yul\":568:690   */\ntag_17:\n    /* \"#utility.yul\":641:665   */\n  tag_28\n    /* \"#utility.yul\":659:664   */\n  dup2\n    /* \"#utility.yul\":641:665   */\n  tag_16\n  jump\t// in\ntag_28:\n    /* \"#utility.yul\":634:639   */\n  dup2\n    /* \"#utility.yul\":631:666   */\n  eq\n    /* \"#utility.yul\":621:684   */\n  tag_29\n  jumpi\n    /* \"#utility.yul\":680:681   */\n  0x00\n    /* \"#utility.yul\":677:678   */\n  dup1\n    /* \"#utility.yul\":670:682   */\n  revert\n    /* \"#utility.yul\":621:684   */\ntag_29:\n    /* \"#utility.yul\":568:690   */\n  pop\n  jump\t// out\n    /* \"#utility.yul\":696:839   */\ntag_18:\n    /* \"#utility.yul\":753:758   */\n  0x00\n    /* \"#utility.yul\":784:790   */\n  dup2\n    /* \"#utility.yul\":778:791   */\n  mload\n    /* \"#utility.yul\":769:791   */\n  swap1\n  pop\n    /* \"#utility.yul\":800:833   */\n  tag_31\n    /* \"#utility.yul\":827:832   */\n  dup2\n    /* \"#utility.yul\":800:833   */\n  tag_17\n  jump\t// in\ntag_31:\n    /* \"#utility.yul\":696:839   */\n  swap3\n  swap2\n  pop\n  pop\n  jump\t// out\n    /* \"#utility.yul\":845:1196   */\ntag_3:\n    /* \"#utility.yul\":915:921   */\n  0x00\n    /* \"#utility.yul\":964:966   */\n  0x20\n    /* \"#utility.yul\":952:961   */\n  dup3\n    /* \"#utility.yul\":943:950   */\n  dup5\n    /* \"#utility.yul\":939:962   */\n  sub\n    /* \"#utility.yul\":935:967   */\n  slt\n    /* \"#utility.yul\":932:1051   */\n  iszero\n  tag_33\n  jumpi\n    /* \"#utility.yul\":970:1049   */\n  tag_34\n  tag_13\n  jump\t// in\ntag_34:\n    /* \"#utility.yul\":932:1051   */\ntag_33:\n    /* \"#utility.yul\":1090:1091   */\n  0x00\n    /* \"#utility.yul\":1115:1179   */\n  tag_35\n    /* \"#utility.yul\":1171:1178   */\n  dup5\n    /* \"#utility.yul\":1162:1168   */\n  dup3\n    /* \"#utility.yul\":1151:1160   */\n  dup6\n    /* \"#utility.yul\":1147:1169   */\n  add\n    /* \"#utility.yul\":1115:1179   */\n  tag_18\n  jump\t// in\ntag_35:\n    /* \"#utility.yul\":1105:1179   */\n  swap2\n  pop\n    /* \"#utility.yul\":1061:1189   */\n  pop\n    /* \"#utility.yul\":845:1196   */\n  swap3\n  swap2\n  pop\n  pop\n  jump\t// out\n    /* \"#utility.yul\":1202:1320   */\ntag_19:\n    /* \"#utility.yul\":1289:1313   */\n  tag_37\n    /* \"#utility.yul\":1307:1312   */\n  dup2\n    /* \"#utility.yul\":1289:1313   */\n  tag_16\n  jump\t// in\ntag_37:\n    /* \"#utility.yul\":1284:1287   */\n  dup3\n    /* \"#utility.yul\":1277:1314   */\n  mstore\n    /* \"#utility.yul\":1202:1320   */\n  pop\n  pop\n  jump\t// out\n    /* \"#utility.yul\":1326:1548   */\ntag_9:\n    /* \"#utility.yul\":1419:1423   */\n  0x00\n    /* \"#utility.yul\":1457:1459   */\n  0x20\n    /* \"#utility.yul\":1446:1455   */\n  dup3\n    /* \"#utility.yul\":1442:1460   */\n  add\n    /* \"#utility.yul\":1434:1460   */\n  swap1\n  pop\n    /* \"#utility.yul\":1470:1541   */\n  tag_39\n    /* \"#utility.yul\":1538:1539   */\n  0x00\n    /* \"#utility.yul\":1527:1536   */\n  dup4\n    /* \"#utility.yul\":1523:1540   */\n  add\n    /* \"#utility.yul\":1514:1520   */\n  dup5\n    /* \"#utility.yul\":1470:1541   */\n  tag_19\n  jump\t// in\ntag_39:\n    /* \"#utility.yul\":1326:1548   */\n  swap3\n  swap2\n  pop\n  pop\n  jump\t// out\n    /* \"contracts/WalletController.sol\":282:2485  contract WalletController is CCIPReceiver {... */\ntag_11:\n  mload(0x80)\n  codecopy(0x00, dataOffset(sub_0), dataSize(sub_0))\n  0x00\n  assignImmutable(\"0x5c4c6aa067b6f8e6cb38e6ab843832a94d1712d661a04d73c517d6a1931a9e5d\")\n  return(0x00, dataSize(sub_0))\nstop\n\nsub_0: assembly {\n        /* \"contracts/WalletController.sol\":282:2485  contract WalletController is CCIPReceiver {... */\n      mstore(0x40, 0x80)\n      jumpi(tag_1, lt(calldatasize, 0x04))\n      shr(0xe0, calldataload(0x00))\n      dup1\n      0x85572ffb\n      gt\n      tag_11\n      jumpi\n      dup1\n      0x85572ffb\n      eq\n      tag_6\n      jumpi\n      dup1\n      0xaff9bd9c\n      eq\n      tag_7\n      jumpi\n      dup1\n      0xb0f479a1\n      eq\n      tag_8\n      jumpi\n      dup1\n      0xbaa96000\n      eq\n      tag_9\n      jumpi\n      dup1\n      0xdd105862\n      eq\n      tag_10\n      jumpi\n      jump(tag_1)\n    tag_11:\n      dup1\n      0x01ffc9a7\n      eq\n      tag_2\n      jumpi\n      dup1\n      0x08f20630\n      eq\n      tag_3\n      jumpi\n      dup1\n      0x3a51d246\n      eq\n      tag_4\n      jumpi\n      dup1\n      0x3b0e8752\n      eq\n      tag_5\n      jumpi\n    tag_1:\n      0x00\n      dup1\n      revert\n        /* \"@chainlink/contracts-ccip@1.6.0/contracts/applications/CCIPReceiver.sol\":1447:1664  function supportsInterface(... */\n    tag_2:\n      callvalue\n      dup1\n      iszero\n      tag_12\n      jumpi\n      0x00\n      dup1\n      revert\n    tag_12:\n      pop\n      tag_13\n      0x04\n      dup1\n      calldatasize\n      sub\n      dup2\n      add\n      swap1\n      tag_14\n      swap2\n      swap1\n      tag_15\n      jump\t// in\n    tag_14:\n      tag_16\n      jump\t// in\n    tag_13:\n      mload(0x40)\n      tag_17\n      swap2\n      swap1\n      tag_18\n      jump\t// in\n    tag_17:\n      mload(0x40)\n      dup1\n      swap2\n      sub\n      swap1\n      return\n        /* \"contracts/WalletController.sol\":695:834  function getWalletAddress(string calldata ownerId) external view returns (address wallet){... */\n    tag_3:\n      callvalue\n      dup1\n      iszero\n      tag_19\n      jumpi\n      0x00\n      dup1\n      revert\n    tag_19:\n      pop\n      tag_20\n      0x04\n      dup1\n      calldatasize\n      sub\n      dup2\n      add\n      swap1\n      tag_21\n      swap2\n      swap1\n      tag_22\n      jump\t// in\n    tag_21:\n      tag_23\n      jump\t// in\n    tag_20:\n      mload(0x40)\n      tag_24\n      swap2\n      swap1\n      tag_25\n      jump\t// in\n    tag_24:\n      mload(0x40)\n      dup1\n      swap2\n      sub\n      swap1\n      return\n        /* \"contracts/WalletController.sol\":840:1009  function getBalance(string calldata ownerId) external view returns (uint256 contractBalance) {... */\n    tag_4:\n      callvalue\n      dup1\n      iszero\n      tag_26\n      jumpi\n      0x00\n      dup1\n      revert\n    tag_26:\n      pop\n      tag_27\n      0x04\n      dup1\n      calldatasize\n      sub\n      dup2\n      add\n      swap1\n      tag_28\n      swap2\n      swap1\n      tag_22\n      jump\t// in\n    tag_28:\n      tag_29\n      jump\t// in\n    tag_27:\n      mload(0x40)\n      tag_30\n      swap2\n      swap1\n      tag_31\n      jump\t// in\n    tag_30:\n      mload(0x40)\n      dup1\n      swap2\n      sub\n      swap1\n      return\n        /* \"contracts/WalletController.sol\":1632:1886  function withdrawTo(string calldata ownerId, address to, uint256 amount) external {... */\n    tag_5:\n      callvalue\n      dup1\n      iszero\n      tag_32\n      jumpi\n      0x00\n      dup1\n      revert\n    tag_32:\n      pop\n      tag_33\n      0x04\n      dup1\n      calldatasize\n      sub\n      dup2\n      add\n      swap1\n      tag_34\n      swap2\n      swap1\n      tag_35\n      jump\t// in\n    tag_34:\n      tag_36\n      jump\t// in\n    tag_33:\n      stop\n        /* \"@chainlink/contracts-ccip@1.6.0/contracts/applications/CCIPReceiver.sol\":1710:1848  function ccipReceive(... */\n    tag_6:\n      callvalue\n      dup1\n      iszero\n      tag_37\n      jumpi\n      0x00\n      dup1\n      revert\n    tag_37:\n      pop\n      tag_38\n      0x04\n      dup1\n      calldatasize\n      sub\n      dup2\n      add\n      swap1\n      tag_39\n      swap2\n      swap1\n      tag_40\n      jump\t// in\n    tag_39:\n      tag_41\n      jump\t// in\n    tag_38:\n      stop\n        /* \"contracts/WalletController.sol\":452:501  mapping(string => address) public walletOwnership */\n    tag_7:\n      callvalue\n      dup1\n      iszero\n      tag_42\n      jumpi\n      0x00\n      dup1\n      revert\n    tag_42:\n      pop\n      tag_43\n      0x04\n      dup1\n      calldatasize\n      sub\n      dup2\n      add\n      swap1\n      tag_44\n      swap2\n      swap1\n      tag_45\n      jump\t// in\n    tag_44:\n      tag_46\n      jump\t// in\n    tag_43:\n      mload(0x40)\n      tag_47\n      swap2\n      swap1\n      tag_25\n      jump\t// in\n    tag_47:\n      mload(0x40)\n      dup1\n      swap2\n      sub\n      swap1\n      return\n        /* \"@chainlink/contracts-ccip@1.6.0/contracts/applications/CCIPReceiver.sol\":2113:2211  function getRouter() public view virtual returns (address) {... */\n    tag_8:\n      callvalue\n      dup1\n      iszero\n      tag_48\n      jumpi\n      0x00\n      dup1\n      revert\n    tag_48:\n      pop\n      tag_49\n      tag_50\n      jump\t// in\n    tag_49:\n      mload(0x40)\n      tag_51\n      swap2\n      swap1\n      tag_25\n      jump\t// in\n    tag_51:\n      mload(0x40)\n      dup1\n      swap2\n      sub\n      swap1\n      return\n        /* \"contracts/WalletController.sol\":508:545  address public userInteractionAddress */\n    tag_9:\n      callvalue\n      dup1\n      iszero\n      tag_52\n      jumpi\n      0x00\n      dup1\n      revert\n    tag_52:\n      pop\n      tag_53\n      tag_54\n      jump\t// in\n    tag_53:\n      mload(0x40)\n      tag_55\n      swap2\n      swap1\n      tag_25\n      jump\t// in\n    tag_55:\n      mload(0x40)\n      dup1\n      swap2\n      sub\n      swap1\n      return\n        /* \"contracts/WalletController.sol\":1364:1626  function depositTo(string calldata ownerId) external payable {... */\n    tag_10:\n      tag_56\n      0x04\n      dup1\n      calldatasize\n      sub\n      dup2\n      add\n      swap1\n      tag_57\n      swap2\n      swap1\n      tag_22\n      jump\t// in\n    tag_57:\n      tag_58\n      jump\t// in\n    tag_56:\n      stop\n        /* \"@chainlink/contracts-ccip@1.6.0/contracts/applications/CCIPReceiver.sol\":1447:1664  function supportsInterface(... */\n    tag_16:\n        /* \"@chainlink/contracts-ccip@1.6.0/contracts/applications/CCIPReceiver.sol\":1540:1544  bool */\n      0x00\n        /* \"@chainlink/contracts-ccip@1.6.0/contracts/applications/CCIPReceiver.sol\":1574:1615  type(IAny2EVMMessageReceiver).interfaceId */\n      0x85572ffb00000000000000000000000000000000000000000000000000000000\n        /* \"@chainlink/contracts-ccip@1.6.0/contracts/applications/CCIPReceiver.sol\":1559:1615  interfaceId == type(IAny2EVMMessageReceiver).interfaceId */\n      not(0xffffffffffffffffffffffffffffffffffffffffffffffffffffffff)\n      and\n        /* \"@chainlink/contracts-ccip@1.6.0/contracts/applications/CCIPReceiver.sol\":1559:1570  interfaceId */\n      dup3\n        /* \"@chainlink/contracts-ccip@1.6.0/contracts/applications/CCIPReceiver.sol\":1559:1615  interfaceId == type(IAny2EVMMessageReceiver).interfaceId */\n      not(0xffffffffffffffffffffffffffffffffffffffffffffffffffffffff)\n      and\n      eq\n        /* \"@chainlink/contracts-ccip@1.6.0/contracts/applications/CCIPReceiver.sol\":1559:1659  interfaceId == type(IAny2EVMMessageReceiver).interfaceId || interfaceId == type(IERC165).interfaceId */\n      dup1\n      tag_60\n      jumpi\n      pop\n        /* \"@chainlink/contracts-ccip@1.6.0/contracts/applications/CCIPReceiver.sol\":1634:1659  type(IERC165).interfaceId */\n      0x01ffc9a700000000000000000000000000000000000000000000000000000000\n        /* \"@chainlink/contracts-ccip@1.6.0/contracts/applications/CCIPReceiver.sol\":1619:1659  interfaceId == type(IERC165).interfaceId */\n      not(0xffffffffffffffffffffffffffffffffffffffffffffffffffffffff)\n      and\n        /* \"@chainlink/contracts-ccip@1.6.0/contracts/applications/CCIPReceiver.sol\":1619:1630  interfaceId */\n      dup3\n        /* \"@chainlink/contracts-ccip@1.6.0/contracts/applications/CCIPReceiver.sol\":1619:1659  interfaceId == type(IERC165).interfaceId */\n      not(0xffffffffffffffffffffffffffffffffffffffffffffffffffffffff)\n      and\n      eq\n        /* \"@chainlink/contracts-ccip@1.6.0/contracts/applications/CCIPReceiver.sol\":1559:1659  interfaceId == type(IAny2EVMMessageReceiver).interfaceId || interfaceId == type(IERC165).interfaceId */\n    tag_60:\n        /* \"@chainlink/contracts-ccip@1.6.0/contracts/applications/CCIPReceiver.sol\":1552:1659  return interfaceId == type(IAny2EVMMessageReceiver).interfaceId || interfaceId == type(IERC165).interfaceId */\n      swap1\n      pop\n        /* \"@chainlink/contracts-ccip@1.6.0/contracts/applications/CCIPReceiver.sol\":1447:1664  function supportsInterface(... */\n      swap2\n      swap1\n      pop\n      jump\t// out\n        /* \"contracts/WalletController.sol\":695:834  function getWalletAddress(string calldata ownerId) external view returns (address wallet){... */\n    tag_23:\n        /* \"contracts/WalletController.sol\":769:783  address wallet */\n      0x00\n        /* \"contracts/WalletController.sol\":803:818  walletOwnership */\n      dup1\n        /* \"contracts/WalletController.sol\":819:826  ownerId */\n      dup4\n      dup4\n        /* \"contracts/WalletController.sol\":803:827  walletOwnership[ownerId] */\n      mload(0x40)\n      tag_62\n      swap3\n      swap2\n      swap1\n      tag_63\n      jump\t// in\n    tag_62:\n      swap1\n      dup2\n      mstore\n      0x20\n      add\n      mload(0x40)\n      dup1\n      swap2\n      sub\n      swap1\n      keccak256\n      0x00\n      swap1\n      sload\n      swap1\n      0x0100\n      exp\n      swap1\n      div\n      0xffffffffffffffffffffffffffffffffffffffff\n      and\n        /* \"contracts/WalletController.sol\":794:827  wallet = walletOwnership[ownerId] */\n      swap1\n      pop\n        /* \"contracts/WalletController.sol\":695:834  function getWalletAddress(string calldata ownerId) external view returns (address wallet){... */\n      swap3\n      swap2\n      pop\n      pop\n      jump\t// out\n        /* \"contracts/WalletController.sol\":840:1009  function getBalance(string calldata ownerId) external view returns (uint256 contractBalance) {... */\n    tag_29:\n        /* \"contracts/WalletController.sol\":908:931  uint256 contractBalance */\n      0x00\n        /* \"contracts/WalletController.sol\":969:984  walletOwnership */\n      dup1\n        /* \"contracts/WalletController.sol\":985:992  ownerId */\n      dup4\n      dup4\n        /* \"contracts/WalletController.sol\":969:993  walletOwnership[ownerId] */\n      mload(0x40)\n      tag_65\n      swap3\n      swap2\n      swap1\n      tag_63\n      jump\t// in\n    tag_65:\n      swap1\n      dup2\n      mstore\n      0x20\n      add\n      mload(0x40)\n      dup1\n      swap2\n      sub\n      swap1\n      keccak256\n      0x00\n      swap1\n      sload\n      swap1\n      0x0100\n      exp\n      swap1\n      div\n      0xffffffffffffffffffffffffffffffffffffffff\n      and\n        /* \"contracts/WalletController.sol\":961:1002  address(walletOwnership[ownerId]).balance */\n      0xffffffffffffffffffffffffffffffffffffffff\n      and\n      balance\n        /* \"contracts/WalletController.sol\":943:1002  contractBalance = address(walletOwnership[ownerId]).balance */\n      swap1\n      pop\n        /* \"contracts/WalletController.sol\":840:1009  function getBalance(string calldata ownerId) external view returns (uint256 contractBalance) {... */\n      swap3\n      swap2\n      pop\n      pop\n      jump\t// out\n        /* \"contracts/WalletController.sol\":1632:1886  function withdrawTo(string calldata ownerId, address to, uint256 amount) external {... */\n    tag_36:\n        /* \"contracts/WalletController.sol\":1724:1738  address wallet */\n      0x00\n        /* \"contracts/WalletController.sol\":1741:1756  walletOwnership */\n      dup1\n        /* \"contracts/WalletController.sol\":1757:1764  ownerId */\n      dup6\n      dup6\n        /* \"contracts/WalletController.sol\":1741:1765  walletOwnership[ownerId] */\n      mload(0x40)\n      tag_67\n      swap3\n      swap2\n      swap1\n      tag_63\n      jump\t// in\n    tag_67:\n      swap1\n      dup2\n      mstore\n      0x20\n      add\n      mload(0x40)\n      dup1\n      swap2\n      sub\n      swap1\n      keccak256\n      0x00\n      swap1\n      sload\n      swap1\n      0x0100\n      exp\n      swap1\n      div\n      0xffffffffffffffffffffffffffffffffffffffff\n      and\n        /* \"contracts/WalletController.sol\":1724:1765  address wallet = walletOwnership[ownerId] */\n      swap1\n      pop\n        /* \"contracts/WalletController.sol\":1801:1802  0 */\n      0x00\n        /* \"contracts/WalletController.sol\":1783:1803  wallet != address(0) */\n      0xffffffffffffffffffffffffffffffffffffffff\n      and\n        /* \"contracts/WalletController.sol\":1783:1789  wallet */\n      dup2\n        /* \"contracts/WalletController.sol\":1783:1803  wallet != address(0) */\n      0xffffffffffffffffffffffffffffffffffffffff\n      and\n      sub\n        /* \"contracts/WalletController.sol\":1775:1824  require(wallet != address(0), \"Wallet not found\") */\n      tag_68\n      jumpi\n      mload(0x40)\n      0x08c379a000000000000000000000000000000000000000000000000000000000\n      dup2\n      mstore\n      0x04\n      add\n      tag_69\n      swap1\n      tag_70\n      jump\t// in\n    tag_69:\n      mload(0x40)\n      dup1\n      swap2\n      sub\n      swap1\n      revert\n    tag_68:\n        /* \"contracts/WalletController.sol\":1850:1856  wallet */\n      dup1\n        /* \"contracts/WalletController.sol\":1835:1867  Wallet(payable(wallet)).withdraw */\n      0xffffffffffffffffffffffffffffffffffffffff\n      and\n      0xf3fef3a3\n        /* \"contracts/WalletController.sol\":1868:1870  to */\n      dup5\n        /* \"contracts/WalletController.sol\":1872:1878  amount */\n      dup5\n        /* \"contracts/WalletController.sol\":1835:1879  Wallet(payable(wallet)).withdraw(to, amount) */\n      mload(0x40)\n      dup4\n      0xffffffff\n      and\n      0xe0\n      shl\n      dup2\n      mstore\n      0x04\n      add\n      tag_71\n      swap3\n      swap2\n      swap1\n      tag_72\n      jump\t// in\n    tag_71:\n      0x00\n      mload(0x40)\n      dup1\n      dup4\n      sub\n      dup2\n      0x00\n      dup8\n      dup1\n      extcodesize\n      iszero\n      dup1\n      iszero\n      tag_73\n      jumpi\n      0x00\n      dup1\n      revert\n    tag_73:\n      pop\n      gas\n      call\n      iszero\n      dup1\n      iszero\n      tag_75\n      jumpi\n      returndatasize\n      0x00\n      dup1\n      returndatacopy\n      revert(0x00, returndatasize)\n    tag_75:\n      pop\n      pop\n      pop\n      pop\n        /* \"contracts/WalletController.sol\":1714:1886  {... */\n      pop\n        /* \"contracts/WalletController.sol\":1632:1886  function withdrawTo(string calldata ownerId, address to, uint256 amount) external {... */\n      pop\n      pop\n      pop\n      pop\n      jump\t// out\n        /* \"@chainlink/contracts-ccip@1.6.0/contracts/applications/CCIPReceiver.sol\":1710:1848  function ccipReceive(... */\n    tag_41:\n        /* \"@chainlink/contracts-ccip@1.6.0/contracts/applications/CCIPReceiver.sol\":2357:2368  getRouter() */\n      tag_77\n        /* \"@chainlink/contracts-ccip@1.6.0/contracts/applications/CCIPReceiver.sol\":2357:2366  getRouter */\n      tag_50\n        /* \"@chainlink/contracts-ccip@1.6.0/contracts/applications/CCIPReceiver.sol\":2357:2368  getRouter() */\n      jump\t// in\n    tag_77:\n        /* \"@chainlink/contracts-ccip@1.6.0/contracts/applications/CCIPReceiver.sol\":2343:2368  msg.sender != getRouter() */\n      0xffffffffffffffffffffffffffffffffffffffff\n      and\n        /* \"@chainlink/contracts-ccip@1.6.0/contracts/applications/CCIPReceiver.sol\":2343:2353  msg.sender */\n      caller\n        /* \"@chainlink/contracts-ccip@1.6.0/contracts/applications/CCIPReceiver.sol\":2343:2368  msg.sender != getRouter() */\n      0xffffffffffffffffffffffffffffffffffffffff\n      and\n      eq\n        /* \"@chainlink/contracts-ccip@1.6.0/contracts/applications/CCIPReceiver.sol\":2339:2402  if (msg.sender != getRouter()) revert InvalidRouter(msg.sender) */\n      tag_78\n      jumpi\n        /* \"@chainlink/contracts-ccip@1.6.0/contracts/applications/CCIPReceiver.sol\":2391:2401  msg.sender */\n      caller\n        /* \"@chainlink/contracts-ccip@1.6.0/contracts/applications/CCIPReceiver.sol\":2377:2402  InvalidRouter(msg.sender) */\n      mload(0x40)\n      0xd7f7333400000000000000000000000000000000000000000000000000000000\n      dup2\n      mstore\n      0x04\n      add\n      tag_79\n      swap2\n      swap1\n      tag_25\n      jump\t// in\n    tag_79:\n      mload(0x40)\n      dup1\n      swap2\n      sub\n      swap1\n      revert\n        /* \"@chainlink/contracts-ccip@1.6.0/contracts/applications/CCIPReceiver.sol\":2339:2402  if (msg.sender != getRouter()) revert InvalidRouter(msg.sender) */\n    tag_78:\n        /* \"@chainlink/contracts-ccip@1.6.0/contracts/applications/CCIPReceiver.sol\":1822:1843  _ccipReceive(message) */\n      tag_81\n        /* \"@chainlink/contracts-ccip@1.6.0/contracts/applications/CCIPReceiver.sol\":1835:1842  message */\n      dup2\n        /* \"@chainlink/contracts-ccip@1.6.0/contracts/applications/CCIPReceiver.sol\":1822:1843  _ccipReceive(message) */\n      tag_82\n      swap1\n      tag_83\n      jump\t// in\n    tag_82:\n        /* \"@chainlink/contracts-ccip@1.6.0/contracts/applications/CCIPReceiver.sol\":1822:1834  _ccipReceive */\n      tag_84\n        /* \"@chainlink/contracts-ccip@1.6.0/contracts/applications/CCIPReceiver.sol\":1822:1843  _ccipReceive(message) */\n      jump\t// in\n    tag_81:\n        /* \"@chainlink/contracts-ccip@1.6.0/contracts/applications/CCIPReceiver.sol\":1710:1848  function ccipReceive(... */\n      pop\n      jump\t// out\n        /* \"contracts/WalletController.sol\":452:501  mapping(string => address) public walletOwnership */\n    tag_46:\n      0x00\n      dup2\n      dup1\n      mload\n      0x20\n      dup2\n      add\n      dup3\n      add\n      dup1\n      mload\n      dup5\n      dup3\n      mstore\n      0x20\n      dup4\n      add\n      0x20\n      dup6\n      add\n      keccak256\n      dup2\n      dup4\n      mstore\n      dup1\n      swap6\n      pop\n      pop\n      pop\n      pop\n      pop\n      pop\n      0x00\n      swap2\n      pop\n      sload\n      swap1\n      0x0100\n      exp\n      swap1\n      div\n      0xffffffffffffffffffffffffffffffffffffffff\n      and\n      dup2\n      jump\t// out\n        /* \"@chainlink/contracts-ccip@1.6.0/contracts/applications/CCIPReceiver.sol\":2113:2211  function getRouter() public view virtual returns (address) {... */\n    tag_50:\n        /* \"@chainlink/contracts-ccip@1.6.0/contracts/applications/CCIPReceiver.sol\":2163:2170  address */\n      0x00\n        /* \"@chainlink/contracts-ccip@1.6.0/contracts/applications/CCIPReceiver.sol\":2193:2205  i_ccipRouter */\n      immutable(\"0x5c4c6aa067b6f8e6cb38e6ab843832a94d1712d661a04d73c517d6a1931a9e5d\")\n        /* \"@chainlink/contracts-ccip@1.6.0/contracts/applications/CCIPReceiver.sol\":2178:2206  return address(i_ccipRouter) */\n      swap1\n      pop\n        /* \"@chainlink/contracts-ccip@1.6.0/contracts/applications/CCIPReceiver.sol\":2113:2211  function getRouter() public view virtual returns (address) {... */\n      swap1\n      jump\t// out\n        /* \"contracts/WalletController.sol\":508:545  address public userInteractionAddress */\n    tag_54:\n      0x01\n      0x00\n      swap1\n      sload\n      swap1\n      0x0100\n      exp\n      swap1\n      div\n      0xffffffffffffffffffffffffffffffffffffffff\n      and\n      dup2\n      jump\t// out\n        /* \"contracts/WalletController.sol\":1364:1626  function depositTo(string calldata ownerId) external payable {... */\n    tag_58:\n        /* \"contracts/WalletController.sol\":1435:1449  address wallet */\n      0x00\n        /* \"contracts/WalletController.sol\":1452:1479  _getOrCreateWallet(ownerId) */\n      tag_87\n        /* \"contracts/WalletController.sol\":1471:1478  ownerId */\n      dup4\n      dup4\n        /* \"contracts/WalletController.sol\":1452:1479  _getOrCreateWallet(ownerId) */\n      dup1\n      dup1\n      0x1f\n      add\n      0x20\n      dup1\n      swap2\n      div\n      mul\n      0x20\n      add\n      mload(0x40)\n      swap1\n      dup2\n      add\n      0x40\n      mstore\n      dup1\n      swap4\n      swap3\n      swap2\n      swap1\n      dup2\n      dup2\n      mstore\n      0x20\n      add\n      dup4\n      dup4\n      dup1\n      dup3\n      dup5\n      calldatacopy\n      0x00\n      dup2\n      dup5\n      add\n      mstore\n      not(0x1f)\n      0x1f\n      dup3\n      add\n      and\n      swap1\n      pop\n      dup1\n      dup4\n      add\n      swap3\n      pop\n      pop\n      pop\n      pop\n      pop\n      pop\n      pop\n        /* \"contracts/WalletController.sol\":1452:1470  _getOrCreateWallet */\n      tag_88\n        /* \"contracts/WalletController.sol\":1452:1479  _getOrCreateWallet(ownerId) */\n      jump\t// in\n    tag_87:\n        /* \"contracts/WalletController.sol\":1435:1479  address wallet = _getOrCreateWallet(ownerId) */\n      swap1\n      pop\n        /* \"contracts/WalletController.sol\":1490:1502  bool success */\n      0x00\n        /* \"contracts/WalletController.sol\":1508:1514  wallet */\n      dup2\n        /* \"contracts/WalletController.sol\":1508:1519  wallet.call */\n      0xffffffffffffffffffffffffffffffffffffffff\n      and\n        /* \"contracts/WalletController.sol\":1527:1536  msg.value */\n      callvalue\n        /* \"contracts/WalletController.sol\":1538:1574  abi.encodeWithSignature(\"deposit()\") */\n      add(0x24, mload(0x40))\n      mload(0x40)\n      0x20\n      dup2\n      dup4\n      sub\n      sub\n      dup2\n      mstore\n      swap1\n      0x40\n      mstore\n      and(not(0xffffffffffffffffffffffffffffffffffffffffffffffffffffffff), 0xd0e30db000000000000000000000000000000000000000000000000000000000)\n      0x20\n      dup3\n      add\n      dup1\n      mload\n      0xffffffffffffffffffffffffffffffffffffffffffffffffffffffff\n      dup4\n      dup2\n      dup4\n      and\n      or\n      dup4\n      mstore\n      pop\n      pop\n      pop\n      pop\n        /* \"contracts/WalletController.sol\":1508:1575  wallet.call{value: msg.value}(abi.encodeWithSignature(\"deposit()\")) */\n      mload(0x40)\n      tag_89\n      swap2\n      swap1\n      tag_90\n      jump\t// in\n    tag_89:\n      0x00\n      mload(0x40)\n      dup1\n      dup4\n      sub\n      dup2\n      dup6\n      dup8\n      gas\n      call\n      swap3\n      pop\n      pop\n      pop\n      returndatasize\n      dup1\n      0x00\n      dup2\n      eq\n      tag_93\n      jumpi\n      mload(0x40)\n      swap2\n      pop\n      and(add(returndatasize, 0x3f), not(0x1f))\n      dup3\n      add\n      0x40\n      mstore\n      returndatasize\n      dup3\n      mstore\n      returndatasize\n      0x00\n      0x20\n      dup5\n      add\n      returndatacopy\n      jump(tag_92)\n    tag_93:\n      0x60\n      swap2\n      pop\n    tag_92:\n      pop\n        /* \"contracts/WalletController.sol\":1489:1575  (bool success, ) = wallet.call{value: msg.value}(abi.encodeWithSignature(\"deposit()\")) */\n      pop\n      swap1\n      pop\n        /* \"contracts/WalletController.sol\":1593:1600  success */\n      dup1\n        /* \"contracts/WalletController.sol\":1585:1619  require(success, \"Deposit failed\") */\n      tag_94\n      jumpi\n      mload(0x40)\n      0x08c379a000000000000000000000000000000000000000000000000000000000\n      dup2\n      mstore\n      0x04\n      add\n      tag_95\n      swap1\n      tag_96\n      jump\t// in\n    tag_95:\n      mload(0x40)\n      dup1\n      swap2\n      sub\n      swap1\n      revert\n    tag_94:\n        /* \"contracts/WalletController.sol\":1425:1626  {... */\n      pop\n      pop\n        /* \"contracts/WalletController.sol\":1364:1626  function depositTo(string calldata ownerId) external payable {... */\n      pop\n      pop\n      jump\t// out\n        /* \"contracts/WalletController.sol\":2235:2483  function _ccipReceive(Client.Any2EVMMessage memory message) internal override {... */\n    tag_84:\n        /* \"contracts/WalletController.sol\":2323:2349  TradeDetails memory txData */\n      0x00\n        /* \"contracts/WalletController.sol\":2363:2370  message */\n      dup2\n        /* \"contracts/WalletController.sol\":2363:2375  message.data */\n      0x60\n      add\n      mload\n        /* \"contracts/WalletController.sol\":2352:2392  abi.decode(message.data, (TradeDetails)) */\n      dup1\n      0x20\n      add\n      swap1\n      mload\n      dup2\n      add\n      swap1\n      tag_98\n      swap2\n      swap1\n      tag_99\n      jump\t// in\n    tag_98:\n        /* \"contracts/WalletController.sol\":2323:2392  TradeDetails memory txData = abi.decode(message.data, (TradeDetails)) */\n      swap1\n      pop\n        /* \"contracts/WalletController.sol\":2402:2476  transferTo(txData.sourceOwnerId, txData.destinationOwnerId, txData.amount) */\n      tag_100\n        /* \"contracts/WalletController.sol\":2413:2419  txData */\n      dup2\n        /* \"contracts/WalletController.sol\":2413:2433  txData.sourceOwnerId */\n      0x00\n      add\n      mload\n        /* \"contracts/WalletController.sol\":2435:2441  txData */\n      dup3\n        /* \"contracts/WalletController.sol\":2435:2460  txData.destinationOwnerId */\n      0x20\n      add\n      mload\n        /* \"contracts/WalletController.sol\":2462:2468  txData */\n      dup4\n        /* \"contracts/WalletController.sol\":2462:2475  txData.amount */\n      0x40\n      add\n      mload\n        /* \"contracts/WalletController.sol\":2402:2412  transferTo */\n      tag_101\n        /* \"contracts/WalletController.sol\":2402:2476  transferTo(txData.sourceOwnerId, txData.destinationOwnerId, txData.amount) */\n      jump\t// in\n    tag_100:\n        /* \"contracts/WalletController.sol\":2313:2483  {... */\n      pop\n        /* \"contracts/WalletController.sol\":2235:2483  function _ccipReceive(Client.Any2EVMMessage memory message) internal override {... */\n      pop\n      jump\t// out\n        /* \"contracts/WalletController.sol\":1015:1358  function _getOrCreateWallet(string memory ownerId) internal returns (address wallet) {... */\n    tag_88:\n        /* \"contracts/WalletController.sol\":1084:1098  address wallet */\n      0x00\n        /* \"contracts/WalletController.sol\":1119:1134  walletOwnership */\n      dup1\n        /* \"contracts/WalletController.sol\":1135:1142  ownerId */\n      dup3\n        /* \"contracts/WalletController.sol\":1119:1143  walletOwnership[ownerId] */\n      mload(0x40)\n      tag_103\n      swap2\n      swap1\n      tag_104\n      jump\t// in\n    tag_103:\n      swap1\n      dup2\n      mstore\n      0x20\n      add\n      mload(0x40)\n      dup1\n      swap2\n      sub\n      swap1\n      keccak256\n      0x00\n      swap1\n      sload\n      swap1\n      0x0100\n      exp\n      swap1\n      div\n      0xffffffffffffffffffffffffffffffffffffffff\n      and\n        /* \"contracts/WalletController.sol\":1110:1143  wallet = walletOwnership[ownerId] */\n      swap1\n      pop\n        /* \"contracts/WalletController.sol\":1175:1176  0 */\n      0x00\n        /* \"contracts/WalletController.sol\":1157:1177  wallet == address(0) */\n      0xffffffffffffffffffffffffffffffffffffffff\n      and\n        /* \"contracts/WalletController.sol\":1157:1163  wallet */\n      dup2\n        /* \"contracts/WalletController.sol\":1157:1177  wallet == address(0) */\n      0xffffffffffffffffffffffffffffffffffffffff\n      and\n      sub\n        /* \"contracts/WalletController.sol\":1153:1352  if (wallet == address(0)) {... */\n      tag_105\n      jumpi\n        /* \"contracts/WalletController.sol\":1229:1233  this */\n      address\n        /* \"contracts/WalletController.sol\":1236:1243  ownerId */\n      dup3\n        /* \"contracts/WalletController.sol\":1210:1244  new Wallet(address(this), ownerId) */\n      mload(0x40)\n      tag_106\n      swap1\n      tag_107\n      jump\t// in\n    tag_106:\n      tag_108\n      swap3\n      swap2\n      swap1\n      tag_109\n      jump\t// in\n    tag_108:\n      mload(0x40)\n      dup1\n      swap2\n      sub\n      swap1\n      0x00\n      create\n      dup1\n      iszero\n      dup1\n      iszero\n      tag_110\n      jumpi\n      returndatasize\n      0x00\n      dup1\n      returndatacopy\n      revert(0x00, returndatasize)\n    tag_110:\n      pop\n        /* \"contracts/WalletController.sol\":1193:1245  wallet = address(new Wallet(address(this), ownerId)) */\n      swap1\n      pop\n        /* \"contracts/WalletController.sol\":1286:1292  wallet */\n      dup1\n        /* \"contracts/WalletController.sol\":1259:1274  walletOwnership */\n      0x00\n        /* \"contracts/WalletController.sol\":1275:1282  ownerId */\n      dup4\n        /* \"contracts/WalletController.sol\":1259:1283  walletOwnership[ownerId] */\n      mload(0x40)\n      tag_111\n      swap2\n      swap1\n      tag_104\n      jump\t// in\n    tag_111:\n      swap1\n      dup2\n      mstore\n      0x20\n      add\n      mload(0x40)\n      dup1\n      swap2\n      sub\n      swap1\n      keccak256\n      0x00\n        /* \"contracts/WalletController.sol\":1259:1292  walletOwnership[ownerId] = wallet */\n      0x0100\n      exp\n      dup2\n      sload\n      dup2\n      0xffffffffffffffffffffffffffffffffffffffff\n      mul\n      not\n      and\n      swap1\n      dup4\n      0xffffffffffffffffffffffffffffffffffffffff\n      and\n      mul\n      or\n      swap1\n      sstore\n      pop\n        /* \"contracts/WalletController.sol\":1311:1341  WalletCreated(ownerId, wallet) */\n      0x582ba04b4371b240e4864e0bea1ca69f930e4b5e4b2fa7e5e5582b1ca39e00ef\n        /* \"contracts/WalletController.sol\":1325:1332  ownerId */\n      dup3\n        /* \"contracts/WalletController.sol\":1334:1340  wallet */\n      dup3\n        /* \"contracts/WalletController.sol\":1311:1341  WalletCreated(ownerId, wallet) */\n      mload(0x40)\n      tag_112\n      swap3\n      swap2\n      swap1\n      tag_113\n      jump\t// in\n    tag_112:\n      mload(0x40)\n      dup1\n      swap2\n      sub\n      swap1\n      log1\n        /* \"contracts/WalletController.sol\":1153:1352  if (wallet == address(0)) {... */\n    tag_105:\n        /* \"contracts/WalletController.sol\":1015:1358  function _getOrCreateWallet(string memory ownerId) internal returns (address wallet) {... */\n      swap2\n      swap1\n      pop\n      jump\t// out\n        /* \"contracts/WalletController.sol\":1892:2229  function transferTo(string memory sourceOwnerId, string memory destinationOwnerId, uint256 amount) internal {... */\n    tag_101:\n        /* \"contracts/WalletController.sol\":2010:2031  address sourceAddress */\n      0x00\n        /* \"contracts/WalletController.sol\":2034:2067  _getOrCreateWallet(sourceOwnerId) */\n      tag_115\n        /* \"contracts/WalletController.sol\":2053:2066  sourceOwnerId */\n      dup5\n        /* \"contracts/WalletController.sol\":2034:2052  _getOrCreateWallet */\n      tag_88\n        /* \"contracts/WalletController.sol\":2034:2067  _getOrCreateWallet(sourceOwnerId) */\n      jump\t// in\n    tag_115:\n        /* \"contracts/WalletController.sol\":2010:2067  address sourceAddress = _getOrCreateWallet(sourceOwnerId) */\n      swap1\n      pop\n        /* \"contracts/WalletController.sol\":2077:2103  address destinationAddress */\n      0x00\n        /* \"contracts/WalletController.sol\":2106:2144  _getOrCreateWallet(destinationOwnerId) */\n      tag_116\n        /* \"contracts/WalletController.sol\":2125:2143  destinationOwnerId */\n      dup5\n        /* \"contracts/WalletController.sol\":2106:2124  _getOrCreateWallet */\n      tag_88\n        /* \"contracts/WalletController.sol\":2106:2144  _getOrCreateWallet(destinationOwnerId) */\n      jump\t// in\n    tag_116:\n        /* \"contracts/WalletController.sol\":2077:2144  address destinationAddress = _getOrCreateWallet(destinationOwnerId) */\n      swap1\n      pop\n        /* \"contracts/WalletController.sol\":2170:2183  sourceAddress */\n      dup2\n        /* \"contracts/WalletController.sol\":2155:2194  Wallet(payable(sourceAddress)).withdraw */\n      0xffffffffffffffffffffffffffffffffffffffff\n      and\n      0xf3fef3a3\n        /* \"contracts/WalletController.sol\":2195:2213  destinationAddress */\n      dup3\n        /* \"contracts/WalletController.sol\":2215:2221  amount */\n      dup6\n        /* \"contracts/WalletController.sol\":2155:2222  Wallet(payable(sourceAddress)).withdraw(destinationAddress, amount) */\n      mload(0x40)\n      dup4\n      0xffffffff\n      and\n      0xe0\n      shl\n      dup2\n      mstore\n      0x04\n      add\n      tag_117\n      swap3\n      swap2\n      swap1\n      tag_72\n      jump\t// in\n    tag_117:\n      0x00\n      mload(0x40)\n      dup1\n      dup4\n      sub\n      dup2\n      0x00\n      dup8\n      dup1\n      extcodesize\n      iszero\n      dup1\n      iszero\n      tag_118\n      jumpi\n      0x00\n      dup1\n      revert\n    tag_118:\n      pop\n      gas\n      call\n      iszero\n      dup1\n      iszero\n      tag_120\n      jumpi\n      returndatasize\n      0x00\n      dup1\n      returndatacopy\n      revert(0x00, returndatasize)\n    tag_120:\n      pop\n      pop\n      pop\n      pop\n        /* \"contracts/WalletController.sol\":2000:2229  {... */\n      pop\n      pop\n        /* \"contracts/WalletController.sol\":1892:2229  function transferTo(string memory sourceOwnerId, string memory destinationOwnerId, uint256 amount) internal {... */\n      pop\n      pop\n      pop\n      jump\t// out\n    tag_107:\n      dataSize(sub_0)\n      dup1\n      dataOffset(sub_0)\n      dup4\n      codecopy\n      add\n      swap1\n      jump\t// out\n        /* \"#utility.yul\":7:82   */\n    tag_121:\n        /* \"#utility.yul\":40:46   */\n      0x00\n        /* \"#utility.yul\":73:75   */\n      0x40\n        /* \"#utility.yul\":67:76   */\n      mload\n        /* \"#utility.yul\":57:76   */\n      swap1\n      pop\n        /* \"#utility.yul\":7:82   */\n      swap1\n      jump\t// out\n        /* \"#utility.yul\":88:205   */\n    tag_122:\n        /* \"#utility.yul\":197:198   */\n      0x00\n        /* \"#utility.yul\":194:195   */\n      dup1\n        /* \"#utility.yul\":187:199   */\n      revert\n        /* \"#utility.yul\":211:328   */\n    tag_123:\n        /* \"#utility.yul\":320:321   */\n      0x00\n        /* \"#utility.yul\":317:318   */\n      dup1\n        /* \"#utility.yul\":310:322   */\n      revert\n        /* \"#utility.yul\":334:483   */\n    tag_124:\n        /* \"#utility.yul\":370:377   */\n      0x00\n        /* \"#utility.yul\":410:476   */\n      0xffffffff00000000000000000000000000000000000000000000000000000000\n        /* \"#utility.yul\":403:408   */\n      dup3\n        /* \"#utility.yul\":399:477   */\n      and\n        /* \"#utility.yul\":388:477   */\n      swap1\n      pop\n        /* \"#utility.yul\":334:483   */\n      swap2\n      swap1\n      pop\n      jump\t// out\n        /* \"#utility.yul\":489:609   */\n    tag_125:\n        /* \"#utility.yul\":561:584   */\n      tag_193\n        /* \"#utility.yul\":578:583   */\n      dup2\n        /* \"#utility.yul\":561:584   */\n      tag_124\n      jump\t// in\n    tag_193:\n        /* \"#utility.yul\":554:559   */\n      dup2\n        /* \"#utility.yul\":551:585   */\n      eq\n        /* \"#utility.yul\":541:603   */\n      tag_194\n      jumpi\n        /* \"#utility.yul\":599:600   */\n      0x00\n        /* \"#utility.yul\":596:597   */\n      dup1\n        /* \"#utility.yul\":589:601   */\n      revert\n        /* \"#utility.yul\":541:603   */\n    tag_194:\n        /* \"#utility.yul\":489:609   */\n      pop\n      jump\t// out\n        /* \"#utility.yul\":615:752   */\n    tag_126:\n        /* \"#utility.yul\":660:665   */\n      0x00\n        /* \"#utility.yul\":698:704   */\n      dup2\n        /* \"#utility.yul\":685:705   */\n      calldataload\n        /* \"#utility.yul\":676:705   */\n      swap1\n      pop\n        /* \"#utility.yul\":714:746   */\n      tag_196\n        /* \"#utility.yul\":740:745   */\n      dup2\n        /* \"#utility.yul\":714:746   */\n      tag_125\n      jump\t// in\n    tag_196:\n        /* \"#utility.yul\":615:752   */\n      swap3\n      swap2\n      pop\n      pop\n      jump\t// out\n        /* \"#utility.yul\":758:1085   */\n    tag_15:\n        /* \"#utility.yul\":816:822   */\n      0x00\n        /* \"#utility.yul\":865:867   */\n      0x20\n        /* \"#utility.yul\":853:862   */\n      dup3\n        /* \"#utility.yul\":844:851   */\n      dup5\n        /* \"#utility.yul\":840:863   */\n      sub\n        /* \"#utility.yul\":836:868   */\n      slt\n        /* \"#utility.yul\":833:952   */\n      iszero\n      tag_198\n      jumpi\n        /* \"#utility.yul\":871:950   */\n      tag_199\n      tag_122\n      jump\t// in\n    tag_199:\n        /* \"#utility.yul\":833:952   */\n    tag_198:\n        /* \"#utility.yul\":991:992   */\n      0x00\n        /* \"#utility.yul\":1016:1068   */\n      tag_200\n        /* \"#utility.yul\":1060:1067   */\n      dup5\n        /* \"#utility.yul\":1051:1057   */\n      dup3\n        /* \"#utility.yul\":1040:1049   */\n      dup6\n        /* \"#utility.yul\":1036:1058   */\n      add\n        /* \"#utility.yul\":1016:1068   */\n      tag_126\n      jump\t// in\n    tag_200:\n        /* \"#utility.yul\":1006:1068   */\n      swap2\n      pop\n        /* \"#utility.yul\":962:1078   */\n      pop\n        /* \"#utility.yul\":758:1085   */\n      swap3\n      swap2\n      pop\n      pop\n      jump\t// out\n        /* \"#utility.yul\":1091:1181   */\n    tag_127:\n        /* \"#utility.yul\":1125:1132   */\n      0x00\n        /* \"#utility.yul\":1168:1173   */\n      dup2\n        /* \"#utility.yul\":1161:1174   */\n      iszero\n        /* \"#utility.yul\":1154:1175   */\n      iszero\n        /* \"#utility.yul\":1143:1175   */\n      swap1\n      pop\n        /* \"#utility.yul\":1091:1181   */\n      swap2\n      swap1\n      pop\n      jump\t// out\n        /* \"#utility.yul\":1187:1296   */\n    tag_128:\n        /* \"#utility.yul\":1268:1289   */\n      tag_203\n        /* \"#utility.yul\":1283:1288   */\n      dup2\n        /* \"#utility.yul\":1268:1289   */\n      tag_127\n      jump\t// in\n    tag_203:\n        /* \"#utility.yul\":1263:1266   */\n      dup3\n        /* \"#utility.yul\":1256:1290   */\n      mstore\n        /* \"#utility.yul\":1187:1296   */\n      pop\n      pop\n      jump\t// out\n        /* \"#utility.yul\":1302:1512   */\n    tag_18:\n        /* \"#utility.yul\":1389:1393   */\n      0x00\n        /* \"#utility.yul\":1427:1429   */\n      0x20\n        /* \"#utility.yul\":1416:1425   */\n      dup3\n        /* \"#utility.yul\":1412:1430   */\n      add\n        /* \"#utility.yul\":1404:1430   */\n      swap1\n      pop\n        /* \"#utility.yul\":1440:1505   */\n      tag_205\n        /* \"#utility.yul\":1502:1503   */\n      0x00\n        /* \"#utility.yul\":1491:1500   */\n      dup4\n        /* \"#utility.yul\":1487:1504   */\n      add\n        /* \"#utility.yul\":1478:1484   */\n      dup5\n        /* \"#utility.yul\":1440:1505   */\n      tag_128\n      jump\t// in\n    tag_205:\n        /* \"#utility.yul\":1302:1512   */\n      swap3\n      swap2\n      pop\n      pop\n      jump\t// out\n        /* \"#utility.yul\":1518:1635   */\n    tag_129:\n        /* \"#utility.yul\":1627:1628   */\n      0x00\n        /* \"#utility.yul\":1624:1625   */\n      dup1\n        /* \"#utility.yul\":1617:1629   */\n      revert\n        /* \"#utility.yul\":1641:1758   */\n    tag_130:\n        /* \"#utility.yul\":1750:1751   */\n      0x00\n        /* \"#utility.yul\":1747:1748   */\n      dup1\n        /* \"#utility.yul\":1740:1752   */\n      revert\n        /* \"#utility.yul\":1764:1881   */\n    tag_131:\n        /* \"#utility.yul\":1873:1874   */\n      0x00\n        /* \"#utility.yul\":1870:1871   */\n      dup1\n        /* \"#utility.yul\":1863:1875   */\n      revert\n        /* \"#utility.yul\":1901:2454   */\n    tag_132:\n        /* \"#utility.yul\":1959:1967   */\n      0x00\n        /* \"#utility.yul\":1969:1975   */\n      dup1\n        /* \"#utility.yul\":2019:2022   */\n      dup4\n        /* \"#utility.yul\":2012:2016   */\n      0x1f\n        /* \"#utility.yul\":2004:2010   */\n      dup5\n        /* \"#utility.yul\":2000:2017   */\n      add\n        /* \"#utility.yul\":1996:2023   */\n      slt\n        /* \"#utility.yul\":1986:2108   */\n      tag_210\n      jumpi\n        /* \"#utility.yul\":2027:2106   */\n      tag_211\n      tag_129\n      jump\t// in\n    tag_211:\n        /* \"#utility.yul\":1986:2108   */\n    tag_210:\n        /* \"#utility.yul\":2140:2146   */\n      dup3\n        /* \"#utility.yul\":2127:2147   */\n      calldataload\n        /* \"#utility.yul\":2117:2147   */\n      swap1\n      pop\n        /* \"#utility.yul\":2170:2188   */\n      0xffffffffffffffff\n        /* \"#utility.yul\":2162:2168   */\n      dup2\n        /* \"#utility.yul\":2159:2189   */\n      gt\n        /* \"#utility.yul\":2156:2273   */\n      iszero\n      tag_212\n      jumpi\n        /* \"#utility.yul\":2192:2271   */\n      tag_213\n      tag_130\n      jump\t// in\n    tag_213:\n        /* \"#utility.yul\":2156:2273   */\n    tag_212:\n        /* \"#utility.yul\":2306:2310   */\n      0x20\n        /* \"#utility.yul\":2298:2304   */\n      dup4\n        /* \"#utility.yul\":2294:2311   */\n      add\n        /* \"#utility.yul\":2282:2311   */\n      swap2\n      pop\n        /* \"#utility.yul\":2360:2363   */\n      dup4\n        /* \"#utility.yul\":2352:2356   */\n      0x01\n        /* \"#utility.yul\":2344:2350   */\n      dup3\n        /* \"#utility.yul\":2340:2357   */\n      mul\n        /* \"#utility.yul\":2330:2338   */\n      dup4\n        /* \"#utility.yul\":2326:2358   */\n      add\n        /* \"#utility.yul\":2323:2364   */\n      gt\n        /* \"#utility.yul\":2320:2448   */\n      iszero\n      tag_214\n      jumpi\n        /* \"#utility.yul\":2367:2446   */\n      tag_215\n      tag_131\n      jump\t// in\n    tag_215:\n        /* \"#utility.yul\":2320:2448   */\n    tag_214:\n        /* \"#utility.yul\":1901:2454   */\n      swap3\n      pop\n      swap3\n      swap1\n      pop\n      jump\t// out\n        /* \"#utility.yul\":2460:2989   */\n    tag_22:\n        /* \"#utility.yul\":2531:2537   */\n      0x00\n        /* \"#utility.yul\":2539:2545   */\n      dup1\n        /* \"#utility.yul\":2588:2590   */\n      0x20\n        /* \"#utility.yul\":2576:2585   */\n      dup4\n        /* \"#utility.yul\":2567:2574   */\n      dup6\n        /* \"#utility.yul\":2563:2586   */\n      sub\n        /* \"#utility.yul\":2559:2591   */\n      slt\n        /* \"#utility.yul\":2556:2675   */\n      iszero\n      tag_217\n      jumpi\n        /* \"#utility.yul\":2594:2673   */\n      tag_218\n      tag_122\n      jump\t// in\n    tag_218:\n        /* \"#utility.yul\":2556:2675   */\n    tag_217:\n        /* \"#utility.yul\":2742:2743   */\n      0x00\n        /* \"#utility.yul\":2731:2740   */\n      dup4\n        /* \"#utility.yul\":2727:2744   */\n      add\n        /* \"#utility.yul\":2714:2745   */\n      calldataload\n        /* \"#utility.yul\":2772:2790   */\n      0xffffffffffffffff\n        /* \"#utility.yul\":2764:2770   */\n      dup2\n        /* \"#utility.yul\":2761:2791   */\n      gt\n        /* \"#utility.yul\":2758:2875   */\n      iszero\n      tag_219\n      jumpi\n        /* \"#utility.yul\":2794:2873   */\n      tag_220\n      tag_123\n      jump\t// in\n    tag_220:\n        /* \"#utility.yul\":2758:2875   */\n    tag_219:\n        /* \"#utility.yul\":2907:2972   */\n      tag_221\n        /* \"#utility.yul\":2964:2971   */\n      dup6\n        /* \"#utility.yul\":2955:2961   */\n      dup3\n        /* \"#utility.yul\":2944:2953   */\n      dup7\n        /* \"#utility.yul\":2940:2962   */\n      add\n        /* \"#utility.yul\":2907:2972   */\n      tag_132\n      jump\t// in\n    tag_221:\n        /* \"#utility.yul\":2889:2972   */\n      swap3\n      pop\n      swap3\n      pop\n        /* \"#utility.yul\":2685:2982   */\n      pop\n        /* \"#utility.yul\":2460:2989   */\n      swap3\n      pop\n      swap3\n      swap1\n      pop\n      jump\t// out\n        /* \"#utility.yul\":2995:3121   */\n    tag_133:\n        /* \"#utility.yul\":3032:3039   */\n      0x00\n        /* \"#utility.yul\":3072:3114   */\n      0xffffffffffffffffffffffffffffffffffffffff\n        /* \"#utility.yul\":3065:3070   */\n      dup3\n        /* \"#utility.yul\":3061:3115   */\n      and\n        /* \"#utility.yul\":3050:3115   */\n      swap1\n      pop\n        /* \"#utility.yul\":2995:3121   */\n      swap2\n      swap1\n      pop\n      jump\t// out\n        /* \"#utility.yul\":3127:3223   */\n    tag_134:\n        /* \"#utility.yul\":3164:3171   */\n      0x00\n        /* \"#utility.yul\":3193:3217   */\n      tag_224\n        /* \"#utility.yul\":3211:3216   */\n      dup3\n        /* \"#utility.yul\":3193:3217   */\n      tag_133\n      jump\t// in\n    tag_224:\n        /* \"#utility.yul\":3182:3217   */\n      swap1\n      pop\n        /* \"#utility.yul\":3127:3223   */\n      swap2\n      swap1\n      pop\n      jump\t// out\n        /* \"#utility.yul\":3229:3347   */\n    tag_135:\n        /* \"#utility.yul\":3316:3340   */\n      tag_226\n        /* \"#utility.yul\":3334:3339   */\n      dup2\n        /* \"#utility.yul\":3316:3340   */\n      tag_134\n      jump\t// in\n    tag_226:\n        /* \"#utility.yul\":3311:3314   */\n      dup3\n        /* \"#utility.yul\":3304:3341   */\n      mstore\n        /* \"#utility.yul\":3229:3347   */\n      pop\n      pop\n      jump\t// out\n        /* \"#utility.yul\":3353:3575   */\n    tag_25:\n        /* \"#utility.yul\":3446:3450   */\n      0x00\n        /* \"#utility.yul\":3484:3486   */\n      0x20\n        /* \"#utility.yul\":3473:3482   */\n      dup3\n        /* \"#utility.yul\":3469:3487   */\n      add\n        /* \"#utility.yul\":3461:3487   */\n      swap1\n      pop\n        /* \"#utility.yul\":3497:3568   */\n      tag_228\n        /* \"#utility.yul\":3565:3566   */\n      0x00\n        /* \"#utility.yul\":3554:3563   */\n      dup4\n        /* \"#utility.yul\":3550:3567   */\n      add\n        /* \"#utility.yul\":3541:3547   */\n      dup5\n        /* \"#utility.yul\":3497:3568   */\n      tag_135\n      jump\t// in\n    tag_228:\n        /* \"#utility.yul\":3353:3575   */\n      swap3\n      swap2\n      pop\n      pop\n      jump\t// out\n        /* \"#utility.yul\":3581:3658   */\n    tag_136:\n        /* \"#utility.yul\":3618:3625   */\n      0x00\n        /* \"#utility.yul\":3647:3652   */\n      dup2\n        /* \"#utility.yul\":3636:3652   */\n      swap1\n      pop\n        /* \"#utility.yul\":3581:3658   */\n      swap2\n      swap1\n      pop\n      jump\t// out\n        /* \"#utility.yul\":3664:3782   */\n    tag_137:\n        /* \"#utility.yul\":3751:3775   */\n      tag_231\n        /* \"#utility.yul\":3769:3774   */\n      dup2\n        /* \"#utility.yul\":3751:3775   */\n      tag_136\n      jump\t// in\n    tag_231:\n        /* \"#utility.yul\":3746:3749   */\n      dup3\n        /* \"#utility.yul\":3739:3776   */\n      mstore\n        /* \"#utility.yul\":3664:3782   */\n      pop\n      pop\n      jump\t// out\n        /* \"#utility.yul\":3788:4010   */\n    tag_31:\n        /* \"#utility.yul\":3881:3885   */\n      0x00\n        /* \"#utility.yul\":3919:3921   */\n      0x20\n        /* \"#utility.yul\":3908:3917   */\n      dup3\n        /* \"#utility.yul\":3904:3922   */\n      add\n        /* \"#utility.yul\":3896:3922   */\n      swap1\n      pop\n        /* \"#utility.yul\":3932:4003   */\n      tag_233\n        /* \"#utility.yul\":4000:4001   */\n      0x00\n        /* \"#utility.yul\":3989:3998   */\n      dup4\n        /* \"#utility.yul\":3985:4002   */\n      add\n        /* \"#utility.yul\":3976:3982   */\n      dup5\n        /* \"#utility.yul\":3932:4003   */\n      tag_137\n      jump\t// in\n    tag_233:\n        /* \"#utility.yul\":3788:4010   */\n      swap3\n      swap2\n      pop\n      pop\n      jump\t// out\n        /* \"#utility.yul\":4016:4138   */\n    tag_138:\n        /* \"#utility.yul\":4089:4113   */\n      tag_235\n        /* \"#utility.yul\":4107:4112   */\n      dup2\n        /* \"#utility.yul\":4089:4113   */\n      tag_134\n      jump\t// in\n    tag_235:\n        /* \"#utility.yul\":4082:4087   */\n      dup2\n        /* \"#utility.yul\":4079:4114   */\n      eq\n        /* \"#utility.yul\":4069:4132   */\n      tag_236\n      jumpi\n        /* \"#utility.yul\":4128:4129   */\n      0x00\n        /* \"#utility.yul\":4125:4126   */\n      dup1\n        /* \"#utility.yul\":4118:4130   */\n      revert\n        /* \"#utility.yul\":4069:4132   */\n    tag_236:\n        /* \"#utility.yul\":4016:4138   */\n      pop\n      jump\t// out\n        /* \"#utility.yul\":4144:4283   */\n    tag_139:\n        /* \"#utility.yul\":4190:4195   */\n      0x00\n        /* \"#utility.yul\":4228:4234   */\n      dup2\n        /* \"#utility.yul\":4215:4235   */\n      calldataload\n        /* \"#utility.yul\":4206:4235   */\n      swap1\n      pop\n        /* \"#utility.yul\":4244:4277   */\n      tag_238\n        /* \"#utility.yul\":4271:4276   */\n      dup2\n        /* \"#utility.yul\":4244:4277   */\n      tag_138\n      jump\t// in\n    tag_238:\n        /* \"#utility.yul\":4144:4283   */\n      swap3\n      swap2\n      pop\n      pop\n      jump\t// out\n        /* \"#utility.yul\":4289:4411   */\n    tag_140:\n        /* \"#utility.yul\":4362:4386   */\n      tag_240\n        /* \"#utility.yul\":4380:4385   */\n      dup2\n        /* \"#utility.yul\":4362:4386   */\n      tag_136\n      jump\t// in\n    tag_240:\n        /* \"#utility.yul\":4355:4360   */\n      dup2\n        /* \"#utility.yul\":4352:4387   */\n      eq\n        /* \"#utility.yul\":4342:4405   */\n      tag_241\n      jumpi\n        /* \"#utility.yul\":4401:4402   */\n      0x00\n        /* \"#utility.yul\":4398:4399   */\n      dup1\n        /* \"#utility.yul\":4391:4403   */\n      revert\n        /* \"#utility.yul\":4342:4405   */\n    tag_241:\n        /* \"#utility.yul\":4289:4411   */\n      pop\n      jump\t// out\n        /* \"#utility.yul\":4417:4556   */\n    tag_141:\n        /* \"#utility.yul\":4463:4468   */\n      0x00\n        /* \"#utility.yul\":4501:4507   */\n      dup2\n        /* \"#utility.yul\":4488:4508   */\n      calldataload\n        /* \"#utility.yul\":4479:4508   */\n      swap1\n      pop\n        /* \"#utility.yul\":4517:4550   */\n      tag_243\n        /* \"#utility.yul\":4544:4549   */\n      dup2\n        /* \"#utility.yul\":4517:4550   */\n      tag_140\n      jump\t// in\n    tag_243:\n        /* \"#utility.yul\":4417:4556   */\n      swap3\n      swap2\n      pop\n      pop\n      jump\t// out\n        /* \"#utility.yul\":4562:5381   */\n    tag_35:\n        /* \"#utility.yul\":4651:4657   */\n      0x00\n        /* \"#utility.yul\":4659:4665   */\n      dup1\n        /* \"#utility.yul\":4667:4673   */\n      0x00\n        /* \"#utility.yul\":4675:4681   */\n      dup1\n        /* \"#utility.yul\":4724:4726   */\n      0x60\n        /* \"#utility.yul\":4712:4721   */\n      dup6\n        /* \"#utility.yul\":4703:4710   */\n      dup8\n        /* \"#utility.yul\":4699:4722   */\n      sub\n        /* \"#utility.yul\":4695:4727   */\n      slt\n        /* \"#utility.yul\":4692:4811   */\n      iszero\n      tag_245\n      jumpi\n        /* \"#utility.yul\":4730:4809   */\n      tag_246\n      tag_122\n      jump\t// in\n    tag_246:\n        /* \"#utility.yul\":4692:4811   */\n    tag_245:\n        /* \"#utility.yul\":4878:4879   */\n      0x00\n        /* \"#utility.yul\":4867:4876   */\n      dup6\n        /* \"#utility.yul\":4863:4880   */\n      add\n        /* \"#utility.yul\":4850:4881   */\n      calldataload\n        /* \"#utility.yul\":4908:4926   */\n      0xffffffffffffffff\n        /* \"#utility.yul\":4900:4906   */\n      dup2\n        /* \"#utility.yul\":4897:4927   */\n      gt\n        /* \"#utility.yul\":4894:5011   */\n      iszero\n      tag_247\n      jumpi\n        /* \"#utility.yul\":4930:5009   */\n      tag_248\n      tag_123\n      jump\t// in\n    tag_248:\n        /* \"#utility.yul\":4894:5011   */\n    tag_247:\n        /* \"#utility.yul\":5043:5108   */\n      tag_249\n        /* \"#utility.yul\":5100:5107   */\n      dup8\n        /* \"#utility.yul\":5091:5097   */\n      dup3\n        /* \"#utility.yul\":5080:5089   */\n      dup9\n        /* \"#utility.yul\":5076:5098   */\n      add\n        /* \"#utility.yul\":5043:5108   */\n      tag_132\n      jump\t// in\n    tag_249:\n        /* \"#utility.yul\":5025:5108   */\n      swap5\n      pop\n      swap5\n      pop\n        /* \"#utility.yul\":4821:5118   */\n      pop\n        /* \"#utility.yul\":5157:5159   */\n      0x20\n        /* \"#utility.yul\":5183:5236   */\n      tag_250\n        /* \"#utility.yul\":5228:5235   */\n      dup8\n        /* \"#utility.yul\":5219:5225   */\n      dup3\n        /* \"#utility.yul\":5208:5217   */\n      dup9\n        /* \"#utility.yul\":5204:5226   */\n      add\n        /* \"#utility.yul\":5183:5236   */\n      tag_139\n      jump\t// in\n    tag_250:\n        /* \"#utility.yul\":5173:5236   */\n      swap3\n      pop\n        /* \"#utility.yul\":5128:5246   */\n      pop\n        /* \"#utility.yul\":5285:5287   */\n      0x40\n        /* \"#utility.yul\":5311:5364   */\n      tag_251\n        /* \"#utility.yul\":5356:5363   */\n      dup8\n        /* \"#utility.yul\":5347:5353   */\n      dup3\n        /* \"#utility.yul\":5336:5345   */\n      dup9\n        /* \"#utility.yul\":5332:5354   */\n      add\n        /* \"#utility.yul\":5311:5364   */\n      tag_141\n      jump\t// in\n    tag_251:\n        /* \"#utility.yul\":5301:5364   */\n      swap2\n      pop\n        /* \"#utility.yul\":5256:5374   */\n      pop\n        /* \"#utility.yul\":4562:5381   */\n      swap3\n      swap6\n      swap2\n      swap5\n      pop\n      swap3\n      pop\n      jump\t// out\n        /* \"#utility.yul\":5387:5504   */\n    tag_142:\n        /* \"#utility.yul\":5496:5497   */\n      0x00\n        /* \"#utility.yul\":5493:5494   */\n      dup1\n        /* \"#utility.yul\":5486:5498   */\n      revert\n        /* \"#utility.yul\":5546:5784   */\n    tag_143:\n        /* \"#utility.yul\":5625:5630   */\n      0x00\n        /* \"#utility.yul\":5666:5669   */\n      0xa0\n        /* \"#utility.yul\":5657:5663   */\n      dup3\n        /* \"#utility.yul\":5652:5655   */\n      dup5\n        /* \"#utility.yul\":5648:5664   */\n      sub\n        /* \"#utility.yul\":5644:5670   */\n      slt\n        /* \"#utility.yul\":5641:5754   */\n      iszero\n      tag_254\n      jumpi\n        /* \"#utility.yul\":5673:5752   */\n      tag_255\n      tag_142\n      jump\t// in\n    tag_255:\n        /* \"#utility.yul\":5641:5754   */\n    tag_254:\n        /* \"#utility.yul\":5772:5778   */\n      dup2\n        /* \"#utility.yul\":5763:5778   */\n      swap1\n      pop\n        /* \"#utility.yul\":5546:5784   */\n      swap3\n      swap2\n      pop\n      pop\n      jump\t// out\n        /* \"#utility.yul\":5790:6345   */\n    tag_40:\n        /* \"#utility.yul\":5882:5888   */\n      0x00\n        /* \"#utility.yul\":5931:5933   */\n      0x20\n        /* \"#utility.yul\":5919:5928   */\n      dup3\n        /* \"#utility.yul\":5910:5917   */\n      dup5\n        /* \"#utility.yul\":5906:5929   */\n      sub\n        /* \"#utility.yul\":5902:5934   */\n      slt\n        /* \"#utility.yul\":5899:6018   */\n      iszero\n      tag_257\n      jumpi\n        /* \"#utility.yul\":5937:6016   */\n      tag_258\n      tag_122\n      jump\t// in\n    tag_258:\n        /* \"#utility.yul\":5899:6018   */\n    tag_257:\n        /* \"#utility.yul\":6085:6086   */\n      0x00\n        /* \"#utility.yul\":6074:6083   */\n      dup3\n        /* \"#utility.yul\":6070:6087   */\n      add\n        /* \"#utility.yul\":6057:6088   */\n      calldataload\n        /* \"#utility.yul\":6115:6133   */\n      0xffffffffffffffff\n        /* \"#utility.yul\":6107:6113   */\n      dup2\n        /* \"#utility.yul\":6104:6134   */\n      gt\n        /* \"#utility.yul\":6101:6218   */\n      iszero\n      tag_259\n      jumpi\n        /* \"#utility.yul\":6137:6216   */\n      tag_260\n      tag_123\n      jump\t// in\n    tag_260:\n        /* \"#utility.yul\":6101:6218   */\n    tag_259:\n        /* \"#utility.yul\":6242:6328   */\n      tag_261\n        /* \"#utility.yul\":6320:6327   */\n      dup5\n        /* \"#utility.yul\":6311:6317   */\n      dup3\n        /* \"#utility.yul\":6300:6309   */\n      dup6\n        /* \"#utility.yul\":6296:6318   */\n      add\n        /* \"#utility.yul\":6242:6328   */\n      tag_143\n      jump\t// in\n    tag_261:\n        /* \"#utility.yul\":6232:6328   */\n      swap2\n      pop\n        /* \"#utility.yul\":6028:6338   */\n      pop\n        /* \"#utility.yul\":5790:6345   */\n      swap3\n      swap2\n      pop\n      pop\n      jump\t// out\n        /* \"#utility.yul\":6351:6468   */\n    tag_144:\n        /* \"#utility.yul\":6460:6461   */\n      0x00\n        /* \"#utility.yul\":6457:6458   */\n      dup1\n        /* \"#utility.yul\":6450:6462   */\n      revert\n        /* \"#utility.yul\":6474:6576   */\n    tag_145:\n        /* \"#utility.yul\":6515:6521   */\n      0x00\n        /* \"#utility.yul\":6566:6568   */\n      0x1f\n        /* \"#utility.yul\":6562:6569   */\n      not\n        /* \"#utility.yul\":6557:6559   */\n      0x1f\n        /* \"#utility.yul\":6550:6555   */\n      dup4\n        /* \"#utility.yul\":6546:6560   */\n      add\n        /* \"#utility.yul\":6542:6570   */\n      and\n        /* \"#utility.yul\":6532:6570   */\n      swap1\n      pop\n        /* \"#utility.yul\":6474:6576   */\n      swap2\n      swap1\n      pop\n      jump\t// out\n        /* \"#utility.yul\":6582:6762   */\n    tag_146:\n        /* \"#utility.yul\":6630:6707   */\n      0x4e487b7100000000000000000000000000000000000000000000000000000000\n        /* \"#utility.yul\":6627:6628   */\n      0x00\n        /* \"#utility.yul\":6620:6708   */\n      mstore\n        /* \"#utility.yul\":6727:6731   */\n      0x41\n        /* \"#utility.yul\":6724:6725   */\n      0x04\n        /* \"#utility.yul\":6717:6732   */\n      mstore\n        /* \"#utility.yul\":6751:6755   */\n      0x24\n        /* \"#utility.yul\":6748:6749   */\n      0x00\n        /* \"#utility.yul\":6741:6756   */\n      revert\n        /* \"#utility.yul\":6768:7049   */\n    tag_147:\n        /* \"#utility.yul\":6851:6878   */\n      tag_266\n        /* \"#utility.yul\":6873:6877   */\n      dup3\n        /* \"#utility.yul\":6851:6878   */\n      tag_145\n      jump\t// in\n    tag_266:\n        /* \"#utility.yul\":6843:6849   */\n      dup2\n        /* \"#utility.yul\":6839:6879   */\n      add\n        /* \"#utility.yul\":6981:6987   */\n      dup2\n        /* \"#utility.yul\":6969:6979   */\n      dup2\n        /* \"#utility.yul\":6966:6988   */\n      lt\n        /* \"#utility.yul\":6945:6963   */\n      0xffffffffffffffff\n        /* \"#utility.yul\":6933:6943   */\n      dup3\n        /* \"#utility.yul\":6930:6964   */\n      gt\n        /* \"#utility.yul\":6927:6989   */\n      or\n        /* \"#utility.yul\":6924:7012   */\n      iszero\n      tag_267\n      jumpi\n        /* \"#utility.yul\":6992:7010   */\n      tag_268\n      tag_146\n      jump\t// in\n    tag_268:\n        /* \"#utility.yul\":6924:7012   */\n    tag_267:\n        /* \"#utility.yul\":7032:7042   */\n      dup1\n        /* \"#utility.yul\":7028:7030   */\n      0x40\n        /* \"#utility.yul\":7021:7043   */\n      mstore\n        /* \"#utility.yul\":6811:7049   */\n      pop\n        /* \"#utility.yul\":6768:7049   */\n      pop\n      pop\n      jump\t// out\n        /* \"#utility.yul\":7055:7184   */\n    tag_148:\n        /* \"#utility.yul\":7089:7095   */\n      0x00\n        /* \"#utility.yul\":7116:7136   */\n      tag_270\n      tag_121\n      jump\t// in\n    tag_270:\n        /* \"#utility.yul\":7106:7136   */\n      swap1\n      pop\n        /* \"#utility.yul\":7145:7178   */\n      tag_271\n        /* \"#utility.yul\":7173:7177   */\n      dup3\n        /* \"#utility.yul\":7165:7171   */\n      dup3\n        /* \"#utility.yul\":7145:7178   */\n      tag_147\n      jump\t// in\n    tag_271:\n        /* \"#utility.yul\":7055:7184   */\n      swap2\n      swap1\n      pop\n      jump\t// out\n        /* \"#utility.yul\":7190:7498   */\n    tag_149:\n        /* \"#utility.yul\":7252:7256   */\n      0x00\n        /* \"#utility.yul\":7342:7360   */\n      0xffffffffffffffff\n        /* \"#utility.yul\":7334:7340   */\n      dup3\n        /* \"#utility.yul\":7331:7361   */\n      gt\n        /* \"#utility.yul\":7328:7384   */\n      iszero\n      tag_273\n      jumpi\n        /* \"#utility.yul\":7364:7382   */\n      tag_274\n      tag_146\n      jump\t// in\n    tag_274:\n        /* \"#utility.yul\":7328:7384   */\n    tag_273:\n        /* \"#utility.yul\":7402:7431   */\n      tag_275\n        /* \"#utility.yul\":7424:7430   */\n      dup3\n        /* \"#utility.yul\":7402:7431   */\n      tag_145\n      jump\t// in\n    tag_275:\n        /* \"#utility.yul\":7394:7431   */\n      swap1\n      pop\n        /* \"#utility.yul\":7486:7490   */\n      0x20\n        /* \"#utility.yul\":7480:7484   */\n      dup2\n        /* \"#utility.yul\":7476:7491   */\n      add\n        /* \"#utility.yul\":7468:7491   */\n      swap1\n      pop\n        /* \"#utility.yul\":7190:7498   */\n      swap2\n      swap1\n      pop\n      jump\t// out\n        /* \"#utility.yul\":7504:7650   */\n    tag_150:\n        /* \"#utility.yul\":7601:7607   */\n      dup3\n        /* \"#utility.yul\":7596:7599   */\n      dup2\n        /* \"#utility.yul\":7591:7594   */\n      dup4\n        /* \"#utility.yul\":7578:7608   */\n      calldatacopy\n        /* \"#utility.yul\":7642:7643   */\n      0x00\n        /* \"#utility.yul\":7633:7639   */\n      dup4\n        /* \"#utility.yul\":7628:7631   */\n      dup4\n        /* \"#utility.yul\":7624:7640   */\n      add\n        /* \"#utility.yul\":7617:7644   */\n      mstore\n        /* \"#utility.yul\":7504:7650   */\n      pop\n      pop\n      pop\n      jump\t// out\n        /* \"#utility.yul\":7656:8081   */\n    tag_151:\n        /* \"#utility.yul\":7734:7739   */\n      0x00\n        /* \"#utility.yul\":7759:7825   */\n      tag_278\n        /* \"#utility.yul\":7775:7824   */\n      tag_279\n        /* \"#utility.yul\":7817:7823   */\n      dup5\n        /* \"#utility.yul\":7775:7824   */\n      tag_149\n      jump\t// in\n    tag_279:\n        /* \"#utility.yul\":7759:7825   */\n      tag_148\n      jump\t// in\n    tag_278:\n        /* \"#utility.yul\":7750:7825   */\n      swap1\n      pop\n        /* \"#utility.yul\":7848:7854   */\n      dup3\n        /* \"#utility.yul\":7841:7846   */\n      dup2\n        /* \"#utility.yul\":7834:7855   */\n      mstore\n        /* \"#utility.yul\":7886:7890   */\n      0x20\n        /* \"#utility.yul\":7879:7884   */\n      dup2\n        /* \"#utility.yul\":7875:7891   */\n      add\n        /* \"#utility.yul\":7924:7927   */\n      dup5\n        /* \"#utility.yul\":7915:7921   */\n      dup5\n        /* \"#utility.yul\":7910:7913   */\n      dup5\n        /* \"#utility.yul\":7906:7922   */\n      add\n        /* \"#utility.yul\":7903:7928   */\n      gt\n        /* \"#utility.yul\":7900:8012   */\n      iszero\n      tag_280\n      jumpi\n        /* \"#utility.yul\":7931:8010   */\n      tag_281\n      tag_144\n      jump\t// in\n    tag_281:\n        /* \"#utility.yul\":7900:8012   */\n    tag_280:\n        /* \"#utility.yul\":8021:8075   */\n      tag_282\n        /* \"#utility.yul\":8068:8074   */\n      dup5\n        /* \"#utility.yul\":8063:8066   */\n      dup3\n        /* \"#utility.yul\":8058:8061   */\n      dup6\n        /* \"#utility.yul\":8021:8075   */\n      tag_150\n      jump\t// in\n    tag_282:\n        /* \"#utility.yul\":7740:8081   */\n      pop\n        /* \"#utility.yul\":7656:8081   */\n      swap4\n      swap3\n      pop\n      pop\n      pop\n      jump\t// out\n        /* \"#utility.yul\":8101:8441   */\n    tag_152:\n        /* \"#utility.yul\":8157:8162   */\n      0x00\n        /* \"#utility.yul\":8206:8209   */\n      dup3\n        /* \"#utility.yul\":8199:8203   */\n      0x1f\n        /* \"#utility.yul\":8191:8197   */\n      dup4\n        /* \"#utility.yul\":8187:8204   */\n      add\n        /* \"#utility.yul\":8183:8210   */\n      slt\n        /* \"#utility.yul\":8173:8295   */\n      tag_284\n      jumpi\n        /* \"#utility.yul\":8214:8293   */\n      tag_285\n      tag_129\n      jump\t// in\n    tag_285:\n        /* \"#utility.yul\":8173:8295   */\n    tag_284:\n        /* \"#utility.yul\":8331:8337   */\n      dup2\n        /* \"#utility.yul\":8318:8338   */\n      calldataload\n        /* \"#utility.yul\":8356:8435   */\n      tag_286\n        /* \"#utility.yul\":8431:8434   */\n      dup5\n        /* \"#utility.yul\":8423:8429   */\n      dup3\n        /* \"#utility.yul\":8416:8420   */\n      0x20\n        /* \"#utility.yul\":8408:8414   */\n      dup7\n        /* \"#utility.yul\":8404:8421   */\n      add\n        /* \"#utility.yul\":8356:8435   */\n      tag_151\n      jump\t// in\n    tag_286:\n        /* \"#utility.yul\":8347:8435   */\n      swap2\n      pop\n        /* \"#utility.yul\":8163:8441   */\n      pop\n        /* \"#utility.yul\":8101:8441   */\n      swap3\n      swap2\n      pop\n      pop\n      jump\t// out\n        /* \"#utility.yul\":8447:8956   */\n    tag_45:\n        /* \"#utility.yul\":8516:8522   */\n      0x00\n        /* \"#utility.yul\":8565:8567   */\n      0x20\n        /* \"#utility.yul\":8553:8562   */\n      dup3\n        /* \"#utility.yul\":8544:8551   */\n      dup5\n        /* \"#utility.yul\":8540:8563   */\n      sub\n        /* \"#utility.yul\":8536:8568   */\n      slt\n        /* \"#utility.yul\":8533:8652   */\n      iszero\n      tag_288\n      jumpi\n        /* \"#utility.yul\":8571:8650   */\n      tag_289\n      tag_122\n      jump\t// in\n    tag_289:\n        /* \"#utility.yul\":8533:8652   */\n    tag_288:\n        /* \"#utility.yul\":8719:8720   */\n      0x00\n        /* \"#utility.yul\":8708:8717   */\n      dup3\n        /* \"#utility.yul\":8704:8721   */\n      add\n        /* \"#utility.yul\":8691:8722   */\n      calldataload\n        /* \"#utility.yul\":8749:8767   */\n      0xffffffffffffffff\n        /* \"#utility.yul\":8741:8747   */\n      dup2\n        /* \"#utility.yul\":8738:8768   */\n      gt\n        /* \"#utility.yul\":8735:8852   */\n      iszero\n      tag_290\n      jumpi\n        /* \"#utility.yul\":8771:8850   */\n      tag_291\n      tag_123\n      jump\t// in\n    tag_291:\n        /* \"#utility.yul\":8735:8852   */\n    tag_290:\n        /* \"#utility.yul\":8876:8939   */\n      tag_292\n        /* \"#utility.yul\":8931:8938   */\n      dup5\n        /* \"#utility.yul\":8922:8928   */\n      dup3\n        /* \"#utility.yul\":8911:8920   */\n      dup6\n        /* \"#utility.yul\":8907:8929   */\n      add\n        /* \"#utility.yul\":8876:8939   */\n      tag_152\n      jump\t// in\n    tag_292:\n        /* \"#utility.yul\":8866:8939   */\n      swap2\n      pop\n        /* \"#utility.yul\":8662:8949   */\n      pop\n        /* \"#utility.yul\":8447:8956   */\n      swap3\n      swap2\n      pop\n      pop\n      jump\t// out\n        /* \"#utility.yul\":8962:9110   */\n    tag_153:\n        /* \"#utility.yul\":9064:9075   */\n      0x00\n        /* \"#utility.yul\":9101:9104   */\n      dup2\n        /* \"#utility.yul\":9086:9104   */\n      swap1\n      pop\n        /* \"#utility.yul\":8962:9110   */\n      swap3\n      swap2\n      pop\n      pop\n      jump\t// out\n        /* \"#utility.yul\":9140:9470   */\n    tag_154:\n        /* \"#utility.yul\":9256:9259   */\n      0x00\n        /* \"#utility.yul\":9277:9366   */\n      tag_295\n        /* \"#utility.yul\":9359:9365   */\n      dup4\n        /* \"#utility.yul\":9354:9357   */\n      dup6\n        /* \"#utility.yul\":9277:9366   */\n      tag_153\n      jump\t// in\n    tag_295:\n        /* \"#utility.yul\":9270:9366   */\n      swap4\n      pop\n        /* \"#utility.yul\":9376:9432   */\n      tag_296\n        /* \"#utility.yul\":9425:9431   */\n      dup4\n        /* \"#utility.yul\":9420:9423   */\n      dup6\n        /* \"#utility.yul\":9413:9418   */\n      dup5\n        /* \"#utility.yul\":9376:9432   */\n      tag_150\n      jump\t// in\n    tag_296:\n        /* \"#utility.yul\":9457:9463   */\n      dup3\n        /* \"#utility.yul\":9452:9455   */\n      dup5\n        /* \"#utility.yul\":9448:9464   */\n      add\n        /* \"#utility.yul\":9441:9464   */\n      swap1\n      pop\n        /* \"#utility.yul\":9140:9470   */\n      swap4\n      swap3\n      pop\n      pop\n      pop\n      jump\t// out\n        /* \"#utility.yul\":9476:9771   */\n    tag_63:\n        /* \"#utility.yul\":9618:9621   */\n      0x00\n        /* \"#utility.yul\":9640:9745   */\n      tag_298\n        /* \"#utility.yul\":9741:9744   */\n      dup3\n        /* \"#utility.yul\":9732:9738   */\n      dup5\n        /* \"#utility.yul\":9724:9730   */\n      dup7\n        /* \"#utility.yul\":9640:9745   */\n      tag_154\n      jump\t// in\n    tag_298:\n        /* \"#utility.yul\":9633:9745   */\n      swap2\n      pop\n        /* \"#utility.yul\":9762:9765   */\n      dup2\n        /* \"#utility.yul\":9755:9765   */\n      swap1\n      pop\n        /* \"#utility.yul\":9476:9771   */\n      swap4\n      swap3\n      pop\n      pop\n      pop\n      jump\t// out\n        /* \"#utility.yul\":9777:9946   */\n    tag_155:\n        /* \"#utility.yul\":9861:9872   */\n      0x00\n        /* \"#utility.yul\":9895:9901   */\n      dup3\n        /* \"#utility.yul\":9890:9893   */\n      dup3\n        /* \"#utility.yul\":9883:9902   */\n      mstore\n        /* \"#utility.yul\":9935:9939   */\n      0x20\n        /* \"#utility.yul\":9930:9933   */\n      dup3\n        /* \"#utility.yul\":9926:9940   */\n      add\n        /* \"#utility.yul\":9911:9940   */\n      swap1\n      pop\n        /* \"#utility.yul\":9777:9946   */\n      swap3\n      swap2\n      pop\n      pop\n      jump\t// out\n        /* \"#utility.yul\":9952:10118   */\n    tag_156:\n        /* \"#utility.yul\":10092:10110   */\n      0x57616c6c6574206e6f7420666f756e6400000000000000000000000000000000\n        /* \"#utility.yul\":10088:10089   */\n      0x00\n        /* \"#utility.yul\":10080:10086   */\n      dup3\n        /* \"#utility.yul\":10076:10090   */\n      add\n        /* \"#utility.yul\":10069:10111   */\n      mstore\n        /* \"#utility.yul\":9952:10118   */\n      pop\n      jump\t// out\n        /* \"#utility.yul\":10124:10490   */\n    tag_157:\n        /* \"#utility.yul\":10266:10269   */\n      0x00\n        /* \"#utility.yul\":10287:10354   */\n      tag_302\n        /* \"#utility.yul\":10351:10353   */\n      0x10\n        /* \"#utility.yul\":10346:10349   */\n      dup4\n        /* \"#utility.yul\":10287:10354   */\n      tag_155\n      jump\t// in\n    tag_302:\n        /* \"#utility.yul\":10280:10354   */\n      swap2\n      pop\n        /* \"#utility.yul\":10363:10456   */\n      tag_303\n        /* \"#utility.yul\":10452:10455   */\n      dup3\n        /* \"#utility.yul\":10363:10456   */\n      tag_156\n      jump\t// in\n    tag_303:\n        /* \"#utility.yul\":10481:10483   */\n      0x20\n        /* \"#utility.yul\":10476:10479   */\n      dup3\n        /* \"#utility.yul\":10472:10484   */\n      add\n        /* \"#utility.yul\":10465:10484   */\n      swap1\n      pop\n        /* \"#utility.yul\":10124:10490   */\n      swap2\n      swap1\n      pop\n      jump\t// out\n        /* \"#utility.yul\":10496:10915   */\n    tag_70:\n        /* \"#utility.yul\":10662:10666   */\n      0x00\n        /* \"#utility.yul\":10700:10702   */\n      0x20\n        /* \"#utility.yul\":10689:10698   */\n      dup3\n        /* \"#utility.yul\":10685:10703   */\n      add\n        /* \"#utility.yul\":10677:10703   */\n      swap1\n      pop\n        /* \"#utility.yul\":10749:10758   */\n      dup2\n        /* \"#utility.yul\":10743:10747   */\n      dup2\n        /* \"#utility.yul\":10739:10759   */\n      sub\n        /* \"#utility.yul\":10735:10736   */\n      0x00\n        /* \"#utility.yul\":10724:10733   */\n      dup4\n        /* \"#utility.yul\":10720:10737   */\n      add\n        /* \"#utility.yul\":10713:10760   */\n      mstore\n        /* \"#utility.yul\":10777:10908   */\n      tag_305\n        /* \"#utility.yul\":10903:10907   */\n      dup2\n        /* \"#utility.yul\":10777:10908   */\n      tag_157\n      jump\t// in\n    tag_305:\n        /* \"#utility.yul\":10769:10908   */\n      swap1\n      pop\n        /* \"#utility.yul\":10496:10915   */\n      swap2\n      swap1\n      pop\n      jump\t// out\n        /* \"#utility.yul\":10921:11253   */\n    tag_72:\n        /* \"#utility.yul\":11042:11046   */\n      0x00\n        /* \"#utility.yul\":11080:11082   */\n      0x40\n        /* \"#utility.yul\":11069:11078   */\n      dup3\n        /* \"#utility.yul\":11065:11083   */\n      add\n        /* \"#utility.yul\":11057:11083   */\n      swap1\n      pop\n        /* \"#utility.yul\":11093:11164   */\n      tag_307\n        /* \"#utility.yul\":11161:11162   */\n      0x00\n        /* \"#utility.yul\":11150:11159   */\n      dup4\n        /* \"#utility.yul\":11146:11163   */\n      add\n        /* \"#utility.yul\":11137:11143   */\n      dup6\n        /* \"#utility.yul\":11093:11164   */\n      tag_135\n      jump\t// in\n    tag_307:\n        /* \"#utility.yul\":11174:11246   */\n      tag_308\n        /* \"#utility.yul\":11242:11244   */\n      0x20\n        /* \"#utility.yul\":11231:11240   */\n      dup4\n        /* \"#utility.yul\":11227:11245   */\n      add\n        /* \"#utility.yul\":11218:11224   */\n      dup5\n        /* \"#utility.yul\":11174:11246   */\n      tag_137\n      jump\t// in\n    tag_308:\n        /* \"#utility.yul\":10921:11253   */\n      swap4\n      swap3\n      pop\n      pop\n      pop\n      jump\t// out\n        /* \"#utility.yul\":11259:11376   */\n    tag_158:\n        /* \"#utility.yul\":11368:11369   */\n      0x00\n        /* \"#utility.yul\":11365:11366   */\n      dup1\n        /* \"#utility.yul\":11358:11370   */\n      revert\n        /* \"#utility.yul\":11382:11499   */\n    tag_159:\n        /* \"#utility.yul\":11491:11492   */\n      0x00\n        /* \"#utility.yul\":11488:11489   */\n      dup1\n        /* \"#utility.yul\":11481:11493   */\n      revert\n        /* \"#utility.yul\":11505:11582   */\n    tag_160:\n        /* \"#utility.yul\":11542:11549   */\n      0x00\n        /* \"#utility.yul\":11571:11576   */\n      dup2\n        /* \"#utility.yul\":11560:11576   */\n      swap1\n      pop\n        /* \"#utility.yul\":11505:11582   */\n      swap2\n      swap1\n      pop\n      jump\t// out\n        /* \"#utility.yul\":11588:11710   */\n    tag_161:\n        /* \"#utility.yul\":11661:11685   */\n      tag_313\n        /* \"#utility.yul\":11679:11684   */\n      dup2\n        /* \"#utility.yul\":11661:11685   */\n      tag_160\n      jump\t// in\n    tag_313:\n        /* \"#utility.yul\":11654:11659   */\n      dup2\n        /* \"#utility.yul\":11651:11686   */\n      eq\n        /* \"#utility.yul\":11641:11704   */\n      tag_314\n      jumpi\n        /* \"#utility.yul\":11700:11701   */\n      0x00\n        /* \"#utility.yul\":11697:11698   */\n      dup1\n        /* \"#utility.yul\":11690:11702   */\n      revert\n        /* \"#utility.yul\":11641:11704   */\n    tag_314:\n        /* \"#utility.yul\":11588:11710   */\n      pop\n      jump\t// out\n        /* \"#utility.yul\":11716:11855   */\n    tag_162:\n        /* \"#utility.yul\":11762:11767   */\n      0x00\n        /* \"#utility.yul\":11800:11806   */\n      dup2\n        /* \"#utility.yul\":11787:11807   */\n      calldataload\n        /* \"#utility.yul\":11778:11807   */\n      swap1\n      pop\n        /* \"#utility.yul\":11816:11849   */\n      tag_316\n        /* \"#utility.yul\":11843:11848   */\n      dup2\n        /* \"#utility.yul\":11816:11849   */\n      tag_161\n      jump\t// in\n    tag_316:\n        /* \"#utility.yul\":11716:11855   */\n      swap3\n      swap2\n      pop\n      pop\n      jump\t// out\n        /* \"#utility.yul\":11861:11962   */\n    tag_163:\n        /* \"#utility.yul\":11897:11904   */\n      0x00\n        /* \"#utility.yul\":11937:11955   */\n      0xffffffffffffffff\n        /* \"#utility.yul\":11930:11935   */\n      dup3\n        /* \"#utility.yul\":11926:11956   */\n      and\n        /* \"#utility.yul\":11915:11956   */\n      swap1\n      pop\n        /* \"#utility.yul\":11861:11962   */\n      swap2\n      swap1\n      pop\n      jump\t// out\n        /* \"#utility.yul\":11968:12088   */\n    tag_164:\n        /* \"#utility.yul\":12040:12063   */\n      tag_319\n        /* \"#utility.yul\":12057:12062   */\n      dup2\n        /* \"#utility.yul\":12040:12063   */\n      tag_163\n      jump\t// in\n    tag_319:\n        /* \"#utility.yul\":12033:12038   */\n      dup2\n        /* \"#utility.yul\":12030:12064   */\n      eq\n        /* \"#utility.yul\":12020:12082   */\n      tag_320\n      jumpi\n        /* \"#utility.yul\":12078:12079   */\n      0x00\n        /* \"#utility.yul\":12075:12076   */\n      dup1\n        /* \"#utility.yul\":12068:12080   */\n      revert\n        /* \"#utility.yul\":12020:12082   */\n    tag_320:\n        /* \"#utility.yul\":11968:12088   */\n      pop\n      jump\t// out\n        /* \"#utility.yul\":12094:12231   */\n    tag_165:\n        /* \"#utility.yul\":12139:12144   */\n      0x00\n        /* \"#utility.yul\":12177:12183   */\n      dup2\n        /* \"#utility.yul\":12164:12184   */\n      calldataload\n        /* \"#utility.yul\":12155:12184   */\n      swap1\n      pop\n        /* \"#utility.yul\":12193:12225   */\n      tag_322\n        /* \"#utility.yul\":12219:12224   */\n      dup2\n        /* \"#utility.yul\":12193:12225   */\n      tag_164\n      jump\t// in\n    tag_322:\n        /* \"#utility.yul\":12094:12231   */\n      swap3\n      swap2\n      pop\n      pop\n      jump\t// out\n        /* \"#utility.yul\":12237:12544   */\n    tag_166:\n        /* \"#utility.yul\":12298:12302   */\n      0x00\n        /* \"#utility.yul\":12388:12406   */\n      0xffffffffffffffff\n        /* \"#utility.yul\":12380:12386   */\n      dup3\n        /* \"#utility.yul\":12377:12407   */\n      gt\n        /* \"#utility.yul\":12374:12430   */\n      iszero\n      tag_324\n      jumpi\n        /* \"#utility.yul\":12410:12428   */\n      tag_325\n      tag_146\n      jump\t// in\n    tag_325:\n        /* \"#utility.yul\":12374:12430   */\n    tag_324:\n        /* \"#utility.yul\":12448:12477   */\n      tag_326\n        /* \"#utility.yul\":12470:12476   */\n      dup3\n        /* \"#utility.yul\":12448:12477   */\n      tag_145\n      jump\t// in\n    tag_326:\n        /* \"#utility.yul\":12440:12477   */\n      swap1\n      pop\n        /* \"#utility.yul\":12532:12536   */\n      0x20\n        /* \"#utility.yul\":12526:12530   */\n      dup2\n        /* \"#utility.yul\":12522:12537   */\n      add\n        /* \"#utility.yul\":12514:12537   */\n      swap1\n      pop\n        /* \"#utility.yul\":12237:12544   */\n      swap2\n      swap1\n      pop\n      jump\t// out\n        /* \"#utility.yul\":12550:12973   */\n    tag_167:\n        /* \"#utility.yul\":12627:12632   */\n      0x00\n        /* \"#utility.yul\":12652:12717   */\n      tag_328\n        /* \"#utility.yul\":12668:12716   */\n      tag_329\n        /* \"#utility.yul\":12709:12715   */\n      dup5\n        /* \"#utility.yul\":12668:12716   */\n      tag_166\n      jump\t// in\n    tag_329:\n        /* \"#utility.yul\":12652:12717   */\n      tag_148\n      jump\t// in\n    tag_328:\n        /* \"#utility.yul\":12643:12717   */\n      swap1\n      pop\n        /* \"#utility.yul\":12740:12746   */\n      dup3\n        /* \"#utility.yul\":12733:12738   */\n      dup2\n        /* \"#utility.yul\":12726:12747   */\n      mstore\n        /* \"#utility.yul\":12778:12782   */\n      0x20\n        /* \"#utility.yul\":12771:12776   */\n      dup2\n        /* \"#utility.yul\":12767:12783   */\n      add\n        /* \"#utility.yul\":12816:12819   */\n      dup5\n        /* \"#utility.yul\":12807:12813   */\n      dup5\n        /* \"#utility.yul\":12802:12805   */\n      dup5\n        /* \"#utility.yul\":12798:12814   */\n      add\n        /* \"#utility.yul\":12795:12820   */\n      gt\n        /* \"#utility.yul\":12792:12904   */\n      iszero\n      tag_330\n      jumpi\n        /* \"#utility.yul\":12823:12902   */\n      tag_331\n      tag_144\n      jump\t// in\n    tag_331:\n        /* \"#utility.yul\":12792:12904   */\n    tag_330:\n        /* \"#utility.yul\":12913:12967   */\n      tag_332\n        /* \"#utility.yul\":12960:12966   */\n      dup5\n        /* \"#utility.yul\":12955:12958   */\n      dup3\n        /* \"#utility.yul\":12950:12953   */\n      dup6\n        /* \"#utility.yul\":12913:12967   */\n      tag_150\n      jump\t// in\n    tag_332:\n        /* \"#utility.yul\":12633:12973   */\n      pop\n        /* \"#utility.yul\":12550:12973   */\n      swap4\n      swap3\n      pop\n      pop\n      pop\n      jump\t// out\n        /* \"#utility.yul\":12992:13330   */\n    tag_168:\n        /* \"#utility.yul\":13047:13052   */\n      0x00\n        /* \"#utility.yul\":13096:13099   */\n      dup3\n        /* \"#utility.yul\":13089:13093   */\n      0x1f\n        /* \"#utility.yul\":13081:13087   */\n      dup4\n        /* \"#utility.yul\":13077:13094   */\n      add\n        /* \"#utility.yul\":13073:13100   */\n      slt\n        /* \"#utility.yul\":13063:13185   */\n      tag_334\n      jumpi\n        /* \"#utility.yul\":13104:13183   */\n      tag_335\n      tag_129\n      jump\t// in\n    tag_335:\n        /* \"#utility.yul\":13063:13185   */\n    tag_334:\n        /* \"#utility.yul\":13221:13227   */\n      dup2\n        /* \"#utility.yul\":13208:13228   */\n      calldataload\n        /* \"#utility.yul\":13246:13324   */\n      tag_336\n        /* \"#utility.yul\":13320:13323   */\n      dup5\n        /* \"#utility.yul\":13312:13318   */\n      dup3\n        /* \"#utility.yul\":13305:13309   */\n      0x20\n        /* \"#utility.yul\":13297:13303   */\n      dup7\n        /* \"#utility.yul\":13293:13310   */\n      add\n        /* \"#utility.yul\":13246:13324   */\n      tag_167\n      jump\t// in\n    tag_336:\n        /* \"#utility.yul\":13237:13324   */\n      swap2\n      pop\n        /* \"#utility.yul\":13053:13330   */\n      pop\n        /* \"#utility.yul\":12992:13330   */\n      swap3\n      swap2\n      pop\n      pop\n      jump\t// out\n        /* \"#utility.yul\":13336:13678   */\n    tag_169:\n        /* \"#utility.yul\":13444:13448   */\n      0x00\n        /* \"#utility.yul\":13534:13552   */\n      0xffffffffffffffff\n        /* \"#utility.yul\":13526:13532   */\n      dup3\n        /* \"#utility.yul\":13523:13553   */\n      gt\n        /* \"#utility.yul\":13520:13576   */\n      iszero\n      tag_338\n      jumpi\n        /* \"#utility.yul\":13556:13574   */\n      tag_339\n      tag_146\n      jump\t// in\n    tag_339:\n        /* \"#utility.yul\":13520:13576   */\n    tag_338:\n        /* \"#utility.yul\":13606:13610   */\n      0x20\n        /* \"#utility.yul\":13598:13604   */\n      dup3\n        /* \"#utility.yul\":13594:13611   */\n      mul\n        /* \"#utility.yul\":13586:13611   */\n      swap1\n      pop\n        /* \"#utility.yul\":13666:13670   */\n      0x20\n        /* \"#utility.yul\":13660:13664   */\n      dup2\n        /* \"#utility.yul\":13656:13671   */\n      add\n        /* \"#utility.yul\":13648:13671   */\n      swap1\n      pop\n        /* \"#utility.yul\":13336:13678   */\n      swap2\n      swap1\n      pop\n      jump\t// out\n        /* \"#utility.yul\":13720:14303   */\n    tag_170:\n        /* \"#utility.yul\":13800:13805   */\n      0x00\n        /* \"#utility.yul\":13844:13848   */\n      0x40\n        /* \"#utility.yul\":13832:13841   */\n      dup3\n        /* \"#utility.yul\":13827:13830   */\n      dup5\n        /* \"#utility.yul\":13823:13842   */\n      sub\n        /* \"#utility.yul\":13819:13849   */\n      slt\n        /* \"#utility.yul\":13816:13933   */\n      iszero\n      tag_341\n      jumpi\n        /* \"#utility.yul\":13852:13931   */\n      tag_342\n      tag_158\n      jump\t// in\n    tag_342:\n        /* \"#utility.yul\":13816:13933   */\n    tag_341:\n        /* \"#utility.yul\":13951:13972   */\n      tag_343\n        /* \"#utility.yul\":13967:13971   */\n      0x40\n        /* \"#utility.yul\":13951:13972   */\n      tag_148\n      jump\t// in\n    tag_343:\n        /* \"#utility.yul\":13942:13972   */\n      swap1\n      pop\n        /* \"#utility.yul\":14032:14033   */\n      0x00\n        /* \"#utility.yul\":14072:14121   */\n      tag_344\n        /* \"#utility.yul\":14117:14120   */\n      dup5\n        /* \"#utility.yul\":14108:14114   */\n      dup3\n        /* \"#utility.yul\":14097:14106   */\n      dup6\n        /* \"#utility.yul\":14093:14115   */\n      add\n        /* \"#utility.yul\":14072:14121   */\n      tag_139\n      jump\t// in\n    tag_344:\n        /* \"#utility.yul\":14065:14069   */\n      0x00\n        /* \"#utility.yul\":14058:14063   */\n      dup4\n        /* \"#utility.yul\":14054:14070   */\n      add\n        /* \"#utility.yul\":14047:14122   */\n      mstore\n        /* \"#utility.yul\":13982:14133   */\n      pop\n        /* \"#utility.yul\":14194:14196   */\n      0x20\n        /* \"#utility.yul\":14235:14284   */\n      tag_345\n        /* \"#utility.yul\":14280:14283   */\n      dup5\n        /* \"#utility.yul\":14271:14277   */\n      dup3\n        /* \"#utility.yul\":14260:14269   */\n      dup6\n        /* \"#utility.yul\":14256:14278   */\n      add\n        /* \"#utility.yul\":14235:14284   */\n      tag_141\n      jump\t// in\n    tag_345:\n        /* \"#utility.yul\":14228:14232   */\n      0x20\n        /* \"#utility.yul\":14221:14226   */\n      dup4\n        /* \"#utility.yul\":14217:14233   */\n      add\n        /* \"#utility.yul\":14210:14285   */\n      mstore\n        /* \"#utility.yul\":14143:14296   */\n      pop\n        /* \"#utility.yul\":13720:14303   */\n      swap3\n      swap2\n      pop\n      pop\n      jump\t// out\n        /* \"#utility.yul\":14347:15150   */\n    tag_171:\n        /* \"#utility.yul\":14474:14479   */\n      0x00\n        /* \"#utility.yul\":14499:14611   */\n      tag_347\n        /* \"#utility.yul\":14515:14610   */\n      tag_348\n        /* \"#utility.yul\":14603:14609   */\n      dup5\n        /* \"#utility.yul\":14515:14610   */\n      tag_169\n      jump\t// in\n    tag_348:\n        /* \"#utility.yul\":14499:14611   */\n      tag_148\n      jump\t// in\n    tag_347:\n        /* \"#utility.yul\":14490:14611   */\n      swap1\n      pop\n        /* \"#utility.yul\":14631:14636   */\n      dup1\n        /* \"#utility.yul\":14660:14666   */\n      dup4\n        /* \"#utility.yul\":14653:14658   */\n      dup3\n        /* \"#utility.yul\":14646:14667   */\n      mstore\n        /* \"#utility.yul\":14694:14698   */\n      0x20\n        /* \"#utility.yul\":14687:14692   */\n      dup3\n        /* \"#utility.yul\":14683:14699   */\n      add\n        /* \"#utility.yul\":14676:14699   */\n      swap1\n      pop\n        /* \"#utility.yul\":14747:14751   */\n      0x40\n        /* \"#utility.yul\":14739:14745   */\n      dup5\n        /* \"#utility.yul\":14735:14752   */\n      mul\n        /* \"#utility.yul\":14727:14733   */\n      dup4\n        /* \"#utility.yul\":14723:14753   */\n      add\n        /* \"#utility.yul\":14776:14779   */\n      dup6\n        /* \"#utility.yul\":14768:14774   */\n      dup2\n        /* \"#utility.yul\":14765:14780   */\n      gt\n        /* \"#utility.yul\":14762:14884   */\n      iszero\n      tag_349\n      jumpi\n        /* \"#utility.yul\":14795:14874   */\n      tag_350\n      tag_131\n      jump\t// in\n    tag_350:\n        /* \"#utility.yul\":14762:14884   */\n    tag_349:\n        /* \"#utility.yul\":14910:14916   */\n      dup4\n        /* \"#utility.yul\":14893:15144   */\n    tag_351:\n        /* \"#utility.yul\":14927:14933   */\n      dup2\n        /* \"#utility.yul\":14922:14925   */\n      dup2\n        /* \"#utility.yul\":14919:14934   */\n      lt\n        /* \"#utility.yul\":14893:15144   */\n      iszero\n      tag_353\n      jumpi\n        /* \"#utility.yul\":15002:15005   */\n      dup1\n        /* \"#utility.yul\":15031:15099   */\n      tag_354\n        /* \"#utility.yul\":15095:15098   */\n      dup9\n        /* \"#utility.yul\":15083:15093   */\n      dup3\n        /* \"#utility.yul\":15031:15099   */\n      tag_170\n      jump\t// in\n    tag_354:\n        /* \"#utility.yul\":15026:15029   */\n      dup5\n        /* \"#utility.yul\":15019:15100   */\n      mstore\n        /* \"#utility.yul\":15129:15133   */\n      0x20\n        /* \"#utility.yul\":15124:15127   */\n      dup5\n        /* \"#utility.yul\":15120:15134   */\n      add\n        /* \"#utility.yul\":15113:15134   */\n      swap4\n      pop\n        /* \"#utility.yul\":14969:15144   */\n      pop\n        /* \"#utility.yul\":14953:14957   */\n      0x40\n        /* \"#utility.yul\":14948:14951   */\n      dup2\n        /* \"#utility.yul\":14944:14958   */\n      add\n        /* \"#utility.yul\":14937:14958   */\n      swap1\n      pop\n        /* \"#utility.yul\":14893:15144   */\n      jump(tag_351)\n    tag_353:\n        /* \"#utility.yul\":14897:14918   */\n      pop\n        /* \"#utility.yul\":14480:15150   */\n      pop\n      pop\n        /* \"#utility.yul\":14347:15150   */\n      swap4\n      swap3\n      pop\n      pop\n      pop\n      jump\t// out\n        /* \"#utility.yul\":15194:15626   */\n    tag_172:\n        /* \"#utility.yul\":15296:15301   */\n      0x00\n        /* \"#utility.yul\":15345:15348   */\n      dup3\n        /* \"#utility.yul\":15338:15342   */\n      0x1f\n        /* \"#utility.yul\":15330:15336   */\n      dup4\n        /* \"#utility.yul\":15326:15343   */\n      add\n        /* \"#utility.yul\":15322:15349   */\n      slt\n        /* \"#utility.yul\":15312:15434   */\n      tag_356\n      jumpi\n        /* \"#utility.yul\":15353:15432   */\n      tag_357\n      tag_129\n      jump\t// in\n    tag_357:\n        /* \"#utility.yul\":15312:15434   */\n    tag_356:\n        /* \"#utility.yul\":15470:15476   */\n      dup2\n        /* \"#utility.yul\":15457:15477   */\n      calldataload\n        /* \"#utility.yul\":15495:15620   */\n      tag_358\n        /* \"#utility.yul\":15616:15619   */\n      dup5\n        /* \"#utility.yul\":15608:15614   */\n      dup3\n        /* \"#utility.yul\":15601:15605   */\n      0x20\n        /* \"#utility.yul\":15593:15599   */\n      dup7\n        /* \"#utility.yul\":15589:15606   */\n      add\n        /* \"#utility.yul\":15495:15620   */\n      tag_171\n      jump\t// in\n    tag_358:\n        /* \"#utility.yul\":15486:15620   */\n      swap2\n      pop\n        /* \"#utility.yul\":15302:15626   */\n      pop\n        /* \"#utility.yul\":15194:15626   */\n      swap3\n      swap2\n      pop\n      pop\n      jump\t// out\n        /* \"#utility.yul\":15668:17319   */\n    tag_173:\n        /* \"#utility.yul\":15748:15753   */\n      0x00\n        /* \"#utility.yul\":15792:15796   */\n      0xa0\n        /* \"#utility.yul\":15780:15789   */\n      dup3\n        /* \"#utility.yul\":15775:15778   */\n      dup5\n        /* \"#utility.yul\":15771:15790   */\n      sub\n        /* \"#utility.yul\":15767:15797   */\n      slt\n        /* \"#utility.yul\":15764:15881   */\n      iszero\n      tag_360\n      jumpi\n        /* \"#utility.yul\":15800:15879   */\n      tag_361\n      tag_158\n      jump\t// in\n    tag_361:\n        /* \"#utility.yul\":15764:15881   */\n    tag_360:\n        /* \"#utility.yul\":15899:15920   */\n      tag_362\n        /* \"#utility.yul\":15915:15919   */\n      0xa0\n        /* \"#utility.yul\":15899:15920   */\n      tag_148\n      jump\t// in\n    tag_362:\n        /* \"#utility.yul\":15890:15920   */\n      swap1\n      pop\n        /* \"#utility.yul\":15984:15985   */\n      0x00\n        /* \"#utility.yul\":16024:16073   */\n      tag_363\n        /* \"#utility.yul\":16069:16072   */\n      dup5\n        /* \"#utility.yul\":16060:16066   */\n      dup3\n        /* \"#utility.yul\":16049:16058   */\n      dup6\n        /* \"#utility.yul\":16045:16067   */\n      add\n        /* \"#utility.yul\":16024:16073   */\n      tag_162\n      jump\t// in\n    tag_363:\n        /* \"#utility.yul\":16017:16021   */\n      0x00\n        /* \"#utility.yul\":16010:16015   */\n      dup4\n        /* \"#utility.yul\":16006:16022   */\n      add\n        /* \"#utility.yul\":15999:16074   */\n      mstore\n        /* \"#utility.yul\":15930:16085   */\n      pop\n        /* \"#utility.yul\":16159:16161   */\n      0x20\n        /* \"#utility.yul\":16200:16248   */\n      tag_364\n        /* \"#utility.yul\":16244:16247   */\n      dup5\n        /* \"#utility.yul\":16235:16241   */\n      dup3\n        /* \"#utility.yul\":16224:16233   */\n      dup6\n        /* \"#utility.yul\":16220:16242   */\n      add\n        /* \"#utility.yul\":16200:16248   */\n      tag_165\n      jump\t// in\n    tag_364:\n        /* \"#utility.yul\":16193:16197   */\n      0x20\n        /* \"#utility.yul\":16186:16191   */\n      dup4\n        /* \"#utility.yul\":16182:16198   */\n      add\n        /* \"#utility.yul\":16175:16249   */\n      mstore\n        /* \"#utility.yul\":16095:16260   */\n      pop\n        /* \"#utility.yul\":16349:16351   */\n      0x40\n        /* \"#utility.yul\":16338:16347   */\n      dup3\n        /* \"#utility.yul\":16334:16352   */\n      add\n        /* \"#utility.yul\":16321:16353   */\n      calldataload\n        /* \"#utility.yul\":16380:16398   */\n      0xffffffffffffffff\n        /* \"#utility.yul\":16372:16378   */\n      dup2\n        /* \"#utility.yul\":16369:16399   */\n      gt\n        /* \"#utility.yul\":16366:16483   */\n      iszero\n      tag_365\n      jumpi\n        /* \"#utility.yul\":16402:16481   */\n      tag_366\n      tag_159\n      jump\t// in\n    tag_366:\n        /* \"#utility.yul\":16366:16483   */\n    tag_365:\n        /* \"#utility.yul\":16522:16580   */\n      tag_367\n        /* \"#utility.yul\":16576:16579   */\n      dup5\n        /* \"#utility.yul\":16567:16573   */\n      dup3\n        /* \"#utility.yul\":16556:16565   */\n      dup6\n        /* \"#utility.yul\":16552:16574   */\n      add\n        /* \"#utility.yul\":16522:16580   */\n      tag_168\n      jump\t// in\n    tag_367:\n        /* \"#utility.yul\":16515:16519   */\n      0x40\n        /* \"#utility.yul\":16508:16513   */\n      dup4\n        /* \"#utility.yul\":16504:16520   */\n      add\n        /* \"#utility.yul\":16497:16581   */\n      mstore\n        /* \"#utility.yul\":16270:16592   */\n      pop\n        /* \"#utility.yul\":16679:16681   */\n      0x60\n        /* \"#utility.yul\":16668:16677   */\n      dup3\n        /* \"#utility.yul\":16664:16682   */\n      add\n        /* \"#utility.yul\":16651:16683   */\n      calldataload\n        /* \"#utility.yul\":16710:16728   */\n      0xffffffffffffffff\n        /* \"#utility.yul\":16702:16708   */\n      dup2\n        /* \"#utility.yul\":16699:16729   */\n      gt\n        /* \"#utility.yul\":16696:16813   */\n      iszero\n      tag_368\n      jumpi\n        /* \"#utility.yul\":16732:16811   */\n      tag_369\n      tag_159\n      jump\t// in\n    tag_369:\n        /* \"#utility.yul\":16696:16813   */\n    tag_368:\n        /* \"#utility.yul\":16852:16910   */\n      tag_370\n        /* \"#utility.yul\":16906:16909   */\n      dup5\n        /* \"#utility.yul\":16897:16903   */\n      dup3\n        /* \"#utility.yul\":16886:16895   */\n      dup6\n        /* \"#utility.yul\":16882:16904   */\n      add\n        /* \"#utility.yul\":16852:16910   */\n      tag_168\n      jump\t// in\n    tag_370:\n        /* \"#utility.yul\":16845:16849   */\n      0x60\n        /* \"#utility.yul\":16838:16843   */\n      dup4\n        /* \"#utility.yul\":16834:16850   */\n      add\n        /* \"#utility.yul\":16827:16911   */\n      mstore\n        /* \"#utility.yul\":16602:16922   */\n      pop\n        /* \"#utility.yul\":17021:17024   */\n      0x80\n        /* \"#utility.yul\":17010:17019   */\n      dup3\n        /* \"#utility.yul\":17006:17025   */\n      add\n        /* \"#utility.yul\":16993:17026   */\n      calldataload\n        /* \"#utility.yul\":17053:17071   */\n      0xffffffffffffffff\n        /* \"#utility.yul\":17045:17051   */\n      dup2\n        /* \"#utility.yul\":17042:17072   */\n      gt\n        /* \"#utility.yul\":17039:17156   */\n      iszero\n      tag_371\n      jumpi\n        /* \"#utility.yul\":17075:17154   */\n      tag_372\n      tag_159\n      jump\t// in\n    tag_372:\n        /* \"#utility.yul\":17039:17156   */\n    tag_371:\n        /* \"#utility.yul\":17195:17300   */\n      tag_373\n        /* \"#utility.yul\":17296:17299   */\n      dup5\n        /* \"#utility.yul\":17287:17293   */\n      dup3\n        /* \"#utility.yul\":17276:17285   */\n      dup6\n        /* \"#utility.yul\":17272:17294   */\n      add\n        /* \"#utility.yul\":17195:17300   */\n      tag_172\n      jump\t// in\n    tag_373:\n        /* \"#utility.yul\":17188:17192   */\n      0x80\n        /* \"#utility.yul\":17181:17186   */\n      dup4\n        /* \"#utility.yul\":17177:17193   */\n      add\n        /* \"#utility.yul\":17170:17301   */\n      mstore\n        /* \"#utility.yul\":16932:17312   */\n      pop\n        /* \"#utility.yul\":15668:17319   */\n      swap3\n      swap2\n      pop\n      pop\n      jump\t// out\n        /* \"#utility.yul\":17325:17554   */\n    tag_83:\n        /* \"#utility.yul\":17439:17448   */\n      0x00\n        /* \"#utility.yul\":17473:17547   */\n      tag_375\n        /* \"#utility.yul\":17532:17546   */\n      calldatasize\n        /* \"#utility.yul\":17525:17530   */\n      dup4\n        /* \"#utility.yul\":17473:17547   */\n      tag_173\n      jump\t// in\n    tag_375:\n        /* \"#utility.yul\":17460:17547   */\n      swap1\n      pop\n        /* \"#utility.yul\":17325:17554   */\n      swap2\n      swap1\n      pop\n      jump\t// out\n        /* \"#utility.yul\":17560:17658   */\n    tag_174:\n        /* \"#utility.yul\":17611:17617   */\n      0x00\n        /* \"#utility.yul\":17645:17650   */\n      dup2\n        /* \"#utility.yul\":17639:17651   */\n      mload\n        /* \"#utility.yul\":17629:17651   */\n      swap1\n      pop\n        /* \"#utility.yul\":17560:17658   */\n      swap2\n      swap1\n      pop\n      jump\t// out\n        /* \"#utility.yul\":17664:17811   */\n    tag_175:\n        /* \"#utility.yul\":17765:17776   */\n      0x00\n        /* \"#utility.yul\":17802:17805   */\n      dup2\n        /* \"#utility.yul\":17787:17805   */\n      swap1\n      pop\n        /* \"#utility.yul\":17664:17811   */\n      swap3\n      swap2\n      pop\n      pop\n      jump\t// out\n        /* \"#utility.yul\":17817:18063   */\n    tag_176:\n        /* \"#utility.yul\":17898:17899   */\n      0x00\n        /* \"#utility.yul\":17908:18021   */\n    tag_379:\n        /* \"#utility.yul\":17922:17928   */\n      dup4\n        /* \"#utility.yul\":17919:17920   */\n      dup2\n        /* \"#utility.yul\":17916:17929   */\n      lt\n        /* \"#utility.yul\":17908:18021   */\n      iszero\n      tag_381\n      jumpi\n        /* \"#utility.yul\":18007:18008   */\n      dup1\n        /* \"#utility.yul\":18002:18005   */\n      dup3\n        /* \"#utility.yul\":17998:18009   */\n      add\n        /* \"#utility.yul\":17992:18010   */\n      mload\n        /* \"#utility.yul\":17988:17989   */\n      dup2\n        /* \"#utility.yul\":17983:17986   */\n      dup5\n        /* \"#utility.yul\":17979:17990   */\n      add\n        /* \"#utility.yul\":17972:18011   */\n      mstore\n        /* \"#utility.yul\":17944:17946   */\n      0x20\n        /* \"#utility.yul\":17941:17942   */\n      dup2\n        /* \"#utility.yul\":17937:17947   */\n      add\n        /* \"#utility.yul\":17932:17947   */\n      swap1\n      pop\n        /* \"#utility.yul\":17908:18021   */\n      jump(tag_379)\n    tag_381:\n        /* \"#utility.yul\":18055:18056   */\n      0x00\n        /* \"#utility.yul\":18046:18052   */\n      dup5\n        /* \"#utility.yul\":18041:18044   */\n      dup5\n        /* \"#utility.yul\":18037:18053   */\n      add\n        /* \"#utility.yul\":18030:18057   */\n      mstore\n        /* \"#utility.yul\":17879:18063   */\n      pop\n        /* \"#utility.yul\":17817:18063   */\n      pop\n      pop\n      pop\n      jump\t// out\n        /* \"#utility.yul\":18069:18455   */\n    tag_177:\n        /* \"#utility.yul\":18173:18176   */\n      0x00\n        /* \"#utility.yul\":18201:18239   */\n      tag_383\n        /* \"#utility.yul\":18233:18238   */\n      dup3\n        /* \"#utility.yul\":18201:18239   */\n      tag_174\n      jump\t// in\n    tag_383:\n        /* \"#utility.yul\":18255:18343   */\n      tag_384\n        /* \"#utility.yul\":18336:18342   */\n      dup2\n        /* \"#utility.yul\":18331:18334   */\n      dup6\n        /* \"#utility.yul\":18255:18343   */\n      tag_175\n      jump\t// in\n    tag_384:\n        /* \"#utility.yul\":18248:18343   */\n      swap4\n      pop\n        /* \"#utility.yul\":18352:18417   */\n      tag_385\n        /* \"#utility.yul\":18410:18416   */\n      dup2\n        /* \"#utility.yul\":18405:18408   */\n      dup6\n        /* \"#utility.yul\":18398:18402   */\n      0x20\n        /* \"#utility.yul\":18391:18396   */\n      dup7\n        /* \"#utility.yul\":18387:18403   */\n      add\n        /* \"#utility.yul\":18352:18417   */\n      tag_176\n      jump\t// in\n    tag_385:\n        /* \"#utility.yul\":18442:18448   */\n      dup1\n        /* \"#utility.yul\":18437:18440   */\n      dup5\n        /* \"#utility.yul\":18433:18449   */\n      add\n        /* \"#utility.yul\":18426:18449   */\n      swap2\n      pop\n        /* \"#utility.yul\":18177:18455   */\n      pop\n        /* \"#utility.yul\":18069:18455   */\n      swap3\n      swap2\n      pop\n      pop\n      jump\t// out\n        /* \"#utility.yul\":18461:18732   */\n    tag_90:\n        /* \"#utility.yul\":18591:18594   */\n      0x00\n        /* \"#utility.yul\":18613:18706   */\n      tag_387\n        /* \"#utility.yul\":18702:18705   */\n      dup3\n        /* \"#utility.yul\":18693:18699   */\n      dup5\n        /* \"#utility.yul\":18613:18706   */\n      tag_177\n      jump\t// in\n    tag_387:\n        /* \"#utility.yul\":18606:18706   */\n      swap2\n      pop\n        /* \"#utility.yul\":18723:18726   */\n      dup2\n        /* \"#utility.yul\":18716:18726   */\n      swap1\n      pop\n        /* \"#utility.yul\":18461:18732   */\n      swap3\n      swap2\n      pop\n      pop\n      jump\t// out\n        /* \"#utility.yul\":18738:18902   */\n    tag_178:\n        /* \"#utility.yul\":18878:18894   */\n      0x4465706f736974206661696c6564000000000000000000000000000000000000\n        /* \"#utility.yul\":18874:18875   */\n      0x00\n        /* \"#utility.yul\":18866:18872   */\n      dup3\n        /* \"#utility.yul\":18862:18876   */\n      add\n        /* \"#utility.yul\":18855:18895   */\n      mstore\n        /* \"#utility.yul\":18738:18902   */\n      pop\n      jump\t// out\n        /* \"#utility.yul\":18908:19274   */\n    tag_179:\n        /* \"#utility.yul\":19050:19053   */\n      0x00\n        /* \"#utility.yul\":19071:19138   */\n      tag_390\n        /* \"#utility.yul\":19135:19137   */\n      0x0e\n        /* \"#utility.yul\":19130:19133   */\n      dup4\n        /* \"#utility.yul\":19071:19138   */\n      tag_155\n      jump\t// in\n    tag_390:\n        /* \"#utility.yul\":19064:19138   */\n      swap2\n      pop\n        /* \"#utility.yul\":19147:19240   */\n      tag_391\n        /* \"#utility.yul\":19236:19239   */\n      dup3\n        /* \"#utility.yul\":19147:19240   */\n      tag_178\n      jump\t// in\n    tag_391:\n        /* \"#utility.yul\":19265:19267   */\n      0x20\n        /* \"#utility.yul\":19260:19263   */\n      dup3\n        /* \"#utility.yul\":19256:19268   */\n      add\n        /* \"#utility.yul\":19249:19268   */\n      swap1\n      pop\n        /* \"#utility.yul\":18908:19274   */\n      swap2\n      swap1\n      pop\n      jump\t// out\n        /* \"#utility.yul\":19280:19699   */\n    tag_96:\n        /* \"#utility.yul\":19446:19450   */\n      0x00\n        /* \"#utility.yul\":19484:19486   */\n      0x20\n        /* \"#utility.yul\":19473:19482   */\n      dup3\n        /* \"#utility.yul\":19469:19487   */\n      add\n        /* \"#utility.yul\":19461:19487   */\n      swap1\n      pop\n        /* \"#utility.yul\":19533:19542   */\n      dup2\n        /* \"#utility.yul\":19527:19531   */\n      dup2\n        /* \"#utility.yul\":19523:19543   */\n      sub\n        /* \"#utility.yul\":19519:19520   */\n      0x00\n        /* \"#utility.yul\":19508:19517   */\n      dup4\n        /* \"#utility.yul\":19504:19521   */\n      add\n        /* \"#utility.yul\":19497:19544   */\n      mstore\n        /* \"#utility.yul\":19561:19692   */\n      tag_393\n        /* \"#utility.yul\":19687:19691   */\n      dup2\n        /* \"#utility.yul\":19561:19692   */\n      tag_179\n      jump\t// in\n    tag_393:\n        /* \"#utility.yul\":19553:19692   */\n      swap1\n      pop\n        /* \"#utility.yul\":19280:19699   */\n      swap2\n      swap1\n      pop\n      jump\t// out\n        /* \"#utility.yul\":19705:20139   */\n    tag_180:\n        /* \"#utility.yul\":19794:19799   */\n      0x00\n        /* \"#utility.yul\":19819:19885   */\n      tag_395\n        /* \"#utility.yul\":19835:19884   */\n      tag_396\n        /* \"#utility.yul\":19877:19883   */\n      dup5\n        /* \"#utility.yul\":19835:19884   */\n      tag_149\n      jump\t// in\n    tag_396:\n        /* \"#utility.yul\":19819:19885   */\n      tag_148\n      jump\t// in\n    tag_395:\n        /* \"#utility.yul\":19810:19885   */\n      swap1\n      pop\n        /* \"#utility.yul\":19908:19914   */\n      dup3\n        /* \"#utility.yul\":19901:19906   */\n      dup2\n        /* \"#utility.yul\":19894:19915   */\n      mstore\n        /* \"#utility.yul\":19946:19950   */\n      0x20\n        /* \"#utility.yul\":19939:19944   */\n      dup2\n        /* \"#utility.yul\":19935:19951   */\n      add\n        /* \"#utility.yul\":19984:19987   */\n      dup5\n        /* \"#utility.yul\":19975:19981   */\n      dup5\n        /* \"#utility.yul\":19970:19973   */\n      dup5\n        /* \"#utility.yul\":19966:19982   */\n      add\n        /* \"#utility.yul\":19963:19988   */\n      gt\n        /* \"#utility.yul\":19960:20072   */\n      iszero\n      tag_397\n      jumpi\n        /* \"#utility.yul\":19991:20070   */\n      tag_398\n      tag_144\n      jump\t// in\n    tag_398:\n        /* \"#utility.yul\":19960:20072   */\n    tag_397:\n        /* \"#utility.yul\":20081:20133   */\n      tag_399\n        /* \"#utility.yul\":20126:20132   */\n      dup5\n        /* \"#utility.yul\":20121:20124   */\n      dup3\n        /* \"#utility.yul\":20116:20119   */\n      dup6\n        /* \"#utility.yul\":20081:20133   */\n      tag_176\n      jump\t// in\n    tag_399:\n        /* \"#utility.yul\":19800:20139   */\n      pop\n        /* \"#utility.yul\":19705:20139   */\n      swap4\n      swap3\n      pop\n      pop\n      pop\n      jump\t// out\n        /* \"#utility.yul\":20159:20514   */\n    tag_181:\n        /* \"#utility.yul\":20226:20231   */\n      0x00\n        /* \"#utility.yul\":20275:20278   */\n      dup3\n        /* \"#utility.yul\":20268:20272   */\n      0x1f\n        /* \"#utility.yul\":20260:20266   */\n      dup4\n        /* \"#utility.yul\":20256:20273   */\n      add\n        /* \"#utility.yul\":20252:20279   */\n      slt\n        /* \"#utility.yul\":20242:20364   */\n      tag_401\n      jumpi\n        /* \"#utility.yul\":20283:20362   */\n      tag_402\n      tag_129\n      jump\t// in\n    tag_402:\n        /* \"#utility.yul\":20242:20364   */\n    tag_401:\n        /* \"#utility.yul\":20393:20399   */\n      dup2\n        /* \"#utility.yul\":20387:20400   */\n      mload\n        /* \"#utility.yul\":20418:20508   */\n      tag_403\n        /* \"#utility.yul\":20504:20507   */\n      dup5\n        /* \"#utility.yul\":20496:20502   */\n      dup3\n        /* \"#utility.yul\":20489:20493   */\n      0x20\n        /* \"#utility.yul\":20481:20487   */\n      dup7\n        /* \"#utility.yul\":20477:20494   */\n      add\n        /* \"#utility.yul\":20418:20508   */\n      tag_180\n      jump\t// in\n    tag_403:\n        /* \"#utility.yul\":20409:20508   */\n      swap2\n      pop\n        /* \"#utility.yul\":20232:20514   */\n      pop\n        /* \"#utility.yul\":20159:20514   */\n      swap3\n      swap2\n      pop\n      pop\n      jump\t// out\n        /* \"#utility.yul\":20520:20663   */\n    tag_182:\n        /* \"#utility.yul\":20577:20582   */\n      0x00\n        /* \"#utility.yul\":20608:20614   */\n      dup2\n        /* \"#utility.yul\":20602:20615   */\n      mload\n        /* \"#utility.yul\":20593:20615   */\n      swap1\n      pop\n        /* \"#utility.yul\":20624:20657   */\n      tag_405\n        /* \"#utility.yul\":20651:20656   */\n      dup2\n        /* \"#utility.yul\":20624:20657   */\n      tag_140\n      jump\t// in\n    tag_405:\n        /* \"#utility.yul\":20520:20663   */\n      swap3\n      swap2\n      pop\n      pop\n      jump\t// out\n        /* \"#utility.yul\":20713:21847   */\n    tag_183:\n        /* \"#utility.yul\":20802:20807   */\n      0x00\n        /* \"#utility.yul\":20846:20850   */\n      0x60\n        /* \"#utility.yul\":20834:20843   */\n      dup3\n        /* \"#utility.yul\":20829:20832   */\n      dup5\n        /* \"#utility.yul\":20825:20844   */\n      sub\n        /* \"#utility.yul\":20821:20851   */\n      slt\n        /* \"#utility.yul\":20818:20935   */\n      iszero\n      tag_407\n      jumpi\n        /* \"#utility.yul\":20854:20933   */\n      tag_408\n      tag_158\n      jump\t// in\n    tag_408:\n        /* \"#utility.yul\":20818:20935   */\n    tag_407:\n        /* \"#utility.yul\":20953:20974   */\n      tag_409\n        /* \"#utility.yul\":20969:20973   */\n      0x60\n        /* \"#utility.yul\":20953:20974   */\n      tag_148\n      jump\t// in\n    tag_409:\n        /* \"#utility.yul\":20944:20974   */\n      swap1\n      pop\n        /* \"#utility.yul\":21063:21064   */\n      0x00\n        /* \"#utility.yul\":21052:21061   */\n      dup3\n        /* \"#utility.yul\":21048:21065   */\n      add\n        /* \"#utility.yul\":21042:21066   */\n      mload\n        /* \"#utility.yul\":21093:21111   */\n      0xffffffffffffffff\n        /* \"#utility.yul\":21085:21091   */\n      dup2\n        /* \"#utility.yul\":21082:21112   */\n      gt\n        /* \"#utility.yul\":21079:21196   */\n      iszero\n      tag_410\n      jumpi\n        /* \"#utility.yul\":21115:21194   */\n      tag_411\n      tag_159\n      jump\t// in\n    tag_411:\n        /* \"#utility.yul\":21079:21196   */\n    tag_410:\n        /* \"#utility.yul\":21235:21305   */\n      tag_412\n        /* \"#utility.yul\":21301:21304   */\n      dup5\n        /* \"#utility.yul\":21292:21298   */\n      dup3\n        /* \"#utility.yul\":21281:21290   */\n      dup6\n        /* \"#utility.yul\":21277:21299   */\n      add\n        /* \"#utility.yul\":21235:21305   */\n      tag_181\n      jump\t// in\n    tag_412:\n        /* \"#utility.yul\":21228:21232   */\n      0x00\n        /* \"#utility.yul\":21221:21226   */\n      dup4\n        /* \"#utility.yul\":21217:21233   */\n      add\n        /* \"#utility.yul\":21210:21306   */\n      mstore\n        /* \"#utility.yul\":20984:21317   */\n      pop\n        /* \"#utility.yul\":21411:21413   */\n      0x20\n        /* \"#utility.yul\":21400:21409   */\n      dup3\n        /* \"#utility.yul\":21396:21414   */\n      add\n        /* \"#utility.yul\":21390:21415   */\n      mload\n        /* \"#utility.yul\":21442:21460   */\n      0xffffffffffffffff\n        /* \"#utility.yul\":21434:21440   */\n      dup2\n        /* \"#utility.yul\":21431:21461   */\n      gt\n        /* \"#utility.yul\":21428:21545   */\n      iszero\n      tag_413\n      jumpi\n        /* \"#utility.yul\":21464:21543   */\n      tag_414\n      tag_159\n      jump\t// in\n    tag_414:\n        /* \"#utility.yul\":21428:21545   */\n    tag_413:\n        /* \"#utility.yul\":21584:21654   */\n      tag_415\n        /* \"#utility.yul\":21650:21653   */\n      dup5\n        /* \"#utility.yul\":21641:21647   */\n      dup3\n        /* \"#utility.yul\":21630:21639   */\n      dup6\n        /* \"#utility.yul\":21626:21648   */\n      add\n        /* \"#utility.yul\":21584:21654   */\n      tag_181\n      jump\t// in\n    tag_415:\n        /* \"#utility.yul\":21577:21581   */\n      0x20\n        /* \"#utility.yul\":21570:21575   */\n      dup4\n        /* \"#utility.yul\":21566:21582   */\n      add\n        /* \"#utility.yul\":21559:21655   */\n      mstore\n        /* \"#utility.yul\":21327:21666   */\n      pop\n        /* \"#utility.yul\":21727:21729   */\n      0x40\n        /* \"#utility.yul\":21768:21828   */\n      tag_416\n        /* \"#utility.yul\":21824:21827   */\n      dup5\n        /* \"#utility.yul\":21815:21821   */\n      dup3\n        /* \"#utility.yul\":21804:21813   */\n      dup6\n        /* \"#utility.yul\":21800:21822   */\n      add\n        /* \"#utility.yul\":21768:21828   */\n      tag_182\n      jump\t// in\n    tag_416:\n        /* \"#utility.yul\":21761:21765   */\n      0x40\n        /* \"#utility.yul\":21754:21759   */\n      dup4\n        /* \"#utility.yul\":21750:21766   */\n      add\n        /* \"#utility.yul\":21743:21829   */\n      mstore\n        /* \"#utility.yul\":21676:21840   */\n      pop\n        /* \"#utility.yul\":20713:21847   */\n      swap3\n      swap2\n      pop\n      pop\n      jump\t// out\n        /* \"#utility.yul\":21853:22415   */\n    tag_99:\n        /* \"#utility.yul\":21952:21958   */\n      0x00\n        /* \"#utility.yul\":22001:22003   */\n      0x20\n        /* \"#utility.yul\":21989:21998   */\n      dup3\n        /* \"#utility.yul\":21980:21987   */\n      dup5\n        /* \"#utility.yul\":21976:21999   */\n      sub\n        /* \"#utility.yul\":21972:22004   */\n      slt\n        /* \"#utility.yul\":21969:22088   */\n      iszero\n      tag_418\n      jumpi\n        /* \"#utility.yul\":22007:22086   */\n      tag_419\n      tag_122\n      jump\t// in\n    tag_419:\n        /* \"#utility.yul\":21969:22088   */\n    tag_418:\n        /* \"#utility.yul\":22148:22149   */\n      0x00\n        /* \"#utility.yul\":22137:22146   */\n      dup3\n        /* \"#utility.yul\":22133:22150   */\n      add\n        /* \"#utility.yul\":22127:22151   */\n      mload\n        /* \"#utility.yul\":22178:22196   */\n      0xffffffffffffffff\n        /* \"#utility.yul\":22170:22176   */\n      dup2\n        /* \"#utility.yul\":22167:22197   */\n      gt\n        /* \"#utility.yul\":22164:22281   */\n      iszero\n      tag_420\n      jumpi\n        /* \"#utility.yul\":22200:22279   */\n      tag_421\n      tag_123\n      jump\t// in\n    tag_421:\n        /* \"#utility.yul\":22164:22281   */\n    tag_420:\n        /* \"#utility.yul\":22305:22398   */\n      tag_422\n        /* \"#utility.yul\":22390:22397   */\n      dup5\n        /* \"#utility.yul\":22381:22387   */\n      dup3\n        /* \"#utility.yul\":22370:22379   */\n      dup6\n        /* \"#utility.yul\":22366:22388   */\n      add\n        /* \"#utility.yul\":22305:22398   */\n      tag_183\n      jump\t// in\n    tag_422:\n        /* \"#utility.yul\":22295:22398   */\n      swap2\n      pop\n        /* \"#utility.yul\":22098:22408   */\n      pop\n        /* \"#utility.yul\":21853:22415   */\n      swap3\n      swap2\n      pop\n      pop\n      jump\t// out\n        /* \"#utility.yul\":22421:22520   */\n    tag_184:\n        /* \"#utility.yul\":22473:22479   */\n      0x00\n        /* \"#utility.yul\":22507:22512   */\n      dup2\n        /* \"#utility.yul\":22501:22513   */\n      mload\n        /* \"#utility.yul\":22491:22513   */\n      swap1\n      pop\n        /* \"#utility.yul\":22421:22520   */\n      swap2\n      swap1\n      pop\n      jump\t// out\n        /* \"#utility.yul\":22526:22916   */\n    tag_185:\n        /* \"#utility.yul\":22632:22635   */\n      0x00\n        /* \"#utility.yul\":22660:22699   */\n      tag_425\n        /* \"#utility.yul\":22693:22698   */\n      dup3\n        /* \"#utility.yul\":22660:22699   */\n      tag_184\n      jump\t// in\n    tag_425:\n        /* \"#utility.yul\":22715:22804   */\n      tag_426\n        /* \"#utility.yul\":22797:22803   */\n      dup2\n        /* \"#utility.yul\":22792:22795   */\n      dup6\n        /* \"#utility.yul\":22715:22804   */\n      tag_153\n      jump\t// in\n    tag_426:\n        /* \"#utility.yul\":22708:22804   */\n      swap4\n      pop\n        /* \"#utility.yul\":22813:22878   */\n      tag_427\n        /* \"#utility.yul\":22871:22877   */\n      dup2\n        /* \"#utility.yul\":22866:22869   */\n      dup6\n        /* \"#utility.yul\":22859:22863   */\n      0x20\n        /* \"#utility.yul\":22852:22857   */\n      dup7\n        /* \"#utility.yul\":22848:22864   */\n      add\n        /* \"#utility.yul\":22813:22878   */\n      tag_176\n      jump\t// in\n    tag_427:\n        /* \"#utility.yul\":22903:22909   */\n      dup1\n        /* \"#utility.yul\":22898:22901   */\n      dup5\n        /* \"#utility.yul\":22894:22910   */\n      add\n        /* \"#utility.yul\":22887:22910   */\n      swap2\n      pop\n        /* \"#utility.yul\":22636:22916   */\n      pop\n        /* \"#utility.yul\":22526:22916   */\n      swap3\n      swap2\n      pop\n      pop\n      jump\t// out\n        /* \"#utility.yul\":22922:23197   */\n    tag_104:\n        /* \"#utility.yul\":23054:23057   */\n      0x00\n        /* \"#utility.yul\":23076:23171   */\n      tag_429\n        /* \"#utility.yul\":23167:23170   */\n      dup3\n        /* \"#utility.yul\":23158:23164   */\n      dup5\n        /* \"#utility.yul\":23076:23171   */\n      tag_185\n      jump\t// in\n    tag_429:\n        /* \"#utility.yul\":23069:23171   */\n      swap2\n      pop\n        /* \"#utility.yul\":23188:23191   */\n      dup2\n        /* \"#utility.yul\":23181:23191   */\n      swap1\n      pop\n        /* \"#utility.yul\":22922:23197   */\n      swap3\n      swap2\n      pop\n      pop\n      jump\t// out\n        /* \"#utility.yul\":23203:23580   */\n    tag_186:\n        /* \"#utility.yul\":23291:23294   */\n      0x00\n        /* \"#utility.yul\":23319:23358   */\n      tag_431\n        /* \"#utility.yul\":23352:23357   */\n      dup3\n        /* \"#utility.yul\":23319:23358   */\n      tag_184\n      jump\t// in\n    tag_431:\n        /* \"#utility.yul\":23374:23445   */\n      tag_432\n        /* \"#utility.yul\":23438:23444   */\n      dup2\n        /* \"#utility.yul\":23433:23436   */\n      dup6\n        /* \"#utility.yul\":23374:23445   */\n      tag_155\n      jump\t// in\n    tag_432:\n        /* \"#utility.yul\":23367:23445   */\n      swap4\n      pop\n        /* \"#utility.yul\":23454:23519   */\n      tag_433\n        /* \"#utility.yul\":23512:23518   */\n      dup2\n        /* \"#utility.yul\":23507:23510   */\n      dup6\n        /* \"#utility.yul\":23500:23504   */\n      0x20\n        /* \"#utility.yul\":23493:23498   */\n      dup7\n        /* \"#utility.yul\":23489:23505   */\n      add\n        /* \"#utility.yul\":23454:23519   */\n      tag_176\n      jump\t// in\n    tag_433:\n        /* \"#utility.yul\":23544:23573   */\n      tag_434\n        /* \"#utility.yul\":23566:23572   */\n      dup2\n        /* \"#utility.yul\":23544:23573   */\n      tag_145\n      jump\t// in\n    tag_434:\n        /* \"#utility.yul\":23539:23542   */\n      dup5\n        /* \"#utility.yul\":23535:23574   */\n      add\n        /* \"#utility.yul\":23528:23574   */\n      swap2\n      pop\n        /* \"#utility.yul\":23295:23580   */\n      pop\n        /* \"#utility.yul\":23203:23580   */\n      swap3\n      swap2\n      pop\n      pop\n      jump\t// out\n        /* \"#utility.yul\":23586:24009   */\n    tag_109:\n        /* \"#utility.yul\":23727:23731   */\n      0x00\n        /* \"#utility.yul\":23765:23767   */\n      0x40\n        /* \"#utility.yul\":23754:23763   */\n      dup3\n        /* \"#utility.yul\":23750:23768   */\n      add\n        /* \"#utility.yul\":23742:23768   */\n      swap1\n      pop\n        /* \"#utility.yul\":23778:23849   */\n      tag_436\n        /* \"#utility.yul\":23846:23847   */\n      0x00\n        /* \"#utility.yul\":23835:23844   */\n      dup4\n        /* \"#utility.yul\":23831:23848   */\n      add\n        /* \"#utility.yul\":23822:23828   */\n      dup6\n        /* \"#utility.yul\":23778:23849   */\n      tag_135\n      jump\t// in\n    tag_436:\n        /* \"#utility.yul\":23896:23905   */\n      dup2\n        /* \"#utility.yul\":23890:23894   */\n      dup2\n        /* \"#utility.yul\":23886:23906   */\n      sub\n        /* \"#utility.yul\":23881:23883   */\n      0x20\n        /* \"#utility.yul\":23870:23879   */\n      dup4\n        /* \"#utility.yul\":23866:23884   */\n      add\n        /* \"#utility.yul\":23859:23907   */\n      mstore\n        /* \"#utility.yul\":23924:24002   */\n      tag_437\n        /* \"#utility.yul\":23997:24001   */\n      dup2\n        /* \"#utility.yul\":23988:23994   */\n      dup5\n        /* \"#utility.yul\":23924:24002   */\n      tag_186\n      jump\t// in\n    tag_437:\n        /* \"#utility.yul\":23916:24002   */\n      swap1\n      pop\n        /* \"#utility.yul\":23586:24009   */\n      swap4\n      swap3\n      pop\n      pop\n      pop\n      jump\t// out\n        /* \"#utility.yul\":24015:24438   */\n    tag_113:\n        /* \"#utility.yul\":24156:24160   */\n      0x00\n        /* \"#utility.yul\":24194:24196   */\n      0x40\n        /* \"#utility.yul\":24183:24192   */\n      dup3\n        /* \"#utility.yul\":24179:24197   */\n      add\n        /* \"#utility.yul\":24171:24197   */\n      swap1\n      pop\n        /* \"#utility.yul\":24243:24252   */\n      dup2\n        /* \"#utility.yul\":24237:24241   */\n      dup2\n        /* \"#utility.yul\":24233:24253   */\n      sub\n        /* \"#utility.yul\":24229:24230   */\n      0x00\n        /* \"#utility.yul\":24218:24227   */\n      dup4\n        /* \"#utility.yul\":24214:24231   */\n      add\n        /* \"#utility.yul\":24207:24254   */\n      mstore\n        /* \"#utility.yul\":24271:24349   */\n      tag_439\n        /* \"#utility.yul\":24344:24348   */\n      dup2\n        /* \"#utility.yul\":24335:24341   */\n      dup6\n        /* \"#utility.yul\":24271:24349   */\n      tag_186\n      jump\t// in\n    tag_439:\n        /* \"#utility.yul\":24263:24349   */\n      swap1\n      pop\n        /* \"#utility.yul\":24359:24431   */\n      tag_440\n        /* \"#utility.yul\":24427:24429   */\n      0x20\n        /* \"#utility.yul\":24416:24425   */\n      dup4\n        /* \"#utility.yul\":24412:24430   */\n      add\n        /* \"#utility.yul\":24403:24409   */\n      dup5\n        /* \"#utility.yul\":24359:24431   */\n      tag_135\n      jump\t// in\n    tag_440:\n        /* \"#utility.yul\":24015:24438   */\n      swap4\n      swap3\n      pop\n      pop\n      pop\n      jump\t// out\n    stop\n\n    sub_0: assembly {\n            /* \"contracts/Wallet.sol\":69:1050  contract Wallet {... */\n          mstore(0x40, 0x80)\n            /* \"contracts/Wallet.sol\":458:584  constructor(address _controller, string memory _ownerId) {... */\n          callvalue\n          dup1\n          iszero\n          tag_1\n          jumpi\n          0x00\n          dup1\n          revert\n        tag_1:\n          pop\n          mload(0x40)\n          sub(codesize, bytecodeSize)\n          dup1\n          bytecodeSize\n          dup4\n          codecopy\n          dup2\n          dup2\n          add\n          0x40\n          mstore\n          dup2\n          add\n          swap1\n          tag_2\n          swap2\n          swap1\n          tag_3\n          jump\t// in\n        tag_2:\n            /* \"contracts/Wallet.sol\":538:549  _controller */\n          dup2\n            /* \"contracts/Wallet.sol\":525:535  controller */\n          0x00\n          dup1\n            /* \"contracts/Wallet.sol\":525:549  controller = _controller */\n          0x0100\n          exp\n          dup2\n          sload\n          dup2\n          0xffffffffffffffffffffffffffffffffffffffff\n          mul\n          not\n          and\n          swap1\n          dup4\n          0xffffffffffffffffffffffffffffffffffffffff\n          and\n          mul\n          or\n          swap1\n          sstore\n          pop\n            /* \"contracts/Wallet.sol\":569:577  _ownerId */\n          dup1\n            /* \"contracts/Wallet.sol\":559:566  ownerId */\n          0x01\n            /* \"contracts/Wallet.sol\":559:577  ownerId = _ownerId */\n          swap1\n          dup2\n          tag_6\n          swap2\n          swap1\n          tag_7\n          jump\t// in\n        tag_6:\n          pop\n            /* \"contracts/Wallet.sol\":458:584  constructor(address _controller, string memory _ownerId) {... */\n          pop\n          pop\n            /* \"contracts/Wallet.sol\":69:1050  contract Wallet {... */\n          jump(tag_8)\n            /* \"#utility.yul\":7:82   */\n        tag_9:\n            /* \"#utility.yul\":40:46   */\n          0x00\n            /* \"#utility.yul\":73:75   */\n          0x40\n            /* \"#utility.yul\":67:76   */\n          mload\n            /* \"#utility.yul\":57:76   */\n          swap1\n          pop\n            /* \"#utility.yul\":7:82   */\n          swap1\n          jump\t// out\n            /* \"#utility.yul\":88:205   */\n        tag_10:\n            /* \"#utility.yul\":197:198   */\n          0x00\n            /* \"#utility.yul\":194:195   */\n          dup1\n            /* \"#utility.yul\":187:199   */\n          revert\n            /* \"#utility.yul\":211:328   */\n        tag_11:\n            /* \"#utility.yul\":320:321   */\n          0x00\n            /* \"#utility.yul\":317:318   */\n          dup1\n            /* \"#utility.yul\":310:322   */\n          revert\n            /* \"#utility.yul\":334:460   */\n        tag_12:\n            /* \"#utility.yul\":371:378   */\n          0x00\n            /* \"#utility.yul\":411:453   */\n          0xffffffffffffffffffffffffffffffffffffffff\n            /* \"#utility.yul\":404:409   */\n          dup3\n            /* \"#utility.yul\":400:454   */\n          and\n            /* \"#utility.yul\":389:454   */\n          swap1\n          pop\n            /* \"#utility.yul\":334:460   */\n          swap2\n          swap1\n          pop\n          jump\t// out\n            /* \"#utility.yul\":466:562   */\n        tag_13:\n            /* \"#utility.yul\":503:510   */\n          0x00\n            /* \"#utility.yul\":532:556   */\n          tag_51\n            /* \"#utility.yul\":550:555   */\n          dup3\n            /* \"#utility.yul\":532:556   */\n          tag_12\n          jump\t// in\n        tag_51:\n            /* \"#utility.yul\":521:556   */\n          swap1\n          pop\n            /* \"#utility.yul\":466:562   */\n          swap2\n          swap1\n          pop\n          jump\t// out\n            /* \"#utility.yul\":568:690   */\n        tag_14:\n            /* \"#utility.yul\":641:665   */\n          tag_53\n            /* \"#utility.yul\":659:664   */\n          dup2\n            /* \"#utility.yul\":641:665   */\n          tag_13\n          jump\t// in\n        tag_53:\n            /* \"#utility.yul\":634:639   */\n          dup2\n            /* \"#utility.yul\":631:666   */\n          eq\n            /* \"#utility.yul\":621:684   */\n          tag_54\n          jumpi\n            /* \"#utility.yul\":680:681   */\n          0x00\n            /* \"#utility.yul\":677:678   */\n          dup1\n            /* \"#utility.yul\":670:682   */\n          revert\n            /* \"#utility.yul\":621:684   */\n        tag_54:\n            /* \"#utility.yul\":568:690   */\n          pop\n          jump\t// out\n            /* \"#utility.yul\":696:839   */\n        tag_15:\n            /* \"#utility.yul\":753:758   */\n          0x00\n            /* \"#utility.yul\":784:790   */\n          dup2\n            /* \"#utility.yul\":778:791   */\n          mload\n            /* \"#utility.yul\":769:791   */\n          swap1\n          pop\n            /* \"#utility.yul\":800:833   */\n          tag_56\n            /* \"#utility.yul\":827:832   */\n          dup2\n            /* \"#utility.yul\":800:833   */\n          tag_14\n          jump\t// in\n        tag_56:\n            /* \"#utility.yul\":696:839   */\n          swap3\n          swap2\n          pop\n          pop\n          jump\t// out\n            /* \"#utility.yul\":845:962   */\n        tag_16:\n            /* \"#utility.yul\":954:955   */\n          0x00\n            /* \"#utility.yul\":951:952   */\n          dup1\n            /* \"#utility.yul\":944:956   */\n          revert\n            /* \"#utility.yul\":968:1085   */\n        tag_17:\n            /* \"#utility.yul\":1077:1078   */\n          0x00\n            /* \"#utility.yul\":1074:1075   */\n          dup1\n            /* \"#utility.yul\":1067:1079   */\n          revert\n            /* \"#utility.yul\":1091:1193   */\n        tag_18:\n            /* \"#utility.yul\":1132:1138   */\n          0x00\n            /* \"#utility.yul\":1183:1185   */\n          0x1f\n            /* \"#utility.yul\":1179:1186   */\n          not\n            /* \"#utility.yul\":1174:1176   */\n          0x1f\n            /* \"#utility.yul\":1167:1172   */\n          dup4\n            /* \"#utility.yul\":1163:1177   */\n          add\n            /* \"#utility.yul\":1159:1187   */\n          and\n            /* \"#utility.yul\":1149:1187   */\n          swap1\n          pop\n            /* \"#utility.yul\":1091:1193   */\n          swap2\n          swap1\n          pop\n          jump\t// out\n            /* \"#utility.yul\":1199:1379   */\n        tag_19:\n            /* \"#utility.yul\":1247:1324   */\n          0x4e487b7100000000000000000000000000000000000000000000000000000000\n            /* \"#utility.yul\":1244:1245   */\n          0x00\n            /* \"#utility.yul\":1237:1325   */\n          mstore\n            /* \"#utility.yul\":1344:1348   */\n          0x41\n            /* \"#utility.yul\":1341:1342   */\n          0x04\n            /* \"#utility.yul\":1334:1349   */\n          mstore\n            /* \"#utility.yul\":1368:1372   */\n          0x24\n            /* \"#utility.yul\":1365:1366   */\n          0x00\n            /* \"#utility.yul\":1358:1373   */\n          revert\n            /* \"#utility.yul\":1385:1666   */\n        tag_20:\n            /* \"#utility.yul\":1468:1495   */\n          tag_62\n            /* \"#utility.yul\":1490:1494   */\n          dup3\n            /* \"#utility.yul\":1468:1495   */\n          tag_18\n          jump\t// in\n        tag_62:\n            /* \"#utility.yul\":1460:1466   */\n          dup2\n            /* \"#utility.yul\":1456:1496   */\n          add\n            /* \"#utility.yul\":1598:1604   */\n          dup2\n            /* \"#utility.yul\":1586:1596   */\n          dup2\n            /* \"#utility.yul\":1583:1605   */\n          lt\n            /* \"#utility.yul\":1562:1580   */\n          0xffffffffffffffff\n            /* \"#utility.yul\":1550:1560   */\n          dup3\n            /* \"#utility.yul\":1547:1581   */\n          gt\n            /* \"#utility.yul\":1544:1606   */\n          or\n            /* \"#utility.yul\":1541:1629   */\n          iszero\n          tag_63\n          jumpi\n            /* \"#utility.yul\":1609:1627   */\n          tag_64\n          tag_19\n          jump\t// in\n        tag_64:\n            /* \"#utility.yul\":1541:1629   */\n        tag_63:\n            /* \"#utility.yul\":1649:1659   */\n          dup1\n            /* \"#utility.yul\":1645:1647   */\n          0x40\n            /* \"#utility.yul\":1638:1660   */\n          mstore\n            /* \"#utility.yul\":1428:1666   */\n          pop\n            /* \"#utility.yul\":1385:1666   */\n          pop\n          pop\n          jump\t// out\n            /* \"#utility.yul\":1672:1801   */\n        tag_21:\n            /* \"#utility.yul\":1706:1712   */\n          0x00\n            /* \"#utility.yul\":1733:1753   */\n          tag_66\n          tag_9\n          jump\t// in\n        tag_66:\n            /* \"#utility.yul\":1723:1753   */\n          swap1\n          pop\n            /* \"#utility.yul\":1762:1795   */\n          tag_67\n            /* \"#utility.yul\":1790:1794   */\n          dup3\n            /* \"#utility.yul\":1782:1788   */\n          dup3\n            /* \"#utility.yul\":1762:1795   */\n          tag_20\n          jump\t// in\n        tag_67:\n            /* \"#utility.yul\":1672:1801   */\n          swap2\n          swap1\n          pop\n          jump\t// out\n            /* \"#utility.yul\":1807:2115   */\n        tag_22:\n            /* \"#utility.yul\":1869:1873   */\n          0x00\n            /* \"#utility.yul\":1959:1977   */\n          0xffffffffffffffff\n            /* \"#utility.yul\":1951:1957   */\n          dup3\n            /* \"#utility.yul\":1948:1978   */\n          gt\n            /* \"#utility.yul\":1945:2001   */\n          iszero\n          tag_69\n          jumpi\n            /* \"#utility.yul\":1981:1999   */\n          tag_70\n          tag_19\n          jump\t// in\n        tag_70:\n            /* \"#utility.yul\":1945:2001   */\n        tag_69:\n            /* \"#utility.yul\":2019:2048   */\n          tag_71\n            /* \"#utility.yul\":2041:2047   */\n          dup3\n            /* \"#utility.yul\":2019:2048   */\n          tag_18\n          jump\t// in\n        tag_71:\n            /* \"#utility.yul\":2011:2048   */\n          swap1\n          pop\n            /* \"#utility.yul\":2103:2107   */\n          0x20\n            /* \"#utility.yul\":2097:2101   */\n          dup2\n            /* \"#utility.yul\":2093:2108   */\n          add\n            /* \"#utility.yul\":2085:2108   */\n          swap1\n          pop\n            /* \"#utility.yul\":1807:2115   */\n          swap2\n          swap1\n          pop\n          jump\t// out\n            /* \"#utility.yul\":2121:2367   */\n        tag_23:\n            /* \"#utility.yul\":2202:2203   */\n          0x00\n            /* \"#utility.yul\":2212:2325   */\n        tag_73:\n            /* \"#utility.yul\":2226:2232   */\n          dup4\n            /* \"#utility.yul\":2223:2224   */\n          dup2\n            /* \"#utility.yul\":2220:2233   */\n          lt\n            /* \"#utility.yul\":2212:2325   */\n          iszero\n          tag_75\n          jumpi\n            /* \"#utility.yul\":2311:2312   */\n          dup1\n            /* \"#utility.yul\":2306:2309   */\n          dup3\n            /* \"#utility.yul\":2302:2313   */\n          add\n            /* \"#utility.yul\":2296:2314   */\n          mload\n            /* \"#utility.yul\":2292:2293   */\n          dup2\n            /* \"#utility.yul\":2287:2290   */\n          dup5\n            /* \"#utility.yul\":2283:2294   */\n          add\n            /* \"#utility.yul\":2276:2315   */\n          mstore\n            /* \"#utility.yul\":2248:2250   */\n          0x20\n            /* \"#utility.yul\":2245:2246   */\n          dup2\n            /* \"#utility.yul\":2241:2251   */\n          add\n            /* \"#utility.yul\":2236:2251   */\n          swap1\n          pop\n            /* \"#utility.yul\":2212:2325   */\n          jump(tag_73)\n        tag_75:\n            /* \"#utility.yul\":2359:2360   */\n          0x00\n            /* \"#utility.yul\":2350:2356   */\n          dup5\n            /* \"#utility.yul\":2345:2348   */\n          dup5\n            /* \"#utility.yul\":2341:2357   */\n          add\n            /* \"#utility.yul\":2334:2361   */\n          mstore\n            /* \"#utility.yul\":2183:2367   */\n          pop\n            /* \"#utility.yul\":2121:2367   */\n          pop\n          pop\n          pop\n          jump\t// out\n            /* \"#utility.yul\":2373:2807   */\n        tag_24:\n            /* \"#utility.yul\":2462:2467   */\n          0x00\n            /* \"#utility.yul\":2487:2553   */\n          tag_77\n            /* \"#utility.yul\":2503:2552   */\n          tag_78\n            /* \"#utility.yul\":2545:2551   */\n          dup5\n            /* \"#utility.yul\":2503:2552   */\n          tag_22\n          jump\t// in\n        tag_78:\n            /* \"#utility.yul\":2487:2553   */\n          tag_21\n          jump\t// in\n        tag_77:\n            /* \"#utility.yul\":2478:2553   */\n          swap1\n          pop\n            /* \"#utility.yul\":2576:2582   */\n          dup3\n            /* \"#utility.yul\":2569:2574   */\n          dup2\n            /* \"#utility.yul\":2562:2583   */\n          mstore\n            /* \"#utility.yul\":2614:2618   */\n          0x20\n            /* \"#utility.yul\":2607:2612   */\n          dup2\n            /* \"#utility.yul\":2603:2619   */\n          add\n            /* \"#utility.yul\":2652:2655   */\n          dup5\n            /* \"#utility.yul\":2643:2649   */\n          dup5\n            /* \"#utility.yul\":2638:2641   */\n          dup5\n            /* \"#utility.yul\":2634:2650   */\n          add\n            /* \"#utility.yul\":2631:2656   */\n          gt\n            /* \"#utility.yul\":2628:2740   */\n          iszero\n          tag_79\n          jumpi\n            /* \"#utility.yul\":2659:2738   */\n          tag_80\n          tag_17\n          jump\t// in\n        tag_80:\n            /* \"#utility.yul\":2628:2740   */\n        tag_79:\n            /* \"#utility.yul\":2749:2801   */\n          tag_81\n            /* \"#utility.yul\":2794:2800   */\n          dup5\n            /* \"#utility.yul\":2789:2792   */\n          dup3\n            /* \"#utility.yul\":2784:2787   */\n          dup6\n            /* \"#utility.yul\":2749:2801   */\n          tag_23\n          jump\t// in\n        tag_81:\n            /* \"#utility.yul\":2468:2807   */\n          pop\n            /* \"#utility.yul\":2373:2807   */\n          swap4\n          swap3\n          pop\n          pop\n          pop\n          jump\t// out\n            /* \"#utility.yul\":2827:3182   */\n        tag_25:\n            /* \"#utility.yul\":2894:2899   */\n          0x00\n            /* \"#utility.yul\":2943:2946   */\n          dup3\n            /* \"#utility.yul\":2936:2940   */\n          0x1f\n            /* \"#utility.yul\":2928:2934   */\n          dup4\n            /* \"#utility.yul\":2924:2941   */\n          add\n            /* \"#utility.yul\":2920:2947   */\n          slt\n            /* \"#utility.yul\":2910:3032   */\n          tag_83\n          jumpi\n            /* \"#utility.yul\":2951:3030   */\n          tag_84\n          tag_16\n          jump\t// in\n        tag_84:\n            /* \"#utility.yul\":2910:3032   */\n        tag_83:\n            /* \"#utility.yul\":3061:3067   */\n          dup2\n            /* \"#utility.yul\":3055:3068   */\n          mload\n            /* \"#utility.yul\":3086:3176   */\n          tag_85\n            /* \"#utility.yul\":3172:3175   */\n          dup5\n            /* \"#utility.yul\":3164:3170   */\n          dup3\n            /* \"#utility.yul\":3157:3161   */\n          0x20\n            /* \"#utility.yul\":3149:3155   */\n          dup7\n            /* \"#utility.yul\":3145:3162   */\n          add\n            /* \"#utility.yul\":3086:3176   */\n          tag_24\n          jump\t// in\n        tag_85:\n            /* \"#utility.yul\":3077:3176   */\n          swap2\n          pop\n            /* \"#utility.yul\":2900:3182   */\n          pop\n            /* \"#utility.yul\":2827:3182   */\n          swap3\n          swap2\n          pop\n          pop\n          jump\t// out\n            /* \"#utility.yul\":3188:3868   */\n        tag_3:\n            /* \"#utility.yul\":3277:3283   */\n          0x00\n            /* \"#utility.yul\":3285:3291   */\n          dup1\n            /* \"#utility.yul\":3334:3336   */\n          0x40\n            /* \"#utility.yul\":3322:3331   */\n          dup4\n            /* \"#utility.yul\":3313:3320   */\n          dup6\n            /* \"#utility.yul\":3309:3332   */\n          sub\n            /* \"#utility.yul\":3305:3337   */\n          slt\n            /* \"#utility.yul\":3302:3421   */\n          iszero\n          tag_87\n          jumpi\n            /* \"#utility.yul\":3340:3419   */\n          tag_88\n          tag_10\n          jump\t// in\n        tag_88:\n            /* \"#utility.yul\":3302:3421   */\n        tag_87:\n            /* \"#utility.yul\":3460:3461   */\n          0x00\n            /* \"#utility.yul\":3485:3549   */\n          tag_89\n            /* \"#utility.yul\":3541:3548   */\n          dup6\n            /* \"#utility.yul\":3532:3538   */\n          dup3\n            /* \"#utility.yul\":3521:3530   */\n          dup7\n            /* \"#utility.yul\":3517:3539   */\n          add\n            /* \"#utility.yul\":3485:3549   */\n          tag_15\n          jump\t// in\n        tag_89:\n            /* \"#utility.yul\":3475:3549   */\n          swap3\n          pop\n            /* \"#utility.yul\":3431:3559   */\n          pop\n            /* \"#utility.yul\":3619:3621   */\n          0x20\n            /* \"#utility.yul\":3608:3617   */\n          dup4\n            /* \"#utility.yul\":3604:3622   */\n          add\n            /* \"#utility.yul\":3598:3623   */\n          mload\n            /* \"#utility.yul\":3650:3668   */\n          0xffffffffffffffff\n            /* \"#utility.yul\":3642:3648   */\n          dup2\n            /* \"#utility.yul\":3639:3669   */\n          gt\n            /* \"#utility.yul\":3636:3753   */\n          iszero\n          tag_90\n          jumpi\n            /* \"#utility.yul\":3672:3751   */\n          tag_91\n          tag_11\n          jump\t// in\n        tag_91:\n            /* \"#utility.yul\":3636:3753   */\n        tag_90:\n            /* \"#utility.yul\":3777:3851   */\n          tag_92\n            /* \"#utility.yul\":3843:3850   */\n          dup6\n            /* \"#utility.yul\":3834:3840   */\n          dup3\n            /* \"#utility.yul\":3823:3832   */\n          dup7\n            /* \"#utility.yul\":3819:3841   */\n          add\n            /* \"#utility.yul\":3777:3851   */\n          tag_25\n          jump\t// in\n        tag_92:\n            /* \"#utility.yul\":3767:3851   */\n          swap2\n          pop\n            /* \"#utility.yul\":3569:3861   */\n          pop\n            /* \"#utility.yul\":3188:3868   */\n          swap3\n          pop\n          swap3\n          swap1\n          pop\n          jump\t// out\n            /* \"#utility.yul\":3874:3973   */\n        tag_26:\n            /* \"#utility.yul\":3926:3932   */\n          0x00\n            /* \"#utility.yul\":3960:3965   */\n          dup2\n            /* \"#utility.yul\":3954:3966   */\n          mload\n            /* \"#utility.yul\":3944:3966   */\n          swap1\n          pop\n            /* \"#utility.yul\":3874:3973   */\n          swap2\n          swap1\n          pop\n          jump\t// out\n            /* \"#utility.yul\":3979:4159   */\n        tag_27:\n            /* \"#utility.yul\":4027:4104   */\n          0x4e487b7100000000000000000000000000000000000000000000000000000000\n            /* \"#utility.yul\":4024:4025   */\n          0x00\n            /* \"#utility.yul\":4017:4105   */\n          mstore\n            /* \"#utility.yul\":4124:4128   */\n          0x22\n            /* \"#utility.yul\":4121:4122   */\n          0x04\n            /* \"#utility.yul\":4114:4129   */\n          mstore\n            /* \"#utility.yul\":4148:4152   */\n          0x24\n            /* \"#utility.yul\":4145:4146   */\n          0x00\n            /* \"#utility.yul\":4138:4153   */\n          revert\n            /* \"#utility.yul\":4165:4485   */\n        tag_28:\n            /* \"#utility.yul\":4209:4215   */\n          0x00\n            /* \"#utility.yul\":4246:4247   */\n          0x02\n            /* \"#utility.yul\":4240:4244   */\n          dup3\n            /* \"#utility.yul\":4236:4248   */\n          div\n            /* \"#utility.yul\":4226:4248   */\n          swap1\n          pop\n            /* \"#utility.yul\":4293:4294   */\n          0x01\n            /* \"#utility.yul\":4287:4291   */\n          dup3\n            /* \"#utility.yul\":4283:4295   */\n          and\n            /* \"#utility.yul\":4314:4332   */\n          dup1\n            /* \"#utility.yul\":4304:4385   */\n          tag_96\n          jumpi\n            /* \"#utility.yul\":4370:4374   */\n          0x7f\n            /* \"#utility.yul\":4362:4368   */\n          dup3\n            /* \"#utility.yul\":4358:4375   */\n          and\n            /* \"#utility.yul\":4348:4375   */\n          swap2\n          pop\n            /* \"#utility.yul\":4304:4385   */\n        tag_96:\n            /* \"#utility.yul\":4432:4434   */\n          0x20\n            /* \"#utility.yul\":4424:4430   */\n          dup3\n            /* \"#utility.yul\":4421:4435   */\n          lt\n            /* \"#utility.yul\":4401:4419   */\n          dup2\n            /* \"#utility.yul\":4398:4436   */\n          sub\n            /* \"#utility.yul\":4395:4479   */\n          tag_97\n          jumpi\n            /* \"#utility.yul\":4451:4469   */\n          tag_98\n          tag_27\n          jump\t// in\n        tag_98:\n            /* \"#utility.yul\":4395:4479   */\n        tag_97:\n            /* \"#utility.yul\":4216:4485   */\n          pop\n            /* \"#utility.yul\":4165:4485   */\n          swap2\n          swap1\n          pop\n          jump\t// out\n            /* \"#utility.yul\":4491:4632   */\n        tag_29:\n            /* \"#utility.yul\":4540:4544   */\n          0x00\n            /* \"#utility.yul\":4563:4566   */\n          dup2\n            /* \"#utility.yul\":4555:4566   */\n          swap1\n          pop\n            /* \"#utility.yul\":4586:4589   */\n          dup2\n            /* \"#utility.yul\":4583:4584   */\n          0x00\n            /* \"#utility.yul\":4576:4590   */\n          mstore\n            /* \"#utility.yul\":4620:4624   */\n          0x20\n            /* \"#utility.yul\":4617:4618   */\n          0x00\n            /* \"#utility.yul\":4607:4625   */\n          keccak256\n            /* \"#utility.yul\":4599:4625   */\n          swap1\n          pop\n            /* \"#utility.yul\":4491:4632   */\n          swap2\n          swap1\n          pop\n          jump\t// out\n            /* \"#utility.yul\":4638:4731   */\n        tag_30:\n            /* \"#utility.yul\":4675:4681   */\n          0x00\n            /* \"#utility.yul\":4722:4724   */\n          0x20\n            /* \"#utility.yul\":4717:4719   */\n          0x1f\n            /* \"#utility.yul\":4710:4715   */\n          dup4\n            /* \"#utility.yul\":4706:4720   */\n          add\n            /* \"#utility.yul\":4702:4725   */\n          div\n            /* \"#utility.yul\":4692:4725   */\n          swap1\n          pop\n            /* \"#utility.yul\":4638:4731   */\n          swap2\n          swap1\n          pop\n          jump\t// out\n            /* \"#utility.yul\":4737:4844   */\n        tag_31:\n            /* \"#utility.yul\":4781:4789   */\n          0x00\n            /* \"#utility.yul\":4831:4836   */\n          dup3\n            /* \"#utility.yul\":4825:4829   */\n          dup3\n            /* \"#utility.yul\":4821:4837   */\n          shl\n            /* \"#utility.yul\":4800:4837   */\n          swap1\n          pop\n            /* \"#utility.yul\":4737:4844   */\n          swap3\n          swap2\n          pop\n          pop\n          jump\t// out\n            /* \"#utility.yul\":4850:5243   */\n        tag_32:\n            /* \"#utility.yul\":4919:4925   */\n          0x00\n            /* \"#utility.yul\":4969:4970   */\n          0x08\n            /* \"#utility.yul\":4957:4967   */\n          dup4\n            /* \"#utility.yul\":4953:4971   */\n          mul\n            /* \"#utility.yul\":4992:5089   */\n          tag_103\n            /* \"#utility.yul\":5022:5088   */\n          0xffffffffffffffffffffffffffffffffffffffffffffffffffffffffffffffff\n            /* \"#utility.yul\":5011:5020   */\n          dup3\n            /* \"#utility.yul\":4992:5089   */\n          tag_31\n          jump\t// in\n        tag_103:\n            /* \"#utility.yul\":5110:5149   */\n          tag_104\n            /* \"#utility.yul\":5140:5148   */\n          dup7\n            /* \"#utility.yul\":5129:5138   */\n          dup4\n            /* \"#utility.yul\":5110:5149   */\n          tag_31\n          jump\t// in\n        tag_104:\n            /* \"#utility.yul\":5098:5149   */\n          swap6\n          pop\n            /* \"#utility.yul\":5182:5186   */\n          dup1\n            /* \"#utility.yul\":5178:5187   */\n          not\n            /* \"#utility.yul\":5171:5176   */\n          dup5\n            /* \"#utility.yul\":5167:5188   */\n          and\n            /* \"#utility.yul\":5158:5188   */\n          swap4\n          pop\n            /* \"#utility.yul\":5231:5235   */\n          dup1\n            /* \"#utility.yul\":5221:5229   */\n          dup7\n            /* \"#utility.yul\":5217:5236   */\n          and\n            /* \"#utility.yul\":5210:5215   */\n          dup5\n            /* \"#utility.yul\":5207:5237   */\n          or\n            /* \"#utility.yul\":5197:5237   */\n          swap3\n          pop\n            /* \"#utility.yul\":4926:5243   */\n          pop\n          pop\n            /* \"#utility.yul\":4850:5243   */\n          swap4\n          swap3\n          pop\n          pop\n          pop\n          jump\t// out\n            /* \"#utility.yul\":5249:5326   */\n        tag_33:\n            /* \"#utility.yul\":5286:5293   */\n          0x00\n            /* \"#utility.yul\":5315:5320   */\n          dup2\n            /* \"#utility.yul\":5304:5320   */\n          swap1\n          pop\n            /* \"#utility.yul\":5249:5326   */\n          swap2\n          swap1\n          pop\n          jump\t// out\n            /* \"#utility.yul\":5332:5392   */\n        tag_34:\n            /* \"#utility.yul\":5360:5363   */\n          0x00\n            /* \"#utility.yul\":5381:5386   */\n          dup2\n            /* \"#utility.yul\":5374:5386   */\n          swap1\n          pop\n            /* \"#utility.yul\":5332:5392   */\n          swap2\n          swap1\n          pop\n          jump\t// out\n            /* \"#utility.yul\":5398:5540   */\n        tag_35:\n            /* \"#utility.yul\":5448:5457   */\n          0x00\n            /* \"#utility.yul\":5481:5534   */\n          tag_108\n            /* \"#utility.yul\":5499:5533   */\n          tag_109\n            /* \"#utility.yul\":5508:5532   */\n          tag_110\n            /* \"#utility.yul\":5526:5531   */\n          dup5\n            /* \"#utility.yul\":5508:5532   */\n          tag_33\n          jump\t// in\n        tag_110:\n            /* \"#utility.yul\":5499:5533   */\n          tag_34\n          jump\t// in\n        tag_109:\n            /* \"#utility.yul\":5481:5534   */\n          tag_33\n          jump\t// in\n        tag_108:\n            /* \"#utility.yul\":5468:5534   */\n          swap1\n          pop\n            /* \"#utility.yul\":5398:5540   */\n          swap2\n          swap1\n          pop\n          jump\t// out\n            /* \"#utility.yul\":5546:5621   */\n        tag_36:\n            /* \"#utility.yul\":5589:5592   */\n          0x00\n            /* \"#utility.yul\":5610:5615   */\n          dup2\n            /* \"#utility.yul\":5603:5615   */\n          swap1\n          pop\n            /* \"#utility.yul\":5546:5621   */\n          swap2\n          swap1\n          pop\n          jump\t// out\n            /* \"#utility.yul\":5627:5896   */\n        tag_37:\n            /* \"#utility.yul\":5737:5776   */\n          tag_113\n            /* \"#utility.yul\":5768:5775   */\n          dup4\n            /* \"#utility.yul\":5737:5776   */\n          tag_35\n          jump\t// in\n        tag_113:\n            /* \"#utility.yul\":5798:5889   */\n          tag_114\n            /* \"#utility.yul\":5847:5888   */\n          tag_115\n            /* \"#utility.yul\":5871:5887   */\n          dup3\n            /* \"#utility.yul\":5847:5888   */\n          tag_36\n          jump\t// in\n        tag_115:\n            /* \"#utility.yul\":5839:5845   */\n          dup5\n            /* \"#utility.yul\":5832:5836   */\n          dup5\n            /* \"#utility.yul\":5826:5837   */\n          sload\n            /* \"#utility.yul\":5798:5889   */\n          tag_32\n          jump\t// in\n        tag_114:\n            /* \"#utility.yul\":5792:5796   */\n          dup3\n            /* \"#utility.yul\":5785:5890   */\n          sstore\n            /* \"#utility.yul\":5703:5896   */\n          pop\n            /* \"#utility.yul\":5627:5896   */\n          pop\n          pop\n          pop\n          jump\t// out\n            /* \"#utility.yul\":5902:5975   */\n        tag_38:\n            /* \"#utility.yul\":5947:5950   */\n          0x00\n            /* \"#utility.yul\":5902:5975   */\n          swap1\n          jump\t// out\n            /* \"#utility.yul\":5981:6170   */\n        tag_39:\n            /* \"#utility.yul\":6058:6090   */\n          tag_118\n          tag_38\n          jump\t// in\n        tag_118:\n            /* \"#utility.yul\":6099:6164   */\n          tag_119\n            /* \"#utility.yul\":6157:6163   */\n          dup2\n            /* \"#utility.yul\":6149:6155   */\n          dup5\n            /* \"#utility.yul\":6143:6147   */\n          dup5\n            /* \"#utility.yul\":6099:6164   */\n          tag_37\n          jump\t// in\n        tag_119:\n            /* \"#utility.yul\":6034:6170   */\n          pop\n            /* \"#utility.yul\":5981:6170   */\n          pop\n          pop\n          jump\t// out\n            /* \"#utility.yul\":6176:6362   */\n        tag_40:\n            /* \"#utility.yul\":6236:6356   */\n        tag_121:\n            /* \"#utility.yul\":6253:6256   */\n          dup2\n            /* \"#utility.yul\":6246:6251   */\n          dup2\n            /* \"#utility.yul\":6243:6257   */\n          lt\n            /* \"#utility.yul\":6236:6356   */\n          iszero\n          tag_123\n          jumpi\n            /* \"#utility.yul\":6307:6346   */\n          tag_124\n            /* \"#utility.yul\":6344:6345   */\n          0x00\n            /* \"#utility.yul\":6337:6342   */\n          dup3\n            /* \"#utility.yul\":6307:6346   */\n          tag_39\n          jump\t// in\n        tag_124:\n            /* \"#utility.yul\":6280:6281   */\n          0x01\n            /* \"#utility.yul\":6273:6278   */\n          dup2\n            /* \"#utility.yul\":6269:6282   */\n          add\n            /* \"#utility.yul\":6260:6282   */\n          swap1\n          pop\n            /* \"#utility.yul\":6236:6356   */\n          jump(tag_121)\n        tag_123:\n            /* \"#utility.yul\":6176:6362   */\n          pop\n          pop\n          jump\t// out\n            /* \"#utility.yul\":6368:6911   */\n        tag_41:\n            /* \"#utility.yul\":6469:6471   */\n          0x1f\n            /* \"#utility.yul\":6464:6467   */\n          dup3\n            /* \"#utility.yul\":6461:6472   */\n          gt\n            /* \"#utility.yul\":6458:6904   */\n          iszero\n          tag_126\n          jumpi\n            /* \"#utility.yul\":6503:6541   */\n          tag_127\n            /* \"#utility.yul\":6535:6540   */\n          dup2\n            /* \"#utility.yul\":6503:6541   */\n          tag_29\n          jump\t// in\n        tag_127:\n            /* \"#utility.yul\":6587:6616   */\n          tag_128\n            /* \"#utility.yul\":6605:6615   */\n          dup5\n            /* \"#utility.yul\":6587:6616   */\n          tag_30\n          jump\t// in\n        tag_128:\n            /* \"#utility.yul\":6577:6585   */\n          dup2\n            /* \"#utility.yul\":6573:6617   */\n          add\n            /* \"#utility.yul\":6770:6772   */\n          0x20\n            /* \"#utility.yul\":6758:6768   */\n          dup6\n            /* \"#utility.yul\":6755:6773   */\n          lt\n            /* \"#utility.yul\":6752:6801   */\n          iszero\n          tag_129\n          jumpi\n            /* \"#utility.yul\":6791:6799   */\n          dup2\n            /* \"#utility.yul\":6776:6799   */\n          swap1\n          pop\n            /* \"#utility.yul\":6752:6801   */\n        tag_129:\n            /* \"#utility.yul\":6814:6894   */\n          tag_130\n            /* \"#utility.yul\":6870:6892   */\n          tag_131\n            /* \"#utility.yul\":6888:6891   */\n          dup6\n            /* \"#utility.yul\":6870:6892   */\n          tag_30\n          jump\t// in\n        tag_131:\n            /* \"#utility.yul\":6860:6868   */\n          dup4\n            /* \"#utility.yul\":6856:6893   */\n          add\n            /* \"#utility.yul\":6843:6854   */\n          dup3\n            /* \"#utility.yul\":6814:6894   */\n          tag_40\n          jump\t// in\n        tag_130:\n            /* \"#utility.yul\":6473:6904   */\n          pop\n          pop\n            /* \"#utility.yul\":6458:6904   */\n        tag_126:\n            /* \"#utility.yul\":6368:6911   */\n          pop\n          pop\n          pop\n          jump\t// out\n            /* \"#utility.yul\":6917:7034   */\n        tag_42:\n            /* \"#utility.yul\":6971:6979   */\n          0x00\n            /* \"#utility.yul\":7021:7026   */\n          dup3\n            /* \"#utility.yul\":7015:7019   */\n          dup3\n            /* \"#utility.yul\":7011:7027   */\n          shr\n            /* \"#utility.yul\":6990:7027   */\n          swap1\n          pop\n            /* \"#utility.yul\":6917:7034   */\n          swap3\n          swap2\n          pop\n          pop\n          jump\t// out\n            /* \"#utility.yul\":7040:7209   */\n        tag_43:\n            /* \"#utility.yul\":7084:7090   */\n          0x00\n            /* \"#utility.yul\":7117:7168   */\n          tag_134\n            /* \"#utility.yul\":7165:7166   */\n          0x00\n            /* \"#utility.yul\":7161:7167   */\n          not\n            /* \"#utility.yul\":7153:7158   */\n          dup5\n            /* \"#utility.yul\":7150:7151   */\n          0x08\n            /* \"#utility.yul\":7146:7159   */\n          mul\n            /* \"#utility.yul\":7117:7168   */\n          tag_42\n          jump\t// in\n        tag_134:\n            /* \"#utility.yul\":7113:7169   */\n          not\n            /* \"#utility.yul\":7198:7202   */\n          dup1\n            /* \"#utility.yul\":7192:7196   */\n          dup4\n            /* \"#utility.yul\":7188:7203   */\n          and\n            /* \"#utility.yul\":7178:7203   */\n          swap2\n          pop\n            /* \"#utility.yul\":7091:7209   */\n          pop\n            /* \"#utility.yul\":7040:7209   */\n          swap3\n          swap2\n          pop\n          pop\n          jump\t// out\n            /* \"#utility.yul\":7214:7509   */\n        tag_44:\n            /* \"#utility.yul\":7290:7294   */\n          0x00\n            /* \"#utility.yul\":7436:7465   */\n          tag_136\n            /* \"#utility.yul\":7461:7464   */\n          dup4\n            /* \"#utility.yul\":7455:7459   */\n          dup4\n            /* \"#utility.yul\":7436:7465   */\n          tag_43\n          jump\t// in\n        tag_136:\n            /* \"#utility.yul\":7428:7465   */\n          swap2\n          pop\n            /* \"#utility.yul\":7498:7501   */\n          dup3\n            /* \"#utility.yul\":7495:7496   */\n          0x02\n            /* \"#utility.yul\":7491:7502   */\n          mul\n            /* \"#utility.yul\":7485:7489   */\n          dup3\n            /* \"#utility.yul\":7482:7503   */\n          or\n            /* \"#utility.yul\":7474:7503   */\n          swap1\n          pop\n            /* \"#utility.yul\":7214:7509   */\n          swap3\n          swap2\n          pop\n          pop\n          jump\t// out\n            /* \"#utility.yul\":7514:8909   */\n        tag_7:\n            /* \"#utility.yul\":7631:7668   */\n          tag_138\n            /* \"#utility.yul\":7664:7667   */\n          dup3\n            /* \"#utility.yul\":7631:7668   */\n          tag_26\n          jump\t// in\n        tag_138:\n            /* \"#utility.yul\":7733:7751   */\n          0xffffffffffffffff\n            /* \"#utility.yul\":7725:7731   */\n          dup2\n            /* \"#utility.yul\":7722:7752   */\n          gt\n            /* \"#utility.yul\":7719:7775   */\n          iszero\n          tag_139\n          jumpi\n            /* \"#utility.yul\":7755:7773   */\n          tag_140\n          tag_19\n          jump\t// in\n        tag_140:\n            /* \"#utility.yul\":7719:7775   */\n        tag_139:\n            /* \"#utility.yul\":7799:7837   */\n          tag_141\n            /* \"#utility.yul\":7831:7835   */\n          dup3\n            /* \"#utility.yul\":7825:7836   */\n          sload\n            /* \"#utility.yul\":7799:7837   */\n          tag_28\n          jump\t// in\n        tag_141:\n            /* \"#utility.yul\":7884:7951   */\n          tag_142\n            /* \"#utility.yul\":7944:7950   */\n          dup3\n            /* \"#utility.yul\":7936:7942   */\n          dup3\n            /* \"#utility.yul\":7930:7934   */\n          dup6\n            /* \"#utility.yul\":7884:7951   */\n          tag_41\n          jump\t// in\n        tag_142:\n            /* \"#utility.yul\":7978:7979   */\n          0x00\n            /* \"#utility.yul\":8002:8006   */\n          0x20\n            /* \"#utility.yul\":7989:8006   */\n          swap1\n          pop\n            /* \"#utility.yul\":8034:8036   */\n          0x1f\n            /* \"#utility.yul\":8026:8032   */\n          dup4\n            /* \"#utility.yul\":8023:8037   */\n          gt\n            /* \"#utility.yul\":8051:8052   */\n          0x01\n            /* \"#utility.yul\":8046:8664   */\n          dup2\n          eq\n          tag_144\n          jumpi\n            /* \"#utility.yul\":8708:8709   */\n          0x00\n            /* \"#utility.yul\":8725:8731   */\n          dup5\n            /* \"#utility.yul\":8722:8799   */\n          iszero\n          tag_145\n          jumpi\n            /* \"#utility.yul\":8774:8783   */\n          dup3\n            /* \"#utility.yul\":8769:8772   */\n          dup8\n            /* \"#utility.yul\":8765:8784   */\n          add\n            /* \"#utility.yul\":8759:8785   */\n          mload\n            /* \"#utility.yul\":8750:8785   */\n          swap1\n          pop\n            /* \"#utility.yul\":8722:8799   */\n        tag_145:\n            /* \"#utility.yul\":8825:8892   */\n          tag_146\n            /* \"#utility.yul\":8885:8891   */\n          dup6\n            /* \"#utility.yul\":8878:8883   */\n          dup3\n            /* \"#utility.yul\":8825:8892   */\n          tag_44\n          jump\t// in\n        tag_146:\n            /* \"#utility.yul\":8819:8823   */\n          dup7\n            /* \"#utility.yul\":8812:8893   */\n          sstore\n            /* \"#utility.yul\":8681:8903   */\n          pop\n            /* \"#utility.yul\":8016:8903   */\n          jump(tag_143)\n            /* \"#utility.yul\":8046:8664   */\n        tag_144:\n            /* \"#utility.yul\":8098:8102   */\n          0x1f\n            /* \"#utility.yul\":8094:8103   */\n          not\n            /* \"#utility.yul\":8086:8092   */\n          dup5\n            /* \"#utility.yul\":8082:8104   */\n          and\n            /* \"#utility.yul\":8132:8169   */\n          tag_147\n            /* \"#utility.yul\":8164:8168   */\n          dup7\n            /* \"#utility.yul\":8132:8169   */\n          tag_29\n          jump\t// in\n        tag_147:\n            /* \"#utility.yul\":8191:8192   */\n          0x00\n            /* \"#utility.yul\":8205:8413   */\n        tag_148:\n            /* \"#utility.yul\":8219:8226   */\n          dup3\n            /* \"#utility.yul\":8216:8217   */\n          dup2\n            /* \"#utility.yul\":8213:8227   */\n          lt\n            /* \"#utility.yul\":8205:8413   */\n          iszero\n          tag_150\n          jumpi\n            /* \"#utility.yul\":8298:8307   */\n          dup5\n            /* \"#utility.yul\":8293:8296   */\n          dup10\n            /* \"#utility.yul\":8289:8308   */\n          add\n            /* \"#utility.yul\":8283:8309   */\n          mload\n            /* \"#utility.yul\":8275:8281   */\n          dup3\n            /* \"#utility.yul\":8268:8310   */\n          sstore\n            /* \"#utility.yul\":8349:8350   */\n          0x01\n            /* \"#utility.yul\":8341:8347   */\n          dup3\n            /* \"#utility.yul\":8337:8351   */\n          add\n            /* \"#utility.yul\":8327:8351   */\n          swap2\n          pop\n            /* \"#utility.yul\":8396:8398   */\n          0x20\n            /* \"#utility.yul\":8385:8394   */\n          dup6\n            /* \"#utility.yul\":8381:8399   */\n          add\n            /* \"#utility.yul\":8368:8399   */\n          swap5\n          pop\n            /* \"#utility.yul\":8242:8246   */\n          0x20\n            /* \"#utility.yul\":8239:8240   */\n          dup2\n            /* \"#utility.yul\":8235:8247   */\n          add\n            /* \"#utility.yul\":8230:8247   */\n          swap1\n          pop\n            /* \"#utility.yul\":8205:8413   */\n          jump(tag_148)\n        tag_150:\n            /* \"#utility.yul\":8441:8447   */\n          dup7\n            /* \"#utility.yul\":8432:8439   */\n          dup4\n            /* \"#utility.yul\":8429:8448   */\n          lt\n            /* \"#utility.yul\":8426:8605   */\n          iszero\n          tag_151\n          jumpi\n            /* \"#utility.yul\":8499:8508   */\n          dup5\n            /* \"#utility.yul\":8494:8497   */\n          dup10\n            /* \"#utility.yul\":8490:8509   */\n          add\n            /* \"#utility.yul\":8484:8510   */\n          mload\n            /* \"#utility.yul\":8542:8590   */\n          tag_152\n            /* \"#utility.yul\":8584:8588   */\n          0x1f\n            /* \"#utility.yul\":8576:8582   */\n          dup10\n            /* \"#utility.yul\":8572:8589   */\n          and\n            /* \"#utility.yul\":8561:8570   */\n          dup3\n            /* \"#utility.yul\":8542:8590   */\n          tag_43\n          jump\t// in\n        tag_152:\n            /* \"#utility.yul\":8534:8540   */\n          dup4\n            /* \"#utility.yul\":8527:8591   */\n          sstore\n            /* \"#utility.yul\":8449:8605   */\n          pop\n            /* \"#utility.yul\":8426:8605   */\n        tag_151:\n            /* \"#utility.yul\":8651:8652   */\n          0x01\n            /* \"#utility.yul\":8647:8648   */\n          0x02\n            /* \"#utility.yul\":8639:8645   */\n          dup9\n            /* \"#utility.yul\":8635:8649   */\n          mul\n            /* \"#utility.yul\":8631:8653   */\n          add\n            /* \"#utility.yul\":8625:8629   */\n          dup9\n            /* \"#utility.yul\":8618:8654   */\n          sstore\n            /* \"#utility.yul\":8053:8664   */\n          pop\n          pop\n          pop\n            /* \"#utility.yul\":8016:8903   */\n        tag_143:\n          pop\n            /* \"#utility.yul\":7606:8909   */\n          pop\n          pop\n          pop\n            /* \"#utility.yul\":7514:8909   */\n          pop\n          pop\n          jump\t// out\n            /* \"contracts/Wallet.sol\":69:1050  contract Wallet {... */\n        tag_8:\n          dataSize(sub_0)\n          dup1\n          dataOffset(sub_0)\n          0x00\n          codecopy\n          0x00\n          return\n        stop\n\n        sub_0: assembly {\n                /* \"contracts/Wallet.sol\":69:1050  contract Wallet {... */\n              mstore(0x40, 0x80)\n              jumpi(tag_1, lt(calldatasize, 0x04))\n              shr(0xe0, calldataload(0x00))\n              dup1\n              0x019c08f5\n              eq\n              tag_2\n              jumpi\n              dup1\n              0xb69ef8a8\n              eq\n              tag_3\n              jumpi\n              dup1\n              0xc71daccb\n              eq\n              tag_4\n              jumpi\n              dup1\n              0xd0e30db0\n              eq\n              tag_5\n              jumpi\n              dup1\n              0xf3fef3a3\n              eq\n              tag_6\n              jumpi\n              dup1\n              0xf77c4791\n              eq\n              tag_7\n              jumpi\n            tag_1:\n              0x00\n              dup1\n              revert\n                /* \"contracts/Wallet.sol\":245:266  string public ownerId */\n            tag_2:\n              callvalue\n              dup1\n              iszero\n              tag_8\n              jumpi\n              0x00\n              dup1\n              revert\n            tag_8:\n              pop\n              tag_9\n              tag_10\n              jump\t// in\n            tag_9:\n              mload(0x40)\n              tag_11\n              swap2\n              swap1\n              tag_12\n              jump\t// in\n            tag_11:\n              mload(0x40)\n              dup1\n              swap2\n              sub\n              swap1\n              return\n                /* \"contracts/Wallet.sol\":272:294  uint256 public balance */\n            tag_3:\n              callvalue\n              dup1\n              iszero\n              tag_13\n              jumpi\n              0x00\n              dup1\n              revert\n            tag_13:\n              pop\n              tag_14\n              tag_15\n              jump\t// in\n            tag_14:\n              mload(0x40)\n              tag_16\n              swap2\n              swap1\n              tag_17\n              jump\t// in\n            tag_16:\n              mload(0x40)\n              dup1\n              swap2\n              sub\n              swap1\n              return\n                /* \"contracts/Wallet.sol\":961:1048  function checkBalance() external view returns (uint256) {... */\n            tag_4:\n              callvalue\n              dup1\n              iszero\n              tag_18\n              jumpi\n              0x00\n              dup1\n              revert\n            tag_18:\n              pop\n              tag_19\n              tag_20\n              jump\t// in\n            tag_19:\n              mload(0x40)\n              tag_21\n              swap2\n              swap1\n              tag_17\n              jump\t// in\n            tag_21:\n              mload(0x40)\n              dup1\n              swap2\n              sub\n              swap1\n              return\n                /* \"contracts/Wallet.sol\":590:678  function deposit() external payable onlyController {... */\n            tag_5:\n              tag_22\n              tag_23\n              jump\t// in\n            tag_22:\n              stop\n                /* \"contracts/Wallet.sol\":684:955  function withdraw(address to, uint256 amount) external onlyController {... */\n            tag_6:\n              callvalue\n              dup1\n              iszero\n              tag_24\n              jumpi\n              0x00\n              dup1\n              revert\n            tag_24:\n              pop\n              tag_25\n              0x04\n              dup1\n              calldatasize\n              sub\n              dup2\n              add\n              swap1\n              tag_26\n              swap2\n              swap1\n              tag_27\n              jump\t// in\n            tag_26:\n              tag_28\n              jump\t// in\n            tag_25:\n              stop\n                /* \"contracts/Wallet.sol\":214:239  address public controller */\n            tag_7:\n              callvalue\n              dup1\n              iszero\n              tag_29\n              jumpi\n              0x00\n              dup1\n              revert\n            tag_29:\n              pop\n              tag_30\n              tag_31\n              jump\t// in\n            tag_30:\n              mload(0x40)\n              tag_32\n              swap2\n              swap1\n              tag_33\n              jump\t// in\n            tag_32:\n              mload(0x40)\n              dup1\n              swap2\n              sub\n              swap1\n              return\n                /* \"contracts/Wallet.sol\":245:266  string public ownerId */\n            tag_10:\n              0x01\n              dup1\n              sload\n              tag_34\n              swap1\n              tag_35\n              jump\t// in\n            tag_34:\n              dup1\n              0x1f\n              add\n              0x20\n              dup1\n              swap2\n              div\n              mul\n              0x20\n              add\n              mload(0x40)\n              swap1\n              dup2\n              add\n              0x40\n              mstore\n              dup1\n              swap3\n              swap2\n              swap1\n              dup2\n              dup2\n              mstore\n              0x20\n              add\n              dup3\n              dup1\n              sload\n              tag_36\n              swap1\n              tag_35\n              jump\t// in\n            tag_36:\n              dup1\n              iszero\n              tag_37\n              jumpi\n              dup1\n              0x1f\n              lt\n              tag_38\n              jumpi\n              0x0100\n              dup1\n              dup4\n              sload\n              div\n              mul\n              dup4\n              mstore\n              swap2\n              0x20\n              add\n              swap2\n              jump(tag_37)\n            tag_38:\n              dup3\n              add\n              swap2\n              swap1\n              0x00\n              mstore\n              keccak256(0x00, 0x20)\n              swap1\n            tag_39:\n              dup2\n              sload\n              dup2\n              mstore\n              swap1\n              0x01\n              add\n              swap1\n              0x20\n              add\n              dup1\n              dup4\n              gt\n              tag_39\n              jumpi\n              dup3\n              swap1\n              sub\n              0x1f\n              and\n              dup3\n              add\n              swap2\n            tag_37:\n              pop\n              pop\n              pop\n              pop\n              pop\n              dup2\n              jump\t// out\n                /* \"contracts/Wallet.sol\":272:294  uint256 public balance */\n            tag_15:\n              sload(0x02)\n              dup2\n              jump\t// out\n                /* \"contracts/Wallet.sol\":961:1048  function checkBalance() external view returns (uint256) {... */\n            tag_20:\n                /* \"contracts/Wallet.sol\":1008:1015  uint256 */\n              0x00\n                /* \"contracts/Wallet.sol\":1034:1041  balance */\n              sload(0x02)\n                /* \"contracts/Wallet.sol\":1027:1041  return balance */\n              swap1\n              pop\n                /* \"contracts/Wallet.sol\":961:1048  function checkBalance() external view returns (uint256) {... */\n              swap1\n              jump\t// out\n                /* \"contracts/Wallet.sol\":590:678  function deposit() external payable onlyController {... */\n            tag_23:\n                /* \"contracts/Wallet.sol\":355:365  controller */\n              0x00\n              dup1\n              sload\n              swap1\n              0x0100\n              exp\n              swap1\n              div\n              0xffffffffffffffffffffffffffffffffffffffff\n              and\n                /* \"contracts/Wallet.sol\":341:365  msg.sender != controller */\n              0xffffffffffffffffffffffffffffffffffffffff\n              and\n                /* \"contracts/Wallet.sol\":341:351  msg.sender */\n              caller\n                /* \"contracts/Wallet.sol\":341:365  msg.sender != controller */\n              0xffffffffffffffffffffffffffffffffffffffff\n              and\n              eq\n                /* \"contracts/Wallet.sol\":337:435  if (msg.sender != controller) {... */\n              tag_42\n              jumpi\n                /* \"contracts/Wallet.sol\":401:411  controller */\n              0x00\n              dup1\n              sload\n              swap1\n              0x0100\n              exp\n              swap1\n              div\n              0xffffffffffffffffffffffffffffffffffffffff\n              and\n                /* \"contracts/Wallet.sol\":413:423  msg.sender */\n              caller\n                /* \"contracts/Wallet.sol\":388:424  Unauthorized(controller, msg.sender) */\n              mload(0x40)\n              0x295a81c100000000000000000000000000000000000000000000000000000000\n              dup2\n              mstore\n              0x04\n              add\n              tag_43\n              swap3\n              swap2\n              swap1\n              tag_44\n              jump\t// in\n            tag_43:\n              mload(0x40)\n              dup1\n              swap2\n              sub\n              swap1\n              revert\n                /* \"contracts/Wallet.sol\":337:435  if (msg.sender != controller) {... */\n            tag_42:\n                /* \"contracts/Wallet.sol\":662:671  msg.value */\n              callvalue\n                /* \"contracts/Wallet.sol\":651:658  balance */\n              0x02\n              0x00\n                /* \"contracts/Wallet.sol\":651:671  balance += msg.value */\n              dup3\n              dup3\n              sload\n              tag_46\n              swap2\n              swap1\n              tag_47\n              jump\t// in\n            tag_46:\n              swap3\n              pop\n              pop\n              dup2\n              swap1\n              sstore\n              pop\n                /* \"contracts/Wallet.sol\":590:678  function deposit() external payable onlyController {... */\n              jump\t// out\n                /* \"contracts/Wallet.sol\":684:955  function withdraw(address to, uint256 amount) external onlyController {... */\n            tag_28:\n                /* \"contracts/Wallet.sol\":355:365  controller */\n              0x00\n              dup1\n              sload\n              swap1\n              0x0100\n              exp\n              swap1\n              div\n              0xffffffffffffffffffffffffffffffffffffffff\n              and\n                /* \"contracts/Wallet.sol\":341:365  msg.sender != controller */\n              0xffffffffffffffffffffffffffffffffffffffff\n              and\n                /* \"contracts/Wallet.sol\":341:351  msg.sender */\n              caller\n                /* \"contracts/Wallet.sol\":341:365  msg.sender != controller */\n              0xffffffffffffffffffffffffffffffffffffffff\n              and\n              eq\n                /* \"contracts/Wallet.sol\":337:435  if (msg.sender != controller) {... */\n              tag_49\n              jumpi\n                /* \"contracts/Wallet.sol\":401:411  controller */\n              0x00\n              dup1\n              sload\n              swap1\n              0x0100\n              exp\n              swap1\n              div\n              0xffffffffffffffffffffffffffffffffffffffff\n              and\n                /* \"contracts/Wallet.sol\":413:423  msg.sender */\n              caller\n                /* \"contracts/Wallet.sol\":388:424  Unauthorized(controller, msg.sender) */\n              mload(0x40)\n              0x295a81c100000000000000000000000000000000000000000000000000000000\n              dup2\n              mstore\n              0x04\n              add\n              tag_50\n              swap3\n              swap2\n              swap1\n              tag_44\n              jump\t// in\n            tag_50:\n              mload(0x40)\n              dup1\n              swap2\n              sub\n              swap1\n              revert\n                /* \"contracts/Wallet.sol\":337:435  if (msg.sender != controller) {... */\n            tag_49:\n                /* \"contracts/Wallet.sol\":777:784  balance */\n              sload(0x02)\n                /* \"contracts/Wallet.sol\":768:774  amount */\n              dup2\n                /* \"contracts/Wallet.sol\":768:784  amount > balance */\n              gt\n                /* \"contracts/Wallet.sol\":764:827  if (amount > balance) revert InsufficientFunds(balance, amount) */\n              iszero\n              tag_52\n              jumpi\n                /* \"contracts/Wallet.sol\":811:818  balance */\n              sload(0x02)\n                /* \"contracts/Wallet.sol\":820:826  amount */\n              dup2\n                /* \"contracts/Wallet.sol\":793:827  InsufficientFunds(balance, amount) */\n              mload(0x40)\n              0x03eb8b5400000000000000000000000000000000000000000000000000000000\n              dup2\n              mstore\n              0x04\n              add\n              tag_53\n              swap3\n              swap2\n              swap1\n              tag_54\n              jump\t// in\n            tag_53:\n              mload(0x40)\n              dup1\n              swap2\n              sub\n              swap1\n              revert\n                /* \"contracts/Wallet.sol\":764:827  if (amount > balance) revert InsufficientFunds(balance, amount) */\n            tag_52:\n                /* \"contracts/Wallet.sol\":848:854  amount */\n              dup1\n                /* \"contracts/Wallet.sol\":837:844  balance */\n              0x02\n              0x00\n                /* \"contracts/Wallet.sol\":837:854  balance -= amount */\n              dup3\n              dup3\n              sload\n              tag_55\n              swap2\n              swap1\n              tag_56\n              jump\t// in\n            tag_55:\n              swap3\n              pop\n              pop\n              dup2\n              swap1\n              sstore\n              pop\n                /* \"contracts/Wallet.sol\":865:874  bool sent */\n              0x00\n                /* \"contracts/Wallet.sol\":880:882  to */\n              dup3\n                /* \"contracts/Wallet.sol\":880:887  to.call */\n              0xffffffffffffffffffffffffffffffffffffffff\n              and\n                /* \"contracts/Wallet.sol\":895:901  amount */\n              dup3\n                /* \"contracts/Wallet.sol\":880:906  to.call{value: amount}(\"\") */\n              mload(0x40)\n              tag_57\n              swap1\n              tag_58\n              jump\t// in\n            tag_57:\n              0x00\n              mload(0x40)\n              dup1\n              dup4\n              sub\n              dup2\n              dup6\n              dup8\n              gas\n              call\n              swap3\n              pop\n              pop\n              pop\n              returndatasize\n              dup1\n              0x00\n              dup2\n              eq\n              tag_61\n              jumpi\n              mload(0x40)\n              swap2\n              pop\n              and(add(returndatasize, 0x3f), not(0x1f))\n              dup3\n              add\n              0x40\n              mstore\n              returndatasize\n              dup3\n              mstore\n              returndatasize\n              0x00\n              0x20\n              dup5\n              add\n              returndatacopy\n              jump(tag_60)\n            tag_61:\n              0x60\n              swap2\n              pop\n            tag_60:\n              pop\n                /* \"contracts/Wallet.sol\":864:906  (bool sent, ) = to.call{value: amount}(\"\") */\n              pop\n              swap1\n              pop\n                /* \"contracts/Wallet.sol\":924:928  sent */\n              dup1\n                /* \"contracts/Wallet.sol\":916:948  require(sent, \"Transfer failed\") */\n              tag_62\n              jumpi\n              mload(0x40)\n              0x08c379a000000000000000000000000000000000000000000000000000000000\n              dup2\n              mstore\n              0x04\n              add\n              tag_63\n              swap1\n              tag_64\n              jump\t// in\n            tag_63:\n              mload(0x40)\n              dup1\n              swap2\n              sub\n              swap1\n              revert\n            tag_62:\n                /* \"contracts/Wallet.sol\":754:955  {... */\n              pop\n                /* \"contracts/Wallet.sol\":684:955  function withdraw(address to, uint256 amount) external onlyController {... */\n              pop\n              pop\n              jump\t// out\n                /* \"contracts/Wallet.sol\":214:239  address public controller */\n            tag_31:\n              0x00\n              dup1\n              sload\n              swap1\n              0x0100\n              exp\n              swap1\n              div\n              0xffffffffffffffffffffffffffffffffffffffff\n              and\n              dup2\n              jump\t// out\n                /* \"#utility.yul\":7:106   */\n            tag_65:\n                /* \"#utility.yul\":59:65   */\n              0x00\n                /* \"#utility.yul\":93:98   */\n              dup2\n                /* \"#utility.yul\":87:99   */\n              mload\n                /* \"#utility.yul\":77:99   */\n              swap1\n              pop\n                /* \"#utility.yul\":7:106   */\n              swap2\n              swap1\n              pop\n              jump\t// out\n                /* \"#utility.yul\":112:281   */\n            tag_66:\n                /* \"#utility.yul\":196:207   */\n              0x00\n                /* \"#utility.yul\":230:236   */\n              dup3\n                /* \"#utility.yul\":225:228   */\n              dup3\n                /* \"#utility.yul\":218:237   */\n              mstore\n                /* \"#utility.yul\":270:274   */\n              0x20\n                /* \"#utility.yul\":265:268   */\n              dup3\n                /* \"#utility.yul\":261:275   */\n              add\n                /* \"#utility.yul\":246:275   */\n              swap1\n              pop\n                /* \"#utility.yul\":112:281   */\n              swap3\n              swap2\n              pop\n              pop\n              jump\t// out\n                /* \"#utility.yul\":287:533   */\n            tag_67:\n                /* \"#utility.yul\":368:369   */\n              0x00\n                /* \"#utility.yul\":378:491   */\n            tag_93:\n                /* \"#utility.yul\":392:398   */\n              dup4\n                /* \"#utility.yul\":389:390   */\n              dup2\n                /* \"#utility.yul\":386:399   */\n              lt\n                /* \"#utility.yul\":378:491   */\n              iszero\n              tag_95\n              jumpi\n                /* \"#utility.yul\":477:478   */\n              dup1\n                /* \"#utility.yul\":472:475   */\n              dup3\n                /* \"#utility.yul\":468:479   */\n              add\n                /* \"#utility.yul\":462:480   */\n              mload\n                /* \"#utility.yul\":458:459   */\n              dup2\n                /* \"#utility.yul\":453:456   */\n              dup5\n                /* \"#utility.yul\":449:460   */\n              add\n                /* \"#utility.yul\":442:481   */\n              mstore\n                /* \"#utility.yul\":414:416   */\n              0x20\n                /* \"#utility.yul\":411:412   */\n              dup2\n                /* \"#utility.yul\":407:417   */\n              add\n                /* \"#utility.yul\":402:417   */\n              swap1\n              pop\n                /* \"#utility.yul\":378:491   */\n              jump(tag_93)\n            tag_95:\n                /* \"#utility.yul\":525:526   */\n              0x00\n                /* \"#utility.yul\":516:522   */\n              dup5\n                /* \"#utility.yul\":511:514   */\n              dup5\n                /* \"#utility.yul\":507:523   */\n              add\n                /* \"#utility.yul\":500:527   */\n              mstore\n                /* \"#utility.yul\":349:533   */\n              pop\n                /* \"#utility.yul\":287:533   */\n              pop\n              pop\n              pop\n              jump\t// out\n                /* \"#utility.yul\":539:641   */\n            tag_68:\n                /* \"#utility.yul\":580:586   */\n              0x00\n                /* \"#utility.yul\":631:633   */\n              0x1f\n                /* \"#utility.yul\":627:634   */\n              not\n                /* \"#utility.yul\":622:624   */\n              0x1f\n                /* \"#utility.yul\":615:620   */\n              dup4\n                /* \"#utility.yul\":611:625   */\n              add\n                /* \"#utility.yul\":607:635   */\n              and\n                /* \"#utility.yul\":597:635   */\n              swap1\n              pop\n                /* \"#utility.yul\":539:641   */\n              swap2\n              swap1\n              pop\n              jump\t// out\n                /* \"#utility.yul\":647:1024   */\n            tag_69:\n                /* \"#utility.yul\":735:738   */\n              0x00\n                /* \"#utility.yul\":763:802   */\n              tag_98\n                /* \"#utility.yul\":796:801   */\n              dup3\n                /* \"#utility.yul\":763:802   */\n              tag_65\n              jump\t// in\n            tag_98:\n                /* \"#utility.yul\":818:889   */\n              tag_99\n                /* \"#utility.yul\":882:888   */\n              dup2\n                /* \"#utility.yul\":877:880   */\n              dup6\n                /* \"#utility.yul\":818:889   */\n              tag_66\n              jump\t// in\n            tag_99:\n                /* \"#utility.yul\":811:889   */\n              swap4\n              pop\n                /* \"#utility.yul\":898:963   */\n              tag_100\n                /* \"#utility.yul\":956:962   */\n              dup2\n                /* \"#utility.yul\":951:954   */\n              dup6\n                /* \"#utility.yul\":944:948   */\n              0x20\n                /* \"#utility.yul\":937:942   */\n              dup7\n                /* \"#utility.yul\":933:949   */\n              add\n                /* \"#utility.yul\":898:963   */\n              tag_67\n              jump\t// in\n            tag_100:\n                /* \"#utility.yul\":988:1017   */\n              tag_101\n                /* \"#utility.yul\":1010:1016   */\n              dup2\n                /* \"#utility.yul\":988:1017   */\n              tag_68\n              jump\t// in\n            tag_101:\n                /* \"#utility.yul\":983:986   */\n              dup5\n                /* \"#utility.yul\":979:1018   */\n              add\n                /* \"#utility.yul\":972:1018   */\n              swap2\n              pop\n                /* \"#utility.yul\":739:1024   */\n              pop\n                /* \"#utility.yul\":647:1024   */\n              swap3\n              swap2\n              pop\n              pop\n              jump\t// out\n                /* \"#utility.yul\":1030:1343   */\n            tag_12:\n                /* \"#utility.yul\":1143:1147   */\n              0x00\n                /* \"#utility.yul\":1181:1183   */\n              0x20\n                /* \"#utility.yul\":1170:1179   */\n              dup3\n                /* \"#utility.yul\":1166:1184   */\n              add\n                /* \"#utility.yul\":1158:1184   */\n              swap1\n              pop\n                /* \"#utility.yul\":1230:1239   */\n              dup2\n                /* \"#utility.yul\":1224:1228   */\n              dup2\n                /* \"#utility.yul\":1220:1240   */\n              sub\n                /* \"#utility.yul\":1216:1217   */\n              0x00\n                /* \"#utility.yul\":1205:1214   */\n              dup4\n                /* \"#utility.yul\":1201:1218   */\n              add\n                /* \"#utility.yul\":1194:1241   */\n              mstore\n                /* \"#utility.yul\":1258:1336   */\n              tag_103\n                /* \"#utility.yul\":1331:1335   */\n              dup2\n                /* \"#utility.yul\":1322:1328   */\n              dup5\n                /* \"#utility.yul\":1258:1336   */\n              tag_69\n              jump\t// in\n            tag_103:\n                /* \"#utility.yul\":1250:1336   */\n              swap1\n              pop\n                /* \"#utility.yul\":1030:1343   */\n              swap3\n              swap2\n              pop\n              pop\n              jump\t// out\n                /* \"#utility.yul\":1349:1426   */\n            tag_70:\n                /* \"#utility.yul\":1386:1393   */\n              0x00\n                /* \"#utility.yul\":1415:1420   */\n              dup2\n                /* \"#utility.yul\":1404:1420   */\n              swap1\n              pop\n                /* \"#utility.yul\":1349:1426   */\n              swap2\n              swap1\n              pop\n              jump\t// out\n                /* \"#utility.yul\":1432:1550   */\n            tag_71:\n                /* \"#utility.yul\":1519:1543   */\n              tag_106\n                /* \"#utility.yul\":1537:1542   */\n              dup2\n                /* \"#utility.yul\":1519:1543   */\n              tag_70\n              jump\t// in\n            tag_106:\n                /* \"#utility.yul\":1514:1517   */\n              dup3\n                /* \"#utility.yul\":1507:1544   */\n              mstore\n                /* \"#utility.yul\":1432:1550   */\n              pop\n              pop\n              jump\t// out\n                /* \"#utility.yul\":1556:1778   */\n            tag_17:\n                /* \"#utility.yul\":1649:1653   */\n              0x00\n                /* \"#utility.yul\":1687:1689   */\n              0x20\n                /* \"#utility.yul\":1676:1685   */\n              dup3\n                /* \"#utility.yul\":1672:1690   */\n              add\n                /* \"#utility.yul\":1664:1690   */\n              swap1\n              pop\n                /* \"#utility.yul\":1700:1771   */\n              tag_108\n                /* \"#utility.yul\":1768:1769   */\n              0x00\n                /* \"#utility.yul\":1757:1766   */\n              dup4\n                /* \"#utility.yul\":1753:1770   */\n              add\n                /* \"#utility.yul\":1744:1750   */\n              dup5\n                /* \"#utility.yul\":1700:1771   */\n              tag_71\n              jump\t// in\n            tag_108:\n                /* \"#utility.yul\":1556:1778   */\n              swap3\n              swap2\n              pop\n              pop\n              jump\t// out\n                /* \"#utility.yul\":1865:1982   */\n            tag_73:\n                /* \"#utility.yul\":1974:1975   */\n              0x00\n                /* \"#utility.yul\":1971:1972   */\n              dup1\n                /* \"#utility.yul\":1964:1976   */\n              revert\n                /* \"#utility.yul\":2111:2237   */\n            tag_75:\n                /* \"#utility.yul\":2148:2155   */\n              0x00\n                /* \"#utility.yul\":2188:2230   */\n              0xffffffffffffffffffffffffffffffffffffffff\n                /* \"#utility.yul\":2181:2186   */\n              dup3\n                /* \"#utility.yul\":2177:2231   */\n              and\n                /* \"#utility.yul\":2166:2231   */\n              swap1\n              pop\n                /* \"#utility.yul\":2111:2237   */\n              swap2\n              swap1\n              pop\n              jump\t// out\n                /* \"#utility.yul\":2243:2339   */\n            tag_76:\n                /* \"#utility.yul\":2280:2287   */\n              0x00\n                /* \"#utility.yul\":2309:2333   */\n              tag_114\n                /* \"#utility.yul\":2327:2332   */\n              dup3\n                /* \"#utility.yul\":2309:2333   */\n              tag_75\n              jump\t// in\n            tag_114:\n                /* \"#utility.yul\":2298:2333   */\n              swap1\n              pop\n                /* \"#utility.yul\":2243:2339   */\n              swap2\n              swap1\n              pop\n              jump\t// out\n                /* \"#utility.yul\":2345:2467   */\n            tag_77:\n                /* \"#utility.yul\":2418:2442   */\n              tag_116\n                /* \"#utility.yul\":2436:2441   */\n              dup2\n                /* \"#utility.yul\":2418:2442   */\n              tag_76\n              jump\t// in\n            tag_116:\n                /* \"#utility.yul\":2411:2416   */\n              dup2\n                /* \"#utility.yul\":2408:2443   */\n              eq\n                /* \"#utility.yul\":2398:2461   */\n              tag_117\n              jumpi\n                /* \"#utility.yul\":2457:2458   */\n              0x00\n                /* \"#utility.yul\":2454:2455   */\n              dup1\n                /* \"#utility.yul\":2447:2459   */\n              revert\n                /* \"#utility.yul\":2398:2461   */\n            tag_117:\n                /* \"#utility.yul\":2345:2467   */\n              pop\n              jump\t// out\n                /* \"#utility.yul\":2473:2612   */\n            tag_78:\n                /* \"#utility.yul\":2519:2524   */\n              0x00\n                /* \"#utility.yul\":2557:2563   */\n              dup2\n                /* \"#utility.yul\":2544:2564   */\n              calldataload\n                /* \"#utility.yul\":2535:2564   */\n              swap1\n              pop\n                /* \"#utility.yul\":2573:2606   */\n              tag_119\n                /* \"#utility.yul\":2600:2605   */\n              dup2\n                /* \"#utility.yul\":2573:2606   */\n              tag_77\n              jump\t// in\n            tag_119:\n                /* \"#utility.yul\":2473:2612   */\n              swap3\n              swap2\n              pop\n              pop\n              jump\t// out\n                /* \"#utility.yul\":2618:2740   */\n            tag_79:\n                /* \"#utility.yul\":2691:2715   */\n              tag_121\n                /* \"#utility.yul\":2709:2714   */\n              dup2\n                /* \"#utility.yul\":2691:2715   */\n              tag_70\n              jump\t// in\n            tag_121:\n                /* \"#utility.yul\":2684:2689   */\n              dup2\n                /* \"#utility.yul\":2681:2716   */\n              eq\n                /* \"#utility.yul\":2671:2734   */\n              tag_122\n              jumpi\n                /* \"#utility.yul\":2730:2731   */\n              0x00\n                /* \"#utility.yul\":2727:2728   */\n              dup1\n                /* \"#utility.yul\":2720:2732   */\n              revert\n                /* \"#utility.yul\":2671:2734   */\n            tag_122:\n                /* \"#utility.yul\":2618:2740   */\n              pop\n              jump\t// out\n                /* \"#utility.yul\":2746:2885   */\n            tag_80:\n                /* \"#utility.yul\":2792:2797   */\n              0x00\n                /* \"#utility.yul\":2830:2836   */\n              dup2\n                /* \"#utility.yul\":2817:2837   */\n              calldataload\n                /* \"#utility.yul\":2808:2837   */\n              swap1\n              pop\n                /* \"#utility.yul\":2846:2879   */\n              tag_124\n                /* \"#utility.yul\":2873:2878   */\n              dup2\n                /* \"#utility.yul\":2846:2879   */\n              tag_79\n              jump\t// in\n            tag_124:\n                /* \"#utility.yul\":2746:2885   */\n              swap3\n              swap2\n              pop\n              pop\n              jump\t// out\n                /* \"#utility.yul\":2891:3365   */\n            tag_27:\n                /* \"#utility.yul\":2959:2965   */\n              0x00\n                /* \"#utility.yul\":2967:2973   */\n              dup1\n                /* \"#utility.yul\":3016:3018   */\n              0x40\n                /* \"#utility.yul\":3004:3013   */\n              dup4\n                /* \"#utility.yul\":2995:3002   */\n              dup6\n                /* \"#utility.yul\":2991:3014   */\n              sub\n                /* \"#utility.yul\":2987:3019   */\n              slt\n                /* \"#utility.yul\":2984:3103   */\n              iszero\n              tag_126\n              jumpi\n                /* \"#utility.yul\":3022:3101   */\n              tag_127\n              tag_73\n              jump\t// in\n            tag_127:\n                /* \"#utility.yul\":2984:3103   */\n            tag_126:\n                /* \"#utility.yul\":3142:3143   */\n              0x00\n                /* \"#utility.yul\":3167:3220   */\n              tag_128\n                /* \"#utility.yul\":3212:3219   */\n              dup6\n                /* \"#utility.yul\":3203:3209   */\n              dup3\n                /* \"#utility.yul\":3192:3201   */\n              dup7\n                /* \"#utility.yul\":3188:3210   */\n              add\n                /* \"#utility.yul\":3167:3220   */\n              tag_78\n              jump\t// in\n            tag_128:\n                /* \"#utility.yul\":3157:3220   */\n              swap3\n              pop\n                /* \"#utility.yul\":3113:3230   */\n              pop\n                /* \"#utility.yul\":3269:3271   */\n              0x20\n                /* \"#utility.yul\":3295:3348   */\n              tag_129\n                /* \"#utility.yul\":3340:3347   */\n              dup6\n                /* \"#utility.yul\":3331:3337   */\n              dup3\n                /* \"#utility.yul\":3320:3329   */\n              dup7\n                /* \"#utility.yul\":3316:3338   */\n              add\n                /* \"#utility.yul\":3295:3348   */\n              tag_80\n              jump\t// in\n            tag_129:\n                /* \"#utility.yul\":3285:3348   */\n              swap2\n              pop\n                /* \"#utility.yul\":3240:3358   */\n              pop\n                /* \"#utility.yul\":2891:3365   */\n              swap3\n              pop\n              swap3\n              swap1\n              pop\n              jump\t// out\n                /* \"#utility.yul\":3371:3489   */\n            tag_81:\n                /* \"#utility.yul\":3458:3482   */\n              tag_131\n                /* \"#utility.yul\":3476:3481   */\n              dup2\n                /* \"#utility.yul\":3458:3482   */\n              tag_76\n              jump\t// in\n            tag_131:\n                /* \"#utility.yul\":3453:3456   */\n              dup3\n                /* \"#utility.yul\":3446:3483   */\n              mstore\n                /* \"#utility.yul\":3371:3489   */\n              pop\n              pop\n              jump\t// out\n                /* \"#utility.yul\":3495:3717   */\n            tag_33:\n                /* \"#utility.yul\":3588:3592   */\n              0x00\n                /* \"#utility.yul\":3626:3628   */\n              0x20\n                /* \"#utility.yul\":3615:3624   */\n              dup3\n                /* \"#utility.yul\":3611:3629   */\n              add\n                /* \"#utility.yul\":3603:3629   */\n              swap1\n              pop\n                /* \"#utility.yul\":3639:3710   */\n              tag_133\n                /* \"#utility.yul\":3707:3708   */\n              0x00\n                /* \"#utility.yul\":3696:3705   */\n              dup4\n                /* \"#utility.yul\":3692:3709   */\n              add\n                /* \"#utility.yul\":3683:3689   */\n              dup5\n                /* \"#utility.yul\":3639:3710   */\n              tag_81\n              jump\t// in\n            tag_133:\n                /* \"#utility.yul\":3495:3717   */\n              swap3\n              swap2\n              pop\n              pop\n              jump\t// out\n                /* \"#utility.yul\":3723:3903   */\n            tag_82:\n                /* \"#utility.yul\":3771:3848   */\n              0x4e487b7100000000000000000000000000000000000000000000000000000000\n                /* \"#utility.yul\":3768:3769   */\n              0x00\n                /* \"#utility.yul\":3761:3849   */\n              mstore\n                /* \"#utility.yul\":3868:3872   */\n              0x22\n                /* \"#utility.yul\":3865:3866   */\n              0x04\n                /* \"#utility.yul\":3858:3873   */\n              mstore\n                /* \"#utility.yul\":3892:3896   */\n              0x24\n                /* \"#utility.yul\":3889:3890   */\n              0x00\n                /* \"#utility.yul\":3882:3897   */\n              revert\n                /* \"#utility.yul\":3909:4229   */\n            tag_35:\n                /* \"#utility.yul\":3953:3959   */\n              0x00\n                /* \"#utility.yul\":3990:3991   */\n              0x02\n                /* \"#utility.yul\":3984:3988   */\n              dup3\n                /* \"#utility.yul\":3980:3992   */\n              div\n                /* \"#utility.yul\":3970:3992   */\n              swap1\n              pop\n                /* \"#utility.yul\":4037:4038   */\n              0x01\n                /* \"#utility.yul\":4031:4035   */\n              dup3\n                /* \"#utility.yul\":4027:4039   */\n              and\n                /* \"#utility.yul\":4058:4076   */\n              dup1\n                /* \"#utility.yul\":4048:4129   */\n              tag_136\n              jumpi\n                /* \"#utility.yul\":4114:4118   */\n              0x7f\n                /* \"#utility.yul\":4106:4112   */\n              dup3\n                /* \"#utility.yul\":4102:4119   */\n              and\n                /* \"#utility.yul\":4092:4119   */\n              swap2\n              pop\n                /* \"#utility.yul\":4048:4129   */\n            tag_136:\n                /* \"#utility.yul\":4176:4178   */\n              0x20\n                /* \"#utility.yul\":4168:4174   */\n              dup3\n                /* \"#utility.yul\":4165:4179   */\n              lt\n                /* \"#utility.yul\":4145:4163   */\n              dup2\n                /* \"#utility.yul\":4142:4180   */\n              sub\n                /* \"#utility.yul\":4139:4223   */\n              tag_137\n              jumpi\n                /* \"#utility.yul\":4195:4213   */\n              tag_138\n              tag_82\n              jump\t// in\n            tag_138:\n                /* \"#utility.yul\":4139:4223   */\n            tag_137:\n                /* \"#utility.yul\":3960:4229   */\n              pop\n                /* \"#utility.yul\":3909:4229   */\n              swap2\n              swap1\n              pop\n              jump\t// out\n                /* \"#utility.yul\":4235:4567   */\n            tag_44:\n                /* \"#utility.yul\":4356:4360   */\n              0x00\n                /* \"#utility.yul\":4394:4396   */\n              0x40\n                /* \"#utility.yul\":4383:4392   */\n              dup3\n                /* \"#utility.yul\":4379:4397   */\n              add\n                /* \"#utility.yul\":4371:4397   */\n              swap1\n              pop\n                /* \"#utility.yul\":4407:4478   */\n              tag_140\n                /* \"#utility.yul\":4475:4476   */\n              0x00\n                /* \"#utility.yul\":4464:4473   */\n              dup4\n                /* \"#utility.yul\":4460:4477   */\n              add\n                /* \"#utility.yul\":4451:4457   */\n              dup6\n                /* \"#utility.yul\":4407:4478   */\n              tag_81\n              jump\t// in\n            tag_140:\n                /* \"#utility.yul\":4488:4560   */\n              tag_141\n                /* \"#utility.yul\":4556:4558   */\n              0x20\n                /* \"#utility.yul\":4545:4554   */\n              dup4\n                /* \"#utility.yul\":4541:4559   */\n              add\n                /* \"#utility.yul\":4532:4538   */\n              dup5\n                /* \"#utility.yul\":4488:4560   */\n              tag_81\n              jump\t// in\n            tag_141:\n                /* \"#utility.yul\":4235:4567   */\n              swap4\n              swap3\n              pop\n              pop\n              pop\n              jump\t// out\n                /* \"#utility.yul\":4573:4753   */\n            tag_83:\n                /* \"#utility.yul\":4621:4698   */\n              0x4e487b7100000000000000000000000000000000000000000000000000000000\n                /* \"#utility.yul\":4618:4619   */\n              0x00\n                /* \"#utility.yul\":4611:4699   */\n              mstore\n                /* \"#utility.yul\":4718:4722   */\n              0x11\n                /* \"#utility.yul\":4715:4716   */\n              0x04\n                /* \"#utility.yul\":4708:4723   */\n              mstore\n                /* \"#utility.yul\":4742:4746   */\n              0x24\n                /* \"#utility.yul\":4739:4740   */\n              0x00\n                /* \"#utility.yul\":4732:4747   */\n              revert\n                /* \"#utility.yul\":4759:4950   */\n            tag_47:\n                /* \"#utility.yul\":4799:4802   */\n              0x00\n                /* \"#utility.yul\":4818:4838   */\n              tag_144\n                /* \"#utility.yul\":4836:4837   */\n              dup3\n                /* \"#utility.yul\":4818:4838   */\n              tag_70\n              jump\t// in\n            tag_144:\n                /* \"#utility.yul\":4813:4838   */\n              swap2\n              pop\n                /* \"#utility.yul\":4852:4872   */\n              tag_145\n                /* \"#utility.yul\":4870:4871   */\n              dup4\n                /* \"#utility.yul\":4852:4872   */\n              tag_70\n              jump\t// in\n            tag_145:\n                /* \"#utility.yul\":4847:4872   */\n              swap3\n              pop\n                /* \"#utility.yul\":4895:4896   */\n              dup3\n                /* \"#utility.yul\":4892:4893   */\n              dup3\n                /* \"#utility.yul\":4888:4897   */\n              add\n                /* \"#utility.yul\":4881:4897   */\n              swap1\n              pop\n                /* \"#utility.yul\":4916:4919   */\n              dup1\n                /* \"#utility.yul\":4913:4914   */\n              dup3\n                /* \"#utility.yul\":4910:4920   */\n              gt\n                /* \"#utility.yul\":4907:4943   */\n              iszero\n              tag_146\n              jumpi\n                /* \"#utility.yul\":4923:4941   */\n              tag_147\n              tag_83\n              jump\t// in\n            tag_147:\n                /* \"#utility.yul\":4907:4943   */\n            tag_146:\n                /* \"#utility.yul\":4759:4950   */\n              swap3\n              swap2\n              pop\n              pop\n              jump\t// out\n                /* \"#utility.yul\":4956:5288   */\n            tag_54:\n                /* \"#utility.yul\":5077:5081   */\n              0x00\n                /* \"#utility.yul\":5115:5117   */\n              0x40\n                /* \"#utility.yul\":5104:5113   */\n              dup3\n                /* \"#utility.yul\":5100:5118   */\n              add\n                /* \"#utility.yul\":5092:5118   */\n              swap1\n              pop\n                /* \"#utility.yul\":5128:5199   */\n              tag_149\n                /* \"#utility.yul\":5196:5197   */\n              0x00\n                /* \"#utility.yul\":5185:5194   */\n              dup4\n                /* \"#utility.yul\":5181:5198   */\n              add\n                /* \"#utility.yul\":5172:5178   */\n              dup6\n                /* \"#utility.yul\":5128:5199   */\n              tag_71\n              jump\t// in\n            tag_149:\n                /* \"#utility.yul\":5209:5281   */\n              tag_150\n                /* \"#utility.yul\":5277:5279   */\n              0x20\n                /* \"#utility.yul\":5266:5275   */\n              dup4\n                /* \"#utility.yul\":5262:5280   */\n              add\n                /* \"#utility.yul\":5253:5259   */\n              dup5\n                /* \"#utility.yul\":5209:5281   */\n              tag_71\n              jump\t// in\n            tag_150:\n                /* \"#utility.yul\":4956:5288   */\n              swap4\n              swap3\n              pop\n              pop\n              pop\n              jump\t// out\n                /* \"#utility.yul\":5294:5488   */\n            tag_56:\n                /* \"#utility.yul\":5334:5338   */\n              0x00\n                /* \"#utility.yul\":5354:5374   */\n              tag_152\n                /* \"#utility.yul\":5372:5373   */\n              dup3\n                /* \"#utility.yul\":5354:5374   */\n              tag_70\n              jump\t// in\n            tag_152:\n                /* \"#utility.yul\":5349:5374   */\n              swap2\n              pop\n                /* \"#utility.yul\":5388:5408   */\n              tag_153\n                /* \"#utility.yul\":5406:5407   */\n              dup4\n                /* \"#utility.yul\":5388:5408   */\n              tag_70\n              jump\t// in\n            tag_153:\n                /* \"#utility.yul\":5383:5408   */\n              swap3\n              pop\n                /* \"#utility.yul\":5432:5433   */\n              dup3\n                /* \"#utility.yul\":5429:5430   */\n              dup3\n                /* \"#utility.yul\":5425:5434   */\n              sub\n                /* \"#utility.yul\":5417:5434   */\n              swap1\n              pop\n                /* \"#utility.yul\":5456:5457   */\n              dup2\n                /* \"#utility.yul\":5450:5454   */\n              dup2\n                /* \"#utility.yul\":5447:5458   */\n              gt\n                /* \"#utility.yul\":5444:5481   */\n              iszero\n              tag_154\n              jumpi\n                /* \"#utility.yul\":5461:5479   */\n              tag_155\n              tag_83\n              jump\t// in\n            tag_155:\n                /* \"#utility.yul\":5444:5481   */\n            tag_154:\n                /* \"#utility.yul\":5294:5488   */\n              swap3\n              swap2\n              pop\n              pop\n              jump\t// out\n                /* \"#utility.yul\":5494:5641   */\n            tag_84:\n                /* \"#utility.yul\":5595:5606   */\n              0x00\n                /* \"#utility.yul\":5632:5635   */\n              dup2\n                /* \"#utility.yul\":5617:5635   */\n              swap1\n              pop\n                /* \"#utility.yul\":5494:5641   */\n              swap3\n              swap2\n              pop\n              pop\n              jump\t// out\n                /* \"#utility.yul\":5647:5761   */\n            tag_85:\n              pop\n              jump\t// out\n                /* \"#utility.yul\":5767:6165   */\n            tag_86:\n                /* \"#utility.yul\":5926:5929   */\n              0x00\n                /* \"#utility.yul\":5947:6030   */\n              tag_159\n                /* \"#utility.yul\":6028:6029   */\n              0x00\n                /* \"#utility.yul\":6023:6026   */\n              dup4\n                /* \"#utility.yul\":5947:6030   */\n              tag_84\n              jump\t// in\n            tag_159:\n                /* \"#utility.yul\":5940:6030   */\n              swap2\n              pop\n                /* \"#utility.yul\":6039:6132   */\n              tag_160\n                /* \"#utility.yul\":6128:6131   */\n              dup3\n                /* \"#utility.yul\":6039:6132   */\n              tag_85\n              jump\t// in\n            tag_160:\n                /* \"#utility.yul\":6157:6158   */\n              0x00\n                /* \"#utility.yul\":6152:6155   */\n              dup3\n                /* \"#utility.yul\":6148:6159   */\n              add\n                /* \"#utility.yul\":6141:6159   */\n              swap1\n              pop\n                /* \"#utility.yul\":5767:6165   */\n              swap2\n              swap1\n              pop\n              jump\t// out\n                /* \"#utility.yul\":6171:6550   */\n            tag_58:\n                /* \"#utility.yul\":6355:6358   */\n              0x00\n                /* \"#utility.yul\":6377:6524   */\n              tag_162\n                /* \"#utility.yul\":6520:6523   */\n              dup3\n                /* \"#utility.yul\":6377:6524   */\n              tag_86\n              jump\t// in\n            tag_162:\n                /* \"#utility.yul\":6370:6524   */\n              swap2\n              pop\n                /* \"#utility.yul\":6541:6544   */\n              dup2\n                /* \"#utility.yul\":6534:6544   */\n              swap1\n              pop\n                /* \"#utility.yul\":6171:6550   */\n              swap2\n              swap1\n              pop\n              jump\t// out\n                /* \"#utility.yul\":6556:6721   */\n            tag_87:\n                /* \"#utility.yul\":6696:6713   */\n              0x5472616e73666572206661696c65640000000000000000000000000000000000\n                /* \"#utility.yul\":6692:6693   */\n              0x00\n                /* \"#utility.yul\":6684:6690   */\n              dup3\n                /* \"#utility.yul\":6680:6694   */\n              add\n                /* \"#utility.yul\":6673:6714   */\n              mstore\n                /* \"#utility.yul\":6556:6721   */\n              pop\n              jump\t// out\n                /* \"#utility.yul\":6727:7093   */\n            tag_88:\n                /* \"#utility.yul\":6869:6872   */\n              0x00\n                /* \"#utility.yul\":6890:6957   */\n              tag_165\n                /* \"#utility.yul\":6954:6956   */\n              0x0f\n                /* \"#utility.yul\":6949:6952   */\n              dup4\n                /* \"#utility.yul\":6890:6957   */\n              tag_66\n              jump\t// in\n            tag_165:\n                /* \"#utility.yul\":6883:6957   */\n              swap2\n              pop\n                /* \"#utility.yul\":6966:7059   */\n              tag_166\n                /* \"#utility.yul\":7055:7058   */\n              dup3\n                /* \"#utility.yul\":6966:7059   */\n              tag_87\n              jump\t// in\n            tag_166:\n                /* \"#utility.yul\":7084:7086   */\n              0x20\n                /* \"#utility.yul\":7079:7082   */\n              dup3\n                /* \"#utility.yul\":7075:7087   */\n              add\n                /* \"#utility.yul\":7068:7087   */\n              swap1\n              pop\n                /* \"#utility.yul\":6727:7093   */\n              swap2\n              swap1\n              pop\n              jump\t// out\n                /* \"#utility.yul\":7099:7518   */\n            tag_64:\n                /* \"#utility.yul\":7265:7269   */\n              0x00\n                /* \"#utility.yul\":7303:7305   */\n              0x20\n                /* \"#utility.yul\":7292:7301   */\n              dup3\n                /* \"#utility.yul\":7288:7306   */\n              add\n                /* \"#utility.yul\":7280:7306   */\n              swap1\n              pop\n                /* \"#utility.yul\":7352:7361   */\n              dup2\n                /* \"#utility.yul\":7346:7350   */\n              dup2\n                /* \"#utility.yul\":7342:7362   */\n              sub\n                /* \"#utility.yul\":7338:7339   */\n              0x00\n                /* \"#utility.yul\":7327:7336   */\n              dup4\n                /* \"#utility.yul\":7323:7340   */\n              add\n                /* \"#utility.yul\":7316:7363   */\n              mstore\n                /* \"#utility.yul\":7380:7511   */\n              tag_168\n                /* \"#utility.yul\":7506:7510   */\n              dup2\n                /* \"#utility.yul\":7380:7511   */\n              tag_88\n              jump\t// in\n            tag_168:\n                /* \"#utility.yul\":7372:7511   */\n              swap1\n              pop\n                /* \"#utility.yul\":7099:7518   */\n              swap2\n              swap1\n              pop\n              jump\t// out\n\n            auxdata: 0xa26469706673582212207c3ebd6e9e36bb5c8ad4d4c7b04212962b42a90d325415e6a0af6c5577a15d0c64736f6c63430008180033\n        }\n    }\n\n    auxdata: 0xa2646970667358221220344fb223ee41910b50c1bbaf478f7a401e895ee297ea3cc6f1c6655eb420e12964736f6c63430008180033\n}\n",
				"bytecode": {
					"linkReferences": {},
					"object": "60a060405234801562000010575f80fd5b506040516200273b3803806200273b83398181016040528101906200003691906200014b565b805f73ffffffffffffffffffffffffffffffffffffffff168173ffffffffffffffffffffffffffffffffffffffff1603620000aa575f6040517fd7f73334000000000000000000000000000000000000000000000000000000008152600401620000a191906200018c565b60405180910390fd5b8073ffffffffffffffffffffffffffffffffffffffff1660808173ffffffffffffffffffffffffffffffffffffffff16815250505050620001a7565b5f80fd5b5f73ffffffffffffffffffffffffffffffffffffffff82169050919050565b5f6200011582620000ea565b9050919050565b620001278162000109565b811462000132575f80fd5b50565b5f8151905062000145816200011c565b92915050565b5f60208284031215620001635762000162620000e6565b5b5f620001728482850162000135565b91505092915050565b620001868162000109565b82525050565b5f602082019050620001a15f8301846200017b565b92915050565b60805161257b620001c05f395f6105fd015261257b5ff3fe60806040526004361062000091575f3560e01c806385572ffb116200006057806385572ffb146200018b578063aff9bd9c14620001b8578063b0f479a114620001fb578063baa96000146200022a578063dd10586214620002595762000091565b806301ffc9a7146200009557806308f2063014620000d85780633a51d246146200011b5780633b0e8752146200015e575b5f80fd5b348015620000a1575f80fd5b50620000c06004803603810190620000ba919062000a5f565b62000279565b604051620000cf919062000aab565b60405180910390f35b348015620000e4575f80fd5b50620001036004803603810190620000fd919062000b30565b6200034b565b60405162000112919062000bc6565b60405180910390f35b34801562000127575f80fd5b5062000146600480360381019062000140919062000b30565b62000395565b60405162000155919062000bfb565b60405180910390f35b3480156200016a575f80fd5b5062000189600480360381019062000183919062000c74565b620003f6565b005b34801562000197575f80fd5b50620001b66004803603810190620001b0919062000d16565b6200051e565b005b348015620001c4575f80fd5b50620001e36004803603810190620001dd919062000eb9565b620005b3565b604051620001f2919062000bc6565b60405180910390f35b34801562000207575f80fd5b5062000212620005fa565b60405162000221919062000bc6565b60405180910390f35b34801562000236575f80fd5b506200024162000621565b60405162000250919062000bc6565b60405180910390f35b62000277600480360381019062000271919062000b30565b62000646565b005b5f7f85572ffb000000000000000000000000000000000000000000000000000000007bffffffffffffffffffffffffffffffffffffffffffffffffffffffff1916827bffffffffffffffffffffffffffffffffffffffffffffffffffffffff191614806200034457507f01ffc9a7000000000000000000000000000000000000000000000000000000007bffffffffffffffffffffffffffffffffffffffffffffffffffffffff1916827bffffffffffffffffffffffffffffffffffffffffffffffffffffffff1916145b9050919050565b5f8083836040516200035f92919062000f3a565b90815260200160405180910390205f9054906101000a900473ffffffffffffffffffffffffffffffffffffffff16905092915050565b5f808383604051620003a992919062000f3a565b90815260200160405180910390205f9054906101000a900473ffffffffffffffffffffffffffffffffffffffff1673ffffffffffffffffffffffffffffffffffffffff1631905092915050565b5f8085856040516200040a92919062000f3a565b90815260200160405180910390205f9054906101000a900473ffffffffffffffffffffffffffffffffffffffff1690505f73ffffffffffffffffffffffffffffffffffffffff168173ffffffffffffffffffffffffffffffffffffffff1603620004ab576040517f08c379a0000000000000000000000000000000000000000000000000000000008152600401620004a29062000fb2565b60405180910390fd5b8073ffffffffffffffffffffffffffffffffffffffff1663f3fef3a384846040518363ffffffff1660e01b8152600401620004e892919062000fd2565b5f604051808303815f87803b15801562000500575f80fd5b505af115801562000513573d5f803e3d5ffd5b505050505050505050565b62000528620005fa565b73ffffffffffffffffffffffffffffffffffffffff163373ffffffffffffffffffffffffffffffffffffffff16146200059a57336040517fd7f7333400000000000000000000000000000000000000000000000000000000815260040162000591919062000bc6565b60405180910390fd5b620005b081620005aa906200134e565b620007d0565b50565b5f818051602081018201805184825260208301602085012081835280955050505050505f915054906101000a900473ffffffffffffffffffffffffffffffffffffffff1681565b5f7f0000000000000000000000000000000000000000000000000000000000000000905090565b60015f9054906101000a900473ffffffffffffffffffffffffffffffffffffffff1681565b5f6200069583838080601f0160208091040260200160405190810160405280939291908181526020018383808284375f81840152601f19601f8201169050808301925050505050505062000809565b90505f8173ffffffffffffffffffffffffffffffffffffffff16346040516024016040516020818303038152906040527fd0e30db0000000000000000000000000000000000000000000000000000000007bffffffffffffffffffffffffffffffffffffffffffffffffffffffff19166020820180517bffffffffffffffffffffffffffffffffffffffffffffffffffffffff8381831617835250505050604051620007429190620013d6565b5f6040518083038185875af1925050503d805f81146200077e576040519150601f19603f3d011682016040523d82523d5f602084013e62000783565b606091505b5050905080620007ca576040517f08c379a0000000000000000000000000000000000000000000000000000000008152600401620007c1906200143c565b60405180910390fd5b50505050565b5f8160600151806020019051810190620007eb919062001598565b905062000805815f01518260200151836040015162000957565b5050565b5f80826040516200081b919062001627565b90815260200160405180910390205f9054906101000a900473ffffffffffffffffffffffffffffffffffffffff1690505f73ffffffffffffffffffffffffffffffffffffffff168173ffffffffffffffffffffffffffffffffffffffff1603620009525730826040516200088f90620009e6565b6200089c9291906200167f565b604051809103905ff080158015620008b6573d5f803e3d5ffd5b509050805f83604051620008cb919062001627565b90815260200160405180910390205f6101000a81548173ffffffffffffffffffffffffffffffffffffffff021916908373ffffffffffffffffffffffffffffffffffffffff1602179055507f582ba04b4371b240e4864e0bea1ca69f930e4b5e4b2fa7e5e5582b1ca39e00ef828260405162000949929190620016b1565b60405180910390a15b919050565b5f620009638462000809565b90505f620009718462000809565b90508173ffffffffffffffffffffffffffffffffffffffff1663f3fef3a382856040518363ffffffff1660e01b8152600401620009b092919062000fd2565b5f604051808303815f87803b158015620009c8575f80fd5b505af1158015620009db573d5f803e3d5ffd5b505050505050505050565b610e6280620016e483390190565b5f604051905090565b5f80fd5b5f80fd5b5f7fffffffff0000000000000000000000000000000000000000000000000000000082169050919050565b62000a3b8162000a05565b811462000a46575f80fd5b50565b5f8135905062000a598162000a30565b92915050565b5f6020828403121562000a775762000a76620009fd565b5b5f62000a868482850162000a49565b91505092915050565b5f8115159050919050565b62000aa58162000a8f565b82525050565b5f60208201905062000ac05f83018462000a9a565b92915050565b5f80fd5b5f80fd5b5f80fd5b5f8083601f84011262000aea5762000ae962000ac6565b5b8235905067ffffffffffffffff81111562000b0a5762000b0962000aca565b5b60208301915083600182028301111562000b295762000b2862000ace565b5b9250929050565b5f806020838503121562000b495762000b48620009fd565b5b5f83013567ffffffffffffffff81111562000b695762000b6862000a01565b5b62000b778582860162000ad2565b92509250509250929050565b5f73ffffffffffffffffffffffffffffffffffffffff82169050919050565b5f62000bae8262000b83565b9050919050565b62000bc08162000ba2565b82525050565b5f60208201905062000bdb5f83018462000bb5565b92915050565b5f819050919050565b62000bf58162000be1565b82525050565b5f60208201905062000c105f83018462000bea565b92915050565b62000c218162000ba2565b811462000c2c575f80fd5b50565b5f8135905062000c3f8162000c16565b92915050565b62000c508162000be1565b811462000c5b575f80fd5b50565b5f8135905062000c6e8162000c45565b92915050565b5f805f806060858703121562000c8f5762000c8e620009fd565b5b5f85013567ffffffffffffffff81111562000caf5762000cae62000a01565b5b62000cbd8782880162000ad2565b9450945050602062000cd28782880162000c2f565b925050604062000ce58782880162000c5e565b91505092959194509250565b5f80fd5b5f60a0828403121562000d0d5762000d0c62000cf1565b5b81905092915050565b5f6020828403121562000d2e5762000d2d620009fd565b5b5f82013567ffffffffffffffff81111562000d4e5762000d4d62000a01565b5b62000d5c8482850162000cf5565b91505092915050565b5f80fd5b5f601f19601f8301169050919050565b7f4e487b71000000000000000000000000000000000000000000000000000000005f52604160045260245ffd5b62000db18262000d69565b810181811067ffffffffffffffff8211171562000dd35762000dd262000d79565b5b80604052505050565b5f62000de7620009f4565b905062000df5828262000da6565b919050565b5f67ffffffffffffffff82111562000e175762000e1662000d79565b5b62000e228262000d69565b9050602081019050919050565b828183375f83830152505050565b5f62000e5362000e4d8462000dfa565b62000ddc565b90508281526020810184848401111562000e725762000e7162000d65565b5b62000e7f84828562000e2f565b509392505050565b5f82601f83011262000e9e5762000e9d62000ac6565b5b813562000eb084826020860162000e3d565b91505092915050565b5f6020828403121562000ed15762000ed0620009fd565b5b5f82013567ffffffffffffffff81111562000ef15762000ef062000a01565b5b62000eff8482850162000e87565b91505092915050565b5f81905092915050565b5f62000f1f838562000f08565b935062000f2e83858462000e2f565b82840190509392505050565b5f62000f4882848662000f12565b91508190509392505050565b5f82825260208201905092915050565b7f57616c6c6574206e6f7420666f756e64000000000000000000000000000000005f82015250565b5f62000f9a60108362000f54565b915062000fa78262000f64565b602082019050919050565b5f6020820190508181035f83015262000fcb8162000f8c565b9050919050565b5f60408201905062000fe75f83018562000bb5565b62000ff6602083018462000bea565b9392505050565b5f80fd5b5f80fd5b5f819050919050565b620010198162001005565b811462001024575f80fd5b50565b5f8135905062001037816200100e565b92915050565b5f67ffffffffffffffff82169050919050565b6200105b816200103d565b811462001066575f80fd5b50565b5f81359050620010798162001050565b92915050565b5f67ffffffffffffffff8211156200109c576200109b62000d79565b5b620010a78262000d69565b9050602081019050919050565b5f620010ca620010c4846200107f565b62000ddc565b905082815260208101848484011115620010e957620010e862000d65565b5b620010f684828562000e2f565b509392505050565b5f82601f83011262001115576200111462000ac6565b5b813562001127848260208601620010b4565b91505092915050565b5f67ffffffffffffffff8211156200114d576200114c62000d79565b5b602082029050602081019050919050565b5f6040828403121562001176576200117562000ffd565b5b62001182604062000ddc565b90505f620011938482850162000c2f565b5f830152506020620011a88482850162000c5e565b60208301525092915050565b5f620011ca620011c48462001130565b62000ddc565b90508083825260208201905060408402830185811115620011f057620011ef62000ace565b5b835b818110156200121d57806200120888826200115e565b845260208401935050604081019050620011f2565b5050509392505050565b5f82601f8301126200123e576200123d62000ac6565b5b813562001250848260208601620011b4565b91505092915050565b5f60a0828403121562001271576200127062000ffd565b5b6200127d60a062000ddc565b90505f6200128e8482850162001027565b5f830152506020620012a38482850162001069565b602083015250604082013567ffffffffffffffff811115620012ca57620012c962001001565b5b620012d884828501620010fe565b604083015250606082013567ffffffffffffffff811115620012ff57620012fe62001001565b5b6200130d84828501620010fe565b606083015250608082013567ffffffffffffffff81111562001334576200133362001001565b5b620013428482850162001227565b60808301525092915050565b5f6200135b368362001259565b9050919050565b5f81519050919050565b5f81905092915050565b5f5b838110156200139557808201518184015260208101905062001378565b5f8484015250505050565b5f620013ac8262001362565b620013b881856200136c565b9350620013ca81856020860162001376565b80840191505092915050565b5f620013e38284620013a0565b915081905092915050565b7f4465706f736974206661696c65640000000000000000000000000000000000005f82015250565b5f62001424600e8362000f54565b91506200143182620013ee565b602082019050919050565b5f6020820190508181035f830152620014558162001416565b9050919050565b5f620014726200146c8462000dfa565b62000ddc565b90508281526020810184848401111562001491576200149062000d65565b5b6200149e84828562001376565b509392505050565b5f82601f830112620014bd57620014bc62000ac6565b5b8151620014cf8482602086016200145c565b91505092915050565b5f81519050620014e88162000c45565b92915050565b5f6060828403121562001506576200150562000ffd565b5b62001512606062000ddc565b90505f82015167ffffffffffffffff81111562001534576200153362001001565b5b6200154284828501620014a6565b5f83015250602082015167ffffffffffffffff81111562001568576200156762001001565b5b6200157684828501620014a6565b60208301525060406200158c84828501620014d8565b60408301525092915050565b5f60208284031215620015b057620015af620009fd565b5b5f82015167ffffffffffffffff811115620015d057620015cf62000a01565b5b620015de84828501620014ee565b91505092915050565b5f81519050919050565b5f620015fd82620015e7565b62001609818562000f08565b93506200161b81856020860162001376565b80840191505092915050565b5f620016348284620015f1565b915081905092915050565b5f6200164b82620015e7565b62001657818562000f54565b93506200166981856020860162001376565b620016748162000d69565b840191505092915050565b5f604082019050620016945f83018562000bb5565b8181036020830152620016a881846200163f565b90509392505050565b5f6040820190508181035f830152620016cb81856200163f565b9050620016dc602083018462000bb5565b939250505056fe608060405234801562000010575f80fd5b5060405162000e6238038062000e62833981810160405281019062000036919062000275565b815f806101000a81548173ffffffffffffffffffffffffffffffffffffffff021916908373ffffffffffffffffffffffffffffffffffffffff160217905550806001908162000086919062000510565b505050620005f4565b5f604051905090565b5f80fd5b5f80fd5b5f73ffffffffffffffffffffffffffffffffffffffff82169050919050565b5f620000cb82620000a0565b9050919050565b620000dd81620000bf565b8114620000e8575f80fd5b50565b5f81519050620000fb81620000d2565b92915050565b5f80fd5b5f80fd5b5f601f19601f8301169050919050565b7f4e487b71000000000000000000000000000000000000000000000000000000005f52604160045260245ffd5b620001518262000109565b810181811067ffffffffffffffff8211171562000173576200017262000119565b5b80604052505050565b5f620001876200008f565b905062000195828262000146565b919050565b5f67ffffffffffffffff821115620001b757620001b662000119565b5b620001c28262000109565b9050602081019050919050565b5f5b83811015620001ee578082015181840152602081019050620001d1565b5f8484015250505050565b5f6200020f62000209846200019a565b6200017c565b9050828152602081018484840111156200022e576200022d62000105565b5b6200023b848285620001cf565b509392505050565b5f82601f8301126200025a576200025962000101565b5b81516200026c848260208601620001f9565b91505092915050565b5f80604083850312156200028e576200028d62000098565b5b5f6200029d85828601620000eb565b925050602083015167ffffffffffffffff811115620002c157620002c06200009c565b5b620002cf8582860162000243565b9150509250929050565b5f81519050919050565b7f4e487b71000000000000000000000000000000000000000000000000000000005f52602260045260245ffd5b5f60028204905060018216806200032857607f821691505b6020821081036200033e576200033d620002e3565b5b50919050565b5f819050815f5260205f209050919050565b5f6020601f8301049050919050565b5f82821b905092915050565b5f60088302620003a27fffffffffffffffffffffffffffffffffffffffffffffffffffffffffffffffff8262000365565b620003ae868362000365565b95508019841693508086168417925050509392505050565b5f819050919050565b5f819050919050565b5f620003f8620003f2620003ec84620003c6565b620003cf565b620003c6565b9050919050565b5f819050919050565b6200041383620003d8565b6200042b6200042282620003ff565b84845462000371565b825550505050565b5f90565b6200044162000433565b6200044e81848462000408565b505050565b5b818110156200047557620004695f8262000437565b60018101905062000454565b5050565b601f821115620004c4576200048e8162000344565b620004998462000356565b81016020851015620004a9578190505b620004c1620004b88562000356565b83018262000453565b50505b505050565b5f82821c905092915050565b5f620004e65f1984600802620004c9565b1980831691505092915050565b5f620005008383620004d5565b9150826002028217905092915050565b6200051b82620002d9565b67ffffffffffffffff81111562000537576200053662000119565b5b62000543825462000310565b6200055082828562000479565b5f60209050601f83116001811462000586575f841562000571578287015190505b6200057d8582620004f3565b865550620005ec565b601f198416620005968662000344565b5f5b82811015620005bf5784890151825560018201915060208501945060208101905062000598565b86831015620005df5784890151620005db601f891682620004d5565b8355505b6001600288020188555050505b505050505050565b61086080620006025f395ff3fe608060405260043610610054575f3560e01c8063019c08f514610058578063b69ef8a814610082578063c71daccb146100ac578063d0e30db0146100d6578063f3fef3a3146100e0578063f77c479114610108575b5f80fd5b348015610063575f80fd5b5061006c610132565b6040516100799190610504565b60405180910390f35b34801561008d575f80fd5b506100966101be565b6040516100a3919061053c565b60405180910390f35b3480156100b7575f80fd5b506100c06101c4565b6040516100cd919061053c565b60405180910390f35b6100de6101cd565b005b3480156100eb575f80fd5b50610106600480360381019061010191906105dd565b610297565b005b348015610113575f80fd5b5061011c610457565b604051610129919061062a565b60405180910390f35b6001805461013f90610670565b80601f016020809104026020016040519081016040528092919081815260200182805461016b90610670565b80156101b65780601f1061018d576101008083540402835291602001916101b6565b820191905f5260205f20905b81548152906001019060200180831161019957829003601f168201915b505050505081565b60025481565b5f600254905090565b5f8054906101000a900473ffffffffffffffffffffffffffffffffffffffff1673ffffffffffffffffffffffffffffffffffffffff163373ffffffffffffffffffffffffffffffffffffffff161461027d575f8054906101000a900473ffffffffffffffffffffffffffffffffffffffff16336040517f295a81c10000000000000000000000000000000000000000000000000000000081526004016102749291906106a0565b60405180910390fd5b3460025f82825461028e91906106f4565b92505081905550565b5f8054906101000a900473ffffffffffffffffffffffffffffffffffffffff1673ffffffffffffffffffffffffffffffffffffffff163373ffffffffffffffffffffffffffffffffffffffff1614610347575f8054906101000a900473ffffffffffffffffffffffffffffffffffffffff16336040517f295a81c100000000000000000000000000000000000000000000000000000000815260040161033e9291906106a0565b60405180910390fd5b60025481111561039257600254816040517f03eb8b54000000000000000000000000000000000000000000000000000000008152600401610389929190610727565b60405180910390fd5b8060025f8282546103a3919061074e565b925050819055505f8273ffffffffffffffffffffffffffffffffffffffff16826040516103cf906107ae565b5f6040518083038185875af1925050503d805f8114610409576040519150601f19603f3d011682016040523d82523d5f602084013e61040e565b606091505b5050905080610452576040517f08c379a00000000000000000000000000000000000000000000000000000000081526004016104499061080c565b60405180910390fd5b505050565b5f8054906101000a900473ffffffffffffffffffffffffffffffffffffffff1681565b5f81519050919050565b5f82825260208201905092915050565b5f5b838110156104b1578082015181840152602081019050610496565b5f8484015250505050565b5f601f19601f8301169050919050565b5f6104d68261047a565b6104e08185610484565b93506104f0818560208601610494565b6104f9816104bc565b840191505092915050565b5f6020820190508181035f83015261051c81846104cc565b905092915050565b5f819050919050565b61053681610524565b82525050565b5f60208201905061054f5f83018461052d565b92915050565b5f80fd5b5f73ffffffffffffffffffffffffffffffffffffffff82169050919050565b5f61058282610559565b9050919050565b61059281610578565b811461059c575f80fd5b50565b5f813590506105ad81610589565b92915050565b6105bc81610524565b81146105c6575f80fd5b50565b5f813590506105d7816105b3565b92915050565b5f80604083850312156105f3576105f2610555565b5b5f6106008582860161059f565b9250506020610611858286016105c9565b9150509250929050565b61062481610578565b82525050565b5f60208201905061063d5f83018461061b565b92915050565b7f4e487b71000000000000000000000000000000000000000000000000000000005f52602260045260245ffd5b5f600282049050600182168061068757607f821691505b60208210810361069a57610699610643565b5b50919050565b5f6040820190506106b35f83018561061b565b6106c0602083018461061b565b9392505050565b7f4e487b71000000000000000000000000000000000000000000000000000000005f52601160045260245ffd5b5f6106fe82610524565b915061070983610524565b9250828201905080821115610721576107206106c7565b5b92915050565b5f60408201905061073a5f83018561052d565b610747602083018461052d565b9392505050565b5f61075882610524565b915061076383610524565b925082820390508181111561077b5761077a6106c7565b5b92915050565b5f81905092915050565b50565b5f6107995f83610781565b91506107a48261078b565b5f82019050919050565b5f6107b88261078e565b9150819050919050565b7f5472616e73666572206661696c656400000000000000000000000000000000005f82015250565b5f6107f6600f83610484565b9150610801826107c2565b602082019050919050565b5f6020820190508181035f830152610823816107ea565b905091905056fea26469706673582212207c3ebd6e9e36bb5c8ad4d4c7b04212962b42a90d325415e6a0af6c5577a15d0c64736f6c63430008180033a2646970667358221220344fb223ee41910b50c1bbaf478f7a401e895ee297ea3cc6f1c6655eb420e12964736f6c63430008180033",
					"opcodes": "PUSH1 0xA0 PUSH1 0x40 MSTORE CALLVALUE DUP1 ISZERO PUSH3 0x10 JUMPI PUSH0 DUP1 REVERT JUMPDEST POP PUSH1 0x40 MLOAD PUSH3 0x273B CODESIZE SUB DUP1 PUSH3 0x273B DUP4 CODECOPY DUP2 DUP2 ADD PUSH1 0x40 MSTORE DUP2 ADD SWAP1 PUSH3 0x36 SWAP2 SWAP1 PUSH3 0x14B JUMP JUMPDEST DUP1 PUSH0 PUSH20 0xFFFFFFFFFFFFFFFFFFFFFFFFFFFFFFFFFFFFFFFF AND DUP2 PUSH20 0xFFFFFFFFFFFFFFFFFFFFFFFFFFFFFFFFFFFFFFFF AND SUB PUSH3 0xAA JUMPI PUSH0 PUSH1 0x40 MLOAD PUSH32 0xD7F7333400000000000000000000000000000000000000000000000000000000 DUP2 MSTORE PUSH1 0x4 ADD PUSH3 0xA1 SWAP2 SWAP1 PUSH3 0x18C JUMP JUMPDEST PUSH1 0x40 MLOAD DUP1 SWAP2 SUB SWAP1 REVERT JUMPDEST DUP1 PUSH20 0xFFFFFFFFFFFFFFFFFFFFFFFFFFFFFFFFFFFFFFFF AND PUSH1 0x80 DUP2 PUSH20 0xFFFFFFFFFFFFFFFFFFFFFFFFFFFFFFFFFFFFFFFF AND DUP2 MSTORE POP POP POP POP PUSH3 0x1A7 JUMP JUMPDEST PUSH0 DUP1 REVERT JUMPDEST PUSH0 PUSH20 0xFFFFFFFFFFFFFFFFFFFFFFFFFFFFFFFFFFFFFFFF DUP3 AND SWAP1 POP SWAP2 SWAP1 POP JUMP JUMPDEST PUSH0 PUSH3 0x115 DUP3 PUSH3 0xEA JUMP JUMPDEST SWAP1 POP SWAP2 SWAP1 POP JUMP JUMPDEST PUSH3 0x127 DUP2 PUSH3 0x109 JUMP JUMPDEST DUP2 EQ PUSH3 0x132 JUMPI PUSH0 DUP1 REVERT JUMPDEST POP JUMP JUMPDEST PUSH0 DUP2 MLOAD SWAP1 POP PUSH3 0x145 DUP2 PUSH3 0x11C JUMP JUMPDEST SWAP3 SWAP2 POP POP JUMP JUMPDEST PUSH0 PUSH1 0x20 DUP3 DUP5 SUB SLT ISZERO PUSH3 0x163 JUMPI PUSH3 0x162 PUSH3 0xE6 JUMP JUMPDEST JUMPDEST PUSH0 PUSH3 0x172 DUP5 DUP3 DUP6 ADD PUSH3 0x135 JUMP JUMPDEST SWAP2 POP POP SWAP3 SWAP2 POP POP JUMP JUMPDEST PUSH3 0x186 DUP2 PUSH3 0x109 JUMP JUMPDEST DUP3 MSTORE POP POP JUMP JUMPDEST PUSH0 PUSH1 0x20 DUP3 ADD SWAP1 POP PUSH3 0x1A1 PUSH0 DUP4 ADD DUP5 PUSH3 0x17B JUMP JUMPDEST SWAP3 SWAP2 POP POP JUMP JUMPDEST PUSH1 0x80 MLOAD PUSH2 0x257B PUSH3 0x1C0 PUSH0 CODECOPY PUSH0 PUSH2 0x5FD ADD MSTORE PUSH2 0x257B PUSH0 RETURN INVALID PUSH1 0x80 PUSH1 0x40 MSTORE PUSH1 0x4 CALLDATASIZE LT PUSH3 0x91 JUMPI PUSH0 CALLDATALOAD PUSH1 0xE0 SHR DUP1 PUSH4 0x85572FFB GT PUSH3 0x60 JUMPI DUP1 PUSH4 0x85572FFB EQ PUSH3 0x18B JUMPI DUP1 PUSH4 0xAFF9BD9C EQ PUSH3 0x1B8 JUMPI DUP1 PUSH4 0xB0F479A1 EQ PUSH3 0x1FB JUMPI DUP1 PUSH4 0xBAA96000 EQ PUSH3 0x22A JUMPI DUP1 PUSH4 0xDD105862 EQ PUSH3 0x259 JUMPI PUSH3 0x91 JUMP JUMPDEST DUP1 PUSH4 0x1FFC9A7 EQ PUSH3 0x95 JUMPI DUP1 PUSH4 0x8F20630 EQ PUSH3 0xD8 JUMPI DUP1 PUSH4 0x3A51D246 EQ PUSH3 0x11B JUMPI DUP1 PUSH4 0x3B0E8752 EQ PUSH3 0x15E JUMPI JUMPDEST PUSH0 DUP1 REVERT JUMPDEST CALLVALUE DUP1 ISZERO PUSH3 0xA1 JUMPI PUSH0 DUP1 REVERT JUMPDEST POP PUSH3 0xC0 PUSH1 0x4 DUP1 CALLDATASIZE SUB DUP2 ADD SWAP1 PUSH3 0xBA SWAP2 SWAP1 PUSH3 0xA5F JUMP JUMPDEST PUSH3 0x279 JUMP JUMPDEST PUSH1 0x40 MLOAD PUSH3 0xCF SWAP2 SWAP1 PUSH3 0xAAB JUMP JUMPDEST PUSH1 0x40 MLOAD DUP1 SWAP2 SUB SWAP1 RETURN JUMPDEST CALLVALUE DUP1 ISZERO PUSH3 0xE4 JUMPI PUSH0 DUP1 REVERT JUMPDEST POP PUSH3 0x103 PUSH1 0x4 DUP1 CALLDATASIZE SUB DUP2 ADD SWAP1 PUSH3 0xFD SWAP2 SWAP1 PUSH3 0xB30 JUMP JUMPDEST PUSH3 0x34B JUMP JUMPDEST PUSH1 0x40 MLOAD PUSH3 0x112 SWAP2 SWAP1 PUSH3 0xBC6 JUMP JUMPDEST PUSH1 0x40 MLOAD DUP1 SWAP2 SUB SWAP1 RETURN JUMPDEST CALLVALUE DUP1 ISZERO PUSH3 0x127 JUMPI PUSH0 DUP1 REVERT JUMPDEST POP PUSH3 0x146 PUSH1 0x4 DUP1 CALLDATASIZE SUB DUP2 ADD SWAP1 PUSH3 0x140 SWAP2 SWAP1 PUSH3 0xB30 JUMP JUMPDEST PUSH3 0x395 JUMP JUMPDEST PUSH1 0x40 MLOAD PUSH3 0x155 SWAP2 SWAP1 PUSH3 0xBFB JUMP JUMPDEST PUSH1 0x40 MLOAD DUP1 SWAP2 SUB SWAP1 RETURN JUMPDEST CALLVALUE DUP1 ISZERO PUSH3 0x16A JUMPI PUSH0 DUP1 REVERT JUMPDEST POP PUSH3 0x189 PUSH1 0x4 DUP1 CALLDATASIZE SUB DUP2 ADD SWAP1 PUSH3 0x183 SWAP2 SWAP1 PUSH3 0xC74 JUMP JUMPDEST PUSH3 0x3F6 JUMP JUMPDEST STOP JUMPDEST CALLVALUE DUP1 ISZERO PUSH3 0x197 JUMPI PUSH0 DUP1 REVERT JUMPDEST POP PUSH3 0x1B6 PUSH1 0x4 DUP1 CALLDATASIZE SUB DUP2 ADD SWAP1 PUSH3 0x1B0 SWAP2 SWAP1 PUSH3 0xD16 JUMP JUMPDEST PUSH3 0x51E JUMP JUMPDEST STOP JUMPDEST CALLVALUE DUP1 ISZERO PUSH3 0x1C4 JUMPI PUSH0 DUP1 REVERT JUMPDEST POP PUSH3 0x1E3 PUSH1 0x4 DUP1 CALLDATASIZE SUB DUP2 ADD SWAP1 PUSH3 0x1DD SWAP2 SWAP1 PUSH3 0xEB9 JUMP JUMPDEST PUSH3 0x5B3 JUMP JUMPDEST PUSH1 0x40 MLOAD PUSH3 0x1F2 SWAP2 SWAP1 PUSH3 0xBC6 JUMP JUMPDEST PUSH1 0x40 MLOAD DUP1 SWAP2 SUB SWAP1 RETURN JUMPDEST CALLVALUE DUP1 ISZERO PUSH3 0x207 JUMPI PUSH0 DUP1 REVERT JUMPDEST POP PUSH3 0x212 PUSH3 0x5FA JUMP JUMPDEST PUSH1 0x40 MLOAD PUSH3 0x221 SWAP2 SWAP1 PUSH3 0xBC6 JUMP JUMPDEST PUSH1 0x40 MLOAD DUP1 SWAP2 SUB SWAP1 RETURN JUMPDEST CALLVALUE DUP1 ISZERO PUSH3 0x236 JUMPI PUSH0 DUP1 REVERT JUMPDEST POP PUSH3 0x241 PUSH3 0x621 JUMP JUMPDEST PUSH1 0x40 MLOAD PUSH3 0x250 SWAP2 SWAP1 PUSH3 0xBC6 JUMP JUMPDEST PUSH1 0x40 MLOAD DUP1 SWAP2 SUB SWAP1 RETURN JUMPDEST PUSH3 0x277 PUSH1 0x4 DUP1 CALLDATASIZE SUB DUP2 ADD SWAP1 PUSH3 0x271 SWAP2 SWAP1 PUSH3 0xB30 JUMP JUMPDEST PUSH3 0x646 JUMP JUMPDEST STOP JUMPDEST PUSH0 PUSH32 0x85572FFB00000000000000000000000000000000000000000000000000000000 PUSH28 0xFFFFFFFFFFFFFFFFFFFFFFFFFFFFFFFFFFFFFFFFFFFFFFFFFFFFFFFF NOT AND DUP3 PUSH28 0xFFFFFFFFFFFFFFFFFFFFFFFFFFFFFFFFFFFFFFFFFFFFFFFFFFFFFFFF NOT AND EQ DUP1 PUSH3 0x344 JUMPI POP PUSH32 0x1FFC9A700000000000000000000000000000000000000000000000000000000 PUSH28 0xFFFFFFFFFFFFFFFFFFFFFFFFFFFFFFFFFFFFFFFFFFFFFFFFFFFFFFFF NOT AND DUP3 PUSH28 0xFFFFFFFFFFFFFFFFFFFFFFFFFFFFFFFFFFFFFFFFFFFFFFFFFFFFFFFF NOT AND EQ JUMPDEST SWAP1 POP SWAP2 SWAP1 POP JUMP JUMPDEST PUSH0 DUP1 DUP4 DUP4 PUSH1 0x40 MLOAD PUSH3 0x35F SWAP3 SWAP2 SWAP1 PUSH3 0xF3A JUMP JUMPDEST SWAP1 DUP2 MSTORE PUSH1 0x20 ADD PUSH1 0x40 MLOAD DUP1 SWAP2 SUB SWAP1 KECCAK256 PUSH0 SWAP1 SLOAD SWAP1 PUSH2 0x100 EXP SWAP1 DIV PUSH20 0xFFFFFFFFFFFFFFFFFFFFFFFFFFFFFFFFFFFFFFFF AND SWAP1 POP SWAP3 SWAP2 POP POP JUMP JUMPDEST PUSH0 DUP1 DUP4 DUP4 PUSH1 0x40 MLOAD PUSH3 0x3A9 SWAP3 SWAP2 SWAP1 PUSH3 0xF3A JUMP JUMPDEST SWAP1 DUP2 MSTORE PUSH1 0x20 ADD PUSH1 0x40 MLOAD DUP1 SWAP2 SUB SWAP1 KECCAK256 PUSH0 SWAP1 SLOAD SWAP1 PUSH2 0x100 EXP SWAP1 DIV PUSH20 0xFFFFFFFFFFFFFFFFFFFFFFFFFFFFFFFFFFFFFFFF AND PUSH20 0xFFFFFFFFFFFFFFFFFFFFFFFFFFFFFFFFFFFFFFFF AND BALANCE SWAP1 POP SWAP3 SWAP2 POP POP JUMP JUMPDEST PUSH0 DUP1 DUP6 DUP6 PUSH1 0x40 MLOAD PUSH3 0x40A SWAP3 SWAP2 SWAP1 PUSH3 0xF3A JUMP JUMPDEST SWAP1 DUP2 MSTORE PUSH1 0x20 ADD PUSH1 0x40 MLOAD DUP1 SWAP2 SUB SWAP1 KECCAK256 PUSH0 SWAP1 SLOAD SWAP1 PUSH2 0x100 EXP SWAP1 DIV PUSH20 0xFFFFFFFFFFFFFFFFFFFFFFFFFFFFFFFFFFFFFFFF AND SWAP1 POP PUSH0 PUSH20 0xFFFFFFFFFFFFFFFFFFFFFFFFFFFFFFFFFFFFFFFF AND DUP2 PUSH20 0xFFFFFFFFFFFFFFFFFFFFFFFFFFFFFFFFFFFFFFFF AND SUB PUSH3 0x4AB JUMPI PUSH1 0x40 MLOAD PUSH32 0x8C379A000000000000000000000000000000000000000000000000000000000 DUP2 MSTORE PUSH1 0x4 ADD PUSH3 0x4A2 SWAP1 PUSH3 0xFB2 JUMP JUMPDEST PUSH1 0x40 MLOAD DUP1 SWAP2 SUB SWAP1 REVERT JUMPDEST DUP1 PUSH20 0xFFFFFFFFFFFFFFFFFFFFFFFFFFFFFFFFFFFFFFFF AND PUSH4 0xF3FEF3A3 DUP5 DUP5 PUSH1 0x40 MLOAD DUP4 PUSH4 0xFFFFFFFF AND PUSH1 0xE0 SHL DUP2 MSTORE PUSH1 0x4 ADD PUSH3 0x4E8 SWAP3 SWAP2 SWAP1 PUSH3 0xFD2 JUMP JUMPDEST PUSH0 PUSH1 0x40 MLOAD DUP1 DUP4 SUB DUP2 PUSH0 DUP8 DUP1 EXTCODESIZE ISZERO DUP1 ISZERO PUSH3 0x500 JUMPI PUSH0 DUP1 REVERT JUMPDEST POP GAS CALL ISZERO DUP1 ISZERO PUSH3 0x513 JUMPI RETURNDATASIZE PUSH0 DUP1 RETURNDATACOPY RETURNDATASIZE PUSH0 REVERT JUMPDEST POP POP POP POP POP POP POP POP POP JUMP JUMPDEST PUSH3 0x528 PUSH3 0x5FA JUMP JUMPDEST PUSH20 0xFFFFFFFFFFFFFFFFFFFFFFFFFFFFFFFFFFFFFFFF AND CALLER PUSH20 0xFFFFFFFFFFFFFFFFFFFFFFFFFFFFFFFFFFFFFFFF AND EQ PUSH3 0x59A JUMPI CALLER PUSH1 0x40 MLOAD PUSH32 0xD7F7333400000000000000000000000000000000000000000000000000000000 DUP2 MSTORE PUSH1 0x4 ADD PUSH3 0x591 SWAP2 SWAP1 PUSH3 0xBC6 JUMP JUMPDEST PUSH1 0x40 MLOAD DUP1 SWAP2 SUB SWAP1 REVERT JUMPDEST PUSH3 0x5B0 DUP2 PUSH3 0x5AA SWAP1 PUSH3 0x134E JUMP JUMPDEST PUSH3 0x7D0 JUMP JUMPDEST POP JUMP JUMPDEST PUSH0 DUP2 DUP1 MLOAD PUSH1 0x20 DUP2 ADD DUP3 ADD DUP1 MLOAD DUP5 DUP3 MSTORE PUSH1 0x20 DUP4 ADD PUSH1 0x20 DUP6 ADD KECCAK256 DUP2 DUP4 MSTORE DUP1 SWAP6 POP POP POP POP POP POP PUSH0 SWAP2 POP SLOAD SWAP1 PUSH2 0x100 EXP SWAP1 DIV PUSH20 0xFFFFFFFFFFFFFFFFFFFFFFFFFFFFFFFFFFFFFFFF AND DUP2 JUMP JUMPDEST PUSH0 PUSH32 0x0 SWAP1 POP SWAP1 JUMP JUMPDEST PUSH1 0x1 PUSH0 SWAP1 SLOAD SWAP1 PUSH2 0x100 EXP SWAP1 DIV PUSH20 0xFFFFFFFFFFFFFFFFFFFFFFFFFFFFFFFFFFFFFFFF AND DUP2 JUMP JUMPDEST PUSH0 PUSH3 0x695 DUP4 DUP4 DUP1 DUP1 PUSH1 0x1F ADD PUSH1 0x20 DUP1 SWAP2 DIV MUL PUSH1 0x20 ADD PUSH1 0x40 MLOAD SWAP1 DUP2 ADD PUSH1 0x40 MSTORE DUP1 SWAP4 SWAP3 SWAP2 SWAP1 DUP2 DUP2 MSTORE PUSH1 0x20 ADD DUP4 DUP4 DUP1 DUP3 DUP5 CALLDATACOPY PUSH0 DUP2 DUP5 ADD MSTORE PUSH1 0x1F NOT PUSH1 0x1F DUP3 ADD AND SWAP1 POP DUP1 DUP4 ADD SWAP3 POP POP POP POP POP POP POP PUSH3 0x809 JUMP JUMPDEST SWAP1 POP PUSH0 DUP2 PUSH20 0xFFFFFFFFFFFFFFFFFFFFFFFFFFFFFFFFFFFFFFFF AND CALLVALUE PUSH1 0x40 MLOAD PUSH1 0x24 ADD PUSH1 0x40 MLOAD PUSH1 0x20 DUP2 DUP4 SUB SUB DUP2 MSTORE SWAP1 PUSH1 0x40 MSTORE PUSH32 0xD0E30DB000000000000000000000000000000000000000000000000000000000 PUSH28 0xFFFFFFFFFFFFFFFFFFFFFFFFFFFFFFFFFFFFFFFFFFFFFFFFFFFFFFFF NOT AND PUSH1 0x20 DUP3 ADD DUP1 MLOAD PUSH28 0xFFFFFFFFFFFFFFFFFFFFFFFFFFFFFFFFFFFFFFFFFFFFFFFFFFFFFFFF DUP4 DUP2 DUP4 AND OR DUP4 MSTORE POP POP POP POP PUSH1 0x40 MLOAD PUSH3 0x742 SWAP2 SWAP1 PUSH3 0x13D6 JUMP JUMPDEST PUSH0 PUSH1 0x40 MLOAD DUP1 DUP4 SUB DUP2 DUP6 DUP8 GAS CALL SWAP3 POP POP POP RETURNDATASIZE DUP1 PUSH0 DUP2 EQ PUSH3 0x77E JUMPI PUSH1 0x40 MLOAD SWAP2 POP PUSH1 0x1F NOT PUSH1 0x3F RETURNDATASIZE ADD AND DUP3 ADD PUSH1 0x40 MSTORE RETURNDATASIZE DUP3 MSTORE RETURNDATASIZE PUSH0 PUSH1 0x20 DUP5 ADD RETURNDATACOPY PUSH3 0x783 JUMP JUMPDEST PUSH1 0x60 SWAP2 POP JUMPDEST POP POP SWAP1 POP DUP1 PUSH3 0x7CA JUMPI PUSH1 0x40 MLOAD PUSH32 0x8C379A000000000000000000000000000000000000000000000000000000000 DUP2 MSTORE PUSH1 0x4 ADD PUSH3 0x7C1 SWAP1 PUSH3 0x143C JUMP JUMPDEST PUSH1 0x40 MLOAD DUP1 SWAP2 SUB SWAP1 REVERT JUMPDEST POP POP POP POP JUMP JUMPDEST PUSH0 DUP2 PUSH1 0x60 ADD MLOAD DUP1 PUSH1 0x20 ADD SWAP1 MLOAD DUP2 ADD SWAP1 PUSH3 0x7EB SWAP2 SWAP1 PUSH3 0x1598 JUMP JUMPDEST SWAP1 POP PUSH3 0x805 DUP2 PUSH0 ADD MLOAD DUP3 PUSH1 0x20 ADD MLOAD DUP4 PUSH1 0x40 ADD MLOAD PUSH3 0x957 JUMP JUMPDEST POP POP JUMP JUMPDEST PUSH0 DUP1 DUP3 PUSH1 0x40 MLOAD PUSH3 0x81B SWAP2 SWAP1 PUSH3 0x1627 JUMP JUMPDEST SWAP1 DUP2 MSTORE PUSH1 0x20 ADD PUSH1 0x40 MLOAD DUP1 SWAP2 SUB SWAP1 KECCAK256 PUSH0 SWAP1 SLOAD SWAP1 PUSH2 0x100 EXP SWAP1 DIV PUSH20 0xFFFFFFFFFFFFFFFFFFFFFFFFFFFFFFFFFFFFFFFF AND SWAP1 POP PUSH0 PUSH20 0xFFFFFFFFFFFFFFFFFFFFFFFFFFFFFFFFFFFFFFFF AND DUP2 PUSH20 0xFFFFFFFFFFFFFFFFFFFFFFFFFFFFFFFFFFFFFFFF AND SUB PUSH3 0x952 JUMPI ADDRESS DUP3 PUSH1 0x40 MLOAD PUSH3 0x88F SWAP1 PUSH3 0x9E6 JUMP JUMPDEST PUSH3 0x89C SWAP3 SWAP2 SWAP1 PUSH3 0x167F JUMP JUMPDEST PUSH1 0x40 MLOAD DUP1 SWAP2 SUB SWAP1 PUSH0 CREATE DUP1 ISZERO DUP1 ISZERO PUSH3 0x8B6 JUMPI RETURNDATASIZE PUSH0 DUP1 RETURNDATACOPY RETURNDATASIZE PUSH0 REVERT JUMPDEST POP SWAP1 POP DUP1 PUSH0 DUP4 PUSH1 0x40 MLOAD PUSH3 0x8CB SWAP2 SWAP1 PUSH3 0x1627 JUMP JUMPDEST SWAP1 DUP2 MSTORE PUSH1 0x20 ADD PUSH1 0x40 MLOAD DUP1 SWAP2 SUB SWAP1 KECCAK256 PUSH0 PUSH2 0x100 EXP DUP2 SLOAD DUP2 PUSH20 0xFFFFFFFFFFFFFFFFFFFFFFFFFFFFFFFFFFFFFFFF MUL NOT AND SWAP1 DUP4 PUSH20 0xFFFFFFFFFFFFFFFFFFFFFFFFFFFFFFFFFFFFFFFF AND MUL OR SWAP1 SSTORE POP PUSH32 0x582BA04B4371B240E4864E0BEA1CA69F930E4B5E4B2FA7E5E5582B1CA39E00EF DUP3 DUP3 PUSH1 0x40 MLOAD PUSH3 0x949 SWAP3 SWAP2 SWAP1 PUSH3 0x16B1 JUMP JUMPDEST PUSH1 0x40 MLOAD DUP1 SWAP2 SUB SWAP1 LOG1 JUMPDEST SWAP2 SWAP1 POP JUMP JUMPDEST PUSH0 PUSH3 0x963 DUP5 PUSH3 0x809 JUMP JUMPDEST SWAP1 POP PUSH0 PUSH3 0x971 DUP5 PUSH3 0x809 JUMP JUMPDEST SWAP1 POP DUP2 PUSH20 0xFFFFFFFFFFFFFFFFFFFFFFFFFFFFFFFFFFFFFFFF AND PUSH4 0xF3FEF3A3 DUP3 DUP6 PUSH1 0x40 MLOAD DUP4 PUSH4 0xFFFFFFFF AND PUSH1 0xE0 SHL DUP2 MSTORE PUSH1 0x4 ADD PUSH3 0x9B0 SWAP3 SWAP2 SWAP1 PUSH3 0xFD2 JUMP JUMPDEST PUSH0 PUSH1 0x40 MLOAD DUP1 DUP4 SUB DUP2 PUSH0 DUP8 DUP1 EXTCODESIZE ISZERO DUP1 ISZERO PUSH3 0x9C8 JUMPI PUSH0 DUP1 REVERT JUMPDEST POP GAS CALL ISZERO DUP1 ISZERO PUSH3 0x9DB JUMPI RETURNDATASIZE PUSH0 DUP1 RETURNDATACOPY RETURNDATASIZE PUSH0 REVERT JUMPDEST POP POP POP POP POP POP POP POP POP JUMP JUMPDEST PUSH2 0xE62 DUP1 PUSH3 0x16E4 DUP4 CODECOPY ADD SWAP1 JUMP JUMPDEST PUSH0 PUSH1 0x40 MLOAD SWAP1 POP SWAP1 JUMP JUMPDEST PUSH0 DUP1 REVERT JUMPDEST PUSH0 DUP1 REVERT JUMPDEST PUSH0 PUSH32 0xFFFFFFFF00000000000000000000000000000000000000000000000000000000 DUP3 AND SWAP1 POP SWAP2 SWAP1 POP JUMP JUMPDEST PUSH3 0xA3B DUP2 PUSH3 0xA05 JUMP JUMPDEST DUP2 EQ PUSH3 0xA46 JUMPI PUSH0 DUP1 REVERT JUMPDEST POP JUMP JUMPDEST PUSH0 DUP2 CALLDATALOAD SWAP1 POP PUSH3 0xA59 DUP2 PUSH3 0xA30 JUMP JUMPDEST SWAP3 SWAP2 POP POP JUMP JUMPDEST PUSH0 PUSH1 0x20 DUP3 DUP5 SUB SLT ISZERO PUSH3 0xA77 JUMPI PUSH3 0xA76 PUSH3 0x9FD JUMP JUMPDEST JUMPDEST PUSH0 PUSH3 0xA86 DUP5 DUP3 DUP6 ADD PUSH3 0xA49 JUMP JUMPDEST SWAP2 POP POP SWAP3 SWAP2 POP POP JUMP JUMPDEST PUSH0 DUP2 ISZERO ISZERO SWAP1 POP SWAP2 SWAP1 POP JUMP JUMPDEST PUSH3 0xAA5 DUP2 PUSH3 0xA8F JUMP JUMPDEST DUP3 MSTORE POP POP JUMP JUMPDEST PUSH0 PUSH1 0x20 DUP3 ADD SWAP1 POP PUSH3 0xAC0 PUSH0 DUP4 ADD DUP5 PUSH3 0xA9A JUMP JUMPDEST SWAP3 SWAP2 POP POP JUMP JUMPDEST PUSH0 DUP1 REVERT JUMPDEST PUSH0 DUP1 REVERT JUMPDEST PUSH0 DUP1 REVERT JUMPDEST PUSH0 DUP1 DUP4 PUSH1 0x1F DUP5 ADD SLT PUSH3 0xAEA JUMPI PUSH3 0xAE9 PUSH3 0xAC6 JUMP JUMPDEST JUMPDEST DUP3 CALLDATALOAD SWAP1 POP PUSH8 0xFFFFFFFFFFFFFFFF DUP2 GT ISZERO PUSH3 0xB0A JUMPI PUSH3 0xB09 PUSH3 0xACA JUMP JUMPDEST JUMPDEST PUSH1 0x20 DUP4 ADD SWAP2 POP DUP4 PUSH1 0x1 DUP3 MUL DUP4 ADD GT ISZERO PUSH3 0xB29 JUMPI PUSH3 0xB28 PUSH3 0xACE JUMP JUMPDEST JUMPDEST SWAP3 POP SWAP3 SWAP1 POP JUMP JUMPDEST PUSH0 DUP1 PUSH1 0x20 DUP4 DUP6 SUB SLT ISZERO PUSH3 0xB49 JUMPI PUSH3 0xB48 PUSH3 0x9FD JUMP JUMPDEST JUMPDEST PUSH0 DUP4 ADD CALLDATALOAD PUSH8 0xFFFFFFFFFFFFFFFF DUP2 GT ISZERO PUSH3 0xB69 JUMPI PUSH3 0xB68 PUSH3 0xA01 JUMP JUMPDEST JUMPDEST PUSH3 0xB77 DUP6 DUP3 DUP7 ADD PUSH3 0xAD2 JUMP JUMPDEST SWAP3 POP SWAP3 POP POP SWAP3 POP SWAP3 SWAP1 POP JUMP JUMPDEST PUSH0 PUSH20 0xFFFFFFFFFFFFFFFFFFFFFFFFFFFFFFFFFFFFFFFF DUP3 AND SWAP1 POP SWAP2 SWAP1 POP JUMP JUMPDEST PUSH0 PUSH3 0xBAE DUP3 PUSH3 0xB83 JUMP JUMPDEST SWAP1 POP SWAP2 SWAP1 POP JUMP JUMPDEST PUSH3 0xBC0 DUP2 PUSH3 0xBA2 JUMP JUMPDEST DUP3 MSTORE POP POP JUMP JUMPDEST PUSH0 PUSH1 0x20 DUP3 ADD SWAP1 POP PUSH3 0xBDB PUSH0 DUP4 ADD DUP5 PUSH3 0xBB5 JUMP JUMPDEST SWAP3 SWAP2 POP POP JUMP JUMPDEST PUSH0 DUP2 SWAP1 POP SWAP2 SWAP1 POP JUMP JUMPDEST PUSH3 0xBF5 DUP2 PUSH3 0xBE1 JUMP JUMPDEST DUP3 MSTORE POP POP JUMP JUMPDEST PUSH0 PUSH1 0x20 DUP3 ADD SWAP1 POP PUSH3 0xC10 PUSH0 DUP4 ADD DUP5 PUSH3 0xBEA JUMP JUMPDEST SWAP3 SWAP2 POP POP JUMP JUMPDEST PUSH3 0xC21 DUP2 PUSH3 0xBA2 JUMP JUMPDEST DUP2 EQ PUSH3 0xC2C JUMPI PUSH0 DUP1 REVERT JUMPDEST POP JUMP JUMPDEST PUSH0 DUP2 CALLDATALOAD SWAP1 POP PUSH3 0xC3F DUP2 PUSH3 0xC16 JUMP JUMPDEST SWAP3 SWAP2 POP POP JUMP JUMPDEST PUSH3 0xC50 DUP2 PUSH3 0xBE1 JUMP JUMPDEST DUP2 EQ PUSH3 0xC5B JUMPI PUSH0 DUP1 REVERT JUMPDEST POP JUMP JUMPDEST PUSH0 DUP2 CALLDATALOAD SWAP1 POP PUSH3 0xC6E DUP2 PUSH3 0xC45 JUMP JUMPDEST SWAP3 SWAP2 POP POP JUMP JUMPDEST PUSH0 DUP1 PUSH0 DUP1 PUSH1 0x60 DUP6 DUP8 SUB SLT ISZERO PUSH3 0xC8F JUMPI PUSH3 0xC8E PUSH3 0x9FD JUMP JUMPDEST JUMPDEST PUSH0 DUP6 ADD CALLDATALOAD PUSH8 0xFFFFFFFFFFFFFFFF DUP2 GT ISZERO PUSH3 0xCAF JUMPI PUSH3 0xCAE PUSH3 0xA01 JUMP JUMPDEST JUMPDEST PUSH3 0xCBD DUP8 DUP3 DUP9 ADD PUSH3 0xAD2 JUMP JUMPDEST SWAP5 POP SWAP5 POP POP PUSH1 0x20 PUSH3 0xCD2 DUP8 DUP3 DUP9 ADD PUSH3 0xC2F JUMP JUMPDEST SWAP3 POP POP PUSH1 0x40 PUSH3 0xCE5 DUP8 DUP3 DUP9 ADD PUSH3 0xC5E JUMP JUMPDEST SWAP2 POP POP SWAP3 SWAP6 SWAP2 SWAP5 POP SWAP3 POP JUMP JUMPDEST PUSH0 DUP1 REVERT JUMPDEST PUSH0 PUSH1 0xA0 DUP3 DUP5 SUB SLT ISZERO PUSH3 0xD0D JUMPI PUSH3 0xD0C PUSH3 0xCF1 JUMP JUMPDEST JUMPDEST DUP2 SWAP1 POP SWAP3 SWAP2 POP POP JUMP JUMPDEST PUSH0 PUSH1 0x20 DUP3 DUP5 SUB SLT ISZERO PUSH3 0xD2E JUMPI PUSH3 0xD2D PUSH3 0x9FD JUMP JUMPDEST JUMPDEST PUSH0 DUP3 ADD CALLDATALOAD PUSH8 0xFFFFFFFFFFFFFFFF DUP2 GT ISZERO PUSH3 0xD4E JUMPI PUSH3 0xD4D PUSH3 0xA01 JUMP JUMPDEST JUMPDEST PUSH3 0xD5C DUP5 DUP3 DUP6 ADD PUSH3 0xCF5 JUMP JUMPDEST SWAP2 POP POP SWAP3 SWAP2 POP POP JUMP JUMPDEST PUSH0 DUP1 REVERT JUMPDEST PUSH0 PUSH1 0x1F NOT PUSH1 0x1F DUP4 ADD AND SWAP1 POP SWAP2 SWAP1 POP JUMP JUMPDEST PUSH32 0x4E487B7100000000000000000000000000000000000000000000000000000000 PUSH0 MSTORE PUSH1 0x41 PUSH1 0x4 MSTORE PUSH1 0x24 PUSH0 REVERT JUMPDEST PUSH3 0xDB1 DUP3 PUSH3 0xD69 JUMP JUMPDEST DUP2 ADD DUP2 DUP2 LT PUSH8 0xFFFFFFFFFFFFFFFF DUP3 GT OR ISZERO PUSH3 0xDD3 JUMPI PUSH3 0xDD2 PUSH3 0xD79 JUMP JUMPDEST JUMPDEST DUP1 PUSH1 0x40 MSTORE POP POP POP JUMP JUMPDEST PUSH0 PUSH3 0xDE7 PUSH3 0x9F4 JUMP JUMPDEST SWAP1 POP PUSH3 0xDF5 DUP3 DUP3 PUSH3 0xDA6 JUMP JUMPDEST SWAP2 SWAP1 POP JUMP JUMPDEST PUSH0 PUSH8 0xFFFFFFFFFFFFFFFF DUP3 GT ISZERO PUSH3 0xE17 JUMPI PUSH3 0xE16 PUSH3 0xD79 JUMP JUMPDEST JUMPDEST PUSH3 0xE22 DUP3 PUSH3 0xD69 JUMP JUMPDEST SWAP1 POP PUSH1 0x20 DUP2 ADD SWAP1 POP SWAP2 SWAP1 POP JUMP JUMPDEST DUP3 DUP2 DUP4 CALLDATACOPY PUSH0 DUP4 DUP4 ADD MSTORE POP POP POP JUMP JUMPDEST PUSH0 PUSH3 0xE53 PUSH3 0xE4D DUP5 PUSH3 0xDFA JUMP JUMPDEST PUSH3 0xDDC JUMP JUMPDEST SWAP1 POP DUP3 DUP2 MSTORE PUSH1 0x20 DUP2 ADD DUP5 DUP5 DUP5 ADD GT ISZERO PUSH3 0xE72 JUMPI PUSH3 0xE71 PUSH3 0xD65 JUMP JUMPDEST JUMPDEST PUSH3 0xE7F DUP5 DUP3 DUP6 PUSH3 0xE2F JUMP JUMPDEST POP SWAP4 SWAP3 POP POP POP JUMP JUMPDEST PUSH0 DUP3 PUSH1 0x1F DUP4 ADD SLT PUSH3 0xE9E JUMPI PUSH3 0xE9D PUSH3 0xAC6 JUMP JUMPDEST JUMPDEST DUP2 CALLDATALOAD PUSH3 0xEB0 DUP5 DUP3 PUSH1 0x20 DUP7 ADD PUSH3 0xE3D JUMP JUMPDEST SWAP2 POP POP SWAP3 SWAP2 POP POP JUMP JUMPDEST PUSH0 PUSH1 0x20 DUP3 DUP5 SUB SLT ISZERO PUSH3 0xED1 JUMPI PUSH3 0xED0 PUSH3 0x9FD JUMP JUMPDEST JUMPDEST PUSH0 DUP3 ADD CALLDATALOAD PUSH8 0xFFFFFFFFFFFFFFFF DUP2 GT ISZERO PUSH3 0xEF1 JUMPI PUSH3 0xEF0 PUSH3 0xA01 JUMP JUMPDEST JUMPDEST PUSH3 0xEFF DUP5 DUP3 DUP6 ADD PUSH3 0xE87 JUMP JUMPDEST SWAP2 POP POP SWAP3 SWAP2 POP POP JUMP JUMPDEST PUSH0 DUP2 SWAP1 POP SWAP3 SWAP2 POP POP JUMP JUMPDEST PUSH0 PUSH3 0xF1F DUP4 DUP6 PUSH3 0xF08 JUMP JUMPDEST SWAP4 POP PUSH3 0xF2E DUP4 DUP6 DUP5 PUSH3 0xE2F JUMP JUMPDEST DUP3 DUP5 ADD SWAP1 POP SWAP4 SWAP3 POP POP POP JUMP JUMPDEST PUSH0 PUSH3 0xF48 DUP3 DUP5 DUP7 PUSH3 0xF12 JUMP JUMPDEST SWAP2 POP DUP2 SWAP1 POP SWAP4 SWAP3 POP POP POP JUMP JUMPDEST PUSH0 DUP3 DUP3 MSTORE PUSH1 0x20 DUP3 ADD SWAP1 POP SWAP3 SWAP2 POP POP JUMP JUMPDEST PUSH32 0x57616C6C6574206E6F7420666F756E6400000000000000000000000000000000 PUSH0 DUP3 ADD MSTORE POP JUMP JUMPDEST PUSH0 PUSH3 0xF9A PUSH1 0x10 DUP4 PUSH3 0xF54 JUMP JUMPDEST SWAP2 POP PUSH3 0xFA7 DUP3 PUSH3 0xF64 JUMP JUMPDEST PUSH1 0x20 DUP3 ADD SWAP1 POP SWAP2 SWAP1 POP JUMP JUMPDEST PUSH0 PUSH1 0x20 DUP3 ADD SWAP1 POP DUP2 DUP2 SUB PUSH0 DUP4 ADD MSTORE PUSH3 0xFCB DUP2 PUSH3 0xF8C JUMP JUMPDEST SWAP1 POP SWAP2 SWAP1 POP JUMP JUMPDEST PUSH0 PUSH1 0x40 DUP3 ADD SWAP1 POP PUSH3 0xFE7 PUSH0 DUP4 ADD DUP6 PUSH3 0xBB5 JUMP JUMPDEST PUSH3 0xFF6 PUSH1 0x20 DUP4 ADD DUP5 PUSH3 0xBEA JUMP JUMPDEST SWAP4 SWAP3 POP POP POP JUMP JUMPDEST PUSH0 DUP1 REVERT JUMPDEST PUSH0 DUP1 REVERT JUMPDEST PUSH0 DUP2 SWAP1 POP SWAP2 SWAP1 POP JUMP JUMPDEST PUSH3 0x1019 DUP2 PUSH3 0x1005 JUMP JUMPDEST DUP2 EQ PUSH3 0x1024 JUMPI PUSH0 DUP1 REVERT JUMPDEST POP JUMP JUMPDEST PUSH0 DUP2 CALLDATALOAD SWAP1 POP PUSH3 0x1037 DUP2 PUSH3 0x100E JUMP JUMPDEST SWAP3 SWAP2 POP POP JUMP JUMPDEST PUSH0 PUSH8 0xFFFFFFFFFFFFFFFF DUP3 AND SWAP1 POP SWAP2 SWAP1 POP JUMP JUMPDEST PUSH3 0x105B DUP2 PUSH3 0x103D JUMP JUMPDEST DUP2 EQ PUSH3 0x1066 JUMPI PUSH0 DUP1 REVERT JUMPDEST POP JUMP JUMPDEST PUSH0 DUP2 CALLDATALOAD SWAP1 POP PUSH3 0x1079 DUP2 PUSH3 0x1050 JUMP JUMPDEST SWAP3 SWAP2 POP POP JUMP JUMPDEST PUSH0 PUSH8 0xFFFFFFFFFFFFFFFF DUP3 GT ISZERO PUSH3 0x109C JUMPI PUSH3 0x109B PUSH3 0xD79 JUMP JUMPDEST JUMPDEST PUSH3 0x10A7 DUP3 PUSH3 0xD69 JUMP JUMPDEST SWAP1 POP PUSH1 0x20 DUP2 ADD SWAP1 POP SWAP2 SWAP1 POP JUMP JUMPDEST PUSH0 PUSH3 0x10CA PUSH3 0x10C4 DUP5 PUSH3 0x107F JUMP JUMPDEST PUSH3 0xDDC JUMP JUMPDEST SWAP1 POP DUP3 DUP2 MSTORE PUSH1 0x20 DUP2 ADD DUP5 DUP5 DUP5 ADD GT ISZERO PUSH3 0x10E9 JUMPI PUSH3 0x10E8 PUSH3 0xD65 JUMP JUMPDEST JUMPDEST PUSH3 0x10F6 DUP5 DUP3 DUP6 PUSH3 0xE2F JUMP JUMPDEST POP SWAP4 SWAP3 POP POP POP JUMP JUMPDEST PUSH0 DUP3 PUSH1 0x1F DUP4 ADD SLT PUSH3 0x1115 JUMPI PUSH3 0x1114 PUSH3 0xAC6 JUMP JUMPDEST JUMPDEST DUP2 CALLDATALOAD PUSH3 0x1127 DUP5 DUP3 PUSH1 0x20 DUP7 ADD PUSH3 0x10B4 JUMP JUMPDEST SWAP2 POP POP SWAP3 SWAP2 POP POP JUMP JUMPDEST PUSH0 PUSH8 0xFFFFFFFFFFFFFFFF DUP3 GT ISZERO PUSH3 0x114D JUMPI PUSH3 0x114C PUSH3 0xD79 JUMP JUMPDEST JUMPDEST PUSH1 0x20 DUP3 MUL SWAP1 POP PUSH1 0x20 DUP2 ADD SWAP1 POP SWAP2 SWAP1 POP JUMP JUMPDEST PUSH0 PUSH1 0x40 DUP3 DUP5 SUB SLT ISZERO PUSH3 0x1176 JUMPI PUSH3 0x1175 PUSH3 0xFFD JUMP JUMPDEST JUMPDEST PUSH3 0x1182 PUSH1 0x40 PUSH3 0xDDC JUMP JUMPDEST SWAP1 POP PUSH0 PUSH3 0x1193 DUP5 DUP3 DUP6 ADD PUSH3 0xC2F JUMP JUMPDEST PUSH0 DUP4 ADD MSTORE POP PUSH1 0x20 PUSH3 0x11A8 DUP5 DUP3 DUP6 ADD PUSH3 0xC5E JUMP JUMPDEST PUSH1 0x20 DUP4 ADD MSTORE POP SWAP3 SWAP2 POP POP JUMP JUMPDEST PUSH0 PUSH3 0x11CA PUSH3 0x11C4 DUP5 PUSH3 0x1130 JUMP JUMPDEST PUSH3 0xDDC JUMP JUMPDEST SWAP1 POP DUP1 DUP4 DUP3 MSTORE PUSH1 0x20 DUP3 ADD SWAP1 POP PUSH1 0x40 DUP5 MUL DUP4 ADD DUP6 DUP2 GT ISZERO PUSH3 0x11F0 JUMPI PUSH3 0x11EF PUSH3 0xACE JUMP JUMPDEST JUMPDEST DUP4 JUMPDEST DUP2 DUP2 LT ISZERO PUSH3 0x121D JUMPI DUP1 PUSH3 0x1208 DUP9 DUP3 PUSH3 0x115E JUMP JUMPDEST DUP5 MSTORE PUSH1 0x20 DUP5 ADD SWAP4 POP POP PUSH1 0x40 DUP2 ADD SWAP1 POP PUSH3 0x11F2 JUMP JUMPDEST POP POP POP SWAP4 SWAP3 POP POP POP JUMP JUMPDEST PUSH0 DUP3 PUSH1 0x1F DUP4 ADD SLT PUSH3 0x123E JUMPI PUSH3 0x123D PUSH3 0xAC6 JUMP JUMPDEST JUMPDEST DUP2 CALLDATALOAD PUSH3 0x1250 DUP5 DUP3 PUSH1 0x20 DUP7 ADD PUSH3 0x11B4 JUMP JUMPDEST SWAP2 POP POP SWAP3 SWAP2 POP POP JUMP JUMPDEST PUSH0 PUSH1 0xA0 DUP3 DUP5 SUB SLT ISZERO PUSH3 0x1271 JUMPI PUSH3 0x1270 PUSH3 0xFFD JUMP JUMPDEST JUMPDEST PUSH3 0x127D PUSH1 0xA0 PUSH3 0xDDC JUMP JUMPDEST SWAP1 POP PUSH0 PUSH3 0x128E DUP5 DUP3 DUP6 ADD PUSH3 0x1027 JUMP JUMPDEST PUSH0 DUP4 ADD MSTORE POP PUSH1 0x20 PUSH3 0x12A3 DUP5 DUP3 DUP6 ADD PUSH3 0x1069 JUMP JUMPDEST PUSH1 0x20 DUP4 ADD MSTORE POP PUSH1 0x40 DUP3 ADD CALLDATALOAD PUSH8 0xFFFFFFFFFFFFFFFF DUP2 GT ISZERO PUSH3 0x12CA JUMPI PUSH3 0x12C9 PUSH3 0x1001 JUMP JUMPDEST JUMPDEST PUSH3 0x12D8 DUP5 DUP3 DUP6 ADD PUSH3 0x10FE JUMP JUMPDEST PUSH1 0x40 DUP4 ADD MSTORE POP PUSH1 0x60 DUP3 ADD CALLDATALOAD PUSH8 0xFFFFFFFFFFFFFFFF DUP2 GT ISZERO PUSH3 0x12FF JUMPI PUSH3 0x12FE PUSH3 0x1001 JUMP JUMPDEST JUMPDEST PUSH3 0x130D DUP5 DUP3 DUP6 ADD PUSH3 0x10FE JUMP JUMPDEST PUSH1 0x60 DUP4 ADD MSTORE POP PUSH1 0x80 DUP3 ADD CALLDATALOAD PUSH8 0xFFFFFFFFFFFFFFFF DUP2 GT ISZERO PUSH3 0x1334 JUMPI PUSH3 0x1333 PUSH3 0x1001 JUMP JUMPDEST JUMPDEST PUSH3 0x1342 DUP5 DUP3 DUP6 ADD PUSH3 0x1227 JUMP JUMPDEST PUSH1 0x80 DUP4 ADD MSTORE POP SWAP3 SWAP2 POP POP JUMP JUMPDEST PUSH0 PUSH3 0x135B CALLDATASIZE DUP4 PUSH3 0x1259 JUMP JUMPDEST SWAP1 POP SWAP2 SWAP1 POP JUMP JUMPDEST PUSH0 DUP2 MLOAD SWAP1 POP SWAP2 SWAP1 POP JUMP JUMPDEST PUSH0 DUP2 SWAP1 POP SWAP3 SWAP2 POP POP JUMP JUMPDEST PUSH0 JUMPDEST DUP4 DUP2 LT ISZERO PUSH3 0x1395 JUMPI DUP1 DUP3 ADD MLOAD DUP2 DUP5 ADD MSTORE PUSH1 0x20 DUP2 ADD SWAP1 POP PUSH3 0x1378 JUMP JUMPDEST PUSH0 DUP5 DUP5 ADD MSTORE POP POP POP POP JUMP JUMPDEST PUSH0 PUSH3 0x13AC DUP3 PUSH3 0x1362 JUMP JUMPDEST PUSH3 0x13B8 DUP2 DUP6 PUSH3 0x136C JUMP JUMPDEST SWAP4 POP PUSH3 0x13CA DUP2 DUP6 PUSH1 0x20 DUP7 ADD PUSH3 0x1376 JUMP JUMPDEST DUP1 DUP5 ADD SWAP2 POP POP SWAP3 SWAP2 POP POP JUMP JUMPDEST PUSH0 PUSH3 0x13E3 DUP3 DUP5 PUSH3 0x13A0 JUMP JUMPDEST SWAP2 POP DUP2 SWAP1 POP SWAP3 SWAP2 POP POP JUMP JUMPDEST PUSH32 0x4465706F736974206661696C6564000000000000000000000000000000000000 PUSH0 DUP3 ADD MSTORE POP JUMP JUMPDEST PUSH0 PUSH3 0x1424 PUSH1 0xE DUP4 PUSH3 0xF54 JUMP JUMPDEST SWAP2 POP PUSH3 0x1431 DUP3 PUSH3 0x13EE JUMP JUMPDEST PUSH1 0x20 DUP3 ADD SWAP1 POP SWAP2 SWAP1 POP JUMP JUMPDEST PUSH0 PUSH1 0x20 DUP3 ADD SWAP1 POP DUP2 DUP2 SUB PUSH0 DUP4 ADD MSTORE PUSH3 0x1455 DUP2 PUSH3 0x1416 JUMP JUMPDEST SWAP1 POP SWAP2 SWAP1 POP JUMP JUMPDEST PUSH0 PUSH3 0x1472 PUSH3 0x146C DUP5 PUSH3 0xDFA JUMP JUMPDEST PUSH3 0xDDC JUMP JUMPDEST SWAP1 POP DUP3 DUP2 MSTORE PUSH1 0x20 DUP2 ADD DUP5 DUP5 DUP5 ADD GT ISZERO PUSH3 0x1491 JUMPI PUSH3 0x1490 PUSH3 0xD65 JUMP JUMPDEST JUMPDEST PUSH3 0x149E DUP5 DUP3 DUP6 PUSH3 0x1376 JUMP JUMPDEST POP SWAP4 SWAP3 POP POP POP JUMP JUMPDEST PUSH0 DUP3 PUSH1 0x1F DUP4 ADD SLT PUSH3 0x14BD JUMPI PUSH3 0x14BC PUSH3 0xAC6 JUMP JUMPDEST JUMPDEST DUP2 MLOAD PUSH3 0x14CF DUP5 DUP3 PUSH1 0x20 DUP7 ADD PUSH3 0x145C JUMP JUMPDEST SWAP2 POP POP SWAP3 SWAP2 POP POP JUMP JUMPDEST PUSH0 DUP2 MLOAD SWAP1 POP PUSH3 0x14E8 DUP2 PUSH3 0xC45 JUMP JUMPDEST SWAP3 SWAP2 POP POP JUMP JUMPDEST PUSH0 PUSH1 0x60 DUP3 DUP5 SUB SLT ISZERO PUSH3 0x1506 JUMPI PUSH3 0x1505 PUSH3 0xFFD JUMP JUMPDEST JUMPDEST PUSH3 0x1512 PUSH1 0x60 PUSH3 0xDDC JUMP JUMPDEST SWAP1 POP PUSH0 DUP3 ADD MLOAD PUSH8 0xFFFFFFFFFFFFFFFF DUP2 GT ISZERO PUSH3 0x1534 JUMPI PUSH3 0x1533 PUSH3 0x1001 JUMP JUMPDEST JUMPDEST PUSH3 0x1542 DUP5 DUP3 DUP6 ADD PUSH3 0x14A6 JUMP JUMPDEST PUSH0 DUP4 ADD MSTORE POP PUSH1 0x20 DUP3 ADD MLOAD PUSH8 0xFFFFFFFFFFFFFFFF DUP2 GT ISZERO PUSH3 0x1568 JUMPI PUSH3 0x1567 PUSH3 0x1001 JUMP JUMPDEST JUMPDEST PUSH3 0x1576 DUP5 DUP3 DUP6 ADD PUSH3 0x14A6 JUMP JUMPDEST PUSH1 0x20 DUP4 ADD MSTORE POP PUSH1 0x40 PUSH3 0x158C DUP5 DUP3 DUP6 ADD PUSH3 0x14D8 JUMP JUMPDEST PUSH1 0x40 DUP4 ADD MSTORE POP SWAP3 SWAP2 POP POP JUMP JUMPDEST PUSH0 PUSH1 0x20 DUP3 DUP5 SUB SLT ISZERO PUSH3 0x15B0 JUMPI PUSH3 0x15AF PUSH3 0x9FD JUMP JUMPDEST JUMPDEST PUSH0 DUP3 ADD MLOAD PUSH8 0xFFFFFFFFFFFFFFFF DUP2 GT ISZERO PUSH3 0x15D0 JUMPI PUSH3 0x15CF PUSH3 0xA01 JUMP JUMPDEST JUMPDEST PUSH3 0x15DE DUP5 DUP3 DUP6 ADD PUSH3 0x14EE JUMP JUMPDEST SWAP2 POP POP SWAP3 SWAP2 POP POP JUMP JUMPDEST PUSH0 DUP2 MLOAD SWAP1 POP SWAP2 SWAP1 POP JUMP JUMPDEST PUSH0 PUSH3 0x15FD DUP3 PUSH3 0x15E7 JUMP JUMPDEST PUSH3 0x1609 DUP2 DUP6 PUSH3 0xF08 JUMP JUMPDEST SWAP4 POP PUSH3 0x161B DUP2 DUP6 PUSH1 0x20 DUP7 ADD PUSH3 0x1376 JUMP JUMPDEST DUP1 DUP5 ADD SWAP2 POP POP SWAP3 SWAP2 POP POP JUMP JUMPDEST PUSH0 PUSH3 0x1634 DUP3 DUP5 PUSH3 0x15F1 JUMP JUMPDEST SWAP2 POP DUP2 SWAP1 POP SWAP3 SWAP2 POP POP JUMP JUMPDEST PUSH0 PUSH3 0x164B DUP3 PUSH3 0x15E7 JUMP JUMPDEST PUSH3 0x1657 DUP2 DUP6 PUSH3 0xF54 JUMP JUMPDEST SWAP4 POP PUSH3 0x1669 DUP2 DUP6 PUSH1 0x20 DUP7 ADD PUSH3 0x1376 JUMP JUMPDEST PUSH3 0x1674 DUP2 PUSH3 0xD69 JUMP JUMPDEST DUP5 ADD SWAP2 POP POP SWAP3 SWAP2 POP POP JUMP JUMPDEST PUSH0 PUSH1 0x40 DUP3 ADD SWAP1 POP PUSH3 0x1694 PUSH0 DUP4 ADD DUP6 PUSH3 0xBB5 JUMP JUMPDEST DUP2 DUP2 SUB PUSH1 0x20 DUP4 ADD MSTORE PUSH3 0x16A8 DUP2 DUP5 PUSH3 0x163F JUMP JUMPDEST SWAP1 POP SWAP4 SWAP3 POP POP POP JUMP JUMPDEST PUSH0 PUSH1 0x40 DUP3 ADD SWAP1 POP DUP2 DUP2 SUB PUSH0 DUP4 ADD MSTORE PUSH3 0x16CB DUP2 DUP6 PUSH3 0x163F JUMP JUMPDEST SWAP1 POP PUSH3 0x16DC PUSH1 0x20 DUP4 ADD DUP5 PUSH3 0xBB5 JUMP JUMPDEST SWAP4 SWAP3 POP POP POP JUMP INVALID PUSH1 0x80 PUSH1 0x40 MSTORE CALLVALUE DUP1 ISZERO PUSH3 0x10 JUMPI PUSH0 DUP1 REVERT JUMPDEST POP PUSH1 0x40 MLOAD PUSH3 0xE62 CODESIZE SUB DUP1 PUSH3 0xE62 DUP4 CODECOPY DUP2 DUP2 ADD PUSH1 0x40 MSTORE DUP2 ADD SWAP1 PUSH3 0x36 SWAP2 SWAP1 PUSH3 0x275 JUMP JUMPDEST DUP2 PUSH0 DUP1 PUSH2 0x100 EXP DUP2 SLOAD DUP2 PUSH20 0xFFFFFFFFFFFFFFFFFFFFFFFFFFFFFFFFFFFFFFFF MUL NOT AND SWAP1 DUP4 PUSH20 0xFFFFFFFFFFFFFFFFFFFFFFFFFFFFFFFFFFFFFFFF AND MUL OR SWAP1 SSTORE POP DUP1 PUSH1 0x1 SWAP1 DUP2 PUSH3 0x86 SWAP2 SWAP1 PUSH3 0x510 JUMP JUMPDEST POP POP POP PUSH3 0x5F4 JUMP JUMPDEST PUSH0 PUSH1 0x40 MLOAD SWAP1 POP SWAP1 JUMP JUMPDEST PUSH0 DUP1 REVERT JUMPDEST PUSH0 DUP1 REVERT JUMPDEST PUSH0 PUSH20 0xFFFFFFFFFFFFFFFFFFFFFFFFFFFFFFFFFFFFFFFF DUP3 AND SWAP1 POP SWAP2 SWAP1 POP JUMP JUMPDEST PUSH0 PUSH3 0xCB DUP3 PUSH3 0xA0 JUMP JUMPDEST SWAP1 POP SWAP2 SWAP1 POP JUMP JUMPDEST PUSH3 0xDD DUP2 PUSH3 0xBF JUMP JUMPDEST DUP2 EQ PUSH3 0xE8 JUMPI PUSH0 DUP1 REVERT JUMPDEST POP JUMP JUMPDEST PUSH0 DUP2 MLOAD SWAP1 POP PUSH3 0xFB DUP2 PUSH3 0xD2 JUMP JUMPDEST SWAP3 SWAP2 POP POP JUMP JUMPDEST PUSH0 DUP1 REVERT JUMPDEST PUSH0 DUP1 REVERT JUMPDEST PUSH0 PUSH1 0x1F NOT PUSH1 0x1F DUP4 ADD AND SWAP1 POP SWAP2 SWAP1 POP JUMP JUMPDEST PUSH32 0x4E487B7100000000000000000000000000000000000000000000000000000000 PUSH0 MSTORE PUSH1 0x41 PUSH1 0x4 MSTORE PUSH1 0x24 PUSH0 REVERT JUMPDEST PUSH3 0x151 DUP3 PUSH3 0x109 JUMP JUMPDEST DUP2 ADD DUP2 DUP2 LT PUSH8 0xFFFFFFFFFFFFFFFF DUP3 GT OR ISZERO PUSH3 0x173 JUMPI PUSH3 0x172 PUSH3 0x119 JUMP JUMPDEST JUMPDEST DUP1 PUSH1 0x40 MSTORE POP POP POP JUMP JUMPDEST PUSH0 PUSH3 0x187 PUSH3 0x8F JUMP JUMPDEST SWAP1 POP PUSH3 0x195 DUP3 DUP3 PUSH3 0x146 JUMP JUMPDEST SWAP2 SWAP1 POP JUMP JUMPDEST PUSH0 PUSH8 0xFFFFFFFFFFFFFFFF DUP3 GT ISZERO PUSH3 0x1B7 JUMPI PUSH3 0x1B6 PUSH3 0x119 JUMP JUMPDEST JUMPDEST PUSH3 0x1C2 DUP3 PUSH3 0x109 JUMP JUMPDEST SWAP1 POP PUSH1 0x20 DUP2 ADD SWAP1 POP SWAP2 SWAP1 POP JUMP JUMPDEST PUSH0 JUMPDEST DUP4 DUP2 LT ISZERO PUSH3 0x1EE JUMPI DUP1 DUP3 ADD MLOAD DUP2 DUP5 ADD MSTORE PUSH1 0x20 DUP2 ADD SWAP1 POP PUSH3 0x1D1 JUMP JUMPDEST PUSH0 DUP5 DUP5 ADD MSTORE POP POP POP POP JUMP JUMPDEST PUSH0 PUSH3 0x20F PUSH3 0x209 DUP5 PUSH3 0x19A JUMP JUMPDEST PUSH3 0x17C JUMP JUMPDEST SWAP1 POP DUP3 DUP2 MSTORE PUSH1 0x20 DUP2 ADD DUP5 DUP5 DUP5 ADD GT ISZERO PUSH3 0x22E JUMPI PUSH3 0x22D PUSH3 0x105 JUMP JUMPDEST JUMPDEST PUSH3 0x23B DUP5 DUP3 DUP6 PUSH3 0x1CF JUMP JUMPDEST POP SWAP4 SWAP3 POP POP POP JUMP JUMPDEST PUSH0 DUP3 PUSH1 0x1F DUP4 ADD SLT PUSH3 0x25A JUMPI PUSH3 0x259 PUSH3 0x101 JUMP JUMPDEST JUMPDEST DUP2 MLOAD PUSH3 0x26C DUP5 DUP3 PUSH1 0x20 DUP7 ADD PUSH3 0x1F9 JUMP JUMPDEST SWAP2 POP POP SWAP3 SWAP2 POP POP JUMP JUMPDEST PUSH0 DUP1 PUSH1 0x40 DUP4 DUP6 SUB SLT ISZERO PUSH3 0x28E JUMPI PUSH3 0x28D PUSH3 0x98 JUMP JUMPDEST JUMPDEST PUSH0 PUSH3 0x29D DUP6 DUP3 DUP7 ADD PUSH3 0xEB JUMP JUMPDEST SWAP3 POP POP PUSH1 0x20 DUP4 ADD MLOAD PUSH8 0xFFFFFFFFFFFFFFFF DUP2 GT ISZERO PUSH3 0x2C1 JUMPI PUSH3 0x2C0 PUSH3 0x9C JUMP JUMPDEST JUMPDEST PUSH3 0x2CF DUP6 DUP3 DUP7 ADD PUSH3 0x243 JUMP JUMPDEST SWAP2 POP POP SWAP3 POP SWAP3 SWAP1 POP JUMP JUMPDEST PUSH0 DUP2 MLOAD SWAP1 POP SWAP2 SWAP1 POP JUMP JUMPDEST PUSH32 0x4E487B7100000000000000000000000000000000000000000000000000000000 PUSH0 MSTORE PUSH1 0x22 PUSH1 0x4 MSTORE PUSH1 0x24 PUSH0 REVERT JUMPDEST PUSH0 PUSH1 0x2 DUP3 DIV SWAP1 POP PUSH1 0x1 DUP3 AND DUP1 PUSH3 0x328 JUMPI PUSH1 0x7F DUP3 AND SWAP2 POP JUMPDEST PUSH1 0x20 DUP3 LT DUP2 SUB PUSH3 0x33E JUMPI PUSH3 0x33D PUSH3 0x2E3 JUMP JUMPDEST JUMPDEST POP SWAP2 SWAP1 POP JUMP JUMPDEST PUSH0 DUP2 SWAP1 POP DUP2 PUSH0 MSTORE PUSH1 0x20 PUSH0 KECCAK256 SWAP1 POP SWAP2 SWAP1 POP JUMP JUMPDEST PUSH0 PUSH1 0x20 PUSH1 0x1F DUP4 ADD DIV SWAP1 POP SWAP2 SWAP1 POP JUMP JUMPDEST PUSH0 DUP3 DUP3 SHL SWAP1 POP SWAP3 SWAP2 POP POP JUMP JUMPDEST PUSH0 PUSH1 0x8 DUP4 MUL PUSH3 0x3A2 PUSH32 0xFFFFFFFFFFFFFFFFFFFFFFFFFFFFFFFFFFFFFFFFFFFFFFFFFFFFFFFFFFFFFFFF DUP3 PUSH3 0x365 JUMP JUMPDEST PUSH3 0x3AE DUP7 DUP4 PUSH3 0x365 JUMP JUMPDEST SWAP6 POP DUP1 NOT DUP5 AND SWAP4 POP DUP1 DUP7 AND DUP5 OR SWAP3 POP POP POP SWAP4 SWAP3 POP POP POP JUMP JUMPDEST PUSH0 DUP2 SWAP1 POP SWAP2 SWAP1 POP JUMP JUMPDEST PUSH0 DUP2 SWAP1 POP SWAP2 SWAP1 POP JUMP JUMPDEST PUSH0 PUSH3 0x3F8 PUSH3 0x3F2 PUSH3 0x3EC DUP5 PUSH3 0x3C6 JUMP JUMPDEST PUSH3 0x3CF JUMP JUMPDEST PUSH3 0x3C6 JUMP JUMPDEST SWAP1 POP SWAP2 SWAP1 POP JUMP JUMPDEST PUSH0 DUP2 SWAP1 POP SWAP2 SWAP1 POP JUMP JUMPDEST PUSH3 0x413 DUP4 PUSH3 0x3D8 JUMP JUMPDEST PUSH3 0x42B PUSH3 0x422 DUP3 PUSH3 0x3FF JUMP JUMPDEST DUP5 DUP5 SLOAD PUSH3 0x371 JUMP JUMPDEST DUP3 SSTORE POP POP POP POP JUMP JUMPDEST PUSH0 SWAP1 JUMP JUMPDEST PUSH3 0x441 PUSH3 0x433 JUMP JUMPDEST PUSH3 0x44E DUP2 DUP5 DUP5 PUSH3 0x408 JUMP JUMPDEST POP POP POP JUMP JUMPDEST JUMPDEST DUP2 DUP2 LT ISZERO PUSH3 0x475 JUMPI PUSH3 0x469 PUSH0 DUP3 PUSH3 0x437 JUMP JUMPDEST PUSH1 0x1 DUP2 ADD SWAP1 POP PUSH3 0x454 JUMP JUMPDEST POP POP JUMP JUMPDEST PUSH1 0x1F DUP3 GT ISZERO PUSH3 0x4C4 JUMPI PUSH3 0x48E DUP2 PUSH3 0x344 JUMP JUMPDEST PUSH3 0x499 DUP5 PUSH3 0x356 JUMP JUMPDEST DUP2 ADD PUSH1 0x20 DUP6 LT ISZERO PUSH3 0x4A9 JUMPI DUP2 SWAP1 POP JUMPDEST PUSH3 0x4C1 PUSH3 0x4B8 DUP6 PUSH3 0x356 JUMP JUMPDEST DUP4 ADD DUP3 PUSH3 0x453 JUMP JUMPDEST POP POP JUMPDEST POP POP POP JUMP JUMPDEST PUSH0 DUP3 DUP3 SHR SWAP1 POP SWAP3 SWAP2 POP POP JUMP JUMPDEST PUSH0 PUSH3 0x4E6 PUSH0 NOT DUP5 PUSH1 0x8 MUL PUSH3 0x4C9 JUMP JUMPDEST NOT DUP1 DUP4 AND SWAP2 POP POP SWAP3 SWAP2 POP POP JUMP JUMPDEST PUSH0 PUSH3 0x500 DUP4 DUP4 PUSH3 0x4D5 JUMP JUMPDEST SWAP2 POP DUP3 PUSH1 0x2 MUL DUP3 OR SWAP1 POP SWAP3 SWAP2 POP POP JUMP JUMPDEST PUSH3 0x51B DUP3 PUSH3 0x2D9 JUMP JUMPDEST PUSH8 0xFFFFFFFFFFFFFFFF DUP2 GT ISZERO PUSH3 0x537 JUMPI PUSH3 0x536 PUSH3 0x119 JUMP JUMPDEST JUMPDEST PUSH3 0x543 DUP3 SLOAD PUSH3 0x310 JUMP JUMPDEST PUSH3 0x550 DUP3 DUP3 DUP6 PUSH3 0x479 JUMP JUMPDEST PUSH0 PUSH1 0x20 SWAP1 POP PUSH1 0x1F DUP4 GT PUSH1 0x1 DUP2 EQ PUSH3 0x586 JUMPI PUSH0 DUP5 ISZERO PUSH3 0x571 JUMPI DUP3 DUP8 ADD MLOAD SWAP1 POP JUMPDEST PUSH3 0x57D DUP6 DUP3 PUSH3 0x4F3 JUMP JUMPDEST DUP7 SSTORE POP PUSH3 0x5EC JUMP JUMPDEST PUSH1 0x1F NOT DUP5 AND PUSH3 0x596 DUP7 PUSH3 0x344 JUMP JUMPDEST PUSH0 JUMPDEST DUP3 DUP2 LT ISZERO PUSH3 0x5BF JUMPI DUP5 DUP10 ADD MLOAD DUP3 SSTORE PUSH1 0x1 DUP3 ADD SWAP2 POP PUSH1 0x20 DUP6 ADD SWAP5 POP PUSH1 0x20 DUP2 ADD SWAP1 POP PUSH3 0x598 JUMP JUMPDEST DUP7 DUP4 LT ISZERO PUSH3 0x5DF JUMPI DUP5 DUP10 ADD MLOAD PUSH3 0x5DB PUSH1 0x1F DUP10 AND DUP3 PUSH3 0x4D5 JUMP JUMPDEST DUP4 SSTORE POP JUMPDEST PUSH1 0x1 PUSH1 0x2 DUP9 MUL ADD DUP9 SSTORE POP POP POP JUMPDEST POP POP POP POP POP POP JUMP JUMPDEST PUSH2 0x860 DUP1 PUSH3 0x602 PUSH0 CODECOPY PUSH0 RETURN INVALID PUSH1 0x80 PUSH1 0x40 MSTORE PUSH1 0x4 CALLDATASIZE LT PUSH2 0x54 JUMPI PUSH0 CALLDATALOAD PUSH1 0xE0 SHR DUP1 PUSH4 0x19C08F5 EQ PUSH2 0x58 JUMPI DUP1 PUSH4 0xB69EF8A8 EQ PUSH2 0x82 JUMPI DUP1 PUSH4 0xC71DACCB EQ PUSH2 0xAC JUMPI DUP1 PUSH4 0xD0E30DB0 EQ PUSH2 0xD6 JUMPI DUP1 PUSH4 0xF3FEF3A3 EQ PUSH2 0xE0 JUMPI DUP1 PUSH4 0xF77C4791 EQ PUSH2 0x108 JUMPI JUMPDEST PUSH0 DUP1 REVERT JUMPDEST CALLVALUE DUP1 ISZERO PUSH2 0x63 JUMPI PUSH0 DUP1 REVERT JUMPDEST POP PUSH2 0x6C PUSH2 0x132 JUMP JUMPDEST PUSH1 0x40 MLOAD PUSH2 0x79 SWAP2 SWAP1 PUSH2 0x504 JUMP JUMPDEST PUSH1 0x40 MLOAD DUP1 SWAP2 SUB SWAP1 RETURN JUMPDEST CALLVALUE DUP1 ISZERO PUSH2 0x8D JUMPI PUSH0 DUP1 REVERT JUMPDEST POP PUSH2 0x96 PUSH2 0x1BE JUMP JUMPDEST PUSH1 0x40 MLOAD PUSH2 0xA3 SWAP2 SWAP1 PUSH2 0x53C JUMP JUMPDEST PUSH1 0x40 MLOAD DUP1 SWAP2 SUB SWAP1 RETURN JUMPDEST CALLVALUE DUP1 ISZERO PUSH2 0xB7 JUMPI PUSH0 DUP1 REVERT JUMPDEST POP PUSH2 0xC0 PUSH2 0x1C4 JUMP JUMPDEST PUSH1 0x40 MLOAD PUSH2 0xCD SWAP2 SWAP1 PUSH2 0x53C JUMP JUMPDEST PUSH1 0x40 MLOAD DUP1 SWAP2 SUB SWAP1 RETURN JUMPDEST PUSH2 0xDE PUSH2 0x1CD JUMP JUMPDEST STOP JUMPDEST CALLVALUE DUP1 ISZERO PUSH2 0xEB JUMPI PUSH0 DUP1 REVERT JUMPDEST POP PUSH2 0x106 PUSH1 0x4 DUP1 CALLDATASIZE SUB DUP2 ADD SWAP1 PUSH2 0x101 SWAP2 SWAP1 PUSH2 0x5DD JUMP JUMPDEST PUSH2 0x297 JUMP JUMPDEST STOP JUMPDEST CALLVALUE DUP1 ISZERO PUSH2 0x113 JUMPI PUSH0 DUP1 REVERT JUMPDEST POP PUSH2 0x11C PUSH2 0x457 JUMP JUMPDEST PUSH1 0x40 MLOAD PUSH2 0x129 SWAP2 SWAP1 PUSH2 0x62A JUMP JUMPDEST PUSH1 0x40 MLOAD DUP1 SWAP2 SUB SWAP1 RETURN JUMPDEST PUSH1 0x1 DUP1 SLOAD PUSH2 0x13F SWAP1 PUSH2 0x670 JUMP JUMPDEST DUP1 PUSH1 0x1F ADD PUSH1 0x20 DUP1 SWAP2 DIV MUL PUSH1 0x20 ADD PUSH1 0x40 MLOAD SWAP1 DUP2 ADD PUSH1 0x40 MSTORE DUP1 SWAP3 SWAP2 SWAP1 DUP2 DUP2 MSTORE PUSH1 0x20 ADD DUP3 DUP1 SLOAD PUSH2 0x16B SWAP1 PUSH2 0x670 JUMP JUMPDEST DUP1 ISZERO PUSH2 0x1B6 JUMPI DUP1 PUSH1 0x1F LT PUSH2 0x18D JUMPI PUSH2 0x100 DUP1 DUP4 SLOAD DIV MUL DUP4 MSTORE SWAP2 PUSH1 0x20 ADD SWAP2 PUSH2 0x1B6 JUMP JUMPDEST DUP3 ADD SWAP2 SWAP1 PUSH0 MSTORE PUSH1 0x20 PUSH0 KECCAK256 SWAP1 JUMPDEST DUP2 SLOAD DUP2 MSTORE SWAP1 PUSH1 0x1 ADD SWAP1 PUSH1 0x20 ADD DUP1 DUP4 GT PUSH2 0x199 JUMPI DUP3 SWAP1 SUB PUSH1 0x1F AND DUP3 ADD SWAP2 JUMPDEST POP POP POP POP POP DUP2 JUMP JUMPDEST PUSH1 0x2 SLOAD DUP2 JUMP JUMPDEST PUSH0 PUSH1 0x2 SLOAD SWAP1 POP SWAP1 JUMP JUMPDEST PUSH0 DUP1 SLOAD SWAP1 PUSH2 0x100 EXP SWAP1 DIV PUSH20 0xFFFFFFFFFFFFFFFFFFFFFFFFFFFFFFFFFFFFFFFF AND PUSH20 0xFFFFFFFFFFFFFFFFFFFFFFFFFFFFFFFFFFFFFFFF AND CALLER PUSH20 0xFFFFFFFFFFFFFFFFFFFFFFFFFFFFFFFFFFFFFFFF AND EQ PUSH2 0x27D JUMPI PUSH0 DUP1 SLOAD SWAP1 PUSH2 0x100 EXP SWAP1 DIV PUSH20 0xFFFFFFFFFFFFFFFFFFFFFFFFFFFFFFFFFFFFFFFF AND CALLER PUSH1 0x40 MLOAD PUSH32 0x295A81C100000000000000000000000000000000000000000000000000000000 DUP2 MSTORE PUSH1 0x4 ADD PUSH2 0x274 SWAP3 SWAP2 SWAP1 PUSH2 0x6A0 JUMP JUMPDEST PUSH1 0x40 MLOAD DUP1 SWAP2 SUB SWAP1 REVERT JUMPDEST CALLVALUE PUSH1 0x2 PUSH0 DUP3 DUP3 SLOAD PUSH2 0x28E SWAP2 SWAP1 PUSH2 0x6F4 JUMP JUMPDEST SWAP3 POP POP DUP2 SWAP1 SSTORE POP JUMP JUMPDEST PUSH0 DUP1 SLOAD SWAP1 PUSH2 0x100 EXP SWAP1 DIV PUSH20 0xFFFFFFFFFFFFFFFFFFFFFFFFFFFFFFFFFFFFFFFF AND PUSH20 0xFFFFFFFFFFFFFFFFFFFFFFFFFFFFFFFFFFFFFFFF AND CALLER PUSH20 0xFFFFFFFFFFFFFFFFFFFFFFFFFFFFFFFFFFFFFFFF AND EQ PUSH2 0x347 JUMPI PUSH0 DUP1 SLOAD SWAP1 PUSH2 0x100 EXP SWAP1 DIV PUSH20 0xFFFFFFFFFFFFFFFFFFFFFFFFFFFFFFFFFFFFFFFF AND CALLER PUSH1 0x40 MLOAD PUSH32 0x295A81C100000000000000000000000000000000000000000000000000000000 DUP2 MSTORE PUSH1 0x4 ADD PUSH2 0x33E SWAP3 SWAP2 SWAP1 PUSH2 0x6A0 JUMP JUMPDEST PUSH1 0x40 MLOAD DUP1 SWAP2 SUB SWAP1 REVERT JUMPDEST PUSH1 0x2 SLOAD DUP2 GT ISZERO PUSH2 0x392 JUMPI PUSH1 0x2 SLOAD DUP2 PUSH1 0x40 MLOAD PUSH32 0x3EB8B5400000000000000000000000000000000000000000000000000000000 DUP2 MSTORE PUSH1 0x4 ADD PUSH2 0x389 SWAP3 SWAP2 SWAP1 PUSH2 0x727 JUMP JUMPDEST PUSH1 0x40 MLOAD DUP1 SWAP2 SUB SWAP1 REVERT JUMPDEST DUP1 PUSH1 0x2 PUSH0 DUP3 DUP3 SLOAD PUSH2 0x3A3 SWAP2 SWAP1 PUSH2 0x74E JUMP JUMPDEST SWAP3 POP POP DUP2 SWAP1 SSTORE POP PUSH0 DUP3 PUSH20 0xFFFFFFFFFFFFFFFFFFFFFFFFFFFFFFFFFFFFFFFF AND DUP3 PUSH1 0x40 MLOAD PUSH2 0x3CF SWAP1 PUSH2 0x7AE JUMP JUMPDEST PUSH0 PUSH1 0x40 MLOAD DUP1 DUP4 SUB DUP2 DUP6 DUP8 GAS CALL SWAP3 POP POP POP RETURNDATASIZE DUP1 PUSH0 DUP2 EQ PUSH2 0x409 JUMPI PUSH1 0x40 MLOAD SWAP2 POP PUSH1 0x1F NOT PUSH1 0x3F RETURNDATASIZE ADD AND DUP3 ADD PUSH1 0x40 MSTORE RETURNDATASIZE DUP3 MSTORE RETURNDATASIZE PUSH0 PUSH1 0x20 DUP5 ADD RETURNDATACOPY PUSH2 0x40E JUMP JUMPDEST PUSH1 0x60 SWAP2 POP JUMPDEST POP POP SWAP1 POP DUP1 PUSH2 0x452 JUMPI PUSH1 0x40 MLOAD PUSH32 0x8C379A000000000000000000000000000000000000000000000000000000000 DUP2 MSTORE PUSH1 0x4 ADD PUSH2 0x449 SWAP1 PUSH2 0x80C JUMP JUMPDEST PUSH1 0x40 MLOAD DUP1 SWAP2 SUB SWAP1 REVERT JUMPDEST POP POP POP JUMP JUMPDEST PUSH0 DUP1 SLOAD SWAP1 PUSH2 0x100 EXP SWAP1 DIV PUSH20 0xFFFFFFFFFFFFFFFFFFFFFFFFFFFFFFFFFFFFFFFF AND DUP2 JUMP JUMPDEST PUSH0 DUP2 MLOAD SWAP1 POP SWAP2 SWAP1 POP JUMP JUMPDEST PUSH0 DUP3 DUP3 MSTORE PUSH1 0x20 DUP3 ADD SWAP1 POP SWAP3 SWAP2 POP POP JUMP JUMPDEST PUSH0 JUMPDEST DUP4 DUP2 LT ISZERO PUSH2 0x4B1 JUMPI DUP1 DUP3 ADD MLOAD DUP2 DUP5 ADD MSTORE PUSH1 0x20 DUP2 ADD SWAP1 POP PUSH2 0x496 JUMP JUMPDEST PUSH0 DUP5 DUP5 ADD MSTORE POP POP POP POP JUMP JUMPDEST PUSH0 PUSH1 0x1F NOT PUSH1 0x1F DUP4 ADD AND SWAP1 POP SWAP2 SWAP1 POP JUMP JUMPDEST PUSH0 PUSH2 0x4D6 DUP3 PUSH2 0x47A JUMP JUMPDEST PUSH2 0x4E0 DUP2 DUP6 PUSH2 0x484 JUMP JUMPDEST SWAP4 POP PUSH2 0x4F0 DUP2 DUP6 PUSH1 0x20 DUP7 ADD PUSH2 0x494 JUMP JUMPDEST PUSH2 0x4F9 DUP2 PUSH2 0x4BC JUMP JUMPDEST DUP5 ADD SWAP2 POP POP SWAP3 SWAP2 POP POP JUMP JUMPDEST PUSH0 PUSH1 0x20 DUP3 ADD SWAP1 POP DUP2 DUP2 SUB PUSH0 DUP4 ADD MSTORE PUSH2 0x51C DUP2 DUP5 PUSH2 0x4CC JUMP JUMPDEST SWAP1 POP SWAP3 SWAP2 POP POP JUMP JUMPDEST PUSH0 DUP2 SWAP1 POP SWAP2 SWAP1 POP JUMP JUMPDEST PUSH2 0x536 DUP2 PUSH2 0x524 JUMP JUMPDEST DUP3 MSTORE POP POP JUMP JUMPDEST PUSH0 PUSH1 0x20 DUP3 ADD SWAP1 POP PUSH2 0x54F PUSH0 DUP4 ADD DUP5 PUSH2 0x52D JUMP JUMPDEST SWAP3 SWAP2 POP POP JUMP JUMPDEST PUSH0 DUP1 REVERT JUMPDEST PUSH0 PUSH20 0xFFFFFFFFFFFFFFFFFFFFFFFFFFFFFFFFFFFFFFFF DUP3 AND SWAP1 POP SWAP2 SWAP1 POP JUMP JUMPDEST PUSH0 PUSH2 0x582 DUP3 PUSH2 0x559 JUMP JUMPDEST SWAP1 POP SWAP2 SWAP1 POP JUMP JUMPDEST PUSH2 0x592 DUP2 PUSH2 0x578 JUMP JUMPDEST DUP2 EQ PUSH2 0x59C JUMPI PUSH0 DUP1 REVERT JUMPDEST POP JUMP JUMPDEST PUSH0 DUP2 CALLDATALOAD SWAP1 POP PUSH2 0x5AD DUP2 PUSH2 0x589 JUMP JUMPDEST SWAP3 SWAP2 POP POP JUMP JUMPDEST PUSH2 0x5BC DUP2 PUSH2 0x524 JUMP JUMPDEST DUP2 EQ PUSH2 0x5C6 JUMPI PUSH0 DUP1 REVERT JUMPDEST POP JUMP JUMPDEST PUSH0 DUP2 CALLDATALOAD SWAP1 POP PUSH2 0x5D7 DUP2 PUSH2 0x5B3 JUMP JUMPDEST SWAP3 SWAP2 POP POP JUMP JUMPDEST PUSH0 DUP1 PUSH1 0x40 DUP4 DUP6 SUB SLT ISZERO PUSH2 0x5F3 JUMPI PUSH2 0x5F2 PUSH2 0x555 JUMP JUMPDEST JUMPDEST PUSH0 PUSH2 0x600 DUP6 DUP3 DUP7 ADD PUSH2 0x59F JUMP JUMPDEST SWAP3 POP POP PUSH1 0x20 PUSH2 0x611 DUP6 DUP3 DUP7 ADD PUSH2 0x5C9 JUMP JUMPDEST SWAP2 POP POP SWAP3 POP SWAP3 SWAP1 POP JUMP JUMPDEST PUSH2 0x624 DUP2 PUSH2 0x578 JUMP JUMPDEST DUP3 MSTORE POP POP JUMP JUMPDEST PUSH0 PUSH1 0x20 DUP3 ADD SWAP1 POP PUSH2 0x63D PUSH0 DUP4 ADD DUP5 PUSH2 0x61B JUMP JUMPDEST SWAP3 SWAP2 POP POP JUMP JUMPDEST PUSH32 0x4E487B7100000000000000000000000000000000000000000000000000000000 PUSH0 MSTORE PUSH1 0x22 PUSH1 0x4 MSTORE PUSH1 0x24 PUSH0 REVERT JUMPDEST PUSH0 PUSH1 0x2 DUP3 DIV SWAP1 POP PUSH1 0x1 DUP3 AND DUP1 PUSH2 0x687 JUMPI PUSH1 0x7F DUP3 AND SWAP2 POP JUMPDEST PUSH1 0x20 DUP3 LT DUP2 SUB PUSH2 0x69A JUMPI PUSH2 0x699 PUSH2 0x643 JUMP JUMPDEST JUMPDEST POP SWAP2 SWAP1 POP JUMP JUMPDEST PUSH0 PUSH1 0x40 DUP3 ADD SWAP1 POP PUSH2 0x6B3 PUSH0 DUP4 ADD DUP6 PUSH2 0x61B JUMP JUMPDEST PUSH2 0x6C0 PUSH1 0x20 DUP4 ADD DUP5 PUSH2 0x61B JUMP JUMPDEST SWAP4 SWAP3 POP POP POP JUMP JUMPDEST PUSH32 0x4E487B7100000000000000000000000000000000000000000000000000000000 PUSH0 MSTORE PUSH1 0x11 PUSH1 0x4 MSTORE PUSH1 0x24 PUSH0 REVERT JUMPDEST PUSH0 PUSH2 0x6FE DUP3 PUSH2 0x524 JUMP JUMPDEST SWAP2 POP PUSH2 0x709 DUP4 PUSH2 0x524 JUMP JUMPDEST SWAP3 POP DUP3 DUP3 ADD SWAP1 POP DUP1 DUP3 GT ISZERO PUSH2 0x721 JUMPI PUSH2 0x720 PUSH2 0x6C7 JUMP JUMPDEST JUMPDEST SWAP3 SWAP2 POP POP JUMP JUMPDEST PUSH0 PUSH1 0x40 DUP3 ADD SWAP1 POP PUSH2 0x73A PUSH0 DUP4 ADD DUP6 PUSH2 0x52D JUMP JUMPDEST PUSH2 0x747 PUSH1 0x20 DUP4 ADD DUP5 PUSH2 0x52D JUMP JUMPDEST SWAP4 SWAP3 POP POP POP JUMP JUMPDEST PUSH0 PUSH2 0x758 DUP3 PUSH2 0x524 JUMP JUMPDEST SWAP2 POP PUSH2 0x763 DUP4 PUSH2 0x524 JUMP JUMPDEST SWAP3 POP DUP3 DUP3 SUB SWAP1 POP DUP2 DUP2 GT ISZERO PUSH2 0x77B JUMPI PUSH2 0x77A PUSH2 0x6C7 JUMP JUMPDEST JUMPDEST SWAP3 SWAP2 POP POP JUMP JUMPDEST PUSH0 DUP2 SWAP1 POP SWAP3 SWAP2 POP POP JUMP JUMPDEST POP JUMP JUMPDEST PUSH0 PUSH2 0x799 PUSH0 DUP4 PUSH2 0x781 JUMP JUMPDEST SWAP2 POP PUSH2 0x7A4 DUP3 PUSH2 0x78B JUMP JUMPDEST PUSH0 DUP3 ADD SWAP1 POP SWAP2 SWAP1 POP JUMP JUMPDEST PUSH0 PUSH2 0x7B8 DUP3 PUSH2 0x78E JUMP JUMPDEST SWAP2 POP DUP2 SWAP1 POP SWAP2 SWAP1 POP JUMP JUMPDEST PUSH32 0x5472616E73666572206661696C65640000000000000000000000000000000000 PUSH0 DUP3 ADD MSTORE POP JUMP JUMPDEST PUSH0 PUSH2 0x7F6 PUSH1 0xF DUP4 PUSH2 0x484 JUMP JUMPDEST SWAP2 POP PUSH2 0x801 DUP3 PUSH2 0x7C2 JUMP JUMPDEST PUSH1 0x20 DUP3 ADD SWAP1 POP SWAP2 SWAP1 POP JUMP JUMPDEST PUSH0 PUSH1 0x20 DUP3 ADD SWAP1 POP DUP2 DUP2 SUB PUSH0 DUP4 ADD MSTORE PUSH2 0x823 DUP2 PUSH2 0x7EA JUMP JUMPDEST SWAP1 POP SWAP2 SWAP1 POP JUMP INVALID LOG2 PUSH5 0x6970667358 0x22 SLT KECCAK256 PUSH29 0x3EBD6E9E36BB5C8AD4D4C7B04212962B42A90D325415E6A0AF6C5577A1 TSTORE 0xC PUSH5 0x736F6C6343 STOP ADDMOD XOR STOP CALLER LOG2 PUSH5 0x6970667358 0x22 SLT KECCAK256 CALLVALUE 0x4F 0xB2 0x23 0xEE COINBASE SWAP2 SIGNEXTEND POP 0xC1 0xBB 0xAF SELFBALANCE DUP16 PUSH27 0x401E895EE297EA3CC6F1C6655EB420E12964736F6C634300081800 CALLER "
				},
				"gasEstimates": {
					"creation": {
						"codeDepositCost": "1919000",
						"executionCost": "infinite",
						"totalCost": "infinite"
					},
					"external": {
						"ccipReceive((bytes32,uint64,bytes,bytes,(address,uint256)[]))": "infinite",
						"depositTo(string)": "infinite",
						"getBalance(string)": "infinite",
						"getRouter()": "infinite",
						"getWalletAddress(string)": "infinite",
						"supportsInterface(bytes4)": "676",
						"userInteractionAddress()": "2574",
						"walletOwnership(string)": "infinite",
						"withdrawTo(string,address,uint256)": "infinite"
					},
					"internal": {
						"_ccipReceive(struct Client.Any2EVMMessage memory)": "infinite",
						"_getOrCreateWallet(string memory)": "infinite",
						"transferTo(string memory,string memory,uint256)": "infinite"
					}
				},
				"methodIdentifiers": {
					"ccipReceive((bytes32,uint64,bytes,bytes,(address,uint256)[]))": "85572ffb",
					"depositTo(string)": "dd105862",
					"getBalance(string)": "3a51d246",
					"getRouter()": "b0f479a1",
					"getWalletAddress(string)": "08f20630",
					"supportsInterface(bytes4)": "01ffc9a7",
					"userInteractionAddress()": "baa96000",
					"walletOwnership(string)": "aff9bd9c",
					"withdrawTo(string,address,uint256)": "3b0e8752"
				}
			},
			"storageLayout": {
				"storage": [
					{
						"astId": 530,
						"contract": "contracts/WalletController.sol:WalletController",
						"label": "walletOwnership",
						"offset": 0,
						"slot": "0",
						"type": "t_mapping(t_string_memory_ptr,t_address)"
					},
					{
						"astId": 532,
						"contract": "contracts/WalletController.sol:WalletController",
						"label": "userInteractionAddress",
						"offset": 0,
						"slot": "1",
						"type": "t_address"
					}
				],
				"types": {
					"t_address": {
						"encoding": "inplace",
						"label": "address",
						"numberOfBytes": "20"
					},
					"t_mapping(t_string_memory_ptr,t_address)": {
						"encoding": "mapping",
						"key": "t_string_memory_ptr",
						"label": "mapping(string => address)",
						"numberOfBytes": "32",
						"value": "t_address"
					},
					"t_string_memory_ptr": {
						"encoding": "bytes",
						"label": "string",
						"numberOfBytes": "32"
					}
				}
			},
			"userdoc": {
				"kind": "user",
				"methods": {
					"ccipReceive((bytes32,uint64,bytes,bytes,(address,uint256)[]))": {
						"notice": "Called by the Router to deliver a message. If this reverts, any token transfers also revert. The message will move to a FAILED state and become available for manual execution."
					},
					"getRouter()": {
						"notice": "Return the current router"
					},
					"supportsInterface(bytes4)": {
						"notice": "IERC165 supports an interfaceId."
					}
				},
				"version": 1
			}
		}
	}
}