{
	"contracts/WalletController.sol": {
		"WalletController": {
			"abi": [
				{
					"inputs": [
						{
							"internalType": "address",
							"name": "_router",
							"type": "address"
						},
						{
							"internalType": "address",
							"name": "_entrypoint",
							"type": "address"
						},
						{
							"internalType": "address",
							"name": "_userInteraction",
							"type": "address"
						},
						{
							"internalType": "uint64",
							"name": "_entrypointselector",
							"type": "uint64"
						}
					],
					"stateMutability": "nonpayable",
					"type": "constructor"
				},
				{
					"inputs": [
						{
							"internalType": "address",
							"name": "router",
							"type": "address"
						}
					],
					"name": "InvalidRouter",
					"type": "error"
				},
				{
					"anonymous": false,
					"inputs": [
						{
							"indexed": false,
							"internalType": "string",
							"name": "ownerId",
							"type": "string"
						},
						{
							"indexed": false,
							"internalType": "address",
							"name": "wallet",
							"type": "address"
						}
					],
					"name": "WalletCreated",
					"type": "event"
				},
				{
					"inputs": [
						{
							"components": [
								{
									"internalType": "bytes32",
									"name": "messageId",
									"type": "bytes32"
								},
								{
									"internalType": "uint64",
									"name": "sourceChainSelector",
									"type": "uint64"
								},
								{
									"internalType": "bytes",
									"name": "sender",
									"type": "bytes"
								},
								{
									"internalType": "bytes",
									"name": "data",
									"type": "bytes"
								},
								{
									"components": [
										{
											"internalType": "address",
											"name": "token",
											"type": "address"
										},
										{
											"internalType": "uint256",
											"name": "amount",
											"type": "uint256"
										}
									],
									"internalType": "struct Client.EVMTokenAmount[]",
									"name": "destTokenAmounts",
									"type": "tuple[]"
								}
							],
							"internalType": "struct Client.Any2EVMMessage",
							"name": "message",
							"type": "tuple"
						}
					],
					"name": "ccipReceive",
					"outputs": [],
					"stateMutability": "nonpayable",
					"type": "function"
				},
				{
					"inputs": [
						{
							"internalType": "string",
							"name": "ownerId",
							"type": "string"
						}
					],
					"name": "depositTo",
					"outputs": [],
					"stateMutability": "payable",
					"type": "function"
				},
				{
					"inputs": [],
					"name": "entrypointAddress",
					"outputs": [
						{
							"internalType": "address",
							"name": "",
							"type": "address"
						}
					],
					"stateMutability": "view",
					"type": "function"
				},
				{
					"inputs": [],
					"name": "entrypointChainSelector",
					"outputs": [
						{
							"internalType": "uint64",
							"name": "",
							"type": "uint64"
						}
					],
					"stateMutability": "view",
					"type": "function"
				},
				{
					"inputs": [],
					"name": "getRouter",
					"outputs": [
						{
							"internalType": "address",
							"name": "",
							"type": "address"
						}
					],
					"stateMutability": "view",
					"type": "function"
				},
				{
					"inputs": [
						{
							"internalType": "bytes4",
							"name": "interfaceId",
							"type": "bytes4"
						}
					],
					"name": "supportsInterface",
					"outputs": [
						{
							"internalType": "bool",
							"name": "",
							"type": "bool"
						}
					],
					"stateMutability": "view",
					"type": "function"
				},
				{
					"inputs": [],
					"name": "userInteractionAddress",
					"outputs": [
						{
							"internalType": "address",
							"name": "",
							"type": "address"
						}
					],
					"stateMutability": "view",
					"type": "function"
				},
				{
					"inputs": [
						{
							"internalType": "string",
							"name": "",
							"type": "string"
						}
					],
					"name": "walletOwnership",
					"outputs": [
						{
							"internalType": "address",
							"name": "",
							"type": "address"
						}
					],
					"stateMutability": "view",
					"type": "function"
				},
				{
					"inputs": [
						{
							"internalType": "string",
							"name": "ownerId",
							"type": "string"
						},
						{
							"internalType": "address",
							"name": "to",
							"type": "address"
						},
						{
							"internalType": "uint256",
							"name": "amount",
							"type": "uint256"
						}
					],
					"name": "withdrawTo",
					"outputs": [],
					"stateMutability": "nonpayable",
					"type": "function"
				}
			],
			"devdoc": {
				"kind": "dev",
				"methods": {
					"ccipReceive((bytes32,uint64,bytes,bytes,(address,uint256)[]))": {
						"details": "Note ensure you check the msg.sender is the OffRampRouter.",
						"params": {
							"message": "CCIP Message."
						}
					},
					"getRouter()": {
						"returns": {
							"_0": "CCIP router address"
						}
					},
					"supportsInterface(bytes4)": {
						"details": "Should indicate whether the contract implements IAny2EVMMessageReceiver. e.g. return interfaceId == type(IAny2EVMMessageReceiver).interfaceId || interfaceId == type(IERC165).interfaceId This allows CCIP to check if ccipReceive is available before calling it. - If this returns false or reverts, only tokens are transferred to the receiver. - If this returns true, tokens are transferred and ccipReceive is called atomically. Additionally, if the receiver address does not have code associated with it at the time of execution (EXTCODESIZE returns 0), only tokens will be transferred.",
						"params": {
							"interfaceId": "The interfaceId to check."
						},
						"returns": {
							"_0": "true if the interfaceId is supported."
						}
					}
				},
				"version": 1
			},
			"evm": {
				"assembly": "    /* \"contracts/WalletController.sol\":282:2880  contract WalletController is CCIPReceiver {... */\n  mstore(0x40, 0xa0)\n    /* \"contracts/WalletController.sol\":888:1360  constructor(... */\n  callvalue\n  dup1\n  iszero\n  tag_1\n  jumpi\n  0x00\n  dup1\n  revert\ntag_1:\n  pop\n  mload(0x40)\n  sub(codesize, bytecodeSize)\n  dup1\n  bytecodeSize\n  dup4\n  codecopy\n  dup2\n  dup2\n  add\n  0x40\n  mstore\n  dup2\n  add\n  swap1\n  tag_2\n  swap2\n  swap1\n  tag_3\n  jump\t// in\ntag_2:\n    /* \"contracts/WalletController.sol\":1051:1058  _router */\n  dup4\n    /* \"@chainlink/contracts-ccip@1.6.0/contracts/applications/CCIPReceiver.sol\":594:595  0 */\n  0x00\n    /* \"@chainlink/contracts-ccip@1.6.0/contracts/applications/CCIPReceiver.sol\":576:596  router == address(0) */\n  0xffffffffffffffffffffffffffffffffffffffff\n  and\n    /* \"@chainlink/contracts-ccip@1.6.0/contracts/applications/CCIPReceiver.sol\":576:582  router */\n  dup2\n    /* \"@chainlink/contracts-ccip@1.6.0/contracts/applications/CCIPReceiver.sol\":576:596  router == address(0) */\n  0xffffffffffffffffffffffffffffffffffffffff\n  and\n  sub\n    /* \"@chainlink/contracts-ccip@1.6.0/contracts/applications/CCIPReceiver.sol\":572:630  if (router == address(0)) revert InvalidRouter(address(0)) */\n  tag_7\n  jumpi\n    /* \"@chainlink/contracts-ccip@1.6.0/contracts/applications/CCIPReceiver.sol\":627:628  0 */\n  0x00\n    /* \"@chainlink/contracts-ccip@1.6.0/contracts/applications/CCIPReceiver.sol\":605:630  InvalidRouter(address(0)) */\n  mload(0x40)\n  0xd7f7333400000000000000000000000000000000000000000000000000000000\n  dup2\n  mstore\n  0x04\n  add\n  tag_8\n  swap2\n  swap1\n  tag_9\n  jump\t// in\ntag_8:\n  mload(0x40)\n  dup1\n  swap2\n  sub\n  swap1\n  revert\n    /* \"@chainlink/contracts-ccip@1.6.0/contracts/applications/CCIPReceiver.sol\":572:630  if (router == address(0)) revert InvalidRouter(address(0)) */\ntag_7:\n    /* \"@chainlink/contracts-ccip@1.6.0/contracts/applications/CCIPReceiver.sol\":651:657  router */\n  dup1\n    /* \"@chainlink/contracts-ccip@1.6.0/contracts/applications/CCIPReceiver.sol\":636:657  i_ccipRouter = router */\n  0xffffffffffffffffffffffffffffffffffffffff\n  and\n  0x80\n  dup2\n  0xffffffffffffffffffffffffffffffffffffffff\n  and\n  dup2\n  mstore\n  pop\n  pop\n    /* \"@chainlink/contracts-ccip@1.6.0/contracts/applications/CCIPReceiver.sol\":530:662  constructor(... */\n  pop\n    /* \"contracts/WalletController.sol\":1105:1106  0 */\n  0x00\n    /* \"contracts/WalletController.sol\":1082:1107  _entrypoint != address(0) */\n  0xffffffffffffffffffffffffffffffffffffffff\n  and\n    /* \"contracts/WalletController.sol\":1082:1093  _entrypoint */\n  dup4\n    /* \"contracts/WalletController.sol\":1082:1107  _entrypoint != address(0) */\n  0xffffffffffffffffffffffffffffffffffffffff\n  and\n  sub\n    /* \"contracts/WalletController.sol\":1074:1130  require(_entrypoint != address(0), \"Invalid entrypoint\") */\n  tag_11\n  jumpi\n  mload(0x40)\n  0x08c379a000000000000000000000000000000000000000000000000000000000\n  dup2\n  mstore\n  0x04\n  add\n  tag_12\n  swap1\n  tag_13\n  jump\t// in\ntag_12:\n  mload(0x40)\n  dup1\n  swap2\n  sub\n  swap1\n  revert\ntag_11:\n    /* \"contracts/WalletController.sol\":1176:1177  0 */\n  0x00\n    /* \"contracts/WalletController.sol\":1148:1178  _userInteraction != address(0) */\n  0xffffffffffffffffffffffffffffffffffffffff\n  and\n    /* \"contracts/WalletController.sol\":1148:1164  _userInteraction */\n  dup3\n    /* \"contracts/WalletController.sol\":1148:1178  _userInteraction != address(0) */\n  0xffffffffffffffffffffffffffffffffffffffff\n  and\n  sub\n    /* \"contracts/WalletController.sol\":1140:1206  require(_userInteraction != address(0), \"Invalid userInteraction\") */\n  tag_14\n  jumpi\n  mload(0x40)\n  0x08c379a000000000000000000000000000000000000000000000000000000000\n  dup2\n  mstore\n  0x04\n  add\n  tag_15\n  swap1\n  tag_16\n  jump\t// in\ntag_15:\n  mload(0x40)\n  dup1\n  swap2\n  sub\n  swap1\n  revert\ntag_14:\n    /* \"contracts/WalletController.sol\":1236:1247  _entrypoint */\n  dup3\n    /* \"contracts/WalletController.sol\":1216:1233  entrypointAddress */\n  0x01\n  0x00\n    /* \"contracts/WalletController.sol\":1216:1247  entrypointAddress = _entrypoint */\n  0x0100\n  exp\n  dup2\n  sload\n  dup2\n  0xffffffffffffffffffffffffffffffffffffffff\n  mul\n  not\n  and\n  swap1\n  dup4\n  0xffffffffffffffffffffffffffffffffffffffff\n  and\n  mul\n  or\n  swap1\n  sstore\n  pop\n    /* \"contracts/WalletController.sol\":1282:1298  _userInteraction */\n  dup2\n    /* \"contracts/WalletController.sol\":1257:1279  userInteractionAddress */\n  0x02\n  0x00\n    /* \"contracts/WalletController.sol\":1257:1298  userInteractionAddress = _userInteraction */\n  0x0100\n  exp\n  dup2\n  sload\n  dup2\n  0xffffffffffffffffffffffffffffffffffffffff\n  mul\n  not\n  and\n  swap1\n  dup4\n  0xffffffffffffffffffffffffffffffffffffffff\n  and\n  mul\n  or\n  swap1\n  sstore\n  pop\n    /* \"contracts/WalletController.sol\":1334:1353  _entrypointselector */\n  dup1\n    /* \"contracts/WalletController.sol\":1308:1331  entrypointChainSelector */\n  0x02\n  0x14\n    /* \"contracts/WalletController.sol\":1308:1353  entrypointChainSelector = _entrypointselector */\n  0x0100\n  exp\n  dup2\n  sload\n  dup2\n  0xffffffffffffffff\n  mul\n  not\n  and\n  swap1\n  dup4\n  0xffffffffffffffff\n  and\n  mul\n  or\n  swap1\n  sstore\n  pop\n    /* \"contracts/WalletController.sol\":888:1360  constructor(... */\n  pop\n  pop\n  pop\n  pop\n    /* \"contracts/WalletController.sol\":282:2880  contract WalletController is CCIPReceiver {... */\n  jump(tag_17)\n    /* \"#utility.yul\":88:205   */\ntag_19:\n    /* \"#utility.yul\":197:198   */\n  0x00\n    /* \"#utility.yul\":194:195   */\n  dup1\n    /* \"#utility.yul\":187:199   */\n  revert\n    /* \"#utility.yul\":334:460   */\ntag_21:\n    /* \"#utility.yul\":371:378   */\n  0x00\n    /* \"#utility.yul\":411:453   */\n  0xffffffffffffffffffffffffffffffffffffffff\n    /* \"#utility.yul\":404:409   */\n  dup3\n    /* \"#utility.yul\":400:454   */\n  and\n    /* \"#utility.yul\":389:454   */\n  swap1\n  pop\n    /* \"#utility.yul\":334:460   */\n  swap2\n  swap1\n  pop\n  jump\t// out\n    /* \"#utility.yul\":466:562   */\ntag_22:\n    /* \"#utility.yul\":503:510   */\n  0x00\n    /* \"#utility.yul\":532:556   */\n  tag_40\n    /* \"#utility.yul\":550:555   */\n  dup3\n    /* \"#utility.yul\":532:556   */\n  tag_21\n  jump\t// in\ntag_40:\n    /* \"#utility.yul\":521:556   */\n  swap1\n  pop\n    /* \"#utility.yul\":466:562   */\n  swap2\n  swap1\n  pop\n  jump\t// out\n    /* \"#utility.yul\":568:690   */\ntag_23:\n    /* \"#utility.yul\":641:665   */\n  tag_42\n    /* \"#utility.yul\":659:664   */\n  dup2\n    /* \"#utility.yul\":641:665   */\n  tag_22\n  jump\t// in\ntag_42:\n    /* \"#utility.yul\":634:639   */\n  dup2\n    /* \"#utility.yul\":631:666   */\n  eq\n    /* \"#utility.yul\":621:684   */\n  tag_43\n  jumpi\n    /* \"#utility.yul\":680:681   */\n  0x00\n    /* \"#utility.yul\":677:678   */\n  dup1\n    /* \"#utility.yul\":670:682   */\n  revert\n    /* \"#utility.yul\":621:684   */\ntag_43:\n    /* \"#utility.yul\":568:690   */\n  pop\n  jump\t// out\n    /* \"#utility.yul\":696:839   */\ntag_24:\n    /* \"#utility.yul\":753:758   */\n  0x00\n    /* \"#utility.yul\":784:790   */\n  dup2\n    /* \"#utility.yul\":778:791   */\n  mload\n    /* \"#utility.yul\":769:791   */\n  swap1\n  pop\n    /* \"#utility.yul\":800:833   */\n  tag_45\n    /* \"#utility.yul\":827:832   */\n  dup2\n    /* \"#utility.yul\":800:833   */\n  tag_23\n  jump\t// in\ntag_45:\n    /* \"#utility.yul\":696:839   */\n  swap3\n  swap2\n  pop\n  pop\n  jump\t// out\n    /* \"#utility.yul\":845:946   */\ntag_25:\n    /* \"#utility.yul\":881:888   */\n  0x00\n    /* \"#utility.yul\":921:939   */\n  0xffffffffffffffff\n    /* \"#utility.yul\":914:919   */\n  dup3\n    /* \"#utility.yul\":910:940   */\n  and\n    /* \"#utility.yul\":899:940   */\n  swap1\n  pop\n    /* \"#utility.yul\":845:946   */\n  swap2\n  swap1\n  pop\n  jump\t// out\n    /* \"#utility.yul\":952:1072   */\ntag_26:\n    /* \"#utility.yul\":1024:1047   */\n  tag_48\n    /* \"#utility.yul\":1041:1046   */\n  dup2\n    /* \"#utility.yul\":1024:1047   */\n  tag_25\n  jump\t// in\ntag_48:\n    /* \"#utility.yul\":1017:1022   */\n  dup2\n    /* \"#utility.yul\":1014:1048   */\n  eq\n    /* \"#utility.yul\":1004:1066   */\n  tag_49\n  jumpi\n    /* \"#utility.yul\":1062:1063   */\n  0x00\n    /* \"#utility.yul\":1059:1060   */\n  dup1\n    /* \"#utility.yul\":1052:1064   */\n  revert\n    /* \"#utility.yul\":1004:1066   */\ntag_49:\n    /* \"#utility.yul\":952:1072   */\n  pop\n  jump\t// out\n    /* \"#utility.yul\":1078:1219   */\ntag_27:\n    /* \"#utility.yul\":1134:1139   */\n  0x00\n    /* \"#utility.yul\":1165:1171   */\n  dup2\n    /* \"#utility.yul\":1159:1172   */\n  mload\n    /* \"#utility.yul\":1150:1172   */\n  swap1\n  pop\n    /* \"#utility.yul\":1181:1213   */\n  tag_51\n    /* \"#utility.yul\":1207:1212   */\n  dup2\n    /* \"#utility.yul\":1181:1213   */\n  tag_26\n  jump\t// in\ntag_51:\n    /* \"#utility.yul\":1078:1219   */\n  swap3\n  swap2\n  pop\n  pop\n  jump\t// out\n    /* \"#utility.yul\":1225:2043   */\ntag_3:\n    /* \"#utility.yul\":1321:1327   */\n  0x00\n    /* \"#utility.yul\":1329:1335   */\n  dup1\n    /* \"#utility.yul\":1337:1343   */\n  0x00\n    /* \"#utility.yul\":1345:1351   */\n  dup1\n    /* \"#utility.yul\":1394:1397   */\n  0x80\n    /* \"#utility.yul\":1382:1391   */\n  dup6\n    /* \"#utility.yul\":1373:1380   */\n  dup8\n    /* \"#utility.yul\":1369:1392   */\n  sub\n    /* \"#utility.yul\":1365:1398   */\n  slt\n    /* \"#utility.yul\":1362:1482   */\n  iszero\n  tag_53\n  jumpi\n    /* \"#utility.yul\":1401:1480   */\n  tag_54\n  tag_19\n  jump\t// in\ntag_54:\n    /* \"#utility.yul\":1362:1482   */\ntag_53:\n    /* \"#utility.yul\":1521:1522   */\n  0x00\n    /* \"#utility.yul\":1546:1610   */\n  tag_55\n    /* \"#utility.yul\":1602:1609   */\n  dup8\n    /* \"#utility.yul\":1593:1599   */\n  dup3\n    /* \"#utility.yul\":1582:1591   */\n  dup9\n    /* \"#utility.yul\":1578:1600   */\n  add\n    /* \"#utility.yul\":1546:1610   */\n  tag_24\n  jump\t// in\ntag_55:\n    /* \"#utility.yul\":1536:1610   */\n  swap5\n  pop\n    /* \"#utility.yul\":1492:1620   */\n  pop\n    /* \"#utility.yul\":1659:1661   */\n  0x20\n    /* \"#utility.yul\":1685:1749   */\n  tag_56\n    /* \"#utility.yul\":1741:1748   */\n  dup8\n    /* \"#utility.yul\":1732:1738   */\n  dup3\n    /* \"#utility.yul\":1721:1730   */\n  dup9\n    /* \"#utility.yul\":1717:1739   */\n  add\n    /* \"#utility.yul\":1685:1749   */\n  tag_24\n  jump\t// in\ntag_56:\n    /* \"#utility.yul\":1675:1749   */\n  swap4\n  pop\n    /* \"#utility.yul\":1630:1759   */\n  pop\n    /* \"#utility.yul\":1798:1800   */\n  0x40\n    /* \"#utility.yul\":1824:1888   */\n  tag_57\n    /* \"#utility.yul\":1880:1887   */\n  dup8\n    /* \"#utility.yul\":1871:1877   */\n  dup3\n    /* \"#utility.yul\":1860:1869   */\n  dup9\n    /* \"#utility.yul\":1856:1878   */\n  add\n    /* \"#utility.yul\":1824:1888   */\n  tag_24\n  jump\t// in\ntag_57:\n    /* \"#utility.yul\":1814:1888   */\n  swap3\n  pop\n    /* \"#utility.yul\":1769:1898   */\n  pop\n    /* \"#utility.yul\":1937:1939   */\n  0x60\n    /* \"#utility.yul\":1963:2026   */\n  tag_58\n    /* \"#utility.yul\":2018:2025   */\n  dup8\n    /* \"#utility.yul\":2009:2015   */\n  dup3\n    /* \"#utility.yul\":1998:2007   */\n  dup9\n    /* \"#utility.yul\":1994:2016   */\n  add\n    /* \"#utility.yul\":1963:2026   */\n  tag_27\n  jump\t// in\ntag_58:\n    /* \"#utility.yul\":1953:2026   */\n  swap2\n  pop\n    /* \"#utility.yul\":1908:2036   */\n  pop\n    /* \"#utility.yul\":1225:2043   */\n  swap3\n  swap6\n  swap2\n  swap5\n  pop\n  swap3\n  pop\n  jump\t// out\n    /* \"#utility.yul\":2049:2167   */\ntag_28:\n    /* \"#utility.yul\":2136:2160   */\n  tag_60\n    /* \"#utility.yul\":2154:2159   */\n  dup2\n    /* \"#utility.yul\":2136:2160   */\n  tag_22\n  jump\t// in\ntag_60:\n    /* \"#utility.yul\":2131:2134   */\n  dup3\n    /* \"#utility.yul\":2124:2161   */\n  mstore\n    /* \"#utility.yul\":2049:2167   */\n  pop\n  pop\n  jump\t// out\n    /* \"#utility.yul\":2173:2395   */\ntag_9:\n    /* \"#utility.yul\":2266:2270   */\n  0x00\n    /* \"#utility.yul\":2304:2306   */\n  0x20\n    /* \"#utility.yul\":2293:2302   */\n  dup3\n    /* \"#utility.yul\":2289:2307   */\n  add\n    /* \"#utility.yul\":2281:2307   */\n  swap1\n  pop\n    /* \"#utility.yul\":2317:2388   */\n  tag_62\n    /* \"#utility.yul\":2385:2386   */\n  0x00\n    /* \"#utility.yul\":2374:2383   */\n  dup4\n    /* \"#utility.yul\":2370:2387   */\n  add\n    /* \"#utility.yul\":2361:2367   */\n  dup5\n    /* \"#utility.yul\":2317:2388   */\n  tag_28\n  jump\t// in\ntag_62:\n    /* \"#utility.yul\":2173:2395   */\n  swap3\n  swap2\n  pop\n  pop\n  jump\t// out\n    /* \"#utility.yul\":2401:2570   */\ntag_29:\n    /* \"#utility.yul\":2485:2496   */\n  0x00\n    /* \"#utility.yul\":2519:2525   */\n  dup3\n    /* \"#utility.yul\":2514:2517   */\n  dup3\n    /* \"#utility.yul\":2507:2526   */\n  mstore\n    /* \"#utility.yul\":2559:2563   */\n  0x20\n    /* \"#utility.yul\":2554:2557   */\n  dup3\n    /* \"#utility.yul\":2550:2564   */\n  add\n    /* \"#utility.yul\":2535:2564   */\n  swap1\n  pop\n    /* \"#utility.yul\":2401:2570   */\n  swap3\n  swap2\n  pop\n  pop\n  jump\t// out\n    /* \"#utility.yul\":2576:2744   */\ntag_30:\n    /* \"#utility.yul\":2716:2736   */\n  0x496e76616c696420656e747279706f696e740000000000000000000000000000\n    /* \"#utility.yul\":2712:2713   */\n  0x00\n    /* \"#utility.yul\":2704:2710   */\n  dup3\n    /* \"#utility.yul\":2700:2714   */\n  add\n    /* \"#utility.yul\":2693:2737   */\n  mstore\n    /* \"#utility.yul\":2576:2744   */\n  pop\n  jump\t// out\n    /* \"#utility.yul\":2750:3116   */\ntag_31:\n    /* \"#utility.yul\":2892:2895   */\n  0x00\n    /* \"#utility.yul\":2913:2980   */\n  tag_66\n    /* \"#utility.yul\":2977:2979   */\n  0x12\n    /* \"#utility.yul\":2972:2975   */\n  dup4\n    /* \"#utility.yul\":2913:2980   */\n  tag_29\n  jump\t// in\ntag_66:\n    /* \"#utility.yul\":2906:2980   */\n  swap2\n  pop\n    /* \"#utility.yul\":2989:3082   */\n  tag_67\n    /* \"#utility.yul\":3078:3081   */\n  dup3\n    /* \"#utility.yul\":2989:3082   */\n  tag_30\n  jump\t// in\ntag_67:\n    /* \"#utility.yul\":3107:3109   */\n  0x20\n    /* \"#utility.yul\":3102:3105   */\n  dup3\n    /* \"#utility.yul\":3098:3110   */\n  add\n    /* \"#utility.yul\":3091:3110   */\n  swap1\n  pop\n    /* \"#utility.yul\":2750:3116   */\n  swap2\n  swap1\n  pop\n  jump\t// out\n    /* \"#utility.yul\":3122:3541   */\ntag_13:\n    /* \"#utility.yul\":3288:3292   */\n  0x00\n    /* \"#utility.yul\":3326:3328   */\n  0x20\n    /* \"#utility.yul\":3315:3324   */\n  dup3\n    /* \"#utility.yul\":3311:3329   */\n  add\n    /* \"#utility.yul\":3303:3329   */\n  swap1\n  pop\n    /* \"#utility.yul\":3375:3384   */\n  dup2\n    /* \"#utility.yul\":3369:3373   */\n  dup2\n    /* \"#utility.yul\":3365:3385   */\n  sub\n    /* \"#utility.yul\":3361:3362   */\n  0x00\n    /* \"#utility.yul\":3350:3359   */\n  dup4\n    /* \"#utility.yul\":3346:3363   */\n  add\n    /* \"#utility.yul\":3339:3386   */\n  mstore\n    /* \"#utility.yul\":3403:3534   */\n  tag_69\n    /* \"#utility.yul\":3529:3533   */\n  dup2\n    /* \"#utility.yul\":3403:3534   */\n  tag_31\n  jump\t// in\ntag_69:\n    /* \"#utility.yul\":3395:3534   */\n  swap1\n  pop\n    /* \"#utility.yul\":3122:3541   */\n  swap2\n  swap1\n  pop\n  jump\t// out\n    /* \"#utility.yul\":3547:3720   */\ntag_32:\n    /* \"#utility.yul\":3687:3712   */\n  0x496e76616c69642075736572496e746572616374696f6e000000000000000000\n    /* \"#utility.yul\":3683:3684   */\n  0x00\n    /* \"#utility.yul\":3675:3681   */\n  dup3\n    /* \"#utility.yul\":3671:3685   */\n  add\n    /* \"#utility.yul\":3664:3713   */\n  mstore\n    /* \"#utility.yul\":3547:3720   */\n  pop\n  jump\t// out\n    /* \"#utility.yul\":3726:4092   */\ntag_33:\n    /* \"#utility.yul\":3868:3871   */\n  0x00\n    /* \"#utility.yul\":3889:3956   */\n  tag_72\n    /* \"#utility.yul\":3953:3955   */\n  0x17\n    /* \"#utility.yul\":3948:3951   */\n  dup4\n    /* \"#utility.yul\":3889:3956   */\n  tag_29\n  jump\t// in\ntag_72:\n    /* \"#utility.yul\":3882:3956   */\n  swap2\n  pop\n    /* \"#utility.yul\":3965:4058   */\n  tag_73\n    /* \"#utility.yul\":4054:4057   */\n  dup3\n    /* \"#utility.yul\":3965:4058   */\n  tag_32\n  jump\t// in\ntag_73:\n    /* \"#utility.yul\":4083:4085   */\n  0x20\n    /* \"#utility.yul\":4078:4081   */\n  dup3\n    /* \"#utility.yul\":4074:4086   */\n  add\n    /* \"#utility.yul\":4067:4086   */\n  swap1\n  pop\n    /* \"#utility.yul\":3726:4092   */\n  swap2\n  swap1\n  pop\n  jump\t// out\n    /* \"#utility.yul\":4098:4517   */\ntag_16:\n    /* \"#utility.yul\":4264:4268   */\n  0x00\n    /* \"#utility.yul\":4302:4304   */\n  0x20\n    /* \"#utility.yul\":4291:4300   */\n  dup3\n    /* \"#utility.yul\":4287:4305   */\n  add\n    /* \"#utility.yul\":4279:4305   */\n  swap1\n  pop\n    /* \"#utility.yul\":4351:4360   */\n  dup2\n    /* \"#utility.yul\":4345:4349   */\n  dup2\n    /* \"#utility.yul\":4341:4361   */\n  sub\n    /* \"#utility.yul\":4337:4338   */\n  0x00\n    /* \"#utility.yul\":4326:4335   */\n  dup4\n    /* \"#utility.yul\":4322:4339   */\n  add\n    /* \"#utility.yul\":4315:4362   */\n  mstore\n    /* \"#utility.yul\":4379:4510   */\n  tag_75\n    /* \"#utility.yul\":4505:4509   */\n  dup2\n    /* \"#utility.yul\":4379:4510   */\n  tag_33\n  jump\t// in\ntag_75:\n    /* \"#utility.yul\":4371:4510   */\n  swap1\n  pop\n    /* \"#utility.yul\":4098:4517   */\n  swap2\n  swap1\n  pop\n  jump\t// out\n    /* \"contracts/WalletController.sol\":282:2880  contract WalletController is CCIPReceiver {... */\ntag_17:\n  mload(0x80)\n  codecopy(0x00, dataOffset(sub_0), dataSize(sub_0))\n  0x00\n  assignImmutable(\"0x5c4c6aa067b6f8e6cb38e6ab843832a94d1712d661a04d73c517d6a1931a9e5d\")\n  return(0x00, dataSize(sub_0))\nstop\n\nsub_0: assembly {\n        /* \"contracts/WalletController.sol\":282:2880  contract WalletController is CCIPReceiver {... */\n      mstore(0x40, 0x80)\n      jumpi(tag_1, lt(calldatasize, 0x04))\n      shr(0xe0, calldataload(0x00))\n      dup1\n      0x8c60948b\n      gt\n      tag_11\n      jumpi\n      dup1\n      0x8c60948b\n      eq\n      tag_6\n      jumpi\n      dup1\n      0xaff9bd9c\n      eq\n      tag_7\n      jumpi\n      dup1\n      0xb0f479a1\n      eq\n      tag_8\n      jumpi\n      dup1\n      0xbaa96000\n      eq\n      tag_9\n      jumpi\n      dup1\n      0xdd105862\n      eq\n      tag_10\n      jumpi\n      jump(tag_1)\n    tag_11:\n      dup1\n      0x01ffc9a7\n      eq\n      tag_2\n      jumpi\n      dup1\n      0x3b0e8752\n      eq\n      tag_3\n      jumpi\n      dup1\n      0x45aafc0b\n      eq\n      tag_4\n      jumpi\n      dup1\n      0x85572ffb\n      eq\n      tag_5\n      jumpi\n    tag_1:\n      0x00\n      dup1\n      revert\n        /* \"@chainlink/contracts-ccip@1.6.0/contracts/applications/CCIPReceiver.sol\":1447:1664  function supportsInterface(... */\n    tag_2:\n      callvalue\n      dup1\n      iszero\n      tag_12\n      jumpi\n      0x00\n      dup1\n      revert\n    tag_12:\n      pop\n      tag_13\n      0x04\n      dup1\n      calldatasize\n      sub\n      dup2\n      add\n      swap1\n      tag_14\n      swap2\n      swap1\n      tag_15\n      jump\t// in\n    tag_14:\n      tag_16\n      jump\t// in\n    tag_13:\n      mload(0x40)\n      tag_17\n      swap2\n      swap1\n      tag_18\n      jump\t// in\n    tag_17:\n      mload(0x40)\n      dup1\n      swap2\n      sub\n      swap1\n      return\n        /* \"contracts/WalletController.sol\":1998:2267  function withdrawTo(string calldata ownerId, address to, uint256 amount) external onlyAuthorized {... */\n    tag_3:\n      callvalue\n      dup1\n      iszero\n      tag_19\n      jumpi\n      0x00\n      dup1\n      revert\n    tag_19:\n      pop\n      tag_20\n      0x04\n      dup1\n      calldatasize\n      sub\n      dup2\n      add\n      swap1\n      tag_21\n      swap2\n      swap1\n      tag_22\n      jump\t// in\n    tag_21:\n      tag_23\n      jump\t// in\n    tag_20:\n      stop\n        /* \"contracts/WalletController.sol\":589:626  uint64 public entrypointChainSelector */\n    tag_4:\n      callvalue\n      dup1\n      iszero\n      tag_24\n      jumpi\n      0x00\n      dup1\n      revert\n    tag_24:\n      pop\n      tag_25\n      tag_26\n      jump\t// in\n    tag_25:\n      mload(0x40)\n      tag_27\n      swap2\n      swap1\n      tag_28\n      jump\t// in\n    tag_27:\n      mload(0x40)\n      dup1\n      swap2\n      sub\n      swap1\n      return\n        /* \"@chainlink/contracts-ccip@1.6.0/contracts/applications/CCIPReceiver.sol\":1710:1848  function ccipReceive(... */\n    tag_5:\n      callvalue\n      dup1\n      iszero\n      tag_29\n      jumpi\n      0x00\n      dup1\n      revert\n    tag_29:\n      pop\n      tag_30\n      0x04\n      dup1\n      calldatasize\n      sub\n      dup2\n      add\n      swap1\n      tag_31\n      swap2\n      swap1\n      tag_32\n      jump\t// in\n    tag_31:\n      tag_33\n      jump\t// in\n    tag_30:\n      stop\n        /* \"contracts/WalletController.sol\":508:540  address public entrypointAddress */\n    tag_6:\n      callvalue\n      dup1\n      iszero\n      tag_34\n      jumpi\n      0x00\n      dup1\n      revert\n    tag_34:\n      pop\n      tag_35\n      tag_36\n      jump\t// in\n    tag_35:\n      mload(0x40)\n      tag_37\n      swap2\n      swap1\n      tag_38\n      jump\t// in\n    tag_37:\n      mload(0x40)\n      dup1\n      swap2\n      sub\n      swap1\n      return\n        /* \"contracts/WalletController.sol\":452:501  mapping(string => address) public walletOwnership */\n    tag_7:\n      callvalue\n      dup1\n      iszero\n      tag_39\n      jumpi\n      0x00\n      dup1\n      revert\n    tag_39:\n      pop\n      tag_40\n      0x04\n      dup1\n      calldatasize\n      sub\n      dup2\n      add\n      swap1\n      tag_41\n      swap2\n      swap1\n      tag_42\n      jump\t// in\n    tag_41:\n      tag_43\n      jump\t// in\n    tag_40:\n      mload(0x40)\n      tag_44\n      swap2\n      swap1\n      tag_38\n      jump\t// in\n    tag_44:\n      mload(0x40)\n      dup1\n      swap2\n      sub\n      swap1\n      return\n        /* \"@chainlink/contracts-ccip@1.6.0/contracts/applications/CCIPReceiver.sol\":2113:2211  function getRouter() public view virtual returns (address) {... */\n    tag_8:\n      callvalue\n      dup1\n      iszero\n      tag_45\n      jumpi\n      0x00\n      dup1\n      revert\n    tag_45:\n      pop\n      tag_46\n      tag_47\n      jump\t// in\n    tag_46:\n      mload(0x40)\n      tag_48\n      swap2\n      swap1\n      tag_38\n      jump\t// in\n    tag_48:\n      mload(0x40)\n      dup1\n      swap2\n      sub\n      swap1\n      return\n        /* \"contracts/WalletController.sol\":546:583  address public userInteractionAddress */\n    tag_9:\n      callvalue\n      dup1\n      iszero\n      tag_49\n      jumpi\n      0x00\n      dup1\n      revert\n    tag_49:\n      pop\n      tag_50\n      tag_51\n      jump\t// in\n    tag_50:\n      mload(0x40)\n      tag_52\n      swap2\n      swap1\n      tag_38\n      jump\t// in\n    tag_52:\n      mload(0x40)\n      dup1\n      swap2\n      sub\n      swap1\n      return\n        /* \"contracts/WalletController.sol\":1715:1992  function depositTo(string calldata ownerId) external payable onlyAuthorized {... */\n    tag_10:\n      tag_53\n      0x04\n      dup1\n      calldatasize\n      sub\n      dup2\n      add\n      swap1\n      tag_54\n      swap2\n      swap1\n      tag_55\n      jump\t// in\n    tag_54:\n      tag_56\n      jump\t// in\n    tag_53:\n      stop\n        /* \"@chainlink/contracts-ccip@1.6.0/contracts/applications/CCIPReceiver.sol\":1447:1664  function supportsInterface(... */\n    tag_16:\n        /* \"@chainlink/contracts-ccip@1.6.0/contracts/applications/CCIPReceiver.sol\":1540:1544  bool */\n      0x00\n        /* \"@chainlink/contracts-ccip@1.6.0/contracts/applications/CCIPReceiver.sol\":1574:1615  type(IAny2EVMMessageReceiver).interfaceId */\n      0x85572ffb00000000000000000000000000000000000000000000000000000000\n        /* \"@chainlink/contracts-ccip@1.6.0/contracts/applications/CCIPReceiver.sol\":1559:1615  interfaceId == type(IAny2EVMMessageReceiver).interfaceId */\n      not(0xffffffffffffffffffffffffffffffffffffffffffffffffffffffff)\n      and\n        /* \"@chainlink/contracts-ccip@1.6.0/contracts/applications/CCIPReceiver.sol\":1559:1570  interfaceId */\n      dup3\n        /* \"@chainlink/contracts-ccip@1.6.0/contracts/applications/CCIPReceiver.sol\":1559:1615  interfaceId == type(IAny2EVMMessageReceiver).interfaceId */\n      not(0xffffffffffffffffffffffffffffffffffffffffffffffffffffffff)\n      and\n      eq\n        /* \"@chainlink/contracts-ccip@1.6.0/contracts/applications/CCIPReceiver.sol\":1559:1659  interfaceId == type(IAny2EVMMessageReceiver).interfaceId || interfaceId == type(IERC165).interfaceId */\n      dup1\n      tag_58\n      jumpi\n      pop\n        /* \"@chainlink/contracts-ccip@1.6.0/contracts/applications/CCIPReceiver.sol\":1634:1659  type(IERC165).interfaceId */\n      0x01ffc9a700000000000000000000000000000000000000000000000000000000\n        /* \"@chainlink/contracts-ccip@1.6.0/contracts/applications/CCIPReceiver.sol\":1619:1659  interfaceId == type(IERC165).interfaceId */\n      not(0xffffffffffffffffffffffffffffffffffffffffffffffffffffffff)\n      and\n        /* \"@chainlink/contracts-ccip@1.6.0/contracts/applications/CCIPReceiver.sol\":1619:1630  interfaceId */\n      dup3\n        /* \"@chainlink/contracts-ccip@1.6.0/contracts/applications/CCIPReceiver.sol\":1619:1659  interfaceId == type(IERC165).interfaceId */\n      not(0xffffffffffffffffffffffffffffffffffffffffffffffffffffffff)\n      and\n      eq\n        /* \"@chainlink/contracts-ccip@1.6.0/contracts/applications/CCIPReceiver.sol\":1559:1659  interfaceId == type(IAny2EVMMessageReceiver).interfaceId || interfaceId == type(IERC165).interfaceId */\n    tag_58:\n        /* \"@chainlink/contracts-ccip@1.6.0/contracts/applications/CCIPReceiver.sol\":1552:1659  return interfaceId == type(IAny2EVMMessageReceiver).interfaceId || interfaceId == type(IERC165).interfaceId */\n      swap1\n      pop\n        /* \"@chainlink/contracts-ccip@1.6.0/contracts/applications/CCIPReceiver.sol\":1447:1664  function supportsInterface(... */\n      swap2\n      swap1\n      pop\n      jump\t// out\n        /* \"contracts/WalletController.sol\":1998:2267  function withdrawTo(string calldata ownerId, address to, uint256 amount) external onlyAuthorized {... */\n    tag_23:\n        /* \"contracts/WalletController.sol\":762:779  entrypointAddress */\n      0x01\n      0x00\n      swap1\n      sload\n      swap1\n      0x0100\n      exp\n      swap1\n      div\n      0xffffffffffffffffffffffffffffffffffffffff\n      and\n        /* \"contracts/WalletController.sol\":748:779  msg.sender == entrypointAddress */\n      0xffffffffffffffffffffffffffffffffffffffff\n      and\n        /* \"contracts/WalletController.sol\":748:758  msg.sender */\n      caller\n        /* \"contracts/WalletController.sol\":748:779  msg.sender == entrypointAddress */\n      0xffffffffffffffffffffffffffffffffffffffff\n      and\n      eq\n        /* \"contracts/WalletController.sol\":748:819  msg.sender == entrypointAddress || msg.sender == userInteractionAddress */\n      dup1\n      tag_60\n      jumpi\n      pop\n        /* \"contracts/WalletController.sol\":797:819  userInteractionAddress */\n      0x02\n      0x00\n      swap1\n      sload\n      swap1\n      0x0100\n      exp\n      swap1\n      div\n      0xffffffffffffffffffffffffffffffffffffffff\n      and\n        /* \"contracts/WalletController.sol\":783:819  msg.sender == userInteractionAddress */\n      0xffffffffffffffffffffffffffffffffffffffff\n      and\n        /* \"contracts/WalletController.sol\":783:793  msg.sender */\n      caller\n        /* \"contracts/WalletController.sol\":783:819  msg.sender == userInteractionAddress */\n      0xffffffffffffffffffffffffffffffffffffffff\n      and\n      eq\n        /* \"contracts/WalletController.sol\":748:819  msg.sender == entrypointAddress || msg.sender == userInteractionAddress */\n    tag_60:\n        /* \"contracts/WalletController.sol\":727:864  require(... */\n      tag_61\n      jumpi\n      mload(0x40)\n      0x08c379a000000000000000000000000000000000000000000000000000000000\n      dup2\n      mstore\n      0x04\n      add\n      tag_62\n      swap1\n      tag_63\n      jump\t// in\n    tag_62:\n      mload(0x40)\n      dup1\n      swap2\n      sub\n      swap1\n      revert\n    tag_61:\n        /* \"contracts/WalletController.sol\":2105:2119  address wallet */\n      0x00\n        /* \"contracts/WalletController.sol\":2122:2137  walletOwnership */\n      dup1\n        /* \"contracts/WalletController.sol\":2138:2145  ownerId */\n      dup6\n      dup6\n        /* \"contracts/WalletController.sol\":2122:2146  walletOwnership[ownerId] */\n      mload(0x40)\n      tag_65\n      swap3\n      swap2\n      swap1\n      tag_66\n      jump\t// in\n    tag_65:\n      swap1\n      dup2\n      mstore\n      0x20\n      add\n      mload(0x40)\n      dup1\n      swap2\n      sub\n      swap1\n      keccak256\n      0x00\n      swap1\n      sload\n      swap1\n      0x0100\n      exp\n      swap1\n      div\n      0xffffffffffffffffffffffffffffffffffffffff\n      and\n        /* \"contracts/WalletController.sol\":2105:2146  address wallet = walletOwnership[ownerId] */\n      swap1\n      pop\n        /* \"contracts/WalletController.sol\":2182:2183  0 */\n      0x00\n        /* \"contracts/WalletController.sol\":2164:2184  wallet != address(0) */\n      0xffffffffffffffffffffffffffffffffffffffff\n      and\n        /* \"contracts/WalletController.sol\":2164:2170  wallet */\n      dup2\n        /* \"contracts/WalletController.sol\":2164:2184  wallet != address(0) */\n      0xffffffffffffffffffffffffffffffffffffffff\n      and\n      sub\n        /* \"contracts/WalletController.sol\":2156:2205  require(wallet != address(0), \"Wallet not found\") */\n      tag_67\n      jumpi\n      mload(0x40)\n      0x08c379a000000000000000000000000000000000000000000000000000000000\n      dup2\n      mstore\n      0x04\n      add\n      tag_68\n      swap1\n      tag_69\n      jump\t// in\n    tag_68:\n      mload(0x40)\n      dup1\n      swap2\n      sub\n      swap1\n      revert\n    tag_67:\n        /* \"contracts/WalletController.sol\":2231:2237  wallet */\n      dup1\n        /* \"contracts/WalletController.sol\":2216:2248  Wallet(payable(wallet)).withdraw */\n      0xffffffffffffffffffffffffffffffffffffffff\n      and\n      0xf3fef3a3\n        /* \"contracts/WalletController.sol\":2249:2251  to */\n      dup5\n        /* \"contracts/WalletController.sol\":2253:2259  amount */\n      dup5\n        /* \"contracts/WalletController.sol\":2216:2260  Wallet(payable(wallet)).withdraw(to, amount) */\n      mload(0x40)\n      dup4\n      0xffffffff\n      and\n      0xe0\n      shl\n      dup2\n      mstore\n      0x04\n      add\n      tag_70\n      swap3\n      swap2\n      swap1\n      tag_71\n      jump\t// in\n    tag_70:\n      0x00\n      mload(0x40)\n      dup1\n      dup4\n      sub\n      dup2\n      0x00\n      dup8\n      dup1\n      extcodesize\n      iszero\n      dup1\n      iszero\n      tag_72\n      jumpi\n      0x00\n      dup1\n      revert\n    tag_72:\n      pop\n      gas\n      call\n      iszero\n      dup1\n      iszero\n      tag_74\n      jumpi\n      returndatasize\n      0x00\n      dup1\n      returndatacopy\n      revert(0x00, returndatasize)\n    tag_74:\n      pop\n      pop\n      pop\n      pop\n        /* \"contracts/WalletController.sol\":2095:2267  {... */\n      pop\n        /* \"contracts/WalletController.sol\":1998:2267  function withdrawTo(string calldata ownerId, address to, uint256 amount) external onlyAuthorized {... */\n      pop\n      pop\n      pop\n      pop\n      jump\t// out\n        /* \"contracts/WalletController.sol\":589:626  uint64 public entrypointChainSelector */\n    tag_26:\n      0x02\n      0x14\n      swap1\n      sload\n      swap1\n      0x0100\n      exp\n      swap1\n      div\n      0xffffffffffffffff\n      and\n      dup2\n      jump\t// out\n        /* \"@chainlink/contracts-ccip@1.6.0/contracts/applications/CCIPReceiver.sol\":1710:1848  function ccipReceive(... */\n    tag_33:\n        /* \"@chainlink/contracts-ccip@1.6.0/contracts/applications/CCIPReceiver.sol\":2357:2368  getRouter() */\n      tag_76\n        /* \"@chainlink/contracts-ccip@1.6.0/contracts/applications/CCIPReceiver.sol\":2357:2366  getRouter */\n      tag_47\n        /* \"@chainlink/contracts-ccip@1.6.0/contracts/applications/CCIPReceiver.sol\":2357:2368  getRouter() */\n      jump\t// in\n    tag_76:\n        /* \"@chainlink/contracts-ccip@1.6.0/contracts/applications/CCIPReceiver.sol\":2343:2368  msg.sender != getRouter() */\n      0xffffffffffffffffffffffffffffffffffffffff\n      and\n        /* \"@chainlink/contracts-ccip@1.6.0/contracts/applications/CCIPReceiver.sol\":2343:2353  msg.sender */\n      caller\n        /* \"@chainlink/contracts-ccip@1.6.0/contracts/applications/CCIPReceiver.sol\":2343:2368  msg.sender != getRouter() */\n      0xffffffffffffffffffffffffffffffffffffffff\n      and\n      eq\n        /* \"@chainlink/contracts-ccip@1.6.0/contracts/applications/CCIPReceiver.sol\":2339:2402  if (msg.sender != getRouter()) revert InvalidRouter(msg.sender) */\n      tag_77\n      jumpi\n        /* \"@chainlink/contracts-ccip@1.6.0/contracts/applications/CCIPReceiver.sol\":2391:2401  msg.sender */\n      caller\n        /* \"@chainlink/contracts-ccip@1.6.0/contracts/applications/CCIPReceiver.sol\":2377:2402  InvalidRouter(msg.sender) */\n      mload(0x40)\n      0xd7f7333400000000000000000000000000000000000000000000000000000000\n      dup2\n      mstore\n      0x04\n      add\n      tag_78\n      swap2\n      swap1\n      tag_38\n      jump\t// in\n    tag_78:\n      mload(0x40)\n      dup1\n      swap2\n      sub\n      swap1\n      revert\n        /* \"@chainlink/contracts-ccip@1.6.0/contracts/applications/CCIPReceiver.sol\":2339:2402  if (msg.sender != getRouter()) revert InvalidRouter(msg.sender) */\n    tag_77:\n        /* \"@chainlink/contracts-ccip@1.6.0/contracts/applications/CCIPReceiver.sol\":1822:1843  _ccipReceive(message) */\n      tag_80\n        /* \"@chainlink/contracts-ccip@1.6.0/contracts/applications/CCIPReceiver.sol\":1835:1842  message */\n      dup2\n        /* \"@chainlink/contracts-ccip@1.6.0/contracts/applications/CCIPReceiver.sol\":1822:1843  _ccipReceive(message) */\n      tag_81\n      swap1\n      tag_82\n      jump\t// in\n    tag_81:\n        /* \"@chainlink/contracts-ccip@1.6.0/contracts/applications/CCIPReceiver.sol\":1822:1834  _ccipReceive */\n      tag_83\n        /* \"@chainlink/contracts-ccip@1.6.0/contracts/applications/CCIPReceiver.sol\":1822:1843  _ccipReceive(message) */\n      jump\t// in\n    tag_80:\n        /* \"@chainlink/contracts-ccip@1.6.0/contracts/applications/CCIPReceiver.sol\":1710:1848  function ccipReceive(... */\n      pop\n      jump\t// out\n        /* \"contracts/WalletController.sol\":508:540  address public entrypointAddress */\n    tag_36:\n      0x01\n      0x00\n      swap1\n      sload\n      swap1\n      0x0100\n      exp\n      swap1\n      div\n      0xffffffffffffffffffffffffffffffffffffffff\n      and\n      dup2\n      jump\t// out\n        /* \"contracts/WalletController.sol\":452:501  mapping(string => address) public walletOwnership */\n    tag_43:\n      0x00\n      dup2\n      dup1\n      mload\n      0x20\n      dup2\n      add\n      dup3\n      add\n      dup1\n      mload\n      dup5\n      dup3\n      mstore\n      0x20\n      dup4\n      add\n      0x20\n      dup6\n      add\n      keccak256\n      dup2\n      dup4\n      mstore\n      dup1\n      swap6\n      pop\n      pop\n      pop\n      pop\n      pop\n      pop\n      0x00\n      swap2\n      pop\n      sload\n      swap1\n      0x0100\n      exp\n      swap1\n      div\n      0xffffffffffffffffffffffffffffffffffffffff\n      and\n      dup2\n      jump\t// out\n        /* \"@chainlink/contracts-ccip@1.6.0/contracts/applications/CCIPReceiver.sol\":2113:2211  function getRouter() public view virtual returns (address) {... */\n    tag_47:\n        /* \"@chainlink/contracts-ccip@1.6.0/contracts/applications/CCIPReceiver.sol\":2163:2170  address */\n      0x00\n        /* \"@chainlink/contracts-ccip@1.6.0/contracts/applications/CCIPReceiver.sol\":2193:2205  i_ccipRouter */\n      immutable(\"0x5c4c6aa067b6f8e6cb38e6ab843832a94d1712d661a04d73c517d6a1931a9e5d\")\n        /* \"@chainlink/contracts-ccip@1.6.0/contracts/applications/CCIPReceiver.sol\":2178:2206  return address(i_ccipRouter) */\n      swap1\n      pop\n        /* \"@chainlink/contracts-ccip@1.6.0/contracts/applications/CCIPReceiver.sol\":2113:2211  function getRouter() public view virtual returns (address) {... */\n      swap1\n      jump\t// out\n        /* \"contracts/WalletController.sol\":546:583  address public userInteractionAddress */\n    tag_51:\n      0x02\n      0x00\n      swap1\n      sload\n      swap1\n      0x0100\n      exp\n      swap1\n      div\n      0xffffffffffffffffffffffffffffffffffffffff\n      and\n      dup2\n      jump\t// out\n        /* \"contracts/WalletController.sol\":1715:1992  function depositTo(string calldata ownerId) external payable onlyAuthorized {... */\n    tag_56:\n        /* \"contracts/WalletController.sol\":762:779  entrypointAddress */\n      0x01\n      0x00\n      swap1\n      sload\n      swap1\n      0x0100\n      exp\n      swap1\n      div\n      0xffffffffffffffffffffffffffffffffffffffff\n      and\n        /* \"contracts/WalletController.sol\":748:779  msg.sender == entrypointAddress */\n      0xffffffffffffffffffffffffffffffffffffffff\n      and\n        /* \"contracts/WalletController.sol\":748:758  msg.sender */\n      caller\n        /* \"contracts/WalletController.sol\":748:779  msg.sender == entrypointAddress */\n      0xffffffffffffffffffffffffffffffffffffffff\n      and\n      eq\n        /* \"contracts/WalletController.sol\":748:819  msg.sender == entrypointAddress || msg.sender == userInteractionAddress */\n      dup1\n      tag_86\n      jumpi\n      pop\n        /* \"contracts/WalletController.sol\":797:819  userInteractionAddress */\n      0x02\n      0x00\n      swap1\n      sload\n      swap1\n      0x0100\n      exp\n      swap1\n      div\n      0xffffffffffffffffffffffffffffffffffffffff\n      and\n        /* \"contracts/WalletController.sol\":783:819  msg.sender == userInteractionAddress */\n      0xffffffffffffffffffffffffffffffffffffffff\n      and\n        /* \"contracts/WalletController.sol\":783:793  msg.sender */\n      caller\n        /* \"contracts/WalletController.sol\":783:819  msg.sender == userInteractionAddress */\n      0xffffffffffffffffffffffffffffffffffffffff\n      and\n      eq\n        /* \"contracts/WalletController.sol\":748:819  msg.sender == entrypointAddress || msg.sender == userInteractionAddress */\n    tag_86:\n        /* \"contracts/WalletController.sol\":727:864  require(... */\n      tag_87\n      jumpi\n      mload(0x40)\n      0x08c379a000000000000000000000000000000000000000000000000000000000\n      dup2\n      mstore\n      0x04\n      add\n      tag_88\n      swap1\n      tag_63\n      jump\t// in\n    tag_88:\n      mload(0x40)\n      dup1\n      swap2\n      sub\n      swap1\n      revert\n    tag_87:\n        /* \"contracts/WalletController.sol\":1801:1815  address wallet */\n      0x00\n        /* \"contracts/WalletController.sol\":1818:1845  _getOrCreateWallet(ownerId) */\n      tag_90\n        /* \"contracts/WalletController.sol\":1837:1844  ownerId */\n      dup4\n      dup4\n        /* \"contracts/WalletController.sol\":1818:1845  _getOrCreateWallet(ownerId) */\n      dup1\n      dup1\n      0x1f\n      add\n      0x20\n      dup1\n      swap2\n      div\n      mul\n      0x20\n      add\n      mload(0x40)\n      swap1\n      dup2\n      add\n      0x40\n      mstore\n      dup1\n      swap4\n      swap3\n      swap2\n      swap1\n      dup2\n      dup2\n      mstore\n      0x20\n      add\n      dup4\n      dup4\n      dup1\n      dup3\n      dup5\n      calldatacopy\n      0x00\n      dup2\n      dup5\n      add\n      mstore\n      not(0x1f)\n      0x1f\n      dup3\n      add\n      and\n      swap1\n      pop\n      dup1\n      dup4\n      add\n      swap3\n      pop\n      pop\n      pop\n      pop\n      pop\n      pop\n      pop\n        /* \"contracts/WalletController.sol\":1818:1836  _getOrCreateWallet */\n      tag_91\n        /* \"contracts/WalletController.sol\":1818:1845  _getOrCreateWallet(ownerId) */\n      jump\t// in\n    tag_90:\n        /* \"contracts/WalletController.sol\":1801:1845  address wallet = _getOrCreateWallet(ownerId) */\n      swap1\n      pop\n        /* \"contracts/WalletController.sol\":1856:1868  bool success */\n      0x00\n        /* \"contracts/WalletController.sol\":1874:1880  wallet */\n      dup2\n        /* \"contracts/WalletController.sol\":1874:1885  wallet.call */\n      0xffffffffffffffffffffffffffffffffffffffff\n      and\n        /* \"contracts/WalletController.sol\":1893:1902  msg.value */\n      callvalue\n        /* \"contracts/WalletController.sol\":1904:1940  abi.encodeWithSignature(\"deposit()\") */\n      add(0x24, mload(0x40))\n      mload(0x40)\n      0x20\n      dup2\n      dup4\n      sub\n      sub\n      dup2\n      mstore\n      swap1\n      0x40\n      mstore\n      and(not(0xffffffffffffffffffffffffffffffffffffffffffffffffffffffff), 0xd0e30db000000000000000000000000000000000000000000000000000000000)\n      0x20\n      dup3\n      add\n      dup1\n      mload\n      0xffffffffffffffffffffffffffffffffffffffffffffffffffffffff\n      dup4\n      dup2\n      dup4\n      and\n      or\n      dup4\n      mstore\n      pop\n      pop\n      pop\n      pop\n        /* \"contracts/WalletController.sol\":1874:1941  wallet.call{value: msg.value}(abi.encodeWithSignature(\"deposit()\")) */\n      mload(0x40)\n      tag_92\n      swap2\n      swap1\n      tag_93\n      jump\t// in\n    tag_92:\n      0x00\n      mload(0x40)\n      dup1\n      dup4\n      sub\n      dup2\n      dup6\n      dup8\n      gas\n      call\n      swap3\n      pop\n      pop\n      pop\n      returndatasize\n      dup1\n      0x00\n      dup2\n      eq\n      tag_96\n      jumpi\n      mload(0x40)\n      swap2\n      pop\n      and(add(returndatasize, 0x3f), not(0x1f))\n      dup3\n      add\n      0x40\n      mstore\n      returndatasize\n      dup3\n      mstore\n      returndatasize\n      0x00\n      0x20\n      dup5\n      add\n      returndatacopy\n      jump(tag_95)\n    tag_96:\n      0x60\n      swap2\n      pop\n    tag_95:\n      pop\n        /* \"contracts/WalletController.sol\":1855:1941  (bool success, ) = wallet.call{value: msg.value}(abi.encodeWithSignature(\"deposit()\")) */\n      pop\n      swap1\n      pop\n        /* \"contracts/WalletController.sol\":1959:1966  success */\n      dup1\n        /* \"contracts/WalletController.sol\":1951:1985  require(success, \"Deposit failed\") */\n      tag_97\n      jumpi\n      mload(0x40)\n      0x08c379a000000000000000000000000000000000000000000000000000000000\n      dup2\n      mstore\n      0x04\n      add\n      tag_98\n      swap1\n      tag_99\n      jump\t// in\n    tag_98:\n      mload(0x40)\n      dup1\n      swap2\n      sub\n      swap1\n      revert\n    tag_97:\n        /* \"contracts/WalletController.sol\":1791:1992  {... */\n      pop\n      pop\n        /* \"contracts/WalletController.sol\":1715:1992  function depositTo(string calldata ownerId) external payable onlyAuthorized {... */\n      pop\n      pop\n      jump\t// out\n        /* \"contracts/WalletController.sol\":2630:2878  function _ccipReceive(Client.Any2EVMMessage memory message) internal override {... */\n    tag_83:\n        /* \"contracts/WalletController.sol\":2718:2744  TradeDetails memory txData */\n      0x00\n        /* \"contracts/WalletController.sol\":2758:2765  message */\n      dup2\n        /* \"contracts/WalletController.sol\":2758:2770  message.data */\n      0x60\n      add\n      mload\n        /* \"contracts/WalletController.sol\":2747:2787  abi.decode(message.data, (TradeDetails)) */\n      dup1\n      0x20\n      add\n      swap1\n      mload\n      dup2\n      add\n      swap1\n      tag_101\n      swap2\n      swap1\n      tag_102\n      jump\t// in\n    tag_101:\n        /* \"contracts/WalletController.sol\":2718:2787  TradeDetails memory txData = abi.decode(message.data, (TradeDetails)) */\n      swap1\n      pop\n        /* \"contracts/WalletController.sol\":2797:2871  transferTo(txData.sourceOwnerId, txData.destinationOwnerId, txData.amount) */\n      tag_103\n        /* \"contracts/WalletController.sol\":2808:2814  txData */\n      dup2\n        /* \"contracts/WalletController.sol\":2808:2828  txData.sourceOwnerId */\n      0x00\n      add\n      mload\n        /* \"contracts/WalletController.sol\":2830:2836  txData */\n      dup3\n        /* \"contracts/WalletController.sol\":2830:2855  txData.destinationOwnerId */\n      0x20\n      add\n      mload\n        /* \"contracts/WalletController.sol\":2857:2863  txData */\n      dup4\n        /* \"contracts/WalletController.sol\":2857:2870  txData.amount */\n      0x40\n      add\n      mload\n        /* \"contracts/WalletController.sol\":2797:2807  transferTo */\n      tag_104\n        /* \"contracts/WalletController.sol\":2797:2871  transferTo(txData.sourceOwnerId, txData.destinationOwnerId, txData.amount) */\n      jump\t// in\n    tag_103:\n        /* \"contracts/WalletController.sol\":2708:2878  {... */\n      pop\n        /* \"contracts/WalletController.sol\":2630:2878  function _ccipReceive(Client.Any2EVMMessage memory message) internal override {... */\n      pop\n      jump\t// out\n        /* \"contracts/WalletController.sol\":1366:1709  function _getOrCreateWallet(string memory ownerId) internal returns (address wallet) {... */\n    tag_91:\n        /* \"contracts/WalletController.sol\":1435:1449  address wallet */\n      0x00\n        /* \"contracts/WalletController.sol\":1470:1485  walletOwnership */\n      dup1\n        /* \"contracts/WalletController.sol\":1486:1493  ownerId */\n      dup3\n        /* \"contracts/WalletController.sol\":1470:1494  walletOwnership[ownerId] */\n      mload(0x40)\n      tag_106\n      swap2\n      swap1\n      tag_107\n      jump\t// in\n    tag_106:\n      swap1\n      dup2\n      mstore\n      0x20\n      add\n      mload(0x40)\n      dup1\n      swap2\n      sub\n      swap1\n      keccak256\n      0x00\n      swap1\n      sload\n      swap1\n      0x0100\n      exp\n      swap1\n      div\n      0xffffffffffffffffffffffffffffffffffffffff\n      and\n        /* \"contracts/WalletController.sol\":1461:1494  wallet = walletOwnership[ownerId] */\n      swap1\n      pop\n        /* \"contracts/WalletController.sol\":1526:1527  0 */\n      0x00\n        /* \"contracts/WalletController.sol\":1508:1528  wallet == address(0) */\n      0xffffffffffffffffffffffffffffffffffffffff\n      and\n        /* \"contracts/WalletController.sol\":1508:1514  wallet */\n      dup2\n        /* \"contracts/WalletController.sol\":1508:1528  wallet == address(0) */\n      0xffffffffffffffffffffffffffffffffffffffff\n      and\n      sub\n        /* \"contracts/WalletController.sol\":1504:1703  if (wallet == address(0)) {... */\n      tag_108\n      jumpi\n        /* \"contracts/WalletController.sol\":1580:1584  this */\n      address\n        /* \"contracts/WalletController.sol\":1587:1594  ownerId */\n      dup3\n        /* \"contracts/WalletController.sol\":1561:1595  new Wallet(address(this), ownerId) */\n      mload(0x40)\n      tag_109\n      swap1\n      tag_110\n      jump\t// in\n    tag_109:\n      tag_111\n      swap3\n      swap2\n      swap1\n      tag_112\n      jump\t// in\n    tag_111:\n      mload(0x40)\n      dup1\n      swap2\n      sub\n      swap1\n      0x00\n      create\n      dup1\n      iszero\n      dup1\n      iszero\n      tag_113\n      jumpi\n      returndatasize\n      0x00\n      dup1\n      returndatacopy\n      revert(0x00, returndatasize)\n    tag_113:\n      pop\n        /* \"contracts/WalletController.sol\":1544:1596  wallet = address(new Wallet(address(this), ownerId)) */\n      swap1\n      pop\n        /* \"contracts/WalletController.sol\":1637:1643  wallet */\n      dup1\n        /* \"contracts/WalletController.sol\":1610:1625  walletOwnership */\n      0x00\n        /* \"contracts/WalletController.sol\":1626:1633  ownerId */\n      dup4\n        /* \"contracts/WalletController.sol\":1610:1634  walletOwnership[ownerId] */\n      mload(0x40)\n      tag_114\n      swap2\n      swap1\n      tag_107\n      jump\t// in\n    tag_114:\n      swap1\n      dup2\n      mstore\n      0x20\n      add\n      mload(0x40)\n      dup1\n      swap2\n      sub\n      swap1\n      keccak256\n      0x00\n        /* \"contracts/WalletController.sol\":1610:1643  walletOwnership[ownerId] = wallet */\n      0x0100\n      exp\n      dup2\n      sload\n      dup2\n      0xffffffffffffffffffffffffffffffffffffffff\n      mul\n      not\n      and\n      swap1\n      dup4\n      0xffffffffffffffffffffffffffffffffffffffff\n      and\n      mul\n      or\n      swap1\n      sstore\n      pop\n        /* \"contracts/WalletController.sol\":1662:1692  WalletCreated(ownerId, wallet) */\n      0x582ba04b4371b240e4864e0bea1ca69f930e4b5e4b2fa7e5e5582b1ca39e00ef\n        /* \"contracts/WalletController.sol\":1676:1683  ownerId */\n      dup3\n        /* \"contracts/WalletController.sol\":1685:1691  wallet */\n      dup3\n        /* \"contracts/WalletController.sol\":1662:1692  WalletCreated(ownerId, wallet) */\n      mload(0x40)\n      tag_115\n      swap3\n      swap2\n      swap1\n      tag_116\n      jump\t// in\n    tag_115:\n      mload(0x40)\n      dup1\n      swap2\n      sub\n      swap1\n      log1\n        /* \"contracts/WalletController.sol\":1504:1703  if (wallet == address(0)) {... */\n    tag_108:\n        /* \"contracts/WalletController.sol\":1366:1709  function _getOrCreateWallet(string memory ownerId) internal returns (address wallet) {... */\n      swap2\n      swap1\n      pop\n      jump\t// out\n        /* \"contracts/WalletController.sol\":2273:2624  function transferTo(string memory sourceOwnerId, string memory destinationOwnerId, uint256 amount) internal onlyAuthorized{... */\n    tag_104:\n        /* \"contracts/WalletController.sol\":762:779  entrypointAddress */\n      0x01\n      0x00\n      swap1\n      sload\n      swap1\n      0x0100\n      exp\n      swap1\n      div\n      0xffffffffffffffffffffffffffffffffffffffff\n      and\n        /* \"contracts/WalletController.sol\":748:779  msg.sender == entrypointAddress */\n      0xffffffffffffffffffffffffffffffffffffffff\n      and\n        /* \"contracts/WalletController.sol\":748:758  msg.sender */\n      caller\n        /* \"contracts/WalletController.sol\":748:779  msg.sender == entrypointAddress */\n      0xffffffffffffffffffffffffffffffffffffffff\n      and\n      eq\n        /* \"contracts/WalletController.sol\":748:819  msg.sender == entrypointAddress || msg.sender == userInteractionAddress */\n      dup1\n      tag_118\n      jumpi\n      pop\n        /* \"contracts/WalletController.sol\":797:819  userInteractionAddress */\n      0x02\n      0x00\n      swap1\n      sload\n      swap1\n      0x0100\n      exp\n      swap1\n      div\n      0xffffffffffffffffffffffffffffffffffffffff\n      and\n        /* \"contracts/WalletController.sol\":783:819  msg.sender == userInteractionAddress */\n      0xffffffffffffffffffffffffffffffffffffffff\n      and\n        /* \"contracts/WalletController.sol\":783:793  msg.sender */\n      caller\n        /* \"contracts/WalletController.sol\":783:819  msg.sender == userInteractionAddress */\n      0xffffffffffffffffffffffffffffffffffffffff\n      and\n      eq\n        /* \"contracts/WalletController.sol\":748:819  msg.sender == entrypointAddress || msg.sender == userInteractionAddress */\n    tag_118:\n        /* \"contracts/WalletController.sol\":727:864  require(... */\n      tag_119\n      jumpi\n      mload(0x40)\n      0x08c379a000000000000000000000000000000000000000000000000000000000\n      dup2\n      mstore\n      0x04\n      add\n      tag_120\n      swap1\n      tag_63\n      jump\t// in\n    tag_120:\n      mload(0x40)\n      dup1\n      swap2\n      sub\n      swap1\n      revert\n    tag_119:\n        /* \"contracts/WalletController.sol\":2405:2426  address sourceAddress */\n      0x00\n        /* \"contracts/WalletController.sol\":2429:2462  _getOrCreateWallet(sourceOwnerId) */\n      tag_122\n        /* \"contracts/WalletController.sol\":2448:2461  sourceOwnerId */\n      dup5\n        /* \"contracts/WalletController.sol\":2429:2447  _getOrCreateWallet */\n      tag_91\n        /* \"contracts/WalletController.sol\":2429:2462  _getOrCreateWallet(sourceOwnerId) */\n      jump\t// in\n    tag_122:\n        /* \"contracts/WalletController.sol\":2405:2462  address sourceAddress = _getOrCreateWallet(sourceOwnerId) */\n      swap1\n      pop\n        /* \"contracts/WalletController.sol\":2472:2498  address destinationAddress */\n      0x00\n        /* \"contracts/WalletController.sol\":2501:2539  _getOrCreateWallet(destinationOwnerId) */\n      tag_123\n        /* \"contracts/WalletController.sol\":2520:2538  destinationOwnerId */\n      dup5\n        /* \"contracts/WalletController.sol\":2501:2519  _getOrCreateWallet */\n      tag_91\n        /* \"contracts/WalletController.sol\":2501:2539  _getOrCreateWallet(destinationOwnerId) */\n      jump\t// in\n    tag_123:\n        /* \"contracts/WalletController.sol\":2472:2539  address destinationAddress = _getOrCreateWallet(destinationOwnerId) */\n      swap1\n      pop\n        /* \"contracts/WalletController.sol\":2565:2578  sourceAddress */\n      dup2\n        /* \"contracts/WalletController.sol\":2550:2589  Wallet(payable(sourceAddress)).withdraw */\n      0xffffffffffffffffffffffffffffffffffffffff\n      and\n      0xf3fef3a3\n        /* \"contracts/WalletController.sol\":2590:2608  destinationAddress */\n      dup3\n        /* \"contracts/WalletController.sol\":2610:2616  amount */\n      dup6\n        /* \"contracts/WalletController.sol\":2550:2617  Wallet(payable(sourceAddress)).withdraw(destinationAddress, amount) */\n      mload(0x40)\n      dup4\n      0xffffffff\n      and\n      0xe0\n      shl\n      dup2\n      mstore\n      0x04\n      add\n      tag_124\n      swap3\n      swap2\n      swap1\n      tag_71\n      jump\t// in\n    tag_124:\n      0x00\n      mload(0x40)\n      dup1\n      dup4\n      sub\n      dup2\n      0x00\n      dup8\n      dup1\n      extcodesize\n      iszero\n      dup1\n      iszero\n      tag_125\n      jumpi\n      0x00\n      dup1\n      revert\n    tag_125:\n      pop\n      gas\n      call\n      iszero\n      dup1\n      iszero\n      tag_127\n      jumpi\n      returndatasize\n      0x00\n      dup1\n      returndatacopy\n      revert(0x00, returndatasize)\n    tag_127:\n      pop\n      pop\n      pop\n      pop\n        /* \"contracts/WalletController.sol\":2395:2624  {... */\n      pop\n      pop\n        /* \"contracts/WalletController.sol\":2273:2624  function transferTo(string memory sourceOwnerId, string memory destinationOwnerId, uint256 amount) internal onlyAuthorized{... */\n      pop\n      pop\n      pop\n      jump\t// out\n    tag_110:\n      dataSize(sub_0)\n      dup1\n      dataOffset(sub_0)\n      dup4\n      codecopy\n      add\n      swap1\n      jump\t// out\n        /* \"#utility.yul\":7:82   */\n    tag_128:\n        /* \"#utility.yul\":40:46   */\n      0x00\n        /* \"#utility.yul\":73:75   */\n      0x40\n        /* \"#utility.yul\":67:76   */\n      mload\n        /* \"#utility.yul\":57:76   */\n      swap1\n      pop\n        /* \"#utility.yul\":7:82   */\n      swap1\n      jump\t// out\n        /* \"#utility.yul\":88:205   */\n    tag_129:\n        /* \"#utility.yul\":197:198   */\n      0x00\n        /* \"#utility.yul\":194:195   */\n      dup1\n        /* \"#utility.yul\":187:199   */\n      revert\n        /* \"#utility.yul\":211:328   */\n    tag_130:\n        /* \"#utility.yul\":320:321   */\n      0x00\n        /* \"#utility.yul\":317:318   */\n      dup1\n        /* \"#utility.yul\":310:322   */\n      revert\n        /* \"#utility.yul\":334:483   */\n    tag_131:\n        /* \"#utility.yul\":370:377   */\n      0x00\n        /* \"#utility.yul\":410:476   */\n      0xffffffff00000000000000000000000000000000000000000000000000000000\n        /* \"#utility.yul\":403:408   */\n      dup3\n        /* \"#utility.yul\":399:477   */\n      and\n        /* \"#utility.yul\":388:477   */\n      swap1\n      pop\n        /* \"#utility.yul\":334:483   */\n      swap2\n      swap1\n      pop\n      jump\t// out\n        /* \"#utility.yul\":489:609   */\n    tag_132:\n        /* \"#utility.yul\":561:584   */\n      tag_203\n        /* \"#utility.yul\":578:583   */\n      dup2\n        /* \"#utility.yul\":561:584   */\n      tag_131\n      jump\t// in\n    tag_203:\n        /* \"#utility.yul\":554:559   */\n      dup2\n        /* \"#utility.yul\":551:585   */\n      eq\n        /* \"#utility.yul\":541:603   */\n      tag_204\n      jumpi\n        /* \"#utility.yul\":599:600   */\n      0x00\n        /* \"#utility.yul\":596:597   */\n      dup1\n        /* \"#utility.yul\":589:601   */\n      revert\n        /* \"#utility.yul\":541:603   */\n    tag_204:\n        /* \"#utility.yul\":489:609   */\n      pop\n      jump\t// out\n        /* \"#utility.yul\":615:752   */\n    tag_133:\n        /* \"#utility.yul\":660:665   */\n      0x00\n        /* \"#utility.yul\":698:704   */\n      dup2\n        /* \"#utility.yul\":685:705   */\n      calldataload\n        /* \"#utility.yul\":676:705   */\n      swap1\n      pop\n        /* \"#utility.yul\":714:746   */\n      tag_206\n        /* \"#utility.yul\":740:745   */\n      dup2\n        /* \"#utility.yul\":714:746   */\n      tag_132\n      jump\t// in\n    tag_206:\n        /* \"#utility.yul\":615:752   */\n      swap3\n      swap2\n      pop\n      pop\n      jump\t// out\n        /* \"#utility.yul\":758:1085   */\n    tag_15:\n        /* \"#utility.yul\":816:822   */\n      0x00\n        /* \"#utility.yul\":865:867   */\n      0x20\n        /* \"#utility.yul\":853:862   */\n      dup3\n        /* \"#utility.yul\":844:851   */\n      dup5\n        /* \"#utility.yul\":840:863   */\n      sub\n        /* \"#utility.yul\":836:868   */\n      slt\n        /* \"#utility.yul\":833:952   */\n      iszero\n      tag_208\n      jumpi\n        /* \"#utility.yul\":871:950   */\n      tag_209\n      tag_129\n      jump\t// in\n    tag_209:\n        /* \"#utility.yul\":833:952   */\n    tag_208:\n        /* \"#utility.yul\":991:992   */\n      0x00\n        /* \"#utility.yul\":1016:1068   */\n      tag_210\n        /* \"#utility.yul\":1060:1067   */\n      dup5\n        /* \"#utility.yul\":1051:1057   */\n      dup3\n        /* \"#utility.yul\":1040:1049   */\n      dup6\n        /* \"#utility.yul\":1036:1058   */\n      add\n        /* \"#utility.yul\":1016:1068   */\n      tag_133\n      jump\t// in\n    tag_210:\n        /* \"#utility.yul\":1006:1068   */\n      swap2\n      pop\n        /* \"#utility.yul\":962:1078   */\n      pop\n        /* \"#utility.yul\":758:1085   */\n      swap3\n      swap2\n      pop\n      pop\n      jump\t// out\n        /* \"#utility.yul\":1091:1181   */\n    tag_134:\n        /* \"#utility.yul\":1125:1132   */\n      0x00\n        /* \"#utility.yul\":1168:1173   */\n      dup2\n        /* \"#utility.yul\":1161:1174   */\n      iszero\n        /* \"#utility.yul\":1154:1175   */\n      iszero\n        /* \"#utility.yul\":1143:1175   */\n      swap1\n      pop\n        /* \"#utility.yul\":1091:1181   */\n      swap2\n      swap1\n      pop\n      jump\t// out\n        /* \"#utility.yul\":1187:1296   */\n    tag_135:\n        /* \"#utility.yul\":1268:1289   */\n      tag_213\n        /* \"#utility.yul\":1283:1288   */\n      dup2\n        /* \"#utility.yul\":1268:1289   */\n      tag_134\n      jump\t// in\n    tag_213:\n        /* \"#utility.yul\":1263:1266   */\n      dup3\n        /* \"#utility.yul\":1256:1290   */\n      mstore\n        /* \"#utility.yul\":1187:1296   */\n      pop\n      pop\n      jump\t// out\n        /* \"#utility.yul\":1302:1512   */\n    tag_18:\n        /* \"#utility.yul\":1389:1393   */\n      0x00\n        /* \"#utility.yul\":1427:1429   */\n      0x20\n        /* \"#utility.yul\":1416:1425   */\n      dup3\n        /* \"#utility.yul\":1412:1430   */\n      add\n        /* \"#utility.yul\":1404:1430   */\n      swap1\n      pop\n        /* \"#utility.yul\":1440:1505   */\n      tag_215\n        /* \"#utility.yul\":1502:1503   */\n      0x00\n        /* \"#utility.yul\":1491:1500   */\n      dup4\n        /* \"#utility.yul\":1487:1504   */\n      add\n        /* \"#utility.yul\":1478:1484   */\n      dup5\n        /* \"#utility.yul\":1440:1505   */\n      tag_135\n      jump\t// in\n    tag_215:\n        /* \"#utility.yul\":1302:1512   */\n      swap3\n      swap2\n      pop\n      pop\n      jump\t// out\n        /* \"#utility.yul\":1518:1635   */\n    tag_136:\n        /* \"#utility.yul\":1627:1628   */\n      0x00\n        /* \"#utility.yul\":1624:1625   */\n      dup1\n        /* \"#utility.yul\":1617:1629   */\n      revert\n        /* \"#utility.yul\":1641:1758   */\n    tag_137:\n        /* \"#utility.yul\":1750:1751   */\n      0x00\n        /* \"#utility.yul\":1747:1748   */\n      dup1\n        /* \"#utility.yul\":1740:1752   */\n      revert\n        /* \"#utility.yul\":1764:1881   */\n    tag_138:\n        /* \"#utility.yul\":1873:1874   */\n      0x00\n        /* \"#utility.yul\":1870:1871   */\n      dup1\n        /* \"#utility.yul\":1863:1875   */\n      revert\n        /* \"#utility.yul\":1901:2454   */\n    tag_139:\n        /* \"#utility.yul\":1959:1967   */\n      0x00\n        /* \"#utility.yul\":1969:1975   */\n      dup1\n        /* \"#utility.yul\":2019:2022   */\n      dup4\n        /* \"#utility.yul\":2012:2016   */\n      0x1f\n        /* \"#utility.yul\":2004:2010   */\n      dup5\n        /* \"#utility.yul\":2000:2017   */\n      add\n        /* \"#utility.yul\":1996:2023   */\n      slt\n        /* \"#utility.yul\":1986:2108   */\n      tag_220\n      jumpi\n        /* \"#utility.yul\":2027:2106   */\n      tag_221\n      tag_136\n      jump\t// in\n    tag_221:\n        /* \"#utility.yul\":1986:2108   */\n    tag_220:\n        /* \"#utility.yul\":2140:2146   */\n      dup3\n        /* \"#utility.yul\":2127:2147   */\n      calldataload\n        /* \"#utility.yul\":2117:2147   */\n      swap1\n      pop\n        /* \"#utility.yul\":2170:2188   */\n      0xffffffffffffffff\n        /* \"#utility.yul\":2162:2168   */\n      dup2\n        /* \"#utility.yul\":2159:2189   */\n      gt\n        /* \"#utility.yul\":2156:2273   */\n      iszero\n      tag_222\n      jumpi\n        /* \"#utility.yul\":2192:2271   */\n      tag_223\n      tag_137\n      jump\t// in\n    tag_223:\n        /* \"#utility.yul\":2156:2273   */\n    tag_222:\n        /* \"#utility.yul\":2306:2310   */\n      0x20\n        /* \"#utility.yul\":2298:2304   */\n      dup4\n        /* \"#utility.yul\":2294:2311   */\n      add\n        /* \"#utility.yul\":2282:2311   */\n      swap2\n      pop\n        /* \"#utility.yul\":2360:2363   */\n      dup4\n        /* \"#utility.yul\":2352:2356   */\n      0x01\n        /* \"#utility.yul\":2344:2350   */\n      dup3\n        /* \"#utility.yul\":2340:2357   */\n      mul\n        /* \"#utility.yul\":2330:2338   */\n      dup4\n        /* \"#utility.yul\":2326:2358   */\n      add\n        /* \"#utility.yul\":2323:2364   */\n      gt\n        /* \"#utility.yul\":2320:2448   */\n      iszero\n      tag_224\n      jumpi\n        /* \"#utility.yul\":2367:2446   */\n      tag_225\n      tag_138\n      jump\t// in\n    tag_225:\n        /* \"#utility.yul\":2320:2448   */\n    tag_224:\n        /* \"#utility.yul\":1901:2454   */\n      swap3\n      pop\n      swap3\n      swap1\n      pop\n      jump\t// out\n        /* \"#utility.yul\":2460:2586   */\n    tag_140:\n        /* \"#utility.yul\":2497:2504   */\n      0x00\n        /* \"#utility.yul\":2537:2579   */\n      0xffffffffffffffffffffffffffffffffffffffff\n        /* \"#utility.yul\":2530:2535   */\n      dup3\n        /* \"#utility.yul\":2526:2580   */\n      and\n        /* \"#utility.yul\":2515:2580   */\n      swap1\n      pop\n        /* \"#utility.yul\":2460:2586   */\n      swap2\n      swap1\n      pop\n      jump\t// out\n        /* \"#utility.yul\":2592:2688   */\n    tag_141:\n        /* \"#utility.yul\":2629:2636   */\n      0x00\n        /* \"#utility.yul\":2658:2682   */\n      tag_228\n        /* \"#utility.yul\":2676:2681   */\n      dup3\n        /* \"#utility.yul\":2658:2682   */\n      tag_140\n      jump\t// in\n    tag_228:\n        /* \"#utility.yul\":2647:2682   */\n      swap1\n      pop\n        /* \"#utility.yul\":2592:2688   */\n      swap2\n      swap1\n      pop\n      jump\t// out\n        /* \"#utility.yul\":2694:2816   */\n    tag_142:\n        /* \"#utility.yul\":2767:2791   */\n      tag_230\n        /* \"#utility.yul\":2785:2790   */\n      dup2\n        /* \"#utility.yul\":2767:2791   */\n      tag_141\n      jump\t// in\n    tag_230:\n        /* \"#utility.yul\":2760:2765   */\n      dup2\n        /* \"#utility.yul\":2757:2792   */\n      eq\n        /* \"#utility.yul\":2747:2810   */\n      tag_231\n      jumpi\n        /* \"#utility.yul\":2806:2807   */\n      0x00\n        /* \"#utility.yul\":2803:2804   */\n      dup1\n        /* \"#utility.yul\":2796:2808   */\n      revert\n        /* \"#utility.yul\":2747:2810   */\n    tag_231:\n        /* \"#utility.yul\":2694:2816   */\n      pop\n      jump\t// out\n        /* \"#utility.yul\":2822:2961   */\n    tag_143:\n        /* \"#utility.yul\":2868:2873   */\n      0x00\n        /* \"#utility.yul\":2906:2912   */\n      dup2\n        /* \"#utility.yul\":2893:2913   */\n      calldataload\n        /* \"#utility.yul\":2884:2913   */\n      swap1\n      pop\n        /* \"#utility.yul\":2922:2955   */\n      tag_233\n        /* \"#utility.yul\":2949:2954   */\n      dup2\n        /* \"#utility.yul\":2922:2955   */\n      tag_142\n      jump\t// in\n    tag_233:\n        /* \"#utility.yul\":2822:2961   */\n      swap3\n      swap2\n      pop\n      pop\n      jump\t// out\n        /* \"#utility.yul\":2967:3044   */\n    tag_144:\n        /* \"#utility.yul\":3004:3011   */\n      0x00\n        /* \"#utility.yul\":3033:3038   */\n      dup2\n        /* \"#utility.yul\":3022:3038   */\n      swap1\n      pop\n        /* \"#utility.yul\":2967:3044   */\n      swap2\n      swap1\n      pop\n      jump\t// out\n        /* \"#utility.yul\":3050:3172   */\n    tag_145:\n        /* \"#utility.yul\":3123:3147   */\n      tag_236\n        /* \"#utility.yul\":3141:3146   */\n      dup2\n        /* \"#utility.yul\":3123:3147   */\n      tag_144\n      jump\t// in\n    tag_236:\n        /* \"#utility.yul\":3116:3121   */\n      dup2\n        /* \"#utility.yul\":3113:3148   */\n      eq\n        /* \"#utility.yul\":3103:3166   */\n      tag_237\n      jumpi\n        /* \"#utility.yul\":3162:3163   */\n      0x00\n        /* \"#utility.yul\":3159:3160   */\n      dup1\n        /* \"#utility.yul\":3152:3164   */\n      revert\n        /* \"#utility.yul\":3103:3166   */\n    tag_237:\n        /* \"#utility.yul\":3050:3172   */\n      pop\n      jump\t// out\n        /* \"#utility.yul\":3178:3317   */\n    tag_146:\n        /* \"#utility.yul\":3224:3229   */\n      0x00\n        /* \"#utility.yul\":3262:3268   */\n      dup2\n        /* \"#utility.yul\":3249:3269   */\n      calldataload\n        /* \"#utility.yul\":3240:3269   */\n      swap1\n      pop\n        /* \"#utility.yul\":3278:3311   */\n      tag_239\n        /* \"#utility.yul\":3305:3310   */\n      dup2\n        /* \"#utility.yul\":3278:3311   */\n      tag_145\n      jump\t// in\n    tag_239:\n        /* \"#utility.yul\":3178:3317   */\n      swap3\n      swap2\n      pop\n      pop\n      jump\t// out\n        /* \"#utility.yul\":3323:4142   */\n    tag_22:\n        /* \"#utility.yul\":3412:3418   */\n      0x00\n        /* \"#utility.yul\":3420:3426   */\n      dup1\n        /* \"#utility.yul\":3428:3434   */\n      0x00\n        /* \"#utility.yul\":3436:3442   */\n      dup1\n        /* \"#utility.yul\":3485:3487   */\n      0x60\n        /* \"#utility.yul\":3473:3482   */\n      dup6\n        /* \"#utility.yul\":3464:3471   */\n      dup8\n        /* \"#utility.yul\":3460:3483   */\n      sub\n        /* \"#utility.yul\":3456:3488   */\n      slt\n        /* \"#utility.yul\":3453:3572   */\n      iszero\n      tag_241\n      jumpi\n        /* \"#utility.yul\":3491:3570   */\n      tag_242\n      tag_129\n      jump\t// in\n    tag_242:\n        /* \"#utility.yul\":3453:3572   */\n    tag_241:\n        /* \"#utility.yul\":3639:3640   */\n      0x00\n        /* \"#utility.yul\":3628:3637   */\n      dup6\n        /* \"#utility.yul\":3624:3641   */\n      add\n        /* \"#utility.yul\":3611:3642   */\n      calldataload\n        /* \"#utility.yul\":3669:3687   */\n      0xffffffffffffffff\n        /* \"#utility.yul\":3661:3667   */\n      dup2\n        /* \"#utility.yul\":3658:3688   */\n      gt\n        /* \"#utility.yul\":3655:3772   */\n      iszero\n      tag_243\n      jumpi\n        /* \"#utility.yul\":3691:3770   */\n      tag_244\n      tag_130\n      jump\t// in\n    tag_244:\n        /* \"#utility.yul\":3655:3772   */\n    tag_243:\n        /* \"#utility.yul\":3804:3869   */\n      tag_245\n        /* \"#utility.yul\":3861:3868   */\n      dup8\n        /* \"#utility.yul\":3852:3858   */\n      dup3\n        /* \"#utility.yul\":3841:3850   */\n      dup9\n        /* \"#utility.yul\":3837:3859   */\n      add\n        /* \"#utility.yul\":3804:3869   */\n      tag_139\n      jump\t// in\n    tag_245:\n        /* \"#utility.yul\":3786:3869   */\n      swap5\n      pop\n      swap5\n      pop\n        /* \"#utility.yul\":3582:3879   */\n      pop\n        /* \"#utility.yul\":3918:3920   */\n      0x20\n        /* \"#utility.yul\":3944:3997   */\n      tag_246\n        /* \"#utility.yul\":3989:3996   */\n      dup8\n        /* \"#utility.yul\":3980:3986   */\n      dup3\n        /* \"#utility.yul\":3969:3978   */\n      dup9\n        /* \"#utility.yul\":3965:3987   */\n      add\n        /* \"#utility.yul\":3944:3997   */\n      tag_143\n      jump\t// in\n    tag_246:\n        /* \"#utility.yul\":3934:3997   */\n      swap3\n      pop\n        /* \"#utility.yul\":3889:4007   */\n      pop\n        /* \"#utility.yul\":4046:4048   */\n      0x40\n        /* \"#utility.yul\":4072:4125   */\n      tag_247\n        /* \"#utility.yul\":4117:4124   */\n      dup8\n        /* \"#utility.yul\":4108:4114   */\n      dup3\n        /* \"#utility.yul\":4097:4106   */\n      dup9\n        /* \"#utility.yul\":4093:4115   */\n      add\n        /* \"#utility.yul\":4072:4125   */\n      tag_146\n      jump\t// in\n    tag_247:\n        /* \"#utility.yul\":4062:4125   */\n      swap2\n      pop\n        /* \"#utility.yul\":4017:4135   */\n      pop\n        /* \"#utility.yul\":3323:4142   */\n      swap3\n      swap6\n      swap2\n      swap5\n      pop\n      swap3\n      pop\n      jump\t// out\n        /* \"#utility.yul\":4148:4249   */\n    tag_147:\n        /* \"#utility.yul\":4184:4191   */\n      0x00\n        /* \"#utility.yul\":4224:4242   */\n      0xffffffffffffffff\n        /* \"#utility.yul\":4217:4222   */\n      dup3\n        /* \"#utility.yul\":4213:4243   */\n      and\n        /* \"#utility.yul\":4202:4243   */\n      swap1\n      pop\n        /* \"#utility.yul\":4148:4249   */\n      swap2\n      swap1\n      pop\n      jump\t// out\n        /* \"#utility.yul\":4255:4370   */\n    tag_148:\n        /* \"#utility.yul\":4340:4363   */\n      tag_250\n        /* \"#utility.yul\":4357:4362   */\n      dup2\n        /* \"#utility.yul\":4340:4363   */\n      tag_147\n      jump\t// in\n    tag_250:\n        /* \"#utility.yul\":4335:4338   */\n      dup3\n        /* \"#utility.yul\":4328:4364   */\n      mstore\n        /* \"#utility.yul\":4255:4370   */\n      pop\n      pop\n      jump\t// out\n        /* \"#utility.yul\":4376:4594   */\n    tag_28:\n        /* \"#utility.yul\":4467:4471   */\n      0x00\n        /* \"#utility.yul\":4505:4507   */\n      0x20\n        /* \"#utility.yul\":4494:4503   */\n      dup3\n        /* \"#utility.yul\":4490:4508   */\n      add\n        /* \"#utility.yul\":4482:4508   */\n      swap1\n      pop\n        /* \"#utility.yul\":4518:4587   */\n      tag_252\n        /* \"#utility.yul\":4584:4585   */\n      0x00\n        /* \"#utility.yul\":4573:4582   */\n      dup4\n        /* \"#utility.yul\":4569:4586   */\n      add\n        /* \"#utility.yul\":4560:4566   */\n      dup5\n        /* \"#utility.yul\":4518:4587   */\n      tag_148\n      jump\t// in\n    tag_252:\n        /* \"#utility.yul\":4376:4594   */\n      swap3\n      swap2\n      pop\n      pop\n      jump\t// out\n        /* \"#utility.yul\":4600:4717   */\n    tag_149:\n        /* \"#utility.yul\":4709:4710   */\n      0x00\n        /* \"#utility.yul\":4706:4707   */\n      dup1\n        /* \"#utility.yul\":4699:4711   */\n      revert\n        /* \"#utility.yul\":4759:4997   */\n    tag_150:\n        /* \"#utility.yul\":4838:4843   */\n      0x00\n        /* \"#utility.yul\":4879:4882   */\n      0xa0\n        /* \"#utility.yul\":4870:4876   */\n      dup3\n        /* \"#utility.yul\":4865:4868   */\n      dup5\n        /* \"#utility.yul\":4861:4877   */\n      sub\n        /* \"#utility.yul\":4857:4883   */\n      slt\n        /* \"#utility.yul\":4854:4967   */\n      iszero\n      tag_255\n      jumpi\n        /* \"#utility.yul\":4886:4965   */\n      tag_256\n      tag_149\n      jump\t// in\n    tag_256:\n        /* \"#utility.yul\":4854:4967   */\n    tag_255:\n        /* \"#utility.yul\":4985:4991   */\n      dup2\n        /* \"#utility.yul\":4976:4991   */\n      swap1\n      pop\n        /* \"#utility.yul\":4759:4997   */\n      swap3\n      swap2\n      pop\n      pop\n      jump\t// out\n        /* \"#utility.yul\":5003:5558   */\n    tag_32:\n        /* \"#utility.yul\":5095:5101   */\n      0x00\n        /* \"#utility.yul\":5144:5146   */\n      0x20\n        /* \"#utility.yul\":5132:5141   */\n      dup3\n        /* \"#utility.yul\":5123:5130   */\n      dup5\n        /* \"#utility.yul\":5119:5142   */\n      sub\n        /* \"#utility.yul\":5115:5147   */\n      slt\n        /* \"#utility.yul\":5112:5231   */\n      iszero\n      tag_258\n      jumpi\n        /* \"#utility.yul\":5150:5229   */\n      tag_259\n      tag_129\n      jump\t// in\n    tag_259:\n        /* \"#utility.yul\":5112:5231   */\n    tag_258:\n        /* \"#utility.yul\":5298:5299   */\n      0x00\n        /* \"#utility.yul\":5287:5296   */\n      dup3\n        /* \"#utility.yul\":5283:5300   */\n      add\n        /* \"#utility.yul\":5270:5301   */\n      calldataload\n        /* \"#utility.yul\":5328:5346   */\n      0xffffffffffffffff\n        /* \"#utility.yul\":5320:5326   */\n      dup2\n        /* \"#utility.yul\":5317:5347   */\n      gt\n        /* \"#utility.yul\":5314:5431   */\n      iszero\n      tag_260\n      jumpi\n        /* \"#utility.yul\":5350:5429   */\n      tag_261\n      tag_130\n      jump\t// in\n    tag_261:\n        /* \"#utility.yul\":5314:5431   */\n    tag_260:\n        /* \"#utility.yul\":5455:5541   */\n      tag_262\n        /* \"#utility.yul\":5533:5540   */\n      dup5\n        /* \"#utility.yul\":5524:5530   */\n      dup3\n        /* \"#utility.yul\":5513:5522   */\n      dup6\n        /* \"#utility.yul\":5509:5531   */\n      add\n        /* \"#utility.yul\":5455:5541   */\n      tag_150\n      jump\t// in\n    tag_262:\n        /* \"#utility.yul\":5445:5541   */\n      swap2\n      pop\n        /* \"#utility.yul\":5241:5551   */\n      pop\n        /* \"#utility.yul\":5003:5558   */\n      swap3\n      swap2\n      pop\n      pop\n      jump\t// out\n        /* \"#utility.yul\":5564:5682   */\n    tag_151:\n        /* \"#utility.yul\":5651:5675   */\n      tag_264\n        /* \"#utility.yul\":5669:5674   */\n      dup2\n        /* \"#utility.yul\":5651:5675   */\n      tag_141\n      jump\t// in\n    tag_264:\n        /* \"#utility.yul\":5646:5649   */\n      dup3\n        /* \"#utility.yul\":5639:5676   */\n      mstore\n        /* \"#utility.yul\":5564:5682   */\n      pop\n      pop\n      jump\t// out\n        /* \"#utility.yul\":5688:5910   */\n    tag_38:\n        /* \"#utility.yul\":5781:5785   */\n      0x00\n        /* \"#utility.yul\":5819:5821   */\n      0x20\n        /* \"#utility.yul\":5808:5817   */\n      dup3\n        /* \"#utility.yul\":5804:5822   */\n      add\n        /* \"#utility.yul\":5796:5822   */\n      swap1\n      pop\n        /* \"#utility.yul\":5832:5903   */\n      tag_266\n        /* \"#utility.yul\":5900:5901   */\n      0x00\n        /* \"#utility.yul\":5889:5898   */\n      dup4\n        /* \"#utility.yul\":5885:5902   */\n      add\n        /* \"#utility.yul\":5876:5882   */\n      dup5\n        /* \"#utility.yul\":5832:5903   */\n      tag_151\n      jump\t// in\n    tag_266:\n        /* \"#utility.yul\":5688:5910   */\n      swap3\n      swap2\n      pop\n      pop\n      jump\t// out\n        /* \"#utility.yul\":5916:6033   */\n    tag_152:\n        /* \"#utility.yul\":6025:6026   */\n      0x00\n        /* \"#utility.yul\":6022:6023   */\n      dup1\n        /* \"#utility.yul\":6015:6027   */\n      revert\n        /* \"#utility.yul\":6039:6141   */\n    tag_153:\n        /* \"#utility.yul\":6080:6086   */\n      0x00\n        /* \"#utility.yul\":6131:6133   */\n      0x1f\n        /* \"#utility.yul\":6127:6134   */\n      not\n        /* \"#utility.yul\":6122:6124   */\n      0x1f\n        /* \"#utility.yul\":6115:6120   */\n      dup4\n        /* \"#utility.yul\":6111:6125   */\n      add\n        /* \"#utility.yul\":6107:6135   */\n      and\n        /* \"#utility.yul\":6097:6135   */\n      swap1\n      pop\n        /* \"#utility.yul\":6039:6141   */\n      swap2\n      swap1\n      pop\n      jump\t// out\n        /* \"#utility.yul\":6147:6327   */\n    tag_154:\n        /* \"#utility.yul\":6195:6272   */\n      0x4e487b7100000000000000000000000000000000000000000000000000000000\n        /* \"#utility.yul\":6192:6193   */\n      0x00\n        /* \"#utility.yul\":6185:6273   */\n      mstore\n        /* \"#utility.yul\":6292:6296   */\n      0x41\n        /* \"#utility.yul\":6289:6290   */\n      0x04\n        /* \"#utility.yul\":6282:6297   */\n      mstore\n        /* \"#utility.yul\":6316:6320   */\n      0x24\n        /* \"#utility.yul\":6313:6314   */\n      0x00\n        /* \"#utility.yul\":6306:6321   */\n      revert\n        /* \"#utility.yul\":6333:6614   */\n    tag_155:\n        /* \"#utility.yul\":6416:6443   */\n      tag_271\n        /* \"#utility.yul\":6438:6442   */\n      dup3\n        /* \"#utility.yul\":6416:6443   */\n      tag_153\n      jump\t// in\n    tag_271:\n        /* \"#utility.yul\":6408:6414   */\n      dup2\n        /* \"#utility.yul\":6404:6444   */\n      add\n        /* \"#utility.yul\":6546:6552   */\n      dup2\n        /* \"#utility.yul\":6534:6544   */\n      dup2\n        /* \"#utility.yul\":6531:6553   */\n      lt\n        /* \"#utility.yul\":6510:6528   */\n      0xffffffffffffffff\n        /* \"#utility.yul\":6498:6508   */\n      dup3\n        /* \"#utility.yul\":6495:6529   */\n      gt\n        /* \"#utility.yul\":6492:6554   */\n      or\n        /* \"#utility.yul\":6489:6577   */\n      iszero\n      tag_272\n      jumpi\n        /* \"#utility.yul\":6557:6575   */\n      tag_273\n      tag_154\n      jump\t// in\n    tag_273:\n        /* \"#utility.yul\":6489:6577   */\n    tag_272:\n        /* \"#utility.yul\":6597:6607   */\n      dup1\n        /* \"#utility.yul\":6593:6595   */\n      0x40\n        /* \"#utility.yul\":6586:6608   */\n      mstore\n        /* \"#utility.yul\":6376:6614   */\n      pop\n        /* \"#utility.yul\":6333:6614   */\n      pop\n      pop\n      jump\t// out\n        /* \"#utility.yul\":6620:6749   */\n    tag_156:\n        /* \"#utility.yul\":6654:6660   */\n      0x00\n        /* \"#utility.yul\":6681:6701   */\n      tag_275\n      tag_128\n      jump\t// in\n    tag_275:\n        /* \"#utility.yul\":6671:6701   */\n      swap1\n      pop\n        /* \"#utility.yul\":6710:6743   */\n      tag_276\n        /* \"#utility.yul\":6738:6742   */\n      dup3\n        /* \"#utility.yul\":6730:6736   */\n      dup3\n        /* \"#utility.yul\":6710:6743   */\n      tag_155\n      jump\t// in\n    tag_276:\n        /* \"#utility.yul\":6620:6749   */\n      swap2\n      swap1\n      pop\n      jump\t// out\n        /* \"#utility.yul\":6755:7063   */\n    tag_157:\n        /* \"#utility.yul\":6817:6821   */\n      0x00\n        /* \"#utility.yul\":6907:6925   */\n      0xffffffffffffffff\n        /* \"#utility.yul\":6899:6905   */\n      dup3\n        /* \"#utility.yul\":6896:6926   */\n      gt\n        /* \"#utility.yul\":6893:6949   */\n      iszero\n      tag_278\n      jumpi\n        /* \"#utility.yul\":6929:6947   */\n      tag_279\n      tag_154\n      jump\t// in\n    tag_279:\n        /* \"#utility.yul\":6893:6949   */\n    tag_278:\n        /* \"#utility.yul\":6967:6996   */\n      tag_280\n        /* \"#utility.yul\":6989:6995   */\n      dup3\n        /* \"#utility.yul\":6967:6996   */\n      tag_153\n      jump\t// in\n    tag_280:\n        /* \"#utility.yul\":6959:6996   */\n      swap1\n      pop\n        /* \"#utility.yul\":7051:7055   */\n      0x20\n        /* \"#utility.yul\":7045:7049   */\n      dup2\n        /* \"#utility.yul\":7041:7056   */\n      add\n        /* \"#utility.yul\":7033:7056   */\n      swap1\n      pop\n        /* \"#utility.yul\":6755:7063   */\n      swap2\n      swap1\n      pop\n      jump\t// out\n        /* \"#utility.yul\":7069:7215   */\n    tag_158:\n        /* \"#utility.yul\":7166:7172   */\n      dup3\n        /* \"#utility.yul\":7161:7164   */\n      dup2\n        /* \"#utility.yul\":7156:7159   */\n      dup4\n        /* \"#utility.yul\":7143:7173   */\n      calldatacopy\n        /* \"#utility.yul\":7207:7208   */\n      0x00\n        /* \"#utility.yul\":7198:7204   */\n      dup4\n        /* \"#utility.yul\":7193:7196   */\n      dup4\n        /* \"#utility.yul\":7189:7205   */\n      add\n        /* \"#utility.yul\":7182:7209   */\n      mstore\n        /* \"#utility.yul\":7069:7215   */\n      pop\n      pop\n      pop\n      jump\t// out\n        /* \"#utility.yul\":7221:7646   */\n    tag_159:\n        /* \"#utility.yul\":7299:7304   */\n      0x00\n        /* \"#utility.yul\":7324:7390   */\n      tag_283\n        /* \"#utility.yul\":7340:7389   */\n      tag_284\n        /* \"#utility.yul\":7382:7388   */\n      dup5\n        /* \"#utility.yul\":7340:7389   */\n      tag_157\n      jump\t// in\n    tag_284:\n        /* \"#utility.yul\":7324:7390   */\n      tag_156\n      jump\t// in\n    tag_283:\n        /* \"#utility.yul\":7315:7390   */\n      swap1\n      pop\n        /* \"#utility.yul\":7413:7419   */\n      dup3\n        /* \"#utility.yul\":7406:7411   */\n      dup2\n        /* \"#utility.yul\":7399:7420   */\n      mstore\n        /* \"#utility.yul\":7451:7455   */\n      0x20\n        /* \"#utility.yul\":7444:7449   */\n      dup2\n        /* \"#utility.yul\":7440:7456   */\n      add\n        /* \"#utility.yul\":7489:7492   */\n      dup5\n        /* \"#utility.yul\":7480:7486   */\n      dup5\n        /* \"#utility.yul\":7475:7478   */\n      dup5\n        /* \"#utility.yul\":7471:7487   */\n      add\n        /* \"#utility.yul\":7468:7493   */\n      gt\n        /* \"#utility.yul\":7465:7577   */\n      iszero\n      tag_285\n      jumpi\n        /* \"#utility.yul\":7496:7575   */\n      tag_286\n      tag_152\n      jump\t// in\n    tag_286:\n        /* \"#utility.yul\":7465:7577   */\n    tag_285:\n        /* \"#utility.yul\":7586:7640   */\n      tag_287\n        /* \"#utility.yul\":7633:7639   */\n      dup5\n        /* \"#utility.yul\":7628:7631   */\n      dup3\n        /* \"#utility.yul\":7623:7626   */\n      dup6\n        /* \"#utility.yul\":7586:7640   */\n      tag_158\n      jump\t// in\n    tag_287:\n        /* \"#utility.yul\":7305:7646   */\n      pop\n        /* \"#utility.yul\":7221:7646   */\n      swap4\n      swap3\n      pop\n      pop\n      pop\n      jump\t// out\n        /* \"#utility.yul\":7666:8006   */\n    tag_160:\n        /* \"#utility.yul\":7722:7727   */\n      0x00\n        /* \"#utility.yul\":7771:7774   */\n      dup3\n        /* \"#utility.yul\":7764:7768   */\n      0x1f\n        /* \"#utility.yul\":7756:7762   */\n      dup4\n        /* \"#utility.yul\":7752:7769   */\n      add\n        /* \"#utility.yul\":7748:7775   */\n      slt\n        /* \"#utility.yul\":7738:7860   */\n      tag_289\n      jumpi\n        /* \"#utility.yul\":7779:7858   */\n      tag_290\n      tag_136\n      jump\t// in\n    tag_290:\n        /* \"#utility.yul\":7738:7860   */\n    tag_289:\n        /* \"#utility.yul\":7896:7902   */\n      dup2\n        /* \"#utility.yul\":7883:7903   */\n      calldataload\n        /* \"#utility.yul\":7921:8000   */\n      tag_291\n        /* \"#utility.yul\":7996:7999   */\n      dup5\n        /* \"#utility.yul\":7988:7994   */\n      dup3\n        /* \"#utility.yul\":7981:7985   */\n      0x20\n        /* \"#utility.yul\":7973:7979   */\n      dup7\n        /* \"#utility.yul\":7969:7986   */\n      add\n        /* \"#utility.yul\":7921:8000   */\n      tag_159\n      jump\t// in\n    tag_291:\n        /* \"#utility.yul\":7912:8000   */\n      swap2\n      pop\n        /* \"#utility.yul\":7728:8006   */\n      pop\n        /* \"#utility.yul\":7666:8006   */\n      swap3\n      swap2\n      pop\n      pop\n      jump\t// out\n        /* \"#utility.yul\":8012:8521   */\n    tag_42:\n        /* \"#utility.yul\":8081:8087   */\n      0x00\n        /* \"#utility.yul\":8130:8132   */\n      0x20\n        /* \"#utility.yul\":8118:8127   */\n      dup3\n        /* \"#utility.yul\":8109:8116   */\n      dup5\n        /* \"#utility.yul\":8105:8128   */\n      sub\n        /* \"#utility.yul\":8101:8133   */\n      slt\n        /* \"#utility.yul\":8098:8217   */\n      iszero\n      tag_293\n      jumpi\n        /* \"#utility.yul\":8136:8215   */\n      tag_294\n      tag_129\n      jump\t// in\n    tag_294:\n        /* \"#utility.yul\":8098:8217   */\n    tag_293:\n        /* \"#utility.yul\":8284:8285   */\n      0x00\n        /* \"#utility.yul\":8273:8282   */\n      dup3\n        /* \"#utility.yul\":8269:8286   */\n      add\n        /* \"#utility.yul\":8256:8287   */\n      calldataload\n        /* \"#utility.yul\":8314:8332   */\n      0xffffffffffffffff\n        /* \"#utility.yul\":8306:8312   */\n      dup2\n        /* \"#utility.yul\":8303:8333   */\n      gt\n        /* \"#utility.yul\":8300:8417   */\n      iszero\n      tag_295\n      jumpi\n        /* \"#utility.yul\":8336:8415   */\n      tag_296\n      tag_130\n      jump\t// in\n    tag_296:\n        /* \"#utility.yul\":8300:8417   */\n    tag_295:\n        /* \"#utility.yul\":8441:8504   */\n      tag_297\n        /* \"#utility.yul\":8496:8503   */\n      dup5\n        /* \"#utility.yul\":8487:8493   */\n      dup3\n        /* \"#utility.yul\":8476:8485   */\n      dup6\n        /* \"#utility.yul\":8472:8494   */\n      add\n        /* \"#utility.yul\":8441:8504   */\n      tag_160\n      jump\t// in\n    tag_297:\n        /* \"#utility.yul\":8431:8504   */\n      swap2\n      pop\n        /* \"#utility.yul\":8227:8514   */\n      pop\n        /* \"#utility.yul\":8012:8521   */\n      swap3\n      swap2\n      pop\n      pop\n      jump\t// out\n        /* \"#utility.yul\":8527:9056   */\n    tag_55:\n        /* \"#utility.yul\":8598:8604   */\n      0x00\n        /* \"#utility.yul\":8606:8612   */\n      dup1\n        /* \"#utility.yul\":8655:8657   */\n      0x20\n        /* \"#utility.yul\":8643:8652   */\n      dup4\n        /* \"#utility.yul\":8634:8641   */\n      dup6\n        /* \"#utility.yul\":8630:8653   */\n      sub\n        /* \"#utility.yul\":8626:8658   */\n      slt\n        /* \"#utility.yul\":8623:8742   */\n      iszero\n      tag_299\n      jumpi\n        /* \"#utility.yul\":8661:8740   */\n      tag_300\n      tag_129\n      jump\t// in\n    tag_300:\n        /* \"#utility.yul\":8623:8742   */\n    tag_299:\n        /* \"#utility.yul\":8809:8810   */\n      0x00\n        /* \"#utility.yul\":8798:8807   */\n      dup4\n        /* \"#utility.yul\":8794:8811   */\n      add\n        /* \"#utility.yul\":8781:8812   */\n      calldataload\n        /* \"#utility.yul\":8839:8857   */\n      0xffffffffffffffff\n        /* \"#utility.yul\":8831:8837   */\n      dup2\n        /* \"#utility.yul\":8828:8858   */\n      gt\n        /* \"#utility.yul\":8825:8942   */\n      iszero\n      tag_301\n      jumpi\n        /* \"#utility.yul\":8861:8940   */\n      tag_302\n      tag_130\n      jump\t// in\n    tag_302:\n        /* \"#utility.yul\":8825:8942   */\n    tag_301:\n        /* \"#utility.yul\":8974:9039   */\n      tag_303\n        /* \"#utility.yul\":9031:9038   */\n      dup6\n        /* \"#utility.yul\":9022:9028   */\n      dup3\n        /* \"#utility.yul\":9011:9020   */\n      dup7\n        /* \"#utility.yul\":9007:9029   */\n      add\n        /* \"#utility.yul\":8974:9039   */\n      tag_139\n      jump\t// in\n    tag_303:\n        /* \"#utility.yul\":8956:9039   */\n      swap3\n      pop\n      swap3\n      pop\n        /* \"#utility.yul\":8752:9049   */\n      pop\n        /* \"#utility.yul\":8527:9056   */\n      swap3\n      pop\n      swap3\n      swap1\n      pop\n      jump\t// out\n        /* \"#utility.yul\":9062:9231   */\n    tag_161:\n        /* \"#utility.yul\":9146:9157   */\n      0x00\n        /* \"#utility.yul\":9180:9186   */\n      dup3\n        /* \"#utility.yul\":9175:9178   */\n      dup3\n        /* \"#utility.yul\":9168:9187   */\n      mstore\n        /* \"#utility.yul\":9220:9224   */\n      0x20\n        /* \"#utility.yul\":9215:9218   */\n      dup3\n        /* \"#utility.yul\":9211:9225   */\n      add\n        /* \"#utility.yul\":9196:9225   */\n      swap1\n      pop\n        /* \"#utility.yul\":9062:9231   */\n      swap3\n      swap2\n      pop\n      pop\n      jump\t// out\n        /* \"#utility.yul\":9237:9406   */\n    tag_162:\n        /* \"#utility.yul\":9377:9398   */\n      0x556e617574686f72697a65642073656e64657200000000000000000000000000\n        /* \"#utility.yul\":9373:9374   */\n      0x00\n        /* \"#utility.yul\":9365:9371   */\n      dup3\n        /* \"#utility.yul\":9361:9375   */\n      add\n        /* \"#utility.yul\":9354:9399   */\n      mstore\n        /* \"#utility.yul\":9237:9406   */\n      pop\n      jump\t// out\n        /* \"#utility.yul\":9412:9778   */\n    tag_163:\n        /* \"#utility.yul\":9554:9557   */\n      0x00\n        /* \"#utility.yul\":9575:9642   */\n      tag_307\n        /* \"#utility.yul\":9639:9641   */\n      0x13\n        /* \"#utility.yul\":9634:9637   */\n      dup4\n        /* \"#utility.yul\":9575:9642   */\n      tag_161\n      jump\t// in\n    tag_307:\n        /* \"#utility.yul\":9568:9642   */\n      swap2\n      pop\n        /* \"#utility.yul\":9651:9744   */\n      tag_308\n        /* \"#utility.yul\":9740:9743   */\n      dup3\n        /* \"#utility.yul\":9651:9744   */\n      tag_162\n      jump\t// in\n    tag_308:\n        /* \"#utility.yul\":9769:9771   */\n      0x20\n        /* \"#utility.yul\":9764:9767   */\n      dup3\n        /* \"#utility.yul\":9760:9772   */\n      add\n        /* \"#utility.yul\":9753:9772   */\n      swap1\n      pop\n        /* \"#utility.yul\":9412:9778   */\n      swap2\n      swap1\n      pop\n      jump\t// out\n        /* \"#utility.yul\":9784:10203   */\n    tag_63:\n        /* \"#utility.yul\":9950:9954   */\n      0x00\n        /* \"#utility.yul\":9988:9990   */\n      0x20\n        /* \"#utility.yul\":9977:9986   */\n      dup3\n        /* \"#utility.yul\":9973:9991   */\n      add\n        /* \"#utility.yul\":9965:9991   */\n      swap1\n      pop\n        /* \"#utility.yul\":10037:10046   */\n      dup2\n        /* \"#utility.yul\":10031:10035   */\n      dup2\n        /* \"#utility.yul\":10027:10047   */\n      sub\n        /* \"#utility.yul\":10023:10024   */\n      0x00\n        /* \"#utility.yul\":10012:10021   */\n      dup4\n        /* \"#utility.yul\":10008:10025   */\n      add\n        /* \"#utility.yul\":10001:10048   */\n      mstore\n        /* \"#utility.yul\":10065:10196   */\n      tag_310\n        /* \"#utility.yul\":10191:10195   */\n      dup2\n        /* \"#utility.yul\":10065:10196   */\n      tag_163\n      jump\t// in\n    tag_310:\n        /* \"#utility.yul\":10057:10196   */\n      swap1\n      pop\n        /* \"#utility.yul\":9784:10203   */\n      swap2\n      swap1\n      pop\n      jump\t// out\n        /* \"#utility.yul\":10209:10357   */\n    tag_164:\n        /* \"#utility.yul\":10311:10322   */\n      0x00\n        /* \"#utility.yul\":10348:10351   */\n      dup2\n        /* \"#utility.yul\":10333:10351   */\n      swap1\n      pop\n        /* \"#utility.yul\":10209:10357   */\n      swap3\n      swap2\n      pop\n      pop\n      jump\t// out\n        /* \"#utility.yul\":10387:10717   */\n    tag_165:\n        /* \"#utility.yul\":10503:10506   */\n      0x00\n        /* \"#utility.yul\":10524:10613   */\n      tag_313\n        /* \"#utility.yul\":10606:10612   */\n      dup4\n        /* \"#utility.yul\":10601:10604   */\n      dup6\n        /* \"#utility.yul\":10524:10613   */\n      tag_164\n      jump\t// in\n    tag_313:\n        /* \"#utility.yul\":10517:10613   */\n      swap4\n      pop\n        /* \"#utility.yul\":10623:10679   */\n      tag_314\n        /* \"#utility.yul\":10672:10678   */\n      dup4\n        /* \"#utility.yul\":10667:10670   */\n      dup6\n        /* \"#utility.yul\":10660:10665   */\n      dup5\n        /* \"#utility.yul\":10623:10679   */\n      tag_158\n      jump\t// in\n    tag_314:\n        /* \"#utility.yul\":10704:10710   */\n      dup3\n        /* \"#utility.yul\":10699:10702   */\n      dup5\n        /* \"#utility.yul\":10695:10711   */\n      add\n        /* \"#utility.yul\":10688:10711   */\n      swap1\n      pop\n        /* \"#utility.yul\":10387:10717   */\n      swap4\n      swap3\n      pop\n      pop\n      pop\n      jump\t// out\n        /* \"#utility.yul\":10723:11018   */\n    tag_66:\n        /* \"#utility.yul\":10865:10868   */\n      0x00\n        /* \"#utility.yul\":10887:10992   */\n      tag_316\n        /* \"#utility.yul\":10988:10991   */\n      dup3\n        /* \"#utility.yul\":10979:10985   */\n      dup5\n        /* \"#utility.yul\":10971:10977   */\n      dup7\n        /* \"#utility.yul\":10887:10992   */\n      tag_165\n      jump\t// in\n    tag_316:\n        /* \"#utility.yul\":10880:10992   */\n      swap2\n      pop\n        /* \"#utility.yul\":11009:11012   */\n      dup2\n        /* \"#utility.yul\":11002:11012   */\n      swap1\n      pop\n        /* \"#utility.yul\":10723:11018   */\n      swap4\n      swap3\n      pop\n      pop\n      pop\n      jump\t// out\n        /* \"#utility.yul\":11024:11190   */\n    tag_166:\n        /* \"#utility.yul\":11164:11182   */\n      0x57616c6c6574206e6f7420666f756e6400000000000000000000000000000000\n        /* \"#utility.yul\":11160:11161   */\n      0x00\n        /* \"#utility.yul\":11152:11158   */\n      dup3\n        /* \"#utility.yul\":11148:11162   */\n      add\n        /* \"#utility.yul\":11141:11183   */\n      mstore\n        /* \"#utility.yul\":11024:11190   */\n      pop\n      jump\t// out\n        /* \"#utility.yul\":11196:11562   */\n    tag_167:\n        /* \"#utility.yul\":11338:11341   */\n      0x00\n        /* \"#utility.yul\":11359:11426   */\n      tag_319\n        /* \"#utility.yul\":11423:11425   */\n      0x10\n        /* \"#utility.yul\":11418:11421   */\n      dup4\n        /* \"#utility.yul\":11359:11426   */\n      tag_161\n      jump\t// in\n    tag_319:\n        /* \"#utility.yul\":11352:11426   */\n      swap2\n      pop\n        /* \"#utility.yul\":11435:11528   */\n      tag_320\n        /* \"#utility.yul\":11524:11527   */\n      dup3\n        /* \"#utility.yul\":11435:11528   */\n      tag_166\n      jump\t// in\n    tag_320:\n        /* \"#utility.yul\":11553:11555   */\n      0x20\n        /* \"#utility.yul\":11548:11551   */\n      dup3\n        /* \"#utility.yul\":11544:11556   */\n      add\n        /* \"#utility.yul\":11537:11556   */\n      swap1\n      pop\n        /* \"#utility.yul\":11196:11562   */\n      swap2\n      swap1\n      pop\n      jump\t// out\n        /* \"#utility.yul\":11568:11987   */\n    tag_69:\n        /* \"#utility.yul\":11734:11738   */\n      0x00\n        /* \"#utility.yul\":11772:11774   */\n      0x20\n        /* \"#utility.yul\":11761:11770   */\n      dup3\n        /* \"#utility.yul\":11757:11775   */\n      add\n        /* \"#utility.yul\":11749:11775   */\n      swap1\n      pop\n        /* \"#utility.yul\":11821:11830   */\n      dup2\n        /* \"#utility.yul\":11815:11819   */\n      dup2\n        /* \"#utility.yul\":11811:11831   */\n      sub\n        /* \"#utility.yul\":11807:11808   */\n      0x00\n        /* \"#utility.yul\":11796:11805   */\n      dup4\n        /* \"#utility.yul\":11792:11809   */\n      add\n        /* \"#utility.yul\":11785:11832   */\n      mstore\n        /* \"#utility.yul\":11849:11980   */\n      tag_322\n        /* \"#utility.yul\":11975:11979   */\n      dup2\n        /* \"#utility.yul\":11849:11980   */\n      tag_167\n      jump\t// in\n    tag_322:\n        /* \"#utility.yul\":11841:11980   */\n      swap1\n      pop\n        /* \"#utility.yul\":11568:11987   */\n      swap2\n      swap1\n      pop\n      jump\t// out\n        /* \"#utility.yul\":11993:12111   */\n    tag_168:\n        /* \"#utility.yul\":12080:12104   */\n      tag_324\n        /* \"#utility.yul\":12098:12103   */\n      dup2\n        /* \"#utility.yul\":12080:12104   */\n      tag_144\n      jump\t// in\n    tag_324:\n        /* \"#utility.yul\":12075:12078   */\n      dup3\n        /* \"#utility.yul\":12068:12105   */\n      mstore\n        /* \"#utility.yul\":11993:12111   */\n      pop\n      pop\n      jump\t// out\n        /* \"#utility.yul\":12117:12449   */\n    tag_71:\n        /* \"#utility.yul\":12238:12242   */\n      0x00\n        /* \"#utility.yul\":12276:12278   */\n      0x40\n        /* \"#utility.yul\":12265:12274   */\n      dup3\n        /* \"#utility.yul\":12261:12279   */\n      add\n        /* \"#utility.yul\":12253:12279   */\n      swap1\n      pop\n        /* \"#utility.yul\":12289:12360   */\n      tag_326\n        /* \"#utility.yul\":12357:12358   */\n      0x00\n        /* \"#utility.yul\":12346:12355   */\n      dup4\n        /* \"#utility.yul\":12342:12359   */\n      add\n        /* \"#utility.yul\":12333:12339   */\n      dup6\n        /* \"#utility.yul\":12289:12360   */\n      tag_151\n      jump\t// in\n    tag_326:\n        /* \"#utility.yul\":12370:12442   */\n      tag_327\n        /* \"#utility.yul\":12438:12440   */\n      0x20\n        /* \"#utility.yul\":12427:12436   */\n      dup4\n        /* \"#utility.yul\":12423:12441   */\n      add\n        /* \"#utility.yul\":12414:12420   */\n      dup5\n        /* \"#utility.yul\":12370:12442   */\n      tag_168\n      jump\t// in\n    tag_327:\n        /* \"#utility.yul\":12117:12449   */\n      swap4\n      swap3\n      pop\n      pop\n      pop\n      jump\t// out\n        /* \"#utility.yul\":12455:12572   */\n    tag_169:\n        /* \"#utility.yul\":12564:12565   */\n      0x00\n        /* \"#utility.yul\":12561:12562   */\n      dup1\n        /* \"#utility.yul\":12554:12566   */\n      revert\n        /* \"#utility.yul\":12578:12695   */\n    tag_170:\n        /* \"#utility.yul\":12687:12688   */\n      0x00\n        /* \"#utility.yul\":12684:12685   */\n      dup1\n        /* \"#utility.yul\":12677:12689   */\n      revert\n        /* \"#utility.yul\":12701:12778   */\n    tag_171:\n        /* \"#utility.yul\":12738:12745   */\n      0x00\n        /* \"#utility.yul\":12767:12772   */\n      dup2\n        /* \"#utility.yul\":12756:12772   */\n      swap1\n      pop\n        /* \"#utility.yul\":12701:12778   */\n      swap2\n      swap1\n      pop\n      jump\t// out\n        /* \"#utility.yul\":12784:12906   */\n    tag_172:\n        /* \"#utility.yul\":12857:12881   */\n      tag_332\n        /* \"#utility.yul\":12875:12880   */\n      dup2\n        /* \"#utility.yul\":12857:12881   */\n      tag_171\n      jump\t// in\n    tag_332:\n        /* \"#utility.yul\":12850:12855   */\n      dup2\n        /* \"#utility.yul\":12847:12882   */\n      eq\n        /* \"#utility.yul\":12837:12900   */\n      tag_333\n      jumpi\n        /* \"#utility.yul\":12896:12897   */\n      0x00\n        /* \"#utility.yul\":12893:12894   */\n      dup1\n        /* \"#utility.yul\":12886:12898   */\n      revert\n        /* \"#utility.yul\":12837:12900   */\n    tag_333:\n        /* \"#utility.yul\":12784:12906   */\n      pop\n      jump\t// out\n        /* \"#utility.yul\":12912:13051   */\n    tag_173:\n        /* \"#utility.yul\":12958:12963   */\n      0x00\n        /* \"#utility.yul\":12996:13002   */\n      dup2\n        /* \"#utility.yul\":12983:13003   */\n      calldataload\n        /* \"#utility.yul\":12974:13003   */\n      swap1\n      pop\n        /* \"#utility.yul\":13012:13045   */\n      tag_335\n        /* \"#utility.yul\":13039:13044   */\n      dup2\n        /* \"#utility.yul\":13012:13045   */\n      tag_172\n      jump\t// in\n    tag_335:\n        /* \"#utility.yul\":12912:13051   */\n      swap3\n      swap2\n      pop\n      pop\n      jump\t// out\n        /* \"#utility.yul\":13057:13177   */\n    tag_174:\n        /* \"#utility.yul\":13129:13152   */\n      tag_337\n        /* \"#utility.yul\":13146:13151   */\n      dup2\n        /* \"#utility.yul\":13129:13152   */\n      tag_147\n      jump\t// in\n    tag_337:\n        /* \"#utility.yul\":13122:13127   */\n      dup2\n        /* \"#utility.yul\":13119:13153   */\n      eq\n        /* \"#utility.yul\":13109:13171   */\n      tag_338\n      jumpi\n        /* \"#utility.yul\":13167:13168   */\n      0x00\n        /* \"#utility.yul\":13164:13165   */\n      dup1\n        /* \"#utility.yul\":13157:13169   */\n      revert\n        /* \"#utility.yul\":13109:13171   */\n    tag_338:\n        /* \"#utility.yul\":13057:13177   */\n      pop\n      jump\t// out\n        /* \"#utility.yul\":13183:13320   */\n    tag_175:\n        /* \"#utility.yul\":13228:13233   */\n      0x00\n        /* \"#utility.yul\":13266:13272   */\n      dup2\n        /* \"#utility.yul\":13253:13273   */\n      calldataload\n        /* \"#utility.yul\":13244:13273   */\n      swap1\n      pop\n        /* \"#utility.yul\":13282:13314   */\n      tag_340\n        /* \"#utility.yul\":13308:13313   */\n      dup2\n        /* \"#utility.yul\":13282:13314   */\n      tag_174\n      jump\t// in\n    tag_340:\n        /* \"#utility.yul\":13183:13320   */\n      swap3\n      swap2\n      pop\n      pop\n      jump\t// out\n        /* \"#utility.yul\":13326:13633   */\n    tag_176:\n        /* \"#utility.yul\":13387:13391   */\n      0x00\n        /* \"#utility.yul\":13477:13495   */\n      0xffffffffffffffff\n        /* \"#utility.yul\":13469:13475   */\n      dup3\n        /* \"#utility.yul\":13466:13496   */\n      gt\n        /* \"#utility.yul\":13463:13519   */\n      iszero\n      tag_342\n      jumpi\n        /* \"#utility.yul\":13499:13517   */\n      tag_343\n      tag_154\n      jump\t// in\n    tag_343:\n        /* \"#utility.yul\":13463:13519   */\n    tag_342:\n        /* \"#utility.yul\":13537:13566   */\n      tag_344\n        /* \"#utility.yul\":13559:13565   */\n      dup3\n        /* \"#utility.yul\":13537:13566   */\n      tag_153\n      jump\t// in\n    tag_344:\n        /* \"#utility.yul\":13529:13566   */\n      swap1\n      pop\n        /* \"#utility.yul\":13621:13625   */\n      0x20\n        /* \"#utility.yul\":13615:13619   */\n      dup2\n        /* \"#utility.yul\":13611:13626   */\n      add\n        /* \"#utility.yul\":13603:13626   */\n      swap1\n      pop\n        /* \"#utility.yul\":13326:13633   */\n      swap2\n      swap1\n      pop\n      jump\t// out\n        /* \"#utility.yul\":13639:14062   */\n    tag_177:\n        /* \"#utility.yul\":13716:13721   */\n      0x00\n        /* \"#utility.yul\":13741:13806   */\n      tag_346\n        /* \"#utility.yul\":13757:13805   */\n      tag_347\n        /* \"#utility.yul\":13798:13804   */\n      dup5\n        /* \"#utility.yul\":13757:13805   */\n      tag_176\n      jump\t// in\n    tag_347:\n        /* \"#utility.yul\":13741:13806   */\n      tag_156\n      jump\t// in\n    tag_346:\n        /* \"#utility.yul\":13732:13806   */\n      swap1\n      pop\n        /* \"#utility.yul\":13829:13835   */\n      dup3\n        /* \"#utility.yul\":13822:13827   */\n      dup2\n        /* \"#utility.yul\":13815:13836   */\n      mstore\n        /* \"#utility.yul\":13867:13871   */\n      0x20\n        /* \"#utility.yul\":13860:13865   */\n      dup2\n        /* \"#utility.yul\":13856:13872   */\n      add\n        /* \"#utility.yul\":13905:13908   */\n      dup5\n        /* \"#utility.yul\":13896:13902   */\n      dup5\n        /* \"#utility.yul\":13891:13894   */\n      dup5\n        /* \"#utility.yul\":13887:13903   */\n      add\n        /* \"#utility.yul\":13884:13909   */\n      gt\n        /* \"#utility.yul\":13881:13993   */\n      iszero\n      tag_348\n      jumpi\n        /* \"#utility.yul\":13912:13991   */\n      tag_349\n      tag_152\n      jump\t// in\n    tag_349:\n        /* \"#utility.yul\":13881:13993   */\n    tag_348:\n        /* \"#utility.yul\":14002:14056   */\n      tag_350\n        /* \"#utility.yul\":14049:14055   */\n      dup5\n        /* \"#utility.yul\":14044:14047   */\n      dup3\n        /* \"#utility.yul\":14039:14042   */\n      dup6\n        /* \"#utility.yul\":14002:14056   */\n      tag_158\n      jump\t// in\n    tag_350:\n        /* \"#utility.yul\":13722:14062   */\n      pop\n        /* \"#utility.yul\":13639:14062   */\n      swap4\n      swap3\n      pop\n      pop\n      pop\n      jump\t// out\n        /* \"#utility.yul\":14081:14419   */\n    tag_178:\n        /* \"#utility.yul\":14136:14141   */\n      0x00\n        /* \"#utility.yul\":14185:14188   */\n      dup3\n        /* \"#utility.yul\":14178:14182   */\n      0x1f\n        /* \"#utility.yul\":14170:14176   */\n      dup4\n        /* \"#utility.yul\":14166:14183   */\n      add\n        /* \"#utility.yul\":14162:14189   */\n      slt\n        /* \"#utility.yul\":14152:14274   */\n      tag_352\n      jumpi\n        /* \"#utility.yul\":14193:14272   */\n      tag_353\n      tag_136\n      jump\t// in\n    tag_353:\n        /* \"#utility.yul\":14152:14274   */\n    tag_352:\n        /* \"#utility.yul\":14310:14316   */\n      dup2\n        /* \"#utility.yul\":14297:14317   */\n      calldataload\n        /* \"#utility.yul\":14335:14413   */\n      tag_354\n        /* \"#utility.yul\":14409:14412   */\n      dup5\n        /* \"#utility.yul\":14401:14407   */\n      dup3\n        /* \"#utility.yul\":14394:14398   */\n      0x20\n        /* \"#utility.yul\":14386:14392   */\n      dup7\n        /* \"#utility.yul\":14382:14399   */\n      add\n        /* \"#utility.yul\":14335:14413   */\n      tag_177\n      jump\t// in\n    tag_354:\n        /* \"#utility.yul\":14326:14413   */\n      swap2\n      pop\n        /* \"#utility.yul\":14142:14419   */\n      pop\n        /* \"#utility.yul\":14081:14419   */\n      swap3\n      swap2\n      pop\n      pop\n      jump\t// out\n        /* \"#utility.yul\":14425:14767   */\n    tag_179:\n        /* \"#utility.yul\":14533:14537   */\n      0x00\n        /* \"#utility.yul\":14623:14641   */\n      0xffffffffffffffff\n        /* \"#utility.yul\":14615:14621   */\n      dup3\n        /* \"#utility.yul\":14612:14642   */\n      gt\n        /* \"#utility.yul\":14609:14665   */\n      iszero\n      tag_356\n      jumpi\n        /* \"#utility.yul\":14645:14663   */\n      tag_357\n      tag_154\n      jump\t// in\n    tag_357:\n        /* \"#utility.yul\":14609:14665   */\n    tag_356:\n        /* \"#utility.yul\":14695:14699   */\n      0x20\n        /* \"#utility.yul\":14687:14693   */\n      dup3\n        /* \"#utility.yul\":14683:14700   */\n      mul\n        /* \"#utility.yul\":14675:14700   */\n      swap1\n      pop\n        /* \"#utility.yul\":14755:14759   */\n      0x20\n        /* \"#utility.yul\":14749:14753   */\n      dup2\n        /* \"#utility.yul\":14745:14760   */\n      add\n        /* \"#utility.yul\":14737:14760   */\n      swap1\n      pop\n        /* \"#utility.yul\":14425:14767   */\n      swap2\n      swap1\n      pop\n      jump\t// out\n        /* \"#utility.yul\":14809:15392   */\n    tag_180:\n        /* \"#utility.yul\":14889:14894   */\n      0x00\n        /* \"#utility.yul\":14933:14937   */\n      0x40\n        /* \"#utility.yul\":14921:14930   */\n      dup3\n        /* \"#utility.yul\":14916:14919   */\n      dup5\n        /* \"#utility.yul\":14912:14931   */\n      sub\n        /* \"#utility.yul\":14908:14938   */\n      slt\n        /* \"#utility.yul\":14905:15022   */\n      iszero\n      tag_359\n      jumpi\n        /* \"#utility.yul\":14941:15020   */\n      tag_360\n      tag_169\n      jump\t// in\n    tag_360:\n        /* \"#utility.yul\":14905:15022   */\n    tag_359:\n        /* \"#utility.yul\":15040:15061   */\n      tag_361\n        /* \"#utility.yul\":15056:15060   */\n      0x40\n        /* \"#utility.yul\":15040:15061   */\n      tag_156\n      jump\t// in\n    tag_361:\n        /* \"#utility.yul\":15031:15061   */\n      swap1\n      pop\n        /* \"#utility.yul\":15121:15122   */\n      0x00\n        /* \"#utility.yul\":15161:15210   */\n      tag_362\n        /* \"#utility.yul\":15206:15209   */\n      dup5\n        /* \"#utility.yul\":15197:15203   */\n      dup3\n        /* \"#utility.yul\":15186:15195   */\n      dup6\n        /* \"#utility.yul\":15182:15204   */\n      add\n        /* \"#utility.yul\":15161:15210   */\n      tag_143\n      jump\t// in\n    tag_362:\n        /* \"#utility.yul\":15154:15158   */\n      0x00\n        /* \"#utility.yul\":15147:15152   */\n      dup4\n        /* \"#utility.yul\":15143:15159   */\n      add\n        /* \"#utility.yul\":15136:15211   */\n      mstore\n        /* \"#utility.yul\":15071:15222   */\n      pop\n        /* \"#utility.yul\":15283:15285   */\n      0x20\n        /* \"#utility.yul\":15324:15373   */\n      tag_363\n        /* \"#utility.yul\":15369:15372   */\n      dup5\n        /* \"#utility.yul\":15360:15366   */\n      dup3\n        /* \"#utility.yul\":15349:15358   */\n      dup6\n        /* \"#utility.yul\":15345:15367   */\n      add\n        /* \"#utility.yul\":15324:15373   */\n      tag_146\n      jump\t// in\n    tag_363:\n        /* \"#utility.yul\":15317:15321   */\n      0x20\n        /* \"#utility.yul\":15310:15315   */\n      dup4\n        /* \"#utility.yul\":15306:15322   */\n      add\n        /* \"#utility.yul\":15299:15374   */\n      mstore\n        /* \"#utility.yul\":15232:15385   */\n      pop\n        /* \"#utility.yul\":14809:15392   */\n      swap3\n      swap2\n      pop\n      pop\n      jump\t// out\n        /* \"#utility.yul\":15436:16239   */\n    tag_181:\n        /* \"#utility.yul\":15563:15568   */\n      0x00\n        /* \"#utility.yul\":15588:15700   */\n      tag_365\n        /* \"#utility.yul\":15604:15699   */\n      tag_366\n        /* \"#utility.yul\":15692:15698   */\n      dup5\n        /* \"#utility.yul\":15604:15699   */\n      tag_179\n      jump\t// in\n    tag_366:\n        /* \"#utility.yul\":15588:15700   */\n      tag_156\n      jump\t// in\n    tag_365:\n        /* \"#utility.yul\":15579:15700   */\n      swap1\n      pop\n        /* \"#utility.yul\":15720:15725   */\n      dup1\n        /* \"#utility.yul\":15749:15755   */\n      dup4\n        /* \"#utility.yul\":15742:15747   */\n      dup3\n        /* \"#utility.yul\":15735:15756   */\n      mstore\n        /* \"#utility.yul\":15783:15787   */\n      0x20\n        /* \"#utility.yul\":15776:15781   */\n      dup3\n        /* \"#utility.yul\":15772:15788   */\n      add\n        /* \"#utility.yul\":15765:15788   */\n      swap1\n      pop\n        /* \"#utility.yul\":15836:15840   */\n      0x40\n        /* \"#utility.yul\":15828:15834   */\n      dup5\n        /* \"#utility.yul\":15824:15841   */\n      mul\n        /* \"#utility.yul\":15816:15822   */\n      dup4\n        /* \"#utility.yul\":15812:15842   */\n      add\n        /* \"#utility.yul\":15865:15868   */\n      dup6\n        /* \"#utility.yul\":15857:15863   */\n      dup2\n        /* \"#utility.yul\":15854:15869   */\n      gt\n        /* \"#utility.yul\":15851:15973   */\n      iszero\n      tag_367\n      jumpi\n        /* \"#utility.yul\":15884:15963   */\n      tag_368\n      tag_138\n      jump\t// in\n    tag_368:\n        /* \"#utility.yul\":15851:15973   */\n    tag_367:\n        /* \"#utility.yul\":15999:16005   */\n      dup4\n        /* \"#utility.yul\":15982:16233   */\n    tag_369:\n        /* \"#utility.yul\":16016:16022   */\n      dup2\n        /* \"#utility.yul\":16011:16014   */\n      dup2\n        /* \"#utility.yul\":16008:16023   */\n      lt\n        /* \"#utility.yul\":15982:16233   */\n      iszero\n      tag_371\n      jumpi\n        /* \"#utility.yul\":16091:16094   */\n      dup1\n        /* \"#utility.yul\":16120:16188   */\n      tag_372\n        /* \"#utility.yul\":16184:16187   */\n      dup9\n        /* \"#utility.yul\":16172:16182   */\n      dup3\n        /* \"#utility.yul\":16120:16188   */\n      tag_180\n      jump\t// in\n    tag_372:\n        /* \"#utility.yul\":16115:16118   */\n      dup5\n        /* \"#utility.yul\":16108:16189   */\n      mstore\n        /* \"#utility.yul\":16218:16222   */\n      0x20\n        /* \"#utility.yul\":16213:16216   */\n      dup5\n        /* \"#utility.yul\":16209:16223   */\n      add\n        /* \"#utility.yul\":16202:16223   */\n      swap4\n      pop\n        /* \"#utility.yul\":16058:16233   */\n      pop\n        /* \"#utility.yul\":16042:16046   */\n      0x40\n        /* \"#utility.yul\":16037:16040   */\n      dup2\n        /* \"#utility.yul\":16033:16047   */\n      add\n        /* \"#utility.yul\":16026:16047   */\n      swap1\n      pop\n        /* \"#utility.yul\":15982:16233   */\n      jump(tag_369)\n    tag_371:\n        /* \"#utility.yul\":15986:16007   */\n      pop\n        /* \"#utility.yul\":15569:16239   */\n      pop\n      pop\n        /* \"#utility.yul\":15436:16239   */\n      swap4\n      swap3\n      pop\n      pop\n      pop\n      jump\t// out\n        /* \"#utility.yul\":16283:16715   */\n    tag_182:\n        /* \"#utility.yul\":16385:16390   */\n      0x00\n        /* \"#utility.yul\":16434:16437   */\n      dup3\n        /* \"#utility.yul\":16427:16431   */\n      0x1f\n        /* \"#utility.yul\":16419:16425   */\n      dup4\n        /* \"#utility.yul\":16415:16432   */\n      add\n        /* \"#utility.yul\":16411:16438   */\n      slt\n        /* \"#utility.yul\":16401:16523   */\n      tag_374\n      jumpi\n        /* \"#utility.yul\":16442:16521   */\n      tag_375\n      tag_136\n      jump\t// in\n    tag_375:\n        /* \"#utility.yul\":16401:16523   */\n    tag_374:\n        /* \"#utility.yul\":16559:16565   */\n      dup2\n        /* \"#utility.yul\":16546:16566   */\n      calldataload\n        /* \"#utility.yul\":16584:16709   */\n      tag_376\n        /* \"#utility.yul\":16705:16708   */\n      dup5\n        /* \"#utility.yul\":16697:16703   */\n      dup3\n        /* \"#utility.yul\":16690:16694   */\n      0x20\n        /* \"#utility.yul\":16682:16688   */\n      dup7\n        /* \"#utility.yul\":16678:16695   */\n      add\n        /* \"#utility.yul\":16584:16709   */\n      tag_181\n      jump\t// in\n    tag_376:\n        /* \"#utility.yul\":16575:16709   */\n      swap2\n      pop\n        /* \"#utility.yul\":16391:16715   */\n      pop\n        /* \"#utility.yul\":16283:16715   */\n      swap3\n      swap2\n      pop\n      pop\n      jump\t// out\n        /* \"#utility.yul\":16757:18408   */\n    tag_183:\n        /* \"#utility.yul\":16837:16842   */\n      0x00\n        /* \"#utility.yul\":16881:16885   */\n      0xa0\n        /* \"#utility.yul\":16869:16878   */\n      dup3\n        /* \"#utility.yul\":16864:16867   */\n      dup5\n        /* \"#utility.yul\":16860:16879   */\n      sub\n        /* \"#utility.yul\":16856:16886   */\n      slt\n        /* \"#utility.yul\":16853:16970   */\n      iszero\n      tag_378\n      jumpi\n        /* \"#utility.yul\":16889:16968   */\n      tag_379\n      tag_169\n      jump\t// in\n    tag_379:\n        /* \"#utility.yul\":16853:16970   */\n    tag_378:\n        /* \"#utility.yul\":16988:17009   */\n      tag_380\n        /* \"#utility.yul\":17004:17008   */\n      0xa0\n        /* \"#utility.yul\":16988:17009   */\n      tag_156\n      jump\t// in\n    tag_380:\n        /* \"#utility.yul\":16979:17009   */\n      swap1\n      pop\n        /* \"#utility.yul\":17073:17074   */\n      0x00\n        /* \"#utility.yul\":17113:17162   */\n      tag_381\n        /* \"#utility.yul\":17158:17161   */\n      dup5\n        /* \"#utility.yul\":17149:17155   */\n      dup3\n        /* \"#utility.yul\":17138:17147   */\n      dup6\n        /* \"#utility.yul\":17134:17156   */\n      add\n        /* \"#utility.yul\":17113:17162   */\n      tag_173\n      jump\t// in\n    tag_381:\n        /* \"#utility.yul\":17106:17110   */\n      0x00\n        /* \"#utility.yul\":17099:17104   */\n      dup4\n        /* \"#utility.yul\":17095:17111   */\n      add\n        /* \"#utility.yul\":17088:17163   */\n      mstore\n        /* \"#utility.yul\":17019:17174   */\n      pop\n        /* \"#utility.yul\":17248:17250   */\n      0x20\n        /* \"#utility.yul\":17289:17337   */\n      tag_382\n        /* \"#utility.yul\":17333:17336   */\n      dup5\n        /* \"#utility.yul\":17324:17330   */\n      dup3\n        /* \"#utility.yul\":17313:17322   */\n      dup6\n        /* \"#utility.yul\":17309:17331   */\n      add\n        /* \"#utility.yul\":17289:17337   */\n      tag_175\n      jump\t// in\n    tag_382:\n        /* \"#utility.yul\":17282:17286   */\n      0x20\n        /* \"#utility.yul\":17275:17280   */\n      dup4\n        /* \"#utility.yul\":17271:17287   */\n      add\n        /* \"#utility.yul\":17264:17338   */\n      mstore\n        /* \"#utility.yul\":17184:17349   */\n      pop\n        /* \"#utility.yul\":17438:17440   */\n      0x40\n        /* \"#utility.yul\":17427:17436   */\n      dup3\n        /* \"#utility.yul\":17423:17441   */\n      add\n        /* \"#utility.yul\":17410:17442   */\n      calldataload\n        /* \"#utility.yul\":17469:17487   */\n      0xffffffffffffffff\n        /* \"#utility.yul\":17461:17467   */\n      dup2\n        /* \"#utility.yul\":17458:17488   */\n      gt\n        /* \"#utility.yul\":17455:17572   */\n      iszero\n      tag_383\n      jumpi\n        /* \"#utility.yul\":17491:17570   */\n      tag_384\n      tag_170\n      jump\t// in\n    tag_384:\n        /* \"#utility.yul\":17455:17572   */\n    tag_383:\n        /* \"#utility.yul\":17611:17669   */\n      tag_385\n        /* \"#utility.yul\":17665:17668   */\n      dup5\n        /* \"#utility.yul\":17656:17662   */\n      dup3\n        /* \"#utility.yul\":17645:17654   */\n      dup6\n        /* \"#utility.yul\":17641:17663   */\n      add\n        /* \"#utility.yul\":17611:17669   */\n      tag_178\n      jump\t// in\n    tag_385:\n        /* \"#utility.yul\":17604:17608   */\n      0x40\n        /* \"#utility.yul\":17597:17602   */\n      dup4\n        /* \"#utility.yul\":17593:17609   */\n      add\n        /* \"#utility.yul\":17586:17670   */\n      mstore\n        /* \"#utility.yul\":17359:17681   */\n      pop\n        /* \"#utility.yul\":17768:17770   */\n      0x60\n        /* \"#utility.yul\":17757:17766   */\n      dup3\n        /* \"#utility.yul\":17753:17771   */\n      add\n        /* \"#utility.yul\":17740:17772   */\n      calldataload\n        /* \"#utility.yul\":17799:17817   */\n      0xffffffffffffffff\n        /* \"#utility.yul\":17791:17797   */\n      dup2\n        /* \"#utility.yul\":17788:17818   */\n      gt\n        /* \"#utility.yul\":17785:17902   */\n      iszero\n      tag_386\n      jumpi\n        /* \"#utility.yul\":17821:17900   */\n      tag_387\n      tag_170\n      jump\t// in\n    tag_387:\n        /* \"#utility.yul\":17785:17902   */\n    tag_386:\n        /* \"#utility.yul\":17941:17999   */\n      tag_388\n        /* \"#utility.yul\":17995:17998   */\n      dup5\n        /* \"#utility.yul\":17986:17992   */\n      dup3\n        /* \"#utility.yul\":17975:17984   */\n      dup6\n        /* \"#utility.yul\":17971:17993   */\n      add\n        /* \"#utility.yul\":17941:17999   */\n      tag_178\n      jump\t// in\n    tag_388:\n        /* \"#utility.yul\":17934:17938   */\n      0x60\n        /* \"#utility.yul\":17927:17932   */\n      dup4\n        /* \"#utility.yul\":17923:17939   */\n      add\n        /* \"#utility.yul\":17916:18000   */\n      mstore\n        /* \"#utility.yul\":17691:18011   */\n      pop\n        /* \"#utility.yul\":18110:18113   */\n      0x80\n        /* \"#utility.yul\":18099:18108   */\n      dup3\n        /* \"#utility.yul\":18095:18114   */\n      add\n        /* \"#utility.yul\":18082:18115   */\n      calldataload\n        /* \"#utility.yul\":18142:18160   */\n      0xffffffffffffffff\n        /* \"#utility.yul\":18134:18140   */\n      dup2\n        /* \"#utility.yul\":18131:18161   */\n      gt\n        /* \"#utility.yul\":18128:18245   */\n      iszero\n      tag_389\n      jumpi\n        /* \"#utility.yul\":18164:18243   */\n      tag_390\n      tag_170\n      jump\t// in\n    tag_390:\n        /* \"#utility.yul\":18128:18245   */\n    tag_389:\n        /* \"#utility.yul\":18284:18389   */\n      tag_391\n        /* \"#utility.yul\":18385:18388   */\n      dup5\n        /* \"#utility.yul\":18376:18382   */\n      dup3\n        /* \"#utility.yul\":18365:18374   */\n      dup6\n        /* \"#utility.yul\":18361:18383   */\n      add\n        /* \"#utility.yul\":18284:18389   */\n      tag_182\n      jump\t// in\n    tag_391:\n        /* \"#utility.yul\":18277:18281   */\n      0x80\n        /* \"#utility.yul\":18270:18275   */\n      dup4\n        /* \"#utility.yul\":18266:18282   */\n      add\n        /* \"#utility.yul\":18259:18390   */\n      mstore\n        /* \"#utility.yul\":18021:18401   */\n      pop\n        /* \"#utility.yul\":16757:18408   */\n      swap3\n      swap2\n      pop\n      pop\n      jump\t// out\n        /* \"#utility.yul\":18414:18643   */\n    tag_82:\n        /* \"#utility.yul\":18528:18537   */\n      0x00\n        /* \"#utility.yul\":18562:18636   */\n      tag_393\n        /* \"#utility.yul\":18621:18635   */\n      calldatasize\n        /* \"#utility.yul\":18614:18619   */\n      dup4\n        /* \"#utility.yul\":18562:18636   */\n      tag_183\n      jump\t// in\n    tag_393:\n        /* \"#utility.yul\":18549:18636   */\n      swap1\n      pop\n        /* \"#utility.yul\":18414:18643   */\n      swap2\n      swap1\n      pop\n      jump\t// out\n        /* \"#utility.yul\":18649:18747   */\n    tag_184:\n        /* \"#utility.yul\":18700:18706   */\n      0x00\n        /* \"#utility.yul\":18734:18739   */\n      dup2\n        /* \"#utility.yul\":18728:18740   */\n      mload\n        /* \"#utility.yul\":18718:18740   */\n      swap1\n      pop\n        /* \"#utility.yul\":18649:18747   */\n      swap2\n      swap1\n      pop\n      jump\t// out\n        /* \"#utility.yul\":18753:18900   */\n    tag_185:\n        /* \"#utility.yul\":18854:18865   */\n      0x00\n        /* \"#utility.yul\":18891:18894   */\n      dup2\n        /* \"#utility.yul\":18876:18894   */\n      swap1\n      pop\n        /* \"#utility.yul\":18753:18900   */\n      swap3\n      swap2\n      pop\n      pop\n      jump\t// out\n        /* \"#utility.yul\":18906:19152   */\n    tag_186:\n        /* \"#utility.yul\":18987:18988   */\n      0x00\n        /* \"#utility.yul\":18997:19110   */\n    tag_397:\n        /* \"#utility.yul\":19011:19017   */\n      dup4\n        /* \"#utility.yul\":19008:19009   */\n      dup2\n        /* \"#utility.yul\":19005:19018   */\n      lt\n        /* \"#utility.yul\":18997:19110   */\n      iszero\n      tag_399\n      jumpi\n        /* \"#utility.yul\":19096:19097   */\n      dup1\n        /* \"#utility.yul\":19091:19094   */\n      dup3\n        /* \"#utility.yul\":19087:19098   */\n      add\n        /* \"#utility.yul\":19081:19099   */\n      mload\n        /* \"#utility.yul\":19077:19078   */\n      dup2\n        /* \"#utility.yul\":19072:19075   */\n      dup5\n        /* \"#utility.yul\":19068:19079   */\n      add\n        /* \"#utility.yul\":19061:19100   */\n      mstore\n        /* \"#utility.yul\":19033:19035   */\n      0x20\n        /* \"#utility.yul\":19030:19031   */\n      dup2\n        /* \"#utility.yul\":19026:19036   */\n      add\n        /* \"#utility.yul\":19021:19036   */\n      swap1\n      pop\n        /* \"#utility.yul\":18997:19110   */\n      jump(tag_397)\n    tag_399:\n        /* \"#utility.yul\":19144:19145   */\n      0x00\n        /* \"#utility.yul\":19135:19141   */\n      dup5\n        /* \"#utility.yul\":19130:19133   */\n      dup5\n        /* \"#utility.yul\":19126:19142   */\n      add\n        /* \"#utility.yul\":19119:19146   */\n      mstore\n        /* \"#utility.yul\":18968:19152   */\n      pop\n        /* \"#utility.yul\":18906:19152   */\n      pop\n      pop\n      pop\n      jump\t// out\n        /* \"#utility.yul\":19158:19544   */\n    tag_187:\n        /* \"#utility.yul\":19262:19265   */\n      0x00\n        /* \"#utility.yul\":19290:19328   */\n      tag_401\n        /* \"#utility.yul\":19322:19327   */\n      dup3\n        /* \"#utility.yul\":19290:19328   */\n      tag_184\n      jump\t// in\n    tag_401:\n        /* \"#utility.yul\":19344:19432   */\n      tag_402\n        /* \"#utility.yul\":19425:19431   */\n      dup2\n        /* \"#utility.yul\":19420:19423   */\n      dup6\n        /* \"#utility.yul\":19344:19432   */\n      tag_185\n      jump\t// in\n    tag_402:\n        /* \"#utility.yul\":19337:19432   */\n      swap4\n      pop\n        /* \"#utility.yul\":19441:19506   */\n      tag_403\n        /* \"#utility.yul\":19499:19505   */\n      dup2\n        /* \"#utility.yul\":19494:19497   */\n      dup6\n        /* \"#utility.yul\":19487:19491   */\n      0x20\n        /* \"#utility.yul\":19480:19485   */\n      dup7\n        /* \"#utility.yul\":19476:19492   */\n      add\n        /* \"#utility.yul\":19441:19506   */\n      tag_186\n      jump\t// in\n    tag_403:\n        /* \"#utility.yul\":19531:19537   */\n      dup1\n        /* \"#utility.yul\":19526:19529   */\n      dup5\n        /* \"#utility.yul\":19522:19538   */\n      add\n        /* \"#utility.yul\":19515:19538   */\n      swap2\n      pop\n        /* \"#utility.yul\":19266:19544   */\n      pop\n        /* \"#utility.yul\":19158:19544   */\n      swap3\n      swap2\n      pop\n      pop\n      jump\t// out\n        /* \"#utility.yul\":19550:19821   */\n    tag_93:\n        /* \"#utility.yul\":19680:19683   */\n      0x00\n        /* \"#utility.yul\":19702:19795   */\n      tag_405\n        /* \"#utility.yul\":19791:19794   */\n      dup3\n        /* \"#utility.yul\":19782:19788   */\n      dup5\n        /* \"#utility.yul\":19702:19795   */\n      tag_187\n      jump\t// in\n    tag_405:\n        /* \"#utility.yul\":19695:19795   */\n      swap2\n      pop\n        /* \"#utility.yul\":19812:19815   */\n      dup2\n        /* \"#utility.yul\":19805:19815   */\n      swap1\n      pop\n        /* \"#utility.yul\":19550:19821   */\n      swap3\n      swap2\n      pop\n      pop\n      jump\t// out\n        /* \"#utility.yul\":19827:19991   */\n    tag_188:\n        /* \"#utility.yul\":19967:19983   */\n      0x4465706f736974206661696c6564000000000000000000000000000000000000\n        /* \"#utility.yul\":19963:19964   */\n      0x00\n        /* \"#utility.yul\":19955:19961   */\n      dup3\n        /* \"#utility.yul\":19951:19965   */\n      add\n        /* \"#utility.yul\":19944:19984   */\n      mstore\n        /* \"#utility.yul\":19827:19991   */\n      pop\n      jump\t// out\n        /* \"#utility.yul\":19997:20363   */\n    tag_189:\n        /* \"#utility.yul\":20139:20142   */\n      0x00\n        /* \"#utility.yul\":20160:20227   */\n      tag_408\n        /* \"#utility.yul\":20224:20226   */\n      0x0e\n        /* \"#utility.yul\":20219:20222   */\n      dup4\n        /* \"#utility.yul\":20160:20227   */\n      tag_161\n      jump\t// in\n    tag_408:\n        /* \"#utility.yul\":20153:20227   */\n      swap2\n      pop\n        /* \"#utility.yul\":20236:20329   */\n      tag_409\n        /* \"#utility.yul\":20325:20328   */\n      dup3\n        /* \"#utility.yul\":20236:20329   */\n      tag_188\n      jump\t// in\n    tag_409:\n        /* \"#utility.yul\":20354:20356   */\n      0x20\n        /* \"#utility.yul\":20349:20352   */\n      dup3\n        /* \"#utility.yul\":20345:20357   */\n      add\n        /* \"#utility.yul\":20338:20357   */\n      swap1\n      pop\n        /* \"#utility.yul\":19997:20363   */\n      swap2\n      swap1\n      pop\n      jump\t// out\n        /* \"#utility.yul\":20369:20788   */\n    tag_99:\n        /* \"#utility.yul\":20535:20539   */\n      0x00\n        /* \"#utility.yul\":20573:20575   */\n      0x20\n        /* \"#utility.yul\":20562:20571   */\n      dup3\n        /* \"#utility.yul\":20558:20576   */\n      add\n        /* \"#utility.yul\":20550:20576   */\n      swap1\n      pop\n        /* \"#utility.yul\":20622:20631   */\n      dup2\n        /* \"#utility.yul\":20616:20620   */\n      dup2\n        /* \"#utility.yul\":20612:20632   */\n      sub\n        /* \"#utility.yul\":20608:20609   */\n      0x00\n        /* \"#utility.yul\":20597:20606   */\n      dup4\n        /* \"#utility.yul\":20593:20610   */\n      add\n        /* \"#utility.yul\":20586:20633   */\n      mstore\n        /* \"#utility.yul\":20650:20781   */\n      tag_411\n        /* \"#utility.yul\":20776:20780   */\n      dup2\n        /* \"#utility.yul\":20650:20781   */\n      tag_189\n      jump\t// in\n    tag_411:\n        /* \"#utility.yul\":20642:20781   */\n      swap1\n      pop\n        /* \"#utility.yul\":20369:20788   */\n      swap2\n      swap1\n      pop\n      jump\t// out\n        /* \"#utility.yul\":20794:21228   */\n    tag_190:\n        /* \"#utility.yul\":20883:20888   */\n      0x00\n        /* \"#utility.yul\":20908:20974   */\n      tag_413\n        /* \"#utility.yul\":20924:20973   */\n      tag_414\n        /* \"#utility.yul\":20966:20972   */\n      dup5\n        /* \"#utility.yul\":20924:20973   */\n      tag_157\n      jump\t// in\n    tag_414:\n        /* \"#utility.yul\":20908:20974   */\n      tag_156\n      jump\t// in\n    tag_413:\n        /* \"#utility.yul\":20899:20974   */\n      swap1\n      pop\n        /* \"#utility.yul\":20997:21003   */\n      dup3\n        /* \"#utility.yul\":20990:20995   */\n      dup2\n        /* \"#utility.yul\":20983:21004   */\n      mstore\n        /* \"#utility.yul\":21035:21039   */\n      0x20\n        /* \"#utility.yul\":21028:21033   */\n      dup2\n        /* \"#utility.yul\":21024:21040   */\n      add\n        /* \"#utility.yul\":21073:21076   */\n      dup5\n        /* \"#utility.yul\":21064:21070   */\n      dup5\n        /* \"#utility.yul\":21059:21062   */\n      dup5\n        /* \"#utility.yul\":21055:21071   */\n      add\n        /* \"#utility.yul\":21052:21077   */\n      gt\n        /* \"#utility.yul\":21049:21161   */\n      iszero\n      tag_415\n      jumpi\n        /* \"#utility.yul\":21080:21159   */\n      tag_416\n      tag_152\n      jump\t// in\n    tag_416:\n        /* \"#utility.yul\":21049:21161   */\n    tag_415:\n        /* \"#utility.yul\":21170:21222   */\n      tag_417\n        /* \"#utility.yul\":21215:21221   */\n      dup5\n        /* \"#utility.yul\":21210:21213   */\n      dup3\n        /* \"#utility.yul\":21205:21208   */\n      dup6\n        /* \"#utility.yul\":21170:21222   */\n      tag_186\n      jump\t// in\n    tag_417:\n        /* \"#utility.yul\":20889:21228   */\n      pop\n        /* \"#utility.yul\":20794:21228   */\n      swap4\n      swap3\n      pop\n      pop\n      pop\n      jump\t// out\n        /* \"#utility.yul\":21248:21603   */\n    tag_191:\n        /* \"#utility.yul\":21315:21320   */\n      0x00\n        /* \"#utility.yul\":21364:21367   */\n      dup3\n        /* \"#utility.yul\":21357:21361   */\n      0x1f\n        /* \"#utility.yul\":21349:21355   */\n      dup4\n        /* \"#utility.yul\":21345:21362   */\n      add\n        /* \"#utility.yul\":21341:21368   */\n      slt\n        /* \"#utility.yul\":21331:21453   */\n      tag_419\n      jumpi\n        /* \"#utility.yul\":21372:21451   */\n      tag_420\n      tag_136\n      jump\t// in\n    tag_420:\n        /* \"#utility.yul\":21331:21453   */\n    tag_419:\n        /* \"#utility.yul\":21482:21488   */\n      dup2\n        /* \"#utility.yul\":21476:21489   */\n      mload\n        /* \"#utility.yul\":21507:21597   */\n      tag_421\n        /* \"#utility.yul\":21593:21596   */\n      dup5\n        /* \"#utility.yul\":21585:21591   */\n      dup3\n        /* \"#utility.yul\":21578:21582   */\n      0x20\n        /* \"#utility.yul\":21570:21576   */\n      dup7\n        /* \"#utility.yul\":21566:21583   */\n      add\n        /* \"#utility.yul\":21507:21597   */\n      tag_190\n      jump\t// in\n    tag_421:\n        /* \"#utility.yul\":21498:21597   */\n      swap2\n      pop\n        /* \"#utility.yul\":21321:21603   */\n      pop\n        /* \"#utility.yul\":21248:21603   */\n      swap3\n      swap2\n      pop\n      pop\n      jump\t// out\n        /* \"#utility.yul\":21609:21752   */\n    tag_192:\n        /* \"#utility.yul\":21666:21671   */\n      0x00\n        /* \"#utility.yul\":21697:21703   */\n      dup2\n        /* \"#utility.yul\":21691:21704   */\n      mload\n        /* \"#utility.yul\":21682:21704   */\n      swap1\n      pop\n        /* \"#utility.yul\":21713:21746   */\n      tag_423\n        /* \"#utility.yul\":21740:21745   */\n      dup2\n        /* \"#utility.yul\":21713:21746   */\n      tag_145\n      jump\t// in\n    tag_423:\n        /* \"#utility.yul\":21609:21752   */\n      swap3\n      swap2\n      pop\n      pop\n      jump\t// out\n        /* \"#utility.yul\":21802:22936   */\n    tag_193:\n        /* \"#utility.yul\":21891:21896   */\n      0x00\n        /* \"#utility.yul\":21935:21939   */\n      0x60\n        /* \"#utility.yul\":21923:21932   */\n      dup3\n        /* \"#utility.yul\":21918:21921   */\n      dup5\n        /* \"#utility.yul\":21914:21933   */\n      sub\n        /* \"#utility.yul\":21910:21940   */\n      slt\n        /* \"#utility.yul\":21907:22024   */\n      iszero\n      tag_425\n      jumpi\n        /* \"#utility.yul\":21943:22022   */\n      tag_426\n      tag_169\n      jump\t// in\n    tag_426:\n        /* \"#utility.yul\":21907:22024   */\n    tag_425:\n        /* \"#utility.yul\":22042:22063   */\n      tag_427\n        /* \"#utility.yul\":22058:22062   */\n      0x60\n        /* \"#utility.yul\":22042:22063   */\n      tag_156\n      jump\t// in\n    tag_427:\n        /* \"#utility.yul\":22033:22063   */\n      swap1\n      pop\n        /* \"#utility.yul\":22152:22153   */\n      0x00\n        /* \"#utility.yul\":22141:22150   */\n      dup3\n        /* \"#utility.yul\":22137:22154   */\n      add\n        /* \"#utility.yul\":22131:22155   */\n      mload\n        /* \"#utility.yul\":22182:22200   */\n      0xffffffffffffffff\n        /* \"#utility.yul\":22174:22180   */\n      dup2\n        /* \"#utility.yul\":22171:22201   */\n      gt\n        /* \"#utility.yul\":22168:22285   */\n      iszero\n      tag_428\n      jumpi\n        /* \"#utility.yul\":22204:22283   */\n      tag_429\n      tag_170\n      jump\t// in\n    tag_429:\n        /* \"#utility.yul\":22168:22285   */\n    tag_428:\n        /* \"#utility.yul\":22324:22394   */\n      tag_430\n        /* \"#utility.yul\":22390:22393   */\n      dup5\n        /* \"#utility.yul\":22381:22387   */\n      dup3\n        /* \"#utility.yul\":22370:22379   */\n      dup6\n        /* \"#utility.yul\":22366:22388   */\n      add\n        /* \"#utility.yul\":22324:22394   */\n      tag_191\n      jump\t// in\n    tag_430:\n        /* \"#utility.yul\":22317:22321   */\n      0x00\n        /* \"#utility.yul\":22310:22315   */\n      dup4\n        /* \"#utility.yul\":22306:22322   */\n      add\n        /* \"#utility.yul\":22299:22395   */\n      mstore\n        /* \"#utility.yul\":22073:22406   */\n      pop\n        /* \"#utility.yul\":22500:22502   */\n      0x20\n        /* \"#utility.yul\":22489:22498   */\n      dup3\n        /* \"#utility.yul\":22485:22503   */\n      add\n        /* \"#utility.yul\":22479:22504   */\n      mload\n        /* \"#utility.yul\":22531:22549   */\n      0xffffffffffffffff\n        /* \"#utility.yul\":22523:22529   */\n      dup2\n        /* \"#utility.yul\":22520:22550   */\n      gt\n        /* \"#utility.yul\":22517:22634   */\n      iszero\n      tag_431\n      jumpi\n        /* \"#utility.yul\":22553:22632   */\n      tag_432\n      tag_170\n      jump\t// in\n    tag_432:\n        /* \"#utility.yul\":22517:22634   */\n    tag_431:\n        /* \"#utility.yul\":22673:22743   */\n      tag_433\n        /* \"#utility.yul\":22739:22742   */\n      dup5\n        /* \"#utility.yul\":22730:22736   */\n      dup3\n        /* \"#utility.yul\":22719:22728   */\n      dup6\n        /* \"#utility.yul\":22715:22737   */\n      add\n        /* \"#utility.yul\":22673:22743   */\n      tag_191\n      jump\t// in\n    tag_433:\n        /* \"#utility.yul\":22666:22670   */\n      0x20\n        /* \"#utility.yul\":22659:22664   */\n      dup4\n        /* \"#utility.yul\":22655:22671   */\n      add\n        /* \"#utility.yul\":22648:22744   */\n      mstore\n        /* \"#utility.yul\":22416:22755   */\n      pop\n        /* \"#utility.yul\":22816:22818   */\n      0x40\n        /* \"#utility.yul\":22857:22917   */\n      tag_434\n        /* \"#utility.yul\":22913:22916   */\n      dup5\n        /* \"#utility.yul\":22904:22910   */\n      dup3\n        /* \"#utility.yul\":22893:22902   */\n      dup6\n        /* \"#utility.yul\":22889:22911   */\n      add\n        /* \"#utility.yul\":22857:22917   */\n      tag_192\n      jump\t// in\n    tag_434:\n        /* \"#utility.yul\":22850:22854   */\n      0x40\n        /* \"#utility.yul\":22843:22848   */\n      dup4\n        /* \"#utility.yul\":22839:22855   */\n      add\n        /* \"#utility.yul\":22832:22918   */\n      mstore\n        /* \"#utility.yul\":22765:22929   */\n      pop\n        /* \"#utility.yul\":21802:22936   */\n      swap3\n      swap2\n      pop\n      pop\n      jump\t// out\n        /* \"#utility.yul\":22942:23504   */\n    tag_102:\n        /* \"#utility.yul\":23041:23047   */\n      0x00\n        /* \"#utility.yul\":23090:23092   */\n      0x20\n        /* \"#utility.yul\":23078:23087   */\n      dup3\n        /* \"#utility.yul\":23069:23076   */\n      dup5\n        /* \"#utility.yul\":23065:23088   */\n      sub\n        /* \"#utility.yul\":23061:23093   */\n      slt\n        /* \"#utility.yul\":23058:23177   */\n      iszero\n      tag_436\n      jumpi\n        /* \"#utility.yul\":23096:23175   */\n      tag_437\n      tag_129\n      jump\t// in\n    tag_437:\n        /* \"#utility.yul\":23058:23177   */\n    tag_436:\n        /* \"#utility.yul\":23237:23238   */\n      0x00\n        /* \"#utility.yul\":23226:23235   */\n      dup3\n        /* \"#utility.yul\":23222:23239   */\n      add\n        /* \"#utility.yul\":23216:23240   */\n      mload\n        /* \"#utility.yul\":23267:23285   */\n      0xffffffffffffffff\n        /* \"#utility.yul\":23259:23265   */\n      dup2\n        /* \"#utility.yul\":23256:23286   */\n      gt\n        /* \"#utility.yul\":23253:23370   */\n      iszero\n      tag_438\n      jumpi\n        /* \"#utility.yul\":23289:23368   */\n      tag_439\n      tag_130\n      jump\t// in\n    tag_439:\n        /* \"#utility.yul\":23253:23370   */\n    tag_438:\n        /* \"#utility.yul\":23394:23487   */\n      tag_440\n        /* \"#utility.yul\":23479:23486   */\n      dup5\n        /* \"#utility.yul\":23470:23476   */\n      dup3\n        /* \"#utility.yul\":23459:23468   */\n      dup6\n        /* \"#utility.yul\":23455:23477   */\n      add\n        /* \"#utility.yul\":23394:23487   */\n      tag_193\n      jump\t// in\n    tag_440:\n        /* \"#utility.yul\":23384:23487   */\n      swap2\n      pop\n        /* \"#utility.yul\":23187:23497   */\n      pop\n        /* \"#utility.yul\":22942:23504   */\n      swap3\n      swap2\n      pop\n      pop\n      jump\t// out\n        /* \"#utility.yul\":23510:23609   */\n    tag_194:\n        /* \"#utility.yul\":23562:23568   */\n      0x00\n        /* \"#utility.yul\":23596:23601   */\n      dup2\n        /* \"#utility.yul\":23590:23602   */\n      mload\n        /* \"#utility.yul\":23580:23602   */\n      swap1\n      pop\n        /* \"#utility.yul\":23510:23609   */\n      swap2\n      swap1\n      pop\n      jump\t// out\n        /* \"#utility.yul\":23615:24005   */\n    tag_195:\n        /* \"#utility.yul\":23721:23724   */\n      0x00\n        /* \"#utility.yul\":23749:23788   */\n      tag_443\n        /* \"#utility.yul\":23782:23787   */\n      dup3\n        /* \"#utility.yul\":23749:23788   */\n      tag_194\n      jump\t// in\n    tag_443:\n        /* \"#utility.yul\":23804:23893   */\n      tag_444\n        /* \"#utility.yul\":23886:23892   */\n      dup2\n        /* \"#utility.yul\":23881:23884   */\n      dup6\n        /* \"#utility.yul\":23804:23893   */\n      tag_164\n      jump\t// in\n    tag_444:\n        /* \"#utility.yul\":23797:23893   */\n      swap4\n      pop\n        /* \"#utility.yul\":23902:23967   */\n      tag_445\n        /* \"#utility.yul\":23960:23966   */\n      dup2\n        /* \"#utility.yul\":23955:23958   */\n      dup6\n        /* \"#utility.yul\":23948:23952   */\n      0x20\n        /* \"#utility.yul\":23941:23946   */\n      dup7\n        /* \"#utility.yul\":23937:23953   */\n      add\n        /* \"#utility.yul\":23902:23967   */\n      tag_186\n      jump\t// in\n    tag_445:\n        /* \"#utility.yul\":23992:23998   */\n      dup1\n        /* \"#utility.yul\":23987:23990   */\n      dup5\n        /* \"#utility.yul\":23983:23999   */\n      add\n        /* \"#utility.yul\":23976:23999   */\n      swap2\n      pop\n        /* \"#utility.yul\":23725:24005   */\n      pop\n        /* \"#utility.yul\":23615:24005   */\n      swap3\n      swap2\n      pop\n      pop\n      jump\t// out\n        /* \"#utility.yul\":24011:24286   */\n    tag_107:\n        /* \"#utility.yul\":24143:24146   */\n      0x00\n        /* \"#utility.yul\":24165:24260   */\n      tag_447\n        /* \"#utility.yul\":24256:24259   */\n      dup3\n        /* \"#utility.yul\":24247:24253   */\n      dup5\n        /* \"#utility.yul\":24165:24260   */\n      tag_195\n      jump\t// in\n    tag_447:\n        /* \"#utility.yul\":24158:24260   */\n      swap2\n      pop\n        /* \"#utility.yul\":24277:24280   */\n      dup2\n        /* \"#utility.yul\":24270:24280   */\n      swap1\n      pop\n        /* \"#utility.yul\":24011:24286   */\n      swap3\n      swap2\n      pop\n      pop\n      jump\t// out\n        /* \"#utility.yul\":24292:24669   */\n    tag_196:\n        /* \"#utility.yul\":24380:24383   */\n      0x00\n        /* \"#utility.yul\":24408:24447   */\n      tag_449\n        /* \"#utility.yul\":24441:24446   */\n      dup3\n        /* \"#utility.yul\":24408:24447   */\n      tag_194\n      jump\t// in\n    tag_449:\n        /* \"#utility.yul\":24463:24534   */\n      tag_450\n        /* \"#utility.yul\":24527:24533   */\n      dup2\n        /* \"#utility.yul\":24522:24525   */\n      dup6\n        /* \"#utility.yul\":24463:24534   */\n      tag_161\n      jump\t// in\n    tag_450:\n        /* \"#utility.yul\":24456:24534   */\n      swap4\n      pop\n        /* \"#utility.yul\":24543:24608   */\n      tag_451\n        /* \"#utility.yul\":24601:24607   */\n      dup2\n        /* \"#utility.yul\":24596:24599   */\n      dup6\n        /* \"#utility.yul\":24589:24593   */\n      0x20\n        /* \"#utility.yul\":24582:24587   */\n      dup7\n        /* \"#utility.yul\":24578:24594   */\n      add\n        /* \"#utility.yul\":24543:24608   */\n      tag_186\n      jump\t// in\n    tag_451:\n        /* \"#utility.yul\":24633:24662   */\n      tag_452\n        /* \"#utility.yul\":24655:24661   */\n      dup2\n        /* \"#utility.yul\":24633:24662   */\n      tag_153\n      jump\t// in\n    tag_452:\n        /* \"#utility.yul\":24628:24631   */\n      dup5\n        /* \"#utility.yul\":24624:24663   */\n      add\n        /* \"#utility.yul\":24617:24663   */\n      swap2\n      pop\n        /* \"#utility.yul\":24384:24669   */\n      pop\n        /* \"#utility.yul\":24292:24669   */\n      swap3\n      swap2\n      pop\n      pop\n      jump\t// out\n        /* \"#utility.yul\":24675:25098   */\n    tag_112:\n        /* \"#utility.yul\":24816:24820   */\n      0x00\n        /* \"#utility.yul\":24854:24856   */\n      0x40\n        /* \"#utility.yul\":24843:24852   */\n      dup3\n        /* \"#utility.yul\":24839:24857   */\n      add\n        /* \"#utility.yul\":24831:24857   */\n      swap1\n      pop\n        /* \"#utility.yul\":24867:24938   */\n      tag_454\n        /* \"#utility.yul\":24935:24936   */\n      0x00\n        /* \"#utility.yul\":24924:24933   */\n      dup4\n        /* \"#utility.yul\":24920:24937   */\n      add\n        /* \"#utility.yul\":24911:24917   */\n      dup6\n        /* \"#utility.yul\":24867:24938   */\n      tag_151\n      jump\t// in\n    tag_454:\n        /* \"#utility.yul\":24985:24994   */\n      dup2\n        /* \"#utility.yul\":24979:24983   */\n      dup2\n        /* \"#utility.yul\":24975:24995   */\n      sub\n        /* \"#utility.yul\":24970:24972   */\n      0x20\n        /* \"#utility.yul\":24959:24968   */\n      dup4\n        /* \"#utility.yul\":24955:24973   */\n      add\n        /* \"#utility.yul\":24948:24996   */\n      mstore\n        /* \"#utility.yul\":25013:25091   */\n      tag_455\n        /* \"#utility.yul\":25086:25090   */\n      dup2\n        /* \"#utility.yul\":25077:25083   */\n      dup5\n        /* \"#utility.yul\":25013:25091   */\n      tag_196\n      jump\t// in\n    tag_455:\n        /* \"#utility.yul\":25005:25091   */\n      swap1\n      pop\n        /* \"#utility.yul\":24675:25098   */\n      swap4\n      swap3\n      pop\n      pop\n      pop\n      jump\t// out\n        /* \"#utility.yul\":25104:25527   */\n    tag_116:\n        /* \"#utility.yul\":25245:25249   */\n      0x00\n        /* \"#utility.yul\":25283:25285   */\n      0x40\n        /* \"#utility.yul\":25272:25281   */\n      dup3\n        /* \"#utility.yul\":25268:25286   */\n      add\n        /* \"#utility.yul\":25260:25286   */\n      swap1\n      pop\n        /* \"#utility.yul\":25332:25341   */\n      dup2\n        /* \"#utility.yul\":25326:25330   */\n      dup2\n        /* \"#utility.yul\":25322:25342   */\n      sub\n        /* \"#utility.yul\":25318:25319   */\n      0x00\n        /* \"#utility.yul\":25307:25316   */\n      dup4\n        /* \"#utility.yul\":25303:25320   */\n      add\n        /* \"#utility.yul\":25296:25343   */\n      mstore\n        /* \"#utility.yul\":25360:25438   */\n      tag_457\n        /* \"#utility.yul\":25433:25437   */\n      dup2\n        /* \"#utility.yul\":25424:25430   */\n      dup6\n        /* \"#utility.yul\":25360:25438   */\n      tag_196\n      jump\t// in\n    tag_457:\n        /* \"#utility.yul\":25352:25438   */\n      swap1\n      pop\n        /* \"#utility.yul\":25448:25520   */\n      tag_458\n        /* \"#utility.yul\":25516:25518   */\n      0x20\n        /* \"#utility.yul\":25505:25514   */\n      dup4\n        /* \"#utility.yul\":25501:25519   */\n      add\n        /* \"#utility.yul\":25492:25498   */\n      dup5\n        /* \"#utility.yul\":25448:25520   */\n      tag_151\n      jump\t// in\n    tag_458:\n        /* \"#utility.yul\":25104:25527   */\n      swap4\n      swap3\n      pop\n      pop\n      pop\n      jump\t// out\n    stop\n\n    sub_0: assembly {\n            /* \"contracts/Wallet.sol\":69:1120  contract Wallet {... */\n          mstore(0x40, 0x80)\n            /* \"contracts/Wallet.sol\":458:584  constructor(address _controller, string memory _ownerId) {... */\n          callvalue\n          dup1\n          iszero\n          tag_1\n          jumpi\n          0x00\n          dup1\n          revert\n        tag_1:\n          pop\n          mload(0x40)\n          sub(codesize, bytecodeSize)\n          dup1\n          bytecodeSize\n          dup4\n          codecopy\n          dup2\n          dup2\n          add\n          0x40\n          mstore\n          dup2\n          add\n          swap1\n          tag_2\n          swap2\n          swap1\n          tag_3\n          jump\t// in\n        tag_2:\n            /* \"contracts/Wallet.sol\":538:549  _controller */\n          dup2\n            /* \"contracts/Wallet.sol\":525:535  controller */\n          0x00\n          dup1\n            /* \"contracts/Wallet.sol\":525:549  controller = _controller */\n          0x0100\n          exp\n          dup2\n          sload\n          dup2\n          0xffffffffffffffffffffffffffffffffffffffff\n          mul\n          not\n          and\n          swap1\n          dup4\n          0xffffffffffffffffffffffffffffffffffffffff\n          and\n          mul\n          or\n          swap1\n          sstore\n          pop\n            /* \"contracts/Wallet.sol\":569:577  _ownerId */\n          dup1\n            /* \"contracts/Wallet.sol\":559:566  ownerId */\n          0x01\n            /* \"contracts/Wallet.sol\":559:577  ownerId = _ownerId */\n          swap1\n          dup2\n          tag_6\n          swap2\n          swap1\n          tag_7\n          jump\t// in\n        tag_6:\n          pop\n            /* \"contracts/Wallet.sol\":458:584  constructor(address _controller, string memory _ownerId) {... */\n          pop\n          pop\n            /* \"contracts/Wallet.sol\":69:1120  contract Wallet {... */\n          jump(tag_8)\n            /* \"#utility.yul\":7:82   */\n        tag_9:\n            /* \"#utility.yul\":40:46   */\n          0x00\n            /* \"#utility.yul\":73:75   */\n          0x40\n            /* \"#utility.yul\":67:76   */\n          mload\n            /* \"#utility.yul\":57:76   */\n          swap1\n          pop\n            /* \"#utility.yul\":7:82   */\n          swap1\n          jump\t// out\n            /* \"#utility.yul\":88:205   */\n        tag_10:\n            /* \"#utility.yul\":197:198   */\n          0x00\n            /* \"#utility.yul\":194:195   */\n          dup1\n            /* \"#utility.yul\":187:199   */\n          revert\n            /* \"#utility.yul\":211:328   */\n        tag_11:\n            /* \"#utility.yul\":320:321   */\n          0x00\n            /* \"#utility.yul\":317:318   */\n          dup1\n            /* \"#utility.yul\":310:322   */\n          revert\n            /* \"#utility.yul\":334:460   */\n        tag_12:\n            /* \"#utility.yul\":371:378   */\n          0x00\n            /* \"#utility.yul\":411:453   */\n          0xffffffffffffffffffffffffffffffffffffffff\n            /* \"#utility.yul\":404:409   */\n          dup3\n            /* \"#utility.yul\":400:454   */\n          and\n            /* \"#utility.yul\":389:454   */\n          swap1\n          pop\n            /* \"#utility.yul\":334:460   */\n          swap2\n          swap1\n          pop\n          jump\t// out\n            /* \"#utility.yul\":466:562   */\n        tag_13:\n            /* \"#utility.yul\":503:510   */\n          0x00\n            /* \"#utility.yul\":532:556   */\n          tag_51\n            /* \"#utility.yul\":550:555   */\n          dup3\n            /* \"#utility.yul\":532:556   */\n          tag_12\n          jump\t// in\n        tag_51:\n            /* \"#utility.yul\":521:556   */\n          swap1\n          pop\n            /* \"#utility.yul\":466:562   */\n          swap2\n          swap1\n          pop\n          jump\t// out\n            /* \"#utility.yul\":568:690   */\n        tag_14:\n            /* \"#utility.yul\":641:665   */\n          tag_53\n            /* \"#utility.yul\":659:664   */\n          dup2\n            /* \"#utility.yul\":641:665   */\n          tag_13\n          jump\t// in\n        tag_53:\n            /* \"#utility.yul\":634:639   */\n          dup2\n            /* \"#utility.yul\":631:666   */\n          eq\n            /* \"#utility.yul\":621:684   */\n          tag_54\n          jumpi\n            /* \"#utility.yul\":680:681   */\n          0x00\n            /* \"#utility.yul\":677:678   */\n          dup1\n            /* \"#utility.yul\":670:682   */\n          revert\n            /* \"#utility.yul\":621:684   */\n        tag_54:\n            /* \"#utility.yul\":568:690   */\n          pop\n          jump\t// out\n            /* \"#utility.yul\":696:839   */\n        tag_15:\n            /* \"#utility.yul\":753:758   */\n          0x00\n            /* \"#utility.yul\":784:790   */\n          dup2\n            /* \"#utility.yul\":778:791   */\n          mload\n            /* \"#utility.yul\":769:791   */\n          swap1\n          pop\n            /* \"#utility.yul\":800:833   */\n          tag_56\n            /* \"#utility.yul\":827:832   */\n          dup2\n            /* \"#utility.yul\":800:833   */\n          tag_14\n          jump\t// in\n        tag_56:\n            /* \"#utility.yul\":696:839   */\n          swap3\n          swap2\n          pop\n          pop\n          jump\t// out\n            /* \"#utility.yul\":845:962   */\n        tag_16:\n            /* \"#utility.yul\":954:955   */\n          0x00\n            /* \"#utility.yul\":951:952   */\n          dup1\n            /* \"#utility.yul\":944:956   */\n          revert\n            /* \"#utility.yul\":968:1085   */\n        tag_17:\n            /* \"#utility.yul\":1077:1078   */\n          0x00\n            /* \"#utility.yul\":1074:1075   */\n          dup1\n            /* \"#utility.yul\":1067:1079   */\n          revert\n            /* \"#utility.yul\":1091:1193   */\n        tag_18:\n            /* \"#utility.yul\":1132:1138   */\n          0x00\n            /* \"#utility.yul\":1183:1185   */\n          0x1f\n            /* \"#utility.yul\":1179:1186   */\n          not\n            /* \"#utility.yul\":1174:1176   */\n          0x1f\n            /* \"#utility.yul\":1167:1172   */\n          dup4\n            /* \"#utility.yul\":1163:1177   */\n          add\n            /* \"#utility.yul\":1159:1187   */\n          and\n            /* \"#utility.yul\":1149:1187   */\n          swap1\n          pop\n            /* \"#utility.yul\":1091:1193   */\n          swap2\n          swap1\n          pop\n          jump\t// out\n            /* \"#utility.yul\":1199:1379   */\n        tag_19:\n            /* \"#utility.yul\":1247:1324   */\n          0x4e487b7100000000000000000000000000000000000000000000000000000000\n            /* \"#utility.yul\":1244:1245   */\n          0x00\n            /* \"#utility.yul\":1237:1325   */\n          mstore\n            /* \"#utility.yul\":1344:1348   */\n          0x41\n            /* \"#utility.yul\":1341:1342   */\n          0x04\n            /* \"#utility.yul\":1334:1349   */\n          mstore\n            /* \"#utility.yul\":1368:1372   */\n          0x24\n            /* \"#utility.yul\":1365:1366   */\n          0x00\n            /* \"#utility.yul\":1358:1373   */\n          revert\n            /* \"#utility.yul\":1385:1666   */\n        tag_20:\n            /* \"#utility.yul\":1468:1495   */\n          tag_62\n            /* \"#utility.yul\":1490:1494   */\n          dup3\n            /* \"#utility.yul\":1468:1495   */\n          tag_18\n          jump\t// in\n        tag_62:\n            /* \"#utility.yul\":1460:1466   */\n          dup2\n            /* \"#utility.yul\":1456:1496   */\n          add\n            /* \"#utility.yul\":1598:1604   */\n          dup2\n            /* \"#utility.yul\":1586:1596   */\n          dup2\n            /* \"#utility.yul\":1583:1605   */\n          lt\n            /* \"#utility.yul\":1562:1580   */\n          0xffffffffffffffff\n            /* \"#utility.yul\":1550:1560   */\n          dup3\n            /* \"#utility.yul\":1547:1581   */\n          gt\n            /* \"#utility.yul\":1544:1606   */\n          or\n            /* \"#utility.yul\":1541:1629   */\n          iszero\n          tag_63\n          jumpi\n            /* \"#utility.yul\":1609:1627   */\n          tag_64\n          tag_19\n          jump\t// in\n        tag_64:\n            /* \"#utility.yul\":1541:1629   */\n        tag_63:\n            /* \"#utility.yul\":1649:1659   */\n          dup1\n            /* \"#utility.yul\":1645:1647   */\n          0x40\n            /* \"#utility.yul\":1638:1660   */\n          mstore\n            /* \"#utility.yul\":1428:1666   */\n          pop\n            /* \"#utility.yul\":1385:1666   */\n          pop\n          pop\n          jump\t// out\n            /* \"#utility.yul\":1672:1801   */\n        tag_21:\n            /* \"#utility.yul\":1706:1712   */\n          0x00\n            /* \"#utility.yul\":1733:1753   */\n          tag_66\n          tag_9\n          jump\t// in\n        tag_66:\n            /* \"#utility.yul\":1723:1753   */\n          swap1\n          pop\n            /* \"#utility.yul\":1762:1795   */\n          tag_67\n            /* \"#utility.yul\":1790:1794   */\n          dup3\n            /* \"#utility.yul\":1782:1788   */\n          dup3\n            /* \"#utility.yul\":1762:1795   */\n          tag_20\n          jump\t// in\n        tag_67:\n            /* \"#utility.yul\":1672:1801   */\n          swap2\n          swap1\n          pop\n          jump\t// out\n            /* \"#utility.yul\":1807:2115   */\n        tag_22:\n            /* \"#utility.yul\":1869:1873   */\n          0x00\n            /* \"#utility.yul\":1959:1977   */\n          0xffffffffffffffff\n            /* \"#utility.yul\":1951:1957   */\n          dup3\n            /* \"#utility.yul\":1948:1978   */\n          gt\n            /* \"#utility.yul\":1945:2001   */\n          iszero\n          tag_69\n          jumpi\n            /* \"#utility.yul\":1981:1999   */\n          tag_70\n          tag_19\n          jump\t// in\n        tag_70:\n            /* \"#utility.yul\":1945:2001   */\n        tag_69:\n            /* \"#utility.yul\":2019:2048   */\n          tag_71\n            /* \"#utility.yul\":2041:2047   */\n          dup3\n            /* \"#utility.yul\":2019:2048   */\n          tag_18\n          jump\t// in\n        tag_71:\n            /* \"#utility.yul\":2011:2048   */\n          swap1\n          pop\n            /* \"#utility.yul\":2103:2107   */\n          0x20\n            /* \"#utility.yul\":2097:2101   */\n          dup2\n            /* \"#utility.yul\":2093:2108   */\n          add\n            /* \"#utility.yul\":2085:2108   */\n          swap1\n          pop\n            /* \"#utility.yul\":1807:2115   */\n          swap2\n          swap1\n          pop\n          jump\t// out\n            /* \"#utility.yul\":2121:2367   */\n        tag_23:\n            /* \"#utility.yul\":2202:2203   */\n          0x00\n            /* \"#utility.yul\":2212:2325   */\n        tag_73:\n            /* \"#utility.yul\":2226:2232   */\n          dup4\n            /* \"#utility.yul\":2223:2224   */\n          dup2\n            /* \"#utility.yul\":2220:2233   */\n          lt\n            /* \"#utility.yul\":2212:2325   */\n          iszero\n          tag_75\n          jumpi\n            /* \"#utility.yul\":2311:2312   */\n          dup1\n            /* \"#utility.yul\":2306:2309   */\n          dup3\n            /* \"#utility.yul\":2302:2313   */\n          add\n            /* \"#utility.yul\":2296:2314   */\n          mload\n            /* \"#utility.yul\":2292:2293   */\n          dup2\n            /* \"#utility.yul\":2287:2290   */\n          dup5\n            /* \"#utility.yul\":2283:2294   */\n          add\n            /* \"#utility.yul\":2276:2315   */\n          mstore\n            /* \"#utility.yul\":2248:2250   */\n          0x20\n            /* \"#utility.yul\":2245:2246   */\n          dup2\n            /* \"#utility.yul\":2241:2251   */\n          add\n            /* \"#utility.yul\":2236:2251   */\n          swap1\n          pop\n            /* \"#utility.yul\":2212:2325   */\n          jump(tag_73)\n        tag_75:\n            /* \"#utility.yul\":2359:2360   */\n          0x00\n            /* \"#utility.yul\":2350:2356   */\n          dup5\n            /* \"#utility.yul\":2345:2348   */\n          dup5\n            /* \"#utility.yul\":2341:2357   */\n          add\n            /* \"#utility.yul\":2334:2361   */\n          mstore\n            /* \"#utility.yul\":2183:2367   */\n          pop\n            /* \"#utility.yul\":2121:2367   */\n          pop\n          pop\n          pop\n          jump\t// out\n            /* \"#utility.yul\":2373:2807   */\n        tag_24:\n            /* \"#utility.yul\":2462:2467   */\n          0x00\n            /* \"#utility.yul\":2487:2553   */\n          tag_77\n            /* \"#utility.yul\":2503:2552   */\n          tag_78\n            /* \"#utility.yul\":2545:2551   */\n          dup5\n            /* \"#utility.yul\":2503:2552   */\n          tag_22\n          jump\t// in\n        tag_78:\n            /* \"#utility.yul\":2487:2553   */\n          tag_21\n          jump\t// in\n        tag_77:\n            /* \"#utility.yul\":2478:2553   */\n          swap1\n          pop\n            /* \"#utility.yul\":2576:2582   */\n          dup3\n            /* \"#utility.yul\":2569:2574   */\n          dup2\n            /* \"#utility.yul\":2562:2583   */\n          mstore\n            /* \"#utility.yul\":2614:2618   */\n          0x20\n            /* \"#utility.yul\":2607:2612   */\n          dup2\n            /* \"#utility.yul\":2603:2619   */\n          add\n            /* \"#utility.yul\":2652:2655   */\n          dup5\n            /* \"#utility.yul\":2643:2649   */\n          dup5\n            /* \"#utility.yul\":2638:2641   */\n          dup5\n            /* \"#utility.yul\":2634:2650   */\n          add\n            /* \"#utility.yul\":2631:2656   */\n          gt\n            /* \"#utility.yul\":2628:2740   */\n          iszero\n          tag_79\n          jumpi\n            /* \"#utility.yul\":2659:2738   */\n          tag_80\n          tag_17\n          jump\t// in\n        tag_80:\n            /* \"#utility.yul\":2628:2740   */\n        tag_79:\n            /* \"#utility.yul\":2749:2801   */\n          tag_81\n            /* \"#utility.yul\":2794:2800   */\n          dup5\n            /* \"#utility.yul\":2789:2792   */\n          dup3\n            /* \"#utility.yul\":2784:2787   */\n          dup6\n            /* \"#utility.yul\":2749:2801   */\n          tag_23\n          jump\t// in\n        tag_81:\n            /* \"#utility.yul\":2468:2807   */\n          pop\n            /* \"#utility.yul\":2373:2807   */\n          swap4\n          swap3\n          pop\n          pop\n          pop\n          jump\t// out\n            /* \"#utility.yul\":2827:3182   */\n        tag_25:\n            /* \"#utility.yul\":2894:2899   */\n          0x00\n            /* \"#utility.yul\":2943:2946   */\n          dup3\n            /* \"#utility.yul\":2936:2940   */\n          0x1f\n            /* \"#utility.yul\":2928:2934   */\n          dup4\n            /* \"#utility.yul\":2924:2941   */\n          add\n            /* \"#utility.yul\":2920:2947   */\n          slt\n            /* \"#utility.yul\":2910:3032   */\n          tag_83\n          jumpi\n            /* \"#utility.yul\":2951:3030   */\n          tag_84\n          tag_16\n          jump\t// in\n        tag_84:\n            /* \"#utility.yul\":2910:3032   */\n        tag_83:\n            /* \"#utility.yul\":3061:3067   */\n          dup2\n            /* \"#utility.yul\":3055:3068   */\n          mload\n            /* \"#utility.yul\":3086:3176   */\n          tag_85\n            /* \"#utility.yul\":3172:3175   */\n          dup5\n            /* \"#utility.yul\":3164:3170   */\n          dup3\n            /* \"#utility.yul\":3157:3161   */\n          0x20\n            /* \"#utility.yul\":3149:3155   */\n          dup7\n            /* \"#utility.yul\":3145:3162   */\n          add\n            /* \"#utility.yul\":3086:3176   */\n          tag_24\n          jump\t// in\n        tag_85:\n            /* \"#utility.yul\":3077:3176   */\n          swap2\n          pop\n            /* \"#utility.yul\":2900:3182   */\n          pop\n            /* \"#utility.yul\":2827:3182   */\n          swap3\n          swap2\n          pop\n          pop\n          jump\t// out\n            /* \"#utility.yul\":3188:3868   */\n        tag_3:\n            /* \"#utility.yul\":3277:3283   */\n          0x00\n            /* \"#utility.yul\":3285:3291   */\n          dup1\n            /* \"#utility.yul\":3334:3336   */\n          0x40\n            /* \"#utility.yul\":3322:3331   */\n          dup4\n            /* \"#utility.yul\":3313:3320   */\n          dup6\n            /* \"#utility.yul\":3309:3332   */\n          sub\n            /* \"#utility.yul\":3305:3337   */\n          slt\n            /* \"#utility.yul\":3302:3421   */\n          iszero\n          tag_87\n          jumpi\n            /* \"#utility.yul\":3340:3419   */\n          tag_88\n          tag_10\n          jump\t// in\n        tag_88:\n            /* \"#utility.yul\":3302:3421   */\n        tag_87:\n            /* \"#utility.yul\":3460:3461   */\n          0x00\n            /* \"#utility.yul\":3485:3549   */\n          tag_89\n            /* \"#utility.yul\":3541:3548   */\n          dup6\n            /* \"#utility.yul\":3532:3538   */\n          dup3\n            /* \"#utility.yul\":3521:3530   */\n          dup7\n            /* \"#utility.yul\":3517:3539   */\n          add\n            /* \"#utility.yul\":3485:3549   */\n          tag_15\n          jump\t// in\n        tag_89:\n            /* \"#utility.yul\":3475:3549   */\n          swap3\n          pop\n            /* \"#utility.yul\":3431:3559   */\n          pop\n            /* \"#utility.yul\":3619:3621   */\n          0x20\n            /* \"#utility.yul\":3608:3617   */\n          dup4\n            /* \"#utility.yul\":3604:3622   */\n          add\n            /* \"#utility.yul\":3598:3623   */\n          mload\n            /* \"#utility.yul\":3650:3668   */\n          0xffffffffffffffff\n            /* \"#utility.yul\":3642:3648   */\n          dup2\n            /* \"#utility.yul\":3639:3669   */\n          gt\n            /* \"#utility.yul\":3636:3753   */\n          iszero\n          tag_90\n          jumpi\n            /* \"#utility.yul\":3672:3751   */\n          tag_91\n          tag_11\n          jump\t// in\n        tag_91:\n            /* \"#utility.yul\":3636:3753   */\n        tag_90:\n            /* \"#utility.yul\":3777:3851   */\n          tag_92\n            /* \"#utility.yul\":3843:3850   */\n          dup6\n            /* \"#utility.yul\":3834:3840   */\n          dup3\n            /* \"#utility.yul\":3823:3832   */\n          dup7\n            /* \"#utility.yul\":3819:3841   */\n          add\n            /* \"#utility.yul\":3777:3851   */\n          tag_25\n          jump\t// in\n        tag_92:\n            /* \"#utility.yul\":3767:3851   */\n          swap2\n          pop\n            /* \"#utility.yul\":3569:3861   */\n          pop\n            /* \"#utility.yul\":3188:3868   */\n          swap3\n          pop\n          swap3\n          swap1\n          pop\n          jump\t// out\n            /* \"#utility.yul\":3874:3973   */\n        tag_26:\n            /* \"#utility.yul\":3926:3932   */\n          0x00\n            /* \"#utility.yul\":3960:3965   */\n          dup2\n            /* \"#utility.yul\":3954:3966   */\n          mload\n            /* \"#utility.yul\":3944:3966   */\n          swap1\n          pop\n            /* \"#utility.yul\":3874:3973   */\n          swap2\n          swap1\n          pop\n          jump\t// out\n            /* \"#utility.yul\":3979:4159   */\n        tag_27:\n            /* \"#utility.yul\":4027:4104   */\n          0x4e487b7100000000000000000000000000000000000000000000000000000000\n            /* \"#utility.yul\":4024:4025   */\n          0x00\n            /* \"#utility.yul\":4017:4105   */\n          mstore\n            /* \"#utility.yul\":4124:4128   */\n          0x22\n            /* \"#utility.yul\":4121:4122   */\n          0x04\n            /* \"#utility.yul\":4114:4129   */\n          mstore\n            /* \"#utility.yul\":4148:4152   */\n          0x24\n            /* \"#utility.yul\":4145:4146   */\n          0x00\n            /* \"#utility.yul\":4138:4153   */\n          revert\n            /* \"#utility.yul\":4165:4485   */\n        tag_28:\n            /* \"#utility.yul\":4209:4215   */\n          0x00\n            /* \"#utility.yul\":4246:4247   */\n          0x02\n            /* \"#utility.yul\":4240:4244   */\n          dup3\n            /* \"#utility.yul\":4236:4248   */\n          div\n            /* \"#utility.yul\":4226:4248   */\n          swap1\n          pop\n            /* \"#utility.yul\":4293:4294   */\n          0x01\n            /* \"#utility.yul\":4287:4291   */\n          dup3\n            /* \"#utility.yul\":4283:4295   */\n          and\n            /* \"#utility.yul\":4314:4332   */\n          dup1\n            /* \"#utility.yul\":4304:4385   */\n          tag_96\n          jumpi\n            /* \"#utility.yul\":4370:4374   */\n          0x7f\n            /* \"#utility.yul\":4362:4368   */\n          dup3\n            /* \"#utility.yul\":4358:4375   */\n          and\n            /* \"#utility.yul\":4348:4375   */\n          swap2\n          pop\n            /* \"#utility.yul\":4304:4385   */\n        tag_96:\n            /* \"#utility.yul\":4432:4434   */\n          0x20\n            /* \"#utility.yul\":4424:4430   */\n          dup3\n            /* \"#utility.yul\":4421:4435   */\n          lt\n            /* \"#utility.yul\":4401:4419   */\n          dup2\n            /* \"#utility.yul\":4398:4436   */\n          sub\n            /* \"#utility.yul\":4395:4479   */\n          tag_97\n          jumpi\n            /* \"#utility.yul\":4451:4469   */\n          tag_98\n          tag_27\n          jump\t// in\n        tag_98:\n            /* \"#utility.yul\":4395:4479   */\n        tag_97:\n            /* \"#utility.yul\":4216:4485   */\n          pop\n            /* \"#utility.yul\":4165:4485   */\n          swap2\n          swap1\n          pop\n          jump\t// out\n            /* \"#utility.yul\":4491:4632   */\n        tag_29:\n            /* \"#utility.yul\":4540:4544   */\n          0x00\n            /* \"#utility.yul\":4563:4566   */\n          dup2\n            /* \"#utility.yul\":4555:4566   */\n          swap1\n          pop\n            /* \"#utility.yul\":4586:4589   */\n          dup2\n            /* \"#utility.yul\":4583:4584   */\n          0x00\n            /* \"#utility.yul\":4576:4590   */\n          mstore\n            /* \"#utility.yul\":4620:4624   */\n          0x20\n            /* \"#utility.yul\":4617:4618   */\n          0x00\n            /* \"#utility.yul\":4607:4625   */\n          keccak256\n            /* \"#utility.yul\":4599:4625   */\n          swap1\n          pop\n            /* \"#utility.yul\":4491:4632   */\n          swap2\n          swap1\n          pop\n          jump\t// out\n            /* \"#utility.yul\":4638:4731   */\n        tag_30:\n            /* \"#utility.yul\":4675:4681   */\n          0x00\n            /* \"#utility.yul\":4722:4724   */\n          0x20\n            /* \"#utility.yul\":4717:4719   */\n          0x1f\n            /* \"#utility.yul\":4710:4715   */\n          dup4\n            /* \"#utility.yul\":4706:4720   */\n          add\n            /* \"#utility.yul\":4702:4725   */\n          div\n            /* \"#utility.yul\":4692:4725   */\n          swap1\n          pop\n            /* \"#utility.yul\":4638:4731   */\n          swap2\n          swap1\n          pop\n          jump\t// out\n            /* \"#utility.yul\":4737:4844   */\n        tag_31:\n            /* \"#utility.yul\":4781:4789   */\n          0x00\n            /* \"#utility.yul\":4831:4836   */\n          dup3\n            /* \"#utility.yul\":4825:4829   */\n          dup3\n            /* \"#utility.yul\":4821:4837   */\n          shl\n            /* \"#utility.yul\":4800:4837   */\n          swap1\n          pop\n            /* \"#utility.yul\":4737:4844   */\n          swap3\n          swap2\n          pop\n          pop\n          jump\t// out\n            /* \"#utility.yul\":4850:5243   */\n        tag_32:\n            /* \"#utility.yul\":4919:4925   */\n          0x00\n            /* \"#utility.yul\":4969:4970   */\n          0x08\n            /* \"#utility.yul\":4957:4967   */\n          dup4\n            /* \"#utility.yul\":4953:4971   */\n          mul\n            /* \"#utility.yul\":4992:5089   */\n          tag_103\n            /* \"#utility.yul\":5022:5088   */\n          0xffffffffffffffffffffffffffffffffffffffffffffffffffffffffffffffff\n            /* \"#utility.yul\":5011:5020   */\n          dup3\n            /* \"#utility.yul\":4992:5089   */\n          tag_31\n          jump\t// in\n        tag_103:\n            /* \"#utility.yul\":5110:5149   */\n          tag_104\n            /* \"#utility.yul\":5140:5148   */\n          dup7\n            /* \"#utility.yul\":5129:5138   */\n          dup4\n            /* \"#utility.yul\":5110:5149   */\n          tag_31\n          jump\t// in\n        tag_104:\n            /* \"#utility.yul\":5098:5149   */\n          swap6\n          pop\n            /* \"#utility.yul\":5182:5186   */\n          dup1\n            /* \"#utility.yul\":5178:5187   */\n          not\n            /* \"#utility.yul\":5171:5176   */\n          dup5\n            /* \"#utility.yul\":5167:5188   */\n          and\n            /* \"#utility.yul\":5158:5188   */\n          swap4\n          pop\n            /* \"#utility.yul\":5231:5235   */\n          dup1\n            /* \"#utility.yul\":5221:5229   */\n          dup7\n            /* \"#utility.yul\":5217:5236   */\n          and\n            /* \"#utility.yul\":5210:5215   */\n          dup5\n            /* \"#utility.yul\":5207:5237   */\n          or\n            /* \"#utility.yul\":5197:5237   */\n          swap3\n          pop\n            /* \"#utility.yul\":4926:5243   */\n          pop\n          pop\n            /* \"#utility.yul\":4850:5243   */\n          swap4\n          swap3\n          pop\n          pop\n          pop\n          jump\t// out\n            /* \"#utility.yul\":5249:5326   */\n        tag_33:\n            /* \"#utility.yul\":5286:5293   */\n          0x00\n            /* \"#utility.yul\":5315:5320   */\n          dup2\n            /* \"#utility.yul\":5304:5320   */\n          swap1\n          pop\n            /* \"#utility.yul\":5249:5326   */\n          swap2\n          swap1\n          pop\n          jump\t// out\n            /* \"#utility.yul\":5332:5392   */\n        tag_34:\n            /* \"#utility.yul\":5360:5363   */\n          0x00\n            /* \"#utility.yul\":5381:5386   */\n          dup2\n            /* \"#utility.yul\":5374:5386   */\n          swap1\n          pop\n            /* \"#utility.yul\":5332:5392   */\n          swap2\n          swap1\n          pop\n          jump\t// out\n            /* \"#utility.yul\":5398:5540   */\n        tag_35:\n            /* \"#utility.yul\":5448:5457   */\n          0x00\n            /* \"#utility.yul\":5481:5534   */\n          tag_108\n            /* \"#utility.yul\":5499:5533   */\n          tag_109\n            /* \"#utility.yul\":5508:5532   */\n          tag_110\n            /* \"#utility.yul\":5526:5531   */\n          dup5\n            /* \"#utility.yul\":5508:5532   */\n          tag_33\n          jump\t// in\n        tag_110:\n            /* \"#utility.yul\":5499:5533   */\n          tag_34\n          jump\t// in\n        tag_109:\n            /* \"#utility.yul\":5481:5534   */\n          tag_33\n          jump\t// in\n        tag_108:\n            /* \"#utility.yul\":5468:5534   */\n          swap1\n          pop\n            /* \"#utility.yul\":5398:5540   */\n          swap2\n          swap1\n          pop\n          jump\t// out\n            /* \"#utility.yul\":5546:5621   */\n        tag_36:\n            /* \"#utility.yul\":5589:5592   */\n          0x00\n            /* \"#utility.yul\":5610:5615   */\n          dup2\n            /* \"#utility.yul\":5603:5615   */\n          swap1\n          pop\n            /* \"#utility.yul\":5546:5621   */\n          swap2\n          swap1\n          pop\n          jump\t// out\n            /* \"#utility.yul\":5627:5896   */\n        tag_37:\n            /* \"#utility.yul\":5737:5776   */\n          tag_113\n            /* \"#utility.yul\":5768:5775   */\n          dup4\n            /* \"#utility.yul\":5737:5776   */\n          tag_35\n          jump\t// in\n        tag_113:\n            /* \"#utility.yul\":5798:5889   */\n          tag_114\n            /* \"#utility.yul\":5847:5888   */\n          tag_115\n            /* \"#utility.yul\":5871:5887   */\n          dup3\n            /* \"#utility.yul\":5847:5888   */\n          tag_36\n          jump\t// in\n        tag_115:\n            /* \"#utility.yul\":5839:5845   */\n          dup5\n            /* \"#utility.yul\":5832:5836   */\n          dup5\n            /* \"#utility.yul\":5826:5837   */\n          sload\n            /* \"#utility.yul\":5798:5889   */\n          tag_32\n          jump\t// in\n        tag_114:\n            /* \"#utility.yul\":5792:5796   */\n          dup3\n            /* \"#utility.yul\":5785:5890   */\n          sstore\n            /* \"#utility.yul\":5703:5896   */\n          pop\n            /* \"#utility.yul\":5627:5896   */\n          pop\n          pop\n          pop\n          jump\t// out\n            /* \"#utility.yul\":5902:5975   */\n        tag_38:\n            /* \"#utility.yul\":5947:5950   */\n          0x00\n            /* \"#utility.yul\":5902:5975   */\n          swap1\n          jump\t// out\n            /* \"#utility.yul\":5981:6170   */\n        tag_39:\n            /* \"#utility.yul\":6058:6090   */\n          tag_118\n          tag_38\n          jump\t// in\n        tag_118:\n            /* \"#utility.yul\":6099:6164   */\n          tag_119\n            /* \"#utility.yul\":6157:6163   */\n          dup2\n            /* \"#utility.yul\":6149:6155   */\n          dup5\n            /* \"#utility.yul\":6143:6147   */\n          dup5\n            /* \"#utility.yul\":6099:6164   */\n          tag_37\n          jump\t// in\n        tag_119:\n            /* \"#utility.yul\":6034:6170   */\n          pop\n            /* \"#utility.yul\":5981:6170   */\n          pop\n          pop\n          jump\t// out\n            /* \"#utility.yul\":6176:6362   */\n        tag_40:\n            /* \"#utility.yul\":6236:6356   */\n        tag_121:\n            /* \"#utility.yul\":6253:6256   */\n          dup2\n            /* \"#utility.yul\":6246:6251   */\n          dup2\n            /* \"#utility.yul\":6243:6257   */\n          lt\n            /* \"#utility.yul\":6236:6356   */\n          iszero\n          tag_123\n          jumpi\n            /* \"#utility.yul\":6307:6346   */\n          tag_124\n            /* \"#utility.yul\":6344:6345   */\n          0x00\n            /* \"#utility.yul\":6337:6342   */\n          dup3\n            /* \"#utility.yul\":6307:6346   */\n          tag_39\n          jump\t// in\n        tag_124:\n            /* \"#utility.yul\":6280:6281   */\n          0x01\n            /* \"#utility.yul\":6273:6278   */\n          dup2\n            /* \"#utility.yul\":6269:6282   */\n          add\n            /* \"#utility.yul\":6260:6282   */\n          swap1\n          pop\n            /* \"#utility.yul\":6236:6356   */\n          jump(tag_121)\n        tag_123:\n            /* \"#utility.yul\":6176:6362   */\n          pop\n          pop\n          jump\t// out\n            /* \"#utility.yul\":6368:6911   */\n        tag_41:\n            /* \"#utility.yul\":6469:6471   */\n          0x1f\n            /* \"#utility.yul\":6464:6467   */\n          dup3\n            /* \"#utility.yul\":6461:6472   */\n          gt\n            /* \"#utility.yul\":6458:6904   */\n          iszero\n          tag_126\n          jumpi\n            /* \"#utility.yul\":6503:6541   */\n          tag_127\n            /* \"#utility.yul\":6535:6540   */\n          dup2\n            /* \"#utility.yul\":6503:6541   */\n          tag_29\n          jump\t// in\n        tag_127:\n            /* \"#utility.yul\":6587:6616   */\n          tag_128\n            /* \"#utility.yul\":6605:6615   */\n          dup5\n            /* \"#utility.yul\":6587:6616   */\n          tag_30\n          jump\t// in\n        tag_128:\n            /* \"#utility.yul\":6577:6585   */\n          dup2\n            /* \"#utility.yul\":6573:6617   */\n          add\n            /* \"#utility.yul\":6770:6772   */\n          0x20\n            /* \"#utility.yul\":6758:6768   */\n          dup6\n            /* \"#utility.yul\":6755:6773   */\n          lt\n            /* \"#utility.yul\":6752:6801   */\n          iszero\n          tag_129\n          jumpi\n            /* \"#utility.yul\":6791:6799   */\n          dup2\n            /* \"#utility.yul\":6776:6799   */\n          swap1\n          pop\n            /* \"#utility.yul\":6752:6801   */\n        tag_129:\n            /* \"#utility.yul\":6814:6894   */\n          tag_130\n            /* \"#utility.yul\":6870:6892   */\n          tag_131\n            /* \"#utility.yul\":6888:6891   */\n          dup6\n            /* \"#utility.yul\":6870:6892   */\n          tag_30\n          jump\t// in\n        tag_131:\n            /* \"#utility.yul\":6860:6868   */\n          dup4\n            /* \"#utility.yul\":6856:6893   */\n          add\n            /* \"#utility.yul\":6843:6854   */\n          dup3\n            /* \"#utility.yul\":6814:6894   */\n          tag_40\n          jump\t// in\n        tag_130:\n            /* \"#utility.yul\":6473:6904   */\n          pop\n          pop\n            /* \"#utility.yul\":6458:6904   */\n        tag_126:\n            /* \"#utility.yul\":6368:6911   */\n          pop\n          pop\n          pop\n          jump\t// out\n            /* \"#utility.yul\":6917:7034   */\n        tag_42:\n            /* \"#utility.yul\":6971:6979   */\n          0x00\n            /* \"#utility.yul\":7021:7026   */\n          dup3\n            /* \"#utility.yul\":7015:7019   */\n          dup3\n            /* \"#utility.yul\":7011:7027   */\n          shr\n            /* \"#utility.yul\":6990:7027   */\n          swap1\n          pop\n            /* \"#utility.yul\":6917:7034   */\n          swap3\n          swap2\n          pop\n          pop\n          jump\t// out\n            /* \"#utility.yul\":7040:7209   */\n        tag_43:\n            /* \"#utility.yul\":7084:7090   */\n          0x00\n            /* \"#utility.yul\":7117:7168   */\n          tag_134\n            /* \"#utility.yul\":7165:7166   */\n          0x00\n            /* \"#utility.yul\":7161:7167   */\n          not\n            /* \"#utility.yul\":7153:7158   */\n          dup5\n            /* \"#utility.yul\":7150:7151   */\n          0x08\n            /* \"#utility.yul\":7146:7159   */\n          mul\n            /* \"#utility.yul\":7117:7168   */\n          tag_42\n          jump\t// in\n        tag_134:\n            /* \"#utility.yul\":7113:7169   */\n          not\n            /* \"#utility.yul\":7198:7202   */\n          dup1\n            /* \"#utility.yul\":7192:7196   */\n          dup4\n            /* \"#utility.yul\":7188:7203   */\n          and\n            /* \"#utility.yul\":7178:7203   */\n          swap2\n          pop\n            /* \"#utility.yul\":7091:7209   */\n          pop\n            /* \"#utility.yul\":7040:7209   */\n          swap3\n          swap2\n          pop\n          pop\n          jump\t// out\n            /* \"#utility.yul\":7214:7509   */\n        tag_44:\n            /* \"#utility.yul\":7290:7294   */\n          0x00\n            /* \"#utility.yul\":7436:7465   */\n          tag_136\n            /* \"#utility.yul\":7461:7464   */\n          dup4\n            /* \"#utility.yul\":7455:7459   */\n          dup4\n            /* \"#utility.yul\":7436:7465   */\n          tag_43\n          jump\t// in\n        tag_136:\n            /* \"#utility.yul\":7428:7465   */\n          swap2\n          pop\n            /* \"#utility.yul\":7498:7501   */\n          dup3\n            /* \"#utility.yul\":7495:7496   */\n          0x02\n            /* \"#utility.yul\":7491:7502   */\n          mul\n            /* \"#utility.yul\":7485:7489   */\n          dup3\n            /* \"#utility.yul\":7482:7503   */\n          or\n            /* \"#utility.yul\":7474:7503   */\n          swap1\n          pop\n            /* \"#utility.yul\":7214:7509   */\n          swap3\n          swap2\n          pop\n          pop\n          jump\t// out\n            /* \"#utility.yul\":7514:8909   */\n        tag_7:\n            /* \"#utility.yul\":7631:7668   */\n          tag_138\n            /* \"#utility.yul\":7664:7667   */\n          dup3\n            /* \"#utility.yul\":7631:7668   */\n          tag_26\n          jump\t// in\n        tag_138:\n            /* \"#utility.yul\":7733:7751   */\n          0xffffffffffffffff\n            /* \"#utility.yul\":7725:7731   */\n          dup2\n            /* \"#utility.yul\":7722:7752   */\n          gt\n            /* \"#utility.yul\":7719:7775   */\n          iszero\n          tag_139\n          jumpi\n            /* \"#utility.yul\":7755:7773   */\n          tag_140\n          tag_19\n          jump\t// in\n        tag_140:\n            /* \"#utility.yul\":7719:7775   */\n        tag_139:\n            /* \"#utility.yul\":7799:7837   */\n          tag_141\n            /* \"#utility.yul\":7831:7835   */\n          dup3\n            /* \"#utility.yul\":7825:7836   */\n          sload\n            /* \"#utility.yul\":7799:7837   */\n          tag_28\n          jump\t// in\n        tag_141:\n            /* \"#utility.yul\":7884:7951   */\n          tag_142\n            /* \"#utility.yul\":7944:7950   */\n          dup3\n            /* \"#utility.yul\":7936:7942   */\n          dup3\n            /* \"#utility.yul\":7930:7934   */\n          dup6\n            /* \"#utility.yul\":7884:7951   */\n          tag_41\n          jump\t// in\n        tag_142:\n            /* \"#utility.yul\":7978:7979   */\n          0x00\n            /* \"#utility.yul\":8002:8006   */\n          0x20\n            /* \"#utility.yul\":7989:8006   */\n          swap1\n          pop\n            /* \"#utility.yul\":8034:8036   */\n          0x1f\n            /* \"#utility.yul\":8026:8032   */\n          dup4\n            /* \"#utility.yul\":8023:8037   */\n          gt\n            /* \"#utility.yul\":8051:8052   */\n          0x01\n            /* \"#utility.yul\":8046:8664   */\n          dup2\n          eq\n          tag_144\n          jumpi\n            /* \"#utility.yul\":8708:8709   */\n          0x00\n            /* \"#utility.yul\":8725:8731   */\n          dup5\n            /* \"#utility.yul\":8722:8799   */\n          iszero\n          tag_145\n          jumpi\n            /* \"#utility.yul\":8774:8783   */\n          dup3\n            /* \"#utility.yul\":8769:8772   */\n          dup8\n            /* \"#utility.yul\":8765:8784   */\n          add\n            /* \"#utility.yul\":8759:8785   */\n          mload\n            /* \"#utility.yul\":8750:8785   */\n          swap1\n          pop\n            /* \"#utility.yul\":8722:8799   */\n        tag_145:\n            /* \"#utility.yul\":8825:8892   */\n          tag_146\n            /* \"#utility.yul\":8885:8891   */\n          dup6\n            /* \"#utility.yul\":8878:8883   */\n          dup3\n            /* \"#utility.yul\":8825:8892   */\n          tag_44\n          jump\t// in\n        tag_146:\n            /* \"#utility.yul\":8819:8823   */\n          dup7\n            /* \"#utility.yul\":8812:8893   */\n          sstore\n            /* \"#utility.yul\":8681:8903   */\n          pop\n            /* \"#utility.yul\":8016:8903   */\n          jump(tag_143)\n            /* \"#utility.yul\":8046:8664   */\n        tag_144:\n            /* \"#utility.yul\":8098:8102   */\n          0x1f\n            /* \"#utility.yul\":8094:8103   */\n          not\n            /* \"#utility.yul\":8086:8092   */\n          dup5\n            /* \"#utility.yul\":8082:8104   */\n          and\n            /* \"#utility.yul\":8132:8169   */\n          tag_147\n            /* \"#utility.yul\":8164:8168   */\n          dup7\n            /* \"#utility.yul\":8132:8169   */\n          tag_29\n          jump\t// in\n        tag_147:\n            /* \"#utility.yul\":8191:8192   */\n          0x00\n            /* \"#utility.yul\":8205:8413   */\n        tag_148:\n            /* \"#utility.yul\":8219:8226   */\n          dup3\n            /* \"#utility.yul\":8216:8217   */\n          dup2\n            /* \"#utility.yul\":8213:8227   */\n          lt\n            /* \"#utility.yul\":8205:8413   */\n          iszero\n          tag_150\n          jumpi\n            /* \"#utility.yul\":8298:8307   */\n          dup5\n            /* \"#utility.yul\":8293:8296   */\n          dup10\n            /* \"#utility.yul\":8289:8308   */\n          add\n            /* \"#utility.yul\":8283:8309   */\n          mload\n            /* \"#utility.yul\":8275:8281   */\n          dup3\n            /* \"#utility.yul\":8268:8310   */\n          sstore\n            /* \"#utility.yul\":8349:8350   */\n          0x01\n            /* \"#utility.yul\":8341:8347   */\n          dup3\n            /* \"#utility.yul\":8337:8351   */\n          add\n            /* \"#utility.yul\":8327:8351   */\n          swap2\n          pop\n            /* \"#utility.yul\":8396:8398   */\n          0x20\n            /* \"#utility.yul\":8385:8394   */\n          dup6\n            /* \"#utility.yul\":8381:8399   */\n          add\n            /* \"#utility.yul\":8368:8399   */\n          swap5\n          pop\n            /* \"#utility.yul\":8242:8246   */\n          0x20\n            /* \"#utility.yul\":8239:8240   */\n          dup2\n            /* \"#utility.yul\":8235:8247   */\n          add\n            /* \"#utility.yul\":8230:8247   */\n          swap1\n          pop\n            /* \"#utility.yul\":8205:8413   */\n          jump(tag_148)\n        tag_150:\n            /* \"#utility.yul\":8441:8447   */\n          dup7\n            /* \"#utility.yul\":8432:8439   */\n          dup4\n            /* \"#utility.yul\":8429:8448   */\n          lt\n            /* \"#utility.yul\":8426:8605   */\n          iszero\n          tag_151\n          jumpi\n            /* \"#utility.yul\":8499:8508   */\n          dup5\n            /* \"#utility.yul\":8494:8497   */\n          dup10\n            /* \"#utility.yul\":8490:8509   */\n          add\n            /* \"#utility.yul\":8484:8510   */\n          mload\n            /* \"#utility.yul\":8542:8590   */\n          tag_152\n            /* \"#utility.yul\":8584:8588   */\n          0x1f\n            /* \"#utility.yul\":8576:8582   */\n          dup10\n            /* \"#utility.yul\":8572:8589   */\n          and\n            /* \"#utility.yul\":8561:8570   */\n          dup3\n            /* \"#utility.yul\":8542:8590   */\n          tag_43\n          jump\t// in\n        tag_152:\n            /* \"#utility.yul\":8534:8540   */\n          dup4\n            /* \"#utility.yul\":8527:8591   */\n          sstore\n            /* \"#utility.yul\":8449:8605   */\n          pop\n            /* \"#utility.yul\":8426:8605   */\n        tag_151:\n            /* \"#utility.yul\":8651:8652   */\n          0x01\n            /* \"#utility.yul\":8647:8648   */\n          0x02\n            /* \"#utility.yul\":8639:8645   */\n          dup9\n            /* \"#utility.yul\":8635:8649   */\n          mul\n            /* \"#utility.yul\":8631:8653   */\n          add\n            /* \"#utility.yul\":8625:8629   */\n          dup9\n            /* \"#utility.yul\":8618:8654   */\n          sstore\n            /* \"#utility.yul\":8053:8664   */\n          pop\n          pop\n          pop\n            /* \"#utility.yul\":8016:8903   */\n        tag_143:\n          pop\n            /* \"#utility.yul\":7606:8909   */\n          pop\n          pop\n          pop\n            /* \"#utility.yul\":7514:8909   */\n          pop\n          pop\n          jump\t// out\n            /* \"contracts/Wallet.sol\":69:1120  contract Wallet {... */\n        tag_8:\n          dataSize(sub_0)\n          dup1\n          dataOffset(sub_0)\n          0x00\n          codecopy\n          0x00\n          return\n        stop\n\n        sub_0: assembly {\n                /* \"contracts/Wallet.sol\":69:1120  contract Wallet {... */\n              mstore(0x40, 0x80)\n              jumpi(tag_1, lt(calldatasize, 0x04))\n              shr(0xe0, calldataload(0x00))\n              dup1\n              0x019c08f5\n              eq\n              tag_3\n              jumpi\n              dup1\n              0xb69ef8a8\n              eq\n              tag_4\n              jumpi\n              dup1\n              0xc71daccb\n              eq\n              tag_5\n              jumpi\n              dup1\n              0xd0e30db0\n              eq\n              tag_6\n              jumpi\n              dup1\n              0xf3fef3a3\n              eq\n              tag_7\n              jumpi\n              dup1\n              0xf77c4791\n              eq\n              tag_8\n              jumpi\n              jump(tag_2)\n            tag_1:\n              jumpi(tag_2, calldatasize)\n                /* \"contracts/Wallet.sol\":1102:1111  msg.value */\n              callvalue\n                /* \"contracts/Wallet.sol\":1091:1098  balance */\n              0x02\n              0x00\n                /* \"contracts/Wallet.sol\":1091:1111  balance += msg.value */\n              dup3\n              dup3\n              sload\n              tag_11\n              swap2\n              swap1\n              tag_12\n              jump\t// in\n            tag_11:\n              swap3\n              pop\n              pop\n              dup2\n              swap1\n              sstore\n              stop\n                /* \"contracts/Wallet.sol\":69:1120  contract Wallet {... */\n            tag_2:\n              0x00\n              dup1\n              revert\n                /* \"contracts/Wallet.sol\":245:266  string public ownerId */\n            tag_3:\n              callvalue\n              dup1\n              iszero\n              tag_13\n              jumpi\n              0x00\n              dup1\n              revert\n            tag_13:\n              pop\n              tag_14\n              tag_15\n              jump\t// in\n            tag_14:\n              mload(0x40)\n              tag_16\n              swap2\n              swap1\n              tag_17\n              jump\t// in\n            tag_16:\n              mload(0x40)\n              dup1\n              swap2\n              sub\n              swap1\n              return\n                /* \"contracts/Wallet.sol\":272:294  uint256 public balance */\n            tag_4:\n              callvalue\n              dup1\n              iszero\n              tag_18\n              jumpi\n              0x00\n              dup1\n              revert\n            tag_18:\n              pop\n              tag_19\n              tag_20\n              jump\t// in\n            tag_19:\n              mload(0x40)\n              tag_21\n              swap2\n              swap1\n              tag_22\n              jump\t// in\n            tag_21:\n              mload(0x40)\n              dup1\n              swap2\n              sub\n              swap1\n              return\n                /* \"contracts/Wallet.sol\":961:1048  function checkBalance() external view returns (uint256) {... */\n            tag_5:\n              callvalue\n              dup1\n              iszero\n              tag_23\n              jumpi\n              0x00\n              dup1\n              revert\n            tag_23:\n              pop\n              tag_24\n              tag_25\n              jump\t// in\n            tag_24:\n              mload(0x40)\n              tag_26\n              swap2\n              swap1\n              tag_22\n              jump\t// in\n            tag_26:\n              mload(0x40)\n              dup1\n              swap2\n              sub\n              swap1\n              return\n                /* \"contracts/Wallet.sol\":590:678  function deposit() external payable onlyController {... */\n            tag_6:\n              tag_27\n              tag_28\n              jump\t// in\n            tag_27:\n              stop\n                /* \"contracts/Wallet.sol\":684:955  function withdraw(address to, uint256 amount) external onlyController {... */\n            tag_7:\n              callvalue\n              dup1\n              iszero\n              tag_29\n              jumpi\n              0x00\n              dup1\n              revert\n            tag_29:\n              pop\n              tag_30\n              0x04\n              dup1\n              calldatasize\n              sub\n              dup2\n              add\n              swap1\n              tag_31\n              swap2\n              swap1\n              tag_32\n              jump\t// in\n            tag_31:\n              tag_33\n              jump\t// in\n            tag_30:\n              stop\n                /* \"contracts/Wallet.sol\":214:239  address public controller */\n            tag_8:\n              callvalue\n              dup1\n              iszero\n              tag_34\n              jumpi\n              0x00\n              dup1\n              revert\n            tag_34:\n              pop\n              tag_35\n              tag_36\n              jump\t// in\n            tag_35:\n              mload(0x40)\n              tag_37\n              swap2\n              swap1\n              tag_38\n              jump\t// in\n            tag_37:\n              mload(0x40)\n              dup1\n              swap2\n              sub\n              swap1\n              return\n                /* \"contracts/Wallet.sol\":245:266  string public ownerId */\n            tag_15:\n              0x01\n              dup1\n              sload\n              tag_39\n              swap1\n              tag_40\n              jump\t// in\n            tag_39:\n              dup1\n              0x1f\n              add\n              0x20\n              dup1\n              swap2\n              div\n              mul\n              0x20\n              add\n              mload(0x40)\n              swap1\n              dup2\n              add\n              0x40\n              mstore\n              dup1\n              swap3\n              swap2\n              swap1\n              dup2\n              dup2\n              mstore\n              0x20\n              add\n              dup3\n              dup1\n              sload\n              tag_41\n              swap1\n              tag_40\n              jump\t// in\n            tag_41:\n              dup1\n              iszero\n              tag_42\n              jumpi\n              dup1\n              0x1f\n              lt\n              tag_43\n              jumpi\n              0x0100\n              dup1\n              dup4\n              sload\n              div\n              mul\n              dup4\n              mstore\n              swap2\n              0x20\n              add\n              swap2\n              jump(tag_42)\n            tag_43:\n              dup3\n              add\n              swap2\n              swap1\n              0x00\n              mstore\n              keccak256(0x00, 0x20)\n              swap1\n            tag_44:\n              dup2\n              sload\n              dup2\n              mstore\n              swap1\n              0x01\n              add\n              swap1\n              0x20\n              add\n              dup1\n              dup4\n              gt\n              tag_44\n              jumpi\n              dup3\n              swap1\n              sub\n              0x1f\n              and\n              dup3\n              add\n              swap2\n            tag_42:\n              pop\n              pop\n              pop\n              pop\n              pop\n              dup2\n              jump\t// out\n                /* \"contracts/Wallet.sol\":272:294  uint256 public balance */\n            tag_20:\n              sload(0x02)\n              dup2\n              jump\t// out\n                /* \"contracts/Wallet.sol\":961:1048  function checkBalance() external view returns (uint256) {... */\n            tag_25:\n                /* \"contracts/Wallet.sol\":1008:1015  uint256 */\n              0x00\n                /* \"contracts/Wallet.sol\":1034:1041  balance */\n              sload(0x02)\n                /* \"contracts/Wallet.sol\":1027:1041  return balance */\n              swap1\n              pop\n                /* \"contracts/Wallet.sol\":961:1048  function checkBalance() external view returns (uint256) {... */\n              swap1\n              jump\t// out\n                /* \"contracts/Wallet.sol\":590:678  function deposit() external payable onlyController {... */\n            tag_28:\n                /* \"contracts/Wallet.sol\":355:365  controller */\n              0x00\n              dup1\n              sload\n              swap1\n              0x0100\n              exp\n              swap1\n              div\n              0xffffffffffffffffffffffffffffffffffffffff\n              and\n                /* \"contracts/Wallet.sol\":341:365  msg.sender != controller */\n              0xffffffffffffffffffffffffffffffffffffffff\n              and\n                /* \"contracts/Wallet.sol\":341:351  msg.sender */\n              caller\n                /* \"contracts/Wallet.sol\":341:365  msg.sender != controller */\n              0xffffffffffffffffffffffffffffffffffffffff\n              and\n              eq\n                /* \"contracts/Wallet.sol\":337:435  if (msg.sender != controller) {... */\n              tag_47\n              jumpi\n                /* \"contracts/Wallet.sol\":401:411  controller */\n              0x00\n              dup1\n              sload\n              swap1\n              0x0100\n              exp\n              swap1\n              div\n              0xffffffffffffffffffffffffffffffffffffffff\n              and\n                /* \"contracts/Wallet.sol\":413:423  msg.sender */\n              caller\n                /* \"contracts/Wallet.sol\":388:424  Unauthorized(controller, msg.sender) */\n              mload(0x40)\n              0x295a81c100000000000000000000000000000000000000000000000000000000\n              dup2\n              mstore\n              0x04\n              add\n              tag_48\n              swap3\n              swap2\n              swap1\n              tag_49\n              jump\t// in\n            tag_48:\n              mload(0x40)\n              dup1\n              swap2\n              sub\n              swap1\n              revert\n                /* \"contracts/Wallet.sol\":337:435  if (msg.sender != controller) {... */\n            tag_47:\n                /* \"contracts/Wallet.sol\":662:671  msg.value */\n              callvalue\n                /* \"contracts/Wallet.sol\":651:658  balance */\n              0x02\n              0x00\n                /* \"contracts/Wallet.sol\":651:671  balance += msg.value */\n              dup3\n              dup3\n              sload\n              tag_51\n              swap2\n              swap1\n              tag_12\n              jump\t// in\n            tag_51:\n              swap3\n              pop\n              pop\n              dup2\n              swap1\n              sstore\n              pop\n                /* \"contracts/Wallet.sol\":590:678  function deposit() external payable onlyController {... */\n              jump\t// out\n                /* \"contracts/Wallet.sol\":684:955  function withdraw(address to, uint256 amount) external onlyController {... */\n            tag_33:\n                /* \"contracts/Wallet.sol\":355:365  controller */\n              0x00\n              dup1\n              sload\n              swap1\n              0x0100\n              exp\n              swap1\n              div\n              0xffffffffffffffffffffffffffffffffffffffff\n              and\n                /* \"contracts/Wallet.sol\":341:365  msg.sender != controller */\n              0xffffffffffffffffffffffffffffffffffffffff\n              and\n                /* \"contracts/Wallet.sol\":341:351  msg.sender */\n              caller\n                /* \"contracts/Wallet.sol\":341:365  msg.sender != controller */\n              0xffffffffffffffffffffffffffffffffffffffff\n              and\n              eq\n                /* \"contracts/Wallet.sol\":337:435  if (msg.sender != controller) {... */\n              tag_53\n              jumpi\n                /* \"contracts/Wallet.sol\":401:411  controller */\n              0x00\n              dup1\n              sload\n              swap1\n              0x0100\n              exp\n              swap1\n              div\n              0xffffffffffffffffffffffffffffffffffffffff\n              and\n                /* \"contracts/Wallet.sol\":413:423  msg.sender */\n              caller\n                /* \"contracts/Wallet.sol\":388:424  Unauthorized(controller, msg.sender) */\n              mload(0x40)\n              0x295a81c100000000000000000000000000000000000000000000000000000000\n              dup2\n              mstore\n              0x04\n              add\n              tag_54\n              swap3\n              swap2\n              swap1\n              tag_49\n              jump\t// in\n            tag_54:\n              mload(0x40)\n              dup1\n              swap2\n              sub\n              swap1\n              revert\n                /* \"contracts/Wallet.sol\":337:435  if (msg.sender != controller) {... */\n            tag_53:\n                /* \"contracts/Wallet.sol\":777:784  balance */\n              sload(0x02)\n                /* \"contracts/Wallet.sol\":768:774  amount */\n              dup2\n                /* \"contracts/Wallet.sol\":768:784  amount > balance */\n              gt\n                /* \"contracts/Wallet.sol\":764:827  if (amount > balance) revert InsufficientFunds(balance, amount) */\n              iszero\n              tag_56\n              jumpi\n                /* \"contracts/Wallet.sol\":811:818  balance */\n              sload(0x02)\n                /* \"contracts/Wallet.sol\":820:826  amount */\n              dup2\n                /* \"contracts/Wallet.sol\":793:827  InsufficientFunds(balance, amount) */\n              mload(0x40)\n              0x03eb8b5400000000000000000000000000000000000000000000000000000000\n              dup2\n              mstore\n              0x04\n              add\n              tag_57\n              swap3\n              swap2\n              swap1\n              tag_58\n              jump\t// in\n            tag_57:\n              mload(0x40)\n              dup1\n              swap2\n              sub\n              swap1\n              revert\n                /* \"contracts/Wallet.sol\":764:827  if (amount > balance) revert InsufficientFunds(balance, amount) */\n            tag_56:\n                /* \"contracts/Wallet.sol\":848:854  amount */\n              dup1\n                /* \"contracts/Wallet.sol\":837:844  balance */\n              0x02\n              0x00\n                /* \"contracts/Wallet.sol\":837:854  balance -= amount */\n              dup3\n              dup3\n              sload\n              tag_59\n              swap2\n              swap1\n              tag_60\n              jump\t// in\n            tag_59:\n              swap3\n              pop\n              pop\n              dup2\n              swap1\n              sstore\n              pop\n                /* \"contracts/Wallet.sol\":865:874  bool sent */\n              0x00\n                /* \"contracts/Wallet.sol\":880:882  to */\n              dup3\n                /* \"contracts/Wallet.sol\":880:887  to.call */\n              0xffffffffffffffffffffffffffffffffffffffff\n              and\n                /* \"contracts/Wallet.sol\":895:901  amount */\n              dup3\n                /* \"contracts/Wallet.sol\":880:906  to.call{value: amount}(\"\") */\n              mload(0x40)\n              tag_61\n              swap1\n              tag_62\n              jump\t// in\n            tag_61:\n              0x00\n              mload(0x40)\n              dup1\n              dup4\n              sub\n              dup2\n              dup6\n              dup8\n              gas\n              call\n              swap3\n              pop\n              pop\n              pop\n              returndatasize\n              dup1\n              0x00\n              dup2\n              eq\n              tag_65\n              jumpi\n              mload(0x40)\n              swap2\n              pop\n              and(add(returndatasize, 0x3f), not(0x1f))\n              dup3\n              add\n              0x40\n              mstore\n              returndatasize\n              dup3\n              mstore\n              returndatasize\n              0x00\n              0x20\n              dup5\n              add\n              returndatacopy\n              jump(tag_64)\n            tag_65:\n              0x60\n              swap2\n              pop\n            tag_64:\n              pop\n                /* \"contracts/Wallet.sol\":864:906  (bool sent, ) = to.call{value: amount}(\"\") */\n              pop\n              swap1\n              pop\n                /* \"contracts/Wallet.sol\":924:928  sent */\n              dup1\n                /* \"contracts/Wallet.sol\":916:948  require(sent, \"Transfer failed\") */\n              tag_66\n              jumpi\n              mload(0x40)\n              0x08c379a000000000000000000000000000000000000000000000000000000000\n              dup2\n              mstore\n              0x04\n              add\n              tag_67\n              swap1\n              tag_68\n              jump\t// in\n            tag_67:\n              mload(0x40)\n              dup1\n              swap2\n              sub\n              swap1\n              revert\n            tag_66:\n                /* \"contracts/Wallet.sol\":754:955  {... */\n              pop\n                /* \"contracts/Wallet.sol\":684:955  function withdraw(address to, uint256 amount) external onlyController {... */\n              pop\n              pop\n              jump\t// out\n                /* \"contracts/Wallet.sol\":214:239  address public controller */\n            tag_36:\n              0x00\n              dup1\n              sload\n              swap1\n              0x0100\n              exp\n              swap1\n              div\n              0xffffffffffffffffffffffffffffffffffffffff\n              and\n              dup2\n              jump\t// out\n                /* \"#utility.yul\":7:84   */\n            tag_69:\n                /* \"#utility.yul\":44:51   */\n              0x00\n                /* \"#utility.yul\":73:78   */\n              dup2\n                /* \"#utility.yul\":62:78   */\n              swap1\n              pop\n                /* \"#utility.yul\":7:84   */\n              swap2\n              swap1\n              pop\n              jump\t// out\n                /* \"#utility.yul\":90:270   */\n            tag_70:\n                /* \"#utility.yul\":138:215   */\n              0x4e487b7100000000000000000000000000000000000000000000000000000000\n                /* \"#utility.yul\":135:136   */\n              0x00\n                /* \"#utility.yul\":128:216   */\n              mstore\n                /* \"#utility.yul\":235:239   */\n              0x11\n                /* \"#utility.yul\":232:233   */\n              0x04\n                /* \"#utility.yul\":225:240   */\n              mstore\n                /* \"#utility.yul\":259:263   */\n              0x24\n                /* \"#utility.yul\":256:257   */\n              0x00\n                /* \"#utility.yul\":249:264   */\n              revert\n                /* \"#utility.yul\":276:467   */\n            tag_12:\n                /* \"#utility.yul\":316:319   */\n              0x00\n                /* \"#utility.yul\":335:355   */\n              tag_97\n                /* \"#utility.yul\":353:354   */\n              dup3\n                /* \"#utility.yul\":335:355   */\n              tag_69\n              jump\t// in\n            tag_97:\n                /* \"#utility.yul\":330:355   */\n              swap2\n              pop\n                /* \"#utility.yul\":369:389   */\n              tag_98\n                /* \"#utility.yul\":387:388   */\n              dup4\n                /* \"#utility.yul\":369:389   */\n              tag_69\n              jump\t// in\n            tag_98:\n                /* \"#utility.yul\":364:389   */\n              swap3\n              pop\n                /* \"#utility.yul\":412:413   */\n              dup3\n                /* \"#utility.yul\":409:410   */\n              dup3\n                /* \"#utility.yul\":405:414   */\n              add\n                /* \"#utility.yul\":398:414   */\n              swap1\n              pop\n                /* \"#utility.yul\":433:436   */\n              dup1\n                /* \"#utility.yul\":430:431   */\n              dup3\n                /* \"#utility.yul\":427:437   */\n              gt\n                /* \"#utility.yul\":424:460   */\n              iszero\n              tag_99\n              jumpi\n                /* \"#utility.yul\":440:458   */\n              tag_100\n              tag_70\n              jump\t// in\n            tag_100:\n                /* \"#utility.yul\":424:460   */\n            tag_99:\n                /* \"#utility.yul\":276:467   */\n              swap3\n              swap2\n              pop\n              pop\n              jump\t// out\n                /* \"#utility.yul\":473:572   */\n            tag_71:\n                /* \"#utility.yul\":525:531   */\n              0x00\n                /* \"#utility.yul\":559:564   */\n              dup2\n                /* \"#utility.yul\":553:565   */\n              mload\n                /* \"#utility.yul\":543:565   */\n              swap1\n              pop\n                /* \"#utility.yul\":473:572   */\n              swap2\n              swap1\n              pop\n              jump\t// out\n                /* \"#utility.yul\":578:747   */\n            tag_72:\n                /* \"#utility.yul\":662:673   */\n              0x00\n                /* \"#utility.yul\":696:702   */\n              dup3\n                /* \"#utility.yul\":691:694   */\n              dup3\n                /* \"#utility.yul\":684:703   */\n              mstore\n                /* \"#utility.yul\":736:740   */\n              0x20\n                /* \"#utility.yul\":731:734   */\n              dup3\n                /* \"#utility.yul\":727:741   */\n              add\n                /* \"#utility.yul\":712:741   */\n              swap1\n              pop\n                /* \"#utility.yul\":578:747   */\n              swap3\n              swap2\n              pop\n              pop\n              jump\t// out\n                /* \"#utility.yul\":753:999   */\n            tag_73:\n                /* \"#utility.yul\":834:835   */\n              0x00\n                /* \"#utility.yul\":844:957   */\n            tag_104:\n                /* \"#utility.yul\":858:864   */\n              dup4\n                /* \"#utility.yul\":855:856   */\n              dup2\n                /* \"#utility.yul\":852:865   */\n              lt\n                /* \"#utility.yul\":844:957   */\n              iszero\n              tag_106\n              jumpi\n                /* \"#utility.yul\":943:944   */\n              dup1\n                /* \"#utility.yul\":938:941   */\n              dup3\n                /* \"#utility.yul\":934:945   */\n              add\n                /* \"#utility.yul\":928:946   */\n              mload\n                /* \"#utility.yul\":924:925   */\n              dup2\n                /* \"#utility.yul\":919:922   */\n              dup5\n                /* \"#utility.yul\":915:926   */\n              add\n                /* \"#utility.yul\":908:947   */\n              mstore\n                /* \"#utility.yul\":880:882   */\n              0x20\n                /* \"#utility.yul\":877:878   */\n              dup2\n                /* \"#utility.yul\":873:883   */\n              add\n                /* \"#utility.yul\":868:883   */\n              swap1\n              pop\n                /* \"#utility.yul\":844:957   */\n              jump(tag_104)\n            tag_106:\n                /* \"#utility.yul\":991:992   */\n              0x00\n                /* \"#utility.yul\":982:988   */\n              dup5\n                /* \"#utility.yul\":977:980   */\n              dup5\n                /* \"#utility.yul\":973:989   */\n              add\n                /* \"#utility.yul\":966:993   */\n              mstore\n                /* \"#utility.yul\":815:999   */\n              pop\n                /* \"#utility.yul\":753:999   */\n              pop\n              pop\n              pop\n              jump\t// out\n                /* \"#utility.yul\":1005:1107   */\n            tag_74:\n                /* \"#utility.yul\":1046:1052   */\n              0x00\n                /* \"#utility.yul\":1097:1099   */\n              0x1f\n                /* \"#utility.yul\":1093:1100   */\n              not\n                /* \"#utility.yul\":1088:1090   */\n              0x1f\n                /* \"#utility.yul\":1081:1086   */\n              dup4\n                /* \"#utility.yul\":1077:1091   */\n              add\n                /* \"#utility.yul\":1073:1101   */\n              and\n                /* \"#utility.yul\":1063:1101   */\n              swap1\n              pop\n                /* \"#utility.yul\":1005:1107   */\n              swap2\n              swap1\n              pop\n              jump\t// out\n                /* \"#utility.yul\":1113:1490   */\n            tag_75:\n                /* \"#utility.yul\":1201:1204   */\n              0x00\n                /* \"#utility.yul\":1229:1268   */\n              tag_109\n                /* \"#utility.yul\":1262:1267   */\n              dup3\n                /* \"#utility.yul\":1229:1268   */\n              tag_71\n              jump\t// in\n            tag_109:\n                /* \"#utility.yul\":1284:1355   */\n              tag_110\n                /* \"#utility.yul\":1348:1354   */\n              dup2\n                /* \"#utility.yul\":1343:1346   */\n              dup6\n                /* \"#utility.yul\":1284:1355   */\n              tag_72\n              jump\t// in\n            tag_110:\n                /* \"#utility.yul\":1277:1355   */\n              swap4\n              pop\n                /* \"#utility.yul\":1364:1429   */\n              tag_111\n                /* \"#utility.yul\":1422:1428   */\n              dup2\n                /* \"#utility.yul\":1417:1420   */\n              dup6\n                /* \"#utility.yul\":1410:1414   */\n              0x20\n                /* \"#utility.yul\":1403:1408   */\n              dup7\n                /* \"#utility.yul\":1399:1415   */\n              add\n                /* \"#utility.yul\":1364:1429   */\n              tag_73\n              jump\t// in\n            tag_111:\n                /* \"#utility.yul\":1454:1483   */\n              tag_112\n                /* \"#utility.yul\":1476:1482   */\n              dup2\n                /* \"#utility.yul\":1454:1483   */\n              tag_74\n              jump\t// in\n            tag_112:\n                /* \"#utility.yul\":1449:1452   */\n              dup5\n                /* \"#utility.yul\":1445:1484   */\n              add\n                /* \"#utility.yul\":1438:1484   */\n              swap2\n              pop\n                /* \"#utility.yul\":1205:1490   */\n              pop\n                /* \"#utility.yul\":1113:1490   */\n              swap3\n              swap2\n              pop\n              pop\n              jump\t// out\n                /* \"#utility.yul\":1496:1809   */\n            tag_17:\n                /* \"#utility.yul\":1609:1613   */\n              0x00\n                /* \"#utility.yul\":1647:1649   */\n              0x20\n                /* \"#utility.yul\":1636:1645   */\n              dup3\n                /* \"#utility.yul\":1632:1650   */\n              add\n                /* \"#utility.yul\":1624:1650   */\n              swap1\n              pop\n                /* \"#utility.yul\":1696:1705   */\n              dup2\n                /* \"#utility.yul\":1690:1694   */\n              dup2\n                /* \"#utility.yul\":1686:1706   */\n              sub\n                /* \"#utility.yul\":1682:1683   */\n              0x00\n                /* \"#utility.yul\":1671:1680   */\n              dup4\n                /* \"#utility.yul\":1667:1684   */\n              add\n                /* \"#utility.yul\":1660:1707   */\n              mstore\n                /* \"#utility.yul\":1724:1802   */\n              tag_114\n                /* \"#utility.yul\":1797:1801   */\n              dup2\n                /* \"#utility.yul\":1788:1794   */\n              dup5\n                /* \"#utility.yul\":1724:1802   */\n              tag_75\n              jump\t// in\n            tag_114:\n                /* \"#utility.yul\":1716:1802   */\n              swap1\n              pop\n                /* \"#utility.yul\":1496:1809   */\n              swap3\n              swap2\n              pop\n              pop\n              jump\t// out\n                /* \"#utility.yul\":1815:1933   */\n            tag_76:\n                /* \"#utility.yul\":1902:1926   */\n              tag_116\n                /* \"#utility.yul\":1920:1925   */\n              dup2\n                /* \"#utility.yul\":1902:1926   */\n              tag_69\n              jump\t// in\n            tag_116:\n                /* \"#utility.yul\":1897:1900   */\n              dup3\n                /* \"#utility.yul\":1890:1927   */\n              mstore\n                /* \"#utility.yul\":1815:1933   */\n              pop\n              pop\n              jump\t// out\n                /* \"#utility.yul\":1939:2161   */\n            tag_22:\n                /* \"#utility.yul\":2032:2036   */\n              0x00\n                /* \"#utility.yul\":2070:2072   */\n              0x20\n                /* \"#utility.yul\":2059:2068   */\n              dup3\n                /* \"#utility.yul\":2055:2073   */\n              add\n                /* \"#utility.yul\":2047:2073   */\n              swap1\n              pop\n                /* \"#utility.yul\":2083:2154   */\n              tag_118\n                /* \"#utility.yul\":2151:2152   */\n              0x00\n                /* \"#utility.yul\":2140:2149   */\n              dup4\n                /* \"#utility.yul\":2136:2153   */\n              add\n                /* \"#utility.yul\":2127:2133   */\n              dup5\n                /* \"#utility.yul\":2083:2154   */\n              tag_76\n              jump\t// in\n            tag_118:\n                /* \"#utility.yul\":1939:2161   */\n              swap3\n              swap2\n              pop\n              pop\n              jump\t// out\n                /* \"#utility.yul\":2248:2365   */\n            tag_78:\n                /* \"#utility.yul\":2357:2358   */\n              0x00\n                /* \"#utility.yul\":2354:2355   */\n              dup1\n                /* \"#utility.yul\":2347:2359   */\n              revert\n                /* \"#utility.yul\":2494:2620   */\n            tag_80:\n                /* \"#utility.yul\":2531:2538   */\n              0x00\n                /* \"#utility.yul\":2571:2613   */\n              0xffffffffffffffffffffffffffffffffffffffff\n                /* \"#utility.yul\":2564:2569   */\n              dup3\n                /* \"#utility.yul\":2560:2614   */\n              and\n                /* \"#utility.yul\":2549:2614   */\n              swap1\n              pop\n                /* \"#utility.yul\":2494:2620   */\n              swap2\n              swap1\n              pop\n              jump\t// out\n                /* \"#utility.yul\":2626:2722   */\n            tag_81:\n                /* \"#utility.yul\":2663:2670   */\n              0x00\n                /* \"#utility.yul\":2692:2716   */\n              tag_124\n                /* \"#utility.yul\":2710:2715   */\n              dup3\n                /* \"#utility.yul\":2692:2716   */\n              tag_80\n              jump\t// in\n            tag_124:\n                /* \"#utility.yul\":2681:2716   */\n              swap1\n              pop\n                /* \"#utility.yul\":2626:2722   */\n              swap2\n              swap1\n              pop\n              jump\t// out\n                /* \"#utility.yul\":2728:2850   */\n            tag_82:\n                /* \"#utility.yul\":2801:2825   */\n              tag_126\n                /* \"#utility.yul\":2819:2824   */\n              dup2\n                /* \"#utility.yul\":2801:2825   */\n              tag_81\n              jump\t// in\n            tag_126:\n                /* \"#utility.yul\":2794:2799   */\n              dup2\n                /* \"#utility.yul\":2791:2826   */\n              eq\n                /* \"#utility.yul\":2781:2844   */\n              tag_127\n              jumpi\n                /* \"#utility.yul\":2840:2841   */\n              0x00\n                /* \"#utility.yul\":2837:2838   */\n              dup1\n                /* \"#utility.yul\":2830:2842   */\n              revert\n                /* \"#utility.yul\":2781:2844   */\n            tag_127:\n                /* \"#utility.yul\":2728:2850   */\n              pop\n              jump\t// out\n                /* \"#utility.yul\":2856:2995   */\n            tag_83:\n                /* \"#utility.yul\":2902:2907   */\n              0x00\n                /* \"#utility.yul\":2940:2946   */\n              dup2\n                /* \"#utility.yul\":2927:2947   */\n              calldataload\n                /* \"#utility.yul\":2918:2947   */\n              swap1\n              pop\n                /* \"#utility.yul\":2956:2989   */\n              tag_129\n                /* \"#utility.yul\":2983:2988   */\n              dup2\n                /* \"#utility.yul\":2956:2989   */\n              tag_82\n              jump\t// in\n            tag_129:\n                /* \"#utility.yul\":2856:2995   */\n              swap3\n              swap2\n              pop\n              pop\n              jump\t// out\n                /* \"#utility.yul\":3001:3123   */\n            tag_84:\n                /* \"#utility.yul\":3074:3098   */\n              tag_131\n                /* \"#utility.yul\":3092:3097   */\n              dup2\n                /* \"#utility.yul\":3074:3098   */\n              tag_69\n              jump\t// in\n            tag_131:\n                /* \"#utility.yul\":3067:3072   */\n              dup2\n                /* \"#utility.yul\":3064:3099   */\n              eq\n                /* \"#utility.yul\":3054:3117   */\n              tag_132\n              jumpi\n                /* \"#utility.yul\":3113:3114   */\n              0x00\n                /* \"#utility.yul\":3110:3111   */\n              dup1\n                /* \"#utility.yul\":3103:3115   */\n              revert\n                /* \"#utility.yul\":3054:3117   */\n            tag_132:\n                /* \"#utility.yul\":3001:3123   */\n              pop\n              jump\t// out\n                /* \"#utility.yul\":3129:3268   */\n            tag_85:\n                /* \"#utility.yul\":3175:3180   */\n              0x00\n                /* \"#utility.yul\":3213:3219   */\n              dup2\n                /* \"#utility.yul\":3200:3220   */\n              calldataload\n                /* \"#utility.yul\":3191:3220   */\n              swap1\n              pop\n                /* \"#utility.yul\":3229:3262   */\n              tag_134\n                /* \"#utility.yul\":3256:3261   */\n              dup2\n                /* \"#utility.yul\":3229:3262   */\n              tag_84\n              jump\t// in\n            tag_134:\n                /* \"#utility.yul\":3129:3268   */\n              swap3\n              swap2\n              pop\n              pop\n              jump\t// out\n                /* \"#utility.yul\":3274:3748   */\n            tag_32:\n                /* \"#utility.yul\":3342:3348   */\n              0x00\n                /* \"#utility.yul\":3350:3356   */\n              dup1\n                /* \"#utility.yul\":3399:3401   */\n              0x40\n                /* \"#utility.yul\":3387:3396   */\n              dup4\n                /* \"#utility.yul\":3378:3385   */\n              dup6\n                /* \"#utility.yul\":3374:3397   */\n              sub\n                /* \"#utility.yul\":3370:3402   */\n              slt\n                /* \"#utility.yul\":3367:3486   */\n              iszero\n              tag_136\n              jumpi\n                /* \"#utility.yul\":3405:3484   */\n              tag_137\n              tag_78\n              jump\t// in\n            tag_137:\n                /* \"#utility.yul\":3367:3486   */\n            tag_136:\n                /* \"#utility.yul\":3525:3526   */\n              0x00\n                /* \"#utility.yul\":3550:3603   */\n              tag_138\n                /* \"#utility.yul\":3595:3602   */\n              dup6\n                /* \"#utility.yul\":3586:3592   */\n              dup3\n                /* \"#utility.yul\":3575:3584   */\n              dup7\n                /* \"#utility.yul\":3571:3593   */\n              add\n                /* \"#utility.yul\":3550:3603   */\n              tag_83\n              jump\t// in\n            tag_138:\n                /* \"#utility.yul\":3540:3603   */\n              swap3\n              pop\n                /* \"#utility.yul\":3496:3613   */\n              pop\n                /* \"#utility.yul\":3652:3654   */\n              0x20\n                /* \"#utility.yul\":3678:3731   */\n              tag_139\n                /* \"#utility.yul\":3723:3730   */\n              dup6\n                /* \"#utility.yul\":3714:3720   */\n              dup3\n                /* \"#utility.yul\":3703:3712   */\n              dup7\n                /* \"#utility.yul\":3699:3721   */\n              add\n                /* \"#utility.yul\":3678:3731   */\n              tag_85\n              jump\t// in\n            tag_139:\n                /* \"#utility.yul\":3668:3731   */\n              swap2\n              pop\n                /* \"#utility.yul\":3623:3741   */\n              pop\n                /* \"#utility.yul\":3274:3748   */\n              swap3\n              pop\n              swap3\n              swap1\n              pop\n              jump\t// out\n                /* \"#utility.yul\":3754:3872   */\n            tag_86:\n                /* \"#utility.yul\":3841:3865   */\n              tag_141\n                /* \"#utility.yul\":3859:3864   */\n              dup2\n                /* \"#utility.yul\":3841:3865   */\n              tag_81\n              jump\t// in\n            tag_141:\n                /* \"#utility.yul\":3836:3839   */\n              dup3\n                /* \"#utility.yul\":3829:3866   */\n              mstore\n                /* \"#utility.yul\":3754:3872   */\n              pop\n              pop\n              jump\t// out\n                /* \"#utility.yul\":3878:4100   */\n            tag_38:\n                /* \"#utility.yul\":3971:3975   */\n              0x00\n                /* \"#utility.yul\":4009:4011   */\n              0x20\n                /* \"#utility.yul\":3998:4007   */\n              dup3\n                /* \"#utility.yul\":3994:4012   */\n              add\n                /* \"#utility.yul\":3986:4012   */\n              swap1\n              pop\n                /* \"#utility.yul\":4022:4093   */\n              tag_143\n                /* \"#utility.yul\":4090:4091   */\n              0x00\n                /* \"#utility.yul\":4079:4088   */\n              dup4\n                /* \"#utility.yul\":4075:4092   */\n              add\n                /* \"#utility.yul\":4066:4072   */\n              dup5\n                /* \"#utility.yul\":4022:4093   */\n              tag_86\n              jump\t// in\n            tag_143:\n                /* \"#utility.yul\":3878:4100   */\n              swap3\n              swap2\n              pop\n              pop\n              jump\t// out\n                /* \"#utility.yul\":4106:4286   */\n            tag_87:\n                /* \"#utility.yul\":4154:4231   */\n              0x4e487b7100000000000000000000000000000000000000000000000000000000\n                /* \"#utility.yul\":4151:4152   */\n              0x00\n                /* \"#utility.yul\":4144:4232   */\n              mstore\n                /* \"#utility.yul\":4251:4255   */\n              0x22\n                /* \"#utility.yul\":4248:4249   */\n              0x04\n                /* \"#utility.yul\":4241:4256   */\n              mstore\n                /* \"#utility.yul\":4275:4279   */\n              0x24\n                /* \"#utility.yul\":4272:4273   */\n              0x00\n                /* \"#utility.yul\":4265:4280   */\n              revert\n                /* \"#utility.yul\":4292:4612   */\n            tag_40:\n                /* \"#utility.yul\":4336:4342   */\n              0x00\n                /* \"#utility.yul\":4373:4374   */\n              0x02\n                /* \"#utility.yul\":4367:4371   */\n              dup3\n                /* \"#utility.yul\":4363:4375   */\n              div\n                /* \"#utility.yul\":4353:4375   */\n              swap1\n              pop\n                /* \"#utility.yul\":4420:4421   */\n              0x01\n                /* \"#utility.yul\":4414:4418   */\n              dup3\n                /* \"#utility.yul\":4410:4422   */\n              and\n                /* \"#utility.yul\":4441:4459   */\n              dup1\n                /* \"#utility.yul\":4431:4512   */\n              tag_146\n              jumpi\n                /* \"#utility.yul\":4497:4501   */\n              0x7f\n                /* \"#utility.yul\":4489:4495   */\n              dup3\n                /* \"#utility.yul\":4485:4502   */\n              and\n                /* \"#utility.yul\":4475:4502   */\n              swap2\n              pop\n                /* \"#utility.yul\":4431:4512   */\n            tag_146:\n                /* \"#utility.yul\":4559:4561   */\n              0x20\n                /* \"#utility.yul\":4551:4557   */\n              dup3\n                /* \"#utility.yul\":4548:4562   */\n              lt\n                /* \"#utility.yul\":4528:4546   */\n              dup2\n                /* \"#utility.yul\":4525:4563   */\n              sub\n                /* \"#utility.yul\":4522:4606   */\n              tag_147\n              jumpi\n                /* \"#utility.yul\":4578:4596   */\n              tag_148\n              tag_87\n              jump\t// in\n            tag_148:\n                /* \"#utility.yul\":4522:4606   */\n            tag_147:\n                /* \"#utility.yul\":4343:4612   */\n              pop\n                /* \"#utility.yul\":4292:4612   */\n              swap2\n              swap1\n              pop\n              jump\t// out\n                /* \"#utility.yul\":4618:4950   */\n            tag_49:\n                /* \"#utility.yul\":4739:4743   */\n              0x00\n                /* \"#utility.yul\":4777:4779   */\n              0x40\n                /* \"#utility.yul\":4766:4775   */\n              dup3\n                /* \"#utility.yul\":4762:4780   */\n              add\n                /* \"#utility.yul\":4754:4780   */\n              swap1\n              pop\n                /* \"#utility.yul\":4790:4861   */\n              tag_150\n                /* \"#utility.yul\":4858:4859   */\n              0x00\n                /* \"#utility.yul\":4847:4856   */\n              dup4\n                /* \"#utility.yul\":4843:4860   */\n              add\n                /* \"#utility.yul\":4834:4840   */\n              dup6\n                /* \"#utility.yul\":4790:4861   */\n              tag_86\n              jump\t// in\n            tag_150:\n                /* \"#utility.yul\":4871:4943   */\n              tag_151\n                /* \"#utility.yul\":4939:4941   */\n              0x20\n                /* \"#utility.yul\":4928:4937   */\n              dup4\n                /* \"#utility.yul\":4924:4942   */\n              add\n                /* \"#utility.yul\":4915:4921   */\n              dup5\n                /* \"#utility.yul\":4871:4943   */\n              tag_86\n              jump\t// in\n            tag_151:\n                /* \"#utility.yul\":4618:4950   */\n              swap4\n              swap3\n              pop\n              pop\n              pop\n              jump\t// out\n                /* \"#utility.yul\":4956:5288   */\n            tag_58:\n                /* \"#utility.yul\":5077:5081   */\n              0x00\n                /* \"#utility.yul\":5115:5117   */\n              0x40\n                /* \"#utility.yul\":5104:5113   */\n              dup3\n                /* \"#utility.yul\":5100:5118   */\n              add\n                /* \"#utility.yul\":5092:5118   */\n              swap1\n              pop\n                /* \"#utility.yul\":5128:5199   */\n              tag_153\n                /* \"#utility.yul\":5196:5197   */\n              0x00\n                /* \"#utility.yul\":5185:5194   */\n              dup4\n                /* \"#utility.yul\":5181:5198   */\n              add\n                /* \"#utility.yul\":5172:5178   */\n              dup6\n                /* \"#utility.yul\":5128:5199   */\n              tag_76\n              jump\t// in\n            tag_153:\n                /* \"#utility.yul\":5209:5281   */\n              tag_154\n                /* \"#utility.yul\":5277:5279   */\n              0x20\n                /* \"#utility.yul\":5266:5275   */\n              dup4\n                /* \"#utility.yul\":5262:5280   */\n              add\n                /* \"#utility.yul\":5253:5259   */\n              dup5\n                /* \"#utility.yul\":5209:5281   */\n              tag_76\n              jump\t// in\n            tag_154:\n                /* \"#utility.yul\":4956:5288   */\n              swap4\n              swap3\n              pop\n              pop\n              pop\n              jump\t// out\n                /* \"#utility.yul\":5294:5488   */\n            tag_60:\n                /* \"#utility.yul\":5334:5338   */\n              0x00\n                /* \"#utility.yul\":5354:5374   */\n              tag_156\n                /* \"#utility.yul\":5372:5373   */\n              dup3\n                /* \"#utility.yul\":5354:5374   */\n              tag_69\n              jump\t// in\n            tag_156:\n                /* \"#utility.yul\":5349:5374   */\n              swap2\n              pop\n                /* \"#utility.yul\":5388:5408   */\n              tag_157\n                /* \"#utility.yul\":5406:5407   */\n              dup4\n                /* \"#utility.yul\":5388:5408   */\n              tag_69\n              jump\t// in\n            tag_157:\n                /* \"#utility.yul\":5383:5408   */\n              swap3\n              pop\n                /* \"#utility.yul\":5432:5433   */\n              dup3\n                /* \"#utility.yul\":5429:5430   */\n              dup3\n                /* \"#utility.yul\":5425:5434   */\n              sub\n                /* \"#utility.yul\":5417:5434   */\n              swap1\n              pop\n                /* \"#utility.yul\":5456:5457   */\n              dup2\n                /* \"#utility.yul\":5450:5454   */\n              dup2\n                /* \"#utility.yul\":5447:5458   */\n              gt\n                /* \"#utility.yul\":5444:5481   */\n              iszero\n              tag_158\n              jumpi\n                /* \"#utility.yul\":5461:5479   */\n              tag_159\n              tag_70\n              jump\t// in\n            tag_159:\n                /* \"#utility.yul\":5444:5481   */\n            tag_158:\n                /* \"#utility.yul\":5294:5488   */\n              swap3\n              swap2\n              pop\n              pop\n              jump\t// out\n                /* \"#utility.yul\":5494:5641   */\n            tag_88:\n                /* \"#utility.yul\":5595:5606   */\n              0x00\n                /* \"#utility.yul\":5632:5635   */\n              dup2\n                /* \"#utility.yul\":5617:5635   */\n              swap1\n              pop\n                /* \"#utility.yul\":5494:5641   */\n              swap3\n              swap2\n              pop\n              pop\n              jump\t// out\n                /* \"#utility.yul\":5647:5761   */\n            tag_89:\n              pop\n              jump\t// out\n                /* \"#utility.yul\":5767:6165   */\n            tag_90:\n                /* \"#utility.yul\":5926:5929   */\n              0x00\n                /* \"#utility.yul\":5947:6030   */\n              tag_163\n                /* \"#utility.yul\":6028:6029   */\n              0x00\n                /* \"#utility.yul\":6023:6026   */\n              dup4\n                /* \"#utility.yul\":5947:6030   */\n              tag_88\n              jump\t// in\n            tag_163:\n                /* \"#utility.yul\":5940:6030   */\n              swap2\n              pop\n                /* \"#utility.yul\":6039:6132   */\n              tag_164\n                /* \"#utility.yul\":6128:6131   */\n              dup3\n                /* \"#utility.yul\":6039:6132   */\n              tag_89\n              jump\t// in\n            tag_164:\n                /* \"#utility.yul\":6157:6158   */\n              0x00\n                /* \"#utility.yul\":6152:6155   */\n              dup3\n                /* \"#utility.yul\":6148:6159   */\n              add\n                /* \"#utility.yul\":6141:6159   */\n              swap1\n              pop\n                /* \"#utility.yul\":5767:6165   */\n              swap2\n              swap1\n              pop\n              jump\t// out\n                /* \"#utility.yul\":6171:6550   */\n            tag_62:\n                /* \"#utility.yul\":6355:6358   */\n              0x00\n                /* \"#utility.yul\":6377:6524   */\n              tag_166\n                /* \"#utility.yul\":6520:6523   */\n              dup3\n                /* \"#utility.yul\":6377:6524   */\n              tag_90\n              jump\t// in\n            tag_166:\n                /* \"#utility.yul\":6370:6524   */\n              swap2\n              pop\n                /* \"#utility.yul\":6541:6544   */\n              dup2\n                /* \"#utility.yul\":6534:6544   */\n              swap1\n              pop\n                /* \"#utility.yul\":6171:6550   */\n              swap2\n              swap1\n              pop\n              jump\t// out\n                /* \"#utility.yul\":6556:6721   */\n            tag_91:\n                /* \"#utility.yul\":6696:6713   */\n              0x5472616e73666572206661696c65640000000000000000000000000000000000\n                /* \"#utility.yul\":6692:6693   */\n              0x00\n                /* \"#utility.yul\":6684:6690   */\n              dup3\n                /* \"#utility.yul\":6680:6694   */\n              add\n                /* \"#utility.yul\":6673:6714   */\n              mstore\n                /* \"#utility.yul\":6556:6721   */\n              pop\n              jump\t// out\n                /* \"#utility.yul\":6727:7093   */\n            tag_92:\n                /* \"#utility.yul\":6869:6872   */\n              0x00\n                /* \"#utility.yul\":6890:6957   */\n              tag_169\n                /* \"#utility.yul\":6954:6956   */\n              0x0f\n                /* \"#utility.yul\":6949:6952   */\n              dup4\n                /* \"#utility.yul\":6890:6957   */\n              tag_72\n              jump\t// in\n            tag_169:\n                /* \"#utility.yul\":6883:6957   */\n              swap2\n              pop\n                /* \"#utility.yul\":6966:7059   */\n              tag_170\n                /* \"#utility.yul\":7055:7058   */\n              dup3\n                /* \"#utility.yul\":6966:7059   */\n              tag_91\n              jump\t// in\n            tag_170:\n                /* \"#utility.yul\":7084:7086   */\n              0x20\n                /* \"#utility.yul\":7079:7082   */\n              dup3\n                /* \"#utility.yul\":7075:7087   */\n              add\n                /* \"#utility.yul\":7068:7087   */\n              swap1\n              pop\n                /* \"#utility.yul\":6727:7093   */\n              swap2\n              swap1\n              pop\n              jump\t// out\n                /* \"#utility.yul\":7099:7518   */\n            tag_68:\n                /* \"#utility.yul\":7265:7269   */\n              0x00\n                /* \"#utility.yul\":7303:7305   */\n              0x20\n                /* \"#utility.yul\":7292:7301   */\n              dup3\n                /* \"#utility.yul\":7288:7306   */\n              add\n                /* \"#utility.yul\":7280:7306   */\n              swap1\n              pop\n                /* \"#utility.yul\":7352:7361   */\n              dup2\n                /* \"#utility.yul\":7346:7350   */\n              dup2\n                /* \"#utility.yul\":7342:7362   */\n              sub\n                /* \"#utility.yul\":7338:7339   */\n              0x00\n                /* \"#utility.yul\":7327:7336   */\n              dup4\n                /* \"#utility.yul\":7323:7340   */\n              add\n                /* \"#utility.yul\":7316:7363   */\n              mstore\n                /* \"#utility.yul\":7380:7511   */\n              tag_172\n                /* \"#utility.yul\":7506:7510   */\n              dup2\n                /* \"#utility.yul\":7380:7511   */\n              tag_92\n              jump\t// in\n            tag_172:\n                /* \"#utility.yul\":7372:7511   */\n              swap1\n              pop\n                /* \"#utility.yul\":7099:7518   */\n              swap2\n              swap1\n              pop\n              jump\t// out\n\n            auxdata: 0xa264697066735822122013ee2a00fbfc57eb1cc2831048b7560219096a996d969b8d13333652b99a79c964736f6c63430008180033\n        }\n    }\n\n    auxdata: 0xa2646970667358221220b2c04f7e6a11696c382b83eab93799b9d712ac193bba4e489e5f9091d1e31def64736f6c63430008180033\n}\n",
				"bytecode": {
					"linkReferences": {},
					"object": "60a060405234801562000010575f80fd5b5060405162002d0138038062002d0183398181016040528101906200003691906200031b565b835f73ffffffffffffffffffffffffffffffffffffffff168173ffffffffffffffffffffffffffffffffffffffff1603620000aa575f6040517fd7f73334000000000000000000000000000000000000000000000000000000008152600401620000a191906200039b565b60405180910390fd5b8073ffffffffffffffffffffffffffffffffffffffff1660808173ffffffffffffffffffffffffffffffffffffffff1681525050505f73ffffffffffffffffffffffffffffffffffffffff168373ffffffffffffffffffffffffffffffffffffffff160362000150576040517f08c379a0000000000000000000000000000000000000000000000000000000008152600401620001479062000414565b60405180910390fd5b5f73ffffffffffffffffffffffffffffffffffffffff168273ffffffffffffffffffffffffffffffffffffffff1603620001c1576040517f08c379a0000000000000000000000000000000000000000000000000000000008152600401620001b89062000482565b60405180910390fd5b8260015f6101000a81548173ffffffffffffffffffffffffffffffffffffffff021916908373ffffffffffffffffffffffffffffffffffffffff1602179055508160025f6101000a81548173ffffffffffffffffffffffffffffffffffffffff021916908373ffffffffffffffffffffffffffffffffffffffff16021790555080600260146101000a81548167ffffffffffffffff021916908367ffffffffffffffff16021790555050505050620004a2565b5f80fd5b5f73ffffffffffffffffffffffffffffffffffffffff82169050919050565b5f620002a38262000278565b9050919050565b620002b58162000297565b8114620002c0575f80fd5b50565b5f81519050620002d381620002aa565b92915050565b5f67ffffffffffffffff82169050919050565b620002f781620002d9565b811462000302575f80fd5b50565b5f815190506200031581620002ec565b92915050565b5f805f806080858703121562000336576200033562000274565b5b5f6200034587828801620002c3565b94505060206200035887828801620002c3565b93505060406200036b87828801620002c3565b92505060606200037e8782880162000305565b91505092959194509250565b620003958162000297565b82525050565b5f602082019050620003b05f8301846200038a565b92915050565b5f82825260208201905092915050565b7f496e76616c696420656e747279706f696e7400000000000000000000000000005f82015250565b5f620003fc601283620003b6565b91506200040982620003c6565b602082019050919050565b5f6020820190508181035f8301526200042d81620003ee565b9050919050565b7f496e76616c69642075736572496e746572616374696f6e0000000000000000005f82015250565b5f6200046a601783620003b6565b9150620004778262000434565b602082019050919050565b5f6020820190508181035f8301526200049b816200045c565b9050919050565b608051612846620004bb5f395f61065301526128465ff3fe60806040526004361062000091575f3560e01c80638c60948b11620000605780638c60948b1462000161578063aff9bd9c1462000190578063b0f479a114620001d3578063baa960001462000202578063dd10586214620002315762000091565b806301ffc9a714620000955780633b0e875214620000d857806345aafc0b146200010557806385572ffb1462000134575b5f80fd5b348015620000a1575f80fd5b50620000c06004803603810190620000ba919062000c89565b62000251565b604051620000cf919062000cd5565b60405180910390f35b348015620000e4575f80fd5b50620001036004803603810190620000fd919062000df3565b62000323565b005b34801562000111575f80fd5b506200011c62000535565b6040516200012b919062000e94565b60405180910390f35b34801562000140575f80fd5b506200015f600480360381019062000159919062000ed4565b6200054f565b005b3480156200016d575f80fd5b5062000178620005e4565b60405162000187919062000f34565b60405180910390f35b3480156200019c575f80fd5b50620001bb6004803603810190620001b59190620010a3565b62000609565b604051620001ca919062000f34565b60405180910390f35b348015620001df575f80fd5b50620001ea62000650565b604051620001f9919062000f34565b60405180910390f35b3480156200020e575f80fd5b506200021962000677565b60405162000228919062000f34565b60405180910390f35b6200024f6004803603810190620002499190620010f2565b6200069c565b005b5f7f85572ffb000000000000000000000000000000000000000000000000000000007bffffffffffffffffffffffffffffffffffffffffffffffffffffffff1916827bffffffffffffffffffffffffffffffffffffffffffffffffffffffff191614806200031c57507f01ffc9a7000000000000000000000000000000000000000000000000000000007bffffffffffffffffffffffffffffffffffffffffffffffffffffffff1916827bffffffffffffffffffffffffffffffffffffffffffffffffffffffff1916145b9050919050565b60015f9054906101000a900473ffffffffffffffffffffffffffffffffffffffff1673ffffffffffffffffffffffffffffffffffffffff163373ffffffffffffffffffffffffffffffffffffffff161480620003cb575060025f9054906101000a900473ffffffffffffffffffffffffffffffffffffffff1673ffffffffffffffffffffffffffffffffffffffff163373ffffffffffffffffffffffffffffffffffffffff16145b6200040d576040517f08c379a00000000000000000000000000000000000000000000000000000000081526004016200040490620011a3565b60405180910390fd5b5f80858560405162000421929190620011f5565b90815260200160405180910390205f9054906101000a900473ffffffffffffffffffffffffffffffffffffffff1690505f73ffffffffffffffffffffffffffffffffffffffff168173ffffffffffffffffffffffffffffffffffffffff1603620004c2576040517f08c379a0000000000000000000000000000000000000000000000000000000008152600401620004b9906200125d565b60405180910390fd5b8073ffffffffffffffffffffffffffffffffffffffff1663f3fef3a384846040518363ffffffff1660e01b8152600401620004ff9291906200128e565b5f604051808303815f87803b15801562000517575f80fd5b505af11580156200052a573d5f803e3d5ffd5b505050505050505050565b600260149054906101000a900467ffffffffffffffff1681565b6200055962000650565b73ffffffffffffffffffffffffffffffffffffffff163373ffffffffffffffffffffffffffffffffffffffff1614620005cb57336040517fd7f73334000000000000000000000000000000000000000000000000000000008152600401620005c2919062000f34565b60405180910390fd5b620005e181620005db90620015f7565b62000910565b50565b60015f9054906101000a900473ffffffffffffffffffffffffffffffffffffffff1681565b5f818051602081018201805184825260208301602085012081835280955050505050505f915054906101000a900473ffffffffffffffffffffffffffffffffffffffff1681565b5f7f0000000000000000000000000000000000000000000000000000000000000000905090565b60025f9054906101000a900473ffffffffffffffffffffffffffffffffffffffff1681565b60015f9054906101000a900473ffffffffffffffffffffffffffffffffffffffff1673ffffffffffffffffffffffffffffffffffffffff163373ffffffffffffffffffffffffffffffffffffffff16148062000744575060025f9054906101000a900473ffffffffffffffffffffffffffffffffffffffff1673ffffffffffffffffffffffffffffffffffffffff163373ffffffffffffffffffffffffffffffffffffffff16145b62000786576040517f08c379a00000000000000000000000000000000000000000000000000000000081526004016200077d90620011a3565b60405180910390fd5b5f620007d583838080601f0160208091040260200160405190810160405280939291908181526020018383808284375f81840152601f19601f8201169050808301925050505050505062000949565b90505f8173ffffffffffffffffffffffffffffffffffffffff16346040516024016040516020818303038152906040527fd0e30db0000000000000000000000000000000000000000000000000000000007bffffffffffffffffffffffffffffffffffffffffffffffffffffffff19166020820180517bffffffffffffffffffffffffffffffffffffffffffffffffffffffff83818316178352505050506040516200088291906200167f565b5f6040518083038185875af1925050503d805f8114620008be576040519150601f19603f3d011682016040523d82523d5f602084013e620008c3565b606091505b50509050806200090a576040517f08c379a00000000000000000000000000000000000000000000000000000000081526004016200090190620016e5565b60405180910390fd5b50505050565b5f81606001518060200190518101906200092b919062001841565b905062000945815f01518260200151836040015162000a97565b5050565b5f80826040516200095b9190620018d0565b90815260200160405180910390205f9054906101000a900473ffffffffffffffffffffffffffffffffffffffff1690505f73ffffffffffffffffffffffffffffffffffffffff168173ffffffffffffffffffffffffffffffffffffffff160362000a92573082604051620009cf9062000c10565b620009dc92919062001928565b604051809103905ff080158015620009f6573d5f803e3d5ffd5b509050805f8360405162000a0b9190620018d0565b90815260200160405180910390205f6101000a81548173ffffffffffffffffffffffffffffffffffffffff021916908373ffffffffffffffffffffffffffffffffffffffff1602179055507f582ba04b4371b240e4864e0bea1ca69f930e4b5e4b2fa7e5e5582b1ca39e00ef828260405162000a899291906200195a565b60405180910390a15b919050565b60015f9054906101000a900473ffffffffffffffffffffffffffffffffffffffff1673ffffffffffffffffffffffffffffffffffffffff163373ffffffffffffffffffffffffffffffffffffffff16148062000b3f575060025f9054906101000a900473ffffffffffffffffffffffffffffffffffffffff1673ffffffffffffffffffffffffffffffffffffffff163373ffffffffffffffffffffffffffffffffffffffff16145b62000b81576040517f08c379a000000000000000000000000000000000000000000000000000000000815260040162000b7890620011a3565b60405180910390fd5b5f62000b8d8462000949565b90505f62000b9b8462000949565b90508173ffffffffffffffffffffffffffffffffffffffff1663f3fef3a382856040518363ffffffff1660e01b815260040162000bda9291906200128e565b5f604051808303815f87803b15801562000bf2575f80fd5b505af115801562000c05573d5f803e3d5ffd5b505050505050505050565b610e84806200198d83390190565b5f604051905090565b5f80fd5b5f80fd5b5f7fffffffff0000000000000000000000000000000000000000000000000000000082169050919050565b62000c658162000c2f565b811462000c70575f80fd5b50565b5f8135905062000c838162000c5a565b92915050565b5f6020828403121562000ca15762000ca062000c27565b5b5f62000cb08482850162000c73565b91505092915050565b5f8115159050919050565b62000ccf8162000cb9565b82525050565b5f60208201905062000cea5f83018462000cc4565b92915050565b5f80fd5b5f80fd5b5f80fd5b5f8083601f84011262000d145762000d1362000cf0565b5b8235905067ffffffffffffffff81111562000d345762000d3362000cf4565b5b60208301915083600182028301111562000d535762000d5262000cf8565b5b9250929050565b5f73ffffffffffffffffffffffffffffffffffffffff82169050919050565b5f62000d858262000d5a565b9050919050565b62000d978162000d79565b811462000da2575f80fd5b50565b5f8135905062000db58162000d8c565b92915050565b5f819050919050565b62000dcf8162000dbb565b811462000dda575f80fd5b50565b5f8135905062000ded8162000dc4565b92915050565b5f805f806060858703121562000e0e5762000e0d62000c27565b5b5f85013567ffffffffffffffff81111562000e2e5762000e2d62000c2b565b5b62000e3c8782880162000cfc565b9450945050602062000e518782880162000da5565b925050604062000e648782880162000ddd565b91505092959194509250565b5f67ffffffffffffffff82169050919050565b62000e8e8162000e70565b82525050565b5f60208201905062000ea95f83018462000e83565b92915050565b5f80fd5b5f60a0828403121562000ecb5762000eca62000eaf565b5b81905092915050565b5f6020828403121562000eec5762000eeb62000c27565b5b5f82013567ffffffffffffffff81111562000f0c5762000f0b62000c2b565b5b62000f1a8482850162000eb3565b91505092915050565b62000f2e8162000d79565b82525050565b5f60208201905062000f495f83018462000f23565b92915050565b5f80fd5b5f601f19601f8301169050919050565b7f4e487b71000000000000000000000000000000000000000000000000000000005f52604160045260245ffd5b62000f9b8262000f53565b810181811067ffffffffffffffff8211171562000fbd5762000fbc62000f63565b5b80604052505050565b5f62000fd162000c1e565b905062000fdf828262000f90565b919050565b5f67ffffffffffffffff82111562001001576200100062000f63565b5b6200100c8262000f53565b9050602081019050919050565b828183375f83830152505050565b5f6200103d620010378462000fe4565b62000fc6565b9050828152602081018484840111156200105c576200105b62000f4f565b5b6200106984828562001019565b509392505050565b5f82601f83011262001088576200108762000cf0565b5b81356200109a84826020860162001027565b91505092915050565b5f60208284031215620010bb57620010ba62000c27565b5b5f82013567ffffffffffffffff811115620010db57620010da62000c2b565b5b620010e98482850162001071565b91505092915050565b5f80602083850312156200110b576200110a62000c27565b5b5f83013567ffffffffffffffff8111156200112b576200112a62000c2b565b5b620011398582860162000cfc565b92509250509250929050565b5f82825260208201905092915050565b7f556e617574686f72697a65642073656e646572000000000000000000000000005f82015250565b5f6200118b60138362001145565b9150620011988262001155565b602082019050919050565b5f6020820190508181035f830152620011bc816200117d565b9050919050565b5f81905092915050565b5f620011da8385620011c3565b9350620011e983858462001019565b82840190509392505050565b5f62001203828486620011cd565b91508190509392505050565b7f57616c6c6574206e6f7420666f756e64000000000000000000000000000000005f82015250565b5f6200124560108362001145565b915062001252826200120f565b602082019050919050565b5f6020820190508181035f830152620012768162001237565b9050919050565b620012888162000dbb565b82525050565b5f604082019050620012a35f83018562000f23565b620012b260208301846200127d565b9392505050565b5f80fd5b5f80fd5b5f819050919050565b620012d581620012c1565b8114620012e0575f80fd5b50565b5f81359050620012f381620012ca565b92915050565b620013048162000e70565b81146200130f575f80fd5b50565b5f813590506200132281620012f9565b92915050565b5f67ffffffffffffffff82111562001345576200134462000f63565b5b620013508262000f53565b9050602081019050919050565b5f620013736200136d8462001328565b62000fc6565b90508281526020810184848401111562001392576200139162000f4f565b5b6200139f84828562001019565b509392505050565b5f82601f830112620013be57620013bd62000cf0565b5b8135620013d08482602086016200135d565b91505092915050565b5f67ffffffffffffffff821115620013f657620013f562000f63565b5b602082029050602081019050919050565b5f604082840312156200141f576200141e620012b9565b5b6200142b604062000fc6565b90505f6200143c8482850162000da5565b5f830152506020620014518482850162000ddd565b60208301525092915050565b5f620014736200146d84620013d9565b62000fc6565b9050808382526020820190506040840283018581111562001499576200149862000cf8565b5b835b81811015620014c65780620014b1888262001407565b8452602084019350506040810190506200149b565b5050509392505050565b5f82601f830112620014e757620014e662000cf0565b5b8135620014f98482602086016200145d565b91505092915050565b5f60a082840312156200151a5762001519620012b9565b5b6200152660a062000fc6565b90505f6200153784828501620012e3565b5f8301525060206200154c8482850162001312565b602083015250604082013567ffffffffffffffff811115620015735762001572620012bd565b5b6200158184828501620013a7565b604083015250606082013567ffffffffffffffff811115620015a857620015a7620012bd565b5b620015b684828501620013a7565b606083015250608082013567ffffffffffffffff811115620015dd57620015dc620012bd565b5b620015eb84828501620014d0565b60808301525092915050565b5f62001604368362001502565b9050919050565b5f81519050919050565b5f81905092915050565b5f5b838110156200163e57808201518184015260208101905062001621565b5f8484015250505050565b5f62001655826200160b565b62001661818562001615565b9350620016738185602086016200161f565b80840191505092915050565b5f6200168c828462001649565b915081905092915050565b7f4465706f736974206661696c65640000000000000000000000000000000000005f82015250565b5f620016cd600e8362001145565b9150620016da8262001697565b602082019050919050565b5f6020820190508181035f830152620016fe81620016bf565b9050919050565b5f6200171b620017158462000fe4565b62000fc6565b9050828152602081018484840111156200173a576200173962000f4f565b5b620017478482856200161f565b509392505050565b5f82601f83011262001766576200176562000cf0565b5b81516200177884826020860162001705565b91505092915050565b5f81519050620017918162000dc4565b92915050565b5f60608284031215620017af57620017ae620012b9565b5b620017bb606062000fc6565b90505f82015167ffffffffffffffff811115620017dd57620017dc620012bd565b5b620017eb848285016200174f565b5f83015250602082015167ffffffffffffffff811115620018115762001810620012bd565b5b6200181f848285016200174f565b6020830152506040620018358482850162001781565b60408301525092915050565b5f6020828403121562001859576200185862000c27565b5b5f82015167ffffffffffffffff81111562001879576200187862000c2b565b5b620018878482850162001797565b91505092915050565b5f81519050919050565b5f620018a68262001890565b620018b28185620011c3565b9350620018c48185602086016200161f565b80840191505092915050565b5f620018dd82846200189a565b915081905092915050565b5f620018f48262001890565b62001900818562001145565b9350620019128185602086016200161f565b6200191d8162000f53565b840191505092915050565b5f6040820190506200193d5f83018562000f23565b8181036020830152620019518184620018e8565b90509392505050565b5f6040820190508181035f830152620019748185620018e8565b905062001985602083018462000f23565b939250505056fe608060405234801562000010575f80fd5b5060405162000e8438038062000e84833981810160405281019062000036919062000275565b815f806101000a81548173ffffffffffffffffffffffffffffffffffffffff021916908373ffffffffffffffffffffffffffffffffffffffff160217905550806001908162000086919062000510565b505050620005f4565b5f604051905090565b5f80fd5b5f80fd5b5f73ffffffffffffffffffffffffffffffffffffffff82169050919050565b5f620000cb82620000a0565b9050919050565b620000dd81620000bf565b8114620000e8575f80fd5b50565b5f81519050620000fb81620000d2565b92915050565b5f80fd5b5f80fd5b5f601f19601f8301169050919050565b7f4e487b71000000000000000000000000000000000000000000000000000000005f52604160045260245ffd5b620001518262000109565b810181811067ffffffffffffffff8211171562000173576200017262000119565b5b80604052505050565b5f620001876200008f565b905062000195828262000146565b919050565b5f67ffffffffffffffff821115620001b757620001b662000119565b5b620001c28262000109565b9050602081019050919050565b5f5b83811015620001ee578082015181840152602081019050620001d1565b5f8484015250505050565b5f6200020f62000209846200019a565b6200017c565b9050828152602081018484840111156200022e576200022d62000105565b5b6200023b848285620001cf565b509392505050565b5f82601f8301126200025a576200025962000101565b5b81516200026c848260208601620001f9565b91505092915050565b5f80604083850312156200028e576200028d62000098565b5b5f6200029d85828601620000eb565b925050602083015167ffffffffffffffff811115620002c157620002c06200009c565b5b620002cf8582860162000243565b9150509250929050565b5f81519050919050565b7f4e487b71000000000000000000000000000000000000000000000000000000005f52602260045260245ffd5b5f60028204905060018216806200032857607f821691505b6020821081036200033e576200033d620002e3565b5b50919050565b5f819050815f5260205f209050919050565b5f6020601f8301049050919050565b5f82821b905092915050565b5f60088302620003a27fffffffffffffffffffffffffffffffffffffffffffffffffffffffffffffffff8262000365565b620003ae868362000365565b95508019841693508086168417925050509392505050565b5f819050919050565b5f819050919050565b5f620003f8620003f2620003ec84620003c6565b620003cf565b620003c6565b9050919050565b5f819050919050565b6200041383620003d8565b6200042b6200042282620003ff565b84845462000371565b825550505050565b5f90565b6200044162000433565b6200044e81848462000408565b505050565b5b818110156200047557620004695f8262000437565b60018101905062000454565b5050565b601f821115620004c4576200048e8162000344565b620004998462000356565b81016020851015620004a9578190505b620004c1620004b88562000356565b83018262000453565b50505b505050565b5f82821c905092915050565b5f620004e65f1984600802620004c9565b1980831691505092915050565b5f620005008383620004d5565b9150826002028217905092915050565b6200051b82620002d9565b67ffffffffffffffff81111562000537576200053662000119565b5b62000543825462000310565b6200055082828562000479565b5f60209050601f83116001811462000586575f841562000571578287015190505b6200057d8582620004f3565b865550620005ec565b601f198416620005968662000344565b5f5b82811015620005bf5784890151825560018201915060208501945060208101905062000598565b86831015620005df5784890151620005db601f891682620004d5565b8355505b6001600288020188555050505b505050505050565b61088280620006025f395ff3fe608060405260043610610058575f3560e01c8063019c08f51461007a578063b69ef8a8146100a4578063c71daccb146100ce578063d0e30db0146100f8578063f3fef3a314610102578063f77c47911461012a57610076565b36610076573460025f82825461006e91906104d2565b925050819055005b5f80fd5b348015610085575f80fd5b5061008e610154565b60405161009b919061058f565b60405180910390f35b3480156100af575f80fd5b506100b86101e0565b6040516100c591906105be565b60405180910390f35b3480156100d9575f80fd5b506100e26101e6565b6040516100ef91906105be565b60405180910390f35b6101006101ef565b005b34801561010d575f80fd5b506101286004803603810190610123919061065f565b6102b9565b005b348015610135575f80fd5b5061013e610479565b60405161014b91906106ac565b60405180910390f35b60018054610161906106f2565b80601f016020809104026020016040519081016040528092919081815260200182805461018d906106f2565b80156101d85780601f106101af576101008083540402835291602001916101d8565b820191905f5260205f20905b8154815290600101906020018083116101bb57829003601f168201915b505050505081565b60025481565b5f600254905090565b5f8054906101000a900473ffffffffffffffffffffffffffffffffffffffff1673ffffffffffffffffffffffffffffffffffffffff163373ffffffffffffffffffffffffffffffffffffffff161461029f575f8054906101000a900473ffffffffffffffffffffffffffffffffffffffff16336040517f295a81c1000000000000000000000000000000000000000000000000000000008152600401610296929190610722565b60405180910390fd5b3460025f8282546102b091906104d2565b92505081905550565b5f8054906101000a900473ffffffffffffffffffffffffffffffffffffffff1673ffffffffffffffffffffffffffffffffffffffff163373ffffffffffffffffffffffffffffffffffffffff1614610369575f8054906101000a900473ffffffffffffffffffffffffffffffffffffffff16336040517f295a81c1000000000000000000000000000000000000000000000000000000008152600401610360929190610722565b60405180910390fd5b6002548111156103b457600254816040517f03eb8b540000000000000000000000000000000000000000000000000000000081526004016103ab929190610749565b60405180910390fd5b8060025f8282546103c59190610770565b925050819055505f8273ffffffffffffffffffffffffffffffffffffffff16826040516103f1906107d0565b5f6040518083038185875af1925050503d805f811461042b576040519150601f19603f3d011682016040523d82523d5f602084013e610430565b606091505b5050905080610474576040517f08c379a000000000000000000000000000000000000000000000000000000000815260040161046b9061082e565b60405180910390fd5b505050565b5f8054906101000a900473ffffffffffffffffffffffffffffffffffffffff1681565b5f819050919050565b7f4e487b71000000000000000000000000000000000000000000000000000000005f52601160045260245ffd5b5f6104dc8261049c565b91506104e78361049c565b92508282019050808211156104ff576104fe6104a5565b5b92915050565b5f81519050919050565b5f82825260208201905092915050565b5f5b8381101561053c578082015181840152602081019050610521565b5f8484015250505050565b5f601f19601f8301169050919050565b5f61056182610505565b61056b818561050f565b935061057b81856020860161051f565b61058481610547565b840191505092915050565b5f6020820190508181035f8301526105a78184610557565b905092915050565b6105b88161049c565b82525050565b5f6020820190506105d15f8301846105af565b92915050565b5f80fd5b5f73ffffffffffffffffffffffffffffffffffffffff82169050919050565b5f610604826105db565b9050919050565b610614816105fa565b811461061e575f80fd5b50565b5f8135905061062f8161060b565b92915050565b61063e8161049c565b8114610648575f80fd5b50565b5f8135905061065981610635565b92915050565b5f8060408385031215610675576106746105d7565b5b5f61068285828601610621565b92505060206106938582860161064b565b9150509250929050565b6106a6816105fa565b82525050565b5f6020820190506106bf5f83018461069d565b92915050565b7f4e487b71000000000000000000000000000000000000000000000000000000005f52602260045260245ffd5b5f600282049050600182168061070957607f821691505b60208210810361071c5761071b6106c5565b5b50919050565b5f6040820190506107355f83018561069d565b610742602083018461069d565b9392505050565b5f60408201905061075c5f8301856105af565b61076960208301846105af565b9392505050565b5f61077a8261049c565b91506107858361049c565b925082820390508181111561079d5761079c6104a5565b5b92915050565b5f81905092915050565b50565b5f6107bb5f836107a3565b91506107c6826107ad565b5f82019050919050565b5f6107da826107b0565b9150819050919050565b7f5472616e73666572206661696c656400000000000000000000000000000000005f82015250565b5f610818600f8361050f565b9150610823826107e4565b602082019050919050565b5f6020820190508181035f8301526108458161080c565b905091905056fea264697066735822122013ee2a00fbfc57eb1cc2831048b7560219096a996d969b8d13333652b99a79c964736f6c63430008180033a2646970667358221220b2c04f7e6a11696c382b83eab93799b9d712ac193bba4e489e5f9091d1e31def64736f6c63430008180033",
					"opcodes": "PUSH1 0xA0 PUSH1 0x40 MSTORE CALLVALUE DUP1 ISZERO PUSH3 0x10 JUMPI PUSH0 DUP1 REVERT JUMPDEST POP PUSH1 0x40 MLOAD PUSH3 0x2D01 CODESIZE SUB DUP1 PUSH3 0x2D01 DUP4 CODECOPY DUP2 DUP2 ADD PUSH1 0x40 MSTORE DUP2 ADD SWAP1 PUSH3 0x36 SWAP2 SWAP1 PUSH3 0x31B JUMP JUMPDEST DUP4 PUSH0 PUSH20 0xFFFFFFFFFFFFFFFFFFFFFFFFFFFFFFFFFFFFFFFF AND DUP2 PUSH20 0xFFFFFFFFFFFFFFFFFFFFFFFFFFFFFFFFFFFFFFFF AND SUB PUSH3 0xAA JUMPI PUSH0 PUSH1 0x40 MLOAD PUSH32 0xD7F7333400000000000000000000000000000000000000000000000000000000 DUP2 MSTORE PUSH1 0x4 ADD PUSH3 0xA1 SWAP2 SWAP1 PUSH3 0x39B JUMP JUMPDEST PUSH1 0x40 MLOAD DUP1 SWAP2 SUB SWAP1 REVERT JUMPDEST DUP1 PUSH20 0xFFFFFFFFFFFFFFFFFFFFFFFFFFFFFFFFFFFFFFFF AND PUSH1 0x80 DUP2 PUSH20 0xFFFFFFFFFFFFFFFFFFFFFFFFFFFFFFFFFFFFFFFF AND DUP2 MSTORE POP POP POP PUSH0 PUSH20 0xFFFFFFFFFFFFFFFFFFFFFFFFFFFFFFFFFFFFFFFF AND DUP4 PUSH20 0xFFFFFFFFFFFFFFFFFFFFFFFFFFFFFFFFFFFFFFFF AND SUB PUSH3 0x150 JUMPI PUSH1 0x40 MLOAD PUSH32 0x8C379A000000000000000000000000000000000000000000000000000000000 DUP2 MSTORE PUSH1 0x4 ADD PUSH3 0x147 SWAP1 PUSH3 0x414 JUMP JUMPDEST PUSH1 0x40 MLOAD DUP1 SWAP2 SUB SWAP1 REVERT JUMPDEST PUSH0 PUSH20 0xFFFFFFFFFFFFFFFFFFFFFFFFFFFFFFFFFFFFFFFF AND DUP3 PUSH20 0xFFFFFFFFFFFFFFFFFFFFFFFFFFFFFFFFFFFFFFFF AND SUB PUSH3 0x1C1 JUMPI PUSH1 0x40 MLOAD PUSH32 0x8C379A000000000000000000000000000000000000000000000000000000000 DUP2 MSTORE PUSH1 0x4 ADD PUSH3 0x1B8 SWAP1 PUSH3 0x482 JUMP JUMPDEST PUSH1 0x40 MLOAD DUP1 SWAP2 SUB SWAP1 REVERT JUMPDEST DUP3 PUSH1 0x1 PUSH0 PUSH2 0x100 EXP DUP2 SLOAD DUP2 PUSH20 0xFFFFFFFFFFFFFFFFFFFFFFFFFFFFFFFFFFFFFFFF MUL NOT AND SWAP1 DUP4 PUSH20 0xFFFFFFFFFFFFFFFFFFFFFFFFFFFFFFFFFFFFFFFF AND MUL OR SWAP1 SSTORE POP DUP2 PUSH1 0x2 PUSH0 PUSH2 0x100 EXP DUP2 SLOAD DUP2 PUSH20 0xFFFFFFFFFFFFFFFFFFFFFFFFFFFFFFFFFFFFFFFF MUL NOT AND SWAP1 DUP4 PUSH20 0xFFFFFFFFFFFFFFFFFFFFFFFFFFFFFFFFFFFFFFFF AND MUL OR SWAP1 SSTORE POP DUP1 PUSH1 0x2 PUSH1 0x14 PUSH2 0x100 EXP DUP2 SLOAD DUP2 PUSH8 0xFFFFFFFFFFFFFFFF MUL NOT AND SWAP1 DUP4 PUSH8 0xFFFFFFFFFFFFFFFF AND MUL OR SWAP1 SSTORE POP POP POP POP POP PUSH3 0x4A2 JUMP JUMPDEST PUSH0 DUP1 REVERT JUMPDEST PUSH0 PUSH20 0xFFFFFFFFFFFFFFFFFFFFFFFFFFFFFFFFFFFFFFFF DUP3 AND SWAP1 POP SWAP2 SWAP1 POP JUMP JUMPDEST PUSH0 PUSH3 0x2A3 DUP3 PUSH3 0x278 JUMP JUMPDEST SWAP1 POP SWAP2 SWAP1 POP JUMP JUMPDEST PUSH3 0x2B5 DUP2 PUSH3 0x297 JUMP JUMPDEST DUP2 EQ PUSH3 0x2C0 JUMPI PUSH0 DUP1 REVERT JUMPDEST POP JUMP JUMPDEST PUSH0 DUP2 MLOAD SWAP1 POP PUSH3 0x2D3 DUP2 PUSH3 0x2AA JUMP JUMPDEST SWAP3 SWAP2 POP POP JUMP JUMPDEST PUSH0 PUSH8 0xFFFFFFFFFFFFFFFF DUP3 AND SWAP1 POP SWAP2 SWAP1 POP JUMP JUMPDEST PUSH3 0x2F7 DUP2 PUSH3 0x2D9 JUMP JUMPDEST DUP2 EQ PUSH3 0x302 JUMPI PUSH0 DUP1 REVERT JUMPDEST POP JUMP JUMPDEST PUSH0 DUP2 MLOAD SWAP1 POP PUSH3 0x315 DUP2 PUSH3 0x2EC JUMP JUMPDEST SWAP3 SWAP2 POP POP JUMP JUMPDEST PUSH0 DUP1 PUSH0 DUP1 PUSH1 0x80 DUP6 DUP8 SUB SLT ISZERO PUSH3 0x336 JUMPI PUSH3 0x335 PUSH3 0x274 JUMP JUMPDEST JUMPDEST PUSH0 PUSH3 0x345 DUP8 DUP3 DUP9 ADD PUSH3 0x2C3 JUMP JUMPDEST SWAP5 POP POP PUSH1 0x20 PUSH3 0x358 DUP8 DUP3 DUP9 ADD PUSH3 0x2C3 JUMP JUMPDEST SWAP4 POP POP PUSH1 0x40 PUSH3 0x36B DUP8 DUP3 DUP9 ADD PUSH3 0x2C3 JUMP JUMPDEST SWAP3 POP POP PUSH1 0x60 PUSH3 0x37E DUP8 DUP3 DUP9 ADD PUSH3 0x305 JUMP JUMPDEST SWAP2 POP POP SWAP3 SWAP6 SWAP2 SWAP5 POP SWAP3 POP JUMP JUMPDEST PUSH3 0x395 DUP2 PUSH3 0x297 JUMP JUMPDEST DUP3 MSTORE POP POP JUMP JUMPDEST PUSH0 PUSH1 0x20 DUP3 ADD SWAP1 POP PUSH3 0x3B0 PUSH0 DUP4 ADD DUP5 PUSH3 0x38A JUMP JUMPDEST SWAP3 SWAP2 POP POP JUMP JUMPDEST PUSH0 DUP3 DUP3 MSTORE PUSH1 0x20 DUP3 ADD SWAP1 POP SWAP3 SWAP2 POP POP JUMP JUMPDEST PUSH32 0x496E76616C696420656E747279706F696E740000000000000000000000000000 PUSH0 DUP3 ADD MSTORE POP JUMP JUMPDEST PUSH0 PUSH3 0x3FC PUSH1 0x12 DUP4 PUSH3 0x3B6 JUMP JUMPDEST SWAP2 POP PUSH3 0x409 DUP3 PUSH3 0x3C6 JUMP JUMPDEST PUSH1 0x20 DUP3 ADD SWAP1 POP SWAP2 SWAP1 POP JUMP JUMPDEST PUSH0 PUSH1 0x20 DUP3 ADD SWAP1 POP DUP2 DUP2 SUB PUSH0 DUP4 ADD MSTORE PUSH3 0x42D DUP2 PUSH3 0x3EE JUMP JUMPDEST SWAP1 POP SWAP2 SWAP1 POP JUMP JUMPDEST PUSH32 0x496E76616C69642075736572496E746572616374696F6E000000000000000000 PUSH0 DUP3 ADD MSTORE POP JUMP JUMPDEST PUSH0 PUSH3 0x46A PUSH1 0x17 DUP4 PUSH3 0x3B6 JUMP JUMPDEST SWAP2 POP PUSH3 0x477 DUP3 PUSH3 0x434 JUMP JUMPDEST PUSH1 0x20 DUP3 ADD SWAP1 POP SWAP2 SWAP1 POP JUMP JUMPDEST PUSH0 PUSH1 0x20 DUP3 ADD SWAP1 POP DUP2 DUP2 SUB PUSH0 DUP4 ADD MSTORE PUSH3 0x49B DUP2 PUSH3 0x45C JUMP JUMPDEST SWAP1 POP SWAP2 SWAP1 POP JUMP JUMPDEST PUSH1 0x80 MLOAD PUSH2 0x2846 PUSH3 0x4BB PUSH0 CODECOPY PUSH0 PUSH2 0x653 ADD MSTORE PUSH2 0x2846 PUSH0 RETURN INVALID PUSH1 0x80 PUSH1 0x40 MSTORE PUSH1 0x4 CALLDATASIZE LT PUSH3 0x91 JUMPI PUSH0 CALLDATALOAD PUSH1 0xE0 SHR DUP1 PUSH4 0x8C60948B GT PUSH3 0x60 JUMPI DUP1 PUSH4 0x8C60948B EQ PUSH3 0x161 JUMPI DUP1 PUSH4 0xAFF9BD9C EQ PUSH3 0x190 JUMPI DUP1 PUSH4 0xB0F479A1 EQ PUSH3 0x1D3 JUMPI DUP1 PUSH4 0xBAA96000 EQ PUSH3 0x202 JUMPI DUP1 PUSH4 0xDD105862 EQ PUSH3 0x231 JUMPI PUSH3 0x91 JUMP JUMPDEST DUP1 PUSH4 0x1FFC9A7 EQ PUSH3 0x95 JUMPI DUP1 PUSH4 0x3B0E8752 EQ PUSH3 0xD8 JUMPI DUP1 PUSH4 0x45AAFC0B EQ PUSH3 0x105 JUMPI DUP1 PUSH4 0x85572FFB EQ PUSH3 0x134 JUMPI JUMPDEST PUSH0 DUP1 REVERT JUMPDEST CALLVALUE DUP1 ISZERO PUSH3 0xA1 JUMPI PUSH0 DUP1 REVERT JUMPDEST POP PUSH3 0xC0 PUSH1 0x4 DUP1 CALLDATASIZE SUB DUP2 ADD SWAP1 PUSH3 0xBA SWAP2 SWAP1 PUSH3 0xC89 JUMP JUMPDEST PUSH3 0x251 JUMP JUMPDEST PUSH1 0x40 MLOAD PUSH3 0xCF SWAP2 SWAP1 PUSH3 0xCD5 JUMP JUMPDEST PUSH1 0x40 MLOAD DUP1 SWAP2 SUB SWAP1 RETURN JUMPDEST CALLVALUE DUP1 ISZERO PUSH3 0xE4 JUMPI PUSH0 DUP1 REVERT JUMPDEST POP PUSH3 0x103 PUSH1 0x4 DUP1 CALLDATASIZE SUB DUP2 ADD SWAP1 PUSH3 0xFD SWAP2 SWAP1 PUSH3 0xDF3 JUMP JUMPDEST PUSH3 0x323 JUMP JUMPDEST STOP JUMPDEST CALLVALUE DUP1 ISZERO PUSH3 0x111 JUMPI PUSH0 DUP1 REVERT JUMPDEST POP PUSH3 0x11C PUSH3 0x535 JUMP JUMPDEST PUSH1 0x40 MLOAD PUSH3 0x12B SWAP2 SWAP1 PUSH3 0xE94 JUMP JUMPDEST PUSH1 0x40 MLOAD DUP1 SWAP2 SUB SWAP1 RETURN JUMPDEST CALLVALUE DUP1 ISZERO PUSH3 0x140 JUMPI PUSH0 DUP1 REVERT JUMPDEST POP PUSH3 0x15F PUSH1 0x4 DUP1 CALLDATASIZE SUB DUP2 ADD SWAP1 PUSH3 0x159 SWAP2 SWAP1 PUSH3 0xED4 JUMP JUMPDEST PUSH3 0x54F JUMP JUMPDEST STOP JUMPDEST CALLVALUE DUP1 ISZERO PUSH3 0x16D JUMPI PUSH0 DUP1 REVERT JUMPDEST POP PUSH3 0x178 PUSH3 0x5E4 JUMP JUMPDEST PUSH1 0x40 MLOAD PUSH3 0x187 SWAP2 SWAP1 PUSH3 0xF34 JUMP JUMPDEST PUSH1 0x40 MLOAD DUP1 SWAP2 SUB SWAP1 RETURN JUMPDEST CALLVALUE DUP1 ISZERO PUSH3 0x19C JUMPI PUSH0 DUP1 REVERT JUMPDEST POP PUSH3 0x1BB PUSH1 0x4 DUP1 CALLDATASIZE SUB DUP2 ADD SWAP1 PUSH3 0x1B5 SWAP2 SWAP1 PUSH3 0x10A3 JUMP JUMPDEST PUSH3 0x609 JUMP JUMPDEST PUSH1 0x40 MLOAD PUSH3 0x1CA SWAP2 SWAP1 PUSH3 0xF34 JUMP JUMPDEST PUSH1 0x40 MLOAD DUP1 SWAP2 SUB SWAP1 RETURN JUMPDEST CALLVALUE DUP1 ISZERO PUSH3 0x1DF JUMPI PUSH0 DUP1 REVERT JUMPDEST POP PUSH3 0x1EA PUSH3 0x650 JUMP JUMPDEST PUSH1 0x40 MLOAD PUSH3 0x1F9 SWAP2 SWAP1 PUSH3 0xF34 JUMP JUMPDEST PUSH1 0x40 MLOAD DUP1 SWAP2 SUB SWAP1 RETURN JUMPDEST CALLVALUE DUP1 ISZERO PUSH3 0x20E JUMPI PUSH0 DUP1 REVERT JUMPDEST POP PUSH3 0x219 PUSH3 0x677 JUMP JUMPDEST PUSH1 0x40 MLOAD PUSH3 0x228 SWAP2 SWAP1 PUSH3 0xF34 JUMP JUMPDEST PUSH1 0x40 MLOAD DUP1 SWAP2 SUB SWAP1 RETURN JUMPDEST PUSH3 0x24F PUSH1 0x4 DUP1 CALLDATASIZE SUB DUP2 ADD SWAP1 PUSH3 0x249 SWAP2 SWAP1 PUSH3 0x10F2 JUMP JUMPDEST PUSH3 0x69C JUMP JUMPDEST STOP JUMPDEST PUSH0 PUSH32 0x85572FFB00000000000000000000000000000000000000000000000000000000 PUSH28 0xFFFFFFFFFFFFFFFFFFFFFFFFFFFFFFFFFFFFFFFFFFFFFFFFFFFFFFFF NOT AND DUP3 PUSH28 0xFFFFFFFFFFFFFFFFFFFFFFFFFFFFFFFFFFFFFFFFFFFFFFFFFFFFFFFF NOT AND EQ DUP1 PUSH3 0x31C JUMPI POP PUSH32 0x1FFC9A700000000000000000000000000000000000000000000000000000000 PUSH28 0xFFFFFFFFFFFFFFFFFFFFFFFFFFFFFFFFFFFFFFFFFFFFFFFFFFFFFFFF NOT AND DUP3 PUSH28 0xFFFFFFFFFFFFFFFFFFFFFFFFFFFFFFFFFFFFFFFFFFFFFFFFFFFFFFFF NOT AND EQ JUMPDEST SWAP1 POP SWAP2 SWAP1 POP JUMP JUMPDEST PUSH1 0x1 PUSH0 SWAP1 SLOAD SWAP1 PUSH2 0x100 EXP SWAP1 DIV PUSH20 0xFFFFFFFFFFFFFFFFFFFFFFFFFFFFFFFFFFFFFFFF AND PUSH20 0xFFFFFFFFFFFFFFFFFFFFFFFFFFFFFFFFFFFFFFFF AND CALLER PUSH20 0xFFFFFFFFFFFFFFFFFFFFFFFFFFFFFFFFFFFFFFFF AND EQ DUP1 PUSH3 0x3CB JUMPI POP PUSH1 0x2 PUSH0 SWAP1 SLOAD SWAP1 PUSH2 0x100 EXP SWAP1 DIV PUSH20 0xFFFFFFFFFFFFFFFFFFFFFFFFFFFFFFFFFFFFFFFF AND PUSH20 0xFFFFFFFFFFFFFFFFFFFFFFFFFFFFFFFFFFFFFFFF AND CALLER PUSH20 0xFFFFFFFFFFFFFFFFFFFFFFFFFFFFFFFFFFFFFFFF AND EQ JUMPDEST PUSH3 0x40D JUMPI PUSH1 0x40 MLOAD PUSH32 0x8C379A000000000000000000000000000000000000000000000000000000000 DUP2 MSTORE PUSH1 0x4 ADD PUSH3 0x404 SWAP1 PUSH3 0x11A3 JUMP JUMPDEST PUSH1 0x40 MLOAD DUP1 SWAP2 SUB SWAP1 REVERT JUMPDEST PUSH0 DUP1 DUP6 DUP6 PUSH1 0x40 MLOAD PUSH3 0x421 SWAP3 SWAP2 SWAP1 PUSH3 0x11F5 JUMP JUMPDEST SWAP1 DUP2 MSTORE PUSH1 0x20 ADD PUSH1 0x40 MLOAD DUP1 SWAP2 SUB SWAP1 KECCAK256 PUSH0 SWAP1 SLOAD SWAP1 PUSH2 0x100 EXP SWAP1 DIV PUSH20 0xFFFFFFFFFFFFFFFFFFFFFFFFFFFFFFFFFFFFFFFF AND SWAP1 POP PUSH0 PUSH20 0xFFFFFFFFFFFFFFFFFFFFFFFFFFFFFFFFFFFFFFFF AND DUP2 PUSH20 0xFFFFFFFFFFFFFFFFFFFFFFFFFFFFFFFFFFFFFFFF AND SUB PUSH3 0x4C2 JUMPI PUSH1 0x40 MLOAD PUSH32 0x8C379A000000000000000000000000000000000000000000000000000000000 DUP2 MSTORE PUSH1 0x4 ADD PUSH3 0x4B9 SWAP1 PUSH3 0x125D JUMP JUMPDEST PUSH1 0x40 MLOAD DUP1 SWAP2 SUB SWAP1 REVERT JUMPDEST DUP1 PUSH20 0xFFFFFFFFFFFFFFFFFFFFFFFFFFFFFFFFFFFFFFFF AND PUSH4 0xF3FEF3A3 DUP5 DUP5 PUSH1 0x40 MLOAD DUP4 PUSH4 0xFFFFFFFF AND PUSH1 0xE0 SHL DUP2 MSTORE PUSH1 0x4 ADD PUSH3 0x4FF SWAP3 SWAP2 SWAP1 PUSH3 0x128E JUMP JUMPDEST PUSH0 PUSH1 0x40 MLOAD DUP1 DUP4 SUB DUP2 PUSH0 DUP8 DUP1 EXTCODESIZE ISZERO DUP1 ISZERO PUSH3 0x517 JUMPI PUSH0 DUP1 REVERT JUMPDEST POP GAS CALL ISZERO DUP1 ISZERO PUSH3 0x52A JUMPI RETURNDATASIZE PUSH0 DUP1 RETURNDATACOPY RETURNDATASIZE PUSH0 REVERT JUMPDEST POP POP POP POP POP POP POP POP POP JUMP JUMPDEST PUSH1 0x2 PUSH1 0x14 SWAP1 SLOAD SWAP1 PUSH2 0x100 EXP SWAP1 DIV PUSH8 0xFFFFFFFFFFFFFFFF AND DUP2 JUMP JUMPDEST PUSH3 0x559 PUSH3 0x650 JUMP JUMPDEST PUSH20 0xFFFFFFFFFFFFFFFFFFFFFFFFFFFFFFFFFFFFFFFF AND CALLER PUSH20 0xFFFFFFFFFFFFFFFFFFFFFFFFFFFFFFFFFFFFFFFF AND EQ PUSH3 0x5CB JUMPI CALLER PUSH1 0x40 MLOAD PUSH32 0xD7F7333400000000000000000000000000000000000000000000000000000000 DUP2 MSTORE PUSH1 0x4 ADD PUSH3 0x5C2 SWAP2 SWAP1 PUSH3 0xF34 JUMP JUMPDEST PUSH1 0x40 MLOAD DUP1 SWAP2 SUB SWAP1 REVERT JUMPDEST PUSH3 0x5E1 DUP2 PUSH3 0x5DB SWAP1 PUSH3 0x15F7 JUMP JUMPDEST PUSH3 0x910 JUMP JUMPDEST POP JUMP JUMPDEST PUSH1 0x1 PUSH0 SWAP1 SLOAD SWAP1 PUSH2 0x100 EXP SWAP1 DIV PUSH20 0xFFFFFFFFFFFFFFFFFFFFFFFFFFFFFFFFFFFFFFFF AND DUP2 JUMP JUMPDEST PUSH0 DUP2 DUP1 MLOAD PUSH1 0x20 DUP2 ADD DUP3 ADD DUP1 MLOAD DUP5 DUP3 MSTORE PUSH1 0x20 DUP4 ADD PUSH1 0x20 DUP6 ADD KECCAK256 DUP2 DUP4 MSTORE DUP1 SWAP6 POP POP POP POP POP POP PUSH0 SWAP2 POP SLOAD SWAP1 PUSH2 0x100 EXP SWAP1 DIV PUSH20 0xFFFFFFFFFFFFFFFFFFFFFFFFFFFFFFFFFFFFFFFF AND DUP2 JUMP JUMPDEST PUSH0 PUSH32 0x0 SWAP1 POP SWAP1 JUMP JUMPDEST PUSH1 0x2 PUSH0 SWAP1 SLOAD SWAP1 PUSH2 0x100 EXP SWAP1 DIV PUSH20 0xFFFFFFFFFFFFFFFFFFFFFFFFFFFFFFFFFFFFFFFF AND DUP2 JUMP JUMPDEST PUSH1 0x1 PUSH0 SWAP1 SLOAD SWAP1 PUSH2 0x100 EXP SWAP1 DIV PUSH20 0xFFFFFFFFFFFFFFFFFFFFFFFFFFFFFFFFFFFFFFFF AND PUSH20 0xFFFFFFFFFFFFFFFFFFFFFFFFFFFFFFFFFFFFFFFF AND CALLER PUSH20 0xFFFFFFFFFFFFFFFFFFFFFFFFFFFFFFFFFFFFFFFF AND EQ DUP1 PUSH3 0x744 JUMPI POP PUSH1 0x2 PUSH0 SWAP1 SLOAD SWAP1 PUSH2 0x100 EXP SWAP1 DIV PUSH20 0xFFFFFFFFFFFFFFFFFFFFFFFFFFFFFFFFFFFFFFFF AND PUSH20 0xFFFFFFFFFFFFFFFFFFFFFFFFFFFFFFFFFFFFFFFF AND CALLER PUSH20 0xFFFFFFFFFFFFFFFFFFFFFFFFFFFFFFFFFFFFFFFF AND EQ JUMPDEST PUSH3 0x786 JUMPI PUSH1 0x40 MLOAD PUSH32 0x8C379A000000000000000000000000000000000000000000000000000000000 DUP2 MSTORE PUSH1 0x4 ADD PUSH3 0x77D SWAP1 PUSH3 0x11A3 JUMP JUMPDEST PUSH1 0x40 MLOAD DUP1 SWAP2 SUB SWAP1 REVERT JUMPDEST PUSH0 PUSH3 0x7D5 DUP4 DUP4 DUP1 DUP1 PUSH1 0x1F ADD PUSH1 0x20 DUP1 SWAP2 DIV MUL PUSH1 0x20 ADD PUSH1 0x40 MLOAD SWAP1 DUP2 ADD PUSH1 0x40 MSTORE DUP1 SWAP4 SWAP3 SWAP2 SWAP1 DUP2 DUP2 MSTORE PUSH1 0x20 ADD DUP4 DUP4 DUP1 DUP3 DUP5 CALLDATACOPY PUSH0 DUP2 DUP5 ADD MSTORE PUSH1 0x1F NOT PUSH1 0x1F DUP3 ADD AND SWAP1 POP DUP1 DUP4 ADD SWAP3 POP POP POP POP POP POP POP PUSH3 0x949 JUMP JUMPDEST SWAP1 POP PUSH0 DUP2 PUSH20 0xFFFFFFFFFFFFFFFFFFFFFFFFFFFFFFFFFFFFFFFF AND CALLVALUE PUSH1 0x40 MLOAD PUSH1 0x24 ADD PUSH1 0x40 MLOAD PUSH1 0x20 DUP2 DUP4 SUB SUB DUP2 MSTORE SWAP1 PUSH1 0x40 MSTORE PUSH32 0xD0E30DB000000000000000000000000000000000000000000000000000000000 PUSH28 0xFFFFFFFFFFFFFFFFFFFFFFFFFFFFFFFFFFFFFFFFFFFFFFFFFFFFFFFF NOT AND PUSH1 0x20 DUP3 ADD DUP1 MLOAD PUSH28 0xFFFFFFFFFFFFFFFFFFFFFFFFFFFFFFFFFFFFFFFFFFFFFFFFFFFFFFFF DUP4 DUP2 DUP4 AND OR DUP4 MSTORE POP POP POP POP PUSH1 0x40 MLOAD PUSH3 0x882 SWAP2 SWAP1 PUSH3 0x167F JUMP JUMPDEST PUSH0 PUSH1 0x40 MLOAD DUP1 DUP4 SUB DUP2 DUP6 DUP8 GAS CALL SWAP3 POP POP POP RETURNDATASIZE DUP1 PUSH0 DUP2 EQ PUSH3 0x8BE JUMPI PUSH1 0x40 MLOAD SWAP2 POP PUSH1 0x1F NOT PUSH1 0x3F RETURNDATASIZE ADD AND DUP3 ADD PUSH1 0x40 MSTORE RETURNDATASIZE DUP3 MSTORE RETURNDATASIZE PUSH0 PUSH1 0x20 DUP5 ADD RETURNDATACOPY PUSH3 0x8C3 JUMP JUMPDEST PUSH1 0x60 SWAP2 POP JUMPDEST POP POP SWAP1 POP DUP1 PUSH3 0x90A JUMPI PUSH1 0x40 MLOAD PUSH32 0x8C379A000000000000000000000000000000000000000000000000000000000 DUP2 MSTORE PUSH1 0x4 ADD PUSH3 0x901 SWAP1 PUSH3 0x16E5 JUMP JUMPDEST PUSH1 0x40 MLOAD DUP1 SWAP2 SUB SWAP1 REVERT JUMPDEST POP POP POP POP JUMP JUMPDEST PUSH0 DUP2 PUSH1 0x60 ADD MLOAD DUP1 PUSH1 0x20 ADD SWAP1 MLOAD DUP2 ADD SWAP1 PUSH3 0x92B SWAP2 SWAP1 PUSH3 0x1841 JUMP JUMPDEST SWAP1 POP PUSH3 0x945 DUP2 PUSH0 ADD MLOAD DUP3 PUSH1 0x20 ADD MLOAD DUP4 PUSH1 0x40 ADD MLOAD PUSH3 0xA97 JUMP JUMPDEST POP POP JUMP JUMPDEST PUSH0 DUP1 DUP3 PUSH1 0x40 MLOAD PUSH3 0x95B SWAP2 SWAP1 PUSH3 0x18D0 JUMP JUMPDEST SWAP1 DUP2 MSTORE PUSH1 0x20 ADD PUSH1 0x40 MLOAD DUP1 SWAP2 SUB SWAP1 KECCAK256 PUSH0 SWAP1 SLOAD SWAP1 PUSH2 0x100 EXP SWAP1 DIV PUSH20 0xFFFFFFFFFFFFFFFFFFFFFFFFFFFFFFFFFFFFFFFF AND SWAP1 POP PUSH0 PUSH20 0xFFFFFFFFFFFFFFFFFFFFFFFFFFFFFFFFFFFFFFFF AND DUP2 PUSH20 0xFFFFFFFFFFFFFFFFFFFFFFFFFFFFFFFFFFFFFFFF AND SUB PUSH3 0xA92 JUMPI ADDRESS DUP3 PUSH1 0x40 MLOAD PUSH3 0x9CF SWAP1 PUSH3 0xC10 JUMP JUMPDEST PUSH3 0x9DC SWAP3 SWAP2 SWAP1 PUSH3 0x1928 JUMP JUMPDEST PUSH1 0x40 MLOAD DUP1 SWAP2 SUB SWAP1 PUSH0 CREATE DUP1 ISZERO DUP1 ISZERO PUSH3 0x9F6 JUMPI RETURNDATASIZE PUSH0 DUP1 RETURNDATACOPY RETURNDATASIZE PUSH0 REVERT JUMPDEST POP SWAP1 POP DUP1 PUSH0 DUP4 PUSH1 0x40 MLOAD PUSH3 0xA0B SWAP2 SWAP1 PUSH3 0x18D0 JUMP JUMPDEST SWAP1 DUP2 MSTORE PUSH1 0x20 ADD PUSH1 0x40 MLOAD DUP1 SWAP2 SUB SWAP1 KECCAK256 PUSH0 PUSH2 0x100 EXP DUP2 SLOAD DUP2 PUSH20 0xFFFFFFFFFFFFFFFFFFFFFFFFFFFFFFFFFFFFFFFF MUL NOT AND SWAP1 DUP4 PUSH20 0xFFFFFFFFFFFFFFFFFFFFFFFFFFFFFFFFFFFFFFFF AND MUL OR SWAP1 SSTORE POP PUSH32 0x582BA04B4371B240E4864E0BEA1CA69F930E4B5E4B2FA7E5E5582B1CA39E00EF DUP3 DUP3 PUSH1 0x40 MLOAD PUSH3 0xA89 SWAP3 SWAP2 SWAP1 PUSH3 0x195A JUMP JUMPDEST PUSH1 0x40 MLOAD DUP1 SWAP2 SUB SWAP1 LOG1 JUMPDEST SWAP2 SWAP1 POP JUMP JUMPDEST PUSH1 0x1 PUSH0 SWAP1 SLOAD SWAP1 PUSH2 0x100 EXP SWAP1 DIV PUSH20 0xFFFFFFFFFFFFFFFFFFFFFFFFFFFFFFFFFFFFFFFF AND PUSH20 0xFFFFFFFFFFFFFFFFFFFFFFFFFFFFFFFFFFFFFFFF AND CALLER PUSH20 0xFFFFFFFFFFFFFFFFFFFFFFFFFFFFFFFFFFFFFFFF AND EQ DUP1 PUSH3 0xB3F JUMPI POP PUSH1 0x2 PUSH0 SWAP1 SLOAD SWAP1 PUSH2 0x100 EXP SWAP1 DIV PUSH20 0xFFFFFFFFFFFFFFFFFFFFFFFFFFFFFFFFFFFFFFFF AND PUSH20 0xFFFFFFFFFFFFFFFFFFFFFFFFFFFFFFFFFFFFFFFF AND CALLER PUSH20 0xFFFFFFFFFFFFFFFFFFFFFFFFFFFFFFFFFFFFFFFF AND EQ JUMPDEST PUSH3 0xB81 JUMPI PUSH1 0x40 MLOAD PUSH32 0x8C379A000000000000000000000000000000000000000000000000000000000 DUP2 MSTORE PUSH1 0x4 ADD PUSH3 0xB78 SWAP1 PUSH3 0x11A3 JUMP JUMPDEST PUSH1 0x40 MLOAD DUP1 SWAP2 SUB SWAP1 REVERT JUMPDEST PUSH0 PUSH3 0xB8D DUP5 PUSH3 0x949 JUMP JUMPDEST SWAP1 POP PUSH0 PUSH3 0xB9B DUP5 PUSH3 0x949 JUMP JUMPDEST SWAP1 POP DUP2 PUSH20 0xFFFFFFFFFFFFFFFFFFFFFFFFFFFFFFFFFFFFFFFF AND PUSH4 0xF3FEF3A3 DUP3 DUP6 PUSH1 0x40 MLOAD DUP4 PUSH4 0xFFFFFFFF AND PUSH1 0xE0 SHL DUP2 MSTORE PUSH1 0x4 ADD PUSH3 0xBDA SWAP3 SWAP2 SWAP1 PUSH3 0x128E JUMP JUMPDEST PUSH0 PUSH1 0x40 MLOAD DUP1 DUP4 SUB DUP2 PUSH0 DUP8 DUP1 EXTCODESIZE ISZERO DUP1 ISZERO PUSH3 0xBF2 JUMPI PUSH0 DUP1 REVERT JUMPDEST POP GAS CALL ISZERO DUP1 ISZERO PUSH3 0xC05 JUMPI RETURNDATASIZE PUSH0 DUP1 RETURNDATACOPY RETURNDATASIZE PUSH0 REVERT JUMPDEST POP POP POP POP POP POP POP POP POP JUMP JUMPDEST PUSH2 0xE84 DUP1 PUSH3 0x198D DUP4 CODECOPY ADD SWAP1 JUMP JUMPDEST PUSH0 PUSH1 0x40 MLOAD SWAP1 POP SWAP1 JUMP JUMPDEST PUSH0 DUP1 REVERT JUMPDEST PUSH0 DUP1 REVERT JUMPDEST PUSH0 PUSH32 0xFFFFFFFF00000000000000000000000000000000000000000000000000000000 DUP3 AND SWAP1 POP SWAP2 SWAP1 POP JUMP JUMPDEST PUSH3 0xC65 DUP2 PUSH3 0xC2F JUMP JUMPDEST DUP2 EQ PUSH3 0xC70 JUMPI PUSH0 DUP1 REVERT JUMPDEST POP JUMP JUMPDEST PUSH0 DUP2 CALLDATALOAD SWAP1 POP PUSH3 0xC83 DUP2 PUSH3 0xC5A JUMP JUMPDEST SWAP3 SWAP2 POP POP JUMP JUMPDEST PUSH0 PUSH1 0x20 DUP3 DUP5 SUB SLT ISZERO PUSH3 0xCA1 JUMPI PUSH3 0xCA0 PUSH3 0xC27 JUMP JUMPDEST JUMPDEST PUSH0 PUSH3 0xCB0 DUP5 DUP3 DUP6 ADD PUSH3 0xC73 JUMP JUMPDEST SWAP2 POP POP SWAP3 SWAP2 POP POP JUMP JUMPDEST PUSH0 DUP2 ISZERO ISZERO SWAP1 POP SWAP2 SWAP1 POP JUMP JUMPDEST PUSH3 0xCCF DUP2 PUSH3 0xCB9 JUMP JUMPDEST DUP3 MSTORE POP POP JUMP JUMPDEST PUSH0 PUSH1 0x20 DUP3 ADD SWAP1 POP PUSH3 0xCEA PUSH0 DUP4 ADD DUP5 PUSH3 0xCC4 JUMP JUMPDEST SWAP3 SWAP2 POP POP JUMP JUMPDEST PUSH0 DUP1 REVERT JUMPDEST PUSH0 DUP1 REVERT JUMPDEST PUSH0 DUP1 REVERT JUMPDEST PUSH0 DUP1 DUP4 PUSH1 0x1F DUP5 ADD SLT PUSH3 0xD14 JUMPI PUSH3 0xD13 PUSH3 0xCF0 JUMP JUMPDEST JUMPDEST DUP3 CALLDATALOAD SWAP1 POP PUSH8 0xFFFFFFFFFFFFFFFF DUP2 GT ISZERO PUSH3 0xD34 JUMPI PUSH3 0xD33 PUSH3 0xCF4 JUMP JUMPDEST JUMPDEST PUSH1 0x20 DUP4 ADD SWAP2 POP DUP4 PUSH1 0x1 DUP3 MUL DUP4 ADD GT ISZERO PUSH3 0xD53 JUMPI PUSH3 0xD52 PUSH3 0xCF8 JUMP JUMPDEST JUMPDEST SWAP3 POP SWAP3 SWAP1 POP JUMP JUMPDEST PUSH0 PUSH20 0xFFFFFFFFFFFFFFFFFFFFFFFFFFFFFFFFFFFFFFFF DUP3 AND SWAP1 POP SWAP2 SWAP1 POP JUMP JUMPDEST PUSH0 PUSH3 0xD85 DUP3 PUSH3 0xD5A JUMP JUMPDEST SWAP1 POP SWAP2 SWAP1 POP JUMP JUMPDEST PUSH3 0xD97 DUP2 PUSH3 0xD79 JUMP JUMPDEST DUP2 EQ PUSH3 0xDA2 JUMPI PUSH0 DUP1 REVERT JUMPDEST POP JUMP JUMPDEST PUSH0 DUP2 CALLDATALOAD SWAP1 POP PUSH3 0xDB5 DUP2 PUSH3 0xD8C JUMP JUMPDEST SWAP3 SWAP2 POP POP JUMP JUMPDEST PUSH0 DUP2 SWAP1 POP SWAP2 SWAP1 POP JUMP JUMPDEST PUSH3 0xDCF DUP2 PUSH3 0xDBB JUMP JUMPDEST DUP2 EQ PUSH3 0xDDA JUMPI PUSH0 DUP1 REVERT JUMPDEST POP JUMP JUMPDEST PUSH0 DUP2 CALLDATALOAD SWAP1 POP PUSH3 0xDED DUP2 PUSH3 0xDC4 JUMP JUMPDEST SWAP3 SWAP2 POP POP JUMP JUMPDEST PUSH0 DUP1 PUSH0 DUP1 PUSH1 0x60 DUP6 DUP8 SUB SLT ISZERO PUSH3 0xE0E JUMPI PUSH3 0xE0D PUSH3 0xC27 JUMP JUMPDEST JUMPDEST PUSH0 DUP6 ADD CALLDATALOAD PUSH8 0xFFFFFFFFFFFFFFFF DUP2 GT ISZERO PUSH3 0xE2E JUMPI PUSH3 0xE2D PUSH3 0xC2B JUMP JUMPDEST JUMPDEST PUSH3 0xE3C DUP8 DUP3 DUP9 ADD PUSH3 0xCFC JUMP JUMPDEST SWAP5 POP SWAP5 POP POP PUSH1 0x20 PUSH3 0xE51 DUP8 DUP3 DUP9 ADD PUSH3 0xDA5 JUMP JUMPDEST SWAP3 POP POP PUSH1 0x40 PUSH3 0xE64 DUP8 DUP3 DUP9 ADD PUSH3 0xDDD JUMP JUMPDEST SWAP2 POP POP SWAP3 SWAP6 SWAP2 SWAP5 POP SWAP3 POP JUMP JUMPDEST PUSH0 PUSH8 0xFFFFFFFFFFFFFFFF DUP3 AND SWAP1 POP SWAP2 SWAP1 POP JUMP JUMPDEST PUSH3 0xE8E DUP2 PUSH3 0xE70 JUMP JUMPDEST DUP3 MSTORE POP POP JUMP JUMPDEST PUSH0 PUSH1 0x20 DUP3 ADD SWAP1 POP PUSH3 0xEA9 PUSH0 DUP4 ADD DUP5 PUSH3 0xE83 JUMP JUMPDEST SWAP3 SWAP2 POP POP JUMP JUMPDEST PUSH0 DUP1 REVERT JUMPDEST PUSH0 PUSH1 0xA0 DUP3 DUP5 SUB SLT ISZERO PUSH3 0xECB JUMPI PUSH3 0xECA PUSH3 0xEAF JUMP JUMPDEST JUMPDEST DUP2 SWAP1 POP SWAP3 SWAP2 POP POP JUMP JUMPDEST PUSH0 PUSH1 0x20 DUP3 DUP5 SUB SLT ISZERO PUSH3 0xEEC JUMPI PUSH3 0xEEB PUSH3 0xC27 JUMP JUMPDEST JUMPDEST PUSH0 DUP3 ADD CALLDATALOAD PUSH8 0xFFFFFFFFFFFFFFFF DUP2 GT ISZERO PUSH3 0xF0C JUMPI PUSH3 0xF0B PUSH3 0xC2B JUMP JUMPDEST JUMPDEST PUSH3 0xF1A DUP5 DUP3 DUP6 ADD PUSH3 0xEB3 JUMP JUMPDEST SWAP2 POP POP SWAP3 SWAP2 POP POP JUMP JUMPDEST PUSH3 0xF2E DUP2 PUSH3 0xD79 JUMP JUMPDEST DUP3 MSTORE POP POP JUMP JUMPDEST PUSH0 PUSH1 0x20 DUP3 ADD SWAP1 POP PUSH3 0xF49 PUSH0 DUP4 ADD DUP5 PUSH3 0xF23 JUMP JUMPDEST SWAP3 SWAP2 POP POP JUMP JUMPDEST PUSH0 DUP1 REVERT JUMPDEST PUSH0 PUSH1 0x1F NOT PUSH1 0x1F DUP4 ADD AND SWAP1 POP SWAP2 SWAP1 POP JUMP JUMPDEST PUSH32 0x4E487B7100000000000000000000000000000000000000000000000000000000 PUSH0 MSTORE PUSH1 0x41 PUSH1 0x4 MSTORE PUSH1 0x24 PUSH0 REVERT JUMPDEST PUSH3 0xF9B DUP3 PUSH3 0xF53 JUMP JUMPDEST DUP2 ADD DUP2 DUP2 LT PUSH8 0xFFFFFFFFFFFFFFFF DUP3 GT OR ISZERO PUSH3 0xFBD JUMPI PUSH3 0xFBC PUSH3 0xF63 JUMP JUMPDEST JUMPDEST DUP1 PUSH1 0x40 MSTORE POP POP POP JUMP JUMPDEST PUSH0 PUSH3 0xFD1 PUSH3 0xC1E JUMP JUMPDEST SWAP1 POP PUSH3 0xFDF DUP3 DUP3 PUSH3 0xF90 JUMP JUMPDEST SWAP2 SWAP1 POP JUMP JUMPDEST PUSH0 PUSH8 0xFFFFFFFFFFFFFFFF DUP3 GT ISZERO PUSH3 0x1001 JUMPI PUSH3 0x1000 PUSH3 0xF63 JUMP JUMPDEST JUMPDEST PUSH3 0x100C DUP3 PUSH3 0xF53 JUMP JUMPDEST SWAP1 POP PUSH1 0x20 DUP2 ADD SWAP1 POP SWAP2 SWAP1 POP JUMP JUMPDEST DUP3 DUP2 DUP4 CALLDATACOPY PUSH0 DUP4 DUP4 ADD MSTORE POP POP POP JUMP JUMPDEST PUSH0 PUSH3 0x103D PUSH3 0x1037 DUP5 PUSH3 0xFE4 JUMP JUMPDEST PUSH3 0xFC6 JUMP JUMPDEST SWAP1 POP DUP3 DUP2 MSTORE PUSH1 0x20 DUP2 ADD DUP5 DUP5 DUP5 ADD GT ISZERO PUSH3 0x105C JUMPI PUSH3 0x105B PUSH3 0xF4F JUMP JUMPDEST JUMPDEST PUSH3 0x1069 DUP5 DUP3 DUP6 PUSH3 0x1019 JUMP JUMPDEST POP SWAP4 SWAP3 POP POP POP JUMP JUMPDEST PUSH0 DUP3 PUSH1 0x1F DUP4 ADD SLT PUSH3 0x1088 JUMPI PUSH3 0x1087 PUSH3 0xCF0 JUMP JUMPDEST JUMPDEST DUP2 CALLDATALOAD PUSH3 0x109A DUP5 DUP3 PUSH1 0x20 DUP7 ADD PUSH3 0x1027 JUMP JUMPDEST SWAP2 POP POP SWAP3 SWAP2 POP POP JUMP JUMPDEST PUSH0 PUSH1 0x20 DUP3 DUP5 SUB SLT ISZERO PUSH3 0x10BB JUMPI PUSH3 0x10BA PUSH3 0xC27 JUMP JUMPDEST JUMPDEST PUSH0 DUP3 ADD CALLDATALOAD PUSH8 0xFFFFFFFFFFFFFFFF DUP2 GT ISZERO PUSH3 0x10DB JUMPI PUSH3 0x10DA PUSH3 0xC2B JUMP JUMPDEST JUMPDEST PUSH3 0x10E9 DUP5 DUP3 DUP6 ADD PUSH3 0x1071 JUMP JUMPDEST SWAP2 POP POP SWAP3 SWAP2 POP POP JUMP JUMPDEST PUSH0 DUP1 PUSH1 0x20 DUP4 DUP6 SUB SLT ISZERO PUSH3 0x110B JUMPI PUSH3 0x110A PUSH3 0xC27 JUMP JUMPDEST JUMPDEST PUSH0 DUP4 ADD CALLDATALOAD PUSH8 0xFFFFFFFFFFFFFFFF DUP2 GT ISZERO PUSH3 0x112B JUMPI PUSH3 0x112A PUSH3 0xC2B JUMP JUMPDEST JUMPDEST PUSH3 0x1139 DUP6 DUP3 DUP7 ADD PUSH3 0xCFC JUMP JUMPDEST SWAP3 POP SWAP3 POP POP SWAP3 POP SWAP3 SWAP1 POP JUMP JUMPDEST PUSH0 DUP3 DUP3 MSTORE PUSH1 0x20 DUP3 ADD SWAP1 POP SWAP3 SWAP2 POP POP JUMP JUMPDEST PUSH32 0x556E617574686F72697A65642073656E64657200000000000000000000000000 PUSH0 DUP3 ADD MSTORE POP JUMP JUMPDEST PUSH0 PUSH3 0x118B PUSH1 0x13 DUP4 PUSH3 0x1145 JUMP JUMPDEST SWAP2 POP PUSH3 0x1198 DUP3 PUSH3 0x1155 JUMP JUMPDEST PUSH1 0x20 DUP3 ADD SWAP1 POP SWAP2 SWAP1 POP JUMP JUMPDEST PUSH0 PUSH1 0x20 DUP3 ADD SWAP1 POP DUP2 DUP2 SUB PUSH0 DUP4 ADD MSTORE PUSH3 0x11BC DUP2 PUSH3 0x117D JUMP JUMPDEST SWAP1 POP SWAP2 SWAP1 POP JUMP JUMPDEST PUSH0 DUP2 SWAP1 POP SWAP3 SWAP2 POP POP JUMP JUMPDEST PUSH0 PUSH3 0x11DA DUP4 DUP6 PUSH3 0x11C3 JUMP JUMPDEST SWAP4 POP PUSH3 0x11E9 DUP4 DUP6 DUP5 PUSH3 0x1019 JUMP JUMPDEST DUP3 DUP5 ADD SWAP1 POP SWAP4 SWAP3 POP POP POP JUMP JUMPDEST PUSH0 PUSH3 0x1203 DUP3 DUP5 DUP7 PUSH3 0x11CD JUMP JUMPDEST SWAP2 POP DUP2 SWAP1 POP SWAP4 SWAP3 POP POP POP JUMP JUMPDEST PUSH32 0x57616C6C6574206E6F7420666F756E6400000000000000000000000000000000 PUSH0 DUP3 ADD MSTORE POP JUMP JUMPDEST PUSH0 PUSH3 0x1245 PUSH1 0x10 DUP4 PUSH3 0x1145 JUMP JUMPDEST SWAP2 POP PUSH3 0x1252 DUP3 PUSH3 0x120F JUMP JUMPDEST PUSH1 0x20 DUP3 ADD SWAP1 POP SWAP2 SWAP1 POP JUMP JUMPDEST PUSH0 PUSH1 0x20 DUP3 ADD SWAP1 POP DUP2 DUP2 SUB PUSH0 DUP4 ADD MSTORE PUSH3 0x1276 DUP2 PUSH3 0x1237 JUMP JUMPDEST SWAP1 POP SWAP2 SWAP1 POP JUMP JUMPDEST PUSH3 0x1288 DUP2 PUSH3 0xDBB JUMP JUMPDEST DUP3 MSTORE POP POP JUMP JUMPDEST PUSH0 PUSH1 0x40 DUP3 ADD SWAP1 POP PUSH3 0x12A3 PUSH0 DUP4 ADD DUP6 PUSH3 0xF23 JUMP JUMPDEST PUSH3 0x12B2 PUSH1 0x20 DUP4 ADD DUP5 PUSH3 0x127D JUMP JUMPDEST SWAP4 SWAP3 POP POP POP JUMP JUMPDEST PUSH0 DUP1 REVERT JUMPDEST PUSH0 DUP1 REVERT JUMPDEST PUSH0 DUP2 SWAP1 POP SWAP2 SWAP1 POP JUMP JUMPDEST PUSH3 0x12D5 DUP2 PUSH3 0x12C1 JUMP JUMPDEST DUP2 EQ PUSH3 0x12E0 JUMPI PUSH0 DUP1 REVERT JUMPDEST POP JUMP JUMPDEST PUSH0 DUP2 CALLDATALOAD SWAP1 POP PUSH3 0x12F3 DUP2 PUSH3 0x12CA JUMP JUMPDEST SWAP3 SWAP2 POP POP JUMP JUMPDEST PUSH3 0x1304 DUP2 PUSH3 0xE70 JUMP JUMPDEST DUP2 EQ PUSH3 0x130F JUMPI PUSH0 DUP1 REVERT JUMPDEST POP JUMP JUMPDEST PUSH0 DUP2 CALLDATALOAD SWAP1 POP PUSH3 0x1322 DUP2 PUSH3 0x12F9 JUMP JUMPDEST SWAP3 SWAP2 POP POP JUMP JUMPDEST PUSH0 PUSH8 0xFFFFFFFFFFFFFFFF DUP3 GT ISZERO PUSH3 0x1345 JUMPI PUSH3 0x1344 PUSH3 0xF63 JUMP JUMPDEST JUMPDEST PUSH3 0x1350 DUP3 PUSH3 0xF53 JUMP JUMPDEST SWAP1 POP PUSH1 0x20 DUP2 ADD SWAP1 POP SWAP2 SWAP1 POP JUMP JUMPDEST PUSH0 PUSH3 0x1373 PUSH3 0x136D DUP5 PUSH3 0x1328 JUMP JUMPDEST PUSH3 0xFC6 JUMP JUMPDEST SWAP1 POP DUP3 DUP2 MSTORE PUSH1 0x20 DUP2 ADD DUP5 DUP5 DUP5 ADD GT ISZERO PUSH3 0x1392 JUMPI PUSH3 0x1391 PUSH3 0xF4F JUMP JUMPDEST JUMPDEST PUSH3 0x139F DUP5 DUP3 DUP6 PUSH3 0x1019 JUMP JUMPDEST POP SWAP4 SWAP3 POP POP POP JUMP JUMPDEST PUSH0 DUP3 PUSH1 0x1F DUP4 ADD SLT PUSH3 0x13BE JUMPI PUSH3 0x13BD PUSH3 0xCF0 JUMP JUMPDEST JUMPDEST DUP2 CALLDATALOAD PUSH3 0x13D0 DUP5 DUP3 PUSH1 0x20 DUP7 ADD PUSH3 0x135D JUMP JUMPDEST SWAP2 POP POP SWAP3 SWAP2 POP POP JUMP JUMPDEST PUSH0 PUSH8 0xFFFFFFFFFFFFFFFF DUP3 GT ISZERO PUSH3 0x13F6 JUMPI PUSH3 0x13F5 PUSH3 0xF63 JUMP JUMPDEST JUMPDEST PUSH1 0x20 DUP3 MUL SWAP1 POP PUSH1 0x20 DUP2 ADD SWAP1 POP SWAP2 SWAP1 POP JUMP JUMPDEST PUSH0 PUSH1 0x40 DUP3 DUP5 SUB SLT ISZERO PUSH3 0x141F JUMPI PUSH3 0x141E PUSH3 0x12B9 JUMP JUMPDEST JUMPDEST PUSH3 0x142B PUSH1 0x40 PUSH3 0xFC6 JUMP JUMPDEST SWAP1 POP PUSH0 PUSH3 0x143C DUP5 DUP3 DUP6 ADD PUSH3 0xDA5 JUMP JUMPDEST PUSH0 DUP4 ADD MSTORE POP PUSH1 0x20 PUSH3 0x1451 DUP5 DUP3 DUP6 ADD PUSH3 0xDDD JUMP JUMPDEST PUSH1 0x20 DUP4 ADD MSTORE POP SWAP3 SWAP2 POP POP JUMP JUMPDEST PUSH0 PUSH3 0x1473 PUSH3 0x146D DUP5 PUSH3 0x13D9 JUMP JUMPDEST PUSH3 0xFC6 JUMP JUMPDEST SWAP1 POP DUP1 DUP4 DUP3 MSTORE PUSH1 0x20 DUP3 ADD SWAP1 POP PUSH1 0x40 DUP5 MUL DUP4 ADD DUP6 DUP2 GT ISZERO PUSH3 0x1499 JUMPI PUSH3 0x1498 PUSH3 0xCF8 JUMP JUMPDEST JUMPDEST DUP4 JUMPDEST DUP2 DUP2 LT ISZERO PUSH3 0x14C6 JUMPI DUP1 PUSH3 0x14B1 DUP9 DUP3 PUSH3 0x1407 JUMP JUMPDEST DUP5 MSTORE PUSH1 0x20 DUP5 ADD SWAP4 POP POP PUSH1 0x40 DUP2 ADD SWAP1 POP PUSH3 0x149B JUMP JUMPDEST POP POP POP SWAP4 SWAP3 POP POP POP JUMP JUMPDEST PUSH0 DUP3 PUSH1 0x1F DUP4 ADD SLT PUSH3 0x14E7 JUMPI PUSH3 0x14E6 PUSH3 0xCF0 JUMP JUMPDEST JUMPDEST DUP2 CALLDATALOAD PUSH3 0x14F9 DUP5 DUP3 PUSH1 0x20 DUP7 ADD PUSH3 0x145D JUMP JUMPDEST SWAP2 POP POP SWAP3 SWAP2 POP POP JUMP JUMPDEST PUSH0 PUSH1 0xA0 DUP3 DUP5 SUB SLT ISZERO PUSH3 0x151A JUMPI PUSH3 0x1519 PUSH3 0x12B9 JUMP JUMPDEST JUMPDEST PUSH3 0x1526 PUSH1 0xA0 PUSH3 0xFC6 JUMP JUMPDEST SWAP1 POP PUSH0 PUSH3 0x1537 DUP5 DUP3 DUP6 ADD PUSH3 0x12E3 JUMP JUMPDEST PUSH0 DUP4 ADD MSTORE POP PUSH1 0x20 PUSH3 0x154C DUP5 DUP3 DUP6 ADD PUSH3 0x1312 JUMP JUMPDEST PUSH1 0x20 DUP4 ADD MSTORE POP PUSH1 0x40 DUP3 ADD CALLDATALOAD PUSH8 0xFFFFFFFFFFFFFFFF DUP2 GT ISZERO PUSH3 0x1573 JUMPI PUSH3 0x1572 PUSH3 0x12BD JUMP JUMPDEST JUMPDEST PUSH3 0x1581 DUP5 DUP3 DUP6 ADD PUSH3 0x13A7 JUMP JUMPDEST PUSH1 0x40 DUP4 ADD MSTORE POP PUSH1 0x60 DUP3 ADD CALLDATALOAD PUSH8 0xFFFFFFFFFFFFFFFF DUP2 GT ISZERO PUSH3 0x15A8 JUMPI PUSH3 0x15A7 PUSH3 0x12BD JUMP JUMPDEST JUMPDEST PUSH3 0x15B6 DUP5 DUP3 DUP6 ADD PUSH3 0x13A7 JUMP JUMPDEST PUSH1 0x60 DUP4 ADD MSTORE POP PUSH1 0x80 DUP3 ADD CALLDATALOAD PUSH8 0xFFFFFFFFFFFFFFFF DUP2 GT ISZERO PUSH3 0x15DD JUMPI PUSH3 0x15DC PUSH3 0x12BD JUMP JUMPDEST JUMPDEST PUSH3 0x15EB DUP5 DUP3 DUP6 ADD PUSH3 0x14D0 JUMP JUMPDEST PUSH1 0x80 DUP4 ADD MSTORE POP SWAP3 SWAP2 POP POP JUMP JUMPDEST PUSH0 PUSH3 0x1604 CALLDATASIZE DUP4 PUSH3 0x1502 JUMP JUMPDEST SWAP1 POP SWAP2 SWAP1 POP JUMP JUMPDEST PUSH0 DUP2 MLOAD SWAP1 POP SWAP2 SWAP1 POP JUMP JUMPDEST PUSH0 DUP2 SWAP1 POP SWAP3 SWAP2 POP POP JUMP JUMPDEST PUSH0 JUMPDEST DUP4 DUP2 LT ISZERO PUSH3 0x163E JUMPI DUP1 DUP3 ADD MLOAD DUP2 DUP5 ADD MSTORE PUSH1 0x20 DUP2 ADD SWAP1 POP PUSH3 0x1621 JUMP JUMPDEST PUSH0 DUP5 DUP5 ADD MSTORE POP POP POP POP JUMP JUMPDEST PUSH0 PUSH3 0x1655 DUP3 PUSH3 0x160B JUMP JUMPDEST PUSH3 0x1661 DUP2 DUP6 PUSH3 0x1615 JUMP JUMPDEST SWAP4 POP PUSH3 0x1673 DUP2 DUP6 PUSH1 0x20 DUP7 ADD PUSH3 0x161F JUMP JUMPDEST DUP1 DUP5 ADD SWAP2 POP POP SWAP3 SWAP2 POP POP JUMP JUMPDEST PUSH0 PUSH3 0x168C DUP3 DUP5 PUSH3 0x1649 JUMP JUMPDEST SWAP2 POP DUP2 SWAP1 POP SWAP3 SWAP2 POP POP JUMP JUMPDEST PUSH32 0x4465706F736974206661696C6564000000000000000000000000000000000000 PUSH0 DUP3 ADD MSTORE POP JUMP JUMPDEST PUSH0 PUSH3 0x16CD PUSH1 0xE DUP4 PUSH3 0x1145 JUMP JUMPDEST SWAP2 POP PUSH3 0x16DA DUP3 PUSH3 0x1697 JUMP JUMPDEST PUSH1 0x20 DUP3 ADD SWAP1 POP SWAP2 SWAP1 POP JUMP JUMPDEST PUSH0 PUSH1 0x20 DUP3 ADD SWAP1 POP DUP2 DUP2 SUB PUSH0 DUP4 ADD MSTORE PUSH3 0x16FE DUP2 PUSH3 0x16BF JUMP JUMPDEST SWAP1 POP SWAP2 SWAP1 POP JUMP JUMPDEST PUSH0 PUSH3 0x171B PUSH3 0x1715 DUP5 PUSH3 0xFE4 JUMP JUMPDEST PUSH3 0xFC6 JUMP JUMPDEST SWAP1 POP DUP3 DUP2 MSTORE PUSH1 0x20 DUP2 ADD DUP5 DUP5 DUP5 ADD GT ISZERO PUSH3 0x173A JUMPI PUSH3 0x1739 PUSH3 0xF4F JUMP JUMPDEST JUMPDEST PUSH3 0x1747 DUP5 DUP3 DUP6 PUSH3 0x161F JUMP JUMPDEST POP SWAP4 SWAP3 POP POP POP JUMP JUMPDEST PUSH0 DUP3 PUSH1 0x1F DUP4 ADD SLT PUSH3 0x1766 JUMPI PUSH3 0x1765 PUSH3 0xCF0 JUMP JUMPDEST JUMPDEST DUP2 MLOAD PUSH3 0x1778 DUP5 DUP3 PUSH1 0x20 DUP7 ADD PUSH3 0x1705 JUMP JUMPDEST SWAP2 POP POP SWAP3 SWAP2 POP POP JUMP JUMPDEST PUSH0 DUP2 MLOAD SWAP1 POP PUSH3 0x1791 DUP2 PUSH3 0xDC4 JUMP JUMPDEST SWAP3 SWAP2 POP POP JUMP JUMPDEST PUSH0 PUSH1 0x60 DUP3 DUP5 SUB SLT ISZERO PUSH3 0x17AF JUMPI PUSH3 0x17AE PUSH3 0x12B9 JUMP JUMPDEST JUMPDEST PUSH3 0x17BB PUSH1 0x60 PUSH3 0xFC6 JUMP JUMPDEST SWAP1 POP PUSH0 DUP3 ADD MLOAD PUSH8 0xFFFFFFFFFFFFFFFF DUP2 GT ISZERO PUSH3 0x17DD JUMPI PUSH3 0x17DC PUSH3 0x12BD JUMP JUMPDEST JUMPDEST PUSH3 0x17EB DUP5 DUP3 DUP6 ADD PUSH3 0x174F JUMP JUMPDEST PUSH0 DUP4 ADD MSTORE POP PUSH1 0x20 DUP3 ADD MLOAD PUSH8 0xFFFFFFFFFFFFFFFF DUP2 GT ISZERO PUSH3 0x1811 JUMPI PUSH3 0x1810 PUSH3 0x12BD JUMP JUMPDEST JUMPDEST PUSH3 0x181F DUP5 DUP3 DUP6 ADD PUSH3 0x174F JUMP JUMPDEST PUSH1 0x20 DUP4 ADD MSTORE POP PUSH1 0x40 PUSH3 0x1835 DUP5 DUP3 DUP6 ADD PUSH3 0x1781 JUMP JUMPDEST PUSH1 0x40 DUP4 ADD MSTORE POP SWAP3 SWAP2 POP POP JUMP JUMPDEST PUSH0 PUSH1 0x20 DUP3 DUP5 SUB SLT ISZERO PUSH3 0x1859 JUMPI PUSH3 0x1858 PUSH3 0xC27 JUMP JUMPDEST JUMPDEST PUSH0 DUP3 ADD MLOAD PUSH8 0xFFFFFFFFFFFFFFFF DUP2 GT ISZERO PUSH3 0x1879 JUMPI PUSH3 0x1878 PUSH3 0xC2B JUMP JUMPDEST JUMPDEST PUSH3 0x1887 DUP5 DUP3 DUP6 ADD PUSH3 0x1797 JUMP JUMPDEST SWAP2 POP POP SWAP3 SWAP2 POP POP JUMP JUMPDEST PUSH0 DUP2 MLOAD SWAP1 POP SWAP2 SWAP1 POP JUMP JUMPDEST PUSH0 PUSH3 0x18A6 DUP3 PUSH3 0x1890 JUMP JUMPDEST PUSH3 0x18B2 DUP2 DUP6 PUSH3 0x11C3 JUMP JUMPDEST SWAP4 POP PUSH3 0x18C4 DUP2 DUP6 PUSH1 0x20 DUP7 ADD PUSH3 0x161F JUMP JUMPDEST DUP1 DUP5 ADD SWAP2 POP POP SWAP3 SWAP2 POP POP JUMP JUMPDEST PUSH0 PUSH3 0x18DD DUP3 DUP5 PUSH3 0x189A JUMP JUMPDEST SWAP2 POP DUP2 SWAP1 POP SWAP3 SWAP2 POP POP JUMP JUMPDEST PUSH0 PUSH3 0x18F4 DUP3 PUSH3 0x1890 JUMP JUMPDEST PUSH3 0x1900 DUP2 DUP6 PUSH3 0x1145 JUMP JUMPDEST SWAP4 POP PUSH3 0x1912 DUP2 DUP6 PUSH1 0x20 DUP7 ADD PUSH3 0x161F JUMP JUMPDEST PUSH3 0x191D DUP2 PUSH3 0xF53 JUMP JUMPDEST DUP5 ADD SWAP2 POP POP SWAP3 SWAP2 POP POP JUMP JUMPDEST PUSH0 PUSH1 0x40 DUP3 ADD SWAP1 POP PUSH3 0x193D PUSH0 DUP4 ADD DUP6 PUSH3 0xF23 JUMP JUMPDEST DUP2 DUP2 SUB PUSH1 0x20 DUP4 ADD MSTORE PUSH3 0x1951 DUP2 DUP5 PUSH3 0x18E8 JUMP JUMPDEST SWAP1 POP SWAP4 SWAP3 POP POP POP JUMP JUMPDEST PUSH0 PUSH1 0x40 DUP3 ADD SWAP1 POP DUP2 DUP2 SUB PUSH0 DUP4 ADD MSTORE PUSH3 0x1974 DUP2 DUP6 PUSH3 0x18E8 JUMP JUMPDEST SWAP1 POP PUSH3 0x1985 PUSH1 0x20 DUP4 ADD DUP5 PUSH3 0xF23 JUMP JUMPDEST SWAP4 SWAP3 POP POP POP JUMP INVALID PUSH1 0x80 PUSH1 0x40 MSTORE CALLVALUE DUP1 ISZERO PUSH3 0x10 JUMPI PUSH0 DUP1 REVERT JUMPDEST POP PUSH1 0x40 MLOAD PUSH3 0xE84 CODESIZE SUB DUP1 PUSH3 0xE84 DUP4 CODECOPY DUP2 DUP2 ADD PUSH1 0x40 MSTORE DUP2 ADD SWAP1 PUSH3 0x36 SWAP2 SWAP1 PUSH3 0x275 JUMP JUMPDEST DUP2 PUSH0 DUP1 PUSH2 0x100 EXP DUP2 SLOAD DUP2 PUSH20 0xFFFFFFFFFFFFFFFFFFFFFFFFFFFFFFFFFFFFFFFF MUL NOT AND SWAP1 DUP4 PUSH20 0xFFFFFFFFFFFFFFFFFFFFFFFFFFFFFFFFFFFFFFFF AND MUL OR SWAP1 SSTORE POP DUP1 PUSH1 0x1 SWAP1 DUP2 PUSH3 0x86 SWAP2 SWAP1 PUSH3 0x510 JUMP JUMPDEST POP POP POP PUSH3 0x5F4 JUMP JUMPDEST PUSH0 PUSH1 0x40 MLOAD SWAP1 POP SWAP1 JUMP JUMPDEST PUSH0 DUP1 REVERT JUMPDEST PUSH0 DUP1 REVERT JUMPDEST PUSH0 PUSH20 0xFFFFFFFFFFFFFFFFFFFFFFFFFFFFFFFFFFFFFFFF DUP3 AND SWAP1 POP SWAP2 SWAP1 POP JUMP JUMPDEST PUSH0 PUSH3 0xCB DUP3 PUSH3 0xA0 JUMP JUMPDEST SWAP1 POP SWAP2 SWAP1 POP JUMP JUMPDEST PUSH3 0xDD DUP2 PUSH3 0xBF JUMP JUMPDEST DUP2 EQ PUSH3 0xE8 JUMPI PUSH0 DUP1 REVERT JUMPDEST POP JUMP JUMPDEST PUSH0 DUP2 MLOAD SWAP1 POP PUSH3 0xFB DUP2 PUSH3 0xD2 JUMP JUMPDEST SWAP3 SWAP2 POP POP JUMP JUMPDEST PUSH0 DUP1 REVERT JUMPDEST PUSH0 DUP1 REVERT JUMPDEST PUSH0 PUSH1 0x1F NOT PUSH1 0x1F DUP4 ADD AND SWAP1 POP SWAP2 SWAP1 POP JUMP JUMPDEST PUSH32 0x4E487B7100000000000000000000000000000000000000000000000000000000 PUSH0 MSTORE PUSH1 0x41 PUSH1 0x4 MSTORE PUSH1 0x24 PUSH0 REVERT JUMPDEST PUSH3 0x151 DUP3 PUSH3 0x109 JUMP JUMPDEST DUP2 ADD DUP2 DUP2 LT PUSH8 0xFFFFFFFFFFFFFFFF DUP3 GT OR ISZERO PUSH3 0x173 JUMPI PUSH3 0x172 PUSH3 0x119 JUMP JUMPDEST JUMPDEST DUP1 PUSH1 0x40 MSTORE POP POP POP JUMP JUMPDEST PUSH0 PUSH3 0x187 PUSH3 0x8F JUMP JUMPDEST SWAP1 POP PUSH3 0x195 DUP3 DUP3 PUSH3 0x146 JUMP JUMPDEST SWAP2 SWAP1 POP JUMP JUMPDEST PUSH0 PUSH8 0xFFFFFFFFFFFFFFFF DUP3 GT ISZERO PUSH3 0x1B7 JUMPI PUSH3 0x1B6 PUSH3 0x119 JUMP JUMPDEST JUMPDEST PUSH3 0x1C2 DUP3 PUSH3 0x109 JUMP JUMPDEST SWAP1 POP PUSH1 0x20 DUP2 ADD SWAP1 POP SWAP2 SWAP1 POP JUMP JUMPDEST PUSH0 JUMPDEST DUP4 DUP2 LT ISZERO PUSH3 0x1EE JUMPI DUP1 DUP3 ADD MLOAD DUP2 DUP5 ADD MSTORE PUSH1 0x20 DUP2 ADD SWAP1 POP PUSH3 0x1D1 JUMP JUMPDEST PUSH0 DUP5 DUP5 ADD MSTORE POP POP POP POP JUMP JUMPDEST PUSH0 PUSH3 0x20F PUSH3 0x209 DUP5 PUSH3 0x19A JUMP JUMPDEST PUSH3 0x17C JUMP JUMPDEST SWAP1 POP DUP3 DUP2 MSTORE PUSH1 0x20 DUP2 ADD DUP5 DUP5 DUP5 ADD GT ISZERO PUSH3 0x22E JUMPI PUSH3 0x22D PUSH3 0x105 JUMP JUMPDEST JUMPDEST PUSH3 0x23B DUP5 DUP3 DUP6 PUSH3 0x1CF JUMP JUMPDEST POP SWAP4 SWAP3 POP POP POP JUMP JUMPDEST PUSH0 DUP3 PUSH1 0x1F DUP4 ADD SLT PUSH3 0x25A JUMPI PUSH3 0x259 PUSH3 0x101 JUMP JUMPDEST JUMPDEST DUP2 MLOAD PUSH3 0x26C DUP5 DUP3 PUSH1 0x20 DUP7 ADD PUSH3 0x1F9 JUMP JUMPDEST SWAP2 POP POP SWAP3 SWAP2 POP POP JUMP JUMPDEST PUSH0 DUP1 PUSH1 0x40 DUP4 DUP6 SUB SLT ISZERO PUSH3 0x28E JUMPI PUSH3 0x28D PUSH3 0x98 JUMP JUMPDEST JUMPDEST PUSH0 PUSH3 0x29D DUP6 DUP3 DUP7 ADD PUSH3 0xEB JUMP JUMPDEST SWAP3 POP POP PUSH1 0x20 DUP4 ADD MLOAD PUSH8 0xFFFFFFFFFFFFFFFF DUP2 GT ISZERO PUSH3 0x2C1 JUMPI PUSH3 0x2C0 PUSH3 0x9C JUMP JUMPDEST JUMPDEST PUSH3 0x2CF DUP6 DUP3 DUP7 ADD PUSH3 0x243 JUMP JUMPDEST SWAP2 POP POP SWAP3 POP SWAP3 SWAP1 POP JUMP JUMPDEST PUSH0 DUP2 MLOAD SWAP1 POP SWAP2 SWAP1 POP JUMP JUMPDEST PUSH32 0x4E487B7100000000000000000000000000000000000000000000000000000000 PUSH0 MSTORE PUSH1 0x22 PUSH1 0x4 MSTORE PUSH1 0x24 PUSH0 REVERT JUMPDEST PUSH0 PUSH1 0x2 DUP3 DIV SWAP1 POP PUSH1 0x1 DUP3 AND DUP1 PUSH3 0x328 JUMPI PUSH1 0x7F DUP3 AND SWAP2 POP JUMPDEST PUSH1 0x20 DUP3 LT DUP2 SUB PUSH3 0x33E JUMPI PUSH3 0x33D PUSH3 0x2E3 JUMP JUMPDEST JUMPDEST POP SWAP2 SWAP1 POP JUMP JUMPDEST PUSH0 DUP2 SWAP1 POP DUP2 PUSH0 MSTORE PUSH1 0x20 PUSH0 KECCAK256 SWAP1 POP SWAP2 SWAP1 POP JUMP JUMPDEST PUSH0 PUSH1 0x20 PUSH1 0x1F DUP4 ADD DIV SWAP1 POP SWAP2 SWAP1 POP JUMP JUMPDEST PUSH0 DUP3 DUP3 SHL SWAP1 POP SWAP3 SWAP2 POP POP JUMP JUMPDEST PUSH0 PUSH1 0x8 DUP4 MUL PUSH3 0x3A2 PUSH32 0xFFFFFFFFFFFFFFFFFFFFFFFFFFFFFFFFFFFFFFFFFFFFFFFFFFFFFFFFFFFFFFFF DUP3 PUSH3 0x365 JUMP JUMPDEST PUSH3 0x3AE DUP7 DUP4 PUSH3 0x365 JUMP JUMPDEST SWAP6 POP DUP1 NOT DUP5 AND SWAP4 POP DUP1 DUP7 AND DUP5 OR SWAP3 POP POP POP SWAP4 SWAP3 POP POP POP JUMP JUMPDEST PUSH0 DUP2 SWAP1 POP SWAP2 SWAP1 POP JUMP JUMPDEST PUSH0 DUP2 SWAP1 POP SWAP2 SWAP1 POP JUMP JUMPDEST PUSH0 PUSH3 0x3F8 PUSH3 0x3F2 PUSH3 0x3EC DUP5 PUSH3 0x3C6 JUMP JUMPDEST PUSH3 0x3CF JUMP JUMPDEST PUSH3 0x3C6 JUMP JUMPDEST SWAP1 POP SWAP2 SWAP1 POP JUMP JUMPDEST PUSH0 DUP2 SWAP1 POP SWAP2 SWAP1 POP JUMP JUMPDEST PUSH3 0x413 DUP4 PUSH3 0x3D8 JUMP JUMPDEST PUSH3 0x42B PUSH3 0x422 DUP3 PUSH3 0x3FF JUMP JUMPDEST DUP5 DUP5 SLOAD PUSH3 0x371 JUMP JUMPDEST DUP3 SSTORE POP POP POP POP JUMP JUMPDEST PUSH0 SWAP1 JUMP JUMPDEST PUSH3 0x441 PUSH3 0x433 JUMP JUMPDEST PUSH3 0x44E DUP2 DUP5 DUP5 PUSH3 0x408 JUMP JUMPDEST POP POP POP JUMP JUMPDEST JUMPDEST DUP2 DUP2 LT ISZERO PUSH3 0x475 JUMPI PUSH3 0x469 PUSH0 DUP3 PUSH3 0x437 JUMP JUMPDEST PUSH1 0x1 DUP2 ADD SWAP1 POP PUSH3 0x454 JUMP JUMPDEST POP POP JUMP JUMPDEST PUSH1 0x1F DUP3 GT ISZERO PUSH3 0x4C4 JUMPI PUSH3 0x48E DUP2 PUSH3 0x344 JUMP JUMPDEST PUSH3 0x499 DUP5 PUSH3 0x356 JUMP JUMPDEST DUP2 ADD PUSH1 0x20 DUP6 LT ISZERO PUSH3 0x4A9 JUMPI DUP2 SWAP1 POP JUMPDEST PUSH3 0x4C1 PUSH3 0x4B8 DUP6 PUSH3 0x356 JUMP JUMPDEST DUP4 ADD DUP3 PUSH3 0x453 JUMP JUMPDEST POP POP JUMPDEST POP POP POP JUMP JUMPDEST PUSH0 DUP3 DUP3 SHR SWAP1 POP SWAP3 SWAP2 POP POP JUMP JUMPDEST PUSH0 PUSH3 0x4E6 PUSH0 NOT DUP5 PUSH1 0x8 MUL PUSH3 0x4C9 JUMP JUMPDEST NOT DUP1 DUP4 AND SWAP2 POP POP SWAP3 SWAP2 POP POP JUMP JUMPDEST PUSH0 PUSH3 0x500 DUP4 DUP4 PUSH3 0x4D5 JUMP JUMPDEST SWAP2 POP DUP3 PUSH1 0x2 MUL DUP3 OR SWAP1 POP SWAP3 SWAP2 POP POP JUMP JUMPDEST PUSH3 0x51B DUP3 PUSH3 0x2D9 JUMP JUMPDEST PUSH8 0xFFFFFFFFFFFFFFFF DUP2 GT ISZERO PUSH3 0x537 JUMPI PUSH3 0x536 PUSH3 0x119 JUMP JUMPDEST JUMPDEST PUSH3 0x543 DUP3 SLOAD PUSH3 0x310 JUMP JUMPDEST PUSH3 0x550 DUP3 DUP3 DUP6 PUSH3 0x479 JUMP JUMPDEST PUSH0 PUSH1 0x20 SWAP1 POP PUSH1 0x1F DUP4 GT PUSH1 0x1 DUP2 EQ PUSH3 0x586 JUMPI PUSH0 DUP5 ISZERO PUSH3 0x571 JUMPI DUP3 DUP8 ADD MLOAD SWAP1 POP JUMPDEST PUSH3 0x57D DUP6 DUP3 PUSH3 0x4F3 JUMP JUMPDEST DUP7 SSTORE POP PUSH3 0x5EC JUMP JUMPDEST PUSH1 0x1F NOT DUP5 AND PUSH3 0x596 DUP7 PUSH3 0x344 JUMP JUMPDEST PUSH0 JUMPDEST DUP3 DUP2 LT ISZERO PUSH3 0x5BF JUMPI DUP5 DUP10 ADD MLOAD DUP3 SSTORE PUSH1 0x1 DUP3 ADD SWAP2 POP PUSH1 0x20 DUP6 ADD SWAP5 POP PUSH1 0x20 DUP2 ADD SWAP1 POP PUSH3 0x598 JUMP JUMPDEST DUP7 DUP4 LT ISZERO PUSH3 0x5DF JUMPI DUP5 DUP10 ADD MLOAD PUSH3 0x5DB PUSH1 0x1F DUP10 AND DUP3 PUSH3 0x4D5 JUMP JUMPDEST DUP4 SSTORE POP JUMPDEST PUSH1 0x1 PUSH1 0x2 DUP9 MUL ADD DUP9 SSTORE POP POP POP JUMPDEST POP POP POP POP POP POP JUMP JUMPDEST PUSH2 0x882 DUP1 PUSH3 0x602 PUSH0 CODECOPY PUSH0 RETURN INVALID PUSH1 0x80 PUSH1 0x40 MSTORE PUSH1 0x4 CALLDATASIZE LT PUSH2 0x58 JUMPI PUSH0 CALLDATALOAD PUSH1 0xE0 SHR DUP1 PUSH4 0x19C08F5 EQ PUSH2 0x7A JUMPI DUP1 PUSH4 0xB69EF8A8 EQ PUSH2 0xA4 JUMPI DUP1 PUSH4 0xC71DACCB EQ PUSH2 0xCE JUMPI DUP1 PUSH4 0xD0E30DB0 EQ PUSH2 0xF8 JUMPI DUP1 PUSH4 0xF3FEF3A3 EQ PUSH2 0x102 JUMPI DUP1 PUSH4 0xF77C4791 EQ PUSH2 0x12A JUMPI PUSH2 0x76 JUMP JUMPDEST CALLDATASIZE PUSH2 0x76 JUMPI CALLVALUE PUSH1 0x2 PUSH0 DUP3 DUP3 SLOAD PUSH2 0x6E SWAP2 SWAP1 PUSH2 0x4D2 JUMP JUMPDEST SWAP3 POP POP DUP2 SWAP1 SSTORE STOP JUMPDEST PUSH0 DUP1 REVERT JUMPDEST CALLVALUE DUP1 ISZERO PUSH2 0x85 JUMPI PUSH0 DUP1 REVERT JUMPDEST POP PUSH2 0x8E PUSH2 0x154 JUMP JUMPDEST PUSH1 0x40 MLOAD PUSH2 0x9B SWAP2 SWAP1 PUSH2 0x58F JUMP JUMPDEST PUSH1 0x40 MLOAD DUP1 SWAP2 SUB SWAP1 RETURN JUMPDEST CALLVALUE DUP1 ISZERO PUSH2 0xAF JUMPI PUSH0 DUP1 REVERT JUMPDEST POP PUSH2 0xB8 PUSH2 0x1E0 JUMP JUMPDEST PUSH1 0x40 MLOAD PUSH2 0xC5 SWAP2 SWAP1 PUSH2 0x5BE JUMP JUMPDEST PUSH1 0x40 MLOAD DUP1 SWAP2 SUB SWAP1 RETURN JUMPDEST CALLVALUE DUP1 ISZERO PUSH2 0xD9 JUMPI PUSH0 DUP1 REVERT JUMPDEST POP PUSH2 0xE2 PUSH2 0x1E6 JUMP JUMPDEST PUSH1 0x40 MLOAD PUSH2 0xEF SWAP2 SWAP1 PUSH2 0x5BE JUMP JUMPDEST PUSH1 0x40 MLOAD DUP1 SWAP2 SUB SWAP1 RETURN JUMPDEST PUSH2 0x100 PUSH2 0x1EF JUMP JUMPDEST STOP JUMPDEST CALLVALUE DUP1 ISZERO PUSH2 0x10D JUMPI PUSH0 DUP1 REVERT JUMPDEST POP PUSH2 0x128 PUSH1 0x4 DUP1 CALLDATASIZE SUB DUP2 ADD SWAP1 PUSH2 0x123 SWAP2 SWAP1 PUSH2 0x65F JUMP JUMPDEST PUSH2 0x2B9 JUMP JUMPDEST STOP JUMPDEST CALLVALUE DUP1 ISZERO PUSH2 0x135 JUMPI PUSH0 DUP1 REVERT JUMPDEST POP PUSH2 0x13E PUSH2 0x479 JUMP JUMPDEST PUSH1 0x40 MLOAD PUSH2 0x14B SWAP2 SWAP1 PUSH2 0x6AC JUMP JUMPDEST PUSH1 0x40 MLOAD DUP1 SWAP2 SUB SWAP1 RETURN JUMPDEST PUSH1 0x1 DUP1 SLOAD PUSH2 0x161 SWAP1 PUSH2 0x6F2 JUMP JUMPDEST DUP1 PUSH1 0x1F ADD PUSH1 0x20 DUP1 SWAP2 DIV MUL PUSH1 0x20 ADD PUSH1 0x40 MLOAD SWAP1 DUP2 ADD PUSH1 0x40 MSTORE DUP1 SWAP3 SWAP2 SWAP1 DUP2 DUP2 MSTORE PUSH1 0x20 ADD DUP3 DUP1 SLOAD PUSH2 0x18D SWAP1 PUSH2 0x6F2 JUMP JUMPDEST DUP1 ISZERO PUSH2 0x1D8 JUMPI DUP1 PUSH1 0x1F LT PUSH2 0x1AF JUMPI PUSH2 0x100 DUP1 DUP4 SLOAD DIV MUL DUP4 MSTORE SWAP2 PUSH1 0x20 ADD SWAP2 PUSH2 0x1D8 JUMP JUMPDEST DUP3 ADD SWAP2 SWAP1 PUSH0 MSTORE PUSH1 0x20 PUSH0 KECCAK256 SWAP1 JUMPDEST DUP2 SLOAD DUP2 MSTORE SWAP1 PUSH1 0x1 ADD SWAP1 PUSH1 0x20 ADD DUP1 DUP4 GT PUSH2 0x1BB JUMPI DUP3 SWAP1 SUB PUSH1 0x1F AND DUP3 ADD SWAP2 JUMPDEST POP POP POP POP POP DUP2 JUMP JUMPDEST PUSH1 0x2 SLOAD DUP2 JUMP JUMPDEST PUSH0 PUSH1 0x2 SLOAD SWAP1 POP SWAP1 JUMP JUMPDEST PUSH0 DUP1 SLOAD SWAP1 PUSH2 0x100 EXP SWAP1 DIV PUSH20 0xFFFFFFFFFFFFFFFFFFFFFFFFFFFFFFFFFFFFFFFF AND PUSH20 0xFFFFFFFFFFFFFFFFFFFFFFFFFFFFFFFFFFFFFFFF AND CALLER PUSH20 0xFFFFFFFFFFFFFFFFFFFFFFFFFFFFFFFFFFFFFFFF AND EQ PUSH2 0x29F JUMPI PUSH0 DUP1 SLOAD SWAP1 PUSH2 0x100 EXP SWAP1 DIV PUSH20 0xFFFFFFFFFFFFFFFFFFFFFFFFFFFFFFFFFFFFFFFF AND CALLER PUSH1 0x40 MLOAD PUSH32 0x295A81C100000000000000000000000000000000000000000000000000000000 DUP2 MSTORE PUSH1 0x4 ADD PUSH2 0x296 SWAP3 SWAP2 SWAP1 PUSH2 0x722 JUMP JUMPDEST PUSH1 0x40 MLOAD DUP1 SWAP2 SUB SWAP1 REVERT JUMPDEST CALLVALUE PUSH1 0x2 PUSH0 DUP3 DUP3 SLOAD PUSH2 0x2B0 SWAP2 SWAP1 PUSH2 0x4D2 JUMP JUMPDEST SWAP3 POP POP DUP2 SWAP1 SSTORE POP JUMP JUMPDEST PUSH0 DUP1 SLOAD SWAP1 PUSH2 0x100 EXP SWAP1 DIV PUSH20 0xFFFFFFFFFFFFFFFFFFFFFFFFFFFFFFFFFFFFFFFF AND PUSH20 0xFFFFFFFFFFFFFFFFFFFFFFFFFFFFFFFFFFFFFFFF AND CALLER PUSH20 0xFFFFFFFFFFFFFFFFFFFFFFFFFFFFFFFFFFFFFFFF AND EQ PUSH2 0x369 JUMPI PUSH0 DUP1 SLOAD SWAP1 PUSH2 0x100 EXP SWAP1 DIV PUSH20 0xFFFFFFFFFFFFFFFFFFFFFFFFFFFFFFFFFFFFFFFF AND CALLER PUSH1 0x40 MLOAD PUSH32 0x295A81C100000000000000000000000000000000000000000000000000000000 DUP2 MSTORE PUSH1 0x4 ADD PUSH2 0x360 SWAP3 SWAP2 SWAP1 PUSH2 0x722 JUMP JUMPDEST PUSH1 0x40 MLOAD DUP1 SWAP2 SUB SWAP1 REVERT JUMPDEST PUSH1 0x2 SLOAD DUP2 GT ISZERO PUSH2 0x3B4 JUMPI PUSH1 0x2 SLOAD DUP2 PUSH1 0x40 MLOAD PUSH32 0x3EB8B5400000000000000000000000000000000000000000000000000000000 DUP2 MSTORE PUSH1 0x4 ADD PUSH2 0x3AB SWAP3 SWAP2 SWAP1 PUSH2 0x749 JUMP JUMPDEST PUSH1 0x40 MLOAD DUP1 SWAP2 SUB SWAP1 REVERT JUMPDEST DUP1 PUSH1 0x2 PUSH0 DUP3 DUP3 SLOAD PUSH2 0x3C5 SWAP2 SWAP1 PUSH2 0x770 JUMP JUMPDEST SWAP3 POP POP DUP2 SWAP1 SSTORE POP PUSH0 DUP3 PUSH20 0xFFFFFFFFFFFFFFFFFFFFFFFFFFFFFFFFFFFFFFFF AND DUP3 PUSH1 0x40 MLOAD PUSH2 0x3F1 SWAP1 PUSH2 0x7D0 JUMP JUMPDEST PUSH0 PUSH1 0x40 MLOAD DUP1 DUP4 SUB DUP2 DUP6 DUP8 GAS CALL SWAP3 POP POP POP RETURNDATASIZE DUP1 PUSH0 DUP2 EQ PUSH2 0x42B JUMPI PUSH1 0x40 MLOAD SWAP2 POP PUSH1 0x1F NOT PUSH1 0x3F RETURNDATASIZE ADD AND DUP3 ADD PUSH1 0x40 MSTORE RETURNDATASIZE DUP3 MSTORE RETURNDATASIZE PUSH0 PUSH1 0x20 DUP5 ADD RETURNDATACOPY PUSH2 0x430 JUMP JUMPDEST PUSH1 0x60 SWAP2 POP JUMPDEST POP POP SWAP1 POP DUP1 PUSH2 0x474 JUMPI PUSH1 0x40 MLOAD PUSH32 0x8C379A000000000000000000000000000000000000000000000000000000000 DUP2 MSTORE PUSH1 0x4 ADD PUSH2 0x46B SWAP1 PUSH2 0x82E JUMP JUMPDEST PUSH1 0x40 MLOAD DUP1 SWAP2 SUB SWAP1 REVERT JUMPDEST POP POP POP JUMP JUMPDEST PUSH0 DUP1 SLOAD SWAP1 PUSH2 0x100 EXP SWAP1 DIV PUSH20 0xFFFFFFFFFFFFFFFFFFFFFFFFFFFFFFFFFFFFFFFF AND DUP2 JUMP JUMPDEST PUSH0 DUP2 SWAP1 POP SWAP2 SWAP1 POP JUMP JUMPDEST PUSH32 0x4E487B7100000000000000000000000000000000000000000000000000000000 PUSH0 MSTORE PUSH1 0x11 PUSH1 0x4 MSTORE PUSH1 0x24 PUSH0 REVERT JUMPDEST PUSH0 PUSH2 0x4DC DUP3 PUSH2 0x49C JUMP JUMPDEST SWAP2 POP PUSH2 0x4E7 DUP4 PUSH2 0x49C JUMP JUMPDEST SWAP3 POP DUP3 DUP3 ADD SWAP1 POP DUP1 DUP3 GT ISZERO PUSH2 0x4FF JUMPI PUSH2 0x4FE PUSH2 0x4A5 JUMP JUMPDEST JUMPDEST SWAP3 SWAP2 POP POP JUMP JUMPDEST PUSH0 DUP2 MLOAD SWAP1 POP SWAP2 SWAP1 POP JUMP JUMPDEST PUSH0 DUP3 DUP3 MSTORE PUSH1 0x20 DUP3 ADD SWAP1 POP SWAP3 SWAP2 POP POP JUMP JUMPDEST PUSH0 JUMPDEST DUP4 DUP2 LT ISZERO PUSH2 0x53C JUMPI DUP1 DUP3 ADD MLOAD DUP2 DUP5 ADD MSTORE PUSH1 0x20 DUP2 ADD SWAP1 POP PUSH2 0x521 JUMP JUMPDEST PUSH0 DUP5 DUP5 ADD MSTORE POP POP POP POP JUMP JUMPDEST PUSH0 PUSH1 0x1F NOT PUSH1 0x1F DUP4 ADD AND SWAP1 POP SWAP2 SWAP1 POP JUMP JUMPDEST PUSH0 PUSH2 0x561 DUP3 PUSH2 0x505 JUMP JUMPDEST PUSH2 0x56B DUP2 DUP6 PUSH2 0x50F JUMP JUMPDEST SWAP4 POP PUSH2 0x57B DUP2 DUP6 PUSH1 0x20 DUP7 ADD PUSH2 0x51F JUMP JUMPDEST PUSH2 0x584 DUP2 PUSH2 0x547 JUMP JUMPDEST DUP5 ADD SWAP2 POP POP SWAP3 SWAP2 POP POP JUMP JUMPDEST PUSH0 PUSH1 0x20 DUP3 ADD SWAP1 POP DUP2 DUP2 SUB PUSH0 DUP4 ADD MSTORE PUSH2 0x5A7 DUP2 DUP5 PUSH2 0x557 JUMP JUMPDEST SWAP1 POP SWAP3 SWAP2 POP POP JUMP JUMPDEST PUSH2 0x5B8 DUP2 PUSH2 0x49C JUMP JUMPDEST DUP3 MSTORE POP POP JUMP JUMPDEST PUSH0 PUSH1 0x20 DUP3 ADD SWAP1 POP PUSH2 0x5D1 PUSH0 DUP4 ADD DUP5 PUSH2 0x5AF JUMP JUMPDEST SWAP3 SWAP2 POP POP JUMP JUMPDEST PUSH0 DUP1 REVERT JUMPDEST PUSH0 PUSH20 0xFFFFFFFFFFFFFFFFFFFFFFFFFFFFFFFFFFFFFFFF DUP3 AND SWAP1 POP SWAP2 SWAP1 POP JUMP JUMPDEST PUSH0 PUSH2 0x604 DUP3 PUSH2 0x5DB JUMP JUMPDEST SWAP1 POP SWAP2 SWAP1 POP JUMP JUMPDEST PUSH2 0x614 DUP2 PUSH2 0x5FA JUMP JUMPDEST DUP2 EQ PUSH2 0x61E JUMPI PUSH0 DUP1 REVERT JUMPDEST POP JUMP JUMPDEST PUSH0 DUP2 CALLDATALOAD SWAP1 POP PUSH2 0x62F DUP2 PUSH2 0x60B JUMP JUMPDEST SWAP3 SWAP2 POP POP JUMP JUMPDEST PUSH2 0x63E DUP2 PUSH2 0x49C JUMP JUMPDEST DUP2 EQ PUSH2 0x648 JUMPI PUSH0 DUP1 REVERT JUMPDEST POP JUMP JUMPDEST PUSH0 DUP2 CALLDATALOAD SWAP1 POP PUSH2 0x659 DUP2 PUSH2 0x635 JUMP JUMPDEST SWAP3 SWAP2 POP POP JUMP JUMPDEST PUSH0 DUP1 PUSH1 0x40 DUP4 DUP6 SUB SLT ISZERO PUSH2 0x675 JUMPI PUSH2 0x674 PUSH2 0x5D7 JUMP JUMPDEST JUMPDEST PUSH0 PUSH2 0x682 DUP6 DUP3 DUP7 ADD PUSH2 0x621 JUMP JUMPDEST SWAP3 POP POP PUSH1 0x20 PUSH2 0x693 DUP6 DUP3 DUP7 ADD PUSH2 0x64B JUMP JUMPDEST SWAP2 POP POP SWAP3 POP SWAP3 SWAP1 POP JUMP JUMPDEST PUSH2 0x6A6 DUP2 PUSH2 0x5FA JUMP JUMPDEST DUP3 MSTORE POP POP JUMP JUMPDEST PUSH0 PUSH1 0x20 DUP3 ADD SWAP1 POP PUSH2 0x6BF PUSH0 DUP4 ADD DUP5 PUSH2 0x69D JUMP JUMPDEST SWAP3 SWAP2 POP POP JUMP JUMPDEST PUSH32 0x4E487B7100000000000000000000000000000000000000000000000000000000 PUSH0 MSTORE PUSH1 0x22 PUSH1 0x4 MSTORE PUSH1 0x24 PUSH0 REVERT JUMPDEST PUSH0 PUSH1 0x2 DUP3 DIV SWAP1 POP PUSH1 0x1 DUP3 AND DUP1 PUSH2 0x709 JUMPI PUSH1 0x7F DUP3 AND SWAP2 POP JUMPDEST PUSH1 0x20 DUP3 LT DUP2 SUB PUSH2 0x71C JUMPI PUSH2 0x71B PUSH2 0x6C5 JUMP JUMPDEST JUMPDEST POP SWAP2 SWAP1 POP JUMP JUMPDEST PUSH0 PUSH1 0x40 DUP3 ADD SWAP1 POP PUSH2 0x735 PUSH0 DUP4 ADD DUP6 PUSH2 0x69D JUMP JUMPDEST PUSH2 0x742 PUSH1 0x20 DUP4 ADD DUP5 PUSH2 0x69D JUMP JUMPDEST SWAP4 SWAP3 POP POP POP JUMP JUMPDEST PUSH0 PUSH1 0x40 DUP3 ADD SWAP1 POP PUSH2 0x75C PUSH0 DUP4 ADD DUP6 PUSH2 0x5AF JUMP JUMPDEST PUSH2 0x769 PUSH1 0x20 DUP4 ADD DUP5 PUSH2 0x5AF JUMP JUMPDEST SWAP4 SWAP3 POP POP POP JUMP JUMPDEST PUSH0 PUSH2 0x77A DUP3 PUSH2 0x49C JUMP JUMPDEST SWAP2 POP PUSH2 0x785 DUP4 PUSH2 0x49C JUMP JUMPDEST SWAP3 POP DUP3 DUP3 SUB SWAP1 POP DUP2 DUP2 GT ISZERO PUSH2 0x79D JUMPI PUSH2 0x79C PUSH2 0x4A5 JUMP JUMPDEST JUMPDEST SWAP3 SWAP2 POP POP JUMP JUMPDEST PUSH0 DUP2 SWAP1 POP SWAP3 SWAP2 POP POP JUMP JUMPDEST POP JUMP JUMPDEST PUSH0 PUSH2 0x7BB PUSH0 DUP4 PUSH2 0x7A3 JUMP JUMPDEST SWAP2 POP PUSH2 0x7C6 DUP3 PUSH2 0x7AD JUMP JUMPDEST PUSH0 DUP3 ADD SWAP1 POP SWAP2 SWAP1 POP JUMP JUMPDEST PUSH0 PUSH2 0x7DA DUP3 PUSH2 0x7B0 JUMP JUMPDEST SWAP2 POP DUP2 SWAP1 POP SWAP2 SWAP1 POP JUMP JUMPDEST PUSH32 0x5472616E73666572206661696C65640000000000000000000000000000000000 PUSH0 DUP3 ADD MSTORE POP JUMP JUMPDEST PUSH0 PUSH2 0x818 PUSH1 0xF DUP4 PUSH2 0x50F JUMP JUMPDEST SWAP2 POP PUSH2 0x823 DUP3 PUSH2 0x7E4 JUMP JUMPDEST PUSH1 0x20 DUP3 ADD SWAP1 POP SWAP2 SWAP1 POP JUMP JUMPDEST PUSH0 PUSH1 0x20 DUP3 ADD SWAP1 POP DUP2 DUP2 SUB PUSH0 DUP4 ADD MSTORE PUSH2 0x845 DUP2 PUSH2 0x80C JUMP JUMPDEST SWAP1 POP SWAP2 SWAP1 POP JUMP INVALID LOG2 PUSH5 0x6970667358 0x22 SLT KECCAK256 SGT 0xEE 0x2A STOP 0xFB 0xFC JUMPI 0xEB SHR 0xC2 DUP4 LT BASEFEE 0xB7 JUMP MUL NOT MULMOD PUSH11 0x996D969B8D13333652B99A PUSH26 0xC964736F6C63430008180033A2646970667358221220B2C04F7E PUSH11 0x11696C382B83EAB93799B9 0xD7 SLT 0xAC NOT EXTCODESIZE 0xBA 0x4E BASEFEE SWAP15 PUSH0 SWAP1 SWAP2 0xD1 0xE3 SAR 0xEF PUSH5 0x736F6C6343 STOP ADDMOD XOR STOP CALLER "
				},
				"gasEstimates": {
					"creation": {
						"codeDepositCost": "2062000",
						"executionCost": "infinite",
						"totalCost": "infinite"
					},
					"external": {
						"ccipReceive((bytes32,uint64,bytes,bytes,(address,uint256)[]))": "infinite",
						"depositTo(string)": "infinite",
						"entrypointAddress()": "2508",
						"entrypointChainSelector()": "2562",
						"getRouter()": "infinite",
						"supportsInterface(bytes4)": "676",
						"userInteractionAddress()": "2574",
						"walletOwnership(string)": "infinite",
						"withdrawTo(string,address,uint256)": "infinite"
					},
					"internal": {
						"_ccipReceive(struct Client.Any2EVMMessage memory)": "infinite",
						"_getOrCreateWallet(string memory)": "infinite",
						"transferTo(string memory,string memory,uint256)": "infinite"
					}
				},
				"methodIdentifiers": {
					"ccipReceive((bytes32,uint64,bytes,bytes,(address,uint256)[]))": "85572ffb",
					"depositTo(string)": "dd105862",
					"entrypointAddress()": "8c60948b",
					"entrypointChainSelector()": "45aafc0b",
					"getRouter()": "b0f479a1",
					"supportsInterface(bytes4)": "01ffc9a7",
					"userInteractionAddress()": "baa96000",
					"walletOwnership(string)": "aff9bd9c",
					"withdrawTo(string,address,uint256)": "3b0e8752"
				}
			},
			"storageLayout": {
				"storage": [
					{
						"astId": 429,
						"contract": "contracts/WalletController.sol:WalletController",
						"label": "walletOwnership",
						"offset": 0,
						"slot": "0",
						"type": "t_mapping(t_string_memory_ptr,t_address)"
					},
					{
						"astId": 431,
						"contract": "contracts/WalletController.sol:WalletController",
						"label": "entrypointAddress",
						"offset": 0,
						"slot": "1",
						"type": "t_address"
					},
					{
						"astId": 433,
						"contract": "contracts/WalletController.sol:WalletController",
						"label": "userInteractionAddress",
						"offset": 0,
						"slot": "2",
						"type": "t_address"
					},
					{
						"astId": 435,
						"contract": "contracts/WalletController.sol:WalletController",
						"label": "entrypointChainSelector",
						"offset": 20,
						"slot": "2",
						"type": "t_uint64"
					}
				],
				"types": {
					"t_address": {
						"encoding": "inplace",
						"label": "address",
						"numberOfBytes": "20"
					},
					"t_mapping(t_string_memory_ptr,t_address)": {
						"encoding": "mapping",
						"key": "t_string_memory_ptr",
						"label": "mapping(string => address)",
						"numberOfBytes": "32",
						"value": "t_address"
					},
					"t_string_memory_ptr": {
						"encoding": "bytes",
						"label": "string",
						"numberOfBytes": "32"
					},
					"t_uint64": {
						"encoding": "inplace",
						"label": "uint64",
						"numberOfBytes": "8"
					}
				}
			},
			"userdoc": {
				"kind": "user",
				"methods": {
					"ccipReceive((bytes32,uint64,bytes,bytes,(address,uint256)[]))": {
						"notice": "Called by the Router to deliver a message. If this reverts, any token transfers also revert. The message will move to a FAILED state and become available for manual execution."
					},
					"getRouter()": {
						"notice": "Return the current router"
					},
					"supportsInterface(bytes4)": {
						"notice": "IERC165 supports an interfaceId."
					}
				},
				"version": 1
			}
		}
	}
}